:100000000C944F070C9477070C9477070C947707A0
:100010000C9477070C9477070C9477070C94770768
:100020000C9477070C9477070C9466140C942D1697
:100030000C9477070C9477070C9477070C94770748
:100040000C9477070C9477070C9477070C94770738
:100050000C9477070C9477070C9477070C94CA24B8
:100060000C9477070C9491180C946B180C947707E8
:100070000C9477070C9477070C9477070C94770708
:100080000C9477070C9477070C9477070C947707F8
:100090000C94FB1C0C9477070C9477070C9477074F
:1000A0000C9477070C9477070C947707C42C132DC6
:1000B0006B2DAD2DBF2DCC2D492E2B0E6F0E870E27
:1000C0008A0E940E970E9A0E6B1E701E701E671E7F
:1000D0006B1E701E701E701E701E701E6B1E6B1EBF
:1000E000701E671E451F481F371F3B1F411F691F9A
:1000F000691F691F4C1F501F541F5A1F5E1F691F25
:10010000641FAED580A81FD300408D142002A1C863
:10011000DA02817FD9F1DB40A4A6AF020119802069
:1001200000080B00020202010009040000010202A3
:100130000000052400100105240101010424020629
:100140000524060001070581031000400904010091
:10015000020A0000000705020240000007058302B2
:100160004000000403090412010002EF02014041B3
:1001700023368000010102030141726475696E6FCC
:10018000204C4C430041726475696E6F204C656F62
:100190006E6172646F0000030C0F30333C3FC0C3CC
:1001A000CCCFF0F3FCFF070605040100080A0B0C96
:1001B0000D0900000000240027002A002D00300057
:1001C000000000002300260029002C002F00000062
:1001D000000200090F0000030401000C00000000F1
:1001E0000000000000000000000000000022080DD8
:1001F0000E20600402050607080902030305080231
:100200000402040704070707070707070702020796
:100210000707080E09080808070709080207080762
:100220000B0809070909070808090D07080804044D
:100230000406080307070607070507070203060267
:100240000A0707070705060507070B060705050147
:100250000507080000000000000000FEFE18181E40
:100260001E001E1E000000000090F89E90F89E1CCC
:1002700000001C0000183C26FF66CC88040C183CCB
:10028000180C041C221CC0308E4080000018040092
:100290000C100C80CC7E72F2DE0C80000C1C101056
:1002A000101C0C1C101E1E0000F0FC061C7CC0065E
:1002B000FCF0C07C1C14140E14140000000000603C
:1002C0006060FCFC6060600000000C0C000000003E
:1002D000005838C0C0C0C00000000000001818005E
:1002E000C0380618040000F8FC0E060EFCF8040CDA
:1002F0001C181C0C04180CFEFE00001C1C181C868C
:10030000C6663E1C181C1C18181818888C06262651
:10031000FEDC040C1C18180C04C0E0B88CFEFE8037
:10032000040404041C1C04707E3E3636F6C60C1C05
:100330001818180C04F8FC6E6666EECC040C18183D
:10034000181C0C060606E6761E0600001C1C0000A3
:10035000009CFE666666FE9C0C1C1818181C0C3C63
:100360007E666666FCF80C1C18181C0C041818181D
:1003700018181858386060F0F098980C00000000C9
:1003800004040CD8D8D8D8D8D8D800000000000071
:10039000000C9898F0F060600C0404000000000865
:1003A0000C06C6E6763C180000001818000000E0B5
:1003B0003008C4F63A1A1AF2FA7E0408F00C3060DB
:1003C0004C9C98988C9C9C90484C2000C0F8BE8611
:1003D000BEF8C000181C04040404041C18FEFE66C9
:1003E000666666FEDC1C1C181818181C0CF8FC0E3F
:1003F00006060E9C08040C1C18181C0C04FEFE06B5
:1004000006060EFCF81C1C1818181C0C04FEFE66D0
:10041000666666661C1C1818181818FEFE66666666
:1004200066061C1C0000000000F8FC0E0606C6CE86
:10043000DCC8040C1C181818180C04FEFE60606060
:1004400060FEFE1C1C000000001C1CFEFE1C1C802C
:1004500080000000FEFE0C1C1818181C0CFEFE602C
:100460003078EC86021C1C000000041C18FEFE0004
:10047000000000001C1C1818181818FEFE0E7CE066
:1004800000E07C0EFEFE1C1C00000C1C0C00001C7E
:100490001CFEFE1C78E080FEFE1C1C0000040C1CF0
:1004A0001CF8FC0E0606060EFCF8040C1C181818A6
:1004B0001C0C04FEFE6666667E3C1C1C00000000F0
:1004C00000F8FC0E0686060EFCF8040C1C18181C1E
:1004D0000C1C24FEFE6666E6E6BE1C001C1C00002A
:1004E000000C1C18103C7E666666EECC0C1C1818BE
:1004F000181C0C060606FEFE0606060000001C1C64
:10050000000000FEFE00000000FEFE040C1C181897
:100510001C0C04021EFCE000E0FC1E020000001C9B
:100520001C1C00000006FEF800F0FE0EFEF000F8B5
:10053000FE0600001C1C1C0000001C1C1C00000609
:100540000EF8F0F80E06181C0400041C18060E38ED
:10055000F0F0380E060000001C1C000000060686A5
:10056000E6761E0E06181C1C1818181818FEFE0633
:1005700006FCFCC0C00638C000000004180606FED9
:10058000FEC0C0FCFC20380E0E3820000000000029
:1005900000000000000000000080808080808080DB
:1005A000800206040000001098D858F8F0000C1CD7
:1005B00018180C1C10FEFE301838F0E01C1C0C182B
:1005C0001C0C04E0F018183830040C18181C0CE04F
:1005D000F0381830FEFE040C1C180C1C1CE0F0D87F
:1005E000D8D8F0E0040C181818180818FCFE1A1ACD
:1005F000001C1C0000E0F0381830F8F864ECDCD87F
:10060000CCFC7CFEFE301818F8F01C1C0000001C0E
:100610001CFAFA1C1C00FAFAC0FC7CFEFEE0F09802
:10062000081C1C00041C18FEFE1C1CF8F81018F80E
:10063000F01818F8F01C1C00001C1C00001C1CF812
:10064000F8301818F8F01C1C0000001C1CE0F038F2
:100650001838F0E0040C1C181C0C04F8F83018389A
:10066000F0E0FCFC0C181C0C04E0F0381830F8F832
:10067000040C1C180CFCFCF8F83018181C1C0000AA
:100680000070F8D8D8D890081818181C0C18FCFE60
:100690001818000C1C1818F8F8000000F8F80C1CCA
:1006A00018180C1C1C38F8C000C0F83800001C1CBE
:1006B0001C000018F8E000F038F000E0F818000026
:1006C0001C1C0C000C1C1C00001838E0E03818182A
:1006D0001C04041C1818F8E000E0F8180084FCF86A
:1006E0003C04001898D878381C1C18181880FC7E18
:1006F0000606007CFCC0C0FEFC06067EFC80C0C076
:10070000FC7C006030307060603000000000000051
:1007100000FE020202020202FE1C10101010101055
:100720001C0000070E206000000000000000000018
:1007300000000000000000FC0000000000000D00B0
:10074000000000003C003C00000000000000000031
:100750000020F82020F820000107010107010060B7
:1007600090F89010000004040F040300001824986F
:1007700060100C000C02010609060030C8C83000E9
:1007800000000708080906090000003C00000000FE
:10079000000000000000000000E01804020000005B
:1007A000030C102000020418E000000020100C03CD
:1007B00000000080A0C0C0A0800000020101020073
:1007C00000808080F0808080000000070000000032
:1007D00000000000000020180C0400000080808051
:1007E0008080800000000000000000000000000089
:1007F000000000081C0800000000008060180600CF
:1008000018060100000000F008844408F00003040A
:100810000808040300201008FC0000000000000F7E
:10082000000000180404844438000C0A0908080871
:10083000000804444444B80006080808080700807B
:10084000601804FC0000010101010F01007C242458
:100850002424C40006080808080700F88444444417
:10086000880007080808080700040404C4340C00C2
:10087000000C0300000000B844444444B8000708DA
:1008800008080807007884848444F80004080808ED
:100890000807000020702000000000081C0800006D
:1008A000000020702000000020180C0400000080D0
:1008B00040201008000000010204080000404040F1
:1008C00040404000020202020202000008102040E4
:1008D0008000000804020100000484442418000081
:1008E000000D0000000000F008C42424F8000304F8
:1008F000090A0A0300F884848484F8000F000000C9
:10090000000F00FC4444447880000F0808080807E2
:1009100000F804040404180007080808080600FC8E
:1009200004040408F0000F080808040300FC444411
:10093000444404000F080808080800FC44444444E8
:1009400004000F000000000000F8040484849800F4
:1009500007080808080700FC40404040FC000F0062
:100960000000000F000404FC0404000008080F0845
:100970000800000000040404FC000608080808073A
:1009800000FC4020D00804000F000000030C00FC15
:100990000000000000000F080808080800FC1860AC
:1009A000806018FC0F00000100000FFC1860800040
:1009B000FC000F000001060F00F804040404F80016
:1009C00007080808080700FC8484848478000F0066
:1009D0000000000000F804040404F8000708080EF2
:1009E000181700FC8484848478000F000102040836
:1009F00000384444848408000408080808070004F8
:100A00000404FC0404040000000F000000FC0000CB
:100A10000000FC0007080808080700FC00000000B0
:100A2000FC0000030C0C030000FC0000C00000FCF4
:100A3000030C0300030C030C30C0C0300C000C038B
:100A40000000030C003C408080403C000000000F90
:100A500000000004048444340C000C0A090808084F
:100A6000000000FE0202020000003F2020200006DD
:100A70001860800000000000000106180002020259
:100A8000FE0000002020203F0000001008040408A1
:100A90001000000000000000000000000000000046
:100AA0002020202020200000040C1820000000003E
:100AB000000000000000A0A0A0A0C00007080808D7
:100AC000040F00FC40202020C0000F040808080785
:100AD00000C020202020400007080808080400C0AB
:100AE00020202040FC0007080808040F00C0202038
:100AF0002020C0000709090909090080F8848484BE
:100B00000800000F0000000000C020202040E0008E
:100B100023444444423F00FC40202020C0000F00FA
:100B20000000000F00002020EC0000000000000F7B
:100B300000000000002020EC0000102020201F00FA
:100B400000FC0080402000000F01010204080000AA
:100B5000FC000000000000070808080000E020205A
:100B6000C02020C00F00000300000FE04020202024
:100B7000C0000F000000000F00C020202020C00097
:100B800007080808080700E040202020C0007F0276
:100B90000404040300C020202040E00003040404F7
:100BA000027F00E04020202040000F0000000000F5
:100BB00000C0202020204000040909090906002067
:100BC000F8202020000000070808080400E00000CA
:100BD0000000E00007080808040F00E00000000023
:100BE000E00000030C0C030000E00000800000E0C7
:100BF0000708040304080720408080402000080400
:100C00000202040800E000000000E0002344444425
:100C1000423F0020202020A06000080C0A0908089C
:100C2000000080807C0202000000001F20200000E5
:100C300000FE0000000000001F0000000002027C17
:100C40008080000020201F000000003008081020D5
:100C5000201800000000000000FEFEFEFEFEFEFE6A
:100C60007F7F7F7F7F7F7F0000050720600000007F
:100C7000000000005F00000003000300143E143E6B
:100C800014242A7F2A1243330866613649552250BC
:100C90000005030000001C2241000041221C00143A
:100CA000083E081408083E080800503000000808F4
:100CB000080808006060000020100804023E514946
:100CC000453E0004027F00426151494622414949A4
:100CD000361814127F1027454545393E4949493297
:100CE00001017109073649494936264949493E00FB
:100CF0003636000000563600000814224100141455
:100D0000141414004122140802015109063E4159ED
:100D1000555E7E0909097E7F494949363E41414178
:100D2000227F4141413E7F494949417F09090901EB
:100D30003E4141493A7F0808087F00417F41003029
:100D40004040403F7F081422417F404040407F02A6
:100D50000C027F7F0204087F3E4141413E7F09092A
:100D600009061E2121215E7F090909762649494984
:100D70003201017F01013F4040403F1F2040201FC2
:100D80007F2010207F41221C224107087008076144
:100D900051494543007F4100000204081020000033
:100DA000417F000402010204404040404000010233
:100DB000040020545454787F444444383844444414
:100DC00044384444447F385454541804047E050580
:100DD000085454543C7F0804047800447D400020AB
:100DE00040443D007F1028440000417F40007C04C7
:100DF0007804787C0804047838444444387C14141B
:100E00001408081414147C007C0804044854545436
:100E10002004043F44443C4040207C1C2040201CD3
:100E20003C4030403C44281028440C5050503C4436
:100E300064544C44000836414100007F00004141A9
:100E400036080002010204027F7F7F7F7F040802D0
:100E50000110408040102040804080080204018042
:100E600040201002011080102040402000000000AF
:100E7000250028002B002E00310004040404040384
:100E8000040502020202040302020202060606062A
:100E9000060604040202020404001930D42F1124AF
:100EA0001FBECFEFDAE0DEBFCDBF14E0A0E0B1E0BF
:100EB000E6E8FAE602C005900D92A233B107D9F731
:100EC00028E0A2E3B4E001C01D92A432B207E1F72A
:100ED00017E0CEE4D7E004C02197FE010E9434332E
:100EE000CD34D107C9F70E9414250C9436350C94E3
:100EF000000080E00895FC0182818F5BFB0180830C
:100F000081E00895FC01362F272F808191816FE0C9
:100F1000689FA001699F500D112460E070E0832F4D
:100F2000922F97FD0396959587959595879534E033
:100F300075956795579547953A95D1F7480F591F7D
:100F40005183408364E0569547956A95E1F746954D
:100F5000438314828281481719F0428381E084839D
:100F600008958F929F92AF92BF92CF92DF92EF92AD
:100F7000FF920F931F93FC0111861286168217822F
:100F80006083808561110BC0811120C0118281E0D6
:100F90008087868322833383448355831AC08823C2
:100FA000A9F0108681E08783C280D380E480F58039
:100FB00049015A018C189D08AE08BF080CE2801642
:100FC00001E09006A104B1040CF4818781818111B4
:100FD00017C080858823A1F082819381A481B58187
:100FE00049015A01881A990AAA0ABB0A05EF801614
:100FF00001E09006A104B1041CF081E082878183A6
:101000001F910F91FF90EF90DF90CF90BF90AF9026
:101010009F908F900895FC016093BC008091BC006C
:1010200087FFFCCF9091B900987F90830895CF926D
:10103000DF92EF92FF920F931F93CF93DF93EC0118
:10104000C62ED42E8C89882351F0411108C084E922
:101050008093BC008091BC0084FDFCCF1C8AEC888E
:101060008E010E5E1F4FE11014C0FB8864EAC801B8
:101070000E940B088A89883011F1803101F1DD204E
:1010800011F080E4E82EE092BB0064E8C8010E9401
:101090000B08C092BB0064E8C8010E940B0882E004
:1010A000D81204C08C898F5F8C8B11C084E9809327
:1010B000BC008091BC0084FDFCCF1C8A08C0FF0CE2
:1010C000F092BB0064E8C8010E940B08D8CFDF9102
:1010D000CF911F910F91FF90EF90DF90CF900895E7
:1010E000089580E090E00895EF92FF920F931F9390
:1010F000CF93DF9300D000D0CDB7DEB7182F0E947A
:10110000B91EFC0117FF0AC0183F09F470C01A3F4E
:1011100008F474C01D3F09F06AC070C0808921E0E6
:10112000280F208BDF01A80FB11D1D961C9381890C
:10113000882361F0233009F0AEC082858460898302
:1011400085858A8386858B8387853DC09485892F95
:10115000807F803B59F168F4803841F120F4882386
:1011600009F443C098C0803909F1803A09F093C06E
:101170001DC0803D51F118F4803C39F18CC0803E97
:10118000A9F0803F09F087C0892F8F70823041F02D
:10119000833019F0813009F07EC0828582601DC0E5
:1011A000223009F078C08285836008C0223009F0BF
:1011B00072C0292F22952F708285822B89839A8372
:1011C00085858B8386858C830DC0213009F063C0B3
:1011D000292F22952F708285822B89839A8385857A
:1011E0008B831C82108A4EC01487108A54C082855B
:1011F0008F6089831A831B821C8244C08CE0810F1C
:10120000833030F48285856089831A831B82E9CF1D
:10121000103F29F481E0818B1587808B3CC0173FFC
:1012200019F7808961E0680F608BDF01A80FB11D9D
:101230001D961C938B5F9285892B8983AF01435F39
:101240005F4F9E012F5F3F4F7901862F90E087010E
:10125000021B130B0817190750F4DA018D91AD0129
:10126000D70111968C93BFEFEB1AFB0AEECF0196D4
:101270008430910529F0D901A80FB91F1C92F7CF2E
:10128000118AB0CF838144E050E0BE016F5F7F4F91
:101290008F5F0E941F1581E090E00F900F900F90DC
:1012A0000F90DF91CF911F910F91FF90EF900895D4
:1012B000DC018D919C91DC01ED91FC910190F0811C
:1012C000E02D09946F927F928F929F92AF92BF927E
:1012D000CF92DF92EF92FF920F931F93CF93DF9302
:1012E00000D000D0CDB7DEB7682E8FEF93E00E941C
:1012F0005032681629F0662D8FEF93E00E94583225
:1013000001E011E084E9689E30011124E12CF12C08
:1013100043018E0C9F1CFE0131965F01CC24C394C7
:10132000D12CC601880D991D0E945032F501819380
:101330005F01FFEFCF1ADF0A85E0C816D10489F7F5
:101340008981F80187838A8180878B8185838C815D
:101350008683075F1F4FF4E0EF0EF11C84E9E81667
:10136000F104B1F60F900F900F900F90DF91CF9195
:101370001F910F91FF90EF90DF90CF90BF90AF90B3
:101380009F908F907F906F9008952F923F924F92F1
:101390005F926F927F928F929F92AF92BF92CF9205
:1013A000DF92EF92FF920F931F93CF93DF9300D0C2
:1013B00000D01F92CDB7DEB7F82E8FEF93E00E94DA
:1013C0005032F81629F06F2D8FEF93E00E945832BB
:1013D00001E011E0CE0101963C01E4E9FE9EC0016E
:1013E00011241C0126183708E12CF12C2E01F5E000
:1013F0004F0E511CF8018781898380858A838581FE
:101400008B8386818C834701820C931C6301F601D8
:1014100021916F012D835F01A80CB91CC5010E94A9
:1014200050329D81981721F0692FC5010E945832D2
:101430004C145D0461F7075F1F4FE4E0EE0EF11CF2
:10144000F4E9EF16F104B1F60F900F900F900F90A2
:101450000F90DF91CF911F910F91FF90EF90DF9050
:10146000CF90BF90AF909F908F907F906F905F9044
:101470004F903F902F900895CF92DF92EF92FF927E
:101480000F931F93CF93DF9305E914E0C1E0D1E000
:101490007E01CC24CA9483E0D82EF80181919191E9
:1014A0008F01B601681B790BC7010E948207F9E022
:1014B000EF0EF11C84E0053D180779F784E10E94E6
:1014C000E022BC0181E292E00E94820785E10E9455
:1014D000E022BC018AE292E00E94820786E10E943B
:1014E000E022BC0183E392E00E94820787E10E9430
:1014F000E022BC018CE392E00E94820730918304D9
:1015000040917804909186042091870480E05C816A
:101510005523D9F0281314C0332341F09B8195370C
:1015200008F095E79D839B83932F0FC0442369F0B8
:101530009B819A3008F49AE09E839B83942F05C088
:10154000411103C0311101C0282F8F5F29968532C8
:10155000F1F69093860420938704DF91CF911F9139
:101560000F91FF90EF90DF90CF900895EF92FF9250
:101570000F931F93CF93DF9305E914E0C0E0D0E011
:1015800033E2E32EF12CC0FF02C061E001C060E055
:1015900088E00E947522C1FF02C061E001C060E0E6
:1015A00089E00E947522C2FF02C061E001C060E0D4
:1015B0008AE00E947522CE0123E0959587952A95B1
:1015C000E1F7892B11F061E001C060E08BE00E943F
:1015D0007522C7010197F1F782E10E94E022F8012C
:1015E000819391938F0183E10E94E022F801978F0C
:1015F000868F2196C031D10531F6DF91CF911F91B1
:101600000F91FF90EF900895CF92DF92EF92FF92AB
:101610000F931F93CF93DF9360E08CE00E947522BD
:1016200083E090E00197F1F761E08CE00E94752281
:10163000C7E0D0E0C12CD12C760103E010E085E0BA
:101640000E944C22092E000CAA0BBB0B0C2E04C0CE
:10165000880F991FAA1FBB1F0A94D2F7C82AD92A3C
:10166000EA2AFB2A61E086E00E947522C801019700
:10167000F1F760E086E00E947522219700F7C7012C
:10168000B601DF91CF911F910F91FF90EF90DF9006
:10169000CF9008950F931F9340918804509189042F
:1016A00060918A0470918B048A019B0104C0369575
:1016B0002795179507958A95D2F7D901C8018170AA
:1016C0001F910F910895CF92DF92EF92FF926B01DD
:1016D0007C0184E00E944A0BA7019601682F8BE7EA
:1016E00094E00E94B10785E00E944A0BA701960191
:1016F000682F80E794E00E94B10786E00E944A0BC1
:10170000A7019601682F89E394E00E94B10780E069
:101710000E944A0BA7019601682F84E494E00E947E
:10172000B10781E00E944A0BA7019601682F8FE460
:1017300094E00E94B10782E00E944A0BA701960143
:10174000682F8AE594E00E94B10783E00E944A0B6B
:10175000A7019601682F85E694E0FF90EF90DF9057
:10176000CF900C94B1076F927F928F929F92AF921D
:10177000BF92CF92DF92EF92FF920F931F93CF937E
:10178000DF9390EC699FB0011124672F770F770BDF
:101790006B01FFE1CF22DD24A3E0CC0CDD1CAA9578
:1017A000E1F7822E912CC42FD0E0EE24EA94F12CA4
:1017B00087010C1B1D0B089DD001099DB00D189DC4
:1017C000B00D11244B2FCC9E5001CD9EB00CDC9E51
:1017D000B00C1124AB2CBB2400E011E038016A18D6
:1017E0007B08689C5001699CB00C789CB00C11245B
:1017F000EC18FD08EC9E6001ED9ED00CFC9ED00C18
:101800001124CD2CDD240C191D09089DE001099D32
:10181000D00D189DD00D11246295669567706230C9
:1018200091F038F4662369F06130D9F4522FEB2D32
:1018300019C0643081F058F0653099F45B2F4B2D5E
:101840000EC05D2F0CC0522FEB2F4D2F0BC05B2D08
:10185000EB2F422F07C05B2F422FED2F03C0E22F4B
:1018600001C040E0682F70E02091F4073091F50747
:101870006217730708F03FC02091FA07222361F036
:10188000E29FF0011124EF2F259FD00111245B2F3F
:10189000249F90011124432FF09100089091FD079F
:1018A0002091FB073091FC07F91308C0B901F3E060
:1018B0008F9F600D711D1124CB010BC0CB01880FD0
:1018C000991F880F991F820F931FDC01AF0FB11D65
:1018D0001C922091FD07DC01A20FB11DEC93209119
:1018E000FE07FC01E20FF11D50832091FF07FC0170
:1018F000E20FF11D4083DF91CF911F910F91FF9077
:10190000EF90DF90CF90BF90AF909F908F907F909F
:101910006F900895CF92DF92FF920F931F93CF9312
:10192000DF93F82EE1E0F1E0CEE4D2E020E030E019
:1019300046E0CC24CA94D12C8381642F0E940033CA
:10194000B901680F711DCB010FEF10E0B6010E94C5
:1019500020339C013996CE17DF0771F7C296B80184
:101960000E942033EC012F2D4FEF682F80E00E9462
:10197000B30BCE010A96B8010E9420332F2D4FEFF2
:10198000682F83E00E94B30BCE014E96B8010E94EF
:1019900020332F2D4FEF682F82E00E94B30BCE0132
:1019A0008896B8010E9420332F2D4FEF682F81E0D9
:1019B000DF91CF911F910F91FF90DF90CF900C940A
:1019C000B30BCF93DF93EC0181E08A830E944B231A
:1019D000798368832FEF40E060E08B81DF91CF91C6
:1019E0000C94B30BCF938DE397E00E94DB12892B0D
:1019F000A9F08DE397E00E94B912C82F0E947408E5
:101A00006C2F8DE397E00E9412138EEE97E00E94F8
:101A1000E10C8AEE97E00E94E10CE5CF0E94B91E2E
:101A2000FC0183818F5FCF910C945C14CF93DF9383
:101A30000E94B91EEC010E94291EFE01EE5AFF4FC2
:101A4000CD5ADF4F90818881981791F00E94B91E7E
:101A50000E942E22682F8DE397E00E94121386EEDB
:101A600097E00E94E10C8AEE97E00E94E10CE0CF43
:101A70008DE397E0DF91CF910C945E138F929F924C
:101A8000AF92BF92CF92DF92EF92FF926C010E94D1
:101A90004B234B015C010D2C000CEE08FF080E944B
:101AA0004B23DC01CB0188199909AA09BB098C15C4
:101AB0009D05AE05BF0548F40E94B91E0E94291E6F
:101AC0000E94160D0E94F20CEACFFF90EF90DF907B
:101AD000CF90BF90AF909F908F9008950E94B91EB5
:101AE0000E94291E0E94160D0C94F20C87E00E94A1
:101AF0004C22892B21F486EE97E00C94E10C08959A
:101B0000FF920F931F93CF93DF93D82FF62EC42FFE
:101B10000E94760D11E01C0FDF770F2D0F77C0317B
:101B2000B0F46C2F606980919706909198060E949E
:101B300058096D2F80919706909198060E94580938
:101B4000602F80919706909198060E945809F11095
:101B500002C080E801C080E91F70812B0E947408D8
:101B60008D2F0E947408802FDF91CF911F910F91CC
:101B7000FF900C947408CF93DF93FC012281222301
:101B8000C1F0EC010E944B2328813981DC01CB019B
:101B9000821B930BA109B1094097A105B10508F07B
:101BA0001A822FEF40E060E08B81DF91CF910C949F
:101BB000B30BDF91CF910895EF92FF920F931F9394
:101BC000CF93DF93CDB7DEB768970FB6F894DEBF3B
:101BD0000FBECDBF0E944B236093670670936806CB
:101BE0008093690690936A0688E098E00E949C249E
:101BF000809166068111AEC06CE373E0CE01019660
:101C00000E94471420E040E060E0CE0101960E946F
:101C10008F1FCE0101960E94C42062E573E0CE01C1
:101C200001960E94471420E043E060E0CE01019657
:101C30000E948F1FCE0101960E94C420E09164068D
:101C40008E2F90E08730910508F0CBC1FC01E35A5C
:101C5000FF4F0C943433E0916B0689E0E89FF0016C
:101C60001124EF5FFE4F6085CE010D960E94DC20AF
:101C700060916B06CE0107960E94DC2067E673E058
:101C8000CE0101960E944714BE01695F7F4FCE01CD
:101C900001960E94C92061E773E00E94F313BE0120
:101CA000635F7F4F0E94C920BC01CE0143960E9412
:101CB0002D1421E041E060E0CE0143960E948F1F89
:101CC000CE0143960E94C420CE0101960E94C420FA
:101CD000CE0107960E94C420CE010D9680C160916E
:101CE0006B06CE0107960E94DC2067E673E0CE010A
:101CF00001960E944714BE01695F7F4FCE01019695
:101D00000E94C92066E773E00E94F31352C16BE79B
:101D100073E002C06CE873E0CE0101960E944714A4
:101D200021E041E060E00FC06CE973E0F5CF6EEABE
:101D300073E002C06AEB73E0CE0101960E94471483
:101D400021E041E064E1CE0101960E948F1FCE01A7
:101D5000019645C166EC73E0CE0101960E944714DE
:101D600020E040E060E0CE0101960E948F1FCE018E
:101D700001960E94C4206DED73E0CE0101960E9491
:101D8000471420E043E060E0CE0101960E948F1FDF
:101D9000CE0101960E94C42080916406813009F42E
:101DA00090C0B8F0823009F01CC160916C06CE0181
:101DB00007960E94DC206EE074E0CE0101960E943E
:101DC0004714BE01695F7F4FCE0101960E94C92072
:101DD000F0C0E0916B06A9E0EA9FF0011124EF5FEB
:101DE000FE4F6085CE010D960E94DC2060916B064F
:101DF000CE0107960E94DC206BE673E0CE010196CF
:101E00000E944714BE01695F7F4FCE0101960E9478
:101E1000C92062EF73E00E94F313BE01635F7F4F3E
:101E20000E94C920BC01CE0143960E942D1421E0DE
:101E300041E060E0CE0143960E948F1FCE014396A1
:101E40000E94C420CE0101960E94C420CE010796B4
:101E50000E94C420CE010D960E94C42091E0E92E7C
:101E600091E0F92E10E009E0E0916B06E11711F125
:101E70000E9FF0011124EF5FFE4F9085D701189659
:101E80008C911897981316C0978117968C91981378
:101E900011C068EF73E0CE0101960E94471420E064
:101EA00040E069E1CE0101960E948F1FCE010196AC
:101EB0000E94C4201F5FB9E0EB0EF11C1532A1F6A1
:101EC00090C0E0916B0689E0E89FF0011124EF5F7C
:101ED000FE4F6781CE010D960E94DC2060916B065B
:101EE000CE0107960E94DC206BE673E0CE010196DE
:101EF0000E944714BE01695F7F4FCE0101960E9488
:101F0000C92068E074E00E94F313BE01635F7F4F55
:101F10000E94C920BC01CE0143960E942D1421E0ED
:101F200041E060E0CE0143960E948F1FCE014396B0
:101F30000E94C420CE0101960E94C420CE010796C3
:101F40000E94C420CE010D960E94C42081E0E82E9C
:101F500081E0F82E10E009E0E0916B06E11711F145
:101F60000E9FF0011124EF5FFE4F9085D701189668
:101F70008C911897981316C0978117968C91981387
:101F800011C068EF73E0CE0101960E94471420E073
:101F900040E069E1CE0101960E948F1FCE010196BB
:101FA0000E94C4201F5FB9E0EB0EF11C1532A1F6B0
:101FB00018C0BC01CE010D960E942D1421E041E015
:101FC00060E0CE010D960E948F1FCE010D960E94FB
:101FD000C420CE0101960E94C420CE0107960E9423
:101FE000C42068960FB6F894DEBF0FBECDBFDF9158
:101FF000CF911F910F91FF90EF9008951F93CF9372
:10200000DF93CDB7DEB762970FB6F894DEBF0FBE91
:10201000CDBFE091870419E01E9FF0011124EF5F0E
:10202000FE4F6085CE0107960E94DC2063EF73E0CF
:10203000CE0101960E944714BE01695F7F4FCE0119
:1020400001960E94C920BC01CE010D960E942D145C
:1020500020E040E060E0CE010D960E948F1FCE018F
:102060000D960E94C420CE0101960E94C420CE018C
:1020700007960E94C420E09187041E9FF00111245E
:10208000EF5FFE4F6781CE0107960E94DC2069E07A
:1020900074E0CE0101960E944714BE01695F7F4F34
:1020A000CE0101960E94C920BC01CE010D960E946E
:1020B0002D1420E040E06AE5CE010D960E948F1FAE
:1020C000CE010D960E94C420CE0101960E94C4202C
:1020D000CE0107960E94C42062960FB6F894DEBF28
:1020E0000FBECDBFDF91CF911F9108951F93CF9366
:1020F000DF93CDB7DEB762970FB6F894DEBF0FBEA1
:10210000CDBF88E098E00E949C240E94FE0F609161
:102110008704CE0101960E94DC2023E040E067E3C3
:10212000CE0101960E948F1FCE0101960E94C4200D
:10213000E091870419E01E9FF0011124EF5FFE4F2C
:102140006581CE0107960E94DC206BE174E0CE0130
:1021500001960E944714BE01695F7F4FCE01019630
:102160000E94C920BC01CE010D960E942D1420E0D2
:1021700043E060E0CE010D960E948F1FCE010D96C8
:102180000E94C420CE0101960E94C420CE01079671
:102190000E94C420E09187041E9FF0011124EF5F8C
:1021A000FE4F6681CE0107960E94DC2061E274E05A
:1021B000CE0101960E944714BE01695F7F4FCE0198
:1021C00001960E94C920BC01CE010D960E942D14DB
:1021D00021E042E061E4CE010D960E948F1FCE0106
:1021E0000D960E94C420CE0101960E94C420CE010B
:1021F00007960E94C42060918704CE0101960E9438
:10220000DC2023E040E067E3CE0101960E948F1FAF
:10221000CE0101960E94C42062960FB6F894DEBFEC
:102220000FBECDBFDF91CF911F9108951F93CF9324
:10223000DF93CDB7DEB762970FB6F894DEBF0FBE5F
:10224000CDBF88E098E00E949C240E94FE0F609120
:102250008704CE0101960E94DC2023E040E067E382
:10226000CE0101960E948F1FCE0101960E94C420CC
:10227000E091870419E01E9FF0011124EF5FFE4FEB
:102280006581CE0107960E94DC2066E274E0CE01F3
:1022900001960E944714BE01695F7F4FCE010196EF
:1022A0000E94C920BC01CE010D960E942D1421E090
:1022B00042E060E0CE010D960E948F1FCE010D9688
:1022C0000E94C420CE0101960E94C420CE01079630
:1022D0000E94C420E09187041E9FF0011124EF5F4B
:1022E000FE4F6681CE0107960E94DC206BE274E00F
:1022F000CE0101960E944714BE01695F7F4FCE0157
:1023000001960E94C920BC01CE010D960E942D1499
:1023100020E043E060E5CE010D960E948F1FCE01C4
:102320000D960E94C420CE0101960E94C420CE01C9
:1023300007960E94C42060918704CE0101960E94F6
:10234000DC2023E040E067E3CE0101960E948F1F6E
:10235000CE0101960E94C42062960FB6F894DEBFAB
:102360000FBECDBFDF91CF911F9108951F93CF93E3
:10237000DF93CDB7DEB762970FB6F894DEBF0FBE1E
:10238000CDBF88E098E00E949C240E94FE0FE0915F
:10239000870419E01E9FF0011124EF5FFE4F658155
:1023A000CE0107960E94DC206BE174E0CE0101961D
:1023B0000E944714BE01695F7F4FCE0101960E94C3
:1023C000C920BC01CE010D960E942D1420E043E0EF
:1023D00060E0CE010D960E948F1FCE010D960E94E7
:1023E000C420CE0101960E94C420CE0107960E940F
:1023F000C420E09187041E9FF0011124EF5FFE4F7F
:102400006681CE0107960E94DC206BE274E0CE016B
:1024100001960E944714BE01695F7F4FCE0101966D
:102420000E94C920BC01CE010D960E942D1420E00F
:1024300043E060E5CE010D960E948F1FCE010D9600
:102440000E94C420CE0101960E94C420CE010796AE
:102450000E94C42060918704CE0101960E94DC2076
:1024600023E041E067E3CE0101960E948F1FCE0179
:1024700001960E94C42062960FB6F894DEBF0FBE8C
:10248000CDBFDF91CF911F9108954091E30450910A
:10249000E4042091E1043091E20442175307B4F4BC
:1024A0009091E8009570E1F39091E80092FD19C0D9
:1024B0008093F1008091E3049091E40401968F737E
:1024C0009927892B19F48EEF8093E8008091E3041B
:1024D0009091E40401969093E4048093E30481E0F6
:1024E000089580E00895615030F02091F100FC01E2
:1024F00020830196F8CF289884E68093E604089517
:10250000CF92DF92EF92FF920F931F93CF93DF93BF
:102510006C017A018B01C0E0D0E0CE15DF0581F0BF
:10252000D8016D918D01D601ED91FC910190F08162
:10253000E02DC6010995892B11F02196EECF7E0181
:10254000C701DF91CF911F910F91FF90EF90DF9026
:10255000CF900895FC01538D448D252F30E0842FBA
:1025600090E0821B930B541710F0CF9608950197BB
:102570000895FC01918D828D981761F0828DDF01A5
:10258000A80FB11D5D968C91928D9F5F9F73928F66
:1025900090E008958FEF9FEF0895FC01918D828D5B
:1025A000981731F0828DE80FF11D858D90E0089528
:1025B0008FEF9FEF0895FC01918D228D892F90E080
:1025C000805C9F4F821B91098F73992708958DE33B
:1025D00097E00E94DB1221E0892B09F420E0822F92
:1025E0000895FC01848DDF01A80FB11DA35ABF4FD0
:1025F0002C91848D90E001968F739927848FA68902
:10260000B7892C93A089B1898C9182748C93938D16
:10261000848D981306C00288F389E02D80818F7D18
:1026200080830895EF92FF920F931F93CF93DF93D0
:10263000EC0181E0888F9B8D8C8D981305C0E88913
:10264000F989808185FD26C0F62E0B8D10E00F5F85
:102650001F4F0F731127E02E8C8DE8120CC00FB6A0
:1026600007FCFACFE889F989808185FFF5CFCE0193
:102670000E94F112F1CF8B8DFE01E80FF11DE35A9C
:10268000FF4FF0829FB7F8940B8FEA89FB89808116
:10269000806209C09FB7F894EE89FF896083E8895A
:1026A000F9898081827480839FBF81E090E0DF910F
:1026B000CF911F910F91FF90EF900895CF93DF93EB
:1026C000EC01888D8823C9F0EA89FB89808185FD2A
:1026D00005C0A889B9898C9186FD0FC00FB607FC8B
:1026E000F5CF808185FFF2CFA889B9898C9185FFCC
:1026F000EDCFCE010E94F112E7CFDF91CF91089587
:1027000080E090E0892B29F00E94E71281110C945F
:10271000000008950E9421350F931F93CF93DF93FC
:10272000EC0188819981009729F02A813B81261745
:10273000370788F48B016F5F7F4F0E945B340097EF
:1027400061F0998388831B830A832C813D81232B2D
:1027500011F4FC01108281E001C080E0DF91CF9193
:102760001F910F910895EF92FF920F931F93CF93B4
:10277000DF936115710511F480E01CC0411551050E
:10278000C1F07B01EC018C819D818A01080F191F2A
:10279000B801CE010E948C13882371F328813981FE
:1027A0008C819D81B701820F931F0E942F351D835D
:1027B0000C8381E0DF91CF911F910F91FF90EF90FB
:1027C0000895CF93DF93EC0188819981009711F0F0
:1027D0000E94D233198218821D821C821B821A82A7
:1027E000DF91CF910895CF93DF93EC0161157105CF
:1027F00061F0FB0101900020E9F73197AF01461B22
:10280000570B0E94B313811103C0CE010E94E11344
:10281000CE01DF91CF910895EF92FF920F931F9316
:10282000CF93DF93EC017B018A01BA010E948C13E4
:10283000811104C0CE010E94E11307C01D830C83E7
:10284000B701888199810E942F35CE01DF91CF9108
:102850001F910F91FF90EF900895FB01DC011196FD
:102860001C921E9213961C921E92129715961C9201
:102870001E9214978617970749F060817181611540
:10288000710521F0448155810C940C140895FC01CC
:1028900011821082138212821582148261157105D1
:1028A00051F0FB0101900020E9F73197AF01461B81
:1028B000570B0C940C1408958093E9008091F2005A
:1028C000882319F08AE38093E80008951F920F92FD
:1028D0000FB60F9211242F933F934F935F936F93F3
:1028E0007F938F939F93AF93BF93CF93EF93FF9378
:1028F000C091E1008091E100837F8093E100C3FFFC
:102900000FC01092E90081E08093EB001092EC0080
:1029100082E38093ED001092340488E08093F0000D
:10292000C2FF19C083E00E945C148091E7048823F1
:1029300039F08091E70481508093E704882389F17E
:102940008091E604882339F08091E60481508093D9
:10295000E604882341F1C4FF10C08091E2008E7E1E
:1029600081608093E2008091E1008F7E8093E1009E
:10297000809132048E7E806111C0C0FF16C08091AC
:10298000E2008E7E80618093E2008091E1008E7E85
:102990008093E100809132048E7E816080933204C6
:1029A00004C05D9ACDCF289AD6CFFF91EF91CF91F9
:1029B000BF91AF919F918F917F916F915F914F9157
:1029C0003F912F910F900FBE0F901F901895DF929F
:1029D000EF92FF920F931F93CF93DF93D82E8A012C
:1029E0007B01E40EF51EEB01CE15DF0571F0D7FE7D
:1029F00003C0FE01849101C088810E944512219686
:102A00008111F2CF8FEF9FEF01C0C801DF91CF910D
:102A10001F910F91FF90EF90DF9008952FB7F894DA
:102A200087708093E9009091E800892F807295FF6C
:102A300004C09091F20080E4891B2FBF08957F921B
:102A40008F929F92AF92BF92CF92DF92EF92FF92BE
:102A50000F931F93CF93DF93C82E8B017A01809140
:102A60003404811103C08FEF9FEF74C08091320452
:102A700080FF05C08091E00082608093E000CE2D51
:102A8000DF2DD12C8AEFB82E8C2D8770982E8C2DAF
:102A90008072882E8C2D8074782E9AE3A92E209730
:102AA00019F4DD2009F451C08C2D0E940E158111FE
:102AB0000AC0BA94BB20B9F261E070E080E090E017
:102AC0000E941123ECCF282F30E0C217D3070CF45B
:102AD0008C2F9FB7F8949092E9002091E80025FF91
:102AE00032C0282F30E0C21BD30B882029F0815040
:102AF000A0F01092F100FBCFF801C7FE0AC0815090
:102B000050F044914093F1003196F9CF41914093B8
:102B1000F1008150D8F7020F131FDD2019F0A092A9
:102B2000E8000AC08091E80085FD08C0A092E80096
:102B3000DD24D394209739F0D12C05C0209719F4C7
:102B40007110A092E8009FBFAACF5D9884E68093A1
:102B5000E704C701DF91CF911F910F91FF90EF9094
:102B6000DF90CF90BF90AF909F908F907F9008950F
:102B700090913404992311F057FF03C08FEF9FEF1A
:102B800008959FB7F89487708093E9002091F20030
:102B900030E0421753070CF49A01822FFB0144E600
:102BA000815038F028984093E6045091F1005193F9
:102BB000F7CF2115310521F08091F200882319F01B
:102BC0009FBFC90108958BE68093E800F9CF8091FB
:102BD000D90481110DC082E08093D50484E08093F4
:102BE000D6041092D8041092D70481E08093D904BF
:102BF00085ED94E008950F931F93CF93DF931F9279
:102C0000CDB7DEB782E0898342E450E061E271E053
:102C100080E80E94E7140E94E715DC0112960D91EE
:102C20001C9113970115110589F0D801ED91FC91C4
:102C30000280F381E02DBE016F5F7F4FC8010995CF
:102C400097FD04C0F80100851185ECCF89810F90B4
:102C5000DF91CF911F910F9108951F920F920FB6A0
:102C60000F921124CF92DF92EF92FF920F931F9356
:102C70002F933F934F935F936F937F938F939F9384
:102C8000AF93BF93EF93FF93CF93DF93CDB7DEB7AF
:102C90006C97DEBFCDBF1092E9008091E80083FF02
:102CA000FBC168E0CE0145960E94731282EF8093CB
:102CB000E8008D8987FF05C09091E80090FFFCCF68
:102CC00003C09EEF9093E800982F907609F0C6C05D
:102CD0009E894F89588D2F89F88C91110CC08038AE
:102CE00029F4809133048093F10002C01092F10026
:102CF0001092F10045C1913051F4811141C1413030
:102D0000510509F03DC1809133048D7F0BC0933094
:102D100061F4811135C14130510509F031C1809113
:102D200033048260809333042BC1953049F4809141
:102D3000E80080FFFCCF822F80688093E30020C1F1
:102D4000963009F05EC00B8D1C8D22E01092E900D8
:102D50001092E4041092E304F21232C01092E204E2
:102D60001092E1040E94FB1599E0BE016F5F7F4F56
:102D7000DB01E92F1D92EA95E9F79983FA8291E048
:102D80009E8390EA98879AEF99872091E304309187
:102D9000E404275F3F4F3C832B838D831092E9002F
:102DA0001092E4041092E3041093E2040093E1040F
:102DB00049E050E080E00E94E7140E94FB15E0C06B
:102DC0001093E2040093E1040E94E715DC011296DF
:102DD0000D911C9113970115110509F4BBC0D80181
:102DE000ED91FC910480F581E02DBE016B5E7F4F7B
:102DF000C8010995009709F0C7C0F8010085118541
:102E0000EACF973009F445C1983021F481E08093EE
:102E1000F100B6C0993009F0B3C0837009F039C130
:102E2000EEE5F2E081E031E096E32081211109C076
:102E30008EE78093EA001092EA008F898093340431
:102E40009FC08093E9003093EB0021912093EC0028
:102E50009093ED008F5F873041F7EACF8B8D9C8D8B
:102E60001092E9001092E4041092E3049093E204BB
:102E70008093E104898D811153C08E899D89913A97
:102E800049F4813209F005C147E050E062E572E0A3
:102E900080E0BBC0913209F0FCC0833269F48F89B5
:102EA000988DA0E0B0E080934E0290934F02A093E3
:102EB0005002B093510264C0803269F48091E800FE
:102EC00082FFFCCF67E082E592E00E9473128BEFF5
:102ED0008093E80055C0823209F052C08F898093F8
:102EE0005902EEEFFFE7859194918B3F9C4D19F0CD
:102EF000E0E0F8E002C0EEEFFAE08091520290913B
:102F00005302A0915402B0915502803B9440A10518
:102F1000B10509F09EC08091590280FF79C099C027
:102F20000E94E715FC01028113810115110509F4C6
:102F3000B0C0D801ED91FC910190F081E02DBE016F
:102F40006B5E7F4FC801099581111AC0F801008599
:102F50001185EBCFF1E0FF1609F44EC0F3E0FF124C
:102F600098C08F89882309F44AC0823089F440E8E8
:102F700060E185E891E00E94E42F882309F489C08C
:102F80008EEF8093E80088C018161906CCF381C034
:102F9000813029F440E86BE089E791E0ECCF8330A1
:102FA00009F077C00E94E715DC011296ED90FC90C5
:102FB00013978E010F5F1F4F6801E114F10479F040
:102FC000D701ED91FC910680F781E02DB801C70192
:102FD0000995080F111DF701E084F184EECFD801A7
:102FE0001C92F60101900020E9F73197BF016C199E
:102FF0007D0940E0C601BFCF67E671E002C063E62D
:1030000071E0FB01449150E080E80E94E714B8CFE2
:10301000EE3F2AE0F20751F0808191818737A7E7E0
:103020009A0721F09093FF0A8093FE0A87E797E7BB
:1030300091838083809160008093E5049BE088E128
:103040000FB6F894A895809360000FBE909360002F
:1030500097CF808191818737974709F091CFA895C5
:10306000809160008861809360008091E504809386
:103070006000EE3FBAE0FB0739F08091FE0A9091C4
:10308000FF0A918380837CCF1092FF0A1092FE0A80
:1030900077CF81E28093EB006C960FB6F894DEBF99
:1030A0000FBECDBFDF91CF91FF91EF91BF91AF9157
:1030B0009F918F917F916F915F914F913F912F9150
:1030C0001F910F91FF90EF90DF90CF900F900FBE68
:1030D0000F901F9018951F920F920FB60F92112408
:1030E0002F933F934F935F936F937F938F939F9310
:1030F000AF93BF93EF93FF938DE397E00E94F1129C
:10310000FF91EF91BF91AF919F918F917F916F91BF
:103110005F914F913F912F910F900FBE0F901F9095
:1031200018951F920F920FB60F9211242F938F9321
:103130009F93EF93FF93E0914D07F0914E078081AD
:10314000E0915307F091540782FD12C09081809165
:1031500056078F5F8F7320915707821751F0E091C8
:103160005607F0E0E35CF84F958F8093560701C057
:103170008081FF91EF919F918F912F910F900FBEC2
:103180000F901F901895CF93DF931F92CDB7DEB7A6
:103190006983DC01ED91FC910280F381E02D41E037
:1031A00050E0BE016F5F7F4F09950F90DF91CF9187
:1031B0000895FC018485958597FD0BC09FB7F89411
:1031C00082E08093E9008091F2009FBF90E0019639
:1031D00008959FB7F89482E08093E9008091F2000F
:1031E0009FBF90E00895CF93DF93EC018D858823F6
:1031F00019F081508D8711C09C818E81981768F4D9
:1032000088896827E881F9810084F185E02D42E012
:10321000CE0109958C818F5F8C83DF91CF910895CA
:1032200085ED8093BC008091BC0084FDFCCF1092A2
:10323000D705089540916405262F30E0240F311DF5
:1032400021323105DCF42091D7052430C9F4FC018A
:1032500080E090E0861758F4309164052191DC01FC
:10326000AC5BBA4FA30FB11D2C930196F3CF8091A5
:103270006405680F6093640580E0089581E0089517
:1032800082E00895089508950895E0919005809151
:103290008F05E81730F4F0E0EF56FA4F808190E0A8
:1032A00008958FEF9FEF08959091900580918F057D
:1032B000981750F4E92FF0E0EF56FA4F208130E0F4
:1032C0009F5F9093900502C02FEF3FEFC9010895D3
:1032D00080918F0590E020919005821B91090895BF
:1032E000CF92DF92EF92FF920F931F93CF93DF93D2
:1032F0007C01CB018A012091D805222389F0EB01C2
:103300006B01C40ED51ECC15DD0569F06991D7019E
:10331000ED91FC910190F081E02DC7010995F3CF6B
:10332000642F0E941A19C801DF91CF911F910F914C
:10333000FF90EF90DF90CF900895CF93DF931F928F
:10334000CDB7DEB769832091D8052223D1F0209133
:10335000FB05203240F021E030E0FC013383228382
:1033600080E090E015C08091D905E82FF0E0E652AA
:10337000FA4F998190838F5F8093D9058093FB05E5
:1033800005C061E0CE0101960E941A1981E090E02B
:103390000F90DF91CF91089580E090E00895CF9352
:1033A000DF93EC0180915902882331F083E00E9481
:1033B0001F151816190634F081E090E09B838A836C
:1033C00080E090E0DF91CF91089583E00C945C144D
:1033D00083E00E940E1590E008950F931F93CF9302
:1033E000DF931F92CDB7DEB78C01FC0184859585F4
:1033F00097FF12C041E050E0BE016F5F7F4F82E057
:103400000E94B815019719F4898190E002C08FEFEE
:103410009FEFF80195878487F801848595850F9043
:10342000DF91CF911F910F910895CF93DF931F925A
:10343000CDB7DEB7FC018485958597FD05C02FEFDC
:103440003FEF358724870FC041E050E0BE016F5F3A
:103450007F4F82E00E94B815019719F4898190E0AE
:1034600002C08FEF9FEF0F90DF91CF910895862FCD
:103470000C9474080F931F93CF93DF93CDB7DEB7EF
:10348000CC55D1090FB6F894DEBF0FBECDBF8C016D
:10349000DB019C919E5F9C93FE0131968CE5DF01E0
:1034A0001D928A95E9F739E0398374E07A8391E0D7
:1034B0009E839F833A8754E25B879C879E873F87E2
:1034C000998B43E04A8B3B8B7C8B22E02F8B988F30
:1034D000498F87E08C8F5D8F9E8F98A381E489A3AD
:1034E00086E08BA35CA32DA39EA39FA389A75AA7C5
:1034F0002BA72CA72DA73FA758AB49AB9AAB4BAB3B
:103500009CAB2DAB9EAB38AF59AF4AAF2BAF7CAF66
:103510009DAF9EAF9FAF22963FAF229755E0239677
:103520005FAF239725962FAF259760E426966FAF60
:1035300026972B965FAF2B9785E22C968FAF2C9713
:103540002D969FAF2D972E969FAF2E972F969FAFBC
:103550002F9760963FAF609761965FAF61976396D4
:103560002FAF639764966FAF649769965FAF699763
:103570006A968FAF6A976B969FAF6B976C969FAF6B
:103580006C976D964FAF6D97D80112969C911297DC
:103590009B839F5F9D8B13968C9124968FAF24976E
:1035A0008F5F806862968FAF62974CE550E0BF01F5
:1035B00080E00E94E714C45ADF4F0FB6F894DEBFD4
:1035C0000FBECDBFDF91CF911F910F910895DC0108
:1035D000ED91FC910084F185E02D40E00994FC011F
:1035E0008781869586958695681740F465839385CF
:1035F000690F6770606BCF010C94E71A08950F9301
:103600001F93CF93FC0126816217A0F4C62F8C0173
:1036100064839085C90F6C2F6F70CF010E94E71AE9
:103620006C2F62956F706061C801CF911F910F91EF
:103630000C94E71ACF911F910F910895CF92DF92CA
:10364000EF92FF920F931F93CF93DF93EC01F62E2F
:10365000C42ED22E1D868F81869586958695081755
:1036600010F00FEF080F1D2D6F2DCE01011788F000
:103670000E94FF1A612FCE010E94EF1AEF2CCE1488
:1036800030F06889CE010E94F318E394F8CF1F5FF1
:10369000EBCF0E94FF1A6D2DCE01DF91CF911F91CC
:1036A0000F91FF90EF90DF90CF900C94EF1A2F9234
:1036B0003F924F925F926F927F928F929F92AF92C2
:1036C000BF92CF92DF92EF92FF920F931F93CF930F
:1036D000DF93CDB7DEB72A970FB6F894DEBF0FBEE3
:1036E000CDBFDC011E962D913C911F972115310510
:1036F00009F463C19A878987F9013296449031961B
:103700007491E72EF12CB7E0EB0EF11C93E0F594E9
:10371000E7949A95E1F7EA823196A4913196E49183
:103720006A1758F0462F50E08E2F90E0FC01EA0F08
:10373000F11D4E175F070CF46AC06D3031F460E084
:1037400089859A850E94FF1A3BC16A3009F035C10C
:1037500060E089859A850E94FF1AE985FA850189CA
:103760000E9DE02C112427812695269526956581AE
:103770006E0D8E2D821B860F9485992309F418C136
:1037800018160CF015C1A985BA851B969C911B973C
:10379000890F87701B968C931B972E1915962C9367
:1037A00015971E96ED91FC911F97309769F033960F
:1037B000E491F0E0379683E0F595E7958A95E1F797
:1037C0000E9FE02D112401C0E0E00FEF020F0E0F5D
:1037D000E985FA85468141506481CF010E941E1B14
:1037E000A985BA851C968C911C97813009F0E8C098
:1037F0001B966C911B97660F660F660F6F731A9678
:103800006C931A976064CD010E94E71AD9C0A90190
:103810004A5F5F4F6A1BA985BA851996FC91199773
:103820005196EC91FE9FE02D1124E887F901A491B7
:103830003196249130E03A2B2230310570F44E9CC1
:10384000C0014F9C900D1124689F8001699F100D4D
:103850001124040F151F312C22C0777021F028E0AD
:10386000322E371A01C0312CFA0120E0A0E0B0E07E
:10387000261731F03491A30FB11D2F5F3196F8CF89
:10388000FA01E20FF11D4490EA9E8001EB9E100DBB
:10389000FA9E100D1124080F191F040F151FA9857A
:1038A000BA851496BC91BB83E985FA85F581FC83C2
:1038B000A985BA851D96BC91BD83E42DF0E0FF83F8
:1038C000EE83812C912CC12CD12CC982FA81CF1688
:1038D00008F06DC0212C36019FEF691A790AA9857D
:1038E000BA8551968C915197281608F058C0ED81F1
:1038F0001D96EC93F981F11102C0222079F0A9857F
:10390000BA851596BC901597B3946B81CD010E9432
:10391000FF1A6B2D89859A850E94EF1AA12CB12C74
:10392000A41410F0B12C2FC0F401EA0DFB1DE00F20
:10393000F11F5490332061F0E614F70449F4E52DAB
:10394000F0E0032C02C0F595E7950A94E2F75E2EAD
:10395000E985FA858189823069F4E52D2110E295A7
:10396000EF70F0E0EA56FE4F5490652D89859A85F8
:103970000E94F318652D89859A850E94F318FFEF40
:10398000AF1ABF0ACDCF8885B81639F060E08985B7
:103990009A850E94F318B394F6CF2394A0CF9FEF9B
:1039A000C91AD90AAE81BF818A0E9B1E8ECF6C8147
:1039B00089859A850E94EF1A03C080E090E002C0DA
:1039C00081E090E02A960FB6F894DEBF0FBECDBF1F
:1039D000DF91CF911F910F91FF90EF90DF90CF90EB
:1039E000BF90AF909F908F907F906F905F904F901F
:1039F0003F902F9008951F920F920FB60F921124AF
:103A00002F933F934F935F936F937F938F939F93E6
:103A1000AF93BF93EF93FF938091B900887F803677
:103A200009F49CC068F5883209F45BC090F48031D9
:103A300009F454C038F4882309F4F6C0883009F436
:103A40004DC0F6C0883109F44CC0803209F45DC025
:103A5000EFC0803409F468C048F4803309F455C0DD
:103A6000883309F0E5C08093D505D8C0803509F4C6
:103A70004FC0883509F45DC0883409F0D9C0D6C07C
:103A8000883909F4C7C0A8F4883709F467C038F446
:103A9000883609F463C0803709F460C0C9C088382B
:103AA00009F4B8C0803909F45FC0803809F0C0C09B
:103AB0005BC0803B09F486C038F4803A09F466C0E4
:103AC000883A09F47FC0B4C0803C09F4A7C0883CA0
:103AD00009F4A4C0883B09F48AC0AAC08091B20549
:103AE00010C09091D4058091D305981770F5E0919E
:103AF000D40581E08E0F8093D405F0E0ED54FA4FA9
:103B000080818093BB0085EC86C08093D5058EC0F4
:103B1000E091D40581E08E0F8093D4058091BB00A5
:103B2000F0E0ED54FA4F80839091D4058091D30555
:103B30006EC0E091D40581E08E0F8093D405809112
:103B4000BB00F0E0ED54FA4F80838091D6058111DF
:103B50006DC081E08093B10584EA61C083E0809309
:103B6000D70510928605CFCF80918605803208F068
:103B700051C0E091860581E08E0F8093860580918B
:103B8000BB00F0E0EA59FA4F8083BDCF85EC80930B
:103B9000BC001092D70580918605803230F4E09108
:103BA0008605F0E0EA59FA4F10826091860570E0D0
:103BB000E0913504F091360486E695E0099510927F
:103BC000860536C084E08093D70510926505109273
:103BD0006405E0913704F0913804099580916405FB
:103BE000811105C081E08093640510924405E09145
:103BF000650581E08E0F80936505F0E0EC5BFA4F80
:103C000080818093BB009091650580916405981731
:103C100008F479CF85E88093BC000AC085EC8093D6
:103C2000BC001092D70504C01092D5050E9410194F
:103C3000FF91EF91BF91AF919F918F917F916F9184
:103C40005F914F913F912F910F900FBE0F901F905A
:103C50001895AF92BF92CF92DF92EF92FF920F939F
:103C60001F93CF93DF93CDB7DEB727970FB6F894A6
:103C7000DEBF0FBECDBF8C015C0162E5A60EB11C9C
:103C80007C0173E5E70EF11C80E4C82ED12C44E0E2
:103C900050E0BE016F5F7F4FD80113968C910E9458
:103CA000B815009709F454C0049709F051C02A814F
:103CB0003B818981E82FEF708E2F90E0FC013297D5
:103CC000EE30F105A0F4EC59FF4F0C9434332D8302
:103CD00021E030E00EC02D833E8322E030E009C0B9
:103CE0008C812D833E838F8323E030E002C020E06F
:103CF00030E0F5014081D7018C9190E0805C9F4FCE
:103D0000841B9109B6010E942033F601E81BF90BD0
:103D1000E217F3070CF4BBCFFE0135962E0F3F1FC1
:103D2000E217F30709F4B3CFD7018C9190E0BC01FF
:103D30006F5F7F4F6F737727461741F0D801A80F49
:103D4000B91F508152965C93D7016C933196E8CF9E
:103D500027960FB6F894DEBF0FBECDBFDF91CF918F
:103D60001F910F91FF90EF90DF90CF90BF90AF9099
:103D7000089580913C05811133C082E08093EC046A
:103D80008093ED048AE592E09093EF048093EE0433
:103D90001092F1041092F00486E792E09093E90407
:103DA0008093E8041092F3041092F2041092F40449
:103DB0001092F8041092F9041092F5041092F6048F
:103DC0001092F70410923A0510923B0580E4EAEF56
:103DD000F4E0DF011D928A95E9F781E080933C05CC
:103DE00088EE94E008950E94B91EFC0183818F5FE4
:103DF0000C945C14CF93DF930E94B91EEC010E94D7
:103E0000291EFE01EE5AFF4F80813196908189175D
:103E100021F0C80FD11D8A8901C080E090E0DF91B8
:103E2000CF9108950E94B91E0C942E22CF93DF9358
:103E30000E94B91EEC010E94291EFE01EE5AFF4F9E
:103E4000CD5ADF4F81E090E030812881321302C0EB
:103E500080E090E0DF91CF91089590E0FC013197F0
:103E6000EF30F105B0F5EE58FF4F0C9434338091EC
:103E700080008F7703C0809180008F7D80938000C9
:103E8000089580918000877FF9CF84B58F7702C035
:103E900084B58F7D84BD0895809190008F7707C091
:103EA000809190008F7D03C080919000877F8093E8
:103EB000900008958091C0008F7703C08091C0006A
:103EC0008F7D8093C00008958091C200877F80938A
:103ED000C20008953FB7F89480918B0590918C05AE
:103EE000A0918D05B0918E0526B5A89B05C02F3FEA
:103EF00019F00196A11DB11D3FBFBA2FA92F982F10
:103F00008827820F911DA11DB11DBC01CD0142E08A
:103F1000660F771F881F991F4A95D1F708950F9351
:103F20001F93CF93DF93EC01062F142F213049F01C
:103F300028F0233051F48DEE91E005C087E69CE037
:103F400002C081E297E00E94B52481E080931908C5
:103F5000602F88E098E00E94FF1A612F88E098E0C7
:103F60000E94EF1A4C815D816881798188E098E038
:103F7000DF91CF911F910F910C9480120F931F939B
:103F8000CF93DF93162F072FCAEDD7E0998121E059
:103F90002093D8059093FA051092D9051092FB054D
:103FA000682F8CE496E00E949D19602F8CE496E0C7
:103FB0000E949D19612F8CE496E00E949D1981E07A
:103FC0000E9488238883DF91CF911F910F910895DC
:103FD0008F929F92AF92BF92EF92FF920F931F9397
:103FE000CF93DF937C01EB0180E50E947A248F5F01
:103FF000880F90E09983888386E40E947A24082FB2
:1040000010E00F5F1F4F1D830C83A881B0E020E0FC
:104010003FE24AE350E00E9485326C507E4F8F4F62
:104020009F4F38EE832E33E0932EA12CB12CA501A7
:1040300094010E94CF32D8010E9490326C507E4F82
:104040008F4F9F4FA50194010E94CF322A873B8753
:104050004C875D8781E50E942D248C01112702C0C9
:10406000000F111F9A95E2F70F5F1F4F1F830E83FA
:10407000A881B0E020E03FE24AE350E00E948532B0
:104080006C507E4F8F4F9F4FA50194010E94CF32FD
:10409000D8010E9485326C507E4F8F4F9F4FA501F3
:1040A00094010E94CF322E873F87488B598B80E73F
:1040B0000E947A248F5F880F90E09B838A8381E738
:1040C0000E942D249C01992702C0880F991F3A95C0
:1040D000E2F7019699878887F7012381222331F03F
:1040E0002E813F81821B930B99878887AA81B0E03C
:1040F00020E03FE24AE350E00E9485326C507E4F60
:104100008F4F9F4F28EE822E23E0922EA12CB12CB0
:10411000A50194010E94CF32A885B9850E948532FD
:104120006C507E4F8F4F9F4FA50194010E94CF325C
:104130002A8B3B8B4C8B5D8BDF91CF911F910F9125
:10414000FF90EF90BF90AF909F908F900895CF9386
:10415000DF93EC0181E00E947A2484FB992790F997
:10416000988383FB992790F99A8382FB992790F98A
:10417000998386FB992790F99B83881F8827881F3E
:104180008C83DF91CF910895FC01808191810C9403
:10419000D233CF93DF93EC01FB01448155816081E1
:1041A00071810E94B313811103C0CE010E94E113FB
:1041B000CE01DF91CF910895EF92FF920F931F935D
:1041C000CF93DF93CDB7DEB729970FB6F894DEBF54
:1041D0000FBECDBF8C01862FF80111821082138291
:1041E0001282158214824AE09E012F5F3F4F7901AF
:1041F000B90190E00E942632F70101900020E9F712
:104200003197AF014E195F09B701C8010E940C1424
:1042100029960FB6F894DEBF0FBECDBFDF91CF91C8
:104220001F910F91FF90EF900895CF92DF92EF9240
:10423000FF920F931F93CF93DF93CDB7DEB72997EC
:104240000FB6F894DEBF0FBECDBF8091FB079091F3
:10425000FC07892B09F4BBC0C0900108D09002086C
:10426000E0900308F09004080E946A1F6C157D0519
:104270008E059F0550F40E946A1F60930108709399
:10428000020880930308909304080E946A1F00911B
:104290000108109102082091030830910408DC0104
:1042A000CB01801B910BA20BB30B8C329140A1056B
:1042B000B10590F2F8948091F6079091F7079A83F0
:1042C0008983E091FB07F091FC07DF011196808163
:1042D00089879091F207E0910508F0910608809196
:1042E0000708992309F42EC09081982B9887908114
:1042F000809589238F838F818C8388E08B83588579
:104300006F8149853B812C8189819A81508347FD4A
:10431000252F3A952083262F39F0441F00C0000036
:104320006083000000C0F2CF38E04D916083000050
:10433000019761F7F0930608E093050849873B83EE
:104340002C8338C09081982B988790818095892301
:104350008F838F818E8388E08D8358856F81498517
:104360003D812E8189819A81508347FD252F00C090
:1043700000C0208300C000C000C000C000C0608337
:104380000000262F3A9541F0441F000000C000C0F5
:1043900000C000C000C0E8CF38E04D9100C060838D
:1043A00000C0019709F7F0930608E09305084987D4
:1043B0003D832E839A83898378940E946A1F609339
:1043C00001087093020880930308909304082996CB
:1043D0000FB6F894DEBF0FBECDBFDF91CF911F9116
:1043E0000F91FF90EF90DF90CF900895EF92FF92A2
:1043F0000F931F93CF93DF93CDB7DEB762970FB6BE
:10440000F894DEBF0FBECDBF8C01CB01F801118245
:10441000108213821282158214824AE09E012F5F5D
:104420003F4F7901B9010E941B32F7010190002032
:10443000E9F73197AF014E195F09B701C8010E9432
:104440000C1462960FB6F894DEBF0FBECDBFDF919D
:10445000CF911F910F91FF90EF900895CF93DF932D
:10446000EC010E94291EFE01EE5AFF4F2081DE0161
:10447000AD5ABF4F8C91281751F030E0C20FD31FB7
:104480008A892F5F3F4F2F733327208301C080E03D
:1044900090E0DF91CF910895CF93DF93282F30E004
:1044A000F901E253FE4F8491F901E35BF14FD4919E
:1044B000F901E658F14FC491CC2391F081110E948B
:1044C0002D1FEC2FF0E0EE0FFF1FE054FE4FA591E3
:1044D000B491EC91ED2381E090E021F480E002C002
:1044E00080E090E0DF91CF9108951F93CF93DF9309
:1044F000282F30E0F901E253FE4F8491F901E35B8C
:10450000F14FD491F901E658F14FC491CC23C1F099
:10451000162F81110E942D1FEC2FF0E0EE0FFF1FD0
:10452000E459F14FA591B4919FB7F894111104C0CB
:104530008C91D095D82302C0EC91DE2BDC939FBFE9
:10454000DF91CF911F910895CF93DF9390E0FC010D
:10455000E35BF14F2491FC01E658F14F84918823ED
:1045600061F190E0880F991FFC01EE54FE4FC59158
:10457000D491FC01E459F14FA591B491611109C0A6
:104580009FB7F8948881209582238883EC912E230D
:104590000BC0623061F49FB7F8948881322F309558
:1045A00083238883EC912E2B2C939FBF06C08FB75B
:1045B000F894E8812E2B28838FBFDF91CF91089547
:1045C000823108F08251E82FF0E0EA55FE4FE49185
:1045D00080917B00E3FB222720F930E095E0220F59
:1045E000331F9A95E1F78F7D282B20937B008091D4
:1045F0005C0220E4829FC0011124E770E82BE09365
:104600007C0080917A00806480937A0080917A00A7
:1046100086FDFCCF809178002091790090E0922B6C
:1046200008958F929F92AF92BF92CF92DF92EF92B6
:10463000FF926B017C010E946A1F4B015C01C11457
:10464000D104E104F104F1F00E946A1FDC01CB0106
:1046500088199909AA09BB09883E9340A105B105AB
:1046600070F321E0C21AD108E108F10888EE880E43
:1046700083E0981EA11CB11CC114D104E104F10413
:1046800019F7DDCFFF90EF90DF90CF90BF90AF9004
:104690009F908F9008952FB7F8946091870570913F
:1046A00088058091890590918A052FBF0895682F0C
:1046B000616080E00E9458240E944B237093E007C1
:1046C0006093DF0783E10E947A248770B9F48091B8
:1046D000DC079091DD07892BA9F30E944B232091E1
:1046E000DF073091E007621B730B8091DC0790912C
:1046F000DD078617970730F780E0089561E08BE0CB
:104700000E94582460E080E00E94582481E00895CF
:10471000282F3091FB05313208F04AC08091D7052F
:104720008111FCCF9091FA0542E04093D705209388
:10473000D6052FEF2093D5051092D4053093D305DD
:10474000EAEDF5E0A3EBB5E020E0321721F041916E
:104750004D932F5FFACF1092B2052091B205990FB9
:10476000922B9093B2059091B105913061F4109223
:10477000B1059091B2059093BB009091BC0093FD60
:10478000F8CF95EC01C095EE9093BC009091D705C1
:104790009230E1F39091D5059F3F79F08091D50556
:1047A000803241F08091D505803331F084E005C03E
:1047B00081E003C082E001C083E01092D90510922D
:1047C000FB051092D80508959091D7059111FCCF63
:1047D000613208F060E291E09093D7059093D6059E
:1047E0002FEF2093D5051092D405260F2093D305E3
:1047F0009093B2059091B205880F892B8093B205F2
:104800008091B105813061F41092B1058091B205BB
:104810008093BB008091BC0083FDF8CF85EC01C084
:1048200085EE8093BC008091D7058130E1F38091C3
:10483000D405861710F46091D405E3EBF5E0A1E907
:10484000B5E080E0861721F091919D938F5FFACFBC
:104850001092900580938F050895CF93DF93CAED52
:10486000D7E0998121E02093D8059093FA05109222
:10487000D9051092FB05682F8CE496E00E949D19E3
:1048800081E00E948823888362E089810E94E4237A
:104890008CE496E00E945419D82F80E0C82F8CE455
:1048A00096E00E9454198C2B9D2BDF91CF91089597
:1048B0001F93CF93DF93162FCAEDD7E0998121E0A4
:1048C0002093D8059093FA051092D9051092FB0514
:1048D000682F8CE496E00E949D19612F8CE496E08D
:1048E0000E949D1981E00E9488238883DF91CF91E7
:1048F0001F910895CF93DF93CAEDD7E0998121E00E
:104900002093D8059093FA051092D9051092FB05D3
:10491000682F8CE496E00E949D1981E00E94882314
:10492000888361E089810E94E4238CE496E00E9400
:104930005419DF91CF9108950F93CF93DF93EC013A
:104940001B861A8660E40E94E71A0F810695069579
:10495000069501504E81415020E060E0CE010E945A
:104960001E1BDF91CF910F910895909317088093AC
:104970001608009741F0FC0124913196849190E053
:10498000922B019721F081E08093110808951092F5
:10499000110808951F920F920FB60F9211242F93B2
:1049A0003F938F939F93AF93BF938091870590918F
:1049B0008805A0918905B0918A0530911F0823E0F0
:1049C000230F2D3720F40196A11DB11D05C026E847
:1049D000230F0296A11DB11D20931F088093870508
:1049E00090938805A0938905B0938A0580918B05E3
:1049F00090918C05A0918D05B0918E050196A11D19
:104A0000B11D80938B0590938C05A0938D05B09379
:104A10008E05BF91AF919F918F913F912F910F90F4
:104A20000FBE0F901F901895CF93DF93CDB7DEB7D1
:104A3000A6970FB6F894DEBF0FBECDBF789484B5AD
:104A4000826084BD84B5816084BD85B5826085BD8A
:104A500085B5816085BD80916E00816080936E0018
:104A6000109281008091810082608093810080910A
:104A700081008160809381008091800081608093BB
:104A800080008091910082608093910080919100DC
:104A9000816080939100809190008160809390006C
:104AA0008091C10084608093C1008091C1008260C8
:104AB0008093C1008091C10081608093C10080918A
:104AC000C30081608093C3008091C00082608093A6
:104AD000C0008091C20081608093C20080917A0002
:104AE000846080937A0080917A00826080937A005B
:104AF00080917A00816080937A0080917A0080684A
:104B000080937A001092340410923304109232048D
:104B10008091D70081608093D70080EA8093D8008D
:104B200089B5806189BD89B5826089BD09B400FEFF
:104B3000FDCF61E070E080E090E00E941123809161
:104B4000D8008F7C80618093D8008091E000807FC6
:104B50008093E0008091E1008E7E8093E1008DE003
:104B60008093E200559A209A60E087E00E94A42298
:104B70008FEF93E00E945032843008F081C08FEFB5
:104B800093E00E945032182F0E94620991E09093A6
:104B90000001E0919706F09198060190F081E02DD8
:104BA000A089B18982E08C93A485B5851C92A685E5
:104BB000B7858FE38C93108EA489B58986E08C939A
:104BC000A289B3898C9180618C93A289B3898C91DD
:104BD00088608C93A289B3898C9180688C930288B9
:104BE000F389E02D80818F7D8083909399061092C8
:104BF0009B0610929A061092A2061092A10610929D
:104C0000A00610929F06EE24EA94FE2CF092A406D1
:104C1000E092A306F092A606E092A5060E944B231E
:104C200060932F077093300780933107909332077A
:104C300010922C071092A9061092A8061092AA06AC
:104C40001092AB0610922E0710922D078091A706A6
:104C50008170826081608093A706F0920906E092DD
:104C600008068091F8079091F90797FD27C061E049
:104C70000E94A42260E08091F8070E9475221EC065
:104C800060E08FEF93E00E945832E1E0F1E080E0D5
:104C90009FE717828087968315828F5F39968532CA
:104CA000C1F780E00E94C50981E00E94C50982E049
:104CB0000E94C50983E00E94C50961CF81E080930D
:104CC000F3076091FA07633321F12091FB073091DC
:104CD000FC07615031F070E08FEF92E30E940C33DB
:104CE00002C060E070E0F9014091F6075091F707CB
:104CF000CF01821B930B8417950740F44081469F98
:104D0000C001479F900D11249193EECF83E38093D0
:104D1000FA0700E020E040E060E0802F0E94B30B43
:104D20000F5F0430B9F70E94152161E08CE00E940A
:104D3000A42261E086E00E94A42260E085E00E9457
:104D4000A42260E086E00E94752261E08CE00E946F
:104D500075220E94040B60938804709389048093E9
:104D60008A0490938B0410925C024AE6E42E42E09F
:104D7000F42E52E7C52E52E0D52ED7010C91B2E0A9
:104D8000EB0EF11C61E0802F0E94A42260E0802FD6
:104D90000E947522CE14DF0481F7109290051092C4
:104DA0008F051092D9051092FB051092D70581E06E
:104DB0008093D6051092B10561E082E00E947522D1
:104DC00061E083E00E9475228091B9008E7F80931C
:104DD000B9008091B9008D7F8093B90088E48093F9
:104DE000B80085E48093BC0082E499E19093380494
:104DF0008093370483E499E19093360480933504DB
:104E000010921C088CE380931B081092B9008CE070
:104E10008093B80010920C0810920D08EBE1F1E0BD
:104E200085919491D82EEDE1F1E00491EEE1F1E06D
:104E3000E491E0930E08EFE1F1E0E491E0930F08D4
:104E4000E0E2F1E0E491E09310087C018E2D8D19F1
:104E5000801750F4F701649188E098E00E94E71A07
:104E6000FFEFEF1AFF0AF2CF88E098E00E949C243F
:104E700084EF91E09093DD078093DC0780EC0E9443
:104E80007A248E3E09F0DCC389E80E947A24682FD8
:104E9000616089E80E94582460E088E80E945824F4
:104EA00061E080E80E94582461E08FEF0E9458245E
:104EB00060E080E00E94582481E90E947A24809377
:104EC000E10761E080E00E94582460E08FEF0E94DB
:104ED000582460E080E80E94582480E60E947A24EA
:104EE000682F626180E60E94582460E270E084E4EA
:104EF0000E94BE1F6FEF81E00E94582461E080E8AD
:104F00000E94582461E08FEF0E94582460E080E006
:104F10000E94582466E08FEF0E94582483E80E9484
:104F20007A24682F646083E80E94582467E08FEF3A
:104F30000E94582461E081E80E94582461E080E8E2
:104F40000E9458246BE684E90E94582460E083E8BC
:104F50000E9458240E944B237093E0076093DF0760
:104F600083E80E947A24811116C08091DC07909119
:104F7000DD07892BA9F30E944B232091DF07309195
:104F8000E007621B730B8091DC079091DD078617A9
:104F9000970730F755C361E083E80E94582482E9FF
:104FA0000E947A24C82E082F0F7760E081E80E94C3
:104FB000582466E08FEF0E94582483E80E947A24E8
:104FC000682F6B7F83E80E94582461E08FEF0E9476
:104FD000582461E080E00E94582460E08FEF0E9436
:104FE000582460E080E80E9458248091DB0791E01B
:104FF0009093D8058093FA051092D9051092FB057D
:1050000060EB8CE496E00E949D1981E00E94882369
:105010008093DA0766E08091DB070E94E4237E013B
:1050200027E1E20EF11C570137E0D32EDA94DD20A0
:1050300041F08CE496E00E945419D5018D935D01F6
:10504000F5CF61E08FEF0E94582460E08FE40E946A
:1050500058246CE28EE40E94582460E08FEF0E9496
:10506000582464EB86EB0E945824C7FE02C06CE013
:1050700001C060E090E080E041E050E0282F2695FC
:1050800026952695782F7770F701E20FF11D861788
:1050900010F090130AC09A0101C0220F7A95EAF726
:1050A000209530812323208309C0208130E002C075
:1050B000359527957A95E2F720FD9F5F8F5F8033C6
:1050C000E9F68091DB0791E09093D8058093FA058B
:1050D0001092D9051092FB0560EB8CE496E00E94DB
:1050E0009D1907E0015041F0F70161917F018CE4C7
:1050F00096E00E949D19F6CF81E00E94882380935C
:10510000DA0761E08FEF0E94582460E080E00E949F
:10511000582460E08FEF0E94582460E089E00E94EC
:10512000582460E080E10E94582460E081E10E9400
:10513000582461E084E20E9458246FEF85E20E94C7
:10514000582460E085E70E94582461E08FEF0E94B8
:1051500058246CE28EE40E94582460E088E40E94A7
:10516000582460E280E30E94582460E08FEF0E94A0
:10517000582469E080E30E94582460E084E50E949E
:10518000582464E081E30E94582463E082E30E9493
:10519000582463E880E40E94582465E286E40E9473
:1051A000582460E080E60E94582460E087E20E9474
:1051B000582466E080E50E94582460E081E50E9462
:1051C000582466E982E50E94582468E086E50E943A
:1051D000582460E387E50E94582460E081E60E943D
:1051E000582460E082E60E94582460E084E60E9431
:1051F000582460E085E60E94582460EA86E60E9412
:10520000582461E08FEF0E94582462E382E20E94FA
:10521000582464E187E40E9458246FEF89E40E94D7
:10522000582460E08AE40E94582460E08FEF0E94D6
:1052300058246AE08AE70E94582460E08BE70E94C5
:10524000582461E288E70E94582461E08FEF0E94B1
:10525000582464E383E20E94582460E082E40E94C0
:1052600058246FEF84E40E94582466E285E40E948B
:10527000582465E086E40E94582460E480E40E949B
:10528000582466E08EE00E9458246AE180E20E9481
:10529000582460E483E40E94582460E08FEF0E9469
:1052A000582463E084E30E94582464E485E30E9468
:1052B000582461E08FEF0E94582464E081E30E944B
:1052C000582469E08BE40E94582465E08CE40E9435
:1052D000582464E08DE40E94582460E08FEF0E941F
:1052E000582460E084E40E94582460E285E40E942F
:1052F000582468E087E40E94582468E288E40E9409
:10530000582460E087E60E94582464E080E70E9409
:10531000582461E081E70E9458246EEF82E70E94E2
:10532000582460E086E70E94582460E087E70E94E6
:10533000582461E08FEF0E94582461E08DE00E94C4
:10534000582460E08FEF0E94582461E080E80E94BA
:10535000582468EF81E00E94582461E08FEF0E949A
:10536000582461E08EE80E94582461E080E00E94A9
:10537000582460E08FEF0E94582460E080E80E948B
:10538000582464E08AE00E94582484E80E947A2429
:10539000682F6F7E84E80E94582461E08BE00E94B1
:1053A0005824CE014D960E94A720BE016F5F7F4F0B
:1053B000CE014D960E94E81F8D8D882349F08B8584
:1053C0009C85AD85BE858C57924FAF4FBF4F04C0B3
:1053D00086E39BE0A0E0B0E02F8D222369F04B85AF
:1053E0005C856D857E854E545D4F6F4F7F4F440FBA
:1053F000551F661F771F0BC02E8D222361F04B8532
:105400005C856D857E854C565D4F6F4F7F4F840F59
:10541000951FA61FB71F28A1222361F04F85588929
:1054200069897A894C565D4F6F4F7F4F840F951F66
:10543000A61FB71F29A1222361F04B895C896D89C2
:105440007E894A5D5D4F6F4F7F4F840F951FA61F6A
:10545000B71F8093E2079093E307A093E407B0930C
:10546000E50768EE81E00E945824C090E207D090E2
:10547000E307E090E407F090E507F0E2CF16FEE4E2
:10548000DF06E104F10408F4C5C0CE014D960E9488
:10549000A720BE016F5F7F4FCE014D960E94E81F8F
:1054A0008D8D882349F08B859C85AD85BE858C5775
:1054B000924FAF4FBF4F04C086E39BE0A0E0B0E047
:1054C0002F8D222369F04B855C856D857E854E543A
:1054D0005D4F6F4F7F4F440F551F661F771F0BC0E7
:1054E0002E8D222361F04B855C856D857E854C5623
:1054F0005D4F6F4F7F4F840F951FA61FB71F08A1E9
:10550000002361F04F85588969897A894C565D4F2F
:105510006F4F7F4F840F951FA61FB71F29A122230E
:1055200009F478C02C013D0126E2420E22E0521E11
:10553000611C711CC414D504E604F70408F46AC0A5
:10554000AB81B0E020E03FE24AE350E00E948532C8
:105550004B015C01A4EF8A0EA1E09A1EA11CB11CB4
:10556000A70196012419350946095709A8EEB3E0A9
:105570000E9485322B013C01C501B40120ED37E0CA
:1055800040E050E00E94CF32420E531E641E751E52
:10559000C501B40128EE33E040E050E00E94CF3274
:1055A000C301B2010E94CF32002331F08F81988570
:1055B000280F391F411D511D211531054105510588
:1055C000E1F049015A01B1E08B1A9108A108B10834
:1055D00060E070E0D501C4018827892B8A2B8B2BD2
:1055E00039F0B694A794979487946F5F7F4FF2CF6A
:1055F000762F66276829792902C060E070E081E78C
:105600000E94BE1FC092E207D092E307E092E40737
:10561000F092E50761E081E00E94582480E40E9456
:105620005723882369F062E081E00E94582480E0DB
:105630000E945723882321F068EE81E00E945824BD
:1056400061E080E80E94582461E08FEF0E945824B6
:1056500060E080E00E9458246091E10781E90E94A7
:10566000582461E080E00E94582460E08FEF0E949F
:10567000582460E080E80E94582462E080E00E94A4
:1056800058248FEF93E00E9450320E94620964ED2B
:1056900072E0CE0101960E94471423E041E060E0F1
:1056A000CE0101960E948F1FCE0101960E94C42058
:1056B0006CE271E080E090E00E941123612F70E0C5
:1056C0006F5F7F4FCE0147960E94F62167EE72E032
:1056D000CE014D960E944714BE01695E7F4FCE01F8
:1056E0004D960E94C920BC01CE0101960E942D1446
:1056F00020E043E060E0CE0101960E948F1FCE01C2
:1057000001960E94C420CE014D960E94C420CE0175
:1057100047960E94C42068E572E080E090E00E9415
:10572000112365EF72E0CE0101960E94471420E03C
:1057300043E060E0CE0101960E948F1FCE010196EA
:105740000E94C42065E073E0CE0101960E944714D8
:1057500020E043E069E6CE0101960E948F1FCE0152
:1057600001960E94C42010E00E94B60A0E943C0AE2
:10577000812F0E948A0C0E94152162E070E080E077
:1057800090E00E9411231F5F1F3F71F78091410439
:10579000882359F00E944B230E94630B68EC70E051
:1057A00080E090E00E941123F1CF68EE73E080E08A
:1057B00090E00E94112388E098E00E949C243FE73B
:1057C000E32E49E0F42E5EE4252E52E0352E6FE7FD
:1057D000462E512C612C712C0E944B234B015C01F5
:1057E0006093910470939204809393049093940433
:1057F0000E94B60A0E94040B609388047093890487
:1058000080938A0490938B04C501B4010E94630BBA
:1058100087E00E944A0B811167C00E944B2370935E
:10582000E0076093DF0783E10E947A248770E1F448
:105830008091DC079091DD07892BA9F30E944B230F
:105840002091DF073091E007621B730B8091DC072A
:105850009091DD078617970730F781E08093DE0788
:10586000CC24CA94DC2C09C08EE10E942D248C012A
:1058700061E08BE00E9458246801860106541109FA
:10588000083EE3E01E0784F50115110569F16091FA
:105890008C0470918D0480918E0490918F0428E087
:1058A00030E040E050E00E946632A7E0B0E00E94A5
:1058B000853217FF02C0095F1F4F23E0159507953A
:1058C0002A95E1F7012E000C220B330BDC01CB01F2
:1058D000800F911FA21FB31F80938C0490938D049F
:1058E000A0938E04B0938F040E943C0A80916506B9
:1058F00081110DC080913F04882309F471C281E0B9
:10590000809365068091870480936B062DC08091FB
:10591000660681112CC080917604882361F0809105
:105920006406863019F41092640603C08F5F80937A
:1059300064060E94DC0D80918104882369F08091C7
:105940006406811104C0F6E0F093640603C0815040
:10595000809364060E94DC0D80913F04882309F443
:105960003FC281E0809366060E94DC0D39C2E0915F
:1059700064068E2F90E08730910508F00DC2FC017F
:10598000EA5AFF4F0C94343380918104811108C08E
:1059900080917C04882311F1809183048823F1F0A5
:1059A00080916B0690E0F89EF001F99EF00D1124B5
:1059B000EF5FFE4F2085211102C02FE701C021506B
:1059C00020936C06F89EF001F99EF00D1124EF5F14
:1059D000FE4F80916C0680870E94DC0D80917604DA
:1059E00081110AC080917104882309F4D5C1809186
:1059F0007804882309F4D0C120916B0630E0F29E30
:105A0000F001F39EF00D1124EF5FFE4F80858F5F54
:105A100087FD80E0F29EF001F39EF00D1124EF5F10
:105A2000FE4F8087A9C080918104811108C08091B8
:105A30007C04882321F180918304882301F18091E3
:105A40006B0690E0F89EF001F99EF00D1124EF5FD7
:105A5000FE4F2781211104C0AFE0A0936C0603C064
:105A6000215020936C06F89EF001F99EF00D112450
:105A7000EF5FFE4F80916C0687830E94DC0D809162
:105A8000760481110AC080917104882309F484C1CD
:105A900080917804882309F47FC180916B0690E09F
:105AA000F89EF001F99EF00D1124EF5FFE4F278163
:105AB0002F5F2F3018F420936C0602C010926C06F2
:105AC000F89EF001F99EF00D1124EF5FFE4F8091DA
:105AD0006C06878351C0809181048823F1F0E091A6
