:100000000C9433070C945B070C945B070C945B0710
:100010000C945B070C945B070C945B070C945B07D8
:100020000C945B070C945B070C943F120C94251402
:100030000C945B070C945B070C945B070C945B07B8
:100040000C945B070C945B070C945B070C945B07A8
:100050000C945B070C945B070C945B070C94882250
:100060000C945B070C9489160C9463160C945B0734
:100070000C945B070C945B070C945B070C945B0778
:100080000C945B070C945B070C945B070C945B0768
:100090000C94101B0C945B070C945B070C945B078F
:1000A0000C945B070C945B070C945B070D201020ED
:1000B000FF1F032009203120312031201420182077
:1000C0001C202220262031202C20AED580A81FD332
:1000D00000408D142002A1C8DA02817FD9F1DB40F3
:1000E000A4A6AFCA0019802000000000002300264B
:1000F0000029002C002F00080B0002020201000959
:100100000400000102020000052400100105240182
:1001100001010424020605240600010705810310DD
:10012000004009040100020A000000070502024025
:1001300000000705830240000004030904120100C7
:1001400002EF020140412336800001010203014118
:10015000726475696E6F204C4C430041726475691E
:100160006E6F204C656F6E6172646F0000030C0F40
:1001700030333C3FC0C3CCCFF0F3FCFF070605048F
:100180000100080A0B0C0D090000000024002700E4
:100190002A002D0030000000000200090F000003BB
:1001A0000401000C0000000000000000000000003E
:1001B000000000000022080D0E2060040205060762
:1001C00008090203030508020402040704070707DD
:1001D00007070707070202070707080E09080808AC
:1001E00007070908020708070B0809070909070894
:1001F00008090D0708080404040608030707060792
:1002000007050707020306020A0707070705060591
:1002100007070B0607050501050708000000000099
:10022000000000FEFE18181E1E001E1E000000002A
:100230000090F89E90F89E1C00001C0000183C26C0
:10024000FF66CC88040C183C180C041C221CC0301F
:100250008E408000001804000C100C80CC7E72F2DE
:10026000DE0C80000C1C1010101C0C1C101E1E003C
:1002700000F0FC061C7CC006FCF0C07C1C14140EB4
:1002800014140000000000606060FCFC606060000E
:1002900000000C0C00000000005838C0C0C0C000B6
:1002A0000000000000181800C0380618040000F80C
:1002B000FC0E060EFCF8040C1C181C0C04180CFE9A
:1002C000FE00001C1C181C86C6663E1C181C1C1850
:1002D000181818888C062626FEDC040C1C18180C2E
:1002E00004C0E0B88CFEFE80040404041C1C0470EE
:1002F0007E3E3636F6C60C1C1818180C04F8FC6E38
:100300006666EECC040C1818181C0C060606E67679
:100310001E0600001C1C0000009CFE666666FE9C1B
:100320000C1C1818181C0C3C7E666666FCF80C1C2D
:1003300018181C0C0418181818181858386060F091
:10034000F098980C0000000004040CD8D8D8D8D835
:10035000D8D8000000000000000C9898F0F0606011
:100360000C040400000000080C06C6E6763C1800E9
:1003700000001818000000E03008C4F63A1A1AF21B
:10038000FA7E0408F00C30604C9C98988C9C9C90F1
:10039000484C2000C0F8BE86BEF8C000181C0404FB
:1003A0000404041C18FEFE66666666FEDC1C1C184F
:1003B0001818181C0CF8FC0E06060E9C08040C1CE1
:1003C00018181C0C04FEFE0606060EFCF81C1C1871
:1003D00018181C0C04FEFE66666666661C1C18185F
:1003E000181818FEFE66666666061C1C00000000F3
:1003F00000F8FC0E0606C6CEDCC8040C1C18181843
:10040000180C04FEFE60606060FEFE1C1C00000014
:10041000001C1CFEFE1C1C8080000000FEFE0C1C4C
:100420001818181C0CFEFE603078EC86021C1C00AC
:100430000000041C18FEFE00000000001C1C181820
:10044000181818FEFE0E7CE000E07C0EFEFE1C1C60
:1004500000000C1C0C00001C1CFEFE1C78E080FE42
:10046000FE1C1C0000040C1C1CF8FC0E0606060EEC
:10047000FCF8040C1C1818181C0C04FEFE666666BA
:100480007E3C1C1C0000000000F8FC0E0686060ED8
:10049000FCF8040C1C18181C0C1C24FEFE6666E6F6
:1004A000E6BE1C001C1C0000000C1C18103C7E66E4
:1004B0006666EECC0C1C1818181C0C060606FEFE10
:1004C0000606060000001C1C000000FEFE000000E6
:1004D00000FEFE040C1C18181C0C04021EFCE0009C
:1004E000E0FC1E020000001C1C1C00000006FEF8C0
:1004F00000F0FE0EFEF000F8FE0600001C1C1C00C2
:1005000000001C1C1C0000060EF8F0F80E06181C5B
:100510000400041C18060E38F0F0380E0600000027
:100520001C1C000000060686E6761E0E06181C1C23
:100530001818181818FEFE0606FCFCC0C00638C0C5
:1005400000000004180606FEFEC0C0FCFC20380EA9
:100550000E38200000000000000000000000000035
:10056000008080808080808080020604000000106F
:1005700098D858F8F0000C1C18180C1C10FEFE300F
:100580001838F0E01C1C0C181C0C04E0F01818388B
:1005900030040C18181C0CE0F0381830FEFE040C67
:1005A0001C180C1C1CE0F0D8D8D8F0E0040C18186B
:1005B00018180818FCFE1A1A001C1C0000E0F0387D
:1005C0001830F8F864ECDCD8CCFC7CFEFE3018184F
:1005D000F8F01C1C0000001C1CFAFA1C1C00FAFAA3
:1005E000C0FC7CFEFEE0F098081C1C00041C18FEF9
:1005F000FE1C1CF8F81018F8F01818F8F01C1C0075
:10060000001C1C00001C1CF8F8301818F8F01C1C0A
:100610000000001C1CE0F0381838F0E0040C1C1836
:100620001C0C04F8F8301838F0E0FCFC0C181C0C1A
:1006300004E0F0381830F8F8040C1C180CFCFCF836
:10064000F83018181C1C00000070F8D8D8D8900892
:100650001818181C0C18FCFE1818000C1C1818F898
:10066000F8000000F8F80C1C18180C1C1C38F8C016
:1006700000C0F83800001C1C1C000018F8E000F056
:1006800038F000E0F81800001C1C0C000C1C1C00CA
:10069000001838E0E03818181C04041C1818F8E09A
:1006A00000E0F8180084FCF83C04001898D878386A
:1006B0001C1C18181880FC7E0606007CFCC0C0FEBE
:1006C000FC06067EFC80C0C0FC7C006030307060A0
:1006D000603000000000000000FE02020202020280
:1006E000FE1C1010101010101C0000070E206000DF
:1006F000000000000000000000000000000000FCFE
:100700000000000000000D00000000003C003C0064
:1007100000000000000000000020F82020F8200069
:10072000010701010701006090F890100000040427
:100730000F0403000018249860100C000C0201063E
:1007400009060030C8C8300000000708080906097B
:100750000000003C0000000000000000000000005D
:1007600000E0180402000000030C1020000204182E
:10077000E000000020100C0300000080A0C0C0A01A
:10078000800000020101020000808080F0808080F3
:10079000000000070000000000000000000020181A
:1007A0000C04000000808080808080000000000039
:1007B0000000000000000000000000081C0800000D
:1007C000000000806018060018060100000000F01C
:1007D00008844408F00003040808040300201008FB
:1007E000FC0000000000000F000000180404844416
:1007F00038000C0A09080808000804444444B800FA
:100800000608080808070080601804FC00000101C1
:1008100001010F01007C24242424C40006080808D8
:10082000080700F8844444448800070808080807BB
:1008300000040404C4340C00000C0300000000B8E1
:1008400044444444B8000708080808070078848432
:100850008444F800040808080807000020702000FD
:10086000000000081C0800000000207020000000AC
:1008700020180C0400000080402010080000000137
:1008800002040800004040404040400002020202D2
:10089000020200000810204080000008040201004D
:1008A0000004844424180000000D0000000000F043
:1008B00008C42424F8000304090A0A0300F8848405
:1008C0008484F8000F000000000F00FC44444478CA
:1008D00080000F080808080700F804040404180042
:1008E00007080808080600FC04040408F0000F08C4
:1008F0000808040300FC4444444404000F080808AA
:10090000080800FC4444444404000F0000000000B8
:1009100000F804048484980007080808080700FC0D
:1009200040404040FC000F000000000F000404FCA9
:100930000404000008080F08080000000004040474
:10094000FC0006080808080700FC4020D008040046
:100950000F000000030C00FC0000000000000F0866
:100960000808080800FC1860806018FC0F000001EF
:1009700000000FFC18608000FC000F000001060F53
:1009800000F804040404F80007080808080700FC3D
:100990008484848478000F000000000000F80404C0
:1009A0000404F8000708080E181700FC84848484E7
:1009B00078000F00010204080038444484840800D1
:1009C00004080808080700040404FC0404040000E8
:1009D000000F000000FC00000000FC0007080808F1
:1009E000080700FC00000000FC0000030C0C0300E2
:1009F00000FC0000C00000FC030C0300030C030C0F
:100A000030C0C0300C000C030000030C003C4080E0
:100A100080403C000000000F0000000404844434C7
:100A20000C000C0A09080808000000FE020202007F
:100A300000003F2020200006186080000000000019
:100A40000001061800020202FE0000002020203FE4
:100A5000000000100804040810000000000000005E
:100A600000000000000000002020202020200000C6
:100A7000040C182000000000000000000000A0A0EE
:100A8000A0A0C00007080808040F00FC4020202098
:100A9000C0000F040808080700C0202020204000E4
:100AA00007080808080400C020202040FC000708B0
:100AB0000808040F00C020202020C00007090909F1
:100AC00009090080F88484840800000F00000000F9
:100AD00000C020202040E00023444444423F00FC6A
:100AE00040202020C0000F000000000F0000202048
:100AF000EC0000000000000F00000000002020ECCF
:100B00000000102020201F0000FC0080402000007A
:100B10000F01010204080000FC00000000000007B3
:100B20000808080000E02020C02020C00F000003BB
:100B300000000FE040202020C0000F000000000F48
:100B400000C020202020C00007080808080700E097
:100B500040202020C0007F020404040300C02020A5
:100B60002040E00003040404027F00E04020202035
:100B700040000F000000000000C0202020204000A6
:100B80000409090909060020F820202000000007B8
:100B90000808080400E000000000E000070808085A
:100BA000040F00E000000000E00000030C0C030054
:100BB00000E00000800000E00708040304080720AC
:100BC00040808040200008040202040800E0000089
:100BD0000000E00023444444423F0020202020A0A5
:100BE0006000080C0A090808000080807C020200EE
:100BF0000000001F2020000000FE00000000000098
:100C00001F0000000002027C8080000020201F00E6
:100C1000000000300808102020180000000000002C
:100C200000FEFEFEFEFEFEFE7F7F7F7F7F7F7F0059
:100C30000005072060000000000000005F000000C9
:100C400003000300143E143E14242A7F2A12433367
:100C500008666136495522500005030000001C2239
:100C600041000041221C0014083E081408083E08F8
:100C70000800503000000808080808006060000004
:100C800020100804023E5149453E0004027F004204
:100C90006151494622414949361814127F102745AF
:100CA0004545393E494949320101710907364949EB
:100CB0004936264949493E0036360000005636007E
:100CC00000081422410014141414140041221408C2
:100CD00002015109063E4159555E7E0909097E7F90
:100CE000494949363E414141227F4141413E7F4988
:100CF0004949417F090909013E4141493A7F0808B4
:100D0000087F00417F4100304040403F7F0814226F
:100D1000417F404040407F020C027F7F0204087FF9
:100D20003E4141413E7F090909061E2121215E7F86
:100D300009090976264949493201017F01013F40ED
:100D400040403F1F2040201F7F2010207F41221C59
:100D5000224107087008076151494543007F41005F
:100D60000002040810200000417F00040201020478
:100D70004040404040000102040020545454787F19
:100D8000444444383844444444384444447F385408
:100D900054541804047E0505085454543C7F080438
:100DA000047800447D40002040443D007F102844EA
:100DB0000000417F40007C047804787C08040478BB
:100DC00038444444387C14141408081414147C0067
:100DD0007C080404485454542004043F44443C40D8
:100DE00040207C1C2040201C3C4030403C442810CB
:100DF00028440C5050503C4464544C440008364144
:100E00004100007F00004141360800020102040257
:100E10007F7F7F7F7F0408020110408040102040C8
:100E200080408008020401804020100201108010E0
:100E30002040402000000000250028002B002E004C
:100E40003100040404040403040502020202040342
:100E50000202020206060606060604040202020454
:100E60000400072EF72D11241FBECFEFDAE0DEBFFE
:100E7000CDBF15E0A0E0B1E0E8E7F6E602C00590DE
:100E80000D92A634B107D9F729E0A6E4B5E001C078
:100E90001D92AE3EB207E1F717E0C2E3D7E004C00F
:100EA0002197FE010E941E31C133D107C9F70E946C
:100EB000D2220C942F330C9400008F929F92AF9209
:100EC000BF92CF92DF92EF92FF920F931F93FC019C
:100ED00011861286168217826083808561110BC08D
:100EE000811120C0118281E0808786832283338331
:100EF000448355831AC08823A9F0108681E0878334
:100F0000C280D380E480F58049015A018C189D0885
:100F1000AE08BF080CE2801601E09006A104B104FF
:100F20000CF481878181811117C080858823A1F00D
:100F300082819381A481B58149015A01881A990A55
:100F4000AA0ABB0A05EF801601E09006A104B104CD
:100F50001CF081E0828781831F910F91FF90EF90B9
:100F6000DF90CF90BF90AF909F908F900895FC013D
:100F70006093BC008091BC0087FFFCCF9091B900CA
:100F8000987F90830895CF92DF92EF92FF920F9314
:100F90001F93CF93DF93EC01C62ED42E8C89882328
:100FA00051F0411108C084E98093BC008091BC00DD
:100FB00084FDFCCF1C8AEC888E010E5E1F4FE11071
:100FC00014C0FB8864EAC8010E94B7078A89883088
:100FD00011F1803101F1DD2011F080E4E82EE09282
:100FE000BB0064E8C8010E94B707C092BB0064E878
:100FF000C8010E94B70782E0D81204C08C898F5FB5
:101000008C8B11C084E98093BC008091BC0084FD6E
:10101000FCCF1C8A08C0FF0CF092BB0064E8C8013A
:101020000E94B707D8CFDF91CF911F910F91FF900A
:10103000EF90DF90CF900895089580E090E00895BC
:101040000F931F93CF93DF9301EB16E0C0E0D0E046
:10105000C0FF02C061E001C060E088E00E94322071
:10106000C1FF02C061E001C060E089E00E9432205F
:10107000C2FF02C061E001C060E08AE00E9432204D
:10108000CE0123E0959587952A95E1F7892B11F0FC
:1010900061E001C060E08BE00E94322061E070E01E
:1010A00080E090E00E94C82082E10E949D20F8012B
:1010B000819391938F0183E10E949D20F801978F86
:1010C000868F2196C031D10519F6DF91CF911F91FE
:1010D0000F910895CF92DF92EF92FF926B017C0106
:1010E0008091A0059091A105A091A205B091A305C2
:1010F00024E0B695A795979587952A95D1F7682FFF
:101100006170A701960183E995E00E945D078091D7
:10111000A0059091A105A091A205B091A30535E08D
:10112000B695A795979587953A95D1F7682F6170F1
:10113000A701960188E895E00E945D078091A005CF
:101140009091A105A091A205B091A30546E0B695A6
:10115000A795979587954A95D1F7682F6170A70154
:10116000960181E595E00E945D076091A0056170A0
:10117000A70196018CE595E00E945D078091A0058E
:101180009091A105A091A205B091A305B695A79550
:1011900097958795682F6170A701960187E695E07E
:1011A0000E945D078091A0059091A105A091A205E4
:1011B000B091A30562E0B695A795979587956A9536
:1011C000D1F7682F6170A701960182E795E00E9430
:1011D0005D078091A0059091A105A091A205B09115
:1011E000A30573E0B695A795979587957A95D1F75E
:1011F000682F6170A70196018DE795E0FF90EF9051
:10120000DF90CF900C945D074F925F926F927F9228
:101210008F929F92AF92BF92CF92DF92EF92FF9206
:101220000F931F93CF93DF9360E08CE00E943220F6
:101230008FE090E00197F1F761E08CE00E943220AE
:10124000C7E0D0E0812C912C54019BE9692E91E0FC
:10125000792E2AE1E22E2EE0F22E37E4C32E3EE074
:10126000D32E0FE010E0F3018491F7015490F601C2
:1012700044904420A1F081110E94F51FE42DF0E07C
:10128000EE0FFF1FE751FF4FA591B4918C915822AB
:1012900031E020E009F430E0832F922F02C080E09B
:1012A00090E0092E000CAA0BBB0B0C2E04C0880F7B
:1012B000991FAA1FBB1F0A94D2F7882A992AAA2A23
:1012C000BB2A61E086E00E943220C8010197F1F755
:1012D00060E086E00E943220219708F0C4CFC5016B
:1012E000B401DF91CF911F910F91FF90EF90DF90AC
:1012F000CF90BF90AF909F908F907F906F905F90B6
:101300004F9008956F927F928F929F92AF92BF926B
:10131000CF92DF92EF92FF920F931F93CF93DF93C1
:1013200090EC699FB0011124672F770F770B6B0149
:10133000FFE1CF22DD24A3E0CC0CDD1CAA95E1F770
:10134000822E912CC42FD0E0EE24EA94F12C870158
:101350000C1B1D0B089DD001099DB00D189DB00DF3
:1013600011244B2FCC9E5001CD9EB00CDC9EB00CB6
:101370001124AB2CBB2400E011E038016A187B0873
:10138000689C5001699CB00C789CB00C1124EC183E
:10139000FD08EC9E6001ED9ED00CFC9ED00C11244B
:1013A000CD2CDD240C191D09089DE001099DD00DEF
:1013B000189DD00D1124629566956770623091F08A
:1013C00038F4662369F06130D9F4522FEB2D19C03F
:1013D000643081F058F0653099F45B2F4B2D0EC0CE
:1013E0005D2F0CC0522FEB2F4D2F0BC05B2DEB2F21
:1013F000422F07C05B2F422FED2F03C0E22F01C009
:1014000040E0682F70E02091BE093091BF0962175B
:10141000730708F03FC02091C409222361F0E29FC6
:10142000F0011124EF2F259FD00111245B2F249F61
:1014300090011124432FF091CA099091C70920917E
:10144000C5093091C609F91308C0B901F3E08F9FAF
:10145000600D711D1124CB010BC0CB01880F991FAA
:10146000880F991F820F931FDC01AF0FB11D1C92D3
:101470002091C709DC01A20FB11DEC932091C8098E
:10148000FC01E20FF11D50832091C909FC01E20F1C
:10149000F11D4083DF91CF911F910F91FF90EF904D
:1014A000DF90CF90BF90AF909F908F907F906F9084
:1014B0000895CF92DF92EF92FF920F931F93CF93F5
:1014C000DF9300D000D0CDB7DEB7F82E062F11E0A5
:1014D000140F87EAC82E89E0D82EEE24E394F60193
:1014E000E6820E940221F6016083718382839383E6
:1014F0002FEF40E060E081E00E948209212F402F21
:101500006F2D80EB0E94E71E9EEAC92E99E0D92E2E
:10151000F601E6820E940221F601608371838283D4
:1015200093832FEF40E060E082E00E9482098BE02D
:101530008983106B1A83FB820C8308E118E0F801A1
:10154000838144E050E0BE016F5F7F4F8F5F0E9458
:10155000F812F80183818F5F0E9435120F900F906F
:101560000F900F90DF91CF911F910F91FF90EF900F
:10157000DF90CF9008958F929F92AF92BF92CF92BB
:10158000DF92EF92FF920F931F93CF93DF93CDB72C
:10159000DEB7CA54D1090FB6F894DEBF0FBECDBF77
:1015A00082EB93E09E012F5F3F4F79018E01075E32
:1015B0001F4FD901FC012191CF01E22FF0E0EE0F86
:1015C000FF1FEF54F94F208131812D933D93A017D8
:1015D000B10781F7AEE9B3E0CE018F5B9F4F2FEFEC
:1015E00033E0ED91F0E0EE0FFF1FEF54F94FCC2404
:1015F000CA9453E0D52E40815181B901641B750B0B
:10160000F801619371938F01E817F90751F784E1AD
:101610000E949D209601281B390BF80131832083FD
:1016200085E10E949D209601281B390B25963FAF2E
:101630002EAF259786E10E949D20A601481B590BDD
:1016400027965FAF4EAF279787E10E949D20C81A6B
:10165000D90A2996DFAECEAE299780914D0590919B
:101660004E05A0914F05B0915005B7FD0CC08139D2
:1016700051E09507A105B10524F080E991E0A0E0D3
:10168000B0E09C0102C020E030E0A1E0BCEF0E948D
:10169000243120E931E040E050E00E945C30DA0182
:1016A000C90181509C4FAF4FBF4F2B969FAF8EAF5C
:1016B0002B9702E011E0D12C88248A9483E0982EA5
:1016C000A12CB12CCC24C394F8011482F7012191F0
:1016D00031917F01F80180819181A901481B590B4B
:1016E000CA0157FF03C091958195910940970CF469
:1016F0004AC0F80131832083A1E8BFEF0E94243162
:10170000A50194010E945C30CA01B90161587F4F64
:101710008F4F9F4FF80173836283C482478580890E
:101720000E94590AD0929F0580919B05882321F041
:10173000F8018281858307C080919005882329F074
:10174000F80182818683C0929E05F8018385948585
:10175000092E000CAA0BBB0B478150856185728551
:10176000840F951FA61FB71F4091A4055091A50592
:101770006091A6057091A705481759076A077B076E
:1017800010F482818587D3940F5E1F4FF5E2DF123C
:101790009BCFC65BDF4F0FB6F894DEBF0FBECDBF49
:1017A000DF91CF911F910F91FF90EF90DF90CF903D
:1017B000BF90AF909F908F900895CF93DF93CDB758
:1017C000DEB768970FB6F894DEBF0FBECDBF0E949C
:1017D0000221609328087093290880932A08909327
:1017E0002B0882ED99E00E946621809126088111E4
:1017F000E3C06091240870E06F5F7F4FCE010796D1
:101800000E94AF1E62E774E0CE0101960E94201292
:10181000BE01695F7F4FCE0101960E949C1EBC01F4
:10182000CE010D960E94061220E040E060E0CE015D
:101830000D960E947F21CE010D960E94BC21CE0103
:1018400001960E94BC21CE0107960E94BC2167E848
:1018500074E0CE0101960E94201220E043E060E097
:10186000CE0101960E947F21CE0101960E94BC21EB
:101870006AE874E0CE0101960E94201220E043E065
:101880006CE3CE0101960E947F21CE0101960E9459
:10189000BC216DE874E0CE0101960E94201220E088
:1018A00043E069E6CE0101960E947F21CE010196B8
:1018B0000E94BC2180912408823009F449C0D8F4E8
:1018C000882319F1813009F044C160912C08CE01C0
:1018D00007960E94631E60E974E0CE0101960E94A3
:1018E0002012BE01695F7F4FCE0101960E949C1EAF
:1018F0006AEA74E045C0843009F45BC060F1853069
:1019000009F027C16AEC74E015C1E0912C0881E16F
:10191000E89FF0011124EE5FFE4F6089CE010D9625
:101920000E94631E60912C08CE0107960E94631EE0
:1019300060E974E0CE0101960E942012BE01695F49
:101940007F4FCE0101960E949C1E6BE974E0CEC0D1
:1019500060EA74E0EFC060912C08CE0107960E9407
:10196000631E65E974E0CE0101960E942012BE015B
:10197000695F7F4FCE0101960E949C1E63EB74E06D
:101980000E94CC11BC01CE010D960E94061221E0EE
:1019900041E060E0CE010D960E947F21CE010D96C0
:1019A0000E94BC21CE0101960E94BC21CE01079667
:1019B000CEC06EEB74E0BEC066ED74E0CE01019661
:1019C0000E94201220E040E060E0CE0101960E94DB
:1019D0007F21CE0101960E94BC216BEE74E0CE0106
:1019E00001960E94201220E043E060E0CE010196C3
:1019F0000E947F21CE0101960E94BC216DEE74E011
:101A0000CE0101960E94201220E043E06CE3CE015B
:101A100001960E947F21CE0101960E94BC2162EFB7
:101A200074E0CE0101960E94201220E043E069E6B6
:101A3000CE0101960E947F21CE0101960E94BC2119
:101A400080912408813069F148F0823009F470C037
:101A5000833009F07EC060E175E06CC0E0912C0835
:101A600081E1E89FF0011124EE5FFE4F6089CE0115
:101A70000D960E94631E60912C08CE0107960E946D
:101A8000631E65E974E0CE0101960E942012BE013A
:101A9000695F7F4FCE0101960E949C1E64EF74E047
:101AA00025C0E0912C0881E1E89FF0011124EE5F50
:101AB000FE4F678570E06F5F7F4FCE010D960E94ED
:101AC000AF1E60912C08CE0107960E94631E65E947
:101AD00074E0CE0101960E942012BE01695F7F4F23
:101AE000CE0101960E949C1E69EF74E00E94CC1109
:101AF000BE01635F7F4F0E949C1EBC01CE014396D6
:101B00000E94061221E041E060E0CE0143960E946F
:101B10007F21CE0143960E94BC21CE0101960E94F6
:101B2000BC21CE0107960E94BC21CE010D960FC0AC
:101B30006EEF74E0CE0101960E94201221E041E098
:101B400060E0CE0101960E947F21CE0101960E94A5
:101B5000BC2168960FB6F894DEBF0FBECDBFDF91F3
:101B6000CF9108951F93CF93DF93CDB7DEB76897DA
:101B70000FB6F894DEBF0FBECDBF82ED99E00E9494
:101B80006621E0919F0511E11E9FF0011124EE5F97
:101B9000FE4F6581CE0107960E94631E6EE175E0DF
:101BA000CE0101960E942012BE01695F7F4FCE01D7
:101BB00001960E949C1EBC01CE010D960E94061249
:101BC00020E043E060E0CE010D960E947F21CE012F
:101BD0000D960E94BC21CE0101960E94BC21CE012F
:101BE00007960E94BC21E0919F051E9FF0011124E1
:101BF000EE5FFE4F6681CE0107960E94631E64E28F
:101C000075E0CE0101960E942012BE01695F7F4FF0
:101C1000CE0101960E949C1EBC01CE010D960E9431
:101C2000061221E042E068E2CE010D960E947F217B
:101C3000CE010D960E94BC21CE0101960E94BC21CE
:101C4000CE0107960E94BC21E0919F051E9FF001E6
:101C50001124EE5FFE4F678570E06F5F7F4FCE010E
:101C60000D960E94AF1EE0919F051E9FF00111246A
:101C7000EE5FFE4F6089CE0107960E94631E6DE203
:101C800075E0CE0101960E942012BE01695F7F4F70
:101C9000CE0101960E949C1E62E375E00E94CC1169
:101CA000BE01635F7F4F0E949C1EBC01CE01439624
:101CB0000E94061220E040E060E0CE0143960E94C0
:101CC0007F21CE0143960E94BC21CE0101960E9445
:101CD000BC21CE0107960E94BC21CE010D960E9428
:101CE000BC2168960FB6F894DEBF0FBECDBFDF9162
:101CF000CF911F9108951F93CF93DF93CDB7DEB798
:101D000068970FB6F894DEBF0FBECDBF82ED99E0A5
:101D10000E946621E0919F0511E11E9FF0011124B0
:101D2000EE5FFE4F6581CE0107960E94631E6EE155
:101D300075E0CE0101960E942012BE01695F7F4FBF
:101D4000CE0101960E949C1EBC01CE010D960E9400
:101D5000061221E042E060E0CE010D960E947F2154
:101D6000CE010D960E94BC21CE0101960E94BC219D
:101D7000CE0107960E94BC21E0919F051E9FF001B5
:101D80001124EE5FFE4F6681CE0107960E94631E0E
:101D900066E275E0CE0101960E942012BE01695FE5
:101DA0007F4FCE0101960E949C1EBC01CE010D9674
:101DB0000E94061220E043E06BE4CE010D960E94E3
:101DC0007F21CE010D960E94BC21CE0101960E947A
:101DD000BC21CE0107960E94BC21E0919F051E9F69
:101DE000F0011124EE5FFE4F678570E06F5F7F4F5B
:101DF000CE010D960E94AF1EE0919F051E9FF0013F
:101E00001124EE5FFE4F6089CE0107960E94631E8B
:101E10006DE275E0CE0101960E942012BE01695F5D
:101E20007F4FCE0101960E949C1E62E375E00E94E6
:101E3000CC11BE01635F7F4F0E949C1EBC01CE018E
:101E400043960E94061220E040E060E0CE014396F7
:101E50000E947F21CE0143960E94BC21CE010196B3
:101E60000E94BC21CE0107960E94BC21CE010D9696
:101E70000E94BC2168960FB6F894DEBF0FBECDBF9E
:101E8000DF91CF911F9108951F93CF93DF93CDB72B
:101E9000DEB768970FB6F894DEBF0FBECDBF82EDF8
:101EA00099E00E946621E0919F0511E11E9FF001DB
:101EB0001124EE5FFE4F6581CE0107960E94631EDE
:101EC0006EE175E0CE0101960E942012BE01695FAD
:101ED0007F4FCE0101960E949C1EBC01CE010D9643
:101EE0000E94061220E043E060E0CE010D960E94C1
:101EF0007F21CE010D960E94BC21CE0101960E9449
:101F0000BC21CE0107960E94BC21E0919F051E9F37
:101F1000F0011124EE5FFE4F6681CE0107960E940C
:101F2000631E66E275E0CE0101960E942012BE019A
:101F3000695F7F4FCE0101960E949C1EBC01CE01BD
:101F40000D960E94061220E043E06BE4CE010D9650
:101F50000E947F21CE010D960E94BC21CE010196E8
:101F60000E94BC21CE0107960E94BC21E0919F05F2
:101F70001E9FF0011124EE5FFE4F678570E06F5FDA
:101F80007F4FCE010D960E94AF1EE0919F051E9FD0
:101F9000F0011124EE5FFE4F6089CE0107960E948A
:101FA000631E6DE275E0CE0101960E942012BE0113
:101FB000695F7F4FCE0101960E949C1E62E375E02F
:101FC0000E94CC11BE01635F7F4F0E949C1EBC012A
:101FD000CE0143960E94061220E040E060E0CE0170
:101FE00043960E947F21CE0143960E94BC21CE01E0
:101FF00001960E94BC21CE0107960E94BC21CE0111
:102000000D960E94BC2160919F05CE0101960E9411
:10201000631E23E042E067E3CE0101960E947F2128
:10202000CE0101960E94BC2168960FB6F894DEBFDF
:102030000FBECDBFDF91CF911F9108954091FF0654
:10204000509100072091FD063091FE06421753077C
:10205000B4F49091E8009570E1F39091E80092FD5E
:1020600019C08093F1008091FF06909100070196BE
:102070008F739927892B19F48EEF8093E800809154
:10208000FF06909100070196909300078093FF064A
:1020900081E0089580E00895615030F02091F100D2
:1020A000FC0120830196F8CF289884E680930207EC
:1020B0000895CF92DF92EF92FF920F931F93CF93E9
:1020C000DF936C017A018B01C0E0D0E0CE15DF0513
:1020D00081F0D8016D918D01D601ED91FC910190B7
:1020E000F081E02DC6010995892B11F02196EECFE4
:1020F0007E01C701DF91CF911F910F91FF90EF906B
:10210000DF90CF900895FC01538D448D252F30E052
:10211000842F90E0821B930B541710F0CF960895F4
:1021200001970895FC01918D828D981761F0828D41
:10213000DF01A80FB11D5D968C91928D9F5F9F73FB
:10214000928F90E008958FEF9FEF0895FC01918D9D
:10215000828D981731F0828DE80FF11D858D90E00A
:1021600008958FEF9FEF0895FC01918D228D892FA7
:1021700090E0805C9F4F821B91098F73992708958F
:102180008EEF98E00E94B41021E0892B09F420E042
:10219000822F0895FC01848DDF01A80FB11DA35A81
:1021A000BF4F2C91848D90E001968F739927848F77
:1021B000A689B7892C93A089B1898C9182748C935C
:1021C000938D848D981306C00288F389E02D808159
:1021D0008F7D80830895EF92FF920F931F93CF938B
:1021E000DF93EC0181E0888F9B8D8C8D981305C067
:1021F000E889F989808185FD26C0F62E0B8D10E0D7
:102200000F5F1F4F0F731127E02E8C8DE8120CC04B
:102210000FB607FCFACFE889F989808185FFF5CFF1
:10222000CE010E94CA10F1CF8B8DFE01E80FF11D87
:10223000E35AFF4FF0829FB7F8940B8FEA89FB892E
:102240008081806209C09FB7F894EE89FF8960831E
:10225000E889F9898081827480839FBF81E090E062
:10226000DF91CF911F910F91FF90EF900895CF9341
:10227000DF93EC01888D8823C9F0EA89FB8980818E
:1022800085FD05C0A889B9898C9186FD0FC00FB660
:1022900007FCF5CF808185FFF2CFA889B9898C91A1
:1022A00085FFEDCFCE010E94CA10E7CFDF91CF911D
:1022B000089580E090E0892B29F00E94C0108111E0
:1022C0000C94000008950E941A330F931F93CF932C
:1022D000DF93EC0188819981009729F02A813B8165
:1022E0002617370788F48B016F5F7F4F0E945432A7
:1022F000009761F0998388831B830A832C813D8139
:10230000232B11F4FC01108281E001C080E0DF91F9
:10231000CF911F910F910895EF92FF920F931F930A
:10232000CF93DF936115710511F480E01CC0411556
:102330005105C1F07B01EC018C819D818A01080F60
:10234000191FB801CE010E946511882371F32881FD
:1023500039818C819D81B701820F931F0E942833A0
:102360001D830C8381E0DF91CF911F910F91FF902E
:10237000EF900895CF93DF93EC01888199810097C6
:1023800011F00E94CB31198218821D821C821B829F
:102390001A82DF91CF910895CF93DF93EC016115FD
:1023A000710561F0FB0101900020E9F73197AF0161
:1023B000461B570B0E948C11811103C0CE010E9455
:1023C000BA11CE01DF91CF910895EF92FF920F9352
:1023D0001F93CF93DF93EC017B018A01BA010E9426
:1023E0006511811104C0CE010E94BA1107C01D837E
:1023F0000C83B701888199810E942833CE01DF9137
:10240000CF911F910F91FF90EF900895FB01DC0198
:1024100011961C921E9213961C921E92129715965C
:102420001C921E9214978617970749F0608171815C
:102430006115710521F0448155810C94E5110895D1
:10244000FC0111821082138212821582148261159E
:10245000710551F0FB0101900020E9F73197AF01C0
:10246000461B570B0C94E51108958093E900809169
:10247000F200882319F08AE38093E80008951F9200
:102480000F920FB60F9211242F933F934F935F93A8
:102490006F937F938F939F93AF93BF93CF93EF935C
:1024A000FF93C091E1008091E100837F8093E10080
:1024B000C3FF0FC01092E90081E08093EB001092FF
:1024C000EC0082E38093ED001092480588E0809351
:1024D000F000C2FF19C083E00E943512809103070B
:1024E000882339F080910307815080930307882364
:1024F00089F180910207882339F080910207815089
:1025000080930207882341F1C4FF10C08091E2004C
:102510008E7E81608093E2008091E1008F7E8093C7
:10252000E100809146058E7E806111C0C0FF16C01B
:102530008091E2008E7E80618093E2008091E100D4
:102540008E7E8093E100809146058E7E816080932F
:10255000460504C05D9ACDCF289AD6CFFF91EF9162
:10256000CF91BF91AF919F918F917F916F915F912B
:102570004F913F912F910F900FBE0F901F90189584
:10258000DF92EF92FF920F931F93CF93DF93D82E9A
:102590008A017B01E40EF51EEB01CE15DF0571F01B
:1025A000D7FE03C0FE01849101C088810E941E10E5
:1025B00021968111F2CF8FEF9FEF01C0C801DF910B
:1025C000CF911F910F91FF90EF90DF9008952FB75B
:1025D000F89487708093E9009091E800892F8072C9
:1025E00095FF04C09091F20080E4891B2FBF0895ED
:1025F0007F928F929F92AF92BF92CF92DF92EF9293
:10260000FF920F931F93CF93DF93C82E8B017A0114
:1026100080914805811103C08FEF9FEF74C08091B6
:10262000460580FF05C08091E00082608093E00055
:10263000CE2DDF2DD12C8AEFB82E8C2D8770982EC1
:102640008C2D8072882E8C2D8074782E9AE3A92E82
:10265000209719F4DD2009F451C08C2D0E94E71257
:1026600081110AC0BA94BB20B9F261E070E080E049
:1026700090E00E94C820ECCF282F30E0C217D3078B
:102680000CF48C2F9FB7F8949092E9002091E80009
:1026900025FF32C0282F30E0C21BD30B882029F041
:1026A0008150A0F01092F100FBCFF801C7FE0AC0E4
:1026B000815050F044914093F1003196F9CF41910F
:1026C0004093F1008150D8F7020F131FDD2019F05D
:1026D000A092E8000AC08091E80085FD08C0A092A1
:1026E000E800DD24D394209739F0D12C05C0209741
:1026F00019F47110A092E8009FBFAACF5D9884E6FC
:1027000080930307C701DF91CF911F910F91FF9035
:10271000EF90DF90CF90BF90AF909F908F907F9081
:102720000895CF93DF93EC0180918203882331F0E9
:1027300083E00E94F8121816190634F081E090E048
:102740009B838A8380E090E0DF91CF910895909100
:102750004805992311F057FF03C08FEF9FEF0895AD
:102760009FB7F89487708093E9002091F20030E0E1
:10277000421753070CF49A01822FFB0144E6815063
:1027800038F02898409302075091F1005193F7CF09
:102790002115310521F08091F200882319F09FBFA7
:1027A000C90108958BE68093E800F9CF9FB7F894AC
:1027B00087708093E9008091F2009FBF0895809117
:1027C000F50681110DC082E08093F10684E08093CC
:1027D000F2061092F4061092F30681E08093F5065B
:1027E00081EF96E008950F931F93CF93DF931F928D
:1027F000CDB7DEB782E0898342E450E067EF70E056
:1028000080E80E94C0120E94DF13DC0112960D9135
:102810001C9113970115110589F0D801ED91FC91D8
:102820000280F381E02DBE016F5F7F4FC8010995E3
:1028300097FD04C0F80100851185ECCF89810F90C8
:10284000DF91CF911F910F9108951F920F920FB6B4
:102850000F921124CF92DF92EF92FF920F931F936A
:102860002F933F934F935F936F937F938F939F9398
:10287000AF93BF93EF93FF93CF93DF93CDB7DEB7C3
:102880006C97DEBFCDBF1092E9008091E80083FF16
:10289000FBC168E0CE0145960E944C1082EF809308
:1028A000E8008D8987FF05C09091E80090FFFCCF7C
:1028B00003C09EEF9093E800982F907609F0C6C071
:1028C0009E894F89588D2F89F88C91110CC08038C2
:1028D00029F4809147058093F10002C01092F10025
:1028E0001092F10045C1913051F4811141C1413044
:1028F000510509F03DC1809147058D7F0BC0933094
:1029000061F4811135C14130510509F031C1809127
:1029100047058260809347052BC1953049F480912B
:10292000E80080FFFCCF822F80688093E30020C105
:10293000963009F05EC00B8D1C8D22E01092E900EC
:10294000109200071092FF06F21232C01092FE069B
:102950001092FD060E94F31399E0BE016F5F7F4F56
:10296000DB01E92F1D92EA95E9F79983FA8291E05C
:102970009E8390EA98879AEF99872091FF0630917D
:102980000007275F3F4F3C832B838D831092E90024
:10299000109200071092FF061093FE060093FD06AA
:1029A00049E050E080E00E94C0120E94F313E0C0B2
:1029B0001093FE060093FD060E94DF13DC011296C1
:1029C0000D911C9113970115110509F4BBC0D80195
:1029D000ED91FC910480F581E02DBE016B5E7F4F8F
:1029E000C8010995009709F0C7C0F8010085118555
:1029F000EACF973009F445C1983021F481E0809303
:102A0000F100B6C0993009F0B3C0837009F039C144
:102A1000E4E8F3E081E031E096E32081211109C090
:102A20008EE78093EA001092EA008F898093480530
:102A30009FC08093E9003093EB0021912093EC003C
:102A40009093ED008F5F873041F7EACF8B8D9C8D9F
:102A50001092E900109200071092FF069093FE0674
:102A60008093FD06898D811153C08E899D89913A8D
:102A700049F4813209F005C147E050E06BE773E0AB
:102A800080E0BBC0913209F0FCC0833269F48F89C9
:102A9000988DA0E0B0E08093770390937803A093A3
:102AA0007903B0937A0364C0803269F48091E800BE
:102AB00082FFFCCF67E08BE793E00E944C108BEF26
:102AC0008093E80055C0823209F052C08F8980930C
:102AD0008203EEEFFFE7859194918B3F9C4D19F0B7
:102AE000E0E0F8E002C0EEEFFAE080917B03909125
:102AF0007C03A0917D03B0917E03803B9440A105AF
:102B0000B10509F09EC08091820380FF79C099C011
:102B10000E94DF13FC01028113810115110509F4E4
:102B2000B0C0D801ED91FC910190F081E02DBE0183
:102B30006B5E7F4FC801099581111AC0F8010085AD
:102B40001185EBCFF1E0FF1609F44EC0F3E0FF1260
:102B500098C08F89882309F44AC0823089F440E8FC
:102B600060E18BE591E00E94C22D882309F489C0C1
:102B70008EEF8093E80088C018161906CCF381C048
:102B8000813029F440E86BE08FE491E0ECCF8330B2
:102B900009F077C00E94DF13DC011296ED90FC90E3
:102BA00013978E010F5F1F4F6801E114F10479F054
:102BB000D701ED91FC910680F781E02DB801C701A6
:102BC0000995080F111DF701E084F184EECFD801BB
:102BD0001C92F60101900020E9F73197BF016C19B2
:102BE0007D0940E0C601BFCF6DE371E002C069E33B
:102BF00071E0FB01449150E080E80E94C012B8CF20
:102C0000EE3F2AE0F20751F0808191818737A7E7F4
:102C10009A0721F09093FF0A8093FE0A87E797E7CF
:102C20009183808380916000809301079BE088E11D
:102C30000FB6F894A895809360000FBE9093600043
:102C400097CF808191818737974709F091CFA895D9
:102C5000809160008861809360008091010780937B
:102C60006000EE3FBAE0FB0739F08091FE0A9091D8
:102C7000FF0A918380837CCF1092FF0A1092FE0A94
:102C800077CF81E28093EB006C960FB6F894DEBFAD
:102C90000FBECDBFDF91CF91FF91EF91BF91AF916B
:102CA0009F918F917F916F915F914F913F912F9164
:102CB0001F910F91FF90EF90DF90CF900F900FBE7C
:102CC0000F901F9018951F920F920FB60F9211241C
:102CD0002F933F934F935F936F937F938F939F9324
:102CE000AF93BF93EF93FF938EEF98E00E94CA10CB
:102CF000FF91EF91BF91AF919F918F917F916F91D4
:102D00005F914F913F912F910F900FBE0F901F90A9
:102D100018951F920F920FB60F9211242F938F9335
:102D20009F93EF93FF93E0910E09F0910F0980813B
:102D3000E0911409F091150982FD12C090818091F3
:102D400017098F5F8F7320911809821751F0E09156
:102D50001709F0E0E250F74F958F8093170901C0F3
:102D60008081FF91EF919F918F912F910F900FBED6
:102D70000F901F901895CF93DF931F92CDB7DEB7BA
:102D80006983DC01ED91FC910280F381E02D41E04B
:102D900050E0BE016F5F7F4F09950F90DF91CF919B
:102DA0000895CF93DF93EC018D85882319F081502E
:102DB0008D8711C09C818E81981768F48889682757
:102DC000E881F9810084F185E02D42E0CE0109958A
:102DD0008C818F5F8C83DF91CF91089585ED8093F7
:102DE000BC008091BC0084FDFCCF10929707089531
:102DF00040912407262F30E0240F311D2132310568
:102E0000DCF4209197072430C9F4FC0180E090E0C5
:102E1000861758F4309124072191DC01AC5FB84F3C
:102E2000A30FB11D2C930196F3CF80912407680F57
:102E30006093240780E0089581E0089582E008957A
:102E4000089508950895E091500780914F07E8177D
:102E500030F4F0E0EF5AF84F808190E008958FEF62
:102E60009FEF08959091500780914F07981750F465
:102E7000E92FF0E0EF5AF84F208130E09F5F909308
:102E8000500702C02FEF3FEFC901089580914F070F
:102E900090E020915007821B91090895CF92DF9214
:102EA000EF92FF920F931F93CF93DF937C01CB019F
:102EB0008A0120919807222389F0EB016B01C40E4F
:102EC000D51ECC15DD0569F06991D701ED91FC9116
:102ED0000190F081E02DC7010995F3CF642F0E9486
:102EE000F816C801DF91CF911F910F91FF90EF90DD
:102EF000DF90CF900895CF93DF931F92CDB7DEB7C9
:102F00006983209198072223D1F02091BB072032BA
:102F100040F021E030E0FC013383228380E090E048
:102F200015C080919907E82FF0E0E656F84F998197
:102F300090838F5F809399078093BB0705C061E002
:102F4000CE0101960E94F81681E090E00F90DF918B
:102F5000CF91089580E090E0089580E00895FC010D
:102F600082818F5BFB01808381E0089583E00C9474
:102F7000351283E00E94E71290E008950F931F93AB
:102F8000CF93DF931F92CDB7DEB78C01FC01848510
:102F9000958597FF12C041E050E0BE016F5F7F4F03
:102FA00082E00E94A713019719F4898190E002C082
:102FB0008FEF9FEFF80195878487F80184859585C9
:102FC0000F90DF91CF911F910F910895CF93DF93D1
:102FD0001F92CDB7DEB7FC018485958597FD05C0AE
:102FE0002FEF3FEF358724870FC041E050E0BE014F
:102FF0006F5F7F4F82E00E94A713019719F48981C8
:1030000090E002C08FEF9FEF0F90DF91CF91089576
:10301000FC018485958597FD06C082E00E94D61349
:1030200090E00196089582E00E94D61390E0089502
:1030300084E0E1E4F5E0DB0101900D928A95E1F78F
:1030400084E00895CF92DF92EF92FF920F931F9347
:10305000CF93DF93CDB7DEB7C456D1090FB6F8943E
:10306000DEBF0FBECDBF6C01DB019C919E5F9C93C8
:10307000FE01319684E6DF011D928A95E9F788E02A
:1030800089838BE08A8322E02C8391E09D839E8359
:1030900039E0398774E07A879E879F873A8B44E2CC
:1030A0004B8B9C8B00E011E01E8B0D8B89E0E82E92
:1030B000F12CF88EEF8A998F3B8F7C8F2F8F98A3FE
:1030C00053E059A387E08CA34DA39EA318A70FA399
:1030D00001E410E01AA709A786E08BA74CA72DA74B
:1030E0009EA79FA789AB4AAB2BAB2CAB2DAB3FABBD
:1030F00048AF59AF9AAF5BAF9CAF2DAF9EAF219653
:103100003FAF219722964FAF229723965FAF239729
:1031100024962FAF249725967FAF259726969FAFAD
:10312000269727969FAF279728969FAF28972A968E
:103130003FAF2A9745E02B964FAF2B972D962FAF99
:103140002D9760E470E02F967FAF6EAF2F97639658
:103150004FAF639785E264968FAF649765969FAF94
:10316000659766969FAF669767969FAF67976896D5
:103170003FAF689769964FAF69976B962FAF6B9784
:103180006D967FAF6EAF6D97A1964FAFA197A29648
:103190008FAFA297A3969FAFA397A4969FAFA49734
:1031A000A5965FAFA597D60112969C9112979B8327
:1031B0009B879F5F9A8F9D8F13968C912C968FAFD4
:1031C0002C978F5F80686A968FAF6A9744E650E0CD
:1031D000BF0180E00E94C012CC59DF4F0FB6F894B7
:1031E000DEBF0FBECDBFDF91CF911F910F91FF903A
:1031F000EF90DF90CF900895DC01ED91FC91008479
:10320000F185E02D40E00994FC0187818695869543
:103210008695681740F465839385690F6770606BC6
:10322000CF010C94FC1808950F931F93CF93FC01CA
:1032300026816217A0F4C62F8C0164839085C90F84
:103240006C2F6F70CF010E94FC186C2F62956F700D
:103250006061C801CF911F910F910C94FC18CF9120
:103260001F910F910895CF92DF92EF92FF920F93EB
:103270001F93CF93DF93EC01F62EC42ED22E1D8622
:103280008F81869586958695081710F00FEF080FA9
:103290001D2D6F2DCE01011788F00E941419612F8A
:1032A000CE010E940419EF2CCE1430F06889CE01B3
:1032B0000E94D116E394F8CF1F5FEBCF0E94141940
:1032C0006D2DCE01DF91CF911F910F91FF90EF9067
:1032D000DF90CF900C9404192F923F924F925F92FF
:1032E0006F927F928F929F92AF92BF92CF92DF9216
:1032F000EF92FF920F931F93CF93DF93CDB7DEB77B
:103300002A970FB6F894DEBF0FBECDBFDC011E9624
:103310002D913C911F972115310509F463C19A87BE
:103320008987F9013296449031967491E72EF12CF9
:10333000B7E0EB0EF11C93E0F594E7949A95E1F772
:10334000EA823196A4913196E4916A1758F0462F9B
:1033500050E08E2F90E0FC01EA0FF11D4E175F0741
:103360000CF46AC06D3031F460E089859A850E9462
:1033700014193BC16A3009F035C160E089859A852E
:103380000E941419E985FA8501890E9DE02C11240B
:10339000278126952695269565816E0D8E2D821B9B
:1033A000860F9485992309F418C118160CF015C1DD
:1033B000A985BA851B969C911B97890F87701B96D0
:1033C0008C931B972E1915962C9315971E96ED919D
:1033D000FC911F97309769F03396E491F0E03796AF
:1033E00083E0F595E7958A95E1F70E9FE02D11248E
:1033F00001C0E0E00FEF020F0E0FE985FA8546816C
:1034000041506481CF010E943319A985BA851C9669
:103410008C911C97813009F0E8C01B966C911B972A
:10342000660F660F660F6F731A966C931A97606437
:10343000CD010E94FC18D9C0A9014A5F5F4F6A1BE9
:10344000A985BA851996FC9119975196EC91FE9F22
:10345000E02D1124E887F901A4913196249130E000
:103460003A2B2230310570F44E9CC0014F9C900DD8
:103470001124689F8001699F100D1124040F151FEE
:10348000312C22C0777021F028E0322E371A01C08B
:10349000312CFA0120E0A0E0B0E0261731F03491A1
:1034A000A30FB11D2F5F3196F8CFFA01E20FF11D86
:1034B0004490EA9E8001EB9E100DFA9E100D11249F
:1034C000080F191F040F151FA985BA851496BC9102
:1034D000BB83E985FA85F581FC83A985BA851D96AC
:1034E000BC91BD83E42DF0E0FF83EE83812C912C11
:1034F000C12CD12CC982FA81CF1608F06DC0212CC5
:1035000036019FEF691A790AA985BA8551968C917F
:103510005197281608F058C0ED811D96EC93F9815B
:10352000F11102C0222079F0A985BA851596BC90C8
:103530001597B3946B81CD010E9414196B2D898569
:103540009A850E940419A12CB12CA41410F0B12C5E
:103550002FC0F401EA0DFB1DE00FF11F5490332042
:1035600061F0E614F70449F4E52DF0E0032C02C005
:10357000F595E7950A94E2F75E2EE985FA8581894B
:10358000823069F4E52D2110E295EF70F0E0E45906
:10359000FE4F5490652D89859A850E94D116652D20
:1035A00089859A850E94D116FFEFAF1ABF0ACDCF49
:1035B0008885B81639F060E089859A850E94D11611
:1035C000B394F6CF2394A0CF9FEFC91AD90AAE8146
:1035D000BF818A0E9B1E8ECF6C8189859A850E9441
:1035E000041903C080E090E002C081E090E02A96D8
:1035F0000FB6F894DEBF0FBECDBFDF91CF911F9104
:103600000F91FF90EF90DF90CF90BF90AF909F9081
:103610008F907F906F905F904F903F902F90089584
:103620001F920F920FB60F9211242F933F934F9337
:103630005F936F937F938F939F93AF93BF93EF931A
:10364000FF938091B900887F803609F49CC068F5AB
:10365000883209F45BC090F4803109F454C038F426
:10366000882309F4F6C0883009F44DC0F6C08831CB
:1036700009F44CC0803209F45DC0EFC0803409F415
:1036800068C048F4803309F455C0883309F0E5C0B8
:1036900080939507D8C0803509F44FC0883509F468
:1036A0005DC0883409F0D9C0D6C0883909F4C7C0D4
:1036B000A8F4883709F467C038F4883609F463C081
:1036C000803709F460C0C9C0883809F4B8C08039AF
:1036D00009F45FC0803809F0C0C05BC0803B09F4CA
:1036E00086C038F4803A09F466C0883A09F47FC08D
:1036F000B4C0803C09F4A7C0883C09F4A4C0883B4E
:1037000009F48AC0AAC08091720710C090919407F2
:1037100080919307981770F5E091940781E08E0FE0
:1037200080939407F0E0ED58F84F80818093BB00C0
:1037300085EC86C0809395078EC0E091940781E068
:103740008E0F809394078091BB00F0E0ED58F84F06
:10375000808390919407809193076EC0E0919407C5
:1037600081E08E0F809394078091BB00F0E0ED58CC
:10377000F84F80838091960781116DC081E080931E
:10378000710784EA61C083E080939707109246072F
:10379000CFCF80914607803208F051C0E0914607B4
:1037A00081E08E0F809346078091BB00F0E0EA5DD8
:1037B000F84F8083BDCF85EC8093BC0010929707B3
:1037C00080914607803230F4E0914607F0E0EA5DF0
:1037D000F84F10826091460770E0E0914905F09142
:1037E0004A0586E297E009951092460736C084E0C4
:1037F000809397071092250710922407E0914B05BC
:10380000F0914C05099580912407811105C081E054
:103810008093240710920407E091250781E08E0F22
:1038200080932507F0E0EC5FF84F80818093BB0028
:103830009091250780912407981708F479CF85E89F
:103840008093BC000AC085EC8093BC00109297075F
:1038500004C0109295070E94EE16FF91EF91BF9160
:10386000AF919F918F917F916F915F914F913F9118
:103870002F910F900FBE0F901F901895DC018D9126
:103880009C91DC01ED91FC910190F081E02D099477
:10389000AF92BF92CF92DF92EF92FF921F93CF939E
:1038A000DF93182FE2E0F1E056E6C52E53E0D52E67
:1038B00020E030E066E0A62EB12CCFEFD0E0828190
:1038C0009381B5010E940A31CB01EE24EA94F12CD8
:1038D000BE010E940A31820F931FBE010E940A316D
:1038E0009C017196CE16DF0651F7C296B7010E9471
:1038F0000A31EC01212F4FEF682F80E00E948209EE
:10390000CE010A96B7010E940A31212F4FEF682F8E
:1039100083E00E948209CE014E96B7010E940A31CF
:10392000212F4FEF682F82E00E948209CE018896F6
:10393000B7010E940A31212F4FEF682F81E0DF91FC
:10394000CF911F91FF90EF90DF90CF90BF90AF90FD
:103950000C9482093FB7F89480914B0790914C07E3
:10396000A0914D07B0914E0726B5A89B05C02F3FEB
:1039700019F00196A11DB11D3FBFBA2FA92F982F95
:103980008827820F911DA11DB11DBC01CD0142E010
:10399000660F771F881F991F4A95D1F70895CF9317
:1039A000DF93CBE9D9E0998121E0209398079093A8
:1039B000BA07109299071092BB07682F8CE098E025
:1039C0000E947B1781E00E94C121888362E0898187
:1039D0000E943F228CE098E00E943217D82F80E0AE
:1039E000C82F8CE098E00E9432178C2B9D2BDF9122
:1039F000CF910895CF93DF93CBE9D9E0998121E06E
:103A0000209398079093BA07109299071092BB07DA
:103A1000682F8CE098E00E947B1781E00E94C12112
:103A2000888361E089810E943F228CE098E00E94B7
:103A30003217DF91CF9108950F931F93CF93DF93A8
:103A4000162F072FCBE9D9E0998121E02093980721
:103A50009093BA07109299071092BB07682F8CE0D9
:103A600098E00E947B17602F8CE098E00E947B1703
:103A7000612F8CE098E00E947B1781E00E94C121B9
:103A80008883DF91CF911F910F9108958F929F921C
:103A9000AF92BF92EF92FF920F931F93CF93DF935A
:103AA0007C01EB0180E50E94FA1C8F5F880F90E09B
:103AB0009983888386E40E94FA1C082F10E00F5F28
:103AC0001F4F1D830C83A881B0E020E03FE24AE352
:103AD00050E00E947B306C507E4F8F4F9F4F38EEEE
:103AE000832E33E0932EA12CB12CA50194010E94CA
:103AF000C530D8010E9486306C507E4F8F4F9F4F4B
:103B0000A50194010E94C5302A873B874C875D87B9
:103B100081E50E94CF1C8C01112702C0000F111FEC
:103B20009A95E2F70F5F1F4F1F830E83A881B0E0C5
:103B300020E03FE24AE350E00E947B306C507E4F31
:103B40008F4F9F4FA50194010E94C530D8010E945C
:103B50007B306C507E4F8F4F9F4FA50194010E9488
:103B6000C5302E873F87488B598B80E70E94FA1C0F
:103B70008F5F880F90E09B838A8381E70E94CF1C30
:103B80009C01992702C0880F991F3A95E2F7019688
:103B900099878887F7012381222331F02E813F8185
:103BA000821B930B99878887AA81B0E020E03FE2CF
:103BB0004AE350E00E947B306C507E4F8F4F9F4F06
:103BC00028EE822E23E0922EA12CB12CA501940187
:103BD0000E94C530A885B9850E947B306C507E4F0D
:103BE0008F4F9F4FA50194010E94C5302A8B3B8BBC
:103BF0004C8B5D8BDF91CF911F910F91FF90EF90D8
:103C0000BF90AF909F908F900895CF93DF93EC017A
:103C100081E00E94FA1C84FB992790F9988383FB2A
:103C2000992790F99A8382FB992790F9998386FBCB
:103C3000992790F99B83881F8827881F8C83DF91A1
:103C4000CF9108958F929F92AF92BF920F931F933F
:103C5000CF93DF93CDB7DEB7A1970FB6F894DEBF51
:103C60000FBECDBF19A2423008F44AE08E010F5DAD
:103C70001F4F842E912CA12CB12CA50194010E94E0
:103C8000C530E62FB901CA0101501109EA3014F418
:103C9000E05D01C0E95CD801EC93232B242B252B9C
:103CA00061F7C8010E945421A1960FB6F894DEBFB7
:103CB0000FBECDBFDF91CF911F910F91BF90AF90FD
:103CC0009F908F900895EF92FF920F931F93CF9341
:103CD000DF93CDB7DEB729970FB6F894DEBF0FBEDE
:103CE000CDBF8C01862FF8011182108213821282BF
:103CF000158214824AE09E012F5F3F4F7901B9017E
:103D000090E00E942A30F70101900020E9F73197F6
:103D1000AF014E195F09B701C8010E94E51129964C
:103D20000FB6F894DEBF0FBECDBFDF91CF911F91CC
:103D30000F91FF90EF900895CF93DF93EC01FB017B
:103D400044815581608171810E948C11811103C071
:103D5000CE010E94BA11CE01DF91CF910895EF926A
:103D6000FF920F931F93CF93DF93CDB7DEB7629788
:103D70000FB6F894DEBF0FBECDBF8C01CB01F801AA
:103D80001182108213821282158214824AE09E01EF
:103D90002F5F3F4F7901B9010E941F30F701019059
:103DA0000020E9F73197AF014E195F09B701C8014B
:103DB0000E94E51162960FB6F894DEBF0FBECDBF2C
:103DC000DF91CF911F910F91FF90EF9008951F9376
:103DD000CF93DF932150203118F587FF21C0D42FD6
:103DE000162FC82F622F682B809158089091590880
:103DF0000E943E1C612F6F7780915808909159085E
:103E00000E943E1CCF7EC03C59F06D2F6F77809191
:103E1000580890915908DF91CF911F910C943E1C46
:103E2000DF91CF911F910895CF92DF92EF92FF9291
:103E30000F931F93CF93DF93CDB7DEB729970FB6BC
:103E4000F894DEBF0FBECDBF8091C5099091C60921
:103E5000892B09F4BBC0C090CB09D090CC09E0906D
:103E6000CD09F090CE090E94AA1C6C157D058E0527
:103E70009F0550F40E94AA1C6093CB097093CC0953
:103E80008093CD099093CE090E94AA1C0091CB0982
:103E90001091CC092091CD093091CE09DC01CB01E4
:103EA000801B910BA20BB30B8C329140A105B10585
:103EB00090F2F8948091C0099091C1099A83898306
:103EC000E091C509F091C609DF01119680818987CB
:103ED0009091BC09E091CF09F091D0098091D1096E
:103EE000992309F42EC09081982B98879081809512
:103EF00089238F838F818C8388E08B8358856F81A2
:103F000049853B812C8189819A81508347FD252FEA
:103F10003A952083262F39F0441F00C000006083AB
:103F2000000000C0F2CF38E04D916083000001979F
:103F300061F7F093D009E093CF0949873B832C8345
:103F400038C09081982B98879081809589238F83A2
:103F50008F818E8388E08D8358856F8149853D816F
:103F60002E8189819A81508347FD252F00C000C092
:103F7000208300C000C000C000C000C060830000FB
:103F8000262F3A9541F0441F000000C000C000C039
:103F900000C000C0E8CF38E04D9100C0608300C091
:103FA000019709F7F093D009E093CF0949873D8342
:103FB0002E839A83898378940E94AA1C6093CB09EC
:103FC0007093CC098093CD099093CE0929960FB6B2
:103FD000F894DEBF0FBECDBFDF91CF911F910F913F
:103FE000FF90EF90DF90CF90089590E0FC01319723
:103FF000EF30F105B0F5EA5AFF4F0C941E31809175
:1040000080008F7703C0809180008F7D8093800037
:10401000089580918000877FF9CF84B58F7702C0A3
:1040200084B58F7D84BD0895809190008F7707C0FF
:10403000809190008F7D03C080919000877F809356
:10404000900008958091C0008F7703C08091C000D8
:104050008F7D8093C00008958091C200877F8093F8
:10406000C20008951F93CF93DF93282F30E0F9010A
:10407000EA56FE4F8491F901EB5EF14FD491F901BC
:10408000EE5BF14FC491CC23C1F0162F81110E9439
:10409000F51FEC2FF0E0EE0FFF1FEC5CF14FA59148
:1040A000B4919FB7F894111104C08C91D095D82386
:1040B00002C0EC91DE2BDC939FBFDF91CF911F916B
:1040C0000895CF93DF9390E0FC01EB5EF14F2491D4
:1040D000FC01EE5BF14F8491882361F190E0880F41
:1040E000991FFC01E857FE4FC591D491FC01EC5C8F
:1040F000F14FA591B491611109C09FB7F8948881DF
:10410000209582238883EC912E230BC0623061F4CA
:104110009FB7F8948881322F309583238883EC9160
:104120002E2B2C939FBF06C08FB7F894E8812E2BBF
:1041300028838FBFDF91CF910895823108F082519B
:10414000E82FF0E0E458FE4FE49180917B00E3FB20
:10415000222720F930E095E0220F331F9A95E1F7EE
:104160008F7D282B20937B00E770E064E0937C0038
:1041700080917A00806480937A0080917A0086FD35
:10418000FCCF809178002091790090E0922B0895E7
:104190008F929F92AF92BF92CF92DF92EF92FF9257
:1041A0006B017C010E94AA1C4B015C01C114D1046B
:1041B000E104F104F1F00E94AA1CDC01CB01881992
:1041C0009909AA09BB09883E9340A105B10570F37E
:1041D00021E0C21AD108E108F10888EE880E83E0D8
:1041E000981EA11CB11CC114D104E104F10419F7FB
:1041F000DDCFFF90EF90DF90CF90BF90AF909F907A
:104200008F9008952FB7F8946091470770914807F1
:104210008091490790914A072FBF0895682F6160E8
:1042200080E00E941D220E9402217093A1096093E8
:10423000A00983E10E94FA1C8770B9F480919D095E
:1042400090919E09892BA9F30E9402212091A00937
:104250003091A109621B730B80919D0990919E0979
:104260008617970730F780E0089561E08BE00E94A1
:104270001D2260E080E00E941D2281E0089590935D
:10428000E1098093E009009741F0FC012491319607
:10429000849190E0922B019721F081E08093DB09DB
:1042A00008951092DB090895009769F0FC010190D0
:1042B0000020E9F73197AF01481B590BBC018CEB8B
:1042C00097E00C94911380E090E008950F93CF93C2
:1042D000DF93EC011B861A8660E40E94FC180F81B4
:1042E00006950695069501504E81415020E060E00C
:1042F000CE010E943319DF91CF910F910895FF9263
:104300000F931F93CF93DF938C01F62ED42FC22FE0
:10431000213059F038F0223059F02330A9F485EBE0
:1043200091E00DC08FE29CE00AC089EE96E002C0E9
:104330008FE29CE00E943F21C093E30905C00E94E8
:104340003F2181E08093E3096F2D82ED99E00E9487
:1043500014196D2F82ED99E00E940419F80144812F
:1043600055816081718182ED99E0DF91CF911F913C
:104370000F91FF900C945910FC01808191810C9455
:10438000CB31282F3091BB07313208F04AC08091E1
:1043900097078111FCCF9091BA0742E040939707AD
:1043A000209396072FEF2093950710929407309350
:1043B0009307EAE9F7E0A3E7B7E020E0321721F03E
:1043C00041914D932F5FFACF10927207209172079F
:1043D000990F922B9093720790917107913061F42D
:1043E00010927107909172079093BB009091BC005E
:1043F00093FDF8CF95EC01C095EE9093BC009091A1
:1044000097079230E1F3909195079F3F79F0809163
:104410009507803241F080919507803331F084E038
:1044200005C081E003C082E001C083E010929907DB
:104430001092BB071092980708951F93CF93DF93B4
:10444000162FCBE9D9E0998121E02093980790932A
:10445000BA07109299071092BB07682F8CE098E07A
:104460000E947B17612F8CE098E00E947B1781E00F
:104470000E94C1218883DF91CF911F91089590916F
:1044800097079111FCCF613208F060E291E09093C0
:104490009707909396072FEF209395071092940714
:1044A000260F209393079093720790917207880FBD
:1044B000892B8093720780917107813061F410928B
:1044C0007107809172078093BB008091BC0083FDCF
:1044D000F8CF85EC01C085EE8093BC0080919707F2
:1044E0008130E1F380919407861710F4609194076E
:1044F000E3E7F7E0A1E5B7E080E0861721F09191CE
:104500009D938F5FFACF1092500780934F070895C5
:104510001F920F920FB60F9211242F933F938F93F8
:104520009F93AF93BF938091470790914807A091C5
:104530004907B0914A073091E90923E0230F2D374D
:1045400020F40196A11DB11D05C026E8230F029697
:10455000A11DB11D2093E909809347079093480757
:10456000A0934907B0934A0780914B0790914C075D
:10457000A0914D07B0914E070196A11DB11D8093EA
:104580004B0790934C07A0934D07B0934E07BF91F4
:10459000AF919F918F913F912F910F900FBE0F90F0
:1045A0001F901895CF93DF93CDB7DEB7A2970FB6C4
:1045B000F894DEBF0FBECDBF789484B5826084BD11
:1045C00084B5816084BD85B5826085BD85B5816017
:1045D00085BD80916E00816080936E001092810095
:1045E0008091810082608093810080918100816050
:1045F0008093810080918000816080938000809111
:1046000091008260809391008091910081608093FD
:104610009100809190008160809390008091C10012
:1046200084608093C1008091C10082608093C1004A
:104630008091C10081608093C1008091C30081603E
:104640008093C3008091C00082608093C0008091FD
:10465000C20081608093C20080917A008460809360
:104660007A0080917A00826080937A0080917A004B
:10467000816080937A0080917A00806880937A00CC
:104680001092480510924705109246058091D70078
:1046900081608093D70080EA8093D80089B58061DB
:1046A00089BD89B5826089BD09B400FEFDCF61E096
:1046B00070E080E090E00E94C8208091D8008F7C5C
:1046C00080618093D8008091E000807F8093E0003B
:1046D0008091E1008E7E8093E1008DE08093E20086
:1046E000559A209A80E090E00E945430182F81E083
:1046F00090E00E9454301093000180930101E091FA
:104700005808F09159080190F081E02DA089B189F5
:1047100082E08C93A485B5851C92A685B7858FE32E
:104720008C93108EA489B58986E08C93A289B38975
:104730008C9180618C93A289B3898C9188608C93D1
:10474000A289B3898C9180688C930288F389E02DCB
:1047500080818F7D808381E080935A0810925C086D
:1047600010925B0810926308109262081092610820
:10477000109260080FEF1FEF109365080093640814
:1047800010936708009366080E9402216093F00866
:104790007093F1088093F2089093F3081092ED085B
:1047A00010926A081092690810926B0810926C08B7
:1047B0001092EF081092EE08809168088170826074
:1047C0008160809368081093C9070093C80780919F
:1047D000C2099091C30997FD08C061E00E94612061
:1047E00060E08091C2090E94322081E08093BD097F
:1047F0006091C409653121F12091C5093091C60944
:10480000615031F070E08FEF94E10E94F63002C009
:1048100060E070E0F9014091C0095091C109CF01F9
:10482000821B930B8417950740F44081469FC0017B
:10483000479F900D11249193EECF85E18093C40999
:1048400010E020E040E060E0812F0E9482091F5FBD
:104850001430B9F70E94141F61E08CE00E946120BF
:1048600061E086E00E94612060E085E00E946120B6
:1048700060E086E00E94322061E08CE00E943220FD
:104880000E9404096093A0057093A1058093A2057E
:104890009093A30506E913E0F801F0800E5F1F4F27
:1048A00061E08F2D0E94612060E08F2D0E943220F8
:1048B000F3E00E391F0781F71092500710924F074F
:1048C000109299071092BB071092970781E080938E
:1048D00096071092710761E082E00E94322061E049
:1048E00083E00E9432208091B9008E7F8093B900CE
:1048F0008091B9008D7F8093B90088E48093B800DF
:1049000085E48093BC0080E297E190934C0580930E
:104910004B0581E297E190934A05809349051092F7
:10492000E6098CE38093E5091092B9008CE080934E
:10493000B8001092D6091092D709E3EEF0E0859105
:104940009491E82EE5EEF0E0F490E6EEF0E0E491EC
:10495000E093D809E7EEF0E0E491E093D909E8EEBE
:10496000F0E0E491E093DA098C01802F8E198F1525
:1049700048F4F801649182ED99E00E94FC180F5F01
:104980001F4FF3CF82ED99E00E94662184EF91E002
:1049900090939E0980939D0980EC0E94FA1C8E3EA4
:1049A000B1F082ED99E00E9466216EE074E0CE01E4
:1049B00001960E94201221E040E060E0CE010196C5
:1049C0000E947F21CE0101960E94BC2106C489E885
:1049D0000E94FA1C682F616089E80E941D2260E035
:1049E00088E80E941D2261E080E80E941D2261E0AB
:1049F0008FEF0E941D2260E080E00E941D2281E96D
:104A00000E94FA1C8093A20961E080E00E941D22AE
:104A100060E08FEF0E941D2260E080E80E941D226E
:104A200080E60E94FA1C682F626180E60E941D22C7
:104A300060E270E084E40E941C1D6FEF81E00E9440
:104A40001D2261E080E80E941D2261E08FEF0E943C
:104A50001D2260E080E00E941D2266E08FEF0E9430
:104A60001D2283E80E94FA1C682F646083E80E947C
:104A70001D2267E08FEF0E941D2261E081E80E9405
:104A80001D2261E080E80E941D226BE684E90E94FD
:104A90001D2260E083E80E941D220E940221709383
:104AA000A1096093A00983E80E94FA1C811116C035
:104AB00080919D0990919E09892BA9F30E94022162
:104AC0002091A0093091A109621B730B80919D096F
:104AD00090919E098617970730F763CF61E083E8CE
:104AE0000E941D2282E90E94FA1CD82EF82FFF771F
:104AF000EF2E60E081E80E941D2266E08FEF0E94A9
:104B00001D2283E80E94FA1C682F6B7F83E80E94B5
:104B10001D2261E08FEF0E941D2261E080E00E9473
:104B20001D2260E08FEF0E941D2260E080E80E945D
:104B30001D2280919C0991E0909398078093BA0779
:104B4000109299071092BB0760EB8CE098E00E94EE
:104B50007B1781E00E94C12180939B0966E08091D0
:104B60009C090E943F228E01095E1F4F580197E069
:104B7000F92EFA94FF2041F08CE098E00E94321761
:104B8000F50181935F01F5CF61E08FEF0E941D2257
:104B900060E08FE40E941D226CE28EE40E941D22E0
:104BA00060E08FEF0E941D2264EB86EB0E941D22C5
:104BB000D7FE02C06CE001C060E090E080E041E020
:104BC00050E0282F269526952695782F7770F801A6
:104BD000E20FF11D861710F0E9120AC09A0101C018
:104BE000220F7A95EAF7209530812323208309C08C
:104BF000208130E002C0359527957A95E2F720FDB7
:104C00009F5F8F5F8033E9F680919C0991E09093DC
:104C100098078093BA07109299071092BB0760EB30
:104C20008CE098E00E947B1787E0F82EFA94FF2032
:104C300041F0F80161918F018CE098E00E947B17B0
:104C4000F5CF81E00E94C12180939B0961E08FEF45
:104C50000E941D2260E080E00E941D2260E08FEF34
:104C60000E941D2260E089E00E941D2260E080E138
:104C70000E941D2260E081E10E941D2261E084E229
:104C80000E941D226FEF85E20E941D2260E085E7F1
:104C90000E941D2261E08FEF0E941D226CE28EE4D3
:104CA0000E941D2260E088E40E941D2260E280E3F1
:104CB0000E941D2260E08FEF0E941D2269E080E3C8
:104CC0000E941D2260E084E50E941D2264E081E3D1
:104CD0000E941D2263E082E30E941D2263E880E4BB
:104CE0000E941D2265E286E40E941D2260E080E6AB
:104CF0000E941D2260E087E20E941D2266E080E59E
:104D00000E941D2260E081E50E941D2266E982E585
:104D10000E941D2268E086E50E941D2260E387E56F
:104D20000E941D2260E081E60E941D2260E082E672
:104D30000E941D2260E084E60E941D2260E085E65C
:104D40000E941D2260EA86E60E941D2261E08FEF2C
:104D50000E941D2262E382E20E941D2264E187E438
:104D60000E941D226FEF89E40E941D2260E08AE408
:104D70000E941D2260E08FEF0E941D226AE08AE7F8
:104D80000E941D2260E08BE70E941D2261E288E7FD
:104D90000E941D2261E08FEF0E941D2264E383E2E6
:104DA0000E941D2260E082E40E941D226FEF84E4D5
:104DB0000E941D2266E285E40E941D2265E086E4D1
:104DC0000E941D2260E480E40E941D2266E08EE0C5
:104DD0000E941D226AE180E20E941D2260E483E4B9
:104DE0000E941D2260E08FEF0E941D2263E084E399
:104DF0000E941D2264E485E30E941D2261E08FEF82
:104E00000E941D2264E081E30E941D2269E08BE480
:104E10000E941D2265E08CE40E941D2264E08DE466
:104E20000E941D2260E08FEF0E941D2260E084E45A
:104E30000E941D2260E285E40E941D2268E087E452
:104E40000E941D2268E288E40E941D2260E087E63D
:104E50000E941D2264E080E70E941D2261E081E73C
:104E60000E941D226EEF82E70E941D2260E086E70D
:104E70000E941D2260E087E70E941D2261E08FEF03
:104E80000E941D2261E08DE00E941D2260E08FEFF4
:104E90000E941D2261E080E80E941D2268EF81E0EF
:104EA0000E941D2261E08FEF0E941D2261E08EE8CA
:104EB0000E941D2261E080E00E941D2260E08FEFD1
:104EC0000E941D2260E080E80E941D2264E08AE0CA
:104ED0000E941D2284E80E94FA1C682F6F7E84E8DD
:104EE0000E941D2261E08BE00E941D22CE014D96A2
:104EF0000E94051EBE016F5F7F4FCE014D960E943E
:104F0000461D8D8D882349F08B859C85AD85BE859A
:104F10008C57924FAF4FBF4F04C086E39BE0A0E099
:104F2000B0E02F8D222369F04B855C856D857E85F1
:104F30004E545D4F6F4F7F4F440F551F661F771FB5
:104F40000BC02E8D222361F04B855C856D857E859F
:104F50004C565D4F6F4F7F4F840F951FA61FB71F95
:104F600028A1222361F04F85588969897A894C5696
:104F70005D4F6F4F7F4F840F951FA61FB71F29A14D
:104F8000222361F04B895C896D897E894A5D5D4F82
:104F90006F4F7F4F840F951FA61FB71F8093A309E4
:104FA0009093A409A093A509B093A60968EE81E0A7
:104FB0000E941D22C090A309D090A409E090A509E9
:104FC000F090A609F0E2CF16FEE4DF06E104F1045A
:104FD00008F4C4C0CE014D960E94051EBE016F5F4D
:104FE0007F4FCE014D960E94461D8D8D882349F03E
:104FF0008B859C85AD85BE858C57924FAF4FBF4F3B
:1050000004C086E39BE0A0E0B0E02F8D222369F08E
:105010004B855C856D857E854E545D4F6F4F7F4F10
:10502000440F551F661F771F0BC02E8D222361F082
:105030004B855C856D857E854C565D4F6F4F7F4FF0
:10504000840F951FA61FB71F18A1112361F04F856C
:10505000588969897A894C565D4F6F4F7F4F840F0D
:10506000951FA61FB71F29A1222309F477C02C0181
:105070003D0126E2420E22E0521E611C711CC41446
:10508000D504E604F70408F469C0AB81B0E020E081
:105090003FE24AE350E00E947B304B015C01E4EFC9
:1050A0008E0EE1E09E1EA11CB11CA70196012419E1
:1050B000350946095709A8EEB3E00E947B302B0161
:1050C0003C01C501B40120ED37E040E050E00E9412
:1050D000C530420E531E641E751EC501B40128EE74
:1050E00033E040E050E00E94C530C301B2010E94AD
:1050F000C530112331F08F819885280F391F411D4C
:10510000511D2115310541055105D9F089019A013B
:10511000015011092109310960E070E0D901C8018D
:105120008827892B8A2B8B2B39F036952795179555
:1051300007956F5F7F4FF2CF762F6627602B712B1D
:1051400002C060E070E081E70E941C1DC092A309CC
:10515000D092A409E092A509F092A60961E081E04D
:105160000E941D2280E40E940E21882309F419CC9C
:1051700062E081E00E941D2280E00E940E218823CF
:1051800009F40FCC68EE81E00E941D2261E080E806
:105190000E941D2261E08FEF0E941D2260E080E0EE
:1051A0000E941D226091A20981E90E941D2261E0F6
:1051B00080E00E941D2260E08FEF0E941D2260E0CF
:1051C00080E80E941D2262E080E00E941D229091F2
:1051D0000001E2E0F1E080E001C0FFCF9787808B23
:1051E0008F5F71968532D1F760E274E0CE0101964F
:1051F0000E94201223E041E06AE0CE0101960E9465
:105200007F21CE0101960E94BC2164EF71E080E015
:1052100090E00E94C8206FE274E0CE0101960E94E7
:10522000201220E043E060E0CE0101960E947F2141
:10523000CE0101960E94BC2168EC70E080E090E015
:105240000E94C8206BE374E0CE0101960E942012F8
:1052500020E043E064E6CE0101960E947F21CE016A
:1052600001960E94BC211CE00E9420080E94BB0AFB
:105270001150D1F7812F0E94481C0E94141F62E038
:1052800070E080E090E00E94C8201F5F1F3F91F710
:1052900068EE73E080E090E00E94C82080911B08D7
:1052A0008F5F0E94351282ED99E00E94662151E1E4
:1052B000F52E69E0E62E7FE7472E512C612C712CEC
:1052C0000E9402214B015C016093A4057093A50527
:1052D0008093A6059093A7050E9420080E940409C8
:1052E0006093A0057093A1058093A2059093A305F8
:1052F000C501B4010E946A080E9402217093A109AD
:105300006093A00983E10E94FA1C8770E1F4809108
:105310009D0990919E09892BA9F30E940221209159
:10532000A0093091A109621B730B80919D09909196
:105330009E098617970730F781E080939F09CC2458
:10534000CA94DC2C09C08EE10E94CF1C8C0161E064
:105350008BE00E941D226801860106541109083E57
:10536000F3E01F0784F50115110569F160914D0502
:1053700070914E0580914F059091500528E030E0E6
:1053800040E050E00E945C30A7E0B0E00E947B303B
:1053900017FF02C0095F1F4F43E0159507954A9517
:1053A000E1F7012E000C220B330BDC01CB01800F47
:1053B000911FA21FB31F80934D0590934E05A0939C
:1053C0004F05B093500580919F0910929F09882343
:1053D000B9F060E474E0CE0101960E94201221E051
:1053E00040E060E0CE0101960E947F21CE0101964F
:1053F0000E94BC2164EF71E080E090E00E94C82030
:105400000E94BB0A8091250881110FC08091570529
:10541000882309F458C181E08093250880919F0575
:1054200080932C080E94DD0B4EC1809126088111CB
:1054300031C080918E05882391F0809124088F5F80
:105440008093240890E02091270830E02150310912
:105450008217930714F0109224080E94DD0B8091AC
:105460009905882371F08091240881508093240845
:105470008F3F29F4809127088150809324080E944F
:10548000DD0B80915705882309F401C181E08093E9
:105490002608FBC080912408813009F451C0B0F087
:1054A000843009F0ECC064E574E0CE0101960E94FE
:1054B000201221E041E060E0CE0101960E947F21B0
:1054C000CE0101960E94BC2114E68EC08091990500
:1054D0008823D1F020912C0830E0F29EF001F39E59
:1054E000F00D1124EE5FFE4F8089882311F081506A
:1054F00001C08FE7F29EF001F39EF00D1124EE5FE4
:10550000FE4F808B0E94DD0B80918E05882309F46D
:10551000B6C020912C0830E0F29EF001F39EF00D11
:105520001124EE5FFE4F80898F5F87FD80E0F29E41
:10553000F001F39EF00D1124EE5FFE4F808B3AC018
:10554000809199058823D1F020912C0830E0F29EBB
:10555000F001F39EF00D1124EE5FFE4F8785882346
:1055600011F0815001C08FE0F29EF001F39EF00D2A
:105570001124EE5FFE4F87870E94DD0B80918E0520
:10558000882309F47CC020912C0830E0F29EF001C1
:10559000F39EF00D1124EE5FFE4F87858F5F8F30F5
:1055A00008F080E0F29EF001F39EF00D1124EE5F12
:1055B000FE4F87870E94DD0B62C080916D058823B6
:1055C00031F1ECE5F5E080E096819111182F8F5FC5
:1055D0003B968430C9F701E062E370E080E090E040
:1055E0000E94C820011119C00E9404096093A005FF
:1055F0007093A1058093A2059093A3050E940221B8
:105600000E946A08809162058111DBCFD6CF80911C
:1056100078058111D6CF00E0DFCF143681F1612FFC
:10562000CE0147960E94631E65E674E0CE010196A6
:105630000E942012BE01695E7F4FCE0101960E943A
:105640009C1EBC01CE014D960E94061221E040E056
:1056500060E0CE014D960E947F21CE014D960E94C2
:10566000BC21CE0101960E94BC21CE0147960E942A
:10567000BC2168EE73E080E090E00E94C820809139
:105680005705882321F0109226080E94DD0B0E9406
:105690000221009128081091290820912A083091B0
:1056A0002B08DC01CB01801B910BA20BB30B8938BB
:1056B0009341A105B10538F01092250810922608F3
:1056C00081E080939E050CE515E0D12C33243394C2
:1056D000F8018681882309F445C08091250881114D
:1056E0003BC020900101C0900001C3942C2D422D9D
:1056F0006D2D80E90E94E71EE9828C2D80698A83E6
:10570000DB822C8280911B0844E050E0BE016F5F79
:105710007F4F8F5F0E94F81261E070E080E090E0C0
:105720000E94C820C0900001C3942C2D40E06D2D34
:1057300080E90E94E71EE9828C2D80698A83DB82E2
:105740001C8280911B0844E050E0BE016F5F7F4FD8
:105750008F5F0E94F81206C010922508109226084A
:1057600030929E05D394055F1F4FF4E0DF12B0CF57
:1057700002E011E0F8018481882319F16581862E09
:10578000912CA12CB12C2681822F90E0A0E0B0E0DA
:105790009C01AD01281939094A095B09A281B3812D
:1057A0000E948630A30192010E945C30CA01B901B7
:1057B000680D791D8A1D9B1DF801478580890E940F
:1057C000590A0F5E1F4FF3E007371F0799F68EEF58
:1057D00098E00E94B410892BC1F08EEF98E00E94EF
:1057E000B410892B51F08EEF98E00E949210682F30
:1057F0008EEF98E00E94EB10F0CF2FEF40E060E0DA
:1058000080E00E9482090E94141F8091A806909156
:10581000A906A091AA06B091AB064091AC065091A2
:10582000AD066091AE067091AF06841B950BA60B7A
:10583000B70B8F739927AA27BB27892B8A2B8B2B12
:1058400009F061C080911B080E94D613882309F4D7
:105850006EC08091A8069091A906A091AA06B09169
:10586000AB060196A11DB11D4C015D012FE3822203
:105870009924AA24BB248091AC069091AD06A091F6
:10588000AE06B091AF0688159905AA05BB05D9F1FA
:1058900080911B080E94D61344E050E0BE016F5F68
:1058A0007F4F80911B080E94A713049764F1809199
:1058B000A8069091A906A091AA06B091AB06880F00
:1058C000991F880F991FFC01E855FA4F49815A81A9
:1058D0006B817C8140835183628373838092A806AD
:1058E0009092A906A092AA06B092AB06D501C40177
:1058F0000196A11DB11D4C015D01EFE38E2299249B
:10590000AA24BB24B8CF8091AC069091AD06A0919B
:10591000AE06B091AF06880F991F880F991FFC0142
:10592000E855FA4F608101811281D38004C0D12CE7
:1059300010E000E060E02091A8063091A9064091B7
:10594000AA065091AB068091AC069091AD06A0914D
:10595000AE06B091AF06281739074A075B07B9F0C2
:105960008091AC069091AD06A091AE06B091AF06C5
:105970000196A11DB11D8F739927AA27BB2780937C
:10598000AC069093AD06A093AE06B093AF06662327
:1059900081F170E080E090E04AE00E94221E80E306
:1059A00095E00E945421602F70E080E090E04AE092
:1059B0000E94221E80E395E00E945421612F70E036
:1059C00080E090E04AE00E94221E80E395E00E9481
:1059D00054216D2D70E080E090E04AE00E94221E8C
:1059E00080E395E00E9454218FE694E00E945421C8
:1059F0000CCF8FEF0E94481C8091BB09882329F1AE
:105A00000E9402210091B5091091B6092091B709B1
:105A10003091B809AB01BC01401B510B620B730BF9
:105A20008091B9099091BA09092E000CAA0BBB0B01
:105A300084179507A607B70710F41092BB092FEF3C
:105A400040E060E080E00E9482098091AD098823F7
:105A500029F10E9402210091A7091091A809209123
:105A6000A9093091AA09AB01BC01401B510B620B83
:105A7000730B8091AB099091AC09092E000CAA0B15
:105A8000BB0B84179507A607B70710F41092AD0952
:105A90002FEF40E060E081E00E9482098091B4092C
:105AA000882329F10E9402210091AE091091AF09CB
:105AB0002091B0093091B109AB01BC01401B510BE1
:105AC000620B730B8091B2099091B309092E000CFF
:105AD000AA0BBB0B84179507A607B70710F4109203
