:100000000C944F070C9477070C9477070C947707A0
:100010000C9477070C9477070C9477070C94770768
:100020000C9477070C9477070C94CA140C949116CF
:100030000C9477070C9477070C9477070C94770748
:100040000C9477070C9477070C9477070C94770738
:100050000C9477070C9477070C9477070C9437254A
:100060000C9477070C94F5180C94CF180C94770720
:100070000C9477070C9477070C9477070C94770708
:100080000C9477070C9477070C9477070C947707F8
:100090000C946C1D0C9477070C9477070C947707DD
:1000A0000C9477070C9477070C947707732DDA2D4F
:1000B000482E952EBF2ECC2E482FA00EE40EFC0EFF
:1000C000FF0E090F0C0F0F0FDC1EE11EE11ED81EE4
:1000D000DC1EE11EE11EE11EE11EE11EDC1EDC1E37
:1000E000E11ED81EB61FB91FA81FAC1FB21FDA1F12
:1000F000DA1FDA1FBD1FC11FC51FCB1FCF1FDA1F9D
:10010000D51FAED580A81FD300408D142002A1C8F2
:10011000DA02817FD9F1DB40A4A6AF020119802069
:1001200000080B00020202010009040000010202A3
:100130000000052400100105240101010424020629
:100140000524060001070581031000400904010091
:10015000020A0000000705020240000007058302B2
:100160004000000403090412010002EF02014041B3
:1001700023368000010102030141726475696E6FCC
:10018000204C4C430041726475696E6F204C656F62
:100190006E6172646F0000030C0F30333C3FC0C3CC
:1001A000CCCFF0F3FCFF070605040100080A0B0C96
:1001B0000D0900000000240027002A002D00300057
:1001C000000000002300260029002C002F00000062
:1001D000000200090F0000030401000C00000000F1
:1001E0000000000000000000000000000022080DD8
:1001F0000E20600402050607080902030305080231
:100200000402040704070707070707070702020796
:100210000707080E09080808070709080207080762
:100220000B0809070909070808090D07080804044D
:100230000406080307070607070507070203060267
:100240000A0707070705060507070B060705050147
:100250000507080000000000000000FEFE18181E40
:100260001E001E1E000000000090F89E90F89E1CCC
:1002700000001C0000183C26FF66CC88040C183CCB
:10028000180C041C221CC0308E4080000018040092
:100290000C100C80CC7E72F2DE0C80000C1C101056
:1002A000101C0C1C101E1E0000F0FC061C7CC0065E
:1002B000FCF0C07C1C14140E14140000000000603C
:1002C0006060FCFC6060600000000C0C000000003E
:1002D000005838C0C0C0C00000000000001818005E
:1002E000C0380618040000F8FC0E060EFCF8040CDA
:1002F0001C181C0C04180CFEFE00001C1C181C868C
:10030000C6663E1C181C1C18181818888C06262651
:10031000FEDC040C1C18180C04C0E0B88CFEFE8037
:10032000040404041C1C04707E3E3636F6C60C1C05
:100330001818180C04F8FC6E6666EECC040C18183D
:10034000181C0C060606E6761E0600001C1C0000A3
:10035000009CFE666666FE9C0C1C1818181C0C3C63
:100360007E666666FCF80C1C18181C0C041818181D
:1003700018181858386060F0F098980C00000000C9
:1003800004040CD8D8D8D8D8D8D800000000000071
:10039000000C9898F0F060600C0404000000000865
:1003A0000C06C6E6763C180000001818000000E0B5
:1003B0003008C4F63A1A1AF2FA7E0408F00C3060DB
:1003C0004C9C98988C9C9C90484C2000C0F8BE8611
:1003D000BEF8C000181C04040404041C18FEFE66C9
:1003E000666666FEDC1C1C181818181C0CF8FC0E3F
:1003F00006060E9C08040C1C18181C0C04FEFE06B5
:1004000006060EFCF81C1C1818181C0C04FEFE66D0
:10041000666666661C1C1818181818FEFE66666666
:1004200066061C1C0000000000F8FC0E0606C6CE86
:10043000DCC8040C1C181818180C04FEFE60606060
:1004400060FEFE1C1C000000001C1CFEFE1C1C802C
:1004500080000000FEFE0C1C1818181C0CFEFE602C
:100460003078EC86021C1C000000041C18FEFE0004
:10047000000000001C1C1818181818FEFE0E7CE066
:1004800000E07C0EFEFE1C1C00000C1C0C00001C7E
:100490001CFEFE1C78E080FEFE1C1C0000040C1CF0
:1004A0001CF8FC0E0606060EFCF8040C1C181818A6
:1004B0001C0C04FEFE6666667E3C1C1C00000000F0
:1004C00000F8FC0E0686060EFCF8040C1C18181C1E
:1004D0000C1C24FEFE6666E6E6BE1C001C1C00002A
:1004E000000C1C18103C7E666666EECC0C1C1818BE
:1004F000181C0C060606FEFE0606060000001C1C64
:10050000000000FEFE00000000FEFE040C1C181897
:100510001C0C04021EFCE000E0FC1E020000001C9B
:100520001C1C00000006FEF800F0FE0EFEF000F8B5
:10053000FE0600001C1C1C0000001C1C1C00000609
:100540000EF8F0F80E06181C0400041C18060E38ED
:10055000F0F0380E060000001C1C000000060686A5
:10056000E6761E0E06181C1C1818181818FEFE0633
:1005700006FCFCC0C00638C000000004180606FED9
:10058000FEC0C0FCFC20380E0E3820000000000029
:1005900000000000000000000080808080808080DB
:1005A000800206040000001098D858F8F0000C1CD7
:1005B00018180C1C10FEFE301838F0E01C1C0C182B
:1005C0001C0C04E0F018183830040C18181C0CE04F
:1005D000F0381830FEFE040C1C180C1C1CE0F0D87F
:1005E000D8D8F0E0040C181818180818FCFE1A1ACD
:1005F000001C1C0000E0F0381830F8F864ECDCD87F
:10060000CCFC7CFEFE301818F8F01C1C0000001C0E
:100610001CFAFA1C1C00FAFAC0FC7CFEFEE0F09802
:10062000081C1C00041C18FEFE1C1CF8F81018F80E
:10063000F01818F8F01C1C00001C1C00001C1CF812
:10064000F8301818F8F01C1C0000001C1CE0F038F2
:100650001838F0E0040C1C181C0C04F8F83018389A
:10066000F0E0FCFC0C181C0C04E0F0381830F8F832
:10067000040C1C180CFCFCF8F83018181C1C0000AA
:100680000070F8D8D8D890081818181C0C18FCFE60
:100690001818000C1C1818F8F8000000F8F80C1CCA
:1006A00018180C1C1C38F8C000C0F83800001C1CBE
:1006B0001C000018F8E000F038F000E0F818000026
:1006C0001C1C0C000C1C1C00001838E0E03818182A
:1006D0001C04041C1818F8E000E0F8180084FCF86A
:1006E0003C04001898D878381C1C18181880FC7E18
:1006F0000606007CFCC0C0FEFC06067EFC80C0C076
:10070000FC7C006030307060603000000000000051
:1007100000FE020202020202FE1C10101010101055
:100720001C0000070E206000000000000000000018
:1007300000000000000000FC0000000000000D00B0
:10074000000000003C003C00000000000000000031
:100750000020F82020F820000107010107010060B7
:1007600090F89010000004040F040300001824986F
:1007700060100C000C02010609060030C8C83000E9
:1007800000000708080906090000003C00000000FE
:10079000000000000000000000E01804020000005B
:1007A000030C102000020418E000000020100C03CD
:1007B00000000080A0C0C0A0800000020101020073
:1007C00000808080F0808080000000070000000032
:1007D00000000000000020180C0400000080808051
:1007E0008080800000000000000000000000000089
:1007F000000000081C0800000000008060180600CF
:1008000018060100000000F008844408F00003040A
:100810000808040300201008FC0000000000000F7E
:10082000000000180404844438000C0A0908080871
:10083000000804444444B80006080808080700807B
:10084000601804FC0000010101010F01007C242458
:100850002424C40006080808080700F88444444417
:10086000880007080808080700040404C4340C00C2
:10087000000C0300000000B844444444B8000708DA
:1008800008080807007884848444F80004080808ED
:100890000807000020702000000000081C0800006D
:1008A000000020702000000020180C0400000080D0
:1008B00040201008000000010204080000404040F1
:1008C00040404000020202020202000008102040E4
:1008D0008000000804020100000484442418000081
:1008E000000D0000000000F008C42424F8000304F8
:1008F000090A0A0300F884848484F8000F000000C9
:10090000000F00FC4444447880000F0808080807E2
:1009100000F804040404180007080808080600FC8E
:1009200004040408F0000F080808040300FC444411
:10093000444404000F080808080800FC44444444E8
:1009400004000F000000000000F8040484849800F4
:1009500007080808080700FC40404040FC000F0062
:100960000000000F000404FC0404000008080F0845
:100970000800000000040404FC000608080808073A
:1009800000FC4020D00804000F000000030C00FC15
:100990000000000000000F080808080800FC1860AC
:1009A000806018FC0F00000100000FFC1860800040
:1009B000FC000F000001060F00F804040404F80016
:1009C00007080808080700FC8484848478000F0066
:1009D0000000000000F804040404F8000708080EF2
:1009E000181700FC8484848478000F000102040836
:1009F00000384444848408000408080808070004F8
:100A00000404FC0404040000000F000000FC0000CB
:100A10000000FC0007080808080700FC00000000B0
:100A2000FC0000030C0C030000FC0000C00000FCF4
:100A3000030C0300030C030C30C0C0300C000C038B
:100A40000000030C003C408080403C000000000F90
:100A500000000004048444340C000C0A090808084F
:100A6000000000FE0202020000003F2020200006DD
:100A70001860800000000000000106180002020259
:100A8000FE0000002020203F0000001008040408A1
:100A90001000000000000000000000000000000046
:100AA0002020202020200000040C1820000000003E
:100AB000000000000000A0A0A0A0C00007080808D7
:100AC000040F00FC40202020C0000F040808080785
:100AD00000C020202020400007080808080400C0AB
:100AE00020202040FC0007080808040F00C0202038
:100AF0002020C0000709090909090080F8848484BE
:100B00000800000F0000000000C020202040E0008E
:100B100023444444423F00FC40202020C0000F00FA
:100B20000000000F00002020EC0000000000000F7B
:100B300000000000002020EC0000102020201F00FA
:100B400000FC0080402000000F01010204080000AA
:100B5000FC000000000000070808080000E020205A
:100B6000C02020C00F00000300000FE04020202024
:100B7000C0000F000000000F00C020202020C00097
:100B800007080808080700E040202020C0007F0276
:100B90000404040300C020202040E00003040404F7
:100BA000027F00E04020202040000F0000000000F5
:100BB00000C0202020204000040909090906002067
:100BC000F8202020000000070808080400E00000CA
:100BD0000000E00007080808040F00E00000000023
:100BE000E00000030C0C030000E00000800000E0C7
:100BF0000708040304080720408080402000080400
:100C00000202040800E000000000E0002344444425
:100C1000423F0020202020A06000080C0A0908089C
:100C2000000080807C0202000000001F20200000E5
:100C300000FE0000000000001F0000000002027C17
:100C40008080000020201F000000003008081020D5
:100C5000201800000000000000FEFEFEFEFEFEFE6A
:100C60007F7F7F7F7F7F7F0000050720600000007F
:100C7000000000005F00000003000300143E143E6B
:100C800014242A7F2A1243330866613649552250BC
:100C90000005030000001C2241000041221C00143A
:100CA000083E081408083E080800503000000808F4
:100CB000080808006060000020100804023E514946
:100CC000453E0004027F00426151494622414949A4
:100CD000361814127F1027454545393E4949493297
:100CE00001017109073649494936264949493E00FB
:100CF0003636000000563600000814224100141455
:100D0000141414004122140802015109063E4159ED
:100D1000555E7E0909097E7F494949363E41414178
:100D2000227F4141413E7F494949417F09090901EB
:100D30003E4141493A7F0808087F00417F41003029
:100D40004040403F7F081422417F404040407F02A6
:100D50000C027F7F0204087F3E4141413E7F09092A
:100D600009061E2121215E7F090909762649494984
:100D70003201017F01013F4040403F1F2040201FC2
:100D80007F2010207F41221C224107087008076144
:100D900051494543007F4100000204081020000033
:100DA000417F000402010204404040404000010233
:100DB000040020545454787F444444383844444414
:100DC00044384444447F385454541804047E050580
:100DD000085454543C7F0804047800447D400020AB
:100DE00040443D007F1028440000417F40007C04C7
:100DF0007804787C0804047838444444387C14141B
:100E00001408081414147C007C0804044854545436
:100E10002004043F44443C4040207C1C2040201CD3
:100E20003C4030403C44281028440C5050503C4436
:100E300064544C44000836414100007F00004141A9
:100E400036080002010204027F7F7F7F7F040802D0
:100E50000110408040102040804080080204018042
:100E600040201002011080102040402000000000AF
:100E7000250028002B002E00310004040404040384
:100E8000040502020202040302020202060606062A
:100E90000606040402020204040047310231112450
:100EA0001FBECFEFDAE0DEBFCDBF14E0A0E0B1E0BF
:100EB000E4EDFCE602C005900D92AA31B107D9F726
:100EC00028E0AAE1B4E001C01D92A830B207E1F722
:100ED00017E0CEE4D7E004C02197FE010E9454340D
:100EE000CD34D107C9F70E9481250C945D360C944E
:100EF000000080E00895FC0182818F5BFB0180830C
:100F000081E008958F929F92AF92BF92CF92DF922D
:100F1000EF92FF920F931F93FC01118612861682A7
:100F200017826083808561110BC0811120C01182FE
:100F300081E08087868322833383448355831AC06C
:100F40008823A9F0108681E08783C280D380E48063
:100F5000F58049015A018C189D08AE08BF080CE2C3
:100F6000801601E09006A104B1040CF48187818110
:100F7000811117C080858823A1F082819381A4818B
:100F8000B58149015A01881A990AAA0ABB0A05EFD4
:100F9000801601E09006A104B1041CF081E0828774
:100FA00081831F910F91FF90EF90DF90CF90BF90C2
:100FB000AF909F908F900895FC016093BC0080914A
:100FC000BC0087FFFCCF9091B900987F9083089573
:100FD000CF92DF92EF92FF920F931F93CF93DF9305
:100FE000EC01C62ED42E8C89882351F0411108C003
:100FF00084E98093BC008091BC0084FDFCCF1C8AF6
:10100000EC888E010E5E1F4FE11014C0FB8864EA6D
:10101000C8010E94DC078A89883011F1803101F112
:10102000DD2011F080E4E82EE092BB0064E8C80106
:101030000E94DC07C092BB0064E8C8010E94DC0784
:1010400082E0D81204C08C898F5F8C8B11C084E938
:101050008093BC008091BC0084FDFCCF1C8A08C03A
:10106000FF0CF092BB0064E8C8010E94DC07D8CFF7
:10107000DF91CF911F910F91FF90EF90DF90CF9074
:101080000895089580E090E00895CF93DF930E9443
:101090002A1FEC010E949A1EFE01EE5AFF4FCD5A04
:1010A000DF4F908188819817F1F00E942A1F0E94DB
:1010B0007022682F8DED96E00E9476130E948D239A
:1010C00060934E0470934F048093500490935104A6
:1010D0000E948D23609358047093590480935A049E
:1010E00090935B04D4CF8DED96E0DF91CF910C947B
:1010F000C213EF92FF920F931F93CF93DF9300D011
:1011000000D0CDB7DEB7182F0E942A1FFC0117FFB1
:101110000AC0183F09F470C01A3F08F474C01D3F9C
:1011200009F06AC070C0808921E0280F208BDF01A0
:10113000A80FB11D1D961C938189882361F023306F
:1011400009F0AEC082858460898385858A8386851F
:101150008B8387853DC09485892F807F803B59F1A3
:1011600068F4803841F120F4882309F443C098C022
:10117000803909F1803A09F093C01DC0803D51F1DA
:1011800018F4803C39F18CC0803EA9F0803F09F012
:1011900087C0892F8F70823041F0833019F0813001
:1011A00009F07EC0828582601DC0223009F078C0BF
:1011B0008285836008C0223009F072C0292F2295F1
:1011C0002F708285822B89839A8385858B83868580
:1011D0008C830DC0213009F063C0292F22952F7018
:1011E0008285822B89839A8385858B831C82108AD2
:1011F0004EC01487108A54C082858F6089831A83F9
:101200001B821C8244C08CE0810F833030F48285C5
:10121000856089831A831B82E9CF103F29F481E01E
:10122000818B1587808B3CC0173F19F7808961E05F
:10123000680F608BDF01A80FB11D1D961C938B5F9B
:101240009285892B8983AF01435F5F4F9E012F5F9A
:101250003F4F7901862F90E08701021B130B08177F
:10126000190750F4DA018D91AD01D70111968C93D5
:10127000BFEFEB1AFB0AEECF01968430910529F0FF
:10128000D901A80FB91F1C92F7CF118AB0CF838163
:1012900044E050E0BE016F5F7F4F8F5F0E94831577
:1012A00081E090E00F900F900F900F90DF91CF9121
:1012B0001F910F91FF90EF900895CF92DF92EF92E0
:1012C000FF92CF936B017C018DED96E00E943F135E
:1012D000892BE9F08DED96E00E941D13C82F0E9426
:1012E00079086C2F8DED96E00E947613C09253041E
:1012F000D0925404E0925504F0925604C0925804DF
:10130000D0925904E0925A04F0925B04DDCF0E941F
:101310002A1FFC0183818F5FCF91FF90EF90DF90B8
:10132000CF900C94C014DC018D919C91DC01ED9167
:10133000FC910190F081E02D09945F926F927F9271
:101340008F929F92AF92BF92CF92DF92EF92FF92D5
:101350000F931F93CF93DF9364E7E62E64E0F62E9E
:1013600001E011E07DE2672E72E0772EE801CC24E7
:10137000CA94E3E0DE2E88248A94F3E09F2EA12C09
:10138000B12C55245394F701219131917F0188812B
:101390009981DC01AA0FBB1FA80FB91FB7FD1396D7
:1013A000CD019595879595958795D601A21BB30B91
:1013B000A80FB91FB983A883B7FD1396B595A79554
:1013C000B595A7952FE034E00E945A34683FFFE1BD
:1013D0007F078105910574F0683F2BE1720720E1DA
:1013E0008207910554F4A50194010E948633285088
:1013F000310905C020E030E002C02FEF33E01D824C
:101400008A819B81A901481B590BCA0157FF03C060
:1014100091958195910909974CF03B832A8383E04C
:10142000359527958A95E1F72C835D822A966C166F
:101430007D0609F0A8CF2091730430916F0440918C
:1014400064049091720480E0F80155815523F1F015
:10145000281317C0332349F09481953708F095E796
:10146000F80196839483932F11C0442379F0F801F7
:1014700094819A3008F49AE0F80197839483942F2A
:1014800005C0411103C0311101C0282F8F5F065FD5
:101490001F4F8F31C9F62093730490937204DF912C
:1014A000CF911F910F91FF90EF90DF90CF90BF9061
:1014B000AF909F908F907F906F905F9008958F92E4
:1014C0009F92AF92BF92CF92DF92EF92FF924B0129
:1014D0005C010E948D236B017C010E948D23DC0145
:1014E000CB018C199D09AE09BF0988159905AA057C
:1014F000BB0558F40E942A1F0E949A1E0E944508AC
:101500000E948D230E945D09E8CFFF90EF90DF904D
:10151000CF90BF90AF909F908F9008950E942A1F08
:101520000E949A1E0E9445080E948D230C945D091A
:101530008F929F92AF92BF92FF920F931F93CF9380
:10154000DF93D82FF62EC42F0E948D234B015C0110
:1015500087E00E948E22892B41F480924E04909263
:101560004F04A0925004B092510411E01C0FDF7799
:101570000F2D0F77C031B0F46C2F60698091370662
:10158000909138060E9493096D2F809137069091B3
:1015900038060E949309602F809137069091380693
:1015A0000E949309F11002C080E801C080E91F7019
:1015B000812B0E9479088D2F0E947908802FDF915E
:1015C000CF911F910F91FF90BF90AF909F908F9000
:1015D0000C947908EF92FF920F931F93CF93DF93B0
:1015E00004E714E0C0E0D0E033E2E32EF12CC0FFCA
:1015F00002C061E001C060E088E00E94B722C1FF44
:1016000002C061E001C060E089E00E94B722C2FF31
:1016100002C061E001C060E08AE00E94B722CE0112
:1016200023E0959587952A95E1F7892B11F061E0E4
:1016300001C060E08BE00E94B722C7010197F1F77B
:1016400082E10E942223F801819391938F0183E12B
:101650000E942223F801958F848F2196CF30D105E7
:1016600031F6DF91CF911F910F91FF90EF90089588
:10167000CF92DF92EF92FF920F931F93CF93DF935E
:1016800060E08CE00E94B72283E090E00197F1F7E0
:1016900061E08CE00E94B722C7E0D0E0C12CD12CE1
:1016A000760103E010E085E00E948E22092E000CF6
:1016B000AA0BBB0B0C2E04C0880F991FAA1FBB1FBF
:1016C0000A94D2F7C82AD92AEA2AFB2A61E086E0DE
:1016D0000E94B722C8010197F1F760E086E00E94FE
:1016E000B722219700F7C701B601DF91CF911F9173
:1016F0000F91FF90EF90DF90CF9008950F931F937D
:101700004091BB045091BC046091BD047091BE0433
:101710008A019B0104C036952795179507958A95F0
:10172000D2F7D901C80181701F910F91089584E00B
:101730000E947E0B2091BF043091C0044091C104EF
:101740005091C204682F87E694E00E94820785E0EA
:101750000E947E0B2091BF043091C0044091C104CF
:101760005091C204682F8CE594E00E94820786E0C5
:101770000E947E0B2091BF043091C0044091C104AF
:101780005091C204682F80EB94E00E94820780E0B1
:101790000E947E0B2091BF043091C0044091C1048F
:1017A0005091C204682F81E294E00E94820781E098
:1017B0000E947E0B2091BF043091C0044091C1046F
:1017C0005091C204682F8CE294E00E94820782E06C
:1017D0000E947E0B2091BF043091C0044091C1044F
:1017E0005091C204682F87E394E00E94820783E04F
:1017F0000E947E0B2091BF043091C0044091C1042F
:101800005091C204682F82E494E00C9482070F93F5
:101810001F93CF93DF93EC0189819A81AB81BC81C7
:101820008C019D0109531F4F2F4F3F4F0417150780
:1018300026073707E4F09A01AB01281B390B4A0B46
:101840005B0BA4E0B1E00E94A53328EC30E040E05F
:1018500050E00E94863357FD07C0293C3105410501
:1018600051051CF028EC01C020E0288302C08FEF56
:101870008883DF91CF911F910F9108956F927F928E
:101880008F929F92AF92BF92CF92DF92EF92FF9290
:101890000F931F93CF93DF9390EC699FB0011124B6
:1018A000672F770F770B6B01FFE1CF22DD24A3E0D9
:1018B000CC0CDD1CAA95E1F7822E912CC42FD0E030
:1018C000EE24EA94F12C87010C1B1D0B089DD0011E
:1018D000099DB00D189DB00D11244B2FCC9E5001C9
:1018E000CD9EB00CDC9EB00C1124AB2CBB2400E0D0
:1018F00011E038016A187B08689C5001699CB00CA3
:10190000789CB00C1124EC18FD08EC9E6001ED9E53
:10191000D00CFC9ED00C1124CD2CDD240C191D09FB
:10192000089DE001099DD00D189DD00D11246295F0
:1019300066956770623091F038F4662369F0613023
:10194000D9F4522FEB2D19C0643081F058F0653076
:1019500099F45B2F4B2D0EC05D2F0CC0522FEB2F37
:101960004D2F0BC05B2DEB2F422F07C05B2F422F5B
:10197000ED2F03C0E22F01C040E0682F70E02091FE
:101980008807309189076217730708F03FC02091DC
:101990008E07222361F0E29FF0011124EF2F259F93
:1019A000D00111245B2F249F90011124432FF0912B
:1019B00094079091910720918F0730919007F91328
:1019C00008C0B901F3E08F9F600D711D1124CB0198
:1019D0000BC0CB01880F991F880F991F820F931F8F
:1019E000DC01AF0FB11D1C9220919107DC01A20F09
:1019F000B11DEC9320919207FC01E20FF11D508381
:101A000020919307FC01E20FF11D4083DF91CF91FC
:101A10001F910F91FF90EF90DF90CF90BF90AF900C
:101A20009F908F907F906F900895CF92DF92FF925A
:101A30000F931F93CF93DF93F82EE1E0F1E0C7E31C
:101A4000D2E020E030E046E0CC24CA94D12C84815E
:101A5000642F0E942034B901680F711DCB010FEF74
:101A600010E0B6010E9440349C013A96CE17DF0781
:101A700071F7C296B8010E944034EC012F2D4FEF50
:101A8000682F80E00E943E0CCE010A96B8010E94A9
:101A900040342F2D40915204682F83E00E943E0C69
:101AA000CE014E96B8010E9440342F2D40914D0436
:101AB000682F82E00E943E0CCE018896B8010E94F9
:101AC00040342F2D40915704682F81E0DF91CF9152
:101AD0001F910F91FF90DF90CF900C943E0CFF92DE
:101AE0000F931F93CF93DF93EC01F62E088119819A
:101AF000C8010E947033F81621F06F2DC8010E94B2
:101B00007833CE01DF91CF911F910F91FF9008950F
:101B10006F927F928F929F92AF92BF92CF92DF92FD
:101B2000EF92FF920F931F93CF93DF9300D000D0DB
:101B3000CDB7DEB7682E8EEF93E09A838983662D4A
:101B4000CE0101960E946F0D01E011E08CE7689EC6
:101B500030011124E12CF12C43018E0C9F1CFE015D
:101B600031965F01CC24C394D12CC601880D991DF8
:101B70000E947033F50181935F01FFEFCF1ADF0AF6
:101B800085E0C816D10489F78981F80180878A81A8
:101B900081878B8186838C818783065F1F4FF4E06A
:101BA000EF0EF11C8CE7E816F104B1F60F900F90E0
:101BB0000F900F90DF91CF911F910F91FF90EF90B9
:101BC000DF90CF90BF90AF909F908F907F906F905D
:101BD00008956F927F928F929F92AF92BF92CF9211
:101BE000DF92EF92FF920F931F93CF93DF9300D07A
:101BF00000D000D0CDB7DEB7682E8EEF93E09A8389
:101C00008983662DCE0101960E946F0D01E011E0DF
:101C10008CE7689E30011124E12CF12C43018E0CDD
:101C20009F1CF8018085898381858A8386818B83C7
:101C300087818C83CE0101965C01CC24C394D12C86
:101C4000F50161915F01C601880D991D9E838D8309
:101C5000CE0105960E946F0DFFEFCF1ADF0A85E0D7
:101C6000C816D10469F7065F1F4F94E0E90EF11C16
:101C7000ECE7EE16F10491F626960FB6F894DEBF67
:101C80000FBECDBFDF91CF911F910F91FF90EF90CD
:101C9000DF90CF90BF90AF909F908F907F906F908C
:101CA0000895EF92FF920F931F93CF93DF93CDB7D9
:101CB000DEB768970FB6F894DEBF0FBECDBF0E94A7
:101CC0008D2360930706709308068093090690930E
:101CD0000A068CE997E00E94DE24809106068111B5
:101CE000AEC065E273E0CE0101960E94AB1420E025
:101CF00040E060E0CE0101960E940C25CE010196E5
:101D00000E9406216BE373E0CE0101960E94AB14A2
:101D100020E043E060E0CE0101960E940C25CE0158
:101D200001960E940621E09104068E2F90E08730F4
:101D3000910508F0CEC1FC01E35AFF4F0C945434D6
:101D4000E0910B068AE0E89FF0011124EF5FFE4F5F
:101D50006185CE010D960E94562160910B06CE0141
:101D600007960E94562160E573E0CE0101960E941D
:101D7000AB14BE01695F7F4FCE0101960E940B211B
:101D80006AE573E00E945714BE01635F7F4F0E94B3
:101D90000B21BC01CE0143960E94911421E041E049
:101DA00060E0CE0143960E940C25CE0143960E942E
:101DB0000621CE0101960E940621CE0107960E94BF
:101DC0000621CE010D9683C160910B06CE010796C8
:101DD0000E94562160E573E0CE0101960E94AB148B
:101DE000BE01695F7F4FCE0101960E940B216FE516
:101DF00073E00E94571455C164E673E002C065E7C2
:101E000073E0CE0101960E94AB1421E041E060E056
:101E10000FC065E873E0F5CF67E973E002C063EADD
:101E200073E0CE0101960E94AB1421E041E064E131
:101E3000CE0101960E940C25CE01019648C16FEAA1
:101E400073E0CE0101960E94AB1420E040E060E018
:101E5000CE0101960E940C25CE0101960E9406211A
:101E600066EC73E0CE0101960E94AB1420E043E0E3
:101E700060E0CE0101960E940C25CE0101960E94E1
:101E8000062180910406813009F490C0B8F08230B8
:101E900009F01FC160910C06CE0107960E945621E1
:101EA00067EF73E0CE0101960E94AB14BE01695F3B
:101EB0007F4FCE0101960E940B21F3C0E0910B06EB
:101EC000AAE0EA9FF0011124EF5FFE4F6185CE0189
:101ED0000D960E94562160910B06CE0107960E9436
:101EE000562164E573E0CE0101960E94AB14BE0159
:101EF000695F7F4FCE0101960E940B216BED73E06D
:101F00000E945714BE01635F7F4F0E940B21BC01EA
:101F1000CE0143960E94911421E041E060E0CE01A1
:101F200043960E940C25CE0143960E940621CE01C5
:101F300001960E940621CE0107960E940621CE013D
:101F40000D960E94062191E0E92E91E0F92E10E015
:101F50000AE0E0910B06E11711F10E9FF001112448
:101F6000EF5FFE4F9185D70119968C9119979813C1
:101F700016C0908518968C91981311C061EE73E08D
:101F8000CE0101960E94AB1420E040E069E1CE0151
:101F900001960E940C25CE0101960E9406211F5F2A
:101FA000BAE0EB0EF11C1F31A1F693C0E0910B06D5
:101FB0008AE0E89FF0011124EF5FFE4F608570E03A
:101FC0006F5F7F4FCE010D960E941E2160910B0620
:101FD000CE0107960E94562164E573E0CE0101967A
:101FE0000E94AB14BE01695F7F4FCE0101960E9433
:101FF0000B2161EF73E00E945714BE01635F7F4FB6
:102000000E940B21BC01CE0143960E94911421E055
:1020100041E060E0CE0143960E940C25CE0143963C
:102020000E940621CE0101960E940621CE0107964C
:102030000E940621CE010D960E94062181E0E82E25
:1020400081E0F82E10E00AE0E0910B06E11711F1B3
:102050000E9FF0011124EF5FFE4F9185D701199675
:102060008C911997981316C0908518968C91981397
:1020700011C061EE73E0CE0101960E94AB1420E026
:1020800040E069E1CE0101960E940C25CE01019647
:102090000E9406211F5FBAE0EB0EF11C1F31A1F672
:1020A00018C0BC01CE010D960E94911421E041E0C0
:1020B00060E0CE010D960E940C25CE010D960E9487
:1020C0000621CE0101960E940621CE0107960E94AC
:1020D000062168960FB6F894DEBF0FBECDBFDF9124
:1020E000CF911F910F91FF90EF9008951F93CF9381
:1020F000DF93CDB7DEB762970FB6F894DEBF0FBEA1
:10210000CDBFE09173041AE01E9FF0011124EF5F30
:10211000FE4F6185CE0107960E9456216CED73E05B
:10212000CE0101960E94AB14BE01695F7F4FCE01C4
:1021300001960E940B21BC01CE010D960E949114C4
:1021400020E040E060E0CE010D960E940C25CE011B
:102150000D960E940621CE0101960E940621CE0115
:1021600007960E940621E09173041E9FF00111243E
:10217000EF5FFE4F608570E06930710514F414E67E
:1021800001C01CE56F5F7F4FCE0107960E941E21A4
:1021900062EF73E0CE0101960E94AB14BE01695F4D
:1021A0007F4FCE0101960E940B21BC01CE010D96FE
:1021B0000E94911420E040E0612FCE010D960E9414
:1021C0000C25CE010D960E940621CE0101960E949B
:1021D0000621CE0107960E94062162960FB6F8945A
:1021E000DEBF0FBECDBFDF91CF911F9108951F932A
:1021F000CF93DF93CDB7DEB762970FB6F894DEBF0B
:102200000FBECDBF8CE997E00E94DE240E947610BD
:10221000E09173041AE01E9FF0011124EF5FFE4F5E
:102220006681CE0107960E94562164E074E0CE01DB
:1022300001960E94AB14BE01695F7F4FCE010196EB
:102240000E940B21BC01CE010D960E94911420E04A
:1022500043E060E0CE010D960E940C25CE010D9664
:102260000E940621CE0101960E940621CE0107960A
:102270000E940621E09173041E9FF0011124EF5F7C
:10228000FE4F6781CE0107960E9456216AE074E0F6
:10229000CE0101960E94AB14BE01695F7F4FCE0153
:1022A00001960E940B21BC01CE010D960E94911453
:1022B00021E042E06AE4CE010D960E940C25CE0199
:1022C0000D960E940621CE0101960E940621CE01A4
:1022D00007960E94062160917304CE0101960E9428
:1022E000562123E040E06AE3CE0101960E940C25CE
:1022F000CE0101960E94062162960FB6F894DEBFC9
:102300000FBECDBFDF91CF911F9108951F93CF9343
:10231000DF93CDB7DEB762970FB6F894DEBF0FBE7E
:10232000CDBF8CE997E00E94DE240E947610E091F8
:1023300073041AE01E9FF0011124EF5FFE4F6681C7
:10234000CE0107960E9456216FE074E0CE010196FF
:102350000E94AB14BE01695F7F4FCE0101960E94BF
:102360000B21BC01CE010D960E94911421E042E0A8
:1023700060E0CE010D960E940C25CE010D960E94C4
:102380000621CE0101960E940621CE0107960E94E9
:102390000621E09173041E9FF0011124EF5FFE4FB0
:1023A0006781CE0107960E94562164E174E0CE0158
:1023B00001960E94AB14BE01695F7F4FCE0101966A
:1023C0000E940B21BC01CE010D960E94911420E0C9
:1023D00043E060E5CE010D960E940C25CE010D96DE
:1023E0000E940621CE0101960E940621CE01079689
:1023F0000E94062160917304CE0101960E9456212D
:1024000023E040E06AE3CE0101960E940C25CE0154
:1024100001960E94062162960FB6F894DEBF0FBEA9
:10242000CDBFDF91CF911F9108951F93CF93DF937D
:10243000CDB7DEB762970FB6F894DEBF0FBECDBF43
:102440008CE997E00E94DE240E947610E0917304EC
:102450001AE01E9FF0011124EF5FFE4F6681CE014E
:1024600007960E94562164E074E0CE0101960E9416
:10247000AB14BE01695F7F4FCE0101960E940B2114
:10248000BC01CE010D960E94911420E043E060E073
:10249000CE010D960E940C25CE010D960E940621BC
:1024A000CE0101960E940621CE0107960E940621C8
:1024B000E09173041E9FF0011124EF5FFE4F6781CE
:1024C000CE0107960E94562164E174E0CE01019688
:1024D0000E94AB14BE01695F7F4FCE0101960E943E
:1024E0000B21BC01CE010D960E94911420E043E027
:1024F00060E5CE010D960E940C25CE010D960E943E
:102500000621CE0101960E940621CE0107960E9467
:102510000621609173046A3010F41EE301C01AE3CF
:10252000CE0101960E94562123E041E0612FCE01A9
:1025300001960E940C25CE0101960E94062162960A
:102540000FB6F894DEBF0FBECDBFDF91CF911F91C4
:1025500008954091D3045091D4042091D104309136
:10256000D20442175307B4F49091E8009570E1F358
:102570009091E80092FD19C08093F1008091D304FE
:102580009091D40401968F739927892B19F48EEFBB
:102590008093E8008091D3049091D40401969093A5
:1025A000D4048093D30481E0089580E008956150BD
:1025B00030F02091F100FC0120830196F8CF28989B
:1025C00084E68093D6040895CF92DF92EF92FF9233
:1025D0000F931F93CF93DF936C017A018B01C0E0BF
:1025E000D0E0CE15DF0581F0D8016D918D01D601C7
:1025F000ED91FC910190F081E02DC6010995892BA8
:1026000011F02196EECF7E01C701DF91CF911F918E
:102610000F91FF90EF90DF90CF900895FC01538DC4
:10262000448D252F30E0842F90E0821B930B5417AC
:1026300010F0CF96089501970895FC01918D828D39
:10264000981761F0828DDF01A80FB11D5D968C9106
:10265000928D9F5F9F73928F90E008958FEF9FEF11
:102660000895FC01918D828D981731F0828DE80FCD
:10267000F11D858D90E008958FEF9FEF0895FC0187
:10268000918D228D892F90E0805C9F4F821B910954
:102690008F73992708958DED96E00E943F1321E0F6
:1026A000892B09F420E0822F0895FC01848DDF013D
:1026B000A80FB11DA35ABF4F2C91848D90E00196B5
:1026C0008F739927848FA689B7892C93A089B189A4
:1026D0008C9182748C93938D848D981306C002889C
:1026E000F389E02D80818F7D80830895EF92FF92A2
:1026F0000F931F93CF93DF93EC0181E0888F9B8D25
:102700008C8D981305C0E889F989808185FD26C0E4
:10271000F62E0B8D10E00F5F1F4F0F731127E02E69
:102720008C8DE8120CC00FB607FCFACFE889F98946
:10273000808185FFF5CFCE010E945513F1CF8B8D9F
:10274000FE01E80FF11DE35AFF4FF0829FB7F894A6
:102750000B8FEA89FB898081806209C09FB7F8945A
:10276000EE89FF896083E889F9898081827480839A
:102770009FBF81E090E0DF91CF911F910F91FF907B
:10278000EF900895CF93DF93EC01888D8823C9F0F3
:10279000EA89FB89808185FD05C0A889B9898C916A
:1027A00086FD0FC00FB607FCF5CF808185FFF2CF05
:1027B000A889B9898C9185FFEDCFCE010E94551370
:1027C000E7CFDF91CF91089580E090E0892B29F049
:1027D0000E944B1381110C94000008950E9448360A
:1027E0000F931F93CF93DF93EC018881998100971A
:1027F00029F02A813B812617370788F48B016F5F08
:102800007F4F0E948235009761F0998388831B83F4
:102810000A832C813D81232B11F4FC01108281E07D
:1028200001C080E0DF91CF911F910F910895EF9249
:10283000FF920F931F93CF93DF936115710511F4EE
:1028400080E01CC041155105C1F07B01EC018C8179
:102850009D818A01080F191FB801CE010E94F01353
:10286000882371F3288139818C819D81B701820F82
:10287000931F0E9456361D830C8381E0DF91CF9118
:102880001F910F91FF90EF900895CF93DF93EC018C
:1028900088819981009711F00E94F9341982188279
:1028A0001D821C821B821A82DF91CF910895CF93E3
:1028B000DF93EC016115710561F0FB0101900020CF
:1028C000E9F73197AF01461B570B0E94171481118E
:1028D00003C0CE010E944514CE01DF91CF9108952F
:1028E000EF92FF920F931F93CF93DF93EC017B0145
:1028F0008A01BA010E94F013811104C0CE010E9426
:10290000451407C01D830C83B701888199810E94FB
:102910005636CE01DF91CF911F910F91FF90EF902E
:102920000895FB01DC0111961C921E9213961C92D5
:102930001E92129715961C921E921497861797074F
:1029400049F0608171816115710521F044815581E3
:102950000C9470140895FC0111821082138212826B
:10296000158214826115710551F0FB010190002060
:10297000E9F73197AF01461B570B0C94701408957B
:102980008093E9008091F200882319F08AE3809314
:10299000E80008951F920F920FB60F9211242F9303
:1029A0003F934F935F936F937F938F939F93AF93D7
:1029B000BF93CF93EF93FF93C091E1008091E1002B
:1029C000837F8093E100C3FF0FC01092E90081E094
:1029D0008093EB001092EC0082E38093ED00109264
:1029E0001C0488E08093F000C2FF19C083E00E94BD
:1029F000C0148091D704882339F08091D704815086
:102A00008093D704882389F18091D604882339F0F4
:102A10008091D60481508093D604882341F1C4FF6D
:102A200010C08091E2008E7E81608093E2008091F0
:102A3000E1008F7E8093E10080911A048E7E806198
:102A400011C0C0FF16C08091E2008E7E806180932D
:102A5000E2008091E1008E7E8093E10080911A0473
:102A60008E7E816080931A0404C05D9ACDCF289A2F
:102A7000D6CFFF91EF91CF91BF91AF919F918F9161
:102A80007F916F915F914F913F912F910F900FBE6A
:102A90000F901F901895DF92EF92FF920F931F9364
:102AA000CF93DF93D82E8A017B01E40EF51EEB0154
:102AB000CE15DF0571F0D7FE03C0FE01849101C081
:102AC00088810E94A91221968111F2CF8FEF9FEF8A
:102AD00001C0C801DF91CF911F910F91FF90EF903E
:102AE000DF9008952FB7F89487708093E900909154
:102AF000E800892F807295FF04C09091F20080E475
:102B0000891B2FBF08957F928F929F92AF92BF92A1
:102B1000CF92DF92EF92FF920F931F93CF93DF93A9
:102B2000C82E8B017A0180911C04811103C08FEFA4
:102B30009FEF74C080911A0480FF05C08091E0006F
:102B400082608093E000CE2DDF2DD12C8AEFB82E4D
:102B50008C2D8770982E8C2D8072882E8C2D8074F1
:102B6000782E9AE3A92E209719F4DD2009F451C09C
:102B70008C2D0E94721581110AC0BA94BB20B9F243
:102B800061E070E080E090E00E945323ECCF282FBA
:102B900030E0C217D3070CF48C2F9FB7F8949092B3
:102BA000E9002091E80025FF32C0282F30E0C21B49
:102BB000D30B882029F08150A0F01092F100FBCFB8
:102BC000F801C7FE0AC0815050F044914093F100D3
:102BD0003196F9CF41914093F1008150D8F7020F1F
:102BE000131FDD2019F0A092E8000AC08091E800D0
:102BF00085FD08C0A092E800DD24D394209739F029
:102C0000D12C05C0209719F47110A092E8009FBF45
:102C1000AACF5D9884E68093D704C701DF91CF9156
:102C20001F910F91FF90EF90DF90CF90BF90AF90EA
:102C30009F908F907F90089590911C04992311F09C
:102C400057FF03C08FEF9FEF08959FB7F8948770E9
:102C50008093E9002091F20030E0421753070CF412
:102C60009A01822FFB0144E6815038F02898409366
:102C7000D6045091F1005193F7CF2115310521F081
:102C80008091F200882319F09FBFC90108958BE657
:102C90008093E800F9CF8091C90481110DC082E0D2
:102CA0008093C50484E08093C6041092C8041092F7
:102CB000C70481E08093C90485EC94E008950F93E4
:102CC0001F93CF93DF931F92CDB7DEB782E0898346
:102CD00042E450E061E271E080E80E944B150E94FE
:102CE0004B16DC0112960D911C91139701151105DD
:102CF00089F0D801ED91FC910280F381E02DBE01B5
:102D00006F5F7F4FC801099597FD04C0F8010085EA
:102D10001185ECCF89810F90DF91CF911F910F9199
:102D200008951F920F920FB60F921124CF92DF9247
:102D3000EF92FF920F931F932F933F934F935F93C5
:102D40006F937F938F939F93AF93BF93EF93FF9373
:102D5000CF93DF93CDB7DEB76C97DEBFCDBF1092B8
:102D6000E9008091E80083FFFBC168E0CE01459651
:102D70000E94D71282EF8093E8008D8987FF05C0FB
:102D80009091E80090FFFCCF03C09EEF9093E80085
:102D9000982F907609F0C6C09E894F89588D2F894B
:102DA000F88C91110CC0803829F480911B04809319
:102DB000F10002C01092F1001092F10045C1913073
:102DC00051F4811141C14130510509F03DC180915B
:102DD0001B048D7F0BC0933061F4811135C14130EC
:102DE000510509F031C180911B04826080931B045E
:102DF0002BC1953049F48091E80080FFFCCF822FF1
:102E000080688093E30020C1963009F05EC00B8D8E
:102E10001C8D22E01092E9001092D4041092D30489
:102E2000F21232C01092D2041092D1040E945F16A6
:102E300099E0BE016F5F7F4FDB01E92F1D92EA959C
:102E4000E9F79983FA8291E09E8390EA98879AEF56
:102E500099872091D3043091D404275F3F4F3C835E
:102E60002B838D831092E9001092D4041092D30426
:102E70001093D2040093D10449E050E080E00E9416
:102E80004B150E945F16E0C01093D2040093D1044A
:102E90000E944B16DC0112960D911C91139701159F
:102EA000110509F4BBC0D801ED91FC910480F581B6
:102EB000E02DBE016B5E7F4FC8010995009709F0B8
:102EC000C7C0F80100851185EACF973009F445C1E4
:102ED000983021F481E08093F100B6C0993009F078
:102EE000B3C0837009F039C1E7E4F2E081E031E07A
:102EF00096E32081211109C08EE78093EA001092A9
:102F0000EA008F8980931C049FC08093E90030936E
:102F1000EB0021912093EC009093ED008F5F8730C0
:102F200041F7EACF8B8D9C8D1092E9001092D4046A
:102F30001092D3049093D2048093D104898D81118F
:102F400053C08E899D89913A49F4813209F005C1B7
:102F500047E050E06BE372E080E0BBC0913209F0E3
:102F6000FCC0833269F48F89988DA0E0B0E0809333
:102F7000370290933802A0933902B0933A0264C0AA
:102F8000803269F48091E80082FFFCCF67E08BE338
:102F900092E00E94D7128BEF8093E80055C08232F6
:102FA00009F052C08F8980934202EEEFFFE78591CE
:102FB00094918B3F9C4D19F0E0E0F8E002C0EEEFF9
:102FC000FAE080913B0290913C02A0913D02B091C9
:102FD0003E02803B9440A105B10509F09EC080915E
:102FE000420280FF79C099C00E944B16FC01028109
:102FF00013810115110509F4B0C0D801ED91FC91C0
:103000000190F081E02DBE016B5E7F4FC8010995F4
:1030100081111AC0F80100851185EBCFF1E0FF1690
:1030200009F44EC0F3E0FF1298C08F89882309F499
:103030004AC0823089F440E860E185E891E00E946E
:103040001231882309F489C08EEF8093E80088C08C
:1030500018161906CCF381C0813029F440E86BE0E2
:1030600089E791E0ECCF833009F077C00E944B16DE
:10307000DC011296ED90FC9013978E010F5F1F4FAD
:103080006801E114F10479F0D701ED91FC9106801B
:10309000F781E02DB801C7010995080F111DF7014F
:1030A000E084F184EECFD8011C92F601019000205B
:1030B000E9F73197BF016C197D0940E0C601BFCF28
:1030C00067E671E002C063E671E0FB01449150E005
:1030D00080E80E944B15B8CFEE3F2AE0F20751F08E
:1030E000808191818737A7E79A0721F09093FF0AA3
:1030F0008093FE0A87E797E7918380838091600041
:103100008093D5049BE088E10FB6F894A89580934E
:1031100060000FBE9093600097CF808191818737C8
:10312000974709F091CFA8958091600088618093BE
:1031300060008091D50480936000EE3FBAE0FB0709
:1031400039F08091FE0A9091FF0A918380837CCFB1
:103150001092FF0A1092FE0A77CF81E28093EB0073
:103160006C960FB6F894DEBF0FBECDBFDF91CF9146
:10317000FF91EF91BF91AF919F918F917F916F914F
:103180005F914F913F912F911F910F91FF90EF9081
:10319000DF90CF900F900FBE0F901F9018951F9249
:1031A0000F920FB60F9211242F933F934F935F937B
:1031B0006F937F938F939F93AF93BF93EF93FF93FF
:1031C0008DED96E00E945513FF91EF91BF91AF9165
:1031D0009F918F917F916F915F914F913F912F912F
:1031E0000F900FBE0F901F9018951F920F920FB661
:1031F0000F9211242F938F939F93EF93FF93E0915E
:10320000ED06F091EE068081E091F306F091F40670
:1032100082FD12C090818091F6068F5F8F7320919E
:10322000F706821751F0E091F606F0E0E352F94F0D
:10323000958F8093F60601C08081FF91EF919F9159
:103240008F912F910F900FBE0F901F901895CF93D5
:10325000DF931F92CDB7DEB76983DC01ED91FC915E
:103260000280F381E02D41E050E0BE016F5F7F4FAF
:1032700009950F90DF91CF910895FC018485958584
:1032800097FD0BC09FB7F89482E08093E90080918E
:10329000F2009FBF90E0019608959FB7F89482E0F6
:1032A0008093E9008091F2009FBF90E00895CF9352
:1032B000DF93EC018D85882319F081508D8711C033
:1032C0009C818E81981768F488896827E881F98144
:1032D0000084F185E02D42E0CE0109958C818F5F5D
:1032E0008C83DF91CF91089585ED8093BC00809110
:1032F000BC0084FDFCCF1092C70508954091540591
:10330000262F30E0240F311D21323105DCF42091CD
:10331000C7052430C9F4FC0180E090E0861758F41A
:10332000309154052191DC01AC5CBA4FA30FB11D63
:103330002C930196F3CF80915405680F6093540548
:1033400080E0089581E0089582E008950895089549
:103350000895E091800580917F05E81730F4F0E052
:10336000EF57FA4F808190E008958FEF9FEF089517
:103370009091800580917F05981750F4E92FF0E037
:10338000EF57FA4F208130E09F5F9093800502C095
:103390002FEF3FEFC901089580917F0590E02091C4
:1033A0008005821B91090895CF92DF92EF92FF92E0
:1033B0000F931F93CF93DF937C01CB018A01209160
:1033C000C805222389F0EB016B01C40ED51ECC1574
:1033D000DD0569F06991D701ED91FC910190F081D3
:1033E000E02DC7010995F3CF642F0E947E19C80113
:1033F000DF91CF911F910F91FF90EF90DF90CF90D1
:103400000895CF93DF931F92CDB7DEB769832091E4
:10341000C8052223D1F02091EB05203240F021E0B5
:1034200030E0FC013383228380E090E015C080917E
:10343000C905E82FF0E0E653FA4F998190838F5F3A
:103440008093C9058093EB0505C061E0CE0101962C
:103450000E947E1981E090E00F90DF91CF91089556
:1034600080E090E00895CF93DF93EC0180914202D9
:10347000882331F083E00E9483151816190634F072
:1034800081E090E09B838A8380E090E0DF91CF91A0
:10349000089583E00C94C01483E00E94721590E0BC
:1034A00008950F931F93CF93DF931F92CDB7DEB78D
:1034B0008C01FC018485958597FF12C041E050E0A6
:1034C000BE016F5F7F4F82E00E941C16019719F4C6
:1034D000898190E002C08FEF9FEFF8019587848784
:1034E000F801848595850F90DF91CF911F910F9101
:1034F0000895CF93DF931F92CDB7DEB7FC0184858B
:10350000958597FD05C02FEF3FEF358724870FC0C6
:1035100041E050E0BE016F5F7F4F82E00E941C16C9
:10352000019719F4898190E002C08FEF9FEF0F900F
:10353000DF91CF910895862F0C9479080F931F93F4
:10354000CF93DF93CDB7DEB7CC55D1090FB6F89442
:10355000DEBF0FBECDBF8C01DB019C919E5F9C93B3
:10356000FE0131968CE5DF011D928A95E9F739E07D
:10357000398374E07A8391E09E839F833A8754E293
:103580005B879C879E873F87998B43E04A8B3B8B69
:103590007C8B22E02F8B988F498F87E08C8F5D8FFB
:1035A0009E8F98A381E489A386E08BA35CA32DA3BF
:1035B0009EA39FA389A75AA72BA72CA72DA73FA7F8
:1035C00058AB49AB9AAB4BAB9CAB2DAB9EAB38AF7A
:1035D00059AF4AAF2BAF7CAF9DAF9EAF9FAF229646
:1035E0003FAF229755E023965FAF239725962FAFE5
:1035F000259760E426966FAF26972B965FAF2B97A3
:1036000085E22C968FAF2C972D969FAF2D972E96F7
:103610009FAF2E972F969FAF2F9760963FAF6097E3
:1036200061965FAF619763962FAF639764966FAFB4
:10363000649769965FAF69976A968FAF6A976B9642
:103640009FAF6B976C969FAF6C976D964FAF6D97D2
:10365000D80112969C9112979B839F5F9D8B139626
:103660008C9124968FAF24978F5F806862968FAF7E
:1036700062974CE550E0BF0180E00E944B15C45AB0
:10368000DF4F0FB6F894DEBF0FBECDBFDF91CF91F5
:103690001F910F910895DC01ED91FC910084F1855B
:1036A000E02D40E00994FC018781869586958695FA
:1036B000681740F465839385690F6770606BCF016D
:1036C0000C944B1B08950F931F93CF93FC012681FD
:1036D0006217A0F4C62F8C0164839085C90F6C2FEC
:1036E0006F70CF010E944B1B6C2F62956F706061F1
:1036F000C801CF911F910F910C944B1BCF911F913B
:103700000F9108951F93CF93DF93EC01142F0E9424
:10371000631B612FCE01DF91CF911F910C94531B3E
:10372000CF92DF92EF92FF920F931F93CF93DF938D
:10373000EC01F62EC42ED22E1D868F81869586959D
:103740008695081710F00FEF080F1D2D011780F058
:10375000412F6F2DCE010E94821BEF2CCE1430F032
:103760006889CE010E945719E394F8CF1F5FEECF0E
:103770004D2D6F2DCE01DF91CF911F910F91FF90B5
:10378000EF90DF90CF900C94821B0F93DC01159685
:103790002C9115971E96ED91FC911F97309781F013
:1037A0003396E491F0E0379683E0F595E7958A95B6
:1037B000E1F751960C9151970E9FE02D112401C015
:1037C000E0E00FEF020F0E0F16964C911697415046
:1037D00014966C911497CD010E94901B0F9108953F
:1037E0002F923F924F925F926F927F928F929F9211
:1037F000AF92BF92CF92DF92EF92FF920F931F93FF
:10380000CF93DF93CDB7DEB72A970FB6F894DEBF1C
:103810000FBECDBFDC011E962D913C911F97211547
:10382000310509F43BC19A878987F90132964490A2
:1038300031967491072F10E0095F1F4F83E01595B3
:1038400007958A95E1F70A833196A4913196E49120
:103850006A1758F0462F50E08E2F90E0FC01EA0FD7
:10386000F11D4E175F070CF448C06D3031F460E075
:1038700089859A850E94631B14C16A3009F00EC1C4
:1038800060E089859A850E94631BE985FA858189B4
:10389000809F002D11248781869586958695658168
:1038A000600F902F981B960F2485222309F4F1C0F6
:1038B00019160CF0EEC0A985BA851B962C911B97A2
:1038C000920F97701B969C931B97801B15968C9359
:1038D0001597CD010E94C51BE985FA858485813045
:1038E00009F0DFC06385660F660F660F6F7362872E
:1038F0006064CF010E944B1BD4C0A9014A5F5F4F97
:103900006A1BA985BA851996FC9119975196EC9175
:10391000FE9FE02D1124E887F901A49131962491AE
:1039200030E03A2B2230310570F4409EC001419EB8
:10393000900D1124689F7001699FF00C1124E40E12
:10394000F51E312C22C0777021F028E0322E371A74
:1039500001C0312CFA0120E0A0E0B0E0261731F0E0
:103960003491A30FB11D2F5F3196F8CFFA01E20F0A
:10397000F11D44900A9F70010B9FF00C1A9FF00CF0
:103980001124E80EF91EE40EF51EA985BA851496D9
:10399000BC91BB83E985FA85F581FC83A985BA854D
:1039A0001D96BC91BD83E42DF0E0FF83EE83812C56
:1039B000912CC12CD12CC982FA81CF1608F068C095
:1039C000212C36019FEF691A790AA985BA8551968B
:1039D0008C915197281608F053C0ED811D96EC93F9
:1039E000F981F11102C0222051F0A985BA851596FE
:1039F0004C9115974F5F6B81CD010E94821BA12CCA
:103A0000B12CA41410F0B12C2FC0F501E80DF91D54
:103A1000EE0DFF1D5490332061F00615170549F493
:103A2000E52DF0E0032C02C0F595E7950A94E2F746
:103A30005E2EE985FA858189823069F4E52D2110B1
:103A4000E295EF70F0E0EA56FE4F5490652D8985BF
:103A50009A850E945719652D89859A850E94571964
:103A6000FFEFAF1ABF0ACDCF8885B81639F060E0F6
:103A700089859A850E945719B394F6CF2394A5CFD0
:103A80009FEFC91AD90AAE81BF818A0E9B1E93CFC0
:103A90006C8189859A850E94531B03C080E090E069
:103AA00002C081E090E02A960FB6F894DEBF0FBE08
:103AB000CDBFDF91CF911F910F91FF90EF90DF90DD
:103AC000CF90BF90AF909F908F907F906F905F90BE
:103AD0004F903F902F9008951F920F920FB60F9224
:103AE00011242F933F934F935F936F937F938F9303
:103AF0009F93AF93BF93EF93FF938091B900887F1B
:103B0000803609F49CC068F5883209F45BC090F4F3
:103B1000803109F454C038F4882309F4F6C08830A1
:103B200009F44DC0F6C0883109F44CC0803209F464
:103B30005DC0EFC0803409F468C048F4803309F4F4
:103B400055C0883309F0E5C08093C505D8C08035DD
:103B500009F44FC0883509F45DC0883409F0D9C034
:103B6000D6C0883909F4C7C0A8F4883709F467C0FB
:103B700038F4883609F463C0803709F460C0C9C0DE
:103B8000883809F4B8C0803909F45FC0803809F07A
:103B9000C0C05BC0803B09F486C038F4803A09F4A9
:103BA00066C0883A09F47FC0B4C0803C09F4A7C05D
:103BB000883C09F4A4C0883B09F48AC0AAC080915B
:103BC000A20510C09091C4058091C305981770F5A7
:103BD000E091C40581E08E0F8093C405F0E0ED55BF
:103BE000FA4F80818093BB0085EC86C08093C50529
:103BF0008EC0E091C40581E08E0F8093C405809152
:103C0000BB00F0E0ED55FA4F80839091C4058091A0
:103C1000C3056EC0E091C40581E08E0F8093C4059A
:103C20008091BB00F0E0ED55FA4F80838091C6058E
:103C300081116DC081E08093A10584EA61C083E0B9
:103C40008093C70510927605CFCF8091760580329C
:103C500008F051C0E091760581E08E0F80937605E3
:103C60008091BB00F0E0EA5AFA4F8083BDCF85EC2B
:103C70008093BC001092C70580917605803230F4A5
:103C8000E0917605F0E0EA5AFA4F108260917605ED
:103C900070E0E0911D04F0911E0486E595E0099521
:103CA0001092760536C084E08093C70510925505C2
:103CB00010925405E0911F04F09120040995809121
:103CC0005405811105C081E080935405109234059C
:103CD000E091550581E08E0F80935505F0E0EC5C96
:103CE000FA4F80818093BB009091550580915405D7
:103CF000981708F479CF85E88093BC000AC085EC5A
:103D00008093BC001092C70504C01092C5050E94A4
:103D10007419FF91EF91BF91AF919F918F917F9116
:103D20006F915F914F913F912F910F900FBE0F9028
:103D30001F901895AF92BF92CF92DF92EF92FF92B1
:103D40000F931F93CF93DF93CDB7DEB727970FB6AF
:103D5000F894DEBF0FBECDBF8C015C0162E5A60EFC
:103D6000B11C7C0173E5E70EF11C80E4C82ED12C58
:103D700044E050E0BE016F5F7F4FD80113968C91F5
:103D80000E941C16009709F454C0049709F051C012
:103D90002A813B818981E82FEF708E2F90E0FC0112
:103DA0003297EE30F105A0F4EC59FF4F0C945434E7
:103DB0002D8321E030E00EC02D833E8322E030E0F1
:103DC00009C08C812D833E838F8323E030E002C0C5
:103DD00020E030E0F5014081D7018C9190E0805CDB
:103DE0009F4F841B9109B6010E944034F601E81BE5
:103DF000F90BE217F3070CF4BBCFFE0135962E0F3B
:103E00003F1FE217F30709F4B3CFD7018C9190E07D
:103E1000BC016F5F7F4F6F737727461741F0D80162
:103E2000A80FB91F508152965C93D7016C933196BD
:103E3000E8CF27960FB6F894DEBF0FBECDBFDF9157
:103E4000CF911F910F91FF90EF90DF90CF90BF9097
:103E5000AF90089580912C05811133C082E080934A
:103E6000DC048093DD0483E492E09093DF0480938C
:103E7000DE041092E1041092E0048FE592E090934A
:103E8000D9048093D8041092E3041092E2041092B3
:103E9000E4041092E8041092E9041092E5041092F0
:103EA000E6041092E70410922A0510922B0580E494
:103EB000EAEEF4E0DF011D928A95E9F781E0809354
:103EC0002C0588ED94E008950E942A1FFC0183814F
:103ED0008F5F0C94C014CF93DF930E942A1FEC01D4
:103EE0000E949A1EFE01EE5AFF4F8081319690810A
:103EF000891721F0C80FD11D8A8901C080E090E0A8
:103F0000DF91CF9108950E942A1F0C947022CF93C5
:103F1000DF930E942A1FEC010E949A1EFE01EE5AB6
:103F2000FF4FCD5ADF4F81E090E03081288132137E
:103F300002C080E090E0DF91CF91089590E0FC0115
:103F40003197EF30F105B0F5EE58FF4F0C94543433
:103F5000809180008F7703C0809180008F7D809357
:103F60008000089580918000877FF9CF84B58F7796
:103F700002C084B58F7D84BD0895809190008F77B5
:103F800007C0809190008F7D03C080919000877F53
:103F90008093900008958091C0008F7703C0809136
:103FA000C0008F7D8093C00008958091C200877FFC
:103FB0008093C20008953FB7F89480917B0590915B
:103FC0007C05A0917D05B0917E0526B5A89B05C016
:103FD0002F3F19F00196A11DB11D3FBFBA2FA92F88
:103FE000982F8827820F911DA11DB11DBC01CD0105
:103FF00042E0660F771F881F991F4A95D1F70895F1
:104000000F931F93CF93DF93162F072FCAE7D7E0A5
:10401000998121E02093C8059093EA051092C90583
:104020001092EB05682F8CEE95E00E94011A602F2C
:104030008CEE95E00E94011A612F8CEE95E00E94B3
:10404000011A81E00E94CA238883DF91CF911F91DA
:104050000F9108958F929F92AF92BF92EF92FF922D
:104060000F931F93CF93DF937C01EB0180E50E94B8
:10407000BC248F5F880F90E09983888386E40E9438
:10408000BC24082F10E00F5F1F4F1D830C83A881F5
:10409000B0E020E03FE24AE350E00E94A5336C50DC
:1040A0007E4F8F4F9F4F38EE832E33E0932EA12CFF
:1040B000B12CA50194010E94EF33D8010E94B033C6
:1040C0006C507E4F8F4F9F4FA50194010E94EF339C
:1040D0002A873B874C875D8781E50E946F248C018E
:1040E000112702C0000F111F9A95E2F70F5F1F4FB3
:1040F0001F830E83A881B0E020E03FE24AE350E056
:104100000E94A5336C507E4F8F4F9F4FA5019401A5
:104110000E94EF33D8010E94A5336C507E4F8F4F21
:104120009F4FA50194010E94EF332E873F87488B54
:10413000598B80E70E94BC248F5F880F90E09B839F
:104140008A8381E70E946F249C01992702C0880F0F
:10415000991F3A95E2F7019699878887F70123819D
:10416000222331F02E813F81821B930B9987888710
:10417000AA81B0E020E03FE24AE350E00E94A5338C
:104180006C507E4F8F4F9F4F28EE822E23E0922E51
:10419000A12CB12CA50194010E94EF33A885B9850B
:1041A0000E94A5336C507E4F8F4F9F4FA501940105
:1041B0000E94EF332A8B3B8B4C8B5D8BDF91CF9131
:1041C0001F910F91FF90EF90BF90AF909F908F90B5
:1041D0000895CF93DF93EC0181E00E94BC2484FB1F
:1041E000992790F9988383FB992790F99A8382FB0A
:1041F000992790F9998386FB992790F99B83881FCB
:104200008827881F8C83DF91CF910895FC018081DE
:1042100091810C94F934CF93DF93EC01FB0144813D
:104220005581608171810E941714811103C0CE01F4
:104230000E944514CE01DF91CF910895EF92FF9235
:104240000F931F93CF93DF93CDB7DEB762970FB66F
:10425000F894DEBF0FBECDBF8C01CB01F8011182F7
:10426000108213821282158214824AE09E012F5F0F
:104270003F4F7901B9010E943B33F70101900020C3
:10428000E9F73197AF014E195F09B701C8010E94E4
:10429000701462960FB6F894DEBF0FBECDBFDF91EB
:1042A000CF911F910F91FF90EF900895EF92FF92A1
:1042B0000F931F93CF93DF93CDB7DEB729970FB638
:1042C000F894DEBF0FBECDBF8C01862FF80111829E
:1042D000108213821282158214824AE09E012F5F9F
:1042E0003F4F7901B90190E00E944633F7010190F8
:1042F0000020E9F73197AF014E195F09B701C801F6
:104300000E94701429960FB6F894DEBF0FBECDBF81
:10431000DF91CF911F910F91FF90EF900895CF9271
:10432000DF92EF92FF920F931F93CF93DF93CDB75E
:10433000DEB729970FB6F894DEBF0FBECDBF8091D0
:104340008F0790919007892B09F4BBC0C090950707
:10435000D0909607E0909707F09098070E94DB1F97
:104360006C157D058E059F0550F40E94DB1F609340
:1043700095077093960780939707909398070E94EC
:10438000DB1F0091950710919607209197073091B8
:104390009807DC01CB01801B910BA20BB30B8C3275
:1043A0009140A105B10590F2F89480918A0790910F
:1043B0008B079A838983E0918F07F0919007DF0143
:1043C00011968081898790918607E0919907F091F5
:1043D0009A0780919B07992309F42EC09081982B0E
:1043E00098879081809589238F838F818C8388E043
:1043F0008B8358856F8149853B812C8189819A8186
:10440000508347FD252F3A952083262F39F0441FEE
:1044100000C000006083000000C0F2CF38E04D9182
:1044200060830000019761F7F0939A07E093990782
:1044300049873B832C8338C09081982B9887908143
:10444000809589238F838F818E8388E08D83588523
:104450006F8149853D812E8189819A81508347FDF5
:10446000252F00C000C0208300C000C000C000C0D5
:1044700000C060830000262F3A9541F0441F0000E1
:1044800000C000C000C000C000C0E8CF38E04D91BF
:1044900000C0608300C0019709F7F0939A07E0938A
:1044A000990749873D832E839A83898378940E9454
:1044B000DB1F6093950770939607809397079093FF
:1044C000980729960FB6F894DEBF0FBECDBFDF91D7
:1044D000CF911F910F91FF90EF90DF90CF900895B3
:1044E000CF93DF93EC010E949A1EFE01EE5AFF4F1C
:1044F0002081DE01AD5ABF4F8C91281751F030E07A
:10450000C20FD31F8A892F5F3F4F2F73332720831A
:1045100001C080E090E0DF91CF910895CF93DF93C9
:10452000282F30E0F901E253FE4F8491F901E35B5B
:10453000F14FD491F901E658F14FC491CC2391F099
:1045400081110E949E1FEC2FF0E0EE0FFF1FE05440
:10455000FE4FA591B491EC91ED2381E090E021F420
:1045600080E002C080E090E0DF91CF9108951F933A
:10457000CF93DF93282F30E0F901E253FE4F84916F
:10458000F901E35BF14FD491F901E658F14FC49181
:10459000CC23C1F0162F81110E949E1FEC2FF0E05A
:1045A000EE0FFF1FE459F14FA591B4919FB7F89416
:1045B000111104C08C91D095D82302C0EC91DE2B50
:1045C000DC939FBFDF91CF911F910895CF93DF932D
:1045D00090E0FC01E35BF14F2491FC01E658F14FC0
:1045E0008491882361F190E0880F991FFC01EE54BB
:1045F000FE4FC591D491FC01E459F14FA591B491BE
:10460000611109C09FB7F89488812095822388831F
:10461000EC912E230BC0623061F49FB7F89488812F
:10462000322F309583238883EC912E2B2C939FBFC0
:1046300006C08FB7F894E8812E2B28838FBFDF91B7
:10464000CF910895823108F08251E82FF0E0EA55C9
:10465000FE4FE49180917B00E3FB222720F930E0BC
:1046600095E0220F331F9A95E1F78F7D282B209339
:104670007B008091450220E4829FC0011124E770F5
:10468000E82BE0937C0080917A00806480937A002C
:1046900080917A0086FDFCCF80917800209179008E
:1046A00090E0922B08958F929F92AF92BF92CF92FB
:1046B000DF92EF92FF926B017C010E94DB1F4B01A6
:1046C0005C01C114D104E104F104F1F00E94DB1F8C
:1046D000DC01CB0188199909AA09BB09883E9340DE
:1046E000A105B10570F321E0C21AD108E108F10873
:1046F00088EE880E83E0981EA11CB11CC114D10461
:10470000E104F10419F7DDCFFF90EF90DF90CF9037
:10471000BF90AF909F908F9008952FB7F8946091BD
:104720007705709178058091790590917A052FBF72
:104730000895682F616080E00E949A240E948D2372
:104740007093800760937F0783E10E94BC24877089
:10475000B9F480917C0790917D07892BA9F30E9481
:104760008D2320917F0730918007621B730B80910E
:104770007C0790917D078617970730F780E00895B2
:1047800061E08BE00E949A2460E080E00E949A241D
:1047900081E00895282F3091EB05313208F04AC0AE
:1047A0008091C7058111FCCF9091EA0542E04093CA
:1047B000C7052093C6052FEF2093C5051092C405A9
:1047C0003093C305EAECF5E0A3EAB5E020E0321748
:1047D00021F041914D932F5FFACF1092A2052091C5
:1047E000A205990F922B9093A2059091A10591306B
:1047F00061F41092A1059091A2059093BB00909155
:10480000BC0093FDF8CF95EC01C095EE9093BC00F1
:104810009091C7059230E1F39091C5059F3F79F0E3
:104820008091C505803241F08091C505803331F01B
:1048300084E005C081E003C082E001C083E0109203
:10484000C9051092EB051092C80508959091C7050F
:104850009111FCCF613208F060E291E09093C705BE
:104860009093C6052FEF2093C5051092C405260F1F
:104870002093C3059093A2059091A205880F892BE0
:104880008093A2058091A105813061F41092A10569
:104890008091A2058093BB008091BC0083FDF8CF7E
:1048A00085EC01C085EE8093BC008091C705813006
:1048B000E1F38091C405861710F46091C405E3EA22
:1048C000F5E0A1E8B5E080E0861721F091919D9395
:1048D0008F5FFACF1092800580937F050895CF9364
:1048E000DF93CAE7D7E0998121E02093C805909330
:1048F000EA051092C9051092EB05682F8CEE95E041
:104900000E94011A81E00E94CA23888362E08981A3
:104910000E9426248CEE95E00E94B819D82F80E0E2
:10492000C82F8CEE95E00E94B8198C2B9D2BDF913F
:10493000CF9108951F93CF93DF93162FCAE7D7E047
:10494000998121E02093C8059093EA051092C9054A
:104950001092EB05682F8CEE95E00E94011A612FF2
:104960008CEE95E00E94011A81E00E94CA238883A0
:10497000DF91CF911F910895CF93DF93CAE7D7E0DE
:10498000998121E02093C8059093EA051092C9050A
:104990001092EB05682F8CEE95E00E94011A81E0E1
:1049A0000E94CA23888361E089810E9426248CEEBC
:1049B00095E00E94B819DF91CF9108950F93CF939E
:1049C000DF93EC011B861A8660E40E944B1B0F816B
:1049D00006950695069501504E81415020E060E015
:1049E000CE010E94901BDF91CF910F91089590937B
:1049F000AB078093AA07009741F0FC012491319600
:104A0000849190E0922B019721F081E08093A5079B
:104A100008951092A50708950F931F93CF93DF93E6
:104A2000EC01162F042F213049F028F0233051F4E7
:104A30008DEE91E005C087E69CE002C081E297E040
:104A40000E94F72481E08093AD07402F612F8CE90D
:104A500097E00E94821B4C815D81688179818CE99D
:104A600097E0DF91CF911F910F910C94E4121F9268
:104A70000F920FB60F9211242F933F938F939F9312
:104A8000AF93BF938091770590917805A0917905B8
:104A9000B0917A053091030823E0230F2D3720F4DD
:104AA0000196A11DB11D05C026E8230F0296A11D88
:104AB000B11D209303088093770590937805A09308
:104AC0007905B0937A0580917B0590917C05A09142
:104AD0007D05B0917E050196A11DB11D80937B05DA
:104AE00090937C05A0937D05B0937E05BF91AF9117
:104AF0009F918F913F912F910F900FBE0F901F901C
:104B00001895CF93DF93CDB7DEB7A8970FB6F8947B
:104B1000DEBF0FBECDBF789484B5826084BD84B5FE
:104B2000816084BD85B5826085BD85B5816085BDA8
:104B300080916E00816080936E0010928100809160
:104B400081008260809381008091810081608093E8
:104B5000810080918000816080938000809191002D
:104B60008260809391008091910081608093910098
:104B7000809190008160809390008091C10084605A
:104B80008093C1008091C10082608093C1008091B8
:104B9000C10081608093C1008091C30081608093D7
:104BA000C3008091C00082608093C0008091C200E9
:104BB00081608093C20080917A00846080937A0043
:104BC00080917A00826080937A0080917A0081607F
:104BD00080937A0080917A00806880937A001092A6
:104BE0001C0410921B0410921A048091D70081605B
:104BF0008093D70080EA8093D80089B5806189BD11
:104C000089B5826089BD09B400FEFDCF61E070E026
:104C100080E090E00E9453238091D8008F7C8061D7
:104C20008093D8008091E000807F8093E0008091A5
:104C3000E1008E7E8093E1008DE08093E200559A42
:104C4000209A60E087E00E94E6228EEF93E00E94C7
:104C50007033182F8430D8F16DEB72E0CE010196DD
:104C60000E94AB1420E040E060E0CE0101960E947B
:104C70000C25CE0101960E94062160E08FEF93E0A3
:104C80000E947833E1E0F1E080E09FE710868187C1
:104C9000978316828F5F3A968F31C1F780E00E942A
:104CA000E90D81E00E94E90D82E00E94E90D83E0B8
:104CB0000E94E90D1092000184E893E09A838983B1
:104CC00060E0CE0101960E946F0D10E008C00E94C6
:104CD000880D84E893E00E94703380930001E09196
:104CE0003706F09138060190F081E02DA089B18956
:104CF00082E08C93A485B5851C92A685B7858FE349
:104D00008C93108EA489B58986E08C93A289B3898F
:104D10008C9180618C93A289B3898C9188608C93EB
:104D2000A289B3898C9180688C930288F389E02DE5
:104D300080818F7D808381E08093390610923B06CD
:104D400010923A06109242061092410610924006C6
:104D500010923F068FEF9FEF909344068093430697
:104D600090934606809345060E948D236093CF065C
:104D70007093D0068093D1069093D2061092CC0601
:104D8000109249061092480610924A0610924B065D
:104D90001092CE061092CD068091470681708260F7
:104DA00081608093470680918C0790918D0797FDD5
:104DB00008C061E00E94E62260E080918C070E94BA
:104DC000B72281E08093870760918E07633321F1DA
:104DD00020918F0730919007615031F070E08FEF94
:104DE00092E30E942C3402C060E070E0F90140912F
:104DF0008A0750918B07CF01821B930B841795076D
:104E000040F44081469FC001479F900D112491932B
:104E1000EECF83E380938E0700E020E040E060E087
:104E2000802F0E943E0C0F5F0430B9F70E948F2143
:104E300061E08CE00E94E62261E086E00E94E622CA
:104E400060E085E00E94E62260E086E00E94B722F2
:104E500061E08CE00E94B7220E94380B6093BB0493
:104E60007093BC048093BD049093BE0410924502DD
:104E700093E5E92E92E0F92E2BE5C22E22E0D22E08
:104E8000F7010081F2E0EF0EF11C61E0802F0E943B
:104E9000E62260E0802F0E94B722CE14DF0481F763
:104EA0001092800510927F051092C9051092EB05B3
:104EB0001092C70581E08093C6051092A10561E0BC
:104EC00082E00E94B72261E083E00E94B7228091D5
:104ED000B9008E7F8093B9008091B9008D7F809357
:104EE000B90088E48093B80085E48093BC0086EA2A
:104EF00099E19093200480931F0487EA99E19093AD
:104F00001E0480931D048CE08093B8001092B007BB
:104F10009CE39093AF071092B9008093B800109271
:104F2000A0071092A107EBE1F1E085919491D82EB2
:104F3000EDE1F1E00491EEE1F1E0E491E093A2070C
:104F4000EFE1F1E0E491E093A307E0E2F1E0E49126
:104F5000E093A4077C018E2D8D19801750F4F70182
:104F600064918CE997E00E944B1BFFEFEF1AFF0A58
:104F7000F2CF8CE997E00E94DE2484EF91E09093D9
:104F80007D0780937C0780EC0E94BC248E3E09F054
:104F9000DCC389E80E94BC24682F616089E80E9414
:104FA0009A2460E088E80E949A2461E080E80E94E8
:104FB0009A2461E08FEF0E949A2460E080E00E94D2
:104FC0009A2481E90E94BC248093810761E080E0FB
:104FD0000E949A2460E08FEF0E949A2460E080E8AB
:104FE0000E949A2480E60E94BC24682F626180E6B9
:104FF0000E949A2460E270E084E40E9400206FEF37
:1050000081E00E949A2461E080E80E949A2461E095
:105010008FEF0E949A2460E080E00E949A2466E06C
:105020008FEF0E949A2483E80E94BC24682F64605A
:1050300083E80E949A2467E08FEF0E949A2461E03F
:1050400081E80E949A2461E080E80E949A246BE63D
:1050500084E90E949A2460E083E80E949A240E94D6
:105060008D237093800760937F0783E80E94BC24A0
:10507000811116C080917C0790917D07892BA9F33F
:105080000E948D2320917F0730918007621B730B54
:1050900080917C0790917D078617970730F755C35D
:1050A00061E083E80E949A2482E90E94BC24C82E11
:1050B000082F0F7760E081E80E949A2466E08FEF66
:1050C0000E949A2483E80E94BC24682F6B7F83E8A7
:1050D0000E949A2461E08FEF0E949A2461E080E0B0
:1050E0000E949A2460E08FEF0E949A2460E080E89A
:1050F0000E949A2480917B0791E09093C805809349
:10510000EA051092C9051092EB0560EB8CEE95E074
:105110000E94011A81E00E94CA2380937A0766E008
:1051200080917B070E9426247E0127E1E20EF11C7C
:10513000570187E0D82EDA94DD2041F08CEE95E01F
:105140000E94B819F50181935F01F5CF61E08FEFFF
:105150000E949A2460E08FE40E949A246CE28EE41C
:105160000E949A2460E08FEF0E949A2464EB86EB01
:105170000E949A24C7FE02C06CE001C060E090E08B
:1051800080E041E050E0282F269526952695782F3F
:105190007770F701E20FF11D861710F090130AC027
:1051A0009A0101C0220F7A95EAF7209530812323D6
:1051B000208309C0208130E002C0359527957A957B
:1051C000E2F720FD9F5F8F5F8033E9F680917B07D8
:1051D00091E09093C8058093EA051092C90510925A
:1051E000EB0560EB8CEE95E00E94011A07E00150A0
:1051F00041F0F70161917F018CEE95E00E94011A68
:10520000F6CF81E00E94CA2380937A0761E08FEF96
:105210000E949A2460E080E00E949A2460E08FEF70
:105220000E949A2460E089E00E949A2460E080E174
:105230000E949A2460E081E10E949A2461E084E265
:105240000E949A246FEF85E20E949A2460E085E72D
:105250000E949A2461E08FEF0E949A246CE28EE40F
:105260000E949A2460E088E40E949A2460E280E32D
:105270000E949A2460E08FEF0E949A2469E080E304
:105280000E949A2460E084E50E949A2464E081E30D
:105290000E949A2463E082E30E949A2463E880E4F7
:1052A0000E949A2465E286E40E949A2460E080E6E7
:1052B0000E949A2460E087E20E949A2466E080E5DA
:1052C0000E949A2460E081E50E949A2466E982E5C2
:1052D0000E949A2468E086E50E949A2460E387E5AC
:1052E0000E949A2460E081E60E949A2460E082E6AF
:1052F0000E949A2460E084E60E949A2460E085E699
:105300000E949A2460EA86E60E949A2461E08FEF68
:105310000E949A2462E382E20E949A2464E187E474
:105320000E949A246FEF89E40E949A2460E08AE444
:105330000E949A2460E08FEF0E949A246AE08AE734
:105340000E949A2460E08BE70E949A2461E288E739
:105350000E949A2461E08FEF0E949A2464E383E222
:105360000E949A2460E082E40E949A246FEF84E411
:105370000E949A2466E285E40E949A2465E086E40D
:105380000E949A2460E480E40E949A2466E08EE001
:105390000E949A246AE180E20E949A2460E483E4F5
:1053A0000E949A2460E08FEF0E949A2463E084E3D5
:1053B0000E949A2464E485E30E949A2461E08FEFBE
:1053C0000E949A2464E081E30E949A2469E08BE4BD
:1053D0000E949A2465E08CE40E949A2464E08DE4A3
:1053E0000E949A2460E08FEF0E949A2460E084E497
:1053F0000E949A2460E285E40E949A2468E087E48F
:105400000E949A2468E288E40E949A2460E087E679
:105410000E949A2464E080E70E949A2461E081E778
:105420000E949A246EEF82E70E949A2460E086E749
:105430000E949A2460E087E70E949A2461E08FEF3F
:105440000E949A2461E08DE00E949A2460E08FEF30
:105450000E949A2461E080E80E949A2468EF81E02B
:105460000E949A2461E08FEF0E949A2461E08EE806
:105470000E949A2461E080E00E949A2460E08FEF0D
:105480000E949A2460E080E80E949A2464E08AE006
:105490000E949A2484E80E94BC24682F6F7E84E8CE
:1054A0000E949A2461E08BE00E949A24CE014D96DE
:1054B0000E94E920BE016F5F7F4FCE014D960E9492
:1054C0002A208D8D882349F08B859C85AD85BE85EE
:1054D0008C57924FAF4FBF4F04C086E39BE0A0E0D4
:1054E000B0E02F8D222369F04B855C856D857E852C
:1054F0004E545D4F6F4F7F4F440F551F661F771FF0
:105500000BC02E8D222361F04B855C856D857E85D9
:105510004C565D4F6F4F7F4F840F951FA61FB71FCF
:1055200028A1222361F04F85588969897A894C56D0
:105530005D4F6F4F7F4F840F951FA61FB71F29A187
:10554000222361F04B895C896D897E894A5D5D4FBC
:105550006F4F7F4F840F951FA61FB71F8093820741
:1055600090938307A0938407B093850768EE81E04A
:105570000E949A24C0908207D0908307E09084070D
:10558000F0908507F0E2CF16FEE4DF06E104F104B7
:1055900008F4C5C0CE014D960E94E920BE016F5FA0
:1055A0007F4FCE014D960E942A208D8D882349F091
:1055B0008B859C85AD85BE858C57924FAF4FBF4F75
:1055C00004C086E39BE0A0E0B0E02F8D222369F0C9
:1055D0004B855C856D857E854E545D4F6F4F7F4F4B
:1055E000440F551F661F771F0BC02E8D222361F0BD
:1055F0004B855C856D857E854C565D4F6F4F7F4F2B
:10560000840F951FA61FB71F08A1002361F04F85C7
:10561000588969897A894C565D4F6F4F7F4F840F47
:10562000951FA61FB71F29A1222309F478C02C01BA
:105630003D0126E2420E22E0521E611C711CC41480
:10564000D504E604F70408F46AC0AB81B0E020E0BA
:105650003FE24AE350E00E94A5334B015C0134EF86
:10566000830E31E0931EA11CB11CA70196012419E1
:10567000350946095709A8EEB3E00E94A5332B016E
:105680003C01C501B40120ED37E040E050E00E944C
:10569000EF33420E531E641E751EC501B40128EE81
:1056A00033E040E050E00E94EF33C301B2010E94BA
:1056B000EF33002331F08F819885280F391F411D6A
:1056C000511D2115310541055105E1F049015A01EE
:1056D00081E0881A9108A108B10860E070E0D50166
:1056E000C4018827892B8A2B8B2B39F0B694A79479
:1056F000979487946F5F7F4FF2CF762F6627682944
:10570000792902C060E070E081E70E940020C09229
:105710008207D0928307E0928407F092850761E0C8
:1057200081E00E949A2480E40E949923882369F0F2
:1057300062E081E00E949A2480E00E9499238823FD
:1057400021F068EE81E00E949A2461E080E80E94E6
:105750009A2461E08FEF0E949A2460E080E00E942A
:105760009A246091810781E90E949A2461E080E097
:105770000E949A2460E08FEF0E949A2460E080E803
:105780000E949A2462E080E00E949A248EEF93E0C7
:105790000E9470330E94880D65EC72E0CE01839602
:1057A0000E94AB1440E06AE28CE997E00E94821B01
:1057B0008DEE91E00E94F72400E0802F90E02FA171
:1057C00038A582179307C0F4EBA1FCA1309729F408
:1057D0001092C304E3ECF4E002C0E80FF91F60810B
:1057E0008CE997E00E94F01B68EC70E080E090E0AC
:1057F0000E9453230F5FE1CF6BEC72E0CE01019664
:105800000E94AB1420E043E064E1CE0101960E94C7
:105810000C25CE0101960E94062160E273E080E033
:1058200090E00E94532364EF71E080E090E00E94DA
:105830005323612F70E06F5F7F4FCE0147960E9428
:105840001E216BED72E0CE014D960E94AB14BE019D
:10585000695E7F4FCE014D960E940B21BC01CE01A7
:1058600001960E94911420E043E060E0CE01019691
:105870000E940C25CE0101960E940621CE014D9674
:105880000E940621CE0147960E9406218CE997E0EE
:105890000E94C51B68EE73E080E090E00E945323F5
:1058A00069EE72E0CE0101960E94AB1420E043E065
:1058B00069E6CE0101960E940C25CE0101960E9458
:1058C000062164EF71E080E090E00E94532360E0E5
:1058D0008CE997E00E94631B8CE997E00E94C51B4E
:1058E00043E060E08CE997E00E94821B10E047E310
:1058F000E42E42E0F42E0AE00E94EA0A0E949D098A
:1059000037E3C32E32E0D32EE1E0F1E015823A9680
:10591000EE16FF06D9F7812F0E94150D0E948F21E8
:10592000812F602F0E942034913041F441E050E0FB
:105930006DE573E08CE997E00E94E41262E070E0AC
:1059400080E090E00E9453231F5F1F3FA9F68091E3
:10595000B804882349F00E94970B68EC70E080E05F
:1059600090E00E945323F3CF8CE997E00E94DE245D
:10597000CE0183960E9406210AE02FE7822E912C09
:10598000A12CB12C0E948D236093BF047093C0049E
:105990008093C1049093C2040E94EA0A0E94380BCB
:1059A0006093BB047093BC048093BD049093BE04C9
:1059B0000E94970B87E00E947E0B81112BC00E94F2
:1059C0008D237093800760937F0783E10E94BC243E
:1059D0008770C9F480917C0790917D07892BA9F38A
:1059E0000E948D2320917F0730918007621B730BEB
:1059F00080917C0790917D078617970730F781E0AB
:105A000080937E0707C08EE10E946F2461E08BE0E7
:105A10000E949A248091BA04811107C00E949D09B6
:105A200080910506811124C014C0E4E7F4E0808170
:105A300091818F3F21E0920714F4C29601C0C29772
:105A400091838083329680EB94E08E179F0779F7DD
:105A5000E5CF8091B604882309F4CCC281E080931D
:105A600005068091730480930B060E94510EC2C2FA
:105A70008091060681112AC080916204882361F01A
:105A800080910406863019F41092040603C08F5FDB
:105A9000809304060E94510E80916D04882369F062
:105AA00080910406811104C096E09093040603C01F
:105AB0008150809304060E94510E8091B604882381
:105AC00009F47CC281E08093060676C2E091040668
:105AD0008E2F90E08730910508F068C2FC01EA5AE9
