:100000000C9441070C9469070C9469070C946907D8
:100010000C9469070C9469070C9469070C946907A0
:100020000C9469070C9469070C94EA110C94BA13A8
:100030000C9469070C9469070C9469070C94690780
:100040000C9469070C9469070C9469070C94690770
:100050000C9469070C9469070C9469070C940422AA
:100060000C9469070C941E160C94F8150C946907EF
:100070000C9469070C9469070C9469070C94690740
:100080000C9469070C9469070C9469070C94690730
:100090000C94BB1A0C9469070C9469070C946907BB
:1000A0000C9469070C9469070C9469075A2B9A2BD6
:1000B000E32B282C3A2C482CC82C8D0BD10BE90BA8
:1000C000EC0BF60BF90BFC0B6D1C701C5F1C631C1E
:1000D000691C911C911C911C741C781C7C1C821C3A
:1000E000861C911C8C1CAED580A81FD300408D149B
:1000F0002002A1C8DA02817FD9F1DB40A4A6AFE6D5
:100100000019802000080B0002020201000904000F
:100110000001020200000524001001052401010174
:10012000042402060524060001070581031000408F
:1001300009040100020A0000000705020240000055
:10014000070583024000000403090412010002EFC6
:100150000201404123368000010102030141726423
:1001600075696E6F204C4C430041726475696E6F07
:10017000204C656F6E6172646F0000030C0F3033AA
:100180003C3FC0C3CCCFF0F3FCFF070605040100E1
:10019000080A0B0C0D0900000000240027002A00AB
:1001A0002D003000000000002300260029002C0054
:1001B0002F000000000200090F0000030401000CE2
:1001C000000000000000000000000000000000002F
:1001D0000022080D0E20600402050607080902032C
:1001E00003050802040204070407070707070707B7
:1001F000070202070707080E090808080707090889
:10020000020708070B0809070909070808090D076D
:10021000080804040406080307070607070507077C
:10022000020306020A0707070705060507070B066C
:10023000070505010507080000000000000000FE9A
:10024000FE18181E1E001E1E000000000090F89EE2
:1002500090F89E1C00001C0000183C26FF66CC880D
:10026000040C183C180C041C221CC0308E4080006A
:10027000001804000C100C80CC7E72F2DE0C8000A2
:100280000C1C1010101C0C1C101E1E0000F0FC0694
:100290001C7CC006FCF0C07C1C14140E141400005E
:1002A000000000606060FCFC6060600000000C0CFE
:1002B00000000000005838C0C0C0C00000000000AE
:1002C00000181800C0380618040000F8FC0E060ECE
:1002D000FCF8040C1C181C0C04180CFEFE00001C7E
:1002E0001C181C86C6663E1C181C1C18181818887A
:1002F0008C062626FEDC040C1C18180C04C0E0B882
:100300008CFEFE80040404041C1C04707E3E363601
:10031000F6C60C1C1818180C04F8FC6E6666EECCB9
:10032000040C1818181C0C060606E6761E060000BB
:100330001C1C0000009CFE666666FE9C0C1C1818C7
:10034000181C0C3C7E666666FCF80C1C18181C0C0D
:100350000418181818181858386060F0F098980C9D
:100360000000000004040CD8D8D8D8D8D8D8000091
:1003700000000000000C9898F0F060600C0404008D
:10038000000000080C06C6E6763C180000001818AD
:10039000000000E03008C4F63A1A1AF2FA7E0408A7
:1003A000F00C30604C9C98988C9C9C90484C2000A1
:1003B000C0F8BE86BEF8C000181C04040404041C67
:1003C00018FEFE66666666FEDC1C1C181818181CF3
:1003D0000CF8FC0E06060E9C08040C1C18181C0CCD
:1003E00004FEFE0606060EFCF81C1C1818181C0C51
:1003F00004FEFE66666666661C1C1818181818FE51
:10040000FE66666666061C1C0000000000F8FC0E16
:100410000606C6CEDCC8040C1C181818180C04FEFE
:10042000FE60606060FEFE1C1C000000001C1CFEE4
:10043000FE1C1C8080000000FEFE0C1C1818181CFE
:100440000CFEFE603078EC86021C1C000000041CD0
:1004500018FEFE00000000001C1C1818181818FEDA
:10046000FE0E7CE000E07C0EFEFE1C1C00000C1C5E
:100470000C00001C1CFEFE1C78E080FEFE1C1C0014
:1004800000040C1C1CF8FC0E0606060EFCF8040CFE
:100490001C1818181C0C04FEFE6666667E3C1C1CAC
:1004A0000000000000F8FC0E0686060EFCF8040CA6
:1004B0001C18181C0C1C24FEFE6666E6E6BE1C001A
:1004C0001C1C0000000C1C18103C7E666666EECCFE
:1004D0000C1C1818181C0C060606FEFE0606060064
:1004E00000001C1C000000FEFE00000000FEFE04D8
:1004F0000C1C18181C0C04021EFCE000E0FC1E0280
:100500000000001C1C1C00000006FEF800F0FE0E9F
:10051000FEF000F8FE0600001C1C1C0000001C1C65
:100520001C0000060EF8F0F80E06181C0400041C4F
:1005300018060E38F0F0380E060000001C1C0000F3
:1005400000060686E6761E0E06181C1C18181818DB
:1005500018FEFE0606FCFCC0C00638C00000000401
:10056000180606FEFEC0C0FCFC20380E0E38200027
:1005700000000000000000000000000000808080FB
:1005800080808080800206040000001098D858F80F
:10059000F0000C1C18180C1C10FEFE301838F0E08F
:1005A0001C1C0C181C0C04E0F018183830040C1833
:1005B000181C0CE0F0381830FEFE040C1C180C1C43
:1005C0001CE0F0D8D8D8F0E0040C18181818081857
:1005D000FCFE1A1A001C1C0000E0F0381830F8F875
:1005E00064ECDCD8CCFC7CFEFE301818F8F01C1C47
:1005F0000000001C1CFAFA1C1C00FAFAC0FC7CFE6D
:10060000FEE0F098081C1C00041C18FEFE1C1CF8E0
:10061000F81018F8F01818F8F01C1C00001C1C004A
:10062000001C1CF8F8301818F8F01C1C0000001C06
:100630001CE0F0381838F0E0040C1C181C0C04F80E
:10064000F8301838F0E0FCFC0C181C0C04E0F03812
:100650001830F8F8040C1C180CFCFCF8F8301818CA
:100660001C1C00000070F8D8D8D890081818181C66
:100670000C18FCFE1818000C1C1818F8F8000000E4
:10068000F8F80C1C18180C1C1C38F8C000C0F838FE
:1006900000001C1C1C000018F8E000F038F000E01E
:1006A000F81800001C1C0C000C1C1C00001838E082
:1006B000E03818181C04041C1818F8E000E0F818BA
:1006C0000084FCF83C04001898D878381C1C1818D2
:1006D0001880FC7E0606007CFCC0C0FEFC06067E80
:1006E000FC80C0C0FC7C0060303070606030000076
:1006F0000000000000FE020202020202FE1C1010B6
:10070000101010101C0000070E20600000000000F8
:100710000000000000000000000000FC00000000DD
:1007200000000D00000000003C003C000000000044
:10073000000000000020F82020F82000010701013F
:100740000701006090F89010000004040F040300FB
:100750000018249860100C000C02010609060030F5
:10076000C8C8300000000708080906090000003C5E
:1007700000000000000000000000000000E018047D
:1007800002000000030C102000020418E00000002A
:1007900020100C0300000080A0C0C0A08000000258
:1007A0000101020000808080F0808080000000074E
:1007B0000000000000000000000020180C040000F1
:1007C0000080808080808000000000000000000029
:1007D00000000000000000081C080000000000806D
:1007E0006018060018060100000000F008844408A4
:1007F000F00003040808040300201008FC000000B7
:100800000000000F000000180404844438000C0AA3
:1008100009080808000804444444B8000608080809
:1008200008070080601804FC0000010101010F01AD
:10083000007C24242424C40006080808080700F8C3
:100840008444444488000708080808070004040496
:10085000C4340C00000C0300000000B844444444BD
:10086000B800070808080807007884848444F80062
:100870000408080808070000207020000000000895
:100880001C080000000020702000000020180C044C
:100890000000008040201008000000010204080051
:1008A00000404040404040000202020202020000BC
:1008B0000810204080000008040201000004844465
:1008C00024180000000D0000000000F008C42424DB
:1008D000F8000304090A0A0300F884848484F800F9
:1008E0000F000000000F00FC4444447880000F0813
:1008F0000808080700F8040404041800070808089A
:10090000080600FC04040408F0000F0808080403AB
:1009100000FC4444444404000F080808080800FC94
:100920004444444404000F000000000000F80404A4
:100930008484980007080808080700FC40404040ED
:10094000FC000F000000000F000404FC0404000081
:1009500008080F080800000000040404FC00060852
:100960000808080700FC4020D00804000F00000021
:10097000030C00FC0000000000000F080808080835
:1009800000FC1860806018FC0F00000100000FFCE4
:1009900018608000FC000F000001060F00F804043E
:1009A0000404F80007080808080700FC848484840D
:1009B00078000F000000000000F804040404F800B0
:1009C0000708080E181700FC8484848478000F0040
:1009D000010204080038444484840800040808081C
:1009E000080700040404FC0404040000000F0000D5
:1009F00000FC00000000FC0007080808080700FCD5
:100A000000000000FC0000030C0C030000FC0000D0
:100A1000C00000FC030C0300030C030C30C0C0300A
:100A20000C000C030000030C003C408080403C00A4
:100A30000000000F00000004048444340C000C0A81
:100A400009080808000000FE0202020000003F2022
:100A50002020000618608000000000000001061839
:100A600000020202FE0000002020203F00000010D3
:100A7000080404081000000000000000000000004E
:100A8000000000002020202020200000040C18205E
:100A900000000000000000000000A0A0A0A0C00016
:100AA00007080808040F00FC40202020C0000F04A5
:100AB0000808080700C02020202040000708080878
:100AC000080400C020202040FC0007080808040F8C
:100AD00000C020202020C000070909090909008062
:100AE000F88484840800000F0000000000C020206B
:100AF0002040E00023444444423F00FC40202020AA
:100B0000C0000F000000000F00002020EC000000DB
:100B10000000000F00000000002020EC000010206A
:100B200020201F0000FC0080402000000F01010277
:100B300004080000FC00000000000007080808008E
:100B400000E02020C02020C00F00000300000FE0C4
:100B500040202020C0000F000000000F00C0202017
:100B60002020C00007080808080700E040202020D7
:100B7000C0007F020404040300C020202040E000E5
:100B800003040404027F00E04020202040000F0006
:100B90000000000000C020202020400004090909B6
:100BA00009060020F820202000000007080808049B
:100BB00000E000000000E00007080808040F00E063
:100BC00000000000E00000030C0C030000E0000047
:100BD000800000E0070804030408072040808040EC
:100BE000200008040202040800E000000000E00009
:100BF00023444444423F0020202020A06000080CF1
:100C00000A090808000080807C0202000000001F22
:100C10002020000000FE0000000000001F00000077
:100C20000002027C8080000020201F0000000030B5
:100C300008081020201800000000000000FEFEFE42
:100C4000FEFEFEFE7F7F7F7F7F7F7F000005072007
:100C500060000000000000005F00000003000300CF
:100C6000143E143E14242A7F2A1243330866613648
:100C7000495522500005030000001C22410000419C
:100C8000221C0014083E081408083E0808005030D2
:100C90000000080808080800606000002010080430
:100CA000023E5149453E0004027F004261514946DF
:100CB00022414949361814127F1027454545393ECF
:100CC00049494932010171090736494949362649DE
:100CD00049493E003636000000563600000814220E
:100CE0004100141414141400412214080201510983
:100CF000063E4159555E7E0909097E7F49494936BC
:100D00003E414141227F4141413E7F494949417F26
:100D1000090909013E4141493A7F0808087F00411D
:100D20007F4100304040403F7F081422417F4040D7
:100D300040407F020C027F7F0204087F3E41414118
:100D40003E7F090909061E2121215E7F09090976D6
:100D5000264949493201017F01013F4040403F1F80
:100D60002040201F7F2010207F41221C22410708A5
:100D70007008076151494543007F410000020408A3
:100D800010200000417F0004020102044040404066
:100D900040000102040020545454787F44444438F5
:100DA0003844444444384444447F38545454180428
:100DB000047E0505085454543C7F0804047800441C
:100DC0007D40002040443D007F1028440000417FCA
:100DD00040007C047804787C080404783844444457
:100DE000387C14141408081414147C007C080404BF
:100DF000485454542004043F44443C4040207C1C4C
:100E00002040201C3C4030403C44281028440C50DA
:100E100050503C4464544C44000836414100007F2B
:100E20000000414136080002010204027F7F7F7FFB
:100E30007F0408020110408040102040804080085C
:100E40000204018040201002011080102040402048
:100E500000000000250028002B002E0031000404B3
:100E60000404040304050202020204030202020253
:100E70000606060606060404020202040400E42F25
:100E8000D42F11241FBECFEFDAE0DEBFCDBF15E0B7
:100E9000A0E0B1E0ECE2FAE602C005900D92AC32BF
:100EA000B107D9F729E0ACE2B5E001C01D92AD3C35
:100EB000B207E1F717E0C0E4D7E004C02197FE01D4
:100EC0000E94F832CF33D107C9F70E944E220C940A
:100ED00009350C9400008F929F92AF92BF92CF92EF
:100EE000DF92EF92FF920F931F93FC0111861286FF
:100EF000168217826083808561110BC0811120C02A
:100F0000118281E0808786832283338344835583E3
:100F10001AC08823A9F0108681E08783C280D3801D
:100F2000E480F58049015A018C189D08AE08BF087D
:100F30000CE2801601E09006A104B1040CF4818754
:100F40008181811117C080858823A1F082819381DE
:100F5000A481B58149015A01881A990AAA0ABB0AD3
:100F600005EF801601E09006A104B1041CF081E0B9
:100F7000828781831F910F91FF90EF90DF90CF9038
:100F8000BF90AF909F908F900895FC016093BC003C
:100F90008091BC0087FFFCCF9091B900987F90832F
:100FA0000895CF92DF92EF92FF920F931F93CF930A
:100FB000DF93EC01C62ED42E8C89882351F0411189
:100FC00008C084E98093BC008091BC0084FDFCCF04
:100FD0001C8AEC888E010E5E1F4FE11014C0FB8846
:100FE00064EAC8010E94C5078A89883011F18031FE
:100FF00001F1DD2011F080E4E82EE092BB0064E80E
:10100000C8010E94C507C092BB0064E8C8010E94E5
:10101000C50782E0D81204C08C898F5F8C8B11C009
:1010200084E98093BC008091BC0084FDFCCF1C8AC5
:1010300008C0FF0CF092BB0064E8C8010E94C5071D
:10104000D8CFDF91CF911F910F91FF90EF90DF905C
:10105000CF900895089580E090E008956F927F9278
:101060008F929F92AF92BF92CF92DF92EF92FF92B8
:101070000F931F93CF93DF9300D000D0CDB7DEB78F
:10108000682E8FEF93E00E942032681629F0662DBB
:101090008FEF93E00E94283201E011E084E9689E1E
:1010A00030011124E12CF12C43018E0C9F1CFE0118
:1010B00031965F01CC24C394D12CC601880D991DB3
:1010C0000E942032F50181935F01FFEFCF1ADF0A02
:1010D00085E0C816D10489F78981F80185878A815E
:1010E00086878B8185838C818683015F1F4FF4E027
:1010F000EF0EF11C84E9E816F104B1F60F900F90A1
:101100000F900F90DF91CF911F910F91FF90EF9073
:10111000DF90CF90BF90AF909F908F907F906F9017
:1011200008952F923F924F925F926F927F928F928B
:101130009F92AF92BF92CF92DF92EF92FF920F9366
:101140001F93CF93DF9300D000D01F92CDB7DEB7AF
:10115000F82E8FEF93E00E942032F81629F06F2DC1
:101160008FEF93E00E94283201E011E0CE0101965A
:101170003C01E4E9FE9EC00111241C012618370839
:10118000E12CF12C2E01F5E04F0E511CF801858564
:10119000898386858A8385818B8386818C834701B9
:1011A000820C931C6301F60121916F012D835F0175
:1011B000A80CB91CC5010E9420329D81981721F00E
:1011C000692FC5010E9428324C145D0461F7015F4C
:1011D0001F4FE4E0EE0EF11CF4E9EF16F104B1F656
:1011E0000F900F900F900F900F90DF91CF911F9164
:1011F0000F91FF90EF90DF90CF90BF90AF909F90B6
:101200008F907F906F905F904F903F902F900895B8
:10121000CF92DF92EF92FF926B017C01809181056A
:1012200090918205A0918305B091840524E0B69544
:10123000A795979587952A95D1F7682F6170A70193
:10124000960185E795E00E946B078091810590915A
:101250008205A0918305B091840535E0B695A795E8
:10126000979587953A95D1F7682F6170A7019601F8
:101270008AE695E00E946B07809181059091820536
:10128000A0918305B091840546E0B695A795979502
:1012900087954A95D1F7682F6170A701960183E37E
:1012A00095E00E946B07609181056170A70196012E
:1012B0008EE395E00E946B078091810590918205F5
:1012C000A0918305B0918405B695A79597958795CC
:1012D000682F6170A701960189E495E00E946B0771
:1012E0008091810590918205A0918305B09184053C
:1012F00062E0B695A795979587956A95D1F7682F7F
:101300006170A701960184E595E00E946B078091CA
:10131000810590918205A0918305B091840573E0C9
:10132000B695A795979587957A95D1F7682F6170AF
:10133000A70196018FE595E0FF90EF90DF90CF90A9
:101340000C946B07CF92DF92EF92FF920F931F9353
:10135000CF93DF9360E08CE00E949A1F83E090E0DF
:101360000197F1F761E08CE00E949A1FC7E0D0E09E
:10137000C12CD12C760103E010E085E00E94711FA2
:10138000092E000CAA0BBB0B0C2E04C0880F991F52
:10139000AA1FBB1F0A94D2F7C82AD92AEA2AFB2A15
:1013A00061E086E00E949A1FC8010197F1F760E0B2
:1013B00086E00E949A1F219700F7C701B601DF91CE
:1013C000CF911F910F91FF90EF90DF90CF900895F4
:1013D0006F927F928F929F92AF92BF92CF92DF9245
:1013E000EF92FF920F931F93CF93DF9390EC699F3F
:1013F000B0011124672F770F770B6B01FFE1CF222C
:10140000DD24A3E0CC0CDD1CAA95E1F7822E912C03
:10141000C42FD0E0EE24EA94F12C87010C1B1D0BA5
:10142000089DD001099DB00D189DB00D11244B2FC2
:10143000CC9E5001CD9EB00CDC9EB00C1124AB2C88
:10144000BB2400E011E038016A187B08689C500159
:10145000699CB00C789CB00C1124EC18FD08EC9E33
:101460006001ED9ED00CFC9ED00C1124CD2CDD240F
:101470000C191D09089DE001099DD00D189DD00D86
:101480001124629566956770623091F038F4662396
:1014900069F06130D9F4522FEB2D19C0643081F01E
:1014A00058F0653099F45B2F4B2D0EC05D2F0CC0AA
:1014B000522FEB2F4D2F0BC05B2DEB2F422F07C070
:1014C0005B2F422FED2F03C0E22F01C040E0682FB9
:1014D00070E020919D0930919E096217730708F012
:1014E0003FC02091A309222361F0E29FF001112463
:1014F000EF2F259FD00111245B2F249F90011124F1
:10150000432FF091A9099091A6092091A409309147
:10151000A509F91308C0B901F3E08F9F600D711D93
:101520001124CB010BC0CB01880F991F880F991F85
:10153000820F931FDC01AF0FB11D1C922091A609F1
:10154000DC01A20FB11DEC932091A709FC01E20F71
:10155000F11D50832091A809FC01E20FF11D408389
:10156000DF91CF911F910F91FF90EF90DF90CF907F
:10157000BF90AF909F908F907F906F900895FF9253
:101580000F931F93CF93DF9300D000D0CDB7DEB77A
:10159000F82E062F11E0140F87E00E94711F892B8F
:1015A00099F481E0809390090E946A2060938C09ED
:1015B00070938D0980938E0990938F092FEF40E0EF
:1015C00060E081E00E94E809212F402F6F2D80EB21
:1015D0000E94441F81E0809395090E946A206093D5
:1015E00091097093920980939309909394092FEF36
:1015F00040E060E082E00E94E8098BE08983106BA4
:101600001A83FB820C838091010844E050E0BE0104
:101610006F5F7F4F8F5F0E94A312809101088F5FE1
:101620000E94E0110F900F900F900F90DF91CF91DB
:101630001F910F91FF900895EF92FF920F931F93C8
:10164000CF93DF93CDB7DEB768970FB6F894DEBFC0
:101650000FBECDBF0E946A2060930D0870930E08E4
:1016600080930F089093100881EB99E00E94BC20B2
:1016700080910C088111D0C06BE474E0CE0101961A
:101680000E94CB1120E040E060E0CE0101960E9474
:10169000D520CE0101960E940D2161E674E0CE01B5
:1016A00001960E94CB1120E043E060E0CE0101965C
:1016B0000E94D520CE0101960E940D2164E674E0BF
:1016C000CE0101960E94CB1120E043E06FE3CE01F2
:1016D00001960E94D520CE0101960E940D2167E659
:1016E00074E0CE0101960E94CB1120E043E063E755
:1016F000CE0101960E94D520CE0101960E940D21B7
:10170000E0910A088E2F90E08730910508F0EDC136
:10171000FC01E35AFF4F0C94F832E09111088FE07E
:10172000E89FF0011124EF5FFE4F6685CE010D9614
:101730000E94F21D60911108CE0107960E94F21DD1
:101740006AE674E0CE0101960E94CB11BE01695F8A
:101750007F4FCE0101960E94DF1D65E774E00E9475
:101760007711BE01635F7F4F0E94DF1DBC01CE0178
:1017700043960E94B11121E041E060E0CE01439622
:101780000E94D520CE0143960E940D21CE010196E4
:101790000E940D21CE0107960E940D21CE010D96CB
:1017A000A2C160911108CE0107960E94F21D6AE65F
:1017B00074E0CE0101960E94CB11BE01695F7F4F9C
:1017C000CE0101960E94DF1D6AE774E00E94771146
:1017D00074C16FE774E002C060E974E0CE01019665
:1017E0000E94CB1121E041E060E00FC060EA74E0AC
:1017F000F5CF62EB74E002C06EEB74E0CE010196AF
:101800000E94CB1121E041E064E1CE0101960E94EB
:10181000D520CE01019667C16AEC74E0CE01019635
:101820000E94CB1120E040E060E0CE0101960E94D2
:10183000D520CE0101960E940D216FED74E0CE01FE
:1018400001960E94CB1120E043E060E0CE010196BA
:101850000E94D520CE0101960E940D2161EE74E018
:10186000CE0101960E94CB1120E043E06CE3CE0153
:1018700001960E94D520CE0101960E940D2166EEB0
:1018800074E0CE0101960E94CB1120E043E069E6AE
:10189000CE0101960E94D520CE0101960E940D2115
:1018A00080910A08813009F490C0B8F0823009F0C4
:1018B0001CC160911208CE0107960E94F21D64E0DF
:1018C00075E0CE0101960E94CB11BE01695F7F4F8A
:1018D000CE0101960E94DF1DF0C0E0911108AFE03B
:1018E000EA9FF0011124EF5FFE4F6685CE010D9651
:1018F0000E94F21D60911108CE0107960E94F21D10
:101900006FE674E0CE0101960E94CB11BE01695FC3
:101910007F4FCE0101960E94DF1D68EE74E00E94A9
:101920007711BE01635F7F4F0E94DF1DBC01CE01B6
:1019300043960E94B11121E041E060E0CE01439660
:101940000E94D520CE0143960E940D21CE01019622
:101950000E940D21CE0107960E940D21CE010D9609
:101960000E940D2191E0E92E91E0F92E10E00FE0A8
:10197000E0911108E11711F10E9FF0011124EF5FC2
:10198000FE4F9685D7011E968C911E97981316C010
:1019900095851D968C91981311C06EEE74E0CE0162
:1019A00001960E94CB1120E040E069E1CE01019652
:1019B0000E94D520CE0101960E940D211F5FBFE03D
:1019C000EB0EF11C1532A1F690C0E09111088FE0EA
:1019D000E89FF0011124EF5FFE4F6585CE010D9663
:1019E0000E94F21D60911108CE0107960E94F21D1F
:1019F0006FE674E0CE0101960E94CB11BE01695FD3
:101A00007F4FCE0101960E94DF1D6EEF74E00E94B1
:101A10007711BE01635F7F4F0E94DF1DBC01CE01C5
:101A200043960E94B11121E041E060E0CE0143966F
:101A30000E94D520CE0143960E940D21CE01019631
:101A40000E940D21CE0107960E940D21CE010D9618
:101A50000E940D2181E0E82E81E0F82E10E00FE0D9
:101A6000E0911108E11711F10E9FF0011124EF5FD1
:101A7000FE4F9685D7011E968C911E97981316C01F
:101A800095851D968C91981311C06EEE74E0CE0171
:101A900001960E94CB1120E040E069E1CE01019661
:101AA0000E94D520CE0101960E940D211F5FBFE04C
:101AB000EB0EF11C1532A1F618C0BC01CE010D963B
:101AC0000E94B11121E041E060E0CE010D960E943C
:101AD000D520CE010D960E940D21CE0101960E94C7
:101AE0000D21CE0107960E940D2168960FB6F8943D
:101AF000DEBF0FBECDBFDF91CF911F910F91FF9041
:101B0000EF9008951F93CF93DF93CDB7DEB7629721
:101B10000FB6F894DEBF0FBECDBFE09180051FE089
:101B20001E9FF0011124EF5FFE4F6685CE010796E0
:101B30000E94F21D69EE74E0CE0101960E94CB1165
:101B4000BE01695F7F4FCE0101960E94DF1DBC017F
:101B5000CE010D960E94B11120E040E060E0CE0180
:101B60000D960E94D520CE010D960E940D21CE012A
:101B700001960E940D21CE0107960E940D21E09151
:101B800080051E9FF0011124EF5FFE4F6585CE0199
:101B900007960E94F21D6FEF74E0CE0101960E943D
:101BA000CB11BE01695F7F4FCE0101960E94DF1D00
:101BB000BC01CE010D960E94B11120E040E06AE523
:101BC000CE010D960E94D520CE010D960E940D21CA
:101BD000CE0101960E940D21CE0107960E940D2193
:101BE00062960FB6F894DEBF0FBECDBFDF91CF91E6
:101BF0001F9108951F93CF93DF93CDB7DEB7629700
:101C00000FB6F894DEBF0FBECDBF81EB99E00E9406
:101C1000BC200E94820D60918005CE0101960E9439
:101C2000F21D23E040E067E3CE0101960E94D5203B
:101C3000CE0101960E940D21E09180051FE01E9FBC
:101C4000F0011124EF5FFE4F6581CE0107960E94DF
:101C5000F21D61E175E0CE0101960E94CB11BE013B
:101C6000695F7F4FCE0101960E94DF1DBC01CE014E
:101C70000D960E94B11120E043E060E0CE010D9688
:101C80000E94D520CE010D960E940D21CE01019615
:101C90000E940D21CE0107960E940D21E091800542
:101CA0001E9FF0011124EF5FFE4F6681CE01079663
:101CB0000E94F21D67E175E0CE0101960E94CB11F2
:101CC000BE01695F7F4FCE0101960E94DF1DBC01FE
:101CD000CE010D960E94B11121E042E061E4CE01F7
:101CE0000D960E94D520CE010D960E940D21CE01A9
:101CF00001960E940D21CE0107960E940D21609150
:101D00008005CE0101960E94F21D23E040E067E3CA
:101D1000CE0101960E94D520CE0101960E940D2190
:101D200062960FB6F894DEBF0FBECDBFDF91CF91A4
:101D30001F9108951F93CF93DF93CDB7DEB76297BE
:101D40000FB6F894DEBF0FBECDBF81EB99E00E94C5
:101D5000BC200E94820D60918005CE0101960E94F8
:101D6000F21D23E040E067E3CE0101960E94D520FA
:101D7000CE0101960E940D21E09180051FE01E9F7B
:101D8000F0011124EF5FFE4F6581CE0107960E949E
:101D9000F21D6CE175E0CE0101960E94CB11BE01EF
:101DA000695F7F4FCE0101960E94DF1DBC01CE010D
:101DB0000D960E94B11121E042E060E0CE010D9647
:101DC0000E94D520CE010D960E940D21CE010196D4
:101DD0000E940D21CE0107960E940D21E091800501
:101DE0001E9FF0011124EF5FFE4F6681CE01079622
:101DF0000E94F21D61E275E0CE0101960E94CB11B6
:101E0000BE01695F7F4FCE0101960E94DF1DBC01BC
:101E1000CE010D960E94B11120E043E060E5CE01B5
:101E20000D960E94D520CE010D960E940D21CE0167
:101E300001960E940D21CE0107960E940D2160910E
:101E40008005CE0101960E94F21D23E040E067E389
:101E5000CE0101960E94D520CE0101960E940D214F
:101E600062960FB6F894DEBF0FBECDBFDF91CF9163
:101E70001F9108951F93CF93DF93CDB7DEB762977D
:101E80000FB6F894DEBF0FBECDBF81EB99E00E9484
:101E9000BC200E94820DE09180051FE01E9FF00192
:101EA0001124EF5FFE4F6581CE0107960E94F21D5F
:101EB00061E175E0CE0101960E94CB11BE01695F20
:101EC0007F4FCE0101960E94DF1DBC01CE010D9611
:101ED0000E94B11120E043E060E0CE010D960E9427
:101EE000D520CE010D960E940D21CE0101960E94B3
:101EF0000D21CE0107960E940D21E09180051E9FC5
:101F0000F0011124EF5FFE4F6681CE0107960E941B
:101F1000F21D61E275E0CE0101960E94CB11BE0177
:101F2000695F7F4FCE0101960E94DF1DBC01CE018B
:101F30000D960E94B11120E043E060E5CE010D96C0
:101F40000E94D520CE010D960E940D21CE01019652
:101F50000E940D21CE0107960E940D2160918005FF
:101F6000CE0101960E94F21D23E041E067E3CE011D
:101F700001960E94D520CE0101960E940D21629605
:101F80000FB6F894DEBF0FBECDBFDF91CF911F918A
:101F900008954091E5065091E6062091E3063091C0
:101FA000E40642175307B4F49091E8009570E1F30A
:101FB0009091E80092FD19C08093F1008091E506B0
:101FC0009091E60601968F739927892B19F48EEF6D
:101FD0008093E8008091E5069091E6060196909343
:101FE000E6068093E50681E0089580E0089561505B
:101FF00030F02091F100FC0120830196F8CF289861
:1020000084E68093E8060895CF92DF92EF92FF92E4
:102010000F931F93CF93DF936C017A018B01C0E084
:10202000D0E0CE15DF0581F0D8016D918D01D6018C
:10203000ED91FC910190F081E02DC6010995892B6D
:1020400011F02196EECF7E01C701DF91CF911F9154
:102050000F91FF90EF90DF90CF900895FC01538D8A
:10206000448D252F30E0842F90E0821B930B541772
:1020700010F0CF96089501970895FC01918D828DFF
:10208000981761F0828DDF01A80FB11D5D968C91CC
:10209000928D9F5F9F73928F90E008958FEF9FEFD7
:1020A0000895FC01918D828D981731F0828DE80F93
:1020B000F11D858D90E008958FEF9FEF0895FC014D
:1020C000918D228D892F90E0805C9F4F821B91091A
:1020D0008F739927089583EE98E00E945F1021E0A6
:1020E000892B09F420E0822F0895FC01848DDF0103
:1020F000A80FB11DA35ABF4F2C91848D90E001967B
:102100008F739927848FA689B7892C93A089B18969
:102110008C9182748C93938D848D981306C0028861
:10212000F389E02D80818F7D80830895EF92FF9267
:102130000F931F93CF93DF93EC0181E0888F9B8DEA
:102140008C8D981305C0E889F989808185FD26C0AA
:10215000F62E0B8D10E00F5F1F4F0F731127E02E2F
:102160008C8DE8120CC00FB607FCFACFE889F9890C
:10217000808185FFF5CFCE010E947510F1CF8B8D48
:10218000FE01E80FF11DE35AFF4FF0829FB7F8946C
:102190000B8FEA89FB898081806209C09FB7F89420
:1021A000EE89FF896083E889F98980818274808360
:1021B0009FBF81E090E0DF91CF911F910F91FF9041
:1021C000EF900895CF93DF93EC01888D8823C9F0B9
:1021D000EA89FB89808185FD05C0A889B9898C9130
:1021E00086FD0FC00FB607FCF5CF808185FFF2CFCB
:1021F000A889B9898C9185FFEDCFCE010E94751019
:10220000E7CFDF91CF91089580E090E0892B29F00E
:102210000E946B1081110C94000008950E94F43408
:102220000F931F93CF93DF93EC01888199810097DF
:1022300029F02A813B812617370788F48B016F5FCD
:102240007F4F0E942E34009761F0998388831B830F
:102250000A832C813D81232B11F4FC01108281E043
:1022600001C080E0DF91CF911F910F910895EF920F
:10227000FF920F931F93CF93DF936115710511F4B4
:1022800080E01CC041155105C1F07B01EC018C813F
:102290009D818A01080F191FB801CE010E941011FB
:1022A000882371F3288139818C819D81B701820F48
:1022B000931F0E9402351D830C8381E0DF91CF9133
:1022C0001F910F91FF90EF900895CF93DF93EC0152
:1022D00088819981009711F00E94A5331982188294
:1022E0001D821C821B821A82DF91CF910895CF93A9
:1022F000DF93EC016115710561F0FB010190002095
:10230000E9F73197AF01461B570B0E943711811136
:1023100003C0CE010E946511CE01DF91CF910895D7
:10232000EF92FF920F931F93CF93DF93EC017B010A
:102330008A01BA010E941011811104C0CE010E94CD
:10234000651107C01D830C83B701888199810E94A4
:102350000235CE01DF91CF911F910F91FF90EF9049
:102360000895FB01DC0111961C921E9213961C929B
:102370001E92129715961C921E9214978617970715
:1023800049F0608171816115710521F044815581A9
:102390000C9490110895FC01118210821382128214
:1023A000158214826115710551F0FB010190002026
:1023B000E9F73197AF01461B570B0C949011089524
:1023C0008093E9008091F200882319F08AE38093DA
:1023D000E80008951F920F920FB60F9211242F93C9
:1023E0003F934F935F936F937F938F939F93AF939D
:1023F000BF93CF93EF93FF93C091E1008091E100F1
:10240000837F8093E100C3FF0FC01092E90081E059
:102410008093EB001092EC0082E38093ED00109229
:102420002E0588E08093F000C2FF19C083E00E946F
:10243000E0118091E906882339F08091E906815006
:102440008093E906882389F18091E806882339F092
:102450008091E80681508093E806882341F1C4FF0B
:1024600010C08091E2008E7E81608093E2008091B6
:10247000E1008F7E8093E10080912C058E7E80614B
:1024800011C0C0FF16C08091E2008E7E80618093F3
:10249000E2008091E1008E7E8093E10080912C0526
:1024A0008E7E816080932C0504C05D9ACDCF289AE2
:1024B000D6CFFF91EF91CF91BF91AF919F918F9127
:1024C0007F916F915F914F913F912F910F900FBE30
:1024D0000F901F901895DF92EF92FF920F931F932A
:1024E000CF93DF93D82E8A017B01E40EF51EEB011A
:1024F000CE15DF0571F0D7FE03C0FE01849101C047
:1025000088810E94C90F21968111F2CF8FEF9FEF32
:1025100001C0C801DF91CF911F910F91FF90EF9003
:10252000DF9008952FB7F89487708093E900909119
:10253000E800892F807295FF04C09091F20080E43A
:10254000891B2FBF08957F928F929F92AF92BF9267
:10255000CF92DF92EF92FF920F931F93CF93DF936F
:10256000C82E8B017A0180912E05811103C08FEF57
:102570009FEF74C080912C0580FF05C08091E00022
:1025800082608093E000CE2DDF2DD12C8AEFB82E13
:102590008C2D8770982E8C2D8072882E8C2D8074B7
:1025A000782E9AE3A92E209719F4DD2009F451C062
:1025B0008C2D0E94921281110AC0BA94BB20B9F2EC
:1025C00061E070E080E090E00E943020ECCF282FA6
:1025D00030E0C217D3070CF48C2F9FB7F894909279
:1025E000E9002091E80025FF32C0282F30E0C21B0F
:1025F000D30B882029F08150A0F01092F100FBCF7E
:10260000F801C7FE0AC0815050F044914093F10098
:102610003196F9CF41914093F1008150D8F7020FE4
:10262000131FDD2019F0A092E8000AC08091E80095
:1026300085FD08C0A092E800DD24D394209739F0EE
:10264000D12C05C0209719F47110A092E8009FBF0B
:10265000AACF5D9884E68093E906C701DF91CF9108
:102660001F910F91FF90EF90DF90CF90BF90AF90B0
:102670009F908F907F90089590912E05992311F04F
:1026800057FF03C08FEF9FEF08959FB7F8948770AF
:102690008093E9002091F20030E0421753070CF4D8
:1026A0009A01822FFB0144E6815038F0289840932C
:1026B000E8065091F1005193F7CF2115310521F033
:1026C0008091F200882319F09FBFC90108958BE61D
:1026D0008093E800F9CF9FB7F89487708093E90062
:1026E0008091F2009FBF08958091DB0681110DC09B
:1026F00082E08093D70684E08093D8061092DA06B1
:102700001092D90681E08093DB0687ED96E008956C
:102710000F931F93CF93DF931F92CDB7DEB782E065
:10272000898342E450E065E071E080E80E946B122A
:102730000E947413DC0112960D911C9113970115E0
:10274000110589F0D801ED91FC910280F381E02D13
:10275000BE016F5F7F4FC801099597FD04C0F80166
:1027600000851185ECCF89810F90DF91CF911F916A
:102770000F9108951F920F920FB60F921124CF92CE
:10278000DF92EF92FF920F931F932F933F934F93FC
:102790005F936F937F938F939F93AF93BF93EF93C9
:1027A000FF93CF93DF93CDB7DEB76C97DEBFCDBF7E
:1027B0001092E9008091E80083FFFBC168E0CE0140
:1027C00045960E94F70F82EF8093E8008D8987FF7E
:1027D00005C09091E80090FFFCCF03C09EEF90935E
:1027E000E800982F907609F0C6C09E894F89588DD1
:1027F0002F89F88C91110CC0803829F480912D0517
:102800008093F10002C01092F1001092F10045C1D6
:10281000913051F4811141C14130510509F03DC160
:1028200080912D058D7F0BC0933061F4811135C1EE
:102830004130510509F031C180912D0582608093AE
:102840002D052BC1953049F48091E80080FFFCCF25
:10285000822F80688093E30020C1963009F05EC02B
:102860000B8D1C8D22E01092E9001092E60610926A
:10287000E506F21232C01092E4061092E3060E94BE
:10288000881399E0BE016F5F7F4FDB01E92F1D9236
:10289000EA95E9F79983FA8291E09E8390EA988716
:1028A0009AEF99872091E5063091E606275F3F4F22
:1028B0003C832B838D831092E9001092E6061092E0
:1028C000E5061093E4060093E30649E050E080E05B
:1028D0000E946B120E948813E0C01093E4060093DC
:1028E000E3060E947413DC0112960D911C9113975C
:1028F0000115110509F4BBC0D801ED91FC910480CC
:10290000F581E02DBE016B5E7F4FC80109950097F0
:1029100009F0C7C0F80100851185EACF973009F4A6
:1029200045C1983021F481E08093F100B6C0993020
:1029300009F0B3C0837009F039C1E9E3F3E081E045
:1029400031E096E32081211109C08EE78093EA00EF
:102950001092EA008F8980932E059FC08093E90032
:102960003093EB0021912093EC009093ED008F5F6A
:10297000873041F7EACF8B8D9C8D1092E900109241
:10298000E6061092E5069093E4068093E306898DAF
:10299000811153C08E899D89913A49F4813209F0A1
:1029A00005C147E050E060E373E080E0BBC09132D6
:1029B00009F0FCC0833269F48F89988DA0E0B0E003
:1029C00080932C0390932D03A0932E03B0932F0399
:1029D00064C0803269F48091E80082FFFCCF67E038
:1029E00080E393E00E94F70F8BEF8093E80055C0DF
:1029F000823209F052C08F8980933703EEEFFFE7F0
:102A0000859194918B3F9C4D19F0E0E0F8E002C075
:102A1000EEEFFAE08091300390913103A091320300
:102A2000B0913303803B9440A105B10509F09EC0ED
:102A30008091370380FF79C099C00E947413FC0114
:102A4000028113810115110509F4B0C0D801ED917F
:102A5000FC910190F081E02DBE016B5E7F4FC801BB
:102A6000099581111AC0F80100851185EBCFF1E0BD
:102A7000FF1609F44EC0F3E0FF1298C08F89882337
:102A800009F44AC0823089F440E860E189E691E0C7
:102A90000E949F2F882309F489C08EEF8093E8005D
:102AA00088C018161906CCF381C0813029F440E89B
:102AB0006BE08DE591E0ECCF833009F077C00E94A8
:102AC0007413DC011296ED90FC9013978E010F5F4A
:102AD0001F4F6801E114F10479F0D701ED91FC91E9
:102AE0000680F781E02DB801C7010995080F111D77
:102AF000F701E084F184EECFD8011C92F601019039
:102B00000020E9F73197BF016C197D0940E0C6014B
:102B1000BFCF6BE471E002C067E471E0FB01449158
:102B200050E080E80E946B12B8CFEE3F2AE0F20737
:102B300051F0808191818737A7E79A0721F0909320
:102B4000FF0A8093FE0A87E797E79183808380914D
:102B500060008093E7069BE088E10FB6F894A895A3
:102B6000809360000FBE9093600097CF8081918129
:102B70008737974709F091CFA895809160008861C9
:102B8000809360008091E70680936000EE3FBAE09A
:102B9000FB0739F08091FE0A9091FF0A91838083B0
:102BA0007CCF1092FF0A1092FE0A77CF81E28093C9
:102BB000EB006C960FB6F894DEBF0FBECDBFDF9171
:102BC000CF91FF91EF91BF91AF919F918F917F91A5
:102BD0006F915F914F913F912F911F910F91FF90B6
:102BE000EF90DF90CF900F900FBE0F901F90189531
:102BF0001F920F920FB60F9211242F933F934F9372
:102C00005F936F937F938F939F93AF93BF93EF9354
:102C1000FF9383EE98E00E947510FF91EF91BF91B2
:102C2000AF919F918F917F916F915F914F913F9164
:102C30002F910F900FBE0F901F9018951F920F921B
:102C40000FB60F9211242F938F939F93EF93FF93BF
:102C5000E091F308F091F4088081E091F908F09197
:102C6000FA0882FD12C090818091FC088F5F8F73FB
:102C70002091FD08821751F0E091FC08F0E0ED5141
:102C8000F74F958F8093FC0801C08081FF91EF91F1
:102C90009F918F912F910F900FBE0F901F901895BD
:102CA000CF93DF931F92CDB7DEB76983DC01ED913F
:102CB000FC910280F381E02D41E050E0BE016F5FA6
:102CC0007F4F09950F90DF91CF910895CF93DF93B8
:102CD000EC018D85882319F081508D8711C09C816E
:102CE0008E81981768F488896827E881F9810084C3
:102CF000F185E02D42E0CE0109958C818F5F8C83B8
:102D0000DF91CF91089585ED8093BC008091BC0048
:102D100084FDFCCF10927D07089540910A07262F6D
:102D200030E0240F311D21323105DCF420917D0784
:102D30002430C9F4FC0180E090E0861758F430910B
:102D40000A072191DC01A651B94FA30FB11D2C93A5
:102D50000196F3CF80910A07680F60930A0780E01D
:102D6000089581E0089582E00895089508950895F2
:102D7000E091360780913507E81730F4F0E0E95C20
:102D8000F84F808190E008958FEF9FEF0895909124
:102D9000360780913507981750F4E92FF0E0E95C89
:102DA000F84F208130E09F5F9093360702C02FEFED
:102DB0003FEFC90108958091350790E020913607D3
:102DC000821B91090895CF92DF92EF92FF920F93A9
:102DD0001F93CF93DF937C01CB018A0120917E0763
:102DE000222389F0EB016B01C40ED51ECC15DD0545
:102DF00069F06991D701ED91FC910190F081E02D8E
:102E0000C7010995F3CF642F0E948D16C801DF9189
:102E1000CF911F910F91FF90EF90DF90CF90089589
:102E2000CF93DF931F92CDB7DEB7698320917E07E2
:102E30002223D1F02091A107203240F021E030E0A0
:102E4000FC013383228380E090E015C080917F07EE
:102E5000E82FF0E0E058F84F998190838F5F8093DE
:102E60007F078093A10705C061E0CE0101960E9413
:102E70008D1681E090E00F90DF91CF91089580E072
:102E800090E0089580E00895FC0182818F5BFB0152
:102E9000808381E00895CF93DF93EC018091370325
:102EA000882331F083E00E94A3121816190634F02B
:102EB00081E090E09B838A8380E090E0DF91CF9176
:102EC000089583E00C94E01183E00E94921290E058
:102ED00008950F931F93CF93DF931F92CDB7DEB763
:102EE0008C01FC018485958597FF12C041E050E07C
:102EF000BE016F5F7F4F82E00E943C13019719F47F
:102F0000898190E002C08FEF9FEFF8019587848759
:102F1000F801848595850F90DF91CF911F910F91D6
:102F20000895CF93DF931F92CDB7DEB7FC01848560
:102F3000958597FD05C02FEF3FEF358724870FC09C
:102F400041E050E0BE016F5F7F4F82E00E943C1382
:102F5000019719F4898190E002C08FEF9FEF0F90E5
:102F6000DF91CF910895FC018485958597FD06C07A
:102F700082E00E946B1390E00196089582E00E9427
:102F80006B1390E0089584E0E7E2F5E0DB01019047
:102F90000D928A95E1F784E00895CF92DF92EF9247
:102FA000FF920F931F93CF93DF93CDB7DEB7C45635
:102FB000D1090FB6F894DEBF0FBECDBF6C01DB01A7
:102FC0009C919E5F9C93FE01319684E6DF011D92E9
:102FD0008A95E9F788E089838BE08A8322E02C8355
:102FE00091E09D839E8339E0398774E07A879E87DC
:102FF0009F873A8B44E24B8B9C8B00E011E01E8B49
:103000000D8B89E0E82EF12CF88EEF8A998F3B8F9B
:103010007C8F2F8F98A353E059A387E08CA34DA3F7
:103020009EA318A70FA301E410E01AA709A786E042
:103030008BA74CA72DA79EA79FA789AB4AAB2BAB0D
:103040002CAB2DAB3FAB48AF59AF9AAF5BAF9CAF4A
:103050002DAF9EAF21963FAF219722964FAF22977B
:1030600023965FAF239724962FAF249725967FAFA3
:10307000259726969FAF269727969FAF2797289646
:103080009FAF28972A963FAF2A9745E02B964FAFE0
:103090002B972D962FAF2D9760E470E02F967FAF82
:1030A0006EAF2F9763964FAF639785E264968FAFAD
:1030B000649765969FAF659766969FAF669767968C
:1030C0009FAF679768963FAF689769964FAF6997CC
:1030D0006B962FAF6B976D967FAF6EAF6D97A19686
:1030E0004FAFA197A2968FAFA297A3969FAFA3973A
:1030F000A4969FAFA497A5965FAFA597D601129609
:103100009C9112979B839B879F5F9A8F9D8F1396AD
:103110008C912C968FAF2C978F5F80686A968FAFBB
:103120006A9744E650E0BF0180E00E946B12CC59E0
:10313000DF4F0FB6F894DEBF0FBECDBFDF91CF914A
:103140001F910F91FF90EF90DF90CF900895DC01D9
:10315000ED91FC910084F185E02D40E00994FC01A3
:103160008781869586958695681740F46583938553
:10317000690F6770606BCF010C94A71808950F93C7
:103180001F93CF93FC0126816217A0F4C62F8C01F8
:1031900064839085C90F6C2F6F70CF010E94A718B0
:1031A0006C2F62956F706061C801CF911F910F9174
:1031B0000C94A718CF911F910F910895CF92DF9291
:1031C000EF92FF920F931F93CF93DF93EC01F62EB4
:1031D000C42ED22E1D868F818695869586950817DA
:1031E00010F00FEF080F1D2D6F2DCE01011788F085
:1031F0000E94BF18612FCE010E94AF18EF2CCE1491
:1032000030F06889CE010E946616E394F8CF1F5F04
:10321000EBCF0E94BF186D2DCE01DF91CF911F9192
:103220000F91FF90EF90DF90CF900C94AF182F92FA
:103230003F924F925F926F927F928F929F92AF9246
:10324000BF92CF92DF92EF92FF920F931F93CF9393
:10325000DF93CDB7DEB72A970FB6F894DEBF0FBE67
:10326000CDBFDC011E962D913C911F972115310594
:1032700009F463C19A878987F9013296449031969F
:103280007491E72EF12CB7E0EB0EF11C93E0F5946E
:10329000E7949A95E1F7EA823196A4913196E49108
:1032A0006A1758F0462F50E08E2F90E0FC01EA0F8D
:1032B000F11D4E175F070CF46AC06D3031F460E009
:1032C00089859A850E94BF183BC16A3009F035C1D3
:1032D00060E089859A850E94BF18E985FA85018991
:1032E0000E9DE02C11242781269526952695658133
:1032F0006E0D8E2D821B860F9485992309F418C1BB
:1033000018160CF015C1A985BA851B969C911B97C0
:10331000890F87701B968C931B972E1915962C93EB
:1033200015971E96ED91FC911F97309769F0339693
:10333000E491F0E0379683E0F595E7958A95E1F71B
:103340000E9FE02D112401C0E0E00FEF020F0E0FE1
:10335000E985FA85468141506481CF010E94DE18DB
:10336000A985BA851C968C911C97813009F0E8C01C
:103370001B966C911B97660F660F660F6F731A96FC
:103380006C931A976064CD010E94A718D9C0A90157
:103390004A5F5F4F6A1BA985BA851996FC911997F8
:1033A0005196EC91FE9FE02D1124E887F901A4913C
:1033B0003196249130E03A2B2230310570F44E9C46
:1033C000C0014F9C900D1124689F8001699F100DD2
:1033D0001124040F151F312C22C0777021F028E032
:1033E000322E371A01C0312CFA0120E0A0E0B0E003
:1033F000261731F03491A30FB11D2F5F3196F8CF0E
:10340000FA01E20FF11D4490EA9E8001EB9E100D3F
:10341000FA9E100D1124080F191F040F151FA985FE
:10342000BA851496BC91BB83E985FA85F581FC8346
:10343000A985BA851D96BC91BD83E42DF0E0FF837C
:10344000EE83812C912CC12CD12CC982FA81CF160C
:1034500008F06DC0212C36019FEF691A790AA98501
:10346000BA8551968C915197281608F058C0ED8175
:103470001D96EC93F981F11102C0222079F0A98503
:10348000BA851596BC901597B3946B81CD010E94B7
:10349000BF186B2D89859A850E94AF18A12CB12C7D
:1034A000A41410F0B12C2FC0F401EA0DFB1DE00FA5
:1034B000F11F5490332061F0E614F70449F4E52D30
:1034C000F0E0032C02C0F595E7950A94E2F75E2E32
:1034D000E985FA858189823069F4E52D2110E2952C
:1034E000EF70F0E0E658FE4F5490652D89859A857F
:1034F0000E946616652D89859A850E946616FFEFE3
:10350000AF1ABF0ACDCF8885B81639F060E089853B
:103510009A850E946616B394F6CF2394A0CF9FEFAE
:10352000C91AD90AAE81BF818A0E9B1E8ECF6C81CB
:1035300089859A850E94AF1803C080E090E002C0A0
:1035400081E090E02A960FB6F894DEBF0FBECDBFA3
:10355000DF91CF911F910F91FF90EF90DF90CF906F
:10356000BF90AF909F908F907F906F905F904F90A3
:103570003F902F9008951F920F920FB60F92112433
:103580002F933F934F935F936F937F938F939F936B
:10359000AF93BF93EF93FF938091B900887F8036FC
:1035A00009F49CC068F5883209F45BC090F480315E
:1035B00009F454C038F4882309F4F6C0883009F4BB
:1035C0004DC0F6C0883109F44CC0803209F45DC0AA
:1035D000EFC0803409F468C048F4803309F455C062
:1035E000883309F0E5C080937B07D8C0803509F4A3
:1035F0004FC0883509F45DC0883409F0D9C0D6C001
:10360000883909F4C7C0A8F4883709F467C038F4CA
:10361000883609F463C0803709F460C0C9C08838AF
:1036200009F4B8C0803909F45FC0803809F0C0C01F
:103630005BC0803B09F486C038F4803A09F466C068
:10364000883A09F47FC0B4C0803C09F4A7C0883C24
:1036500009F4A4C0883B09F48AC0AAC08091580725
:1036600010C090917A0780917907981770F5E091D2
:103670007A0781E08E0F80937A07F0E0E75AF84FDF
:1036800080818093BB0085EC86C080937B078EC0D1
:10369000E0917A0781E08E0F80937A078091BB00DA
:1036A000F0E0E75AF84F808390917A07809179078C
:1036B0006EC0E0917A0781E08E0F80937A07809147
:1036C000BB00F0E0E75AF84F808380917C078111BE
:1036D0006DC081E08093570784EA61C083E08093E6
:1036E0007D0710922C07CFCF80912C07803208F0F5
:1036F00051C0E0912C0781E08E0F80932C078091C0
:10370000BB00F0E0E45FF84F8083BDCF85EC809391
:10371000BC0010927D0780912C07803230F4E0913C
:103720002C07F0E0E45FF84F108260912C0770E006
:10373000E0912F05F09130058CE097E0099510920B
:103740002C0736C084E080937D0710920B071092FF
:103750000A07E0913105F0913205099580910A0739
:10376000811105C081E080930A071092EA06E0917A
:103770000B0781E08E0F80930B07F0E0E651F94FC5
:1037800080818093BB0090910B0780910A07981766
:1037900008F479CF85E88093BC000AC085EC80935B
:1037A000BC0010927D0704C010927B070E94831614
:1037B000FF91EF91BF91AF919F918F917F916F9109
:1037C0005F914F913F912F910F900FBE0F901F90DF
:1037D0001895DC018D919C91DC01ED91FC9101909B
:1037E000F081E02D0994AF92BF92CF92DF92EF92D9
:1037F000FF921F93CF93DF93182FE1E0F1E05DE19B
:10380000C52E53E0D52E20E030E066E0A62EB12C88
:10381000CFEFD0E082819381B5010E94E432CB01E9
:10382000EE24EA94F12CBE010E94E432820F931F31
:10383000BE010E94E4329C013F96CE16DF0651F78E
:10384000C296B7010E94E432EC01212F4FEF682F9E
:1038500080E00E94E809CE010A96B7010E94E43296
:10386000212F4FEF682F83E00E94E809CE014E968A
:10387000B7010E94E432212F4FEF682F82E00E94AF
:10388000E809CE018896B7010E94E432212F4FEF5C
:10389000682F81E0DF91CF911F91FF90EF90DF9033
:1038A000CF90BF90AF900C94E80990E0FC01319765
:1038B000EF30F105B0F5EC59FF4F0C94F8328091E0
:1038C00080008F7703C0809180008F7D809380007F
:1038D000089580918000877FF9CF84B58F7702C0EB
:1038E00084B58F7D84BD0895809190008F7707C047
:1038F000809190008F7D03C080919000877F80939E
:10390000900008958091C0008F7703C08091C0001F
:103910008F7D8093C00008958091C200877F80933F
:10392000C20008953FB7F894809131079091320713
:10393000A0913307B091340726B5A89B05C02F3F4F
:1039400019F00196A11DB11D3FBFBA2FA92F982FC5
:103950008827820F911DA11DB11DBC01CD0142E040
:10396000660F771F881F991F4A95D1F70895CF9347
:10397000DF93C0E8D9E0998121E020937E079093FE
:10398000A00710927F071092A107682F82EF97E09F
:103990000E94101781E00E941221888361E08981D2
:1039A0000E94902182EF97E00E94C716DF91CF918D
:1039B00008950F931F93CF93DF93162F072FC0E81F
:1039C000D9E0998121E020937E079093A00710927F
:1039D0007F071092A107682F82EF97E00E941017CF
:1039E000602F82EF97E00E941017612F82EF97E01F
:1039F0000E94101781E00E9412218883DF91CF91ED
:103A00001F910F9108958F929F92AF92BF92EF9264
:103A1000FF920F931F93CF93DF937C01EB0180E51F
:103A20000E94B71C8F5F880F90E09983888386E49B
:103A30000E94B71C082F10E00F5F1F4F1D830C83DF
:103A4000A881B0E020E03FE24AE350E00E94553216
:103A50006C507E4F8F4F9F4F38EE832E33E0932E66
:103A6000A12CB12CA50194010E949F32D8010E9483
:103A700060326C507E4F8F4F9F4FA50194010E9482
:103A80009F322A873B874C875D8781E50E94D92139
:103A90008C01112702C0000F111F9A95E2F70F5FEA
:103AA0001F4F1F830E83A881B0E020E03FE24AE36E
:103AB00050E00E9455326C507E4F8F4F9F4FA501B2
:103AC00094010E949F32D8010E9455326C507E4F63
:103AD0008F4F9F4FA50194010E949F322E873F87F1
:103AE000488B598B80E70E94B71C8F5F880F90E04E
:103AF0009B838A8381E70E94D9219C01992702C078
:103B0000880F991F3A95E2F7019699878887F70100
:103B10002381222331F02E813F81821B930B9987D1
:103B20008887AA81B0E020E03FE24AE350E00E94AB
:103B300055326C507E4F8F4F9F4F28EE822E23E0E0
:103B4000922EA12CB12CA50194010E949F32A88530
:103B5000B9850E9455326C507E4F8F4F9F4FA50103
:103B600094010E949F322A8B3B8B4C8B5D8BDF91A3
:103B7000CF911F910F91FF90EF90BF90AF909F90CA
:103B80008F900895CF93DF93EC0181E00E94B71CE2
:103B900084FB992790F9988383FB992790F99A835E
:103BA00082FB992790F9998386FB992790F99B834B
:103BB000881F8827881F8C83DF91CF910895CF932A
:103BC000DF93EC01FB0144815581608171810E948A
:103BD0003711811103C0CE010E946511CE01DF9122
:103BE000CF910895EF92FF920F931F93CF93DF939E
:103BF000CDB7DEB729970FB6F894DEBF0FBECDBFA5
:103C00008C01862FF8011182108213821282158294
:103C100014824AE09E012F5F3F4F7901B90190E085
:103C20000E94F631F70101900020E9F73197AF01CA
:103C30004E195F09B701C8010E94901129960FB66D
:103C4000F894DEBF0FBECDBFDF91CF911F910F91D2
:103C5000FF90EF900895EF92FF920F931F93CF93F1
:103C6000DF93CDB7DEB762970FB6F894DEBF0FBE15
:103C7000CDBF8C01CB01F801118210821382128218
:103C8000158214824AE09E012F5F3F4F7901B901EE
:103C90000E94EB31F70101900020E9F73197AF0165
:103CA0004E195F09B701C8010E94901162960FB6C4
:103CB000F894DEBF0FBECDBFDF91CF911F910F9162
:103CC000FF90EF900895CF92DF92EF92FF920F93C3
:103CD0001F93CF93DF93CDB7DEB729970FB6F89434
:103CE000DEBF0FBECDBF8091A4099091A509892B9D
:103CF00009F4BBC0C090AA09D090AB09E090AC0910
:103D0000F090AD090E94921C6C157D058E059F05F3
:103D100050F40E94921C6093AA097093AB0980939F
:103D2000AC099093AD090E94921C0091AA091091D0
:103D3000AB092091AC093091AD09DC01CB01801BAE
:103D4000910BA20BB30B8C329140A105B10590F2FF
:103D5000F89480919F099091A0099A838983E091BA
:103D6000A409F091A509DF011196808189879091BE
:103D70009B09E091AE09F091AF098091B0099923B8
:103D800009F42EC09081982B988790818095892383
:103D90008F838F818C8388E08B8358856F814985E1
:103DA0003B812C8189819A81508347FD252F3A954B
:103DB0002083262F39F0441F00C0000060830000DC
:103DC00000C0F2CF38E04D9160830000019761F7A9
:103DD000F093AF09E093AE0949873B832C8338C049
:103DE0009081982B98879081809589238F838F81EC
:103DF0008E8388E08D8358856F8149853D812E8132
:103E000089819A81508347FD252F00C000C02083FF
:103E100000C000C000C000C000C060830000262FAA
:103E20003A9541F0441F000000C000C000C000C02F
:103E300000C0E8CF38E04D9100C0608300C001971A
:103E400009F7F093AF09E093AE0949873D832E83CC
:103E50009A83898378940E94921C6093AA09709334
:103E6000AB098093AC099093AD0929960FB6F894ED
:103E7000DEBF0FBECDBFDF91CF911F910F91FF909D
:103E8000EF90DF90CF9008951F93CF93DF93215051
:103E9000203118F587FF21C0D42F162FC82F622F8D
:103EA000682B80913D0890913E080E94E91B612F8C
:103EB0006F7780913D0890913E080E94E91BCF7E6C
:103EC000C03C59F06D2F6F7780913D0890913E086E
:103ED000DF91CF911F910C94E91BDF91CF911F913E
:103EE0000895CF93DF93282F30E0F901EE54FE4F71
:103EF0008491F901EF5CF14FD491F901E25AF14F4D
:103F0000C491CC2391F081110E94551CEC2FF0E05C
:103F1000EE0FFF1FEC55FE4FA591B491EC91ED23F0
:103F200081E090E021F480E002C080E090E0DF9149
:103F3000CF9108951F93CF93DF93282F30E0F9019D
:103F4000EE54FE4F8491F901EF5CF14FD491F901E9
:103F5000E25AF14FC491CC23C1F0162F81110E9477
:103F6000551CEC2FF0E0EE0FFF1FE05BF14FA59129
:103F7000B4919FB7F894111104C08C91D095D823B7
:103F800002C0EC91DE2BDC939FBFDF91CF911F919C
:103F90000895CF93DF9390E0FC01EF5CF14F249103
:103FA000FC01E25AF14F8491882361F190E0880F7F
:103FB000991FFC01EA56FE4FC591D491FC01E05BCC
:103FC000F14FA591B491611109C09FB7F894888110
:103FD000209582238883EC912E230BC0623061F4FC
:103FE0009FB7F8948881322F309583238883EC9192
:103FF0002E2B2C939FBF06C08FB7F894E8812E2BF1
:1040000028838FBFDF91CF910895823108F08251CC
:10401000E82FF0E0E657FE4FE49180917B00E3FB50
:10402000222720F930E095E0220F331F9A95E1F71F
:104030008F7D282B20937B00E770E064E0937C0069
:1040400080917A00806480937A0080917A0086FD66
:10405000FCCF809178002091790090E0922B089518
:104060008F929F92AF92BF92CF92DF92EF92FF9288
:104070006B017C010E94921C4B015C01C114D104B4
:10408000E104F104F1F00E94921CDC01CB018819DB
:104090009909AA09BB09883E9340A105B10570F3AF
:1040A00021E0C21AD108E108F10888EE880E83E009
:1040B000981EA11CB11CC114D104E104F10419F72C
:1040C000DDCFFF90EF90DF90CF90BF90AF909F90AB
:1040D0008F9008952FB7F89460912D0770912E0757
:1040E00080912F07909130072FBF0895682F61604E
:1040F00080E00E946E210E946A207093860960937E
:10410000850983E10E94B71C8770B9F48091820908
:1041100090918309892BA9F30E946A202091850937
:1041200030918609621B730B8091820990918309FB
:104130008617970730F780E0089561E08BE00E94D2
:104140006E2160E080E00E946E2181E008959093EE
:10415000C0098093BF09009741F0FC01249131967A
:10416000849190E0922B019721F081E08093BA092D
:1041700008951092BA0908950F93CF93DF93EC013D
:104180001B861A8660E40E94A7180F810695069583
:10419000069501504E81415020E060E0CE010E9422
:1041A000DE18DF91CF910F910895FF920F931F9327
:1041B000CF93DF938C01F62ED42FC22F213049F0FC
:1041C00028F0233091F481ED91E00AC08BE49CE06B
:1041D00007C085E097E00E94A720C093C20905C0F0
:1041E0000E94A72081E08093C2096F2D81EB99E0A6
:1041F0000E94BF186D2F81EB99E00E94AF18F80163
:10420000448155816081718181EB99E0DF91CF918B
:104210001F910F91FF900C940410FC0180819181FB
:104220000C94A533282F3091A107313208F04AC0F1
:1042300080917D078111FCCF9091A00742E04093CF
:104240007D0720937C072FEF20937B0710927A073E
:1042500030937907E0E8F7E0A9E5B7E020E032170E
:1042600021F041914D932F5FFACF10925807209182
:104270005807990F922B90935807909157079130B8
:1042800061F410925707909158079093BB0090915A
:10429000BC0093FDF8CF95EC01C095EE9093BC0067
:1042A00090917D079230E1F390917B079F3F79F0E9
:1042B00080917B07803241F080917B07803331F021
:1042C00084E005C081E003C082E001C083E0109279
:1042D0007F071092A10710927E0708951F93CF9336
:1042E000DF93162FC0E8D9E0998121E020937E0763
:1042F0009093A00710927F071092A107682F82EF7A
:1043000097E00E941017612F82EF97E00E9410172C
:1043100081E00E9412218883DF91CF911F9108953F
:1043200090917D079111FCCF613208F060E291E03D
:1043300090937D0790937C072FEF20937B0710923B
:104340007A07260F20937907909358079091580782
:10435000880F892B8093580780915707813061F42B
:1043600010925707809158078093BB008091BC0042
:1043700083FDF8CF85EC01C085EE8093BC00809171
:104380007D078130E1F380917A07861710F4609100
:104390007A07E9E5F7E0A7E3B7E080E0861721F0C8
:1043A00091919D938F5FFACF1092360780933507D6
:1043B0000895CF93DF93C0E8D9E0998121E020935D
:1043C0007E079093A00710927F071092A107682F95
:1043D00082EF97E00E94101781E00E9412218883EB
:1043E00062E089810E94902182EF97E00E94C716C7
:1043F000D82F80E0C82F82EF97E00E94C7168C2B41
:104400009D2BDF91CF9108951F920F920FB60F92BF
:1044100011242F933F938F939F93AF93BF938091DA
:104420002D0790912E07A0912F07B0913007309162
:10443000C80923E0230F2D3720F40196A11DB11DDB
:1044400005C026E8230F0296A11DB11D2093C809BF
:1044500080932D0790932E07A0932F07B0933007DA
:104460008091310790913207A0913307B0913407C2
:104470000196A11DB11D8093310790933207A0933F
:104480003307B0933407BF91AF919F918F913F91C4
:104490002F910F900FBE0F901F901895CF93DF9321
:1044A000CDB7DEB7C655D1090FB6F894DEBF0FBE43
:1044B000CDBF789484B5826084BD84B5816084BDAD
:1044C00085B5826085BD85B5816085BD80916E00B2
:1044D000816080936E0010928100809181008260E3
:1044E0008093810080918100816080938100809120
:1044F0008000816080938000809191008260809331
:104500009100809191008160809391008091900052
:104510008160809390008091C10084608093C1008D
:104520008091C10082608093C1008091C100816050
:104530008093C1008091C30081608093C30080910B
:10454000C00082608093C0008091C200816080932F
:10455000C20080917A00846080937A0080917A0012
:10456000826080937A0080917A00816080937A00E3
:1045700080917A00806880937A0010922E051092C4
:104580002D0510922C058091D70081608093D70073
:1045900080EA8093D80089B5806189BD89B5826041
:1045A00089BD09B400FEFDCF61E070E080E090E0DD
:1045B0000E9430208091D8008F7C80618093D80049
:1045C0008091E000807F8093E0008091E1008E7E0A
:1045D0008093E1008DE08093E200559A209A60E09C
:1045E00087E00E94C91F8FEF93E00E942032843041
:1045F00008F07CC08FEF93E00E942032182F0E94B9
:104600002E0891E090930001E0913D08F0913E0862
:104610000190F081E02DA089B18982E08C93A4857E
:10462000B5851C92A685B7858FE38C93108EA489DF
:10463000B58986E08C93A289B3898C9180618C9333
:10464000A289B3898C9188608C93A289B3898C915B
:1046500080688C930288F389E02D80818F7D808330
:1046600090933F0810924108109240081092480819
:104670001092470810924608109245088FEF9FEF5E
:1046800090934A088093490890934C0880934B0874
:104690000E946A206093D5087093D6088093D7084B
:1046A0009093D8081092D20810924F0810924E089A
:1046B00010925008109251081092D4081092D3080A
:1046C00080914D0881708260816080934D08809157
:1046D000A1099091A20997FD1BC061E00E94C91F2A
:1046E00060E08091A1090E949A1F12C060E08FEFE4
:1046F00093E00E94283280E00E94910881E00E94AD
:10470000910882E00E94910883E00E94910872CF94
:1047100081E080939C096091A309653121F120918A
:10472000A4093091A509615031F070E08FEF94E158
:104730000E94D03202C060E070E0F90140919F0910
:104740005091A009CF01821B930B8417950740F469
:104750004081469FC001479F900D11249193EECF59
:1047600085E18093A30900E020E040E060E0802F35
:104770000E94E8090F5F0430B9F70E94631E61E0F0
:104780008CE00E94C91F61E086E00E94C91F60E0C2
:1047900085E00E94C91F60E086E00E949A1F61E0E8
:1047A0008CE00E949A1F0E94A20960938105709379
:1047B0008205809383059093840565E4E62E63E08B
:1047C000F62EF7010081F2E0EF0EF11C61E0802F80
:1047D0000E94C91F60E0802F0E949A1F2DE4E216FC
:1047E00023E0F20671F71092360710923507109207
:1047F0007F071092A10710927D0781E080937C07CC
:104800001092570761E082E00E949A1F61E083E006
:104810000E949A1F8091B9008E7F8093B900809189
:10482000B9008D7F8093B90088E48093B80085E457
:104830008093BC0085EB96E190933205809331051F
:1048400086EB96E19093300580932F051092C50971
:104850008CE38093C4091092B9008CE08093B80077
:104860001092B5091092B609EFEFF0E0859194919E
:10487000D82EE1E0F1E00491E2E0F1E0E491E09390
:10488000B709E3E0F1E0E491E093B809E4E0F1E096
:10489000E491E093B9097C018E2D8D19801750F4B5
:1048A000F701649181EB99E00E94A718FFEFEF1ADE
:1048B000FF0AF2CF81EB99E00E94BC2084EF91E0E7
:1048C000909383098093820980EC0E94B71C8E3EEE
:1048D000B1F081EB99E00E94BC206DEB73E0CE015A
:1048E00001960E94CB1121E040E060E0CE010196EC
:1048F0000E94D520CE0101960E940D2122C489E894
:104900000E94B71C682F616089E80E946E2160E0F8
:1049100088E80E946E2161E080E80E946E2161E0DB
:104920008FEF0E946E2160E080E00E946E2181E99D
:104930000E94B71C8093870961E080E00E946E218D
:1049400060E08FEF0E946E2160E080E80E946E219F
:1049500080E60E94B71C682F626180E60E946E218B
:1049600060E270E084E40E94D91C6FEF81E00E9455
:104970006E2161E080E80E946E2161E08FEF0E946D
:104980006E2160E080E00E946E2166E08FEF0E9461
:104990006E2183E80E94B71C682F646083E80E9440
:1049A0006E2167E08FEF0E946E2161E081E80E9436
:1049B0006E2161E080E80E946E216BE684E90E942E
:1049C0006E2160E083E80E946E210E946A2070934D
:1049D00086096093850983E80E94B71C811116C07F
:1049E0008091820990918309892BA9F30E946A2002
:1049F0002091850930918609621B730B8091820991
:104A0000909183098617970730F763CF61E083E8B9
:104A10000E946E2182E90E94B71CA82E282F2F77B2
:104A2000D22E60E081E80E946E2166E08FEF0E9446
:104A30006E2183E80E94B71C682F6B7F83E80E9479
:104A40006E2161E08FEF0E946E2161E080E00E94A4
:104A50006E2160E08FEF0E946E2160E080E80E948E
:104A60006E218091810991E090937E078093A00749
:104A700010927F071092A10760EB82EF97E00E94EF
:104A8000101781E00E9412218093800966E08091D6
:104A900081090E9490217E013BE4E30EF11C470155
:104AA00057E0C52E2E2C0F2DCA94CC2041F082EF5A
:104AB00097E00E94C716F40181934F01F5CF61E0A2
:104AC0008FEF0E946E2160E08FE40E946E216CE205
:104AD0008EE40E946E2160E08FEF0E946E2164EBF5
:104AE00086EB0E946E21A7FE02C06CE001C060E070
:104AF00090E080E041E050E0282F2695269526950D
:104B0000782F7770F701E20FF11D861710F09D11D5
:104B10000AC09A0101C0220F7A95EAF720953081E8
:104B20002323208309C0208130E002C035952795DA
:104B30007A95E2F720FD9F5F8F5F8033E9F68091E1
:104B4000810991E090937E078093A00710927F07E0
:104B50001092A10760EB82EF97E00E94101747E0E8
:104B6000D42EDA94DD2041F0F70161917F0182EFCC
:104B700097E00E941017F5CF81E00E9412218093E8
:104B8000800961E08FEF0E946E2160E080E00E946A
:104B90006E2160E08FEF0E946E2160E089E00E944C
:104BA0006E2160E080E10E946E2160E081E10E9460
:104BB0006E2161E084E20E946E216FEF85E20E9427
:104BC0006E2160E085E70E946E2161E08FEF0E9418
:104BD0006E216CE28EE40E946E2160E088E40E9407
:104BE0006E2160E280E30E946E2160E08FEF0E9400
:104BF0006E2169E080E30E946E2160E084E50E94FE
:104C00006E2164E081E30E946E2163E082E30E94F2
:104C10006E2163E880E40E946E2165E286E40E94D2
:104C20006E2160E080E60E946E2160E087E20E94D3
:104C30006E2166E080E50E946E2160E081E50E94C1
:104C40006E2166E982E50E946E2168E086E50E9499
:104C50006E2160E387E50E946E2160E081E60E949C
:104C60006E2160E082E60E946E2160E084E60E9490
:104C70006E2160E085E60E946E2160EA86E60E9471
:104C80006E2161E08FEF0E946E2162E382E20E945A
:104C90006E2164E187E40E946E216FEF89E40E9437
:104CA0006E2160E08AE40E946E2160E08FEF0E9436
:104CB0006E216AE08AE70E946E2160E08BE70E9425
:104CC0006E2161E288E70E946E2161E08FEF0E9411
:104CD0006E2164E383E20E946E2160E082E40E9420
:104CE0006E216FEF84E40E946E2166E285E40E94EB
:104CF0006E2165E086E40E946E2160E480E40E94FB
:104D00006E2166E08EE00E946E216AE180E20E94E0
:104D10006E2160E483E40E946E2160E08FEF0E94C8
:104D20006E2163E084E30E946E2164E485E30E94C7
:104D30006E2161E08FEF0E946E2164E081E30E94AA
:104D40006E2169E08BE40E946E2165E08CE40E9494
:104D50006E2164E08DE40E946E2160E08FEF0E947E
:104D60006E2160E084E40E946E2160E285E40E948E
:104D70006E2168E087E40E946E2168E288E40E9468
:104D80006E2160E087E60E946E2164E080E70E9469
:104D90006E2161E081E70E946E216EEF82E70E9442
:104DA0006E2160E086E70E946E2160E087E70E9446
:104DB0006E2161E08FEF0E946E2161E08DE00E9424
:104DC0006E2160E08FEF0E946E2161E080E80E941A
:104DD0006E2168EF81E00E946E2161E08FEF0E94FA
:104DE0006E2161E08EE80E946E2161E080E00E9409
:104DF0006E2160E08FEF0E946E2160E080E80E94EB
:104E00006E2164E08AE00E946E2184E80E94B71C53
:104E1000682F6F7E84E80E946E2161E08BE00E9423
:104E20006E21CE018F5A9F4F0E94C21DBE016F5F3F
:104E30007F4FCE018F5A9F4F0E94031D62968FAD08
:104E40006297882349F08B859C85AD85BE858C57FC
:104E5000924FAF4FBF4F04C086E39BE0A0E0B0E0AD
:104E600064962FAD6497222369F04B855C856D8530
:104E70007E854E545D4F6F4F7F4F440F551F661F09
:104E8000771F0DC063962FAD6397222361F04B858A
:104E90005C856D857E854C565D4F6F4F7F4F840FCF
:104EA000951FA61FB71F65962FAD6597222361F04A
:104EB0004F85588969897A894C565D4F6F4F7F4F6E
:104EC000840F951FA61FB71F66962FAD66972223E6
:104ED00061F04B895C896D897E894A5D5D4F6F4FBA
:104EE0007F4F840F951FA61FB71F8093880990934B
:104EF0008909A0938A09B0938B0968EE81E00E942A
:104F00006E21C0908809D0908909E0908A09F090BC
:104F10008B09F0E2CF16FEE4DF06E104F10408F4A9
:104F2000D1C0CE018F5A9F4F0E94C21DBE016F5F3C
:104F30007F4FCE018F5A9F4F0E94031D62968FAD07
:104F40006297882349F08B859C85AD85BE858C57FB
:104F5000924FAF4FBF4F04C086E39BE0A0E0B0E0AC
:104F600064962FAD6497222369F04B855C856D852F
:104F70007E854E545D4F6F4F7F4F440F551F661F08
:104F8000771F0DC063962FAD6397222361F04B8589
:104F90005C856D857E854C565D4F6F4F7F4F840FCE
:104FA000951FA61FB71F65963FAC6597332061F02C
:104FB0004F85588969897A894C565D4F6F4F7F4F6D
:104FC000840F951FA61FB71F66962FAD66972223E5
:104FD00009F478C04C015D0126E2820E22E0921EA7
:104FE000A11CB11CC814D904EA04FB0408F46AC06B
:104FF000AB81B0E020E03FE24AE350E00E9455324E
:105000002B013C0134EF430E31E0531E611C711C37
:10501000A7019601281939094A095B09A8EEB3E0EE
:105020000E9455324B015C01C301B20120ED37E013
:1050300040E050E00E949F32820E931EA41EB51ED7
:10504000C301B20128EE33E040E050E00E949F32FD
:10505000C501B4010E949F32332031F08F819885C1
:10506000280F391F411D511D2115310541055105DD
:10507000E1F029013A0181E0481A510861087108FC
:1050800060E070E0D301C2018827892B8A2B8B2B2B
:1050900039F076946794579447946F5F7F4FF2CFBF
:1050A000762F66276429752902C060E070E081E7E9
:1050B0000E94D91CC0928809D0928909E0928A097D
:1050C000F0928B0961E081E00E946E2180E40E94F1
:1050D0007620882309F4FDCB62E081E00E946E21F6
:1050E00080E00E947620882309F4F3CB68EE81E00B
:1050F0000E946E2161E080E80E946E2161E08FEFE6
:105100000E946E2160E080E00E946E21609187091C
:1051100081E90E946E2161E080E00E946E2160E0E2
:105120008FEF0E946E2160E080E80E946E2162E0B5
:1051300080E00E946E2190910001E1E0F1E080E0CA
:1051400001C0FFCF958786878F5F3F968532D1F765
:105150006FEC73E0CE0101960E94CB1123E041E099
:1051600060E0CE0101960E94D520CE0101960E94FA
:105170000D216CE271E080E090E00E943020612F10
:1051800070E06F5F7F4F822D902F0E942B1E62EE8A
:1051900073E0CE018F5A9F4F0E94CB11622D702F6A
:1051A000CE018F5A9F4F0E94DF1DBC01CE01019698
:1051B0000E94B11120E043E060E0CE0101960E9420
:1051C000D520CE0101960E940D21CE018F5A9F4F0E
:1051D0000E940D21822D902F0E940D2168E572E022
:1051E00080E090E00E94302060EF73E0CE010196F5
:1051F0000E94CB1120E043E060E0CE0101960E94C6
:10520000D520CE0101960E940D216CE271E080E074
:1052100090E00E94302060E074E0CE0101960E9490
:10522000CB1120E043E069E6CE0101960E94D52033
:10523000CE0101960E940D2110E0812F0E94F31BE8
:105240000E94631E62E070E080E090E00E943020E7
:105250001F5F1F3F91F768EE73E080E090E00E94CF
:105260003020809101088F5F0E94E01181EB99E06E
:105270000E94BC201E0191E4290E311CEE24EA9408
:10528000B3E0FB2E1FE7412E512C612C712C0E94A4
:105290006A204B015C016093D3067093D40680931F
:1052A000D5069093D606A9E8CA2EA5E0DA2E00E02E
:1052B00010E000FF02C061E001C060E088E00E94F1
:1052C0009A1F01FF02C061E001C060E089E00E9416
:1052D0009A1F02FF02C061E001C060E08AE00E9404
:1052E0009A1FC801F3E095958795FA95E1F7892B08
:1052F00011F061E001C060E08BE00E949A1F61E064
:1053000070E080E090E00E94302082E10E94052061
:10531000F601819391936F0183E10E940520F601CC
:10532000978F868F0F5F1F4F0031110511F60E9476
:10533000A209609381057093820580938305909301
:105340008405C501B4010E9408090E946A20709377
:1053500086096093850983E10E94B71C8770E1F498
:105360008091820990918309892BA9F30E946A2078
:105370002091850930918609621B730B8091820907
:10538000909183098617970730F781E0809384090D
:10539000CC24CA94DC2C09C08EE10E94D9218C0156
:1053A00061E08BE00E946E216801860106541109BC
:1053B000083EF3E01F0784F50115110569F16091BE
:1053C000850570918605809187059091880528E074
:1053D00030E040E050E00E943632A7E0B0E00E94AA
:1053E000553217FF02C0095F1F4FE3E0159507957F
:1053F000EA95E1F7012E000C220B330BDC01CB0107
:10540000800F911FA21FB31F80938505909386057F
:10541000A0938705B0938805809184091092840930
:105420008823B9F065E074E0CE0101960E94CB11AB
:1054300021E040E060E0CE0101960E94D520CE013F
:1054400001960E940D2164EF71E080E090E00E94DF
:10545000302021E633E0AE014F5F5F4F6A01DE018D
:105460005996CA01F90141919F01E42FF0E0EE0F36
:10547000FF1FE757FA4F40815181FC01419351933F
:10548000CF01EA17FB0771F78DE493E0FC0121914E
:10549000CF01E22FF0E0EE0FFF1FE757FA4F208118
:1054A00031814FEF53E0421B530B4D935D93A21597
:1054B000B30561F784E10E940520F701E81BF90BB1
:1054C000CF01F1019183808385E10E94052097013E
:1054D000281B390B25963FAF2EAF259786E10E94FA
:1054E0000520A701481B590B27965FAF4EAF2797A2
:1054F00087E10E940520F701E81BF90B2996FFAF11
:10550000EEAF29978091850590918605A09187053A
:10551000B0918805B7FD0CC08139F1E09F07A10566
:10552000B10524F080E991E0A0E0B0E09C0102C068
:1055300020E030E0A1E0BCEF0E94FE3220E931E043
:1055400040E050E00E943632DA01C90181509C4FA0
:10555000AF4FBF4F2B969FAF8EAF2B9701E011E05F
:10556000B12CAA24A394F8011482F601219131915F
:105570006F01F80180819181A901481B590BCA0173
:1055800057FF03C09195819591094097E4F1F80187
:1055900031832083A1E8BFEF0E94FE322FEF33E07A
:1055A00040E050E00E943632CA01B90161587F4F95
:1055B0008F4F9F4FF80173836283A4824585868550
:1055C0000E94BF0AB092800580917D05882359F022
:1055D000F801828193818637910514F085E790E088
:1055E000F80185830EC080917205882361F0F8016F
:1055F000828193818A30910514F48AE090E0F80169
:105600008683A092D106B394015F1F4FF5E2BF12CB
:10561000AACF80910B0881110CC080913905882395
:10562000A1F181E080930B0880918005809311089F
:105630002AC080910C08811130C0809170058823A8
:1056400061F080910A08863019F410920A0803C0AC
:105650008F5F80930A080E941C0B80917B05882332
:1056600059F080910A08811102C086E001C0815082
:1056700080930A080E941C0B80913905882329F029
:1056800081E080930C080E941C0B0EE315E0D12CE6
:10569000AA24A39449E0B42E2CC2E0910A088E2FCC
:1056A00090E08730910508F0FEC1FC01EA5AFF4FF7
:1056B0000C94F83280917B058823F9F0E091110871
:1056C0002E2F30E04FE0E49FF0011124EF5FFE4FFA
:1056D0008685811102C08FE701C081508093120836
:1056E0008FE0829FF001839FF00D1124EF5FFE4F4A
:1056F0008091120886870E941C0B80917005882378
:1057000009F4D1C1E09111082E2F30E05FE0E59F50
:10571000F0011124EF5FFE4F86858F5F87FD80E0EB
:105720009FE0929FF001939FF00D1124EF5FFE4FD9
:1057300086879DC080917B05882309F1809111089F
:1057400090E03FE0389FF001399FF00D1124EF5FAA
:10575000FE4F2585211103C03093120803C021504C
:10576000209312082FE0289FF001299FF00D1124AB
:10577000EF5FFE4F8091120885870E941C0B80917D
:105780007005882309F48FC1E09111082E2F30E0B5
:105790008FE0E89FF0011124EF5FFE4F85858F5F5A
:1057A0008F3018F48093120802C0109212088FE014
:1057B000829FF001839FF00D1124EF5FFE4F8091D7
:1057C0001208858754C080917B058823F9F0E09109
:1057D00011089FE09E9FF0011124EF5FFE4F858529
:1057E000811109C090931208209112088CE293E075
:1057F000E1E0F1E004C0815080931208F5CF2587E5
:105800003F968E179F07D9F70E941C0B8091700559
:10581000882309F448C1E09111089FE0E99FF00155
:105820001124EF5FFE4F85858F5F8F3018F48093D2
:10583000120802C010921208209112088CE293E024
:10584000E1E0F1E025873F968E179F07D9F70FC05B
:10585000E1E0F1E080E021E09FE7258786879683FD
:1058600015828F5F3F968532C1F710920C080E9417
:105870001C0B19C1E1E0F1E080E021E09FE7258702
:105880008687968315828F5F3F968532C1F7EDCF6D
:1058900069E174E0CE0101960E94CB1121E041E064
:1058A00060E0CE0101960E94D520CE0101960E94B3
:1058B0000D2114E60E94A209609381057093820570
:1058C00080938305909384050E946A200E940809B2
:1058D0008091440581110CC080914F05811108C051
:1058E00080915A05811104C080916505882361F07B
:1058F000EEE3F5E080E096819111182F8F5F3B96E3
:105900008430C9F781E001C080E0909139059111A0
:1059100002C0882379F2143609F4C5C081EB99E0FE
:105920000E94BC20612F70E06F5F7F4FCE01855BCE
:105930009F4F0E942B1E6AE274E0CE0101960E94E6
:10594000CB11BE01655B7F4FCE0101960E94DF1D2A
:10595000BC01CE018F5A9F4F0E94B11121E041E05E
:1059600060E0CE018F5A9F4F0E94D520CE018F5A02
:105970009F4F0E940D21CE0101960E940D21CE0164
:10598000855B9F4F0E940D21812F0E94910885C049
:105990006AE374E0CE0101960E94CB1121E041E060
:1059A00060E0CE0101960E94D520CE0101960E94B2
:1059B0000D2114E60E94A20960938105709382056F
:1059C00080938305909384050E946A200E940809B1
:1059D0008091440581110CC080914F05811108C050
:1059E00080915A05811104C080916505882361F07A
:1059F000EEE3F5E080E096819111182F8F5F3B96E2
:105A00008430C9F701E001C000E062E370E080E0AB
:105A100090E00E94302080913905811102C000235E
:105A200049F2143609F43FC081EB99E00E94BC2092
:105A3000612F70E06F5F7F4FCE01855B9F4F0E94AB
:105A40002B1E62EE73E0CE0101960E94CB11BE01C7
:105A5000655B7F4FCE0101960E94DF1DBC01CE0128
:105A60008F5A9F4F0E94B11121E041E060E0CE01CA
:105A70008F5A9F4F0E94D520CE018F5A9F4F0E9470
:105A80000D21CE0101960E940D21CE01855B9F4F15
:105A90000E940D21812F0E942E0864EF71E080E0AA
:105AA00090E00E94302080913905882321F01092E7
:105AB0000C080E941C0B0E946A2000910D08109196
:105AC0000E0820910F0830911008DC01CB01801BDB
:105AD000910BA20BB30B89389341A105B10508F4D2
