:100000000C9441070C9469070C9469070C946907D8
:100010000C9469070C9469070C9469070C946907A0
:100020000C9469070C9469070C941F130C94EF143B
:100030000C9469070C9469070C9469070C94690780
:100040000C9469070C9469070C9469070C94690770
:100050000C9469070C9469070C9469070C94162397
:100060000C9469070C9453170C942D170C94690782
:100070000C9469070C9469070C9469070C94690740
:100080000C9469070C9469070C9469070C94690730
:100090000C94F01B0C9469070C9469070C94690785
:1000A0000C9469070C9469070C9469076E2CAE2CAC
:1000B000F72C3C2D4E2D5C2DDC2DC20C060D1E0D9B
:1000C000210D2B0D2E0D310DAC20AF209E20A22036
:1000D000A820D020D020D020B320B720BB20C12022
:1000E000C520D020CB20AED580A81FD300408D14D2
:1000F0002002A1C8DA02817FD9F1DB40A4A6AFE6D5
:100100000019802000000000002300260029002C98
:10011000002F00080B000202020100090400000188
:10012000020200000524001001052401010104243D
:10013000020605240600010705810310004009049A
:100140000100020A00000007050202400000070546
:1001500083024000000403090412010002EF0201BF
:100160004041233680000101020301417264756938
:100170006E6F204C4C430041726475696E6F204C69
:10018000656F6E6172646F0000030C0F30333C3F8B
:10019000C0C3CCCFF0F3FCFF070605040100080A3A
:1001A0000B0C0D0900000000240027002A002D0080
:1001B00030000000000200090F0000030401000CE1
:1001C000000000000000000000000000000000002F
:1001D0000022080D0E20600402050607080902032C
:1001E00003050802040204070407070707070707B7
:1001F000070202070707080E090808080707090889
:10020000020708070B0809070909070808090D076D
:10021000080804040406080307070607070507077C
:10022000020306020A0707070705060507070B066C
:10023000070505010507080000000000000000FE9A
:10024000FE18181E1E001E1E000000000090F89EE2
:1002500090F89E1C00001C0000183C26FF66CC880D
:10026000040C183C180C041C221CC0308E4080006A
:10027000001804000C100C80CC7E72F2DE0C8000A2
:100280000C1C1010101C0C1C101E1E0000F0FC0694
:100290001C7CC006FCF0C07C1C14140E141400005E
:1002A000000000606060FCFC6060600000000C0CFE
:1002B00000000000005838C0C0C0C00000000000AE
:1002C00000181800C0380618040000F8FC0E060ECE
:1002D000FCF8040C1C181C0C04180CFEFE00001C7E
:1002E0001C181C86C6663E1C181C1C18181818887A
:1002F0008C062626FEDC040C1C18180C04C0E0B882
:100300008CFEFE80040404041C1C04707E3E363601
:10031000F6C60C1C1818180C04F8FC6E6666EECCB9
:10032000040C1818181C0C060606E6761E060000BB
:100330001C1C0000009CFE666666FE9C0C1C1818C7
:10034000181C0C3C7E666666FCF80C1C18181C0C0D
:100350000418181818181858386060F0F098980C9D
:100360000000000004040CD8D8D8D8D8D8D8000091
:1003700000000000000C9898F0F060600C0404008D
:10038000000000080C06C6E6763C180000001818AD
:10039000000000E03008C4F63A1A1AF2FA7E0408A7
:1003A000F00C30604C9C98988C9C9C90484C2000A1
:1003B000C0F8BE86BEF8C000181C04040404041C67
:1003C00018FEFE66666666FEDC1C1C181818181CF3
:1003D0000CF8FC0E06060E9C08040C1C18181C0CCD
:1003E00004FEFE0606060EFCF81C1C1818181C0C51
:1003F00004FEFE66666666661C1C1818181818FE51
:10040000FE66666666061C1C0000000000F8FC0E16
:100410000606C6CEDCC8040C1C181818180C04FEFE
:10042000FE60606060FEFE1C1C000000001C1CFEE4
:10043000FE1C1C8080000000FEFE0C1C1818181CFE
:100440000CFEFE603078EC86021C1C000000041CD0
:1004500018FEFE00000000001C1C1818181818FEDA
:10046000FE0E7CE000E07C0EFEFE1C1C00000C1C5E
:100470000C00001C1CFEFE1C78E080FEFE1C1C0014
:1004800000040C1C1CF8FC0E0606060EFCF8040CFE
:100490001C1818181C0C04FEFE6666667E3C1C1CAC
:1004A0000000000000F8FC0E0686060EFCF8040CA6
:1004B0001C18181C0C1C24FEFE6666E6E6BE1C001A
:1004C0001C1C0000000C1C18103C7E666666EECCFE
:1004D0000C1C1818181C0C060606FEFE0606060064
:1004E00000001C1C000000FEFE00000000FEFE04D8
:1004F0000C1C18181C0C04021EFCE000E0FC1E0280
:100500000000001C1C1C00000006FEF800F0FE0E9F
:10051000FEF000F8FE0600001C1C1C0000001C1C65
:100520001C0000060EF8F0F80E06181C0400041C4F
:1005300018060E38F0F0380E060000001C1C0000F3
:1005400000060686E6761E0E06181C1C18181818DB
:1005500018FEFE0606FCFCC0C00638C00000000401
:10056000180606FEFEC0C0FCFC20380E0E38200027
:1005700000000000000000000000000000808080FB
:1005800080808080800206040000001098D858F80F
:10059000F0000C1C18180C1C10FEFE301838F0E08F
:1005A0001C1C0C181C0C04E0F018183830040C1833
:1005B000181C0CE0F0381830FEFE040C1C180C1C43
:1005C0001CE0F0D8D8D8F0E0040C18181818081857
:1005D000FCFE1A1A001C1C0000E0F0381830F8F875
:1005E00064ECDCD8CCFC7CFEFE301818F8F01C1C47
:1005F0000000001C1CFAFA1C1C00FAFAC0FC7CFE6D
:10060000FEE0F098081C1C00041C18FEFE1C1CF8E0
:10061000F81018F8F01818F8F01C1C00001C1C004A
:10062000001C1CF8F8301818F8F01C1C0000001C06
:100630001CE0F0381838F0E0040C1C181C0C04F80E
:10064000F8301838F0E0FCFC0C181C0C04E0F03812
:100650001830F8F8040C1C180CFCFCF8F8301818CA
:100660001C1C00000070F8D8D8D890081818181C66
:100670000C18FCFE1818000C1C1818F8F8000000E4
:10068000F8F80C1C18180C1C1C38F8C000C0F838FE
:1006900000001C1C1C000018F8E000F038F000E01E
:1006A000F81800001C1C0C000C1C1C00001838E082
:1006B000E03818181C04041C1818F8E000E0F818BA
:1006C0000084FCF83C04001898D878381C1C1818D2
:1006D0001880FC7E0606007CFCC0C0FEFC06067E80
:1006E000FC80C0C0FC7C0060303070606030000076
:1006F0000000000000FE020202020202FE1C1010B6
:10070000101010101C0000070E20600000000000F8
:100710000000000000000000000000FC00000000DD
:1007200000000D00000000003C003C000000000044
:10073000000000000020F82020F82000010701013F
:100740000701006090F89010000004040F040300FB
:100750000018249860100C000C02010609060030F5
:10076000C8C8300000000708080906090000003C5E
:1007700000000000000000000000000000E018047D
:1007800002000000030C102000020418E00000002A
:1007900020100C0300000080A0C0C0A08000000258
:1007A0000101020000808080F0808080000000074E
:1007B0000000000000000000000020180C040000F1
:1007C0000080808080808000000000000000000029
:1007D00000000000000000081C080000000000806D
:1007E0006018060018060100000000F008844408A4
:1007F000F00003040808040300201008FC000000B7
:100800000000000F000000180404844438000C0AA3
:1008100009080808000804444444B8000608080809
:1008200008070080601804FC0000010101010F01AD
:10083000007C24242424C40006080808080700F8C3
:100840008444444488000708080808070004040496
:10085000C4340C00000C0300000000B844444444BD
:10086000B800070808080807007884848444F80062
:100870000408080808070000207020000000000895
:100880001C080000000020702000000020180C044C
:100890000000008040201008000000010204080051
:1008A00000404040404040000202020202020000BC
:1008B0000810204080000008040201000004844465
:1008C00024180000000D0000000000F008C42424DB
:1008D000F8000304090A0A0300F884848484F800F9
:1008E0000F000000000F00FC4444447880000F0813
:1008F0000808080700F8040404041800070808089A
:10090000080600FC04040408F0000F0808080403AB
:1009100000FC4444444404000F080808080800FC94
:100920004444444404000F000000000000F80404A4
:100930008484980007080808080700FC40404040ED
:10094000FC000F000000000F000404FC0404000081
:1009500008080F080800000000040404FC00060852
:100960000808080700FC4020D00804000F00000021
:10097000030C00FC0000000000000F080808080835
:1009800000FC1860806018FC0F00000100000FFCE4
:1009900018608000FC000F000001060F00F804043E
:1009A0000404F80007080808080700FC848484840D
:1009B00078000F000000000000F804040404F800B0
:1009C0000708080E181700FC8484848478000F0040
:1009D000010204080038444484840800040808081C
:1009E000080700040404FC0404040000000F0000D5
:1009F00000FC00000000FC0007080808080700FCD5
:100A000000000000FC0000030C0C030000FC0000D0
:100A1000C00000FC030C0300030C030C30C0C0300A
:100A20000C000C030000030C003C408080403C00A4
:100A30000000000F00000004048444340C000C0A81
:100A400009080808000000FE0202020000003F2022
:100A50002020000618608000000000000001061839
:100A600000020202FE0000002020203F00000010D3
:100A7000080404081000000000000000000000004E
:100A8000000000002020202020200000040C18205E
:100A900000000000000000000000A0A0A0A0C00016
:100AA00007080808040F00FC40202020C0000F04A5
:100AB0000808080700C02020202040000708080878
:100AC000080400C020202040FC0007080808040F8C
:100AD00000C020202020C000070909090909008062
:100AE000F88484840800000F0000000000C020206B
:100AF0002040E00023444444423F00FC40202020AA
:100B0000C0000F000000000F00002020EC000000DB
:100B10000000000F00000000002020EC000010206A
:100B200020201F0000FC0080402000000F01010277
:100B300004080000FC00000000000007080808008E
:100B400000E02020C02020C00F00000300000FE0C4
:100B500040202020C0000F000000000F00C0202017
:100B60002020C00007080808080700E040202020D7
:100B7000C0007F020404040300C020202040E000E5
:100B800003040404027F00E04020202040000F0006
:100B90000000000000C020202020400004090909B6
:100BA00009060020F820202000000007080808049B
:100BB00000E000000000E00007080808040F00E063
:100BC00000000000E00000030C0C030000E0000047
:100BD000800000E0070804030408072040808040EC
:100BE000200008040202040800E000000000E00009
:100BF00023444444423F0020202020A06000080CF1
:100C00000A090808000080807C0202000000001F22
:100C10002020000000FE0000000000001F00000077
:100C20000002027C8080000020201F0000000030B5
:100C300008081020201800000000000000FEFEFE42
:100C4000FEFEFEFE7F7F7F7F7F7F7F000005072007
:100C500060000000000000005F00000003000300CF
:100C6000143E143E14242A7F2A1243330866613648
:100C7000495522500005030000001C22410000419C
:100C8000221C0014083E081408083E0808005030D2
:100C90000000080808080800606000002010080430
:100CA000023E5149453E0004027F004261514946DF
:100CB00022414949361814127F1027454545393ECF
:100CC00049494932010171090736494949362649DE
:100CD00049493E003636000000563600000814220E
:100CE0004100141414141400412214080201510983
:100CF000063E4159555E7E0909097E7F49494936BC
:100D00003E414141227F4141413E7F494949417F26
:100D1000090909013E4141493A7F0808087F00411D
:100D20007F4100304040403F7F081422417F4040D7
:100D300040407F020C027F7F0204087F3E41414118
:100D40003E7F090909061E2121215E7F09090976D6
:100D5000264949493201017F01013F4040403F1F80
:100D60002040201F7F2010207F41221C22410708A5
:100D70007008076151494543007F410000020408A3
:100D800010200000417F0004020102044040404066
:100D900040000102040020545454787F44444438F5
:100DA0003844444444384444447F38545454180428
:100DB000047E0505085454543C7F0804047800441C
:100DC0007D40002040443D007F1028440000417FCA
:100DD00040007C047804787C080404783844444457
:100DE000387C14141408081414147C007C080404BF
:100DF000485454542004043F44443C4040207C1C4C
:100E00002040201C3C4030403C44281028440C50DA
:100E100050503C4464544C44000836414100007F2B
:100E20000000414136080002010204027F7F7F7FFB
:100E30007F0408020110408040102040804080085C
:100E40000204018040201002011080102040402048
:100E500000000000250028002B002E0031000404B3
:100E60000404040304050202020204030202020253
:100E70000606060606060404020202040400CB2F3E
:100E8000BB2F11241FBECFEFDAE0DEBFCDBF15E0D0
:100E9000A0E0B1E0EAE0FAE602C005900D92AE32C1
:100EA000B107D9F729E0AEE2B5E001C01D92AC3C34
:100EB000B207E1F717E0C0E4D7E004C02197FE01D4
:100EC0000E94E732CF33D107C9F70E9460230C9408
:100ED000F8340C9400008F929F92AF92BF92CF9201
:100EE000DF92EF92FF920F931F93FC0111861286FF
:100EF000168217826083808561110BC0811120C02A
:100F0000118281E0808786832283338344835583E3
:100F10001AC08823A9F0108681E08783C280D3801D
:100F2000E480F58049015A018C189D08AE08BF087D
:100F30000CE2801601E09006A104B1040CF4818754
:100F40008181811117C080858823A1F082819381DE
:100F5000A481B58149015A01881A990AAA0ABB0AD3
:100F600005EF801601E09006A104B1041CF081E0B9
:100F7000828781831F910F91FF90EF90DF90CF9038
:100F8000BF90AF909F908F900895FC016093BC003C
:100F90008091BC0087FFFCCF9091B900987F90832F
:100FA0000895CF92DF92EF92FF920F931F93CF930A
:100FB000DF93EC01C62ED42E8C89882351F0411189
:100FC00008C084E98093BC008091BC0084FDFCCF04
:100FD0001C8AEC888E010E5E1F4FE11014C0FB8846
:100FE00064EAC8010E94C5078A89883011F18031FE
:100FF00001F1DD2011F080E4E82EE092BB0064E80E
:10100000C8010E94C507C092BB0064E8C8010E94E5
:10101000C50782E0D81204C08C898F5F8C8B11C009
:1010200084E98093BC008091BC0084FDFCCF1C8AC5
:1010300008C0FF0CF092BB0064E8C8010E94C5071D
:10104000D8CFDF91CF911F910F91FF90EF90DF905C
:10105000CF900895089580E090E008956F927F9278
:101060008F929F92AF92BF92CF92DF92EF92FF92B8
:101070000F931F93CF93DF9300D000D0CDB7DEB78F
:10108000682E8FEF93E00E940F32681629F0662DCC
:101090008FEF93E00E94173201E011E084E9689E2F
:1010A00030011124E12CF12C43018E0C9F1CFE0118
:1010B00031965F01CC24C394D12CC601880D991DB3
:1010C0000E940F32F50181935F01FFEFCF1ADF0A13
:1010D00085E0C816D10489F78981F80185878A815E
:1010E00086878B8185838C818683015F1F4FF4E027
:1010F000EF0EF11C84E9E816F104B1F60F900F90A1
:101100000F900F90DF91CF911F910F91FF90EF9073
:10111000DF90CF90BF90AF909F908F907F906F9017
:1011200008952F923F924F925F926F927F928F928B
:101130009F92AF92BF92CF92DF92EF92FF920F9366
:101140001F93CF93DF9300D000D01F92CDB7DEB7AF
:10115000F82E8FEF93E00E940F32F81629F06F2DD2
:101160008FEF93E00E94173201E011E0CE0101966B
:101170003C01E4E9FE9EC00111241C012618370839
:10118000E12CF12C2E01F5E04F0E511CF801858564
:10119000898386858A8385818B8386818C834701B9
:1011A000820C931C6301F60121916F012D835F0175
:1011B000A80CB91CC5010E940F329D81981721F01F
:1011C000692FC5010E9417324C145D0461F7015F5D
:1011D0001F4FE4E0EE0EF11CF4E9EF16F104B1F656
:1011E0000F900F900F900F900F90DF91CF911F9164
:1011F0000F91FF90EF90DF90CF90BF90AF909F90B6
:101200008F907F906F905F904F903F902F900895B8
:10121000CF92DF92EF92FF920F931F93CF93DF93C2
:1012200000D000D0CDB7DEB78091D1069091D20624
:10123000A091D306B091D4064091D5065091D60620
:101240006091D7067091D806841B950BA60BB70B3F
:101250008F739927AA27BB27892B8A2B8B2B09F001
:1012600055C0809103080E94A014882309F462C02D
:10127000C090D106D090D206E090D306F090D4066C
:101280008FEFC81AD80AE80AF80A8FE3C822DD24CB
:10129000EE24FF248091D5069091D606A091D70622
:1012A000B091D8068C159D05AE05BF0579F18091EA
:1012B00003080E94A01444E050E0BE016F5F7F4F1E
:1012C000809103080E947114049704F18091D10663
:1012D0009091D206A091D306B091D406880F991FA1
:1012E000880F991FFC01EF52FA4F49815A816B8197
:1012F0007C814083518362837383C092D106D092F4
:10130000D206E092D306F092D406BACF8091D506E9
:101310009091D606A091D706B091D806880F991F54
:10132000880F991FFC01EF52FA4F6081E180F28033
:10133000D38004C0D12CF12CE12C60E00091D106C7
:101340001091D2062091D3063091D4068091D50613
:101350009091D606A091D706B091D8060817190724
:101360002A073B07B9F08091D5069091D606A09147
:10137000D706B091D8060196A11DB11D8F7399278C
:10138000AA27BB278093D5069093D606A093D706AD
:10139000B093D8066623D9F085EE98E00E94CB1171
:1013A000EE2029F06E2D85EE98E00E94CB11FF20F3
:1013B00029F06F2D85EE98E00E94CB11DD2009F415
:1013C00033CF6D2D85EE98E00E94CB112DCF0F907D
:1013D0000F900F900F90DF91CF911F910F91FF9081
:1013E000EF90DF90CF900895CF92DF92EF92FF922F
:1013F0006B017C018091830590918405A091850506
:10140000B091860524E0B695A795979587952A957E
:10141000D1F7682F6170A701960187E795E00E94D8
:101420006B078091830590918405A0918505B0910B
:10143000860535E0B695A795979587953A95D1F7A6
:10144000682F6170A70196018CE695E00E946B07FA
:101450008091830590918405A0918505B0918605C2
:1014600046E0B695A795979587954A95D1F7682F49
:101470006170A701960185E395E00E946B0760917A
:1014800083056170A701960180E495E00E946B07D7
:101490008091830590918405A0918505B091860582
:1014A000B695A79597958795682F6170A7019601C6
:1014B0008BE495E00E946B078091830590918405F1
:1014C000A0918505B091860562E0B695A7959795A0
:1014D00087956A95D1F7682F6170A701960186E517
:1014E00095E00E946B078091830590918405A091FF
:1014F0008505B091860573E0B695A7959795879574
:101500007A95D1F7682F6170A701960181E695E081
:10151000FF90EF90DF90CF900C946B074F925F920B
:101520006F927F928F929F92AF92BF92CF92DF92F3
:10153000EF92FF920F931F93CF93DF9360E08CE0C5
:101540000E94D12083E090E00197F1F761E08CE008
:101550000E94D120C7E0D0E0812C912C540197EB60
:10156000692E91E0792E26E3E22E2EE0F22E33E66C
:10157000C32E3EE0D32E03E010E0F3018491F70187
:101580005490F60144904420A1F081110E949420CF
:10159000E42DF0E0EE0FFF1FEB5FFE4FA591B4913D
:1015A0008C91582231E020E009F430E0832F922F13
:1015B00002C080E090E0092E000CAA0BBB0B0C2EA1
:1015C00004C0880F991FAA1FBB1F0A94D2F7882A4C
:1015D000992AAA2ABB2A61E086E00E94D120C8018C
:1015E0000197F1F760E086E00E94D120219708F092
:1015F000C4CFC501B401DF91CF911F910F91FF902E
:10160000EF90DF90CF90BF90AF909F908F907F90A2
:101610006F905F904F9008956F927F928F929F92FC
:10162000AF92BF92CF92DF92EF92FF920F931F93F0
:10163000CF93DF9390EC699FB0011124672F770F50
:10164000770B6B01FFE1CF22DD24A3E0CC0CDD1C86
:10165000AA95E1F7822E912CC42FD0E0EE24EA94D3
:10166000F12C87010C1B1D0B089DD001099DB00DAD
:10167000189DB00D11244B2FCC9E5001CD9EB00C67
:10168000DC9EB00C1124AB2CBB2400E011E038012F
:101690006A187B08689C5001699CB00C789CB00C5F
:1016A0001124EC18FD08EC9E6001ED9ED00CFC9E10
:1016B000D00C1124CD2CDD240C191D09089DE0014E
:1016C000099DD00D189DD00D112462956695677007
:1016D000623091F038F4662369F06130D9F4522F0A
:1016E000EB2D19C0643081F058F0653099F45B2F10
:1016F0004B2D0EC05D2F0CC0522FEB2F4D2F0BC06A
:101700005B2DEB2F422F07C05B2F422FED2F03C025
:10171000E22F01C040E0682F70E020919C093091D9
:101720009D096217730708F03FC02091A209222388
:1017300061F0E29FF0011124EF2F259FD0011124C9
:101740005B2F249F90011124432FF091A8099091C1
:10175000A5092091A3093091A409F91308C0B90182
:10176000F3E08F9F600D711D1124CB010BC0CB01E5
:10177000880F991F880F991F820F931FDC01AF0FED
:10178000B11D1C922091A509DC01A20FB11DEC93A3
:101790002091A609FC01E20FF11D50832091A709B9
:1017A000FC01E20FF11D4083DF91CF911F910F915A
:1017B000FF90EF90DF90CF90BF90AF909F908F9071
:1017C0007F906F900895CF93DF93EC0181E08A833F
:1017D0000E94A721798368832FEF40E060E08B812E
:1017E000DF91CF910C940C0BFF920F931F93CF932B
:1017F000DF9300D000D0CDB7DEB7F82E062F11E072
:10180000140F8EE899E00E94E30B212F402F6F2DDB
:1018100080EB0E94672082E999E00E94E30B8BE055
:101820008983106B1A83FB820C8300E018E0F801B7
:10183000838144E050E0BE016F5F7F4F8F5F0E9465
:10184000D813F80183818F5F0E9415130F900F90BA
:101850000F900F90DF91CF911F910F91FF900895FE
:10186000CF93DF93FC0122812223C1F0EC010E947F
:10187000A72128813981DC01CB01821B930BA109AF
:10188000B1094097A105B10508F01A822FEF40E099
:1018900060E08B81DF91CF910C940C0BDF91CF91A5
:1018A0000895EF92FF920F931F93CF93DF93CDB7DD
:1018B000DEB768970FB6F894DEBF0FBECDBF0E94AB
:1018C000A72160930F0870931008809311089093DC
:1018D000120880EB99E00E94F92180910E08811195
:1018E000D0C06CE474E0CE0101960E94001320E0A9
:1018F00040E060E0CE0101960E941222CE010196E6
:101900000E944A2262E674E0CE0101960E94001312
:1019100020E043E060E0CE0101960E941222CE0159
:1019200001960E944A2265E674E0CE0101960E946B
:10193000001320E043E06FE3CE0101960E941222E3
:10194000CE0101960E944A2268E674E0CE0101961B
:101950000E94001320E043E063E7CE0101960E945D
:101960001222CE0101960E944A22E0910C088E2F8D
:1019700090E08730910508F0EDC1FC01E35AFF4F7C
:101980000C94E732E09113088FE0E89FF0011124F6
:10199000EF5FFE4F6685CE010D960E94151F609188
:1019A0001308CE0107960E94151F6BE674E0CE0166
:1019B00001960E940013BE01695F7F4FCE01019620
:1019C0000E94021F66E774E00E94AC12BE01635FD2
:1019D0007F4F0E94021FBC01CE0143960E94E61277
:1019E00021E041E060E0CE0143960E941222CE0148
:1019F00043960E944A22CE0101960E944A22CE01BD
:101A000007960E944A22CE010D96A2C1609113084A
:101A1000CE0107960E94151F6BE674E0CE01019679
:101A20000E940013BE01695F7F4FCE0101960E94A4
:101A3000021F6BE774E00E94AC1274C160E874E0AE
:101A400002C061E974E0CE0101960E94001321E01A
:101A500041E060E00FC061EA74E0F5CF63EB74E051
:101A600002C06FEB74E0CE0101960E94001321E0EA
:101A700041E064E1CE0101960E941222CE0101965E
:101A800067C16BEC74E0CE0101960E94001320E068
:101A900040E060E0CE0101960E941222CE01019644
:101AA0000E944A2260EE74E0CE0101960E9400136B
:101AB00020E043E060E0CE0101960E941222CE01B8
:101AC00001960E944A2262EE74E0CE0101960E94C5
:101AD000001320E043E06CE3CE0101960E94122245
:101AE000CE0101960E944A2267EE74E0CE01019673
:101AF0000E94001320E043E069E6CE0101960E94B7
:101B00001222CE0101960E944A2280910C08813057
:101B100009F490C0B8F0823009F01CC1609114083B
:101B2000CE0107960E94151F65E075E0CE01019673
:101B30000E940013BE01695F7F4FCE0101960E9493
:101B4000021FF0C0E0911308AFE0EA9FF0011124FA
:101B5000EF5FFE4F6685CE010D960E94151F6091C6
:101B60001308CE0107960E94151F60E774E0CE01AE
:101B700001960E940013BE01695F7F4FCE0101965E
:101B80000E94021F69EE74E00E94AC12BE01635F06
:101B90007F4F0E94021FBC01CE0143960E94E612B5
:101BA00021E041E060E0CE0143960E941222CE0186
:101BB00043960E944A22CE0101960E944A22CE01FB
:101BC00007960E944A22CE010D960E944A2291E079
:101BD000E92E91E0F92E10E00FE0E0911308E117F3
:101BE00011F10E9FF0011124EF5FFE4F9685D70192
:101BF0001E968C911E97981316C095851D968C91F4
:101C0000981311C06FEE74E0CE0101960E9400138C
:101C100020E040E069E1CE0101960E941222CE014F
:101C200001960E944A221F5FBFE0EB0EF11C1532A5
:101C3000A1F690C0E09113088FE0E89FF001112415
:101C4000EF5FFE4F6585CE010D960E94151F6091D6
:101C50001308CE0107960E94151F60E774E0CE01BD
:101C600001960E940013BE01695F7F4FCE0101966D
:101C70000E94021F6FEF74E00E94AC12BE01635F0E
:101C80007F4F0E94021FBC01CE0143960E94E612C4
:101C900021E041E060E0CE0143960E941222CE0195
:101CA00043960E944A22CE0101960E944A22CE010A
:101CB00007960E944A22CE010D960E944A2281E098
:101CC000E82E81E0F82E10E00FE0E0911308E11714
:101CD00011F10E9FF0011124EF5FFE4F9685D701A1
:101CE0001E968C911E97981316C095851D968C9103
:101CF000981311C06FEE74E0CE0101960E9400139C
:101D000020E040E069E1CE0101960E941222CE015E
:101D100001960E944A221F5FBFE0EB0EF11C1532B4
:101D2000A1F618C0BC01CE010D960E94E61221E07A
:101D300041E060E0CE010D960E941222CE010D9688
:101D40000E944A22CE0101960E944A22CE010796A5
:101D50000E944A2268960FB6F894DEBF0FBECDBF30
:101D6000DF91CF911F910F91FF90EF9008951F93F6
:101D7000CF93DF93CDB7DEB762970FB6F894DEBF8F
:101D80000FBECDBFE09182051FE01E9FF001112420
:101D9000EF5FFE4F6685CE0107960E94151F6AEE23
:101DA00074E0CE0101960E940013BE01695F7F4F6F
:101DB000CE0101960E94021FBC01CE010D960E9429
:101DC000E61220E040E060E0CE010D960E94122273
:101DD000CE010D960E944A22CE0101960E944A220F
:101DE000CE0107960E944A22E09182051E9FF001D3
:101DF0001124EF5FFE4F6585CE0107960E94151FE7
:101E000060E075E0CE0101960E940013BE01695F9B
:101E10007F4FCE0101960E94021FBC01CE010D969C
:101E20000E94E61220E040E06AE5CE010D960E9495
:101E30001222CE010D960E944A22CE0101960E94E6
:101E40004A22CE0107960E944A2262960FB6F89463
:101E5000DEBF0FBECDBFDF91CF911F9108951F93BD
:101E6000CF93DF93CDB7DEB762970FB6F894DEBF9E
:101E70000FBECDBF80EB99E00E94F9210E94B70E02
:101E800060918205CE0101960E94151F23E040E07B
:101E900067E3CE0101960E941222CE0101960E94B4
:101EA0004A22E09182051FE01E9FF0011124EF5F9E
:101EB000FE4F6581CE0107960E94151F62E175E015
:101EC000CE0101960E940013BE01695F7F4FCE01D3
:101ED00001960E94021FBC01CE010D960E94E612DF
:101EE00020E043E060E0CE010D960E941222CE0178
:101EF0000D960E944A22CE0101960E944A22CE01EE
:101F000007960E944A22E09182051E9FF00111244B
:101F1000EF5FFE4F6681CE0107960E94151F68E1B4
:101F200075E0CE0101960E940013BE01695F7F4FEC
:101F3000CE0101960E94021FBC01CE010D960E94A7
:101F4000E61221E042E061E4CE010D960E941222E9
:101F5000CE010D960E944A22CE0101960E944A228D
:101F6000CE0107960E944A2260918205CE01019619
:101F70000E94151F23E040E067E3CE0101960E9416
:101F80001222CE0101960E944A2262960FB6F89460
:101F9000DEBF0FBECDBFDF91CF911F9108951F937C
:101FA000CF93DF93CDB7DEB762970FB6F894DEBF5D
:101FB0000FBECDBF80EB99E00E94F9210E94B70EC1
:101FC00060918205CE0101960E94151F23E040E03A
:101FD00067E3CE0101960E941222CE0101960E9473
:101FE0004A22E09182051FE01E9FF0011124EF5F5D
:101FF000FE4F6581CE0107960E94151F6DE175E0C9
:10200000CE0101960E940013BE01695F7F4FCE0191
:1020100001960E94021FBC01CE010D960E94E6129D
:1020200021E042E060E0CE010D960E941222CE0136
:102030000D960E944A22CE0101960E944A22CE01AC
:1020400007960E944A22E09182051E9FF00111240A
:10205000EF5FFE4F6681CE0107960E94151F62E278
:1020600075E0CE0101960E940013BE01695F7F4FAB
:10207000CE0101960E94021FBC01CE010D960E9466
:10208000E61220E043E060E5CE010D960E941222A8
:10209000CE010D960E944A22CE0101960E944A224C
:1020A000CE0107960E944A2260918205CE010196D8
:1020B0000E94151F23E040E067E3CE0101960E94D5
:1020C0001222CE0101960E944A2262960FB6F8941F
:1020D000DEBF0FBECDBFDF91CF911F9108951F933B
:1020E000CF93DF93CDB7DEB762970FB6F894DEBF1C
:1020F0000FBECDBF80EB99E00E94F9210E94B70E80
:10210000E09182051FE01E9FF0011124EF5FFE4F5A
:102110006581CE0107960E94151F62E175E0CE0130
:1021200001960E940013BE01695F7F4FCE010196A8
:102130000E94021FBC01CE010D960E94E61220E013
:1021400043E060E0CE010D960E941222CE010D9672
:102150000E944A22CE0101960E944A22CE01079691
:102160000E944A22E09182051E9FF0011124EF5F38
:10217000FE4F6681CE0107960E94151F62E275E050
:10218000CE0101960E940013BE01695F7F4FCE0110
:1021900001960E94021FBC01CE010D960E94E6121C
:1021A00020E043E060E5CE010D960E941222CE01B0
:1021B0000D960E944A22CE0101960E944A22CE012B
:1021C00007960E944A2260918205CE0101960E94E4
:1021D000151F23E041E067E3CE0101960E94122221
:1021E000CE0101960E944A2262960FB6F894DEBF95
:1021F0000FBECDBFDF91CF911F9108954091E706AB
:102200005091E8062091E5063091E6064217530703
:10221000B4F49091E8009570E1F39091E80092FD9C
:1022200019C08093F1008091E7069091E80601962D
:102230008F739927892B19F48EEF8093E800809192
:10224000E7069091E80601969093E8068093E706EA
:1022500081E0089580E00895615030F02091F10010
:10226000FC0120830196F8CF289884E68093EA0643
:102270000895CF92DF92EF92FF920F931F93CF9327
:10228000DF936C017A018B01C0E0D0E0CE15DF0551
:1022900081F0D8016D918D01D601ED91FC910190F5
:1022A000F081E02DC6010995892B11F02196EECF22
:1022B0007E01C701DF91CF911F910F91FF90EF90A9
:1022C000DF90CF900895FC01538D448D252F30E091
:1022D000842F90E0821B930B541710F0CF96089533
:1022E00001970895FC01918D828D981761F0828D80
:1022F000DF01A80FB11D5D968C91928D9F5F9F733A
:10230000928F90E008958FEF9FEF0895FC01918DDB
:10231000828D981731F0828DE80FF11D858D90E048
:1023200008958FEF9FEF0895FC01918D228D892FE5
:1023300090E0805C9F4F821B91098F7399270895CD
:1023400085EE98E00E94941121E0892B09F420E0A9
:10235000822F0895FC01848DDF01A80FB11DA35ABF
:10236000BF4F2C91848D90E001968F739927848FB5
:10237000A689B7892C93A089B1898C9182748C939A
:10238000938D848D981306C00288F389E02D808197
:102390008F7D80830895EF92FF920F931F93CF93C9
:1023A000DF93EC0181E0888F9B8D8C8D981305C0A5
:1023B000E889F989808185FD26C0F62E0B8D10E015
:1023C0000F5F1F4F0F731127E02E8C8DE8120CC08A
:1023D0000FB607FCFACFE889F989808185FFF5CF30
:1023E000CE010E94AA11F1CF8B8DFE01E80FF11DE5
:1023F000E35AFF4FF0829FB7F8940B8FEA89FB896D
:102400008081806209C09FB7F894EE89FF8960835C
:10241000E889F9898081827480839FBF81E090E0A0
:10242000DF91CF911F910F91FF90EF900895CF937F
:10243000DF93EC01888D8823C9F0EA89FB898081CC
:1024400085FD05C0A889B9898C9186FD0FC00FB69E
:1024500007FCF5CF808185FFF2CFA889B9898C91DF
:1024600085FFEDCFCE010E94AA11E7CFDF91CF917A
:10247000089580E090E0892B29F00E94A01181113D
:102480000C94000008950E94E3340F931F93CF93A0
:10249000DF93EC0188819981009729F02A813B81A3
:1024A0002617370788F48B016F5F7F4F0E941D341A
:1024B000009761F0998388831B830A832C813D8177
:1024C000232B11F4FC01108281E001C080E0DF9138
:1024D000CF911F910F910895EF92FF920F931F9349
:1024E000CF93DF936115710511F480E01CC0411595
:1024F0005105C1F07B01EC018C819D818A01080F9F
:10250000191FB801CE010E944512882371F328815A
:1025100039818C819D81B701820F931F0E94F13414
:102520001D830C8381E0DF91CF911F910F91FF906C
:10253000EF900895CF93DF93EC0188819981009704
:1025400011F00E949433198218821D821C821B8212
:102550001A82DF91CF910895CF93DF93EC0161153B
:10256000710561F0FB0101900020E9F73197AF019F
:10257000461B570B0E946C12811103C0CE010E94B2
:102580009A12CE01DF91CF910895EF92FF920F93AF
:102590001F93CF93DF93EC017B018A01BA010E9464
:1025A0004512811104C0CE010E949A1207C01D83FA
:1025B0000C83B701888199810E94F134CE01DF91AB
:1025C000CF911F910F91FF90EF900895FB01DC01D7
:1025D00011961C921E9213961C921E92129715969B
:1025E0001C921E9214978617970749F0608171819B
:1025F0006115710521F0448155810C94C51208952F
:10260000FC011182108213821282158214826115DC
:10261000710551F0FB0101900020E9F73197AF01FE
:10262000461B570B0C94C51208958093E9008091C6
:10263000F200882319F08AE38093E80008951F923E
:102640000F920FB60F9211242F933F934F935F93E6
:102650006F937F938F939F93AF93BF93CF93EF939A
:10266000FF93C091E1008091E100837F8093E100BE
:10267000C3FF0FC01092E90081E08093EB0010923D
:10268000EC0082E38093ED001092300588E08093A7
:10269000F000C2FF19C083E00E9415138091EB0681
:1026A000882339F08091EB0681508093EB068823D4
:1026B00089F18091EA06882339F08091EA068150F9
:1026C0008093EA06882341F1C4FF10C08091E200A4
:1026D0008E7E81608093E2008091E1008F7E809306
:1026E000E10080912E058E7E806111C0C0FF16C072
:1026F0008091E2008E7E80618093E2008091E10013
:102700008E7E8093E10080912E058E7E8160809385
:102710002E0504C05D9ACDCF289AD6CFFF91EF91B8
:10272000CF91BF91AF919F918F917F916F915F9169
:102730004F913F912F910F900FBE0F901F901895C2
:10274000DF92EF92FF920F931F93CF93DF93D82ED8
:102750008A017B01E40EF51EEB01CE15DF0571F059
:10276000D7FE03C0FE01849101C088810E94FE1043
:1027700021968111F2CF8FEF9FEF01C0C801DF9149
:10278000CF911F910F91FF90EF90DF9008952FB799
:10279000F89487708093E9009091E800892F807207
:1027A00095FF04C09091F20080E4891B2FBF08952B
:1027B0007F928F929F92AF92BF92CF92DF92EF92D1
:1027C000FF920F931F93CF93DF93C82E8B017A0153
:1027D00080913005811103C08FEF9FEF74C080910D
:1027E0002E0580FF05C08091E00082608093E000AC
:1027F000CE2DDF2DD12C8AEFB82E8C2D8770982E00
:102800008C2D8072882E8C2D8074782E9AE3A92EC0
:10281000209719F4DD2009F451C08C2D0E94C713B4
:1028200081110AC0BA94BB20B9F261E070E080E087
:1028300090E00E946D21ECCF282F30E0C217D30723
:102840000CF48C2F9FB7F8949092E9002091E80047
:1028500025FF32C0282F30E0C21BD30B882029F07F
:102860008150A0F01092F100FBCFF801C7FE0AC022
:10287000815050F044914093F1003196F9CF41914D
:102880004093F1008150D8F7020F131FDD2019F09B
:10289000A092E8000AC08091E80085FD08C0A092DF
:1028A000E800DD24D394209739F0D12C05C020977F
:1028B00019F47110A092E8009FBFAACF5D9884E63A
:1028C0008093EB06C701DF91CF911F910F91FF908D
:1028D000EF90DF90CF90BF90AF909F908F907F90C0
:1028E000089590913005992311F057FF03C08FEFA1
:1028F0009FEF08959FB7F89487708093E900209127
:10290000F20030E0421753070CF49A01822FFB01CA
:1029100044E6815038F028984093EA065091F1003F
:102920005193F7CF2115310521F08091F2008823D2
:1029300019F09FBFC90108958BE68093E800F9CF95
:102940009FB7F89487708093E9008091F2009FBF51
:1029500008958091DD0681110DC082E08093D90633
:1029600084E08093DA061092DC061092DB0681E0A8
:102970008093DD0689ED96E008950F931F93CF9322
:10298000DF931F92CDB7DEB782E0898342E450E047
:1029900063E171E080E80E94A0130E94A914DC01A9
:1029A00012960D911C9113970115110589F0D8010C
:1029B000ED91FC910280F381E02DBE016F5F7F4FAE
:1029C000C801099597FD04C0F80100851185ECCF79
:1029D00089810F90DF91CF911F910F9108951F92E0
:1029E0000F920FB60F921124CF92DF92EF92FF92C7
:1029F0000F931F932F933F934F935F936F937F9307
:102A00008F939F93AF93BF93EF93FF93CF93DF93F6
:102A1000CDB7DEB76C97DEBFCDBF1092E9008091D5
:102A2000E80083FFFBC168E0CE0145960E942C11AF
:102A300082EF8093E8008D8987FF05C09091E800C0
:102A400090FFFCCF03C09EEF9093E800982F907604
:102A500009F0C6C09E894F89588D2F89F88C911135
:102A60000CC0803829F480912F058093F10002C0BA
:102A70001092F1001092F10045C1913051F4811192
:102A800041C14130510509F03DC180912F058D7F35
:102A90000BC0933061F4811135C14130510509F00B
:102AA00031C180912F05826080932F052BC1953015
:102AB00049F48091E80080FFFCCF822F80688093EA
:102AC000E30020C1963009F05EC00B8D1C8D22E022
:102AD0001092E9001092E8061092E706F21232C056
:102AE0001092E6061092E5060E94BD1499E0BE0120
:102AF0006F5F7F4FDB01E92F1D92EA95E9F799831C
:102B0000FA8291E09E8390EA98879AEF99872091C4
:102B1000E7063091E806275F3F4F3C832B838D8388
:102B20001092E9001092E8061092E7061093E6066C
:102B30000093E50649E050E080E00E94A0130E9467
:102B4000BD14E0C01093E6060093E5060E94A914A8
:102B5000DC0112960D911C9113970115110509F4D2
:102B6000BBC0D801ED91FC910480F581E02DBE0140
:102B70006B5E7F4FC8010995009709F0C7C0F80147
:102B800000851185EACF973009F445C1983021F4CA
:102B900081E08093F100B6C0993009F0B3C0837032
:102BA00009F039C1EAE3F3E081E031E096E3208106
:102BB000211109C08EE78093EA001092EA008F8904
:102BC000809330059FC08093E9003093EB00219102
:102BD0002093EC009093ED008F5F873041F7EACFB0
:102BE0008B8D9C8D1092E9001092E8061092E706FA
:102BF0009093E6068093E506898D811153C08E89F6
:102C00009D89913A49F4813209F005C147E050E0CD
:102C100060E373E080E0BBC0913209F0FCC0833216
:102C200069F48F89988DA0E0B0E080932C03909395
:102C30002D03A0932E03B0932F0364C0803269F458
:102C40008091E80082FFFCCF67E080E393E00E9480
:102C50002C118BEF8093E80055C0823209F052C0EE
:102C60008F8980933703EEEFFFE7859194918B3F37
:102C70009C4D19F0E0E0F8E002C0EEEFFAE0809140
:102C8000300390913103A0913203B0913303803B24
:102C90009440A105B10509F09EC08091370380FFE3
:102CA00079C099C00E94A914FC0102811381011509
:102CB000110509F4B0C0D801ED91FC910190F081AB
:102CC000E02DBE016B5E7F4FC801099581111AC0CE
:102CD000F80100851185EBCFF1E0FF1609F44EC035
:102CE000F3E0FF1298C08F89882309F44AC082302C
:102CF00089F440E860E187E791E00E94862F88230D
:102D000009F489C08EEF8093E80088C01816190670
:102D1000CCF381C0813029F440E86BE08BE691E090
:102D2000ECCF833009F077C00E94A914DC01129621
:102D3000ED90FC9013978E010F5F1F4F6801E11417
:102D4000F10479F0D701ED91FC910680F781E02D37
:102D5000B801C7010995080F111DF701E084F1843E
:102D6000EECFD8011C92F60101900020E9F73197CF
:102D7000BF016C197D0940E0C601BFCF69E571E074
:102D800002C065E571E0FB01449150E080E80E94DB
:102D9000A013B8CFEE3F2AE0F20751F08081918175
:102DA0008737A7E79A0721F09093FF0A8093FE0ADE
:102DB00087E797E791838083809160008093E9069D
:102DC0009BE088E10FB6F894A895809360000FBE51
:102DD0009093600097CF808191818737974709F062
:102DE00091CFA89580916000886180936000809168
:102DF000E90680936000EE3FBAE0FB0739F080916E
:102E0000FE0A9091FF0A918380837CCF1092FF0A83
:102E10001092FE0A77CF81E28093EB006C960FB69A
:102E2000F894DEBF0FBECDBFDF91CF91FF91EF9140
:102E3000BF91AF919F918F917F916F915F914F91D2
:102E40003F912F911F910F91FF90EF90DF90CF90C6
:102E50000F900FBE0F901F9018951F920F920FB6F4
:102E60000F9211242F933F934F935F936F937F9310
:102E70008F939F93AF93BF93EF93FF9385EE98E06B
:102E80000E94AA11FF91EF91BF91AF919F918F91F5
:102E90007F916F915F914F913F912F910F900FBE56
:102EA0000F901F9018951F920F920FB60F9211243A
:102EB0002F938F939F93EF93FF93E091F508F091F9
:102EC000F6088081E091FB08F091FC0882FD12C0B9
:102ED00090818091FE088F5F8F732091FF08821789
:102EE00051F0E091FE08F0E0EB51F74F958F8093A1
:102EF000FE0801C08081FF91EF919F918F912F91EA
:102F00000F900FBE0F901F901895CF93DF931F92D5
:102F1000CDB7DEB76983DC01ED91FC910280F381CE
:102F2000E02D41E050E0BE016F5F7F4F09950F90AB
:102F3000DF91CF910895CF93DF93EC018D858823A6
:102F400019F081508D8711C09C818E81981768F48B
:102F500088896827E881F9810084F185E02D42E0C5
:102F6000CE0109958C818F5F8C83DF91CF9108957D
:102F700085ED8093BC008091BC0084FDFCCF109255
:102F80007F07089540910C07262F30E0240F311D54
:102F900021323105DCF420917F072430C9F4FC0193
:102FA00080E090E0861758F430910C072191DC0105
:102FB000A451B94FA30FB11D2C930196F3CF80916B
:102FC0000C07680F60930C0780E0089581E0089576
:102FD00082E00895089508950895E091380780915A
:102FE0003707E81730F4F0E0E75CF84F808190E0B5
:102FF00008958FEF9FEF08959091380780913707DC
:10300000981750F4E92FF0E0E75CF84F208130E0AA
:103010009F5F9093380702C02FEF3FEFC9010895DB
:103020008091370790E020913807821B910908951D
:10303000CF92DF92EF92FF920F931F93CF93DF9384
:103040007C01CB018A0120918007222389F0EB01CA
:103050006B01C40ED51ECC15DD0569F06991D70151
:10306000ED91FC910190F081E02DC7010995F3CF1E
:10307000642F0E94C217C801DF91CF911F910F9159
:10308000FF90EF90DF90CF900895CF93DF931F9242
:10309000CDB7DEB76983209180072223D1F020913C
:1030A000A307203240F021E030E0FC01338322838B
:1030B00080E090E015C080918107E82FF0E0EE57A6
:1030C000F84F998190838F5F809381078093A30746
:1030D00005C061E0CE0101960E94C21781E090E038
:1030E0000F90DF91CF91089580E090E0089580E007
:1030F0000895FC0182818F5BFB01808381E008954C
:10310000CF93DF93EC0180913703882331F083E084
:103110000E94D8131816190634F081E090E09B83C2
:103120008A8380E090E0DF91CF91089583E00C9452
:10313000151383E00E94C71390E008950F931F9327
:10314000CF93DF931F92CDB7DEB78C01FC0184854E
:10315000958597FF12C041E050E0BE016F5F7F4F41
:1031600082E00E947114019719F4898190E002C0F5
:103170008FEF9FEFF80195878487F8018485958507
:103180000F90DF91CF911F910F910895CF93DF930F
:103190001F92CDB7DEB7FC018485958597FD05C0EC
:1031A0002FEF3FEF358724870FC041E050E0BE018D
:1031B0006F5F7F4F82E00E947114019719F489813B
:1031C00090E002C08FEF9FEF0F90DF91CF910895B5
:1031D000FC018485958597FD06C082E00E94A014BD
:1031E00090E00196089582E00E94A01490E0089576
:1031F00084E0E8E2F5E0DB0101900D928A95E1F7C9
:1032000084E00895CF92DF92EF92FF920F931F9385
:10321000CF93DF93CDB7DEB7C456D1090FB6F8947C
:10322000DEBF0FBECDBF6C01DB019C919E5F9C9306
:10323000FE01319684E6DF011D928A95E9F788E068
:1032400089838BE08A8322E02C8391E09D839E8397
:1032500039E0398774E07A879E879F873A8B44E20A
:103260004B8B9C8B00E011E01E8B0D8B89E0E82ED0
:10327000F12CF88EEF8A998F3B8F7C8F2F8F98A33C
:1032800053E059A387E08CA34DA39EA318A70FA3D7
:1032900001E410E01AA709A786E08BA74CA72DA789
:1032A0009EA79FA789AB4AAB2BAB2CAB2DAB3FABFB
:1032B00048AF59AF9AAF5BAF9CAF2DAF9EAF219691
:1032C0003FAF219722964FAF229723965FAF239768
:1032D00024962FAF249725967FAF259726969FAFEC
:1032E000269727969FAF279728969FAF28972A96CD
:1032F0003FAF2A9745E02B964FAF2B972D962FAFD8
:103300002D9760E470E02F967FAF6EAF2F97639696
:103310004FAF639785E264968FAF649765969FAFD2
:10332000659766969FAF669767969FAF6797689613
:103330003FAF689769964FAF69976B962FAF6B97C2
:103340006D967FAF6EAF6D97A1964FAFA197A29686
:103350008FAFA297A3969FAFA397A4969FAFA49772
:10336000A5965FAFA597D60112969C9112979B8365
:103370009B879F5F9A8F9D8F13968C912C968FAF12
:103380002C978F5F80686A968FAF6A9744E650E00B
:10339000BF0180E00E94A013CC59DF4F0FB6F89414
:1033A000DEBF0FBECDBFDF91CF911F910F91FF9078
:1033B000EF90DF90CF900895DC01ED91FC910084B7
:1033C000F185E02D40E00994FC0187818695869582
:1033D0008695681740F465839385690F6770606B05
:1033E000CF010C94DC1908950F931F93CF93FC0128
:1033F00026816217A0F4C62F8C0164839085C90FC3
:103400006C2F6F70CF010E94DC196C2F62956F706A
:103410006061C801CF911F910F910C94DC19CF917D
:103420001F910F910895CF92DF92EF92FF920F9329
:103430001F93CF93DF93EC01F62EC42ED22E1D8660
:103440008F81869586958695081710F00FEF080FE7
:103450001D2D6F2DCE01011788F00E94F419612FE8
:10346000CE010E94E419EF2CCE1430F06889CE0111
:103470000E949B17E394F8CF1F5FEBCF0E94F419D3
:103480006D2DCE01DF91CF911F910F91FF90EF90A5
:10349000DF90CF900C94E4192F923F924F925F925D
:1034A0006F927F928F929F92AF92BF92CF92DF9254
:1034B000EF92FF920F931F93CF93DF93CDB7DEB7B9
:1034C0002A970FB6F894DEBF0FBECDBFDC011E9663
:1034D0002D913C911F972115310509F463C19A87FD
:1034E0008987F9013296449031967491E72EF12C38
:1034F000B7E0EB0EF11C93E0F594E7949A95E1F7B1
:10350000EA823196A4913196E4916A1758F0462FD9
:1035100050E08E2F90E0FC01EA0FF11D4E175F077F
:103520000CF46AC06D3031F460E089859A850E94A0
:10353000F4193BC16A3009F035C160E089859A858C
:103540000E94F419E985FA8501890E9DE02C112469
:10355000278126952695269565816E0D8E2D821BD9
:10356000860F9485992309F418C118160CF015C11B
:10357000A985BA851B969C911B97890F87701B960E
:103580008C931B972E1915962C9315971E96ED91DB
:10359000FC911F97309769F03396E491F0E03796ED
:1035A00083E0F595E7958A95E1F70E9FE02D1124CC
:1035B00001C0E0E00FEF020F0E0FE985FA854681AA
:1035C00041506481CF010E94131AA985BA851C96C7
:1035D0008C911C97813009F0E8C01B966C911B9769
:1035E000660F660F660F6F731A966C931A97606476
:1035F000CD010E94DC19D9C0A9014A5F5F4F6A1B47
:10360000A985BA851996FC9119975196EC91FE9F60
:10361000E02D1124E887F901A4913196249130E03E
:103620003A2B2230310570F44E9CC0014F9C900D16
:103630001124689F8001699F100D1124040F151F2C
:10364000312C22C0777021F028E0322E371A01C0C9
:10365000312CFA0120E0A0E0B0E0261731F03491DF
:10366000A30FB11D2F5F3196F8CFFA01E20FF11DC4
:103670004490EA9E8001EB9E100DFA9E100D1124DD
:10368000080F191F040F151FA985BA851496BC9140
:10369000BB83E985FA85F581FC83A985BA851D96EA
:1036A000BC91BD83E42DF0E0FF83EE83812C912C4F
:1036B000C12CD12CC982FA81CF1608F06DC0212C03
:1036C00036019FEF691A790AA985BA8551968C91BE
:1036D0005197281608F058C0ED811D96EC93F9819A
:1036E000F11102C0222079F0A985BA851596BC9007
:1036F0001597B3946B81CD010E94F4196B2D8985C8
:103700009A850E94E419A12CB12CA41410F0B12CBC
:103710002FC0F401EA0DFB1DE00FF11F5490332080
:1037200061F0E614F70449F4E52DF0E0032C02C043
:10373000F595E7950A94E2F75E2EE985FA85818989
:10374000823069F4E52D2110E295EF70F0E0E85742
:10375000FE4F5490652D89859A850E949B17652D93
:1037600089859A850E949B17FFEFAF1ABF0ACDCFBC
:103770008885B81639F060E089859A850E949B1784
:10378000B394F6CF2394A0CF9FEFC91AD90AAE8184
:10379000BF818A0E9B1E8ECF6C8189859A850E947F
:1037A000E41903C080E090E002C081E090E02A9636
:1037B0000FB6F894DEBF0FBECDBFDF91CF911F9142
:1037C0000F91FF90EF90DF90CF90BF90AF909F90C0
:1037D0008F907F906F905F904F903F902F900895C3
:1037E0001F920F920FB60F9211242F933F934F9376
:1037F0005F936F937F938F939F93AF93BF93EF9359
:10380000FF938091B900887F803609F49CC068F5E9
:10381000883209F45BC090F4803109F454C038F464
:10382000882309F4F6C0883009F44DC0F6C0883109
:1038300009F44CC0803209F45DC0EFC0803409F453
:1038400068C048F4803309F455C0883309F0E5C0F6
:1038500080937D07D8C0803509F44FC0883509F4BE
:103860005DC0883409F0D9C0D6C0883909F4C7C012
:10387000A8F4883709F467C038F4883609F463C0BF
:10388000803709F460C0C9C0883809F4B8C08039ED
:1038900009F45FC0803809F0C0C05BC0803B09F408
:1038A00086C038F4803A09F466C0883A09F47FC0CB
:1038B000B4C0803C09F4A7C0883C09F4A4C0883B8C
:1038C00009F48AC0AAC080915A0710C090917C0761
:1038D00080917B07981770F5E0917C0781E08E0F4F
:1038E00080937C07F0E0E55AF84F80818093BB001D
:1038F00085EC86C080937D078EC0E0917C0781E0D7
:103900008E0F80937C078091BB00F0E0E55AF84F62
:10391000808390917C0780917B076EC0E0917C074B
:1039200081E08E0F80937C078091BB00F0E0E55A28
:10393000F84F808380917E0781116DC081E0809374
:10394000590784EA61C083E080937F0710922E07B5
:10395000CFCF80912E07803208F051C0E0912E0722
:1039600081E08E0F80932E078091BB00F0E0E25F34
:10397000F84F8083BDCF85EC8093BC0010927F0709
:1039800080912E07803230F4E0912E07F0E0E25F64
:10399000F84F108260912E0770E0E0913105F091B0
:1039A00032058EE097E0099510922E0736C084E02C
:1039B00080937F0710920D0710920C07E09133055A
:1039C000F0913405099580910C07811105C081E0C3
:1039D00080930C071092EC06E0910D0781E08E0FAA
:1039E00080930D07F0E0E451F94F80818093BB0094
:1039F00090910D0780910C07981708F479CF85E80E
:103A00008093BC000AC085EC8093BC0010927F07B5
:103A100004C010927D070E94B817FF91EF91BF91EB
:103A2000AF919F918F917F916F915F914F913F9156
:103A30002F910F900FBE0F901F901895DC018D9164
:103A40009C91DC01ED91FC910190F081E02D0994B5
:103A5000AF92BF92CF92DF92EF92FF921F93CF93DC
:103A6000DF93182FE1E0F1E05DE1C52E53E0D52EA4
:103A700020E030E066E0A62EB12CCFEFD0E08281CE
:103A80009381B5010E94D332CB01EE24EA94F12C4C
:103A9000BE010E94D332820F931FBE010E94D33217
:103AA0009C013F96CE16DF0651F7C296B7010E94E1
:103AB000D332EC01212F4FEF682F80E00E940C0BD6
:103AC000CE010A96B7010E94D332212F4FEF682F03
:103AD00083E00E940C0BCE014E96B7010E94D332B8
:103AE000212F4FEF682F82E00E940C0BCE018896A9
:103AF000B7010E94D332212F4FEF682F81E0DF9171
:103B0000CF911F91FF90EF90DF90CF90BF90AF903B
:103B10000C940C0B3FB7F8948091330790913407C5
:103B2000A0913507B091360726B5A89B05C02F3F59
:103B300019F00196A11DB11D3FBFBA2FA92F982FD3
:103B40008827820F911DA11DB11DBC01CD0142E04E
:103B5000660F771F881F991F4A95D1F70895CF9355
:103B6000DF93C2E8D9E0998121E020938007909308
:103B7000A207109281071092A307682F84EF97E0A5
:103B80000E94451881E00E944F22888362E089816B
:103B90000E94CD2284EF97E00E94FC17D82F80E08E
:103BA000C82F84EF97E00E94FC178C2B9D2BDF9190
:103BB000CF910895CF93DF93C2E8D9E0998121E0B6
:103BC000209380079093A207109281071092A30779
:103BD000682F84EF97E00E94451881E00E944F22F1
:103BE000888361E089810E94CD2284EF97E00E9462
:103BF000FC17DF91CF9108950F931F93CF93DF931D
:103C0000162F072FC2E8D9E0998121E02093800781
:103C10009093A207109281071092A307682F84EF58
:103C200097E00E944518602F84EF97E00E944518A6
:103C3000612F84EF97E00E94451881E00E944F2297
:103C40008883DF91CF911F910F9108958F929F925A
:103C5000AF92BF92EF92FF920F931F93CF93DF9398
:103C60007C01EB0180E50E94DA1D8F5F880F90E0F8
:103C70009983888386E40E94DA1D082F10E00F5F85
:103C80001F4F1D830C83A881B0E020E03FE24AE390
:103C900050E00E9444326C507E4F8F4F9F4F38EE61
:103CA000832E33E0932EA12CB12CA50194010E9408
:103CB0008E32D8010E944F326C507E4F8F4F9F4FF3
:103CC000A50194010E948E322A873B874C875D872D
:103CD00081E50E94AF1D8C01112702C0000F111F4A
:103CE0009A95E2F70F5F1F4F1F830E83A881B0E004
:103CF00020E03FE24AE350E00E9444326C507E4FA5
:103D00008F4F9F4FA50194010E948E32D8010E94CF
:103D100044326C507E4F8F4F9F4FA50194010E94FB
:103D20008E322E873F87488B598B80E70E94DA1DA1
:103D30008F5F880F90E09B838A8381E70E94AF1D8D
:103D40009C01992702C0880F991F3A95E2F70196C6
:103D500099878887F7012381222331F02E813F81C3
:103D6000821B930B99878887AA81B0E020E03FE20D
:103D70004AE350E00E9444326C507E4F8F4F9F4F79
:103D800028EE822E23E0922EA12CB12CA5019401C5
:103D90000E948E32A885B9850E9444326C507E4FB5
:103DA0008F4F9F4FA50194010E948E322A8B3B8B2F
:103DB0004C8B5D8BDF91CF911F910F91FF90EF9016
:103DC000BF90AF909F908F900895CF93DF93EC01B9
:103DD00081E00E94DA1D84FB992790F9988383FB88
:103DE000992790F99A8382FB992790F9998386FB0A
:103DF000992790F99B83881F8827881F8C83DF91E0
:103E0000CF910895CF93DF93EC01FB01448155815D
:103E1000608171810E946C12811103C0CE010E94E9
:103E20009A12CE01DF91CF910895EF92FF920F93F6
:103E30001F93CF93DF93CDB7DEB729970FB6F894D2
:103E4000DEBF0FBECDBF8C01862FF801118210821C
:103E500013821282158214824AE09E012F5F3F4F27
:103E60007901B90190E00E94E531F701019000204D
:103E7000E9F73197AF014E195F09B701C8010E94F8
:103E8000C51229960FB6F894DEBF0FBECDBFDF91E5
:103E9000CF911F910F91FF90EF900895EF92FF92B5
:103EA0000F931F93CF93DF93CDB7DEB762970FB613
:103EB000F894DEBF0FBECDBF8C01CB01F80111829B
:103EC000108213821282158214824AE09E012F5FB3
:103ED0003F4F7901B9010E94DA31F70101900020CA
:103EE000E9F73197AF014E195F09B701C8010E9488
:103EF000C51262960FB6F894DEBF0FBECDBFDF913C
:103F0000CF911F910F91FF90EF900895CF92DF9284
:103F1000EF92FF920F931F93CF93DF93CDB7DEB74E
:103F200029970FB6F894DEBF0FBECDBF8091A309CD
:103F30009091A409892B09F4BBC0C090A909D09025
:103F4000AA09E090AB09F090AC090E948A1D6C159B
:103F50007D058E059F0550F40E948A1D6093A90976
:103F60007093AA098093AB099093AC090E948A1DB3
:103F70000091A9091091AA092091AB093091AC09CF
:103F8000DC01CB01801B910BA20BB30B8C32914057
:103F9000A105B10590F2F89480919E0990919F0936
:103FA0009A838983E091A309F091A409DF01119616
:103FB0008081898790919A09E091AD09F091AE09CD
:103FC0008091AF09992309F42EC09081982B98878E
:103FD0009081809589238F838F818C8388E08B8368
:103FE00058856F8149853B812C8189819A815083D5
:103FF00047FD252F3A952083262F39F0441F00C016
:1040000000006083000000C0F2CF38E04D91608373
:104010000000019761F7F093AE09E093AD0949877D
:104020003B832C8338C09081982B98879081809512
:1040300089238F838F818E8388E08D8358856F815C
:1040400049853D812E8189819A81508347FD252FA5
:1040500000C000C0208300C000C000C000C000C07D
:1040600060830000262F3A9541F0441F000000C0F5
:1040700000C000C000C000C0E8CF38E04D9100C0D3
:10408000608300C0019709F7F093AE09E093AD0992
:1040900049873D832E839A83898378940E948A1D61
:1040A0006093A9097093AA098093AB099093AC0916
:1040B00029960FB6F894DEBF0FBECDBFDF91CF912A
:1040C0001F910F91FF90EF90DF90CF9008951F9375
:1040D000CF93DF932150203118F587FF21C0D42FD3
:1040E000162FC82F622F682B80913F0890914008AF
:1040F0000E941E1D612F6F7780913F0890914008AC
:104100000E941E1DCF7EC03C59F06D2F6F778091AD
:104110003F0890914008DF91CF911F910C941E1D94
:10412000DF91CF911F91089590E0FC013197EF301E
:10413000F105B0F5EC59FF4F0C94E7328091800007
:104140008F7703C0809180008F7D809380000895D9
:1041500080918000877FF9CF84B58F7702C084B5C6
:104160008F7D84BD0895809190008F7707C08091E6
:1041700090008F7D03C080919000877F8093900096
:1041800008958091C0008F7703C08091C0008F7D1B
:104190008093C00008958091C200877F8093C20001
:1041A00008951F93CF93DF93282F30E0F901EE5449
:1041B000FE4F8491F901EF5CF14FD491F901E25A7D
:1041C000F14FC491CC23C1F0162F81110E9494208D
:1041D000EC2FF0E0EE0FFF1FE05BF14FA591B491E3
:1041E0009FB7F894111104C08C91D095D82302C0C8
:1041F000EC91DE2BDC939FBFDF91CF911F9108954F
:10420000CF93DF9390E0FC01EF5CF14F2491FC0130
:10421000E25AF14F8491882361F190E0880F991F51
:10422000FC01EC55FE4FC591D491FC01E05BF14FD0
:10423000A591B491611109C09FB7F8948881209528
:1042400082238883EC912E230BC0623061F49FB7E8
:10425000F8948881322F309583238883EC912E2B1C
:104260002C939FBF06C08FB7F894E8812E2B28832C
:104270008FBFDF91CF910895823108F08251E82FEE
:10428000F0E0E856FE4FE49180917B00E3FB2227AB
:1042900020F930E095E0220F331F9A95E1F78F7DEA
:1042A000282B20937B008091380320E4829FC0015B
:1042B0001124E770E82BE0937C0080917A00806401
:1042C00080937A0080917A0086FDFCCF80917800FF
:1042D0002091790090E0922B08958F929F92AF9257
:1042E000BF92CF92DF92EF92FF926B017C010E940E
:1042F0008A1D4B015C01C114D104E104F104F1F009
:104300000E948A1DDC01CB0188199909AA09BB0901
:10431000883E9340A105B10570F321E0C21AD1088F
:10432000E108F10888EE880E83E0981EA11CB11CFC
:10433000C114D104E104F10419F7DDCFFF90EF902F
:10434000DF90CF90BF90AF909F908F9008952FB740
:10435000F89460912F077091300780913107909108
:1043600032072FBF0895682F616080E00E94AB2262
:104370000E94A721709388096093870983E10E94B6
:10438000DA1D8770B9F48091840990918509892B91
:10439000A9F30E94A7212091870930918809621B07
:1043A000730B80918409909185098617970730F7E0
:1043B00080E0089561E08BE00E94AB2260E080E045
:1043C0000E94AB2281E008959093BF098093BE09BB
:1043D000009741F0FC0124913196849190E0922B5A
:1043E000019721F081E08093B90908951092B909ED
:1043F00008950F93CF93DF93EC011B861A8660E438
:104400000E94DC190F8106950695069501504E8194
:10441000415020E060E0CE010E94131ADF91CF915D
:104420000F910895FF920F931F93CF93DF938C0109
:10443000F62ED42FC22F213049F028F0233091F4EA
:1044400081ED91E00AC08BE49CE007C085E097E035
:104450000E94E421C093C10905C00E94E42181E0CB
:104460008093C1096F2D80EB99E00E94F4196D2FA4
:1044700080EB99E00E94E419F80144815581608144
:10448000718180EB99E0DF91CF911F910F91FF90A7
:104490000C943911FC01808191810C949433282F64
:1044A0003091A307313208F04AC080917F07811113
:1044B000FCCF9091A20742E040937F0720937E07B4
:1044C0002FEF20937D0710927C0730937B07E2E863
:1044D000F7E0ABE5B7E020E0321721F041914D93D2
:1044E0002F5FFACF10925A0720915A07990F922BFB
:1044F00090935A0790915907913061F4109259079F
:1045000090915A079093BB009091BC0093FDF8CF17
:1045100095EC01C095EE9093BC0090917F0792308E
:10452000E1F390917D079F3F79F080917D07803284
:1045300041F080917D07803331F084E005C081E057
:1045400003C082E001C083E0109281071092A307AC
:104550001092800708951F93CF93DF93162FC2E820
:10456000D9E0998121E0209380079093A2071092CF
:1045700081071092A307682F84EF97E00E944518E7
:10458000612F84EF97E00E94451881E00E944F223E
:104590008883DF91CF911F91089590917F079111AA
:1045A000FCCF613208F060E291E090937F07909336
:1045B0007E072FEF20937D0710927C07260F209314
:1045C0007B0790935A0790915A07880F892B809305
:1045D0005A0780915907813061F4109259078091F0
:1045E0005A078093BB008091BC0083FDF8CF85EC17
:1045F00001C085EE8093BC0080917F078130E1F39C
:1046000080917C07861710F460917C07EBE5F7E05A
:10461000A9E3B7E080E0861721F091919D938F5F29
:10462000FACF109238078093370708951F920F92A0
:104630000FB60F9211242F933F938F939F93AF93B5
:10464000BF9380912F0790913007A0913107B091CF
:1046500032073091C70923E0230F2D3720F401964C
:10466000A11DB11D05C026E8230F0296A11DB11D95
:104670002093C70980932F0790933007A0933107A9
:10468000B09332078091330790913407A09135079A
:10469000B09136070196A11DB11D80933307909309
:1046A0003407A0933507B0933607BF91AF919F9120
:1046B0008F913F912F910F900FBE0F901F901895E3
:1046C000CF93DF93CDB7DEB7C655D1090FB6F894B7
:1046D000DEBF0FBECDBF789484B5826084BD84B543
:1046E000816084BD85B5826085BD85B5816085BDED
:1046F00080916E00816080936E00109281008091A5
:10470000810082608093810080918100816080932C
:104710008100809180008160809380008091910071
:1047200082608093910080919100816080939100DC
:10473000809190008160809390008091C10084609E
:104740008093C1008091C10082608093C1008091FC
:10475000C10081608093C1008091C300816080931B
:10476000C3008091C00082608093C0008091C2002D
:1047700081608093C20080917A00846080937A0087
:1047800080917A00826080937A0080917A008160C3
:1047900080937A0080917A00806880937A001092EA
:1047A000300510922F0510922E058091D700816060
:1047B0008093D70080EA8093D80089B5806189BD55
:1047C00089B5826089BD09B400FEFDCF61E070E06B
:1047D00080E090E00E946D218091D8008F7C806104
:1047E0008093D8008091E000807F8093E0008091EA
:1047F000E1008E7E8093E1008DE08093E200559A87
:10480000209A60E087E00E9400218FEF93E00E94F1
:104810000F32843008F07CC08FEF93E00E940F329B
:10482000182F0E942E0891E090930001E0913F081C
:10483000F09140080190F081E02DA089B18982E0DB
:104840008C93A485B5851C92A685B7858FE38C9340
:10485000108EA489B58986E08C93A289B3898C9146
:1048600080618C93A289B3898C9188608C93A28992
:10487000B3898C9180688C930288F389E02D8081C4
:104880008F7D8083909341081092430810924208D4
:1048900010924A081092490810924808109247084E
:1048A0008FEF9FEF90934C0880934B0890934E08A6
:1048B00080934D080E94A7216093D7087093D80871
:1048C0008093D9089093DA081092D4081092510876
:1048D0001092500810925208109253081092D60865
:1048E0001092D50880914F0881708260816080931A
:1048F0004F088091A0099091A10997FD1BC061E02C
:104900000E94002160E08091A0090E94D12012C085
:1049100060E08FEF93E00E94173280E00E949108E0
:1049200081E00E94910882E00E94910883E00E9449
:10493000910872CF81E080939B096091A209653153
:1049400021F12091A3093091A409615031F070E068
:104950008FEF94E10E94BF3202C060E070E0F90185
:1049600040919E0950919F09CF01821B930B8417A0
:10497000950740F44081469FC001479F900D112448
:104980009193EECF85E18093A20900E020E040E022
:1049900060E0802F0E940C0B0F5F0430B9F70E947B
:1049A000861F61E08CE00E94002161E086E00E94A9
:1049B000002160E085E00E94002160E086E00E9426
:1049C000D12061E08CE00E94D1200E948E0A609389
:1049D00083057093840580938505909386051092D6
:1049E000380366E4E62E63E0F62EF7010081F2E07C
:1049F000EF0EF11C61E0802F0E94002160E0802F0B
:104A00000E94D1202EE4E21623E0F20671F7109204
:104A1000380710923707109281071092A30710925F
:104A20007F0781E080937E071092590761E082E062
:104A30000E94D12061E083E00E94D1208091B900E2
:104A40008E7F8093B9008091B9008D7F8093B900EB
:104A500088E48093B80085E48093BC008AEE97E1F7
:104A600090933405809333058BEE97E19093320554
:104A7000809331051092C4098CE38093C30910928E
:104A8000B9008CE08093B8001092B4091092B50977
:104A9000EFEFF0E085919491D82EE1E0F1E0049100
:104AA000E2E0F1E0E491E093B609E3E0F1E0E491C3
:104AB000E093B709E4E0F1E0E491E093B8097C0108
:104AC0008E2D8D19801750F4F701649180EB99E0D9
:104AD0000E94DC19FFEFEF1AFF0AF2CF80EB99E09A
:104AE0000E94F92184EF91E09093850980938409D5
:104AF00080EC0E94DA1D8E3EB1F080EB99E00E94BE
:104B0000F9216EEB73E0CE0101960E94001321E0C3
:104B100040E060E0CE0101960E941222CE01019693
:104B20000E944A2222C489E80E94DA1D682F61602F
:104B300089E80E94AB2260E088E80E94AB2261E035
:104B400080E80E94AB2261E08FEF0E94AB2260E020
:104B500080E00E94AB2281E90E94DA1D80938909DE
:104B600061E080E00E94AB2260E08FEF0E94AB2208
:104B700060E080E80E94AB2280E60E94DA1D682F88
:104B8000626180E60E94AB2260E270E084E40E94F1
:104B9000FC1D6FEF81E00E94AB2261E080E80E9483
:104BA000AB2261E08FEF0E94AB2260E080E00E94C8
:104BB000AB2266E08FEF0E94AB2283E80E94DA1DF1
:104BC000682F646083E80E94AB2267E08FEF0E9449
:104BD000AB2261E081E80E94AB2261E080E80E94A4
:104BE000AB226BE684E90E94AB2260E083E80E947E
:104BF000AB220E94A721709388096093870983E8FC
:104C00000E94DA1D811116C0809184099091850956
:104C1000892BA9F30E94A721209187093091880947
:104C2000621B730B80918409909185098617970701
:104C300030F763CF61E083E80E94AB2282E90E94F3
:104C4000DA1DA82E282F2F77D22E60E081E80E944F
:104C5000AB2266E08FEF0E94AB2283E80E94DA1D50
:104C6000682F6B7F83E80E94AB2261E08FEF0E9488
:104C7000AB2261E080E00E94AB2260E08FEF0E94F7
:104C8000AB2260E080E80E94AB228091830991E032
:104C9000909380078093A207109281071092A30738
:104CA00060EB84EF97E00E94451881E00E944F225C
:104CB0008093820966E0809183090E94CD227E0163
:104CC0003BE4E30EF11C470157E0C52E2E2C0F2DBF
:104CD000CA94CC2041F084EF97E00E94FC17F401C5
:104CE00081934F01F5CF61E08FEF0E94AB2260E02E
:104CF0008FE40E94AB226CE28EE40E94AB2260E063
:104D00008FEF0E94AB2264EB86EB0E94AB22A7FEE2
:104D100002C06CE001C060E090E080E041E050E063
:104D2000282F269526952695782F7770F701E20F84
:104D3000F11D861710F09D110AC09A0101C0220FC3
:104D40007A95EAF7209530812323208309C02081BA
:104D500030E002C0359527957A95E2F720FD9F5FF8
:104D60008F5F8033E9F68091830991E0909380070B
:104D70008093A207109281071092A30760EB84EF43
:104D800097E00E94451847E0D42EDA94DD2041F0E8
:104D9000F70161917F0184EF97E00E944518F5CFFC
:104DA00081E00E944F228093820961E08FEF0E9490
:104DB000AB2260E080E00E94AB2260E08FEF0E94B7
:104DC000AB2260E089E00E94AB2260E080E10E94BB
:104DD000AB2260E081E10E94AB2261E084E20E94AC
:104DE000AB226FEF85E20E94AB2260E085E70E9474
:104DF000AB2261E08FEF0E94AB226CE28EE40E9456
:104E0000AB2260E088E40E94AB2260E280E30E9473
:104E1000AB2260E08FEF0E94AB2269E080E30E944A
:104E2000AB2260E084E50E94AB2264E081E30E9453
:104E3000AB2263E082E30E94AB2263E880E40E943D
:104E4000AB2265E286E40E94AB2260E080E60E942D
:104E5000AB2260E087E20E94AB2266E080E50E9420
:104E6000AB2260E081E50E94AB2266E982E50E9408
:104E7000AB2268E086E50E94AB2260E387E50E94F2
:104E8000AB2260E081E60E94AB2260E082E60E94F5
:104E9000AB2260E084E60E94AB2260E085E60E94DF
:104EA000AB2260EA86E60E94AB2261E08FEF0E94AF
:104EB000AB2262E382E20E94AB2264E187E40E94BB
:104EC000AB226FEF89E40E94AB2260E08AE40E948B
:104ED000AB2260E08FEF0E94AB226AE08AE70E947B
:104EE000AB2260E08BE70E94AB2261E288E70E9480
:104EF000AB2261E08FEF0E94AB2264E383E20E9469
:104F0000AB2260E082E40E94AB226FEF84E40E9457
:104F1000AB2266E285E40E94AB2265E086E40E9453
:104F2000AB2260E480E40E94AB2266E08EE00E9447
:104F3000AB226AE180E20E94AB2260E483E40E943B
:104F4000AB2260E08FEF0E94AB2263E084E30E941B
:104F5000AB2264E485E30E94AB2261E08FEF0E9404
:104F6000AB2264E081E30E94AB2269E08BE40E9403
:104F7000AB2265E08CE40E94AB2264E08DE40E94E9
:104F8000AB2260E08FEF0E94AB2260E084E40E94DD
:104F9000AB2260E285E40E94AB2268E087E40E94D5
:104FA000AB2268E288E40E94AB2260E087E60E94C0
:104FB000AB2264E080E70E94AB2261E081E70E94BF
:104FC000AB226EEF82E70E94AB2260E086E70E9490
:104FD000AB2260E087E70E94AB2261E08FEF0E9486
:104FE000AB2261E08DE00E94AB2260E08FEF0E9477
:104FF000AB2261E080E80E94AB2268EF81E00E9472
:10500000AB2261E08FEF0E94AB2261E08EE80E944C
:10501000AB2261E080E00E94AB2260E08FEF0E9453
:10502000AB2260E080E80E94AB2264E08AE00E944C
:10503000AB2284E80E94DA1D682F6F7E84E80E940C
:10504000AB2261E08BE00E94AB22CE018F5A9F4FD2
:105050000E94E51EBE016F5F7F4FCE018F5A9F4FAA
:105060000E94261E62968FAD6297882349F08B8539
:105070009C85AD85BE858C57924FAF4FBF4F04C006
:1050800086E39BE0A0E0B0E064962FAD6497222316
:1050900069F04B855C856D857E854E545D4F6F4F05
:1050A0007F4F440F551F661F771F0DC063962FADAE
:1050B0006397222361F04B855C856D857E854C5618
:1050C0005D4F6F4F7F4F840F951FA61FB71F6596CB
:1050D0002FAD6597222361F04F85588969897A89B8
:1050E0004C565D4F6F4F7F4F840F951FA61FB71F04
:1050F00066962FAD6697222361F04B895C896D8996
:105100007E894A5D5D4F6F4F7F4F840F951FA61FAD
:10511000B71F80938A0990938B09A0938C09B09351
:105120008D0968EE81E00E94AB22C0908A09D09080
:105130008B09E0908C09F0908D09F0E2CF16FEE427
:10514000DF06E104F10408F4D1C0CE018F5A9F4F6D
:105150000E94E51EBE016F5F7F4FCE018F5A9F4FA9
:105160000E94261E62968FAD6297882349F08B8538
:105170009C85AD85BE858C57924FAF4FBF4F04C005
:1051800086E39BE0A0E0B0E064962FAD6497222315
:1051900069F04B855C856D857E854E545D4F6F4F04
:1051A0007F4F440F551F661F771F0DC063962FADAD
:1051B0006397222361F04B855C856D857E854C5617
:1051C0005D4F6F4F7F4F840F951FA61FB71F6596CA
:1051D0003FAC6597332061F04F85588969897A899A
:1051E0004C565D4F6F4F7F4F840F951FA61FB71F03
:1051F00066962FAD6697222309F478C04C015D01B5
:1052000026E2820E22E0921EA11CB11CC814D90411
:10521000EA04FB0408F46AC0AB81B0E020E03FE29E
:105220004AE350E00E9444322B013C0134EF430E2C
:1052300031E0531E611C711CA70196012819390920
:105240004A095B09A8EEB3E00E9444324B015C01BD
:10525000C301B20120ED37E040E050E00E948E3201
:10526000820E931EA41EB51EC301B20128EE33E0C8
:1052700040E050E00E948E32C501B4010E948E329F
:10528000332031F08F819885280F391F411D511D22
:105290002115310541055105E1F029013A0181E06F
:1052A000481A51086108710860E070E0D301C2013A
:1052B0008827892B8A2B8B2B39F076946794579407
:1052C00047946F5F7F4FF2CF762F66276429752949
:1052D00002C060E070E081E70E94FC1DC0928A0974
:1052E000D0928B09E0928C09F0928D0961E081E007
:1052F0000E94AB2280E40E94B321882309F4FDCBF5
:1053000062E081E00E94AB2280E00E94B32188230A
:1053100009F4F3CB68EE81E00E94AB2261E080E803
:105320000E94AB2261E08FEF0E94AB2260E080E040
:105330000E94AB226091890981E90E94AB2261E061
:1053400080E00E94AB2260E08FEF0E94AB2260E021
:1053500080E80E94AB2262E080E00E94AB22909144
:105360000001E1E0F1E080E001C0FFCF9587868792
:105370008F5F3F968532D1F760ED73E0CE010196E5
:105380000E94001323E041E060E0CE0101960E94FC
:105390001222CE0101960E944A226CE271E080E066
:1053A00090E00E946D21612F70E06F5F7F4F822D32
:1053B000902F0E944E1F63EE73E0CE018F5A9F4FD5
:1053C0000E940013622D702FCE018F5A9F4F0E94B2
:1053D000021FBC01CE0101960E94E61220E043E0CC
:1053E00060E0CE0101960E941222CE0101960E9439
:1053F0004A22CE018F5A9F4F0E944A22822D902F1F
:105400000E944A2268E572E080E090E00E946D21EF
:1054100061EF73E0CE0101960E94001320E043E0AB
:1054200060E0CE0101960E941222CE0101960E94F8
:105430004A226CE271E080E090E00E946D2161E020
:1054400074E0CE0101960E94001320E043E069E67B
:10545000CE0101960E941222CE0101960E944A229C
:1054600010E0812F0E94281D0E94861F62E070E0DC
:1054700080E090E00E946D211F5F1F3F91F768EE72
:1054800073E080E090E00E946D21809103088F5FBF
:105490000E94151380EB99E00E94F9211E0191E40E
:1054A000290E311CEE24EA94E3E0FE2EFFE74F2E96
:1054B000512C612C712C0E94A7214B015C0160933F
:1054C000CD057093CE058093CF059093D0057BE8F2
:1054D000C72E75E0D72E00E010E000FF02C061E0AB
:1054E00001C060E088E00E94D12001FF02C061E0BD
:1054F00001C060E089E00E94D12002FF02C061E0AB
:1055000001C060E08AE00E94D120C80163E0959567
:1055100087956A95E1F7892B11F061E001C060E0A1
:105520008BE00E94D12061E070E080E090E00E947A
:105530006D2182E10E943C21F601819391936F01DC
:1055400083E10E943C21F601978F868F0F5F1F4FEA
:105550000031110511F60E948E0A60938305709345
:1055600084058093850590938605C501B4010E944A
:10557000F4090E94A721709388096093870983E149
:105580000E94DA1D8770E1F4809184099091850969
:10559000892BA9F30E94A7212091870930918809BE
:1055A000621B730B80918409909185098617970778
:1055B00030F781E080938609CC24CA94DC2C09C0A2
:1055C0008EE10E94AF1D8C0161E08BE00E94AB2256
:1055D0006801860106541109083EF3E01F0784F5AF
:1055E0000115110569F16091870570918805809119
:1055F000890590918A0528E030E040E050E00E9463
:105600002532A7E0B0E00E94443217FF02C0095FD4
:105610001F4F53E0159507955A95E1F7012E000CA1
:10562000220B330BDC01CB01800F911FA21FB31F94
:105630008093870590938805A0938905B0938A0588
:1056400080918609109286098823B9F066E074E09B
:10565000CE0101960E94001321E040E060E0CE01FF
:1056600001960E941222CE0101960E944A2264EF06
:1056700071E080E090E00E946D2122E633E0AE010F
:105680004F5F5F4F6A01DE015996CA01F9014191EE
:105690009F01E42FF0E0EE0FFF1FE557FA4F408126
:1056A0005181FC0141935193CF01EA17FB0771F738
:1056B0008EE493E0FC012191CF01E22FF0E0EE0FA8
:1056C000FF1FE557FA4F208131814FEF53E0421B16
:1056D000530B4D935D932A163B0661F784E10E94BC
:1056E0003C21F701E81BF90BCF01F1019183808385
:1056F00085E10E943C219701281B390B25963FAF7D
:105700002EAF259786E10E943C21A701481B590B2B
:1057100027965FAF4EAF279787E10E943C21F701A4
:10572000E81BF90B2996FFAFEEAF2997809187050B
:1057300090918805A0918905B0918A05B7FD0CC0AC
:105740008139F1E09F07A105B10524F080E991E0DE
:10575000A0E0B0E09C0102C020E030E0A1E0BCEF9E
:105760000E94ED3220E931E040E050E00E94253215
:10577000DA01C90181509C4FAF4FBF4F2B969FAFAD
:105780008EAF2B9701E011E0B12CAA24A394F8016D
:105790001482F601219131916F01F801808191818C
:1057A000A901481B590BCA0157FF03C09195819568
:1057B00091090B97E4F1F80131832083A1E8BFEF51
:1057C0000E94ED322FEF33E040E050E00E9425329E
:1057D000CA01B90161587F4F8F4F9F4FF801738302
:1057E0006283A482458586850E94F40BB09282056F
:1057F00080917F05882359F0F80182819381863753
:10580000910514F085E790E0F80185830EC0809142
:105810007405882361F0F801828193818A309105B3
:1058200014F48AE090E0F8018683A092CB05B3944B
:10583000015F1F4FF5E2BF12AACF80910D088111C1
:105840000CC080913B058823A1F181E080930D0875
:1058500080918205809313082AC080910E088111DF
:1058600030C080917205882361F080910C088630E9
:1058700019F410920C0803C08F5F80930C080E94EB
:10588000510C80917D05882359F080910C0881117D
:1058900002C086E001C0815080930C080E94510C28
:1058A00080913B05882329F081E080930E080E94B7
:1058B000510C00E415E0D12CAA24A39499E0B92E50
:1058C0002CC2E0910C088E2F90E08730910508F0F3
:1058D000FEC1FC01EA5AFF4F0C94E73280917D052E
:1058E0008823F9F0E09113082E2F30E04FE0E49F79
:1058F000F0011124EF5FFE4F8685811102C08FE712
:1059000001C08150809314088FE0829FF001839F33
:10591000F00D1124EF5FFE4F8091140886870E94DE
:10592000510C80917205882309F4D1C1E0911308CC
:105930002E2F30E05FE0E59FF0011124EF5FFE4F76
:1059400086858F5F87FD80E09FE0929FF001939FA7
:10595000F00D1124EF5FFE4F86879DC080917D057D
:10596000882309F18091130890E03FE0389FF0010F
:10597000399FF00D1124EF5FFE4F2585211103C0E3
:105980003093140803C02150209314082FE0289F5F
:10599000F001299FF00D1124EF5FFE4F8091140854
:1059A00085870E94510C80917205882309F48FC16C
:1059B000E09113082E2F30E08FE0E89FF0011124D2
:1059C000EF5FFE4F85858F5F8F3018F4809314084A
:1059D00002C0109214088FE0829FF001839FF00DA7
:1059E0001124EF5FFE4F80911408858754C0809189
:1059F0007D058823F9F0E09113089FE09E9FF00158
:105A00001124EF5FFE4F8585811109C09093140822
:105A1000209114088CE293E0E1E0F1E004C08150B1
:105A200080931408F5CF25873F968E179F07D9F7E7
:105A30000E94510C80917205882309F448C1E091BD
:105A400013089FE0E99FF0011124EF5FFE4F858569
:105A50008F5F8F3018F48093140802C010921408DE
:105A6000209114088CE293E0E1E0F1E025873F9675
:105A70008E179F07D9F70FC0E1E0F1E080E021E049
:105A80009FE725878687968315828F5F3F968532AD
:105A9000C1F710920E080E94510C19C1E1E0F1E02B
:105AA00080E021E09FE725878687968315828F5FB8
:105AB0003F968532C1F7EDCF6AE174E0CE010196E1
:105AC0000E94001321E041E060E0CE0101960E94B7
:105AD0001222CE0101960E944A2214E60E948E0AEA
