:100000000C9433070C945B070C945B070C945B0710
:100010000C945B070C945B070C945B070C945B07D8
:100020000C945B070C945B070C945C110C944213CA
:100030000C945B070C945B070C945B070C945B07B8
:100040000C945B070C945B070C945B070C945B07A8
:100050000C945B070C945B070C945B070C94A52134
:100060000C945B070C94A6150C9480150C945B07FC
:100070000C945B070C945B070C945B070C945B0778
:100080000C945B070C945B070C945B070C945B0768
:100090000C942D1A0C945B070C945B070C945B0773
:1000A0000C945B070C945B070C945B072A1F2D1FB5
:1000B0001C1F201F261F4E1F4E1F4E1F311F351F96
:1000C000391F3F1F431F4E1F491FAED580A81FD3A6
:1000D00000408D142002A1C8DA02817FD9F1DB40F3
:1000E000A4A6AFCA0019802000000000002300264B
:1000F0000029002C002F00080B0002020201000959
:100100000400000102020000052400100105240182
:1001100001010424020605240600010705810310DD
:10012000004009040100020A000000070502024025
:1001300000000705830240000004030904120100C7
:1001400002EF020140412336800001010203014118
:10015000726475696E6F204C4C430041726475691E
:100160006E6F204C656F6E6172646F0000030C0F40
:1001700030333C3FC0C3CCCFF0F3FCFF070605048F
:100180000100080A0B0C0D090000000024002700E4
:100190002A002D0030000000000200090F000003BB
:1001A0000401000C0000000000000000000000003E
:1001B000000000000022080D0E2060040205060762
:1001C00008090203030508020402040704070707DD
:1001D00007070707070202070707080E09080808AC
:1001E00007070908020708070B0809070909070894
:1001F00008090D0708080404040608030707060792
:1002000007050707020306020A0707070705060591
:1002100007070B0607050501050708000000000099
:10022000000000FEFE18181E1E001E1E000000002A
:100230000090F89E90F89E1C00001C0000183C26C0
:10024000FF66CC88040C183C180C041C221CC0301F
:100250008E408000001804000C100C80CC7E72F2DE
:10026000DE0C80000C1C1010101C0C1C101E1E003C
:1002700000F0FC061C7CC006FCF0C07C1C14140EB4
:1002800014140000000000606060FCFC606060000E
:1002900000000C0C00000000005838C0C0C0C000B6
:1002A0000000000000181800C0380618040000F80C
:1002B000FC0E060EFCF8040C1C181C0C04180CFE9A
:1002C000FE00001C1C181C86C6663E1C181C1C1850
:1002D000181818888C062626FEDC040C1C18180C2E
:1002E00004C0E0B88CFEFE80040404041C1C0470EE
:1002F0007E3E3636F6C60C1C1818180C04F8FC6E38
:100300006666EECC040C1818181C0C060606E67679
:100310001E0600001C1C0000009CFE666666FE9C1B
:100320000C1C1818181C0C3C7E666666FCF80C1C2D
:1003300018181C0C0418181818181858386060F091
:10034000F098980C0000000004040CD8D8D8D8D835
:10035000D8D8000000000000000C9898F0F0606011
:100360000C040400000000080C06C6E6763C1800E9
:1003700000001818000000E03008C4F63A1A1AF21B
:10038000FA7E0408F00C30604C9C98988C9C9C90F1
:10039000484C2000C0F8BE86BEF8C000181C0404FB
:1003A0000404041C18FEFE66666666FEDC1C1C184F
:1003B0001818181C0CF8FC0E06060E9C08040C1CE1
:1003C00018181C0C04FEFE0606060EFCF81C1C1871
:1003D00018181C0C04FEFE66666666661C1C18185F
:1003E000181818FEFE66666666061C1C00000000F3
:1003F00000F8FC0E0606C6CEDCC8040C1C18181843
:10040000180C04FEFE60606060FEFE1C1C00000014
:10041000001C1CFEFE1C1C8080000000FEFE0C1C4C
:100420001818181C0CFEFE603078EC86021C1C00AC
:100430000000041C18FEFE00000000001C1C181820
:10044000181818FEFE0E7CE000E07C0EFEFE1C1C60
:1004500000000C1C0C00001C1CFEFE1C78E080FE42
:10046000FE1C1C0000040C1C1CF8FC0E0606060EEC
:10047000FCF8040C1C1818181C0C04FEFE666666BA
:100480007E3C1C1C0000000000F8FC0E0686060ED8
:10049000FCF8040C1C18181C0C1C24FEFE6666E6F6
:1004A000E6BE1C001C1C0000000C1C18103C7E66E4
:1004B0006666EECC0C1C1818181C0C060606FEFE10
:1004C0000606060000001C1C000000FEFE000000E6
:1004D00000FEFE040C1C18181C0C04021EFCE0009C
:1004E000E0FC1E020000001C1C1C00000006FEF8C0
:1004F00000F0FE0EFEF000F8FE0600001C1C1C00C2
:1005000000001C1C1C0000060EF8F0F80E06181C5B
:100510000400041C18060E38F0F0380E0600000027
:100520001C1C000000060686E6761E0E06181C1C23
:100530001818181818FEFE0606FCFCC0C00638C0C5
:1005400000000004180606FEFEC0C0FCFC20380EA9
:100550000E38200000000000000000000000000035
:10056000008080808080808080020604000000106F
:1005700098D858F8F0000C1C18180C1C10FEFE300F
:100580001838F0E01C1C0C181C0C04E0F01818388B
:1005900030040C18181C0CE0F0381830FEFE040C67
:1005A0001C180C1C1CE0F0D8D8D8F0E0040C18186B
:1005B00018180818FCFE1A1A001C1C0000E0F0387D
:1005C0001830F8F864ECDCD8CCFC7CFEFE3018184F
:1005D000F8F01C1C0000001C1CFAFA1C1C00FAFAA3
:1005E000C0FC7CFEFEE0F098081C1C00041C18FEF9
:1005F000FE1C1CF8F81018F8F01818F8F01C1C0075
:10060000001C1C00001C1CF8F8301818F8F01C1C0A
:100610000000001C1CE0F0381838F0E0040C1C1836
:100620001C0C04F8F8301838F0E0FCFC0C181C0C1A
:1006300004E0F0381830F8F8040C1C180CFCFCF836
:10064000F83018181C1C00000070F8D8D8D8900892
:100650001818181C0C18FCFE1818000C1C1818F898
:10066000F8000000F8F80C1C18180C1C1C38F8C016
:1006700000C0F83800001C1C1C000018F8E000F056
:1006800038F000E0F81800001C1C0C000C1C1C00CA
:10069000001838E0E03818181C04041C1818F8E09A
:1006A00000E0F8180084FCF83C04001898D878386A
:1006B0001C1C18181880FC7E0606007CFCC0C0FEBE
:1006C000FC06067EFC80C0C0FC7C006030307060A0
:1006D000603000000000000000FE02020202020280
:1006E000FE1C1010101010101C0000070E206000DF
:1006F000000000000000000000000000000000FCFE
:100700000000000000000D00000000003C003C0064
:1007100000000000000000000020F82020F8200069
:10072000010701010701006090F890100000040427
:100730000F0403000018249860100C000C0201063E
:1007400009060030C8C8300000000708080906097B
:100750000000003C0000000000000000000000005D
:1007600000E0180402000000030C1020000204182E
:10077000E000000020100C0300000080A0C0C0A01A
:10078000800000020101020000808080F0808080F3
:10079000000000070000000000000000000020181A
:1007A0000C04000000808080808080000000000039
:1007B0000000000000000000000000081C0800000D
:1007C000000000806018060018060100000000F01C
:1007D00008844408F00003040808040300201008FB
:1007E000FC0000000000000F000000180404844416
:1007F00038000C0A09080808000804444444B800FA
:100800000608080808070080601804FC00000101C1
:1008100001010F01007C24242424C40006080808D8
:10082000080700F8844444448800070808080807BB
:1008300000040404C4340C00000C0300000000B8E1
:1008400044444444B8000708080808070078848432
:100850008444F800040808080807000020702000FD
:10086000000000081C0800000000207020000000AC
:1008700020180C0400000080402010080000000137
:1008800002040800004040404040400002020202D2
:10089000020200000810204080000008040201004D
:1008A0000004844424180000000D0000000000F043
:1008B00008C42424F8000304090A0A0300F8848405
:1008C0008484F8000F000000000F00FC44444478CA
:1008D00080000F080808080700F804040404180042
:1008E00007080808080600FC04040408F0000F08C4
:1008F0000808040300FC4444444404000F080808AA
:10090000080800FC4444444404000F0000000000B8
:1009100000F804048484980007080808080700FC0D
:1009200040404040FC000F000000000F000404FCA9
:100930000404000008080F08080000000004040474
:10094000FC0006080808080700FC4020D008040046
:100950000F000000030C00FC0000000000000F0866
:100960000808080800FC1860806018FC0F000001EF
:1009700000000FFC18608000FC000F000001060F53
:1009800000F804040404F80007080808080700FC3D
:100990008484848478000F000000000000F80404C0
:1009A0000404F8000708080E181700FC84848484E7
:1009B00078000F00010204080038444484840800D1
:1009C00004080808080700040404FC0404040000E8
:1009D000000F000000FC00000000FC0007080808F1
:1009E000080700FC00000000FC0000030C0C0300E2
:1009F00000FC0000C00000FC030C0300030C030C0F
:100A000030C0C0300C000C030000030C003C4080E0
:100A100080403C000000000F0000000404844434C7
:100A20000C000C0A09080808000000FE020202007F
:100A300000003F2020200006186080000000000019
:100A40000001061800020202FE0000002020203FE4
:100A5000000000100804040810000000000000005E
:100A600000000000000000002020202020200000C6
:100A7000040C182000000000000000000000A0A0EE
:100A8000A0A0C00007080808040F00FC4020202098
:100A9000C0000F040808080700C0202020204000E4
:100AA00007080808080400C020202040FC000708B0
:100AB0000808040F00C020202020C00007090909F1
:100AC00009090080F88484840800000F00000000F9
:100AD00000C020202040E00023444444423F00FC6A
:100AE00040202020C0000F000000000F0000202048
:100AF000EC0000000000000F00000000002020ECCF
:100B00000000102020201F0000FC0080402000007A
:100B10000F01010204080000FC00000000000007B3
:100B20000808080000E02020C02020C00F000003BB
:100B300000000FE040202020C0000F000000000F48
:100B400000C020202020C00007080808080700E097
:100B500040202020C0007F020404040300C02020A5
:100B60002040E00003040404027F00E04020202035
:100B700040000F000000000000C0202020204000A6
:100B80000409090909060020F820202000000007B8
:100B90000808080400E000000000E000070808085A
:100BA000040F00E000000000E00000030C0C030054
:100BB00000E00000800000E00708040304080720AC
:100BC00040808040200008040202040800E0000089
:100BD0000000E00023444444423F0020202020A0A5
:100BE0006000080C0A090808000080807C020200EE
:100BF0000000001F2020000000FE00000000000098
:100C00001F0000000002027C8080000020201F00E6
:100C1000000000300808102020180000000000002C
:100C200000FEFEFEFEFEFEFE7F7F7F7F7F7F7F0059
:100C30000005072060000000000000005F000000C9
:100C400003000300143E143E14242A7F2A12433367
:100C500008666136495522500005030000001C2239
:100C600041000041221C0014083E081408083E08F8
:100C70000800503000000808080808006060000004
:100C800020100804023E5149453E0004027F004204
:100C90006151494622414949361814127F102745AF
:100CA0004545393E494949320101710907364949EB
:100CB0004936264949493E0036360000005636007E
:100CC00000081422410014141414140041221408C2
:100CD00002015109063E4159555E7E0909097E7F90
:100CE000494949363E414141227F4141413E7F4988
:100CF0004949417F090909013E4141493A7F0808B4
:100D0000087F00417F4100304040403F7F0814226F
:100D1000417F404040407F020C027F7F0204087FF9
:100D20003E4141413E7F090909061E2121215E7F86
:100D300009090976264949493201017F01013F40ED
:100D400040403F1F2040201F7F2010207F41221C59
:100D5000224107087008076151494543007F41005F
:100D60000002040810200000417F00040201020478
:100D70004040404040000102040020545454787F19
:100D8000444444383844444444384444447F385408
:100D900054541804047E0505085454543C7F080438
:100DA000047800447D40002040443D007F102844EA
:100DB0000000417F40007C047804787C08040478BB
:100DC00038444444387C14141408081414147C0067
:100DD0007C080404485454542004043F44443C40D8
:100DE00040207C1C2040201C3C4030403C442810CB
:100DF00028440C5050503C4464544C440008364144
:100E00004100007F00004141360800020102040257
:100E10007F7F7F7F7F0408020110408040102040C8
:100E200080408008020401804020100201108010E0
:100E30002040402000000000250028002B002E004C
:100E40003100040404040403040502020202040342
:100E50000202020206060606060604040202020454
:100E60000400372F272F11241FBECFEFDAE0DEBF9B
:100E7000CDBF15E0A0E0B1E0E4EFF8E602C00590D8
:100E80000D92AA32B107D9F729E0AAE2B5E001C074
:100E90001D92A23DB207E1F717E0C2E3D7E004C01C
:100EA0002197FE010E945C32C133D107C9F70E942D
:100EB000EF210C946D340C9400008F929F92AF92AE
:100EC000BF92CF92DF92EF92FF920F931F93FC019C
:100ED00011861286168217826083808561110BC08D
:100EE000811120C0118281E0808786832283338331
:100EF000448355831AC08823A9F0108681E0878334
:100F0000C280D380E480F58049015A018C189D0885
:100F1000AE08BF080CE2801601E09006A104B104FF
:100F20000CF481878181811117C080858823A1F00D
:100F300082819381A481B58149015A01881A990A55
:100F4000AA0ABB0A05EF801601E09006A104B104CD
:100F50001CF081E0828781831F910F91FF90EF90B9
:100F6000DF90CF90BF90AF909F908F900895FC013D
:100F70006093BC008091BC0087FFFCCF9091B900CA
:100F8000987F90830895CF92DF92EF92FF920F9314
:100F90001F93CF93DF93EC01C62ED42E8C89882328
:100FA00051F0411108C084E98093BC008091BC00DD
:100FB00084FDFCCF1C8AEC888E010E5E1F4FE11071
:100FC00014C0FB8864EAC8010E94B7078A89883088
:100FD00011F1803101F1DD2011F080E4E82EE09282
:100FE000BB0064E8C8010E94B707C092BB0064E878
:100FF000C8010E94B70782E0D81204C08C898F5FB5
:101000008C8B11C084E98093BC008091BC0084FD6E
:10101000FCCF1C8A08C0FF0CF092BB0064E8C8013A
:101020000E94B707D8CFDF91CF911F910F91FF900A
:10103000EF90DF90CF900895089580E090E00895BC
:10104000CF92DF92EF92FF926B017C0180917F053E
:1010500090918005A0918105B091820524E0B6951C
:10106000A795979587952A95D1F7682F6170A70165
:10107000960183E795E00E945D0780917F0590913E
:101080008005A0918105B091820535E0B695A795C0
:10109000979587953A95D1F7682F6170A7019601CA
:1010A00088E695E00E945D0780917F05909180051C
:1010B000A0918105B091820546E0B695A7959795D8
:1010C00087954A95D1F7682F6170A701960181E352
:1010D00095E00E945D0760917F056170A701960110
:1010E0008CE395E00E945D0780917F0590918005DB
:1010F000A0918105B0918205B695A79597958795A2
:10110000682F6170A701960187E495E00E945D0752
:1011100080917F0590918005A0918105B091820515
:1011200062E0B695A795979587956A95D1F7682F50
:101130006170A701960182E595E00E945D078091AC
:101140007F0590918005A0918105B091820573E0A3
:10115000B695A795979587957A95D1F7682F617081
:10116000A70196018DE595E0FF90EF90DF90CF907D
:101170000C945D074F925F926F927F928F929F9235
:10118000AF92BF92CF92DF92EF92FF920F931F9395
:10119000CF93DF9360E08CE00E944F1F8FE090E0E0
:1011A0000197F1F761E08CE00E944F1FC7E0D0E0AB
:1011B000812C912C54019BE9692E91E0792E2AE132
:1011C000E22E2EE0F22E37E4C32E3EE0D32E0FE0C7
:1011D00010E0F3018491F7015490F601449044200B
:1011E000A1F081110E94121FE42DF0E0EE0FFF1F0D
:1011F000E751FF4FA591B4918C91582231E020E046
:1012000009F430E0832F922F02C080E090E0092E95
:10121000000CAA0BBB0B0C2E04C0880F991FAA1F31
:10122000BB1F0A94D2F7882A992AAA2ABB2A61E00E
:1012300086E00E944F1FC8010197F1F760E086E049
:101240000E944F1F219708F0C4CFC501B401DF9160
:10125000CF911F910F91FF90EF90DF90CF90BF90B3
:10126000AF909F908F907F906F905F904F90089578
:101270006F927F928F929F92AF92BF92CF92DF92A6
:10128000EF92FF920F931F93CF93DF9390EC699FA0
:10129000B0011124672F770F770B6B01FFE1CF228D
:1012A000DD24A3E0CC0CDD1CAA95E1F7822E912C65
:1012B000C42FD0E0EE24EA94F12C87010C1B1D0B07
:1012C000089DD001099DB00D189DB00D11244B2F24
:1012D000CC9E5001CD9EB00CDC9EB00C1124AB2CEA
:1012E000BB2400E011E038016A187B08689C5001BB
:1012F000699CB00C789CB00C1124EC18FD08EC9E95
:101300006001ED9ED00CFC9ED00C1124CD2CDD2470
:101310000C191D09089DE001099DD00D189DD00DE7
:101320001124629566956770623091F038F46623F7
:1013300069F06130D9F4522FEB2D19C0643081F07F
:1013400058F0653099F45B2F4B2D0EC05D2F0CC00B
:10135000522FEB2F4D2F0BC05B2DEB2F422F07C0D1
:101360005B2F422FED2F03C0E22F01C040E0682F1A
:1013700070E02091A2093091A3096217730708F069
:101380003FC02091A809222361F0E29FF0011124BF
:10139000EF2F259FD00111245B2F249F9001112452
:1013A000432FF091AE099091AB092091A90930919A
:1013B000AA09F91308C0B901F3E08F9F600D711DF0
:1013C0001124CB010BC0CB01880F991F880F991FE7
:1013D000820F931FDC01AF0FB11D1C922091AB094E
:1013E000DC01A20FB11DEC932091AC09FC01E20FCE
:1013F000F11D50832091AD09FC01E20FF11D4083E6
:10140000DF91CF911F910F91FF90EF90DF90CF90E0
:10141000BF90AF909F908F907F906F900895CF92E4
:10142000DF92EF92FF920F931F93CF93DF9300D041
:1014300000D0CDB7DEB7F82E062F11E0140F8BE8E1
:10144000C82E89E0D82EEE24E394F601E6820E94AD
:101450001F20F60160837183828393832FEF40E026
:1014600060E081E00E943809212F402F6F2D80EB32
:101470000E94E51E92E9C92E99E0D92EF601E68276
:101480000E941F20F60160837183828393832FEF74
:1014900040E060E082E00E9438098BE08983106BB5
:1014A0001A83FB820C830CEF17E0F801838144E080
:1014B00050E0BE016F5F7F4F8F5F0E941512F801F1
:1014C00083818F5F0E9452110F900F900F900F90A9
:1014D000DF91CF911F910F91FF90EF90DF90CF9010
:1014E0000895EF92FF920F931F93CF93DF93CDB7A1
:1014F000DEB768970FB6F894DEBF0FBECDBF0E946F
:101500001F2060930C0870930D0880930E08909331
:101510000F0886EB99E00E94832080910A088111D0
:1015200002C160910808CE0107960E94931D60E5F4
:1015300074E0CE0101960E943D11BE01695F7F4FAC
:10154000CE0101960E94801DBC01CE010D960E9425
:10155000231120E040E060E0CE010D960E949C2027
:10156000CE010D960E94D920CE0101960E94D9206D
:10157000CE0107960E94D92065E674E0CE0101965F
:101580000E943D1120E043E060E0CE0101960E9400
:101590009C20CE0101960E94D92068E674E0CE011D
:1015A00001960E943D1120E043E06FE3CE010196D9
:1015B0000E949C20CE0101960E94D9206BE674E027
:1015C000CE0101960E943D1120E043E063E7CE0189
:1015D00001960E949C20CE0101960E94D920809104
:1015E0000808823009F46BC0D8F4882321F18130D7
:1015F00009F0EDC160911008CE0107960E94931D7D
:101600006EE674E0CE0101960E943D11BE01695F55
:101610007F4FCE0101960E94801D68E874E067C08C
:10162000843009F47DC008F44DC0853009F0CFC185
:1016300068EA74E0BDC1E09110088FE0E89FF00116
:101640001124EF5FFE4F6685CE010D960E94931D1B
:1016500060911008CE0107960E94931D6EE674E01B
:10166000CE0101960E943D11BE01695F7F4FCE0100
:1016700001960E94801D69E774E00E94E910BE0196
:10168000635F7F4F0E94801DBC01CE0143960E9484
:10169000231121E041E060E0CE0143960E949C20AE
:1016A000CE0143960E94D920CE0101960E94D920F6
:1016B000CE0107960E94D920CE010D9686C16EE715
:1016C00074E076C160911008CE0107960E94931DC8
:1016D00063E774E0CE0101960E943D11BE01695F8F
:1016E0007F4FCE0101960E94801D61E974E00E9447
:1016F000E910BC01CE010D960E94231121E041E0CA
:1017000060E0CE010D960E949C20CE010D960E94B5
:10171000D920CE0101960E94D920CE01079655C14D
:101720006CE974E045C164EB74E0CE0101960E945F
:101730003D1120E040E060E0CE0101960E949C2037
:10174000CE0101960E94D92069EC74E0CE01019689
:101750000E943D1120E043E060E0CE0101960E942E
:101760009C20CE0101960E94D9206BEC74E0CE0142
:1017700001960E943D1120E043E06CE3CE0101960A
:101780000E949C20CE0101960E94D92060ED74E059
:10179000CE0101960E943D1120E043E069E6CE01B2
:1017A00001960E949C20CE0101960E94D920809132
:1017B0000808813009F482C048F0823009F4F6C08C
:1017C000833009F004C160E075E0F2C0E0911008D8
:1017D000AFE0EA9FF0011124EF5FFE4F6685CE0176
:1017E0000D960E94931D60911008CE0107960E94ED
:1017F000931D63E774E0CE0101960E943D11BE0186
:10180000695F7F4FCE0101960E94801D62ED74E0FA
:101810000E94E910BE01635F7F4F0E94801DBC01E2
:10182000CE0143960E94231121E041E060E0CE0109
:1018300043960E949C20CE0143960E94D920CE015F
:1018400001960E94D920CE0107960E94D920CE0190
:101850000D960E94D92091E0E92E91E0F92E10E03A
:101860000FE0E0911008E11711F10E9FF001112433
:10187000EF5FFE4F9685D7011E968C911E979813A9
:1018800016C095851D968C91981311C068ED74E073
:10189000CE0101960E943D1120E043E069E1CE01B6
:1018A00001960E949C20CE0101960E94D9201F5FC4
:1018B000BFE0EB0EF11C1532A1F689C0E0911008D3
:1018C0008FE0E89FF0011124EF5FFE4F6585CE01A8
:1018D0000D960E94931D60911008CE0107960E94FC
:1018E000931D63E774E0CE0101960E943D11BE0195
:1018F000695F7F4FCE0101960E94801D68EE74E003
:101900000E94E910BE01635F7F4F0E94801DBC01F1
:10191000CE0143960E94231121E041E060E0CE0118
:1019200043960E949C20CE0143960E94D920CE016E
:1019300001960E94D920CE0107960E94D920CE019F
:101940000D960E94D92081E0E82E81E0F82E10E06B
:101950000FE0E0911008E11711F10E9FF001112442
:10196000EF5FFE4F9685D7011E968C911E979813B8
:1019700016C095851D968C91981311C068ED74E082
:10198000CE0101960E943D1120E043E069E1CE01C5
:1019900001960E949C20CE0101960E94D9201F5FD3
:1019A000BFE0EB0EF11C1532A1F611C06EEE74E033
:1019B000CE0101960E943D1121E041E060E0CE01A0
:1019C00001960E949C20CE0101960E94D920689623
:1019D0000FB6F894DEBF0FBECDBFDF91CF911F9140
:1019E0000F91FF90EF9008951F93CF93DF93CDB7A2
:1019F000DEB762970FB6F894DEBF0FBECDBFE091A1
:101A00007E051FE01E9FF0011124EF5FFE4F6685EB
:101A1000CE0107960E94931D63ED74E0CE010196FE
:101A20000E943D11BE01695F7F4FCE0101960E9469
:101A3000801DBC01CE010D960E94231120E040E0E4
:101A400060E0CE010D960E949C20CE010D960E9472
:101A5000D920CE0101960E94D920CE0107960E947E
:101A6000D920E0917E051E9FF0011124EF5FFE4F0B
:101A70006585CE0107960E94931D69EE74E0CE0144
:101A800001960E943D11BE01695F7F4FCE01019614
:101A90000E94801DBC01CE010D960E94231120E002
:101AA00040E06AE5CE010D960E949C20CE010D9685
:101AB0000E94D920CE0101960E94D920CE0107961E
:101AC0000E94D92062960FB6F894DEBF0FBECDBF3C
:101AD000DF91CF911F9108951F93CF93DF93CDB7DF
:101AE000DEB762970FB6F894DEBF0FBECDBF86EBB0
:101AF00099E00E9483200E94F40C60917E05CE0143
:101B000001960E94931D23E040E067E3CE01019619
:101B10000E949C20CE0101960E94D920E0917E0572
:101B20001FE01E9FF0011124EF5FFE4F6581CE0183
:101B300007960E94931D6EE075E0CE0101960E940B
:101B40003D11BE01695F7F4FCE0101960E94801D4D
:101B5000BC01CE010D960E94231120E043E060E01D
:101B6000CE010D960E949C20CE010D960E94D92098
:101B7000CE0101960E94D920CE0107960E94D9205D
:101B8000E0917E051E9FF0011124EF5FFE4F6681FC
:101B9000CE0107960E94931D64E175E0CE01019687
:101BA0000E943D11BE01695F7F4FCE0101960E94E8
:101BB000801DBC01CE010D960E94231121E042E060
:101BC00061E4CE010D960E949C20CE010D960E94EC
:101BD000D920CE0101960E94D920CE0107960E94FD
:101BE000D92060917E05CE0101960E94931D23E0CD
:101BF00040E067E3CE0101960E949C20CE01019651
:101C00000E94D92062960FB6F894DEBF0FBECDBFFA
:101C1000DF91CF911F9108951F93CF93DF93CDB79D
:101C2000DEB762970FB6F894DEBF0FBECDBF86EB6E
:101C300099E00E9483200E94F40C60917E05CE0101
:101C400001960E94931D23E040E067E3CE010196D8
:101C50000E949C20CE0101960E94D920E0917E0531
:101C60001FE01E9FF0011124EF5FFE4F6581CE0142
:101C700007960E94931D69E175E0CE0101960E94CE
:101C80003D11BE01695F7F4FCE0101960E94801D0C
:101C9000BC01CE010D960E94231121E042E060E0DC
:101CA000CE010D960E949C20CE010D960E94D92057
:101CB000CE0101960E94D920CE0107960E94D9201C
:101CC000E0917E051E9FF0011124EF5FFE4F6681BB
:101CD000CE0107960E94931D6EE175E0CE0101963C
:101CE0000E943D11BE01695F7F4FCE0101960E94A7
:101CF000801DBC01CE010D960E94231120E043E01F
:101D000060E5CE010D960E949C20CE010D960E94AA
:101D1000D920CE0101960E94D920CE0107960E94BB
:101D2000D92060917E05CE0101960E94931D23E08B
:101D300040E067E3CE0101960E949C20CE0101960F
:101D40000E94D92062960FB6F894DEBF0FBECDBFB9
:101D5000DF91CF911F9108951F93CF93DF93CDB75C
:101D6000DEB762970FB6F894DEBF0FBECDBF86EB2D
:101D700099E00E9483200E94F40CE0917E051FE010
:101D80001E9FF0011124EF5FFE4F6581CE01079683
:101D90000E94931D6EE075E0CE0101960E943D11F8
:101DA000BE01695F7F4FCE0101960E94801DBC017C
:101DB000CE010D960E94231120E043E060E0CE01A9
:101DC0000D960E949C20CE010D960E94D920CE0136
:101DD00001960E94D920CE0107960E94D920E09159
:101DE0007E051E9FF0011124EF5FFE4F6681CE013C
:101DF00007960E94931D6EE175E0CE0101960E9448
:101E00003D11BE01695F7F4FCE0101960E94801D8A
:101E1000BC01CE010D960E94231120E043E060E555
:101E2000CE010D960E949C20CE010D960E94D920D5
:101E3000CE0101960E94D920CE0107960E94D9209A
:101E400060917E05CE0101960E94931D23E041E042
:101E500067E3CE0101960E949C20CE0101960E946C
:101E6000D92062960FB6F894DEBF0FBECDBFDF91CA
:101E7000CF911F9108954091E3065091E40620917F
:101E8000E1063091E20642175307B4F49091E8005E
:101E90009570E1F39091E80092FD19C08093F100F4
:101EA0008091E3069091E40601968F739927892B20
:101EB00019F48EEF8093E8008091E3069091E40698
:101EC00001969093E4068093E30681E0089580E014
:101ED0000895615030F02091F100FC0120830196BB
:101EE000F8CF289884E68093E6060895CF92DF9293
:101EF000EF92FF920F931F93CF93DF936C017A01C0
:101F00008B01C0E0D0E0CE15DF0581F0D8016D91E6
:101F10008D01D601ED91FC910190F081E02DC6017B
:101F20000995892B11F02196EECF7E01C701DF9133
:101F3000CF911F910F91FF90EF90DF90CF90089578
:101F4000FC01538D448D252F30E0842F90E0821BBF
:101F5000930B541710F0CF96089501970895FC0144
:101F6000918D828D981761F0828DDF01A80FB11DD0
:101F70005D968C91928D9F5F9F73928F90E00895F4
:101F80008FEF9FEF0895FC01918D828D981731F0AE
:101F9000828DE80FF11D858D90E008958FEF9FEF02
:101FA0000895FC01918D228D892F90E0805C9F4FD8
:101FB000821B91098F739927089582EE98E00E9401
:101FC000D10F21E0892B09F420E0822F0895FC0134
:101FD000848DDF01A80FB11DA35ABF4F2C91848DB2
:101FE00090E001968F739927848FA689B7892C93E7
:101FF000A089B1898C9182748C93938D848D981370
:1020000006C00288F389E02D80818F7D808308954A
:10201000EF92FF920F931F93CF93DF93EC0181E038
:10202000888F9B8D8C8D981305C0E889F9898081F4
:1020300085FD26C0F62E0B8D10E00F5F1F4F0F732E
:102040001127E02E8C8DE8120CC00FB607FCFACFDA
:10205000E889F989808185FFF5CFCE010E94E70FDD
:10206000F1CF8B8DFE01E80FF11DE35AFF4FF08297
:102070009FB7F8940B8FEA89FB898081806209C041
:102080009FB7F894EE89FF896083E889F989808198
:10209000827480839FBF81E090E0DF91CF911F9198
:1020A0000F91FF90EF900895CF93DF93EC01888D0F
:1020B0008823C9F0EA89FB89808185FD05C0A8894C
:1020C000B9898C9186FD0FC00FB607FCF5CF8081D2
:1020D00085FFF2CFA889B9898C9185FFEDCFCE011C
:1020E0000E94E70FE7CFDF91CF91089580E090E065
:1020F000892B29F00E94DD0F81110C9400000895B6
:102100000E9458340F931F93CF93DF93EC01888183
:102110009981009729F02A813B812617370788F497
:102120008B016F5F7F4F0E949233009761F099831C
:1021300088831B830A832C813D81232B11F4FC01AE
:10214000108281E001C080E0DF91CF911F910F915B
:102150000895EF92FF920F931F93CF93DF93611532
:10216000710511F480E01CC041155105C1F07B01DF
:10217000EC018C819D818A01080F191FB801CE01E5
:102180000E948210882371F3288139818C819D817E
:10219000B701820F931F0E9466341D830C8381E078
:1021A000DF91CF911F910F91FF90EF900895CF9302
:1021B000DF93EC0188819981009711F00E94093327
:1021C000198218821D821C821B821A82DF91CF9194
:1021D0000895CF93DF93EC016115710561F0FB0168
:1021E00001900020E9F73197AF01461B570B0E9481
:1021F000A910811103C0CE010E94D710CE01DF913A
:10220000CF910895EF92FF920F931F93CF93DF9397
:10221000EC017B018A01BA010E948210811104C085
:10222000CE010E94D71007C01D830C83B70188819F
:1022300099810E946634CE01DF91CF911F910F9159
:10224000FF90EF900895FB01DC0111961C921E9205
:1022500013961C921E92129715961C921E9214971A
:102260008617970749F0608171816115710521F02A
:10227000448155810C9402110895FC011182108251
:1022800013821282158214826115710551F0FB01CF
:1022900001900020E9F73197AF01461B570B0C94D2
:1022A000021108958093E9008091F200882319F0CB
:1022B0008AE38093E80008951F920F920FB60F9261
:1022C00011242F933F934F935F936F937F938F933B
:1022D0009F93AF93BF93CF93EF93FF93C091E10090
:1022E0008091E100837F8093E100C3FF0FC01092D3
:1022F000E90081E08093EB001092EC0082E3809390
:10230000ED0010922C0588E08093F000C2FF19C008
:1023100083E00E9452118091E706882339F0809172
:10232000E70681508093E706882389F18091E606CD
:10233000882339F08091E60681508093E606882351
:1023400041F1C4FF10C08091E2008E7E81608093D5
:10235000E2008091E1008F7E8093E10080912A0568
:102360008E7E806111C0C0FF16C08091E2008E7E1B
:1023700080618093E2008091E1008E7E8093E10095
:1023800080912A058E7E816080932A0504C05D9A23
:10239000CDCF289AD6CFFF91EF91CF91BF91AF913A
:1023A0009F918F917F916F915F914F913F912F916D
:1023B0000F900FBE0F901F901895DF92EF92FF9233
:1023C0000F931F93CF93DF93D82E8A017B01E40EE6
:1023D000F51EEB01CE15DF0571F0D7FE03C0FE013F
:1023E000849101C088810E943B0F21968111F2CF18
:1023F0008FEF9FEF01C0C801DF91CF911F910F9127
:10240000FF90EF90DF9008952FB7F8948770809336
:10241000E9009091E800892F807295FF04C09091A7
:10242000F20080E4891B2FBF08957F928F929F92C4
:10243000AF92BF92CF92DF92EF92FF920F931F93D2
:10244000CF93DF93C82E8B017A0180912C058111E7
:1024500003C08FEF9FEF74C080912A0580FF05C0F5
:102460008091E00082608093E000CE2DDF2DD12CA2
:102470008AEFB82E8C2D8770982E8C2D8072882E26
:102480008C2D8074782E9AE3A92E209719F4DD20E4
:1024900009F451C08C2D0E94041281110AC0BA9413
:1024A000BB20B9F261E070E080E090E00E94E51F9F
:1024B000ECCF282F30E0C217D3070CF48C2F9FB736
:1024C000F8949092E9002091E80025FF32C0282F6F
:1024D00030E0C21BD30B882029F08150A0F010926D
:1024E000F100FBCFF801C7FE0AC0815050F04491C3
:1024F0004093F1003196F9CF41914093F100815022
:10250000D8F7020F131FDD2019F0A092E8000AC0CF
:102510008091E80085FD08C0A092E800DD24D394F6
:10252000209739F0D12C05C0209719F47110A09292
:10253000E8009FBFAACF5D9884E68093E706C701B5
:10254000DF91CF911F910F91FF90EF90DF90CF908F
:10255000BF90AF909F908F907F900895CF93DF931F
:10256000EC0180913703882331F083E00E9415123B
:102570001816190634F081E090E09B838A8380E08E
:1025800090E0DF91CF91089590912C05992311F05F
:1025900057FF03C08FEF9FEF08959FB7F8948770A0
:1025A0008093E9002091F20030E0421753070CF4C9
:1025B0009A01822FFB0144E6815038F0289840931D
:1025C000E6065091F1005193F7CF2115310521F026
:1025D0008091F200882319F09FBFC90108958BE60E
:1025E0008093E800F9CF9FB7F89487708093E90053
:1025F0008091F2009FBF08958091D90681110DC08E
:1026000082E08093D50684E08093D6061092D806A7
:102610001092D70681E08093D90685ED96E0089563
:102620000F931F93CF93DF931F92CDB7DEB782E056
:10263000898342E450E067EF70E080E80E94DD119A
:102640000E94FC12DC0112960D911C91139701154A
:10265000110589F0D801ED91FC910280F381E02D04
:10266000BE016F5F7F4FC801099597FD04C0F80157
:1026700000851185ECCF89810F90DF91CF911F915B
:102680000F9108951F920F920FB60F921124CF92BF
:10269000DF92EF92FF920F931F932F933F934F93ED
:1026A0005F936F937F938F939F93AF93BF93EF93BA
:1026B000FF93CF93DF93CDB7DEB76C97DEBFCDBF6F
:1026C0001092E9008091E80083FFFBC168E0CE0131
:1026D00045960E94690F82EF8093E8008D8987FFFD
:1026E00005C09091E80090FFFCCF03C09EEF90934F
:1026F000E800982F907609F0C6C09E894F89588DC2
:102700002F89F88C91110CC0803829F480912B0509
:102710008093F10002C01092F1001092F10045C1C7
:10272000913051F4811141C14130510509F03DC151
:1027300080912B058D7F0BC0933061F4811135C1E1
:102740004130510509F031C180912B0582608093A1
:102750002B052BC1953049F48091E80080FFFCCF18
:10276000822F80688093E30020C1963009F05EC01C
:102770000B8D1C8D22E01092E9001092E40610925D
:10278000E306F21232C01092E2061092E1060E94B5
:10279000101399E0BE016F5F7F4FDB01E92F1D929F
:1027A000EA95E9F79983FA8291E09E8390EA988707
:1027B0009AEF99872091E3063091E406275F3F4F17
:1027C0003C832B838D831092E9001092E4061092D3
:1027D000E3061093E2060093E10649E050E080E052
:1027E0000E94DD110E941013E0C01093E2060093D6
:1027F000E1060E94FC12DC0112960D911C911397C8
:102800000115110509F4BBC0D801ED91FC910480BC
:10281000F581E02DBE016B5E7F4FC80109950097E1
:1028200009F0C7C0F80100851185EACF973009F497
:1028300045C1983021F481E08093F100B6C0993011
:1028400009F0B3C0837009F039C1E9E3F3E081E036
:1028500031E096E32081211109C08EE78093EA00E0
:102860001092EA008F8980932C059FC08093E90025
:102870003093EB0021912093EC009093ED008F5F5B
:10288000873041F7EACF8B8D9C8D1092E900109232
:10289000E4061092E3069093E2068093E106898DA8
:1028A000811153C08E899D89913A49F4813209F092
:1028B00005C147E050E060E373E080E0BBC09132C7
:1028C00009F0FCC0833269F48F89988DA0E0B0E0F4
:1028D00080932C0390932D03A0932E03B0932F038A
:1028E00064C0803269F48091E80082FFFCCF67E029
:1028F00080E393E00E94690F8BEF8093E80055C05E
:10290000823209F052C08F8980933703EEEFFFE7E0
:10291000859194918B3F9C4D19F0E0E0F8E002C066
:10292000EEEFFAE08091300390913103A0913203F1
:10293000B0913303803B9440A105B10509F09EC0DE
:102940008091370380FF79C099C00E94FC12FC017E
:10295000028113810115110509F4B0C0D801ED9170
:10296000FC910190F081E02DBE016B5E7F4FC801AC
:10297000099581111AC0F80100851185EBCFF1E0AE
:10298000FF1609F44EC0F3E0FF1298C08F89882328
:1029900009F44AC0823089F440E860E18BE591E0B7
:1029A0000E94F22E882309F489C08EEF8093E800FC
:1029B00088C018161906CCF381C0813029F440E88C
:1029C0006BE08FE491E0ECCF833009F077C00E9498
:1029D000FC12DC011296ED90FC9013978E010F5FB4
:1029E0001F4F6801E114F10479F0D701ED91FC91DA
:1029F0000680F781E02DB801C7010995080F111D68
:102A0000F701E084F184EECFD8011C92F601019029
:102A10000020E9F73197BF016C197D0940E0C6013C
:102A2000BFCF6DE371E002C069E371E0FB01449147
:102A300050E080E80E94DD11B8CFEE3F2AE0F207B7
:102A400051F0808191818737A7E79A0721F0909311
:102A5000FF0A8093FE0A87E797E79183808380913E
:102A600060008093E5069BE088E10FB6F894A89596
:102A7000809360000FBE9093600097CF808191811A
:102A80008737974709F091CFA895809160008861BA
:102A9000809360008091E50680936000EE3FBAE08D
:102AA000FB0739F08091FE0A9091FF0A91838083A1
:102AB0007CCF1092FF0A1092FE0A77CF81E28093BA
:102AC000EB006C960FB6F894DEBF0FBECDBFDF9162
:102AD000CF91FF91EF91BF91AF919F918F917F9196
:102AE0006F915F914F913F912F911F910F91FF90A7
:102AF000EF90DF90CF900F900FBE0F901F90189522
:102B00001F920F920FB60F9211242F933F934F9362
:102B10005F936F937F938F939F93AF93BF93EF9345
:102B2000FF9382EE98E00E94E70FFF91EF91BF9133
:102B3000AF919F918F917F916F915F914F913F9155
:102B40002F910F900FBE0F901F9018951F920F920C
:102B50000FB60F9211242F938F939F93EF93FF93B0
:102B6000E091F208F091F3088081E091F808F0918B
:102B7000F90882FD12C090818091FB088F5F8F73EE
:102B80002091FC08821751F0E091FB08F0E0EE5133
:102B9000F74F958F8093FB0801C08081FF91EF91E3
:102BA0009F918F912F910F900FBE0F901F901895AE
:102BB000CF93DF931F92CDB7DEB76983DC01ED9130
:102BC000FC910280F381E02D41E050E0BE016F5F97
:102BD0007F4F09950F90DF91CF910895CF93DF93A9
:102BE000EC018D85882319F081508D8711C09C815F
:102BF0008E81981768F488896827E881F9810084B4
:102C0000F185E02D42E0CE0109958C818F5F8C83A8
:102C1000DF91CF91089585ED8093BC008091BC0039
:102C200084FDFCCF10927B07089540910807262F62
:102C300030E0240F311D21323105DCF420917B0777
:102C40002430C9F4FC0180E090E0861758F43091FC
:102C500008072191DC01A851B94FA30FB11D2C9396
:102C60000196F3CF80910807680F6093080780E012
:102C7000089581E0089582E00895089508950895E3
:102C8000E091340780913307E81730F4F0E0EB5C13
:102C9000F84F808190E008958FEF9FEF0895909115
:102CA000340780913307981750F4E92FF0E0EB5C7C
:102CB000F84F208130E09F5F9093340702C02FEFE0
:102CC0003FEFC90108958091330790E020913407C8
:102CD000821B91090895CF92DF92EF92FF920F939A
:102CE0001F93CF93DF937C01CB018A0120917C0756
:102CF000222389F0EB016B01C40ED51ECC15DD0536
:102D000069F06991D701ED91FC910190F081E02D7E
:102D1000C7010995F3CF642F0E941516C801DF91F2
:102D2000CF911F910F91FF90EF90DF90CF9008957A
:102D3000CF93DF931F92CDB7DEB7698320917C07D5
:102D40002223D1F020919F07203240F021E030E093
:102D5000FC013383228380E090E015C080917D07E1
:102D6000E82FF0E0E258F84F998190838F5F8093CD
:102D70007D0780939F0705C061E0CE0101960E9408
:102D8000151681E090E00F90DF91CF91089580E0DB
:102D900090E0089580E00895FC0182818F5BFB0143
:102DA000808381E0089583E00C94521183E00E94B7
:102DB000041290E008950F931F93CF93DF931F9217
:102DC000CDB7DEB78C01FC018485958597FF12C0D5
:102DD00041E050E0BE016F5F7F4F82E00E94C4126D
:102DE000019719F4898190E002C08FEF9FEFF801FD
:102DF00095878487F801848595850F90DF91CF9121
:102E00001F910F910895CF93DF931F92CDB7DEB737
:102E1000FC018485958597FD05C02FEF3FEF358731
:102E200024870FC041E050E0BE016F5F7F4F82E01A
:102E30000E94C412019719F4898190E002C08FEFBB
:102E40009FEF0F90DF91CF910895FC0184859585C8
:102E500097FD06C082E00E94F31290E0019608956B
:102E600082E00E94F31290E0089584E0E4E2F5E04D
:102E7000DB0101900D928A95E1F784E00895CF92ED
:102E8000DF92EF92FF920F931F93CF93DF93CDB713
:102E9000DEB7C456D1090FB6F894DEBF0FBECDBF62
:102EA0006C01DB019C919E5F9C93FE01319684E650
:102EB000DF011D928A95E9F788E089838BE08A8398
:102EC00022E02C8391E09D839E8339E0398774E072
:102ED0007A879E879F873A8B44E24B8B9C8B00E0DE
:102EE00011E01E8B0D8B89E0E82EF12CF88EEF8A15
:102EF000998F3B8F7C8F2F8F98A353E059A387E046
:102F00008CA34DA39EA318A70FA301E410E01AA75A
:102F100009A786E08BA74CA72DA79EA79FA789ABE3
:102F20004AAB2BAB2CAB2DAB3FAB48AF59AF9AAFF5
:102F30005BAF9CAF2DAF9EAF21963FAF21972296FE
:102F40004FAF229723965FAF239724962FAF2497F6
:102F500025967FAF259726969FAF269727969FAFFA
:102F6000279728969FAF28972A963FAF2A9745E044
:102F70002B964FAF2B972D962FAF2D9760E470E0D7
:102F80002F967FAF6EAF2F9763964FAF639785E213
:102F900064968FAF649765969FAF659766969FAF6F
:102FA000669767969FAF679768963FAF68976996F1
:102FB0004FAF69976B962FAF6B976D967FAF6EAFE4
:102FC0006D97A1964FAFA197A2968FAFA297A396A8
:102FD0009FAFA397A4969FAFA497A5965FAFA59721
:102FE000D60112969C9112979B839B879F5F9A8F25
:102FF0009D8F13968C912C968FAF2C978F5F806846
:103000006A968FAF6A9744E650E0BF0180E00E9465
:10301000DD11CC59DF4F0FB6F894DEBF0FBECDBF28
:10302000DF91CF911F910F91FF90EF90DF90CF90A4
:103030000895DC01ED91FC910084F185E02D40E0E4
:103040000994FC018781869586958695681740F4DA
:1030500065839385690F6770606BCF010C941918B5
:1030600008950F931F93CF93FC0126816217A0F45C
:10307000C62F8C0164839085C90F6C2F6F70CF01B0
:103080000E9419186C2F62956F706061C801CF9112
:103090001F910F910C941918CF911F910F910895C2
:1030A000CF92DF92EF92FF920F931F93CF93DF9314
:1030B000EC01F62EC42ED22E1D868F818695869524
:1030C0008695081710F00FEF080F1D2D6F2DCE01FC
:1030D000011788F00E943118612FCE010E9421183B
:1030E000EF2CCE1430F06889CE010E94EE15E394E7
:1030F000F8CF1F5FEBCF0E9431186D2DCE01DF910D
:10310000CF911F910F91FF90EF90DF90CF900C9493
:1031100021182F923F924F925F926F927F928F92DF
:103120009F92AF92BF92CF92DF92EF92FF920F9356
:103130001F93CF93DF93CDB7DEB72A970FB6F894DE
:10314000DEBF0FBECDBFDC011E962D913C911F97B7
:103150002115310509F463C19A878987F9013296EF
:10316000449031967491E72EF12CB7E0EB0EF11CF0
:1031700093E0F594E7949A95E1F7EA823196A49169
:103180003196E4916A1758F0462F50E08E2F90E068
:10319000FC01EA0FF11D4E175F070CF46AC06D3099
:1031A00031F460E089859A850E9431183BC16A300C
:1031B00009F035C160E089859A850E943118E9855A
:1031C000FA8501890E9DE02C1124278126952695EC
:1031D000269565816E0D8E2D821B860F9485992311
:1031E00009F418C118160CF015C1A985BA851B96EB
:1031F0009C911B97890F87701B968C931B972E1998
:1032000015962C9315971E96ED91FC911F9730976C
:1032100069F03396E491F0E0379683E0F595E79511
:103220008A95E1F70E9FE02D112401C0E0E00FEF39
:10323000020F0E0FE985FA85468141506481CF0166
:103240000E945018A985BA851C968C911C978130D4
:1032500009F0E8C01B966C911B97660F660F660F0E
:103260006F731A966C931A976064CD010E941918B7
:10327000D9C0A9014A5F5F4F6A1BA985BA85199613
:10328000FC9119975196EC91FE9FE02D1124E8874F
:10329000F901A4913196249130E03A2B2230310586
:1032A00070F44E9CC0014F9C900D1124689F8001CA
:1032B000699F100D1124040F151F312C22C0777047
:1032C00021F028E0322E371A01C0312CFA0120E01B
:1032D000A0E0B0E0261731F03491A30FB11D2F5FAD
:1032E0003196F8CFFA01E20FF11D4490EA9E800179
:1032F000EB9E100DFA9E100D1124080F191F040FDC
:10330000151FA985BA851496BC91BB83E985FA85FA
:10331000F581FC83A985BA851D96BC91BD83E42DFA
:10332000F0E0FF83EE83812C912CC12CD12CC9823B
:10333000FA81CF1608F06DC0212C36019FEF691A73
:10334000790AA985BA8551968C915197281608F06B
:1033500058C0ED811D96EC93F981F11102C0222035
:1033600079F0A985BA851596BC901597B3946B81B1
:10337000CD010E9431186B2D89859A850E942118F4
:10338000A12CB12CA41410F0B12C2FC0F401EA0D23
:10339000FB1DE00FF11F5490332061F0E614F70499
:1033A00049F4E52DF0E0032C02C0F595E7950A9469
:1033B000E2F75E2EE985FA858189823069F4E52D90
:1033C0002110E295EF70F0E0E459FE4F5490652D26
:1033D00089859A850E94EE15652D89859A850E94BA
:1033E000EE15FFEFAF1ABF0ACDCF8885B81639F0BA
:1033F00060E089859A850E94EE15B394F6CF2394F8
:10340000A0CF9FEFC91AD90AAE81BF818A0E9B1E39
:103410008ECF6C8189859A850E94211803C080E037
:1034200090E002C081E090E02A960FB6F894DEBFEB
:103430000FBECDBFDF91CF911F910F91FF90EF9005
:10344000DF90CF90BF90AF909F908F907F906F90C4
:103450005F904F903F902F9008951F920F920FB65C
:103460000F9211242F933F934F935F936F937F930A
:103470008F939F93AF93BF93EF93FF938091B90086
:10348000887F803609F49CC068F5883209F45BC0F7
:1034900090F4803109F454C038F4882309F4F6C05C
:1034A000883009F44DC0F6C0883109F44CC0803230
:1034B00009F45DC0EFC0803409F468C048F480337B
:1034C00009F455C0883309F0E5C080937907D8C066
:1034D000803509F44FC0883509F45DC0883409F09F
:1034E000D9C0D6C0883909F4C7C0A8F4883709F410
:1034F00067C038F4883609F463C0803709F460C0C7
:10350000C9C0883809F4B8C0803909F45FC0803870
:1035100009F0C0C05BC0803B09F486C038F4803A33
:1035200009F466C0883A09F47FC0B4C0803C09F44D
:10353000A7C0883C09F4A4C0883B09F48AC0AAC08B
:103540008091560710C0909178078091770798175F
:1035500070F5E091780781E08E0F80937807F0E0B6
:10356000E95AF84F80818093BB0085EC86C0809338
:1035700079078EC0E091780781E08E0F80937807FD
:103580008091BB00F0E0E95AF84F80839091780772
:10359000809177076EC0E091780781E08E0F80936D
:1035A00078078091BB00F0E0E95AF84F8083809162
:1035B0007A0781116DC081E08093550784EA61C06C
:1035C00083E080937B0710922A07CFCF80912A0750
:1035D000803208F051C0E0912A0781E08E0F80937D
:1035E0002A078091BB00F0E0E65FF84F8083BDCFF3
:1035F00085EC8093BC0010927B0780912A07803273
:1036000030F4E0912A07F0E0E65FF84F1082609115
:103610002A0770E0E0912D05F0912E058AE097E0F1
:10362000099510922A0736C084E080937B07109298
:10363000090710920807E0912F05F09130050995D0
:1036400080910807811105C081E0809308071092DE
:10365000E806E091090781E08E0F80930907F0E00A
:10366000E851F94F80818093BB00909109078091C8
:103670000807981708F479CF85E88093BC000AC042
:1036800085EC8093BC0010927B0704C010927907F0
:103690000E940B16FF91EF91BF91AF919F918F9177
:1036A0007F916F915F914F913F912F910F900FBE3E
:1036B0000F901F901895DC018D919C91DC01ED918C
:1036C000FC910190F081E02D0994AF92BF92CF92CE
:1036D000DF92EF92FF921F93CF93DF93182FE1E0D9
:1036E000F1E05DE1C52E53E0D52E20E030E066E04C
:1036F000A62EB12CCFEFD0E082819381B5010E943C
:103700004832CB01EE24EA94F12CBE010E944832EB
:10371000820F931FBE010E9448329C013F96CE1635
:10372000DF0651F7C296B7010E944832EC01212F03
:103730004FEF682F80E00E943809CE010A96B7014A
:103740000E944832212F4FEF682F83E00E943809F2
:10375000CE014E96B7010E944832212F4FEF682FBD
:1037600082E00E943809CE018896B7010E94483253
:10377000212F4FEF682F81E0DF91CF911F91FF90B4
:10378000EF90DF90CF90BF90AF900C9438093FB787
:10379000F89480912F0790913007A0913107B09154
:1037A000320726B5A89B05C02F3F19F00196A11D31
:1037B000B11D3FBFBA2FA92F982F8827820F911DC7
:1037C000A11DB11DBC01CD0142E0660F771F881F0E
:1037D000991F4A95D1F70895CF93DF93CFE7D9E0AA
:1037E000998121E020937C0790939E0710927D079A
:1037F00010929F07682F80EF97E00E94981681E053
:103800000E94DE20888362E089810E945C2180EF33
:1038100097E00E944F16D82F80E0C82F80EF97E0E6
:103820000E944F168C2B9D2BDF91CF910895CF9343
:10383000DF93CFE7D9E0998121E020937C07909333
:103840009E0710927D0710929F07682F80EF97E0E8
:103850000E94981681E00E94DE20888361E08981C1
:103860000E945C2180EF97E00E944F16DF91CF917C
:1038700008950F931F93CF93DF93162F072FCFE752
:10388000D9E0998121E020937C0790939E071092C4
:103890007D0710929F07682F80EF97E00E9498168F
:1038A000602F80EF97E00E949816612F80EF97E0DD
:1038B0000E94981681E00E94DE208883DF91CF91DC
:1038C0001F910F9108958F929F92AF92BF92EF92A6
:1038D000FF920F931F93CF93DF937C01EB0180E561
:1038E0000E94171C8F5F880F90E09983888386E47D
:1038F0000E94171C082F10E00F5F1F4F1D830C83C1
:10390000A881B0E020E03FE24AE350E00E94B931F4
:103910006C507E4F8F4F9F4F38EE832E33E0932EA7
:10392000A12CB12CA50194010E940332D8010E9460
:10393000C4316C507E4F8F4F9F4FA50194010E9460
:1039400003322A873B874C875D8781E50E94EC1B09
:103950008C01112702C0000F111F9A95E2F70F5F2B
:103960001F4F1F830E83A881B0E020E03FE24AE3AF
:1039700050E00E94B9316C507E4F8F4F9F4FA50190
:1039800094010E940332D8010E94B9316C507E4FDD
:103990008F4F9F4FA50194010E9403322E873F87CE
:1039A000488B598B80E70E94171C8F5F880F90E02F
:1039B0009B838A8381E70E94EC1B9C01992702C0AC
:1039C000880F991F3A95E2F7019699878887F70142
:1039D0002381222331F02E813F81821B930B998713
:1039E0008887AA81B0E020E03FE24AE350E00E94ED
:1039F000B9316C507E4F8F4F9F4F28EE822E23E0BF
:103A0000922EA12CB12CA50194010E940332A8850D
:103A1000B9850E94B9316C507E4F8F4F9F4FA501E1
:103A200094010E9403322A8B3B8B4C8B5D8BDF9180
:103A3000CF911F910F91FF90EF90BF90AF909F900B
:103A40008F900895CF93DF93EC0181E00E94171CC3
:103A500084FB992790F9988383FB992790F99A839F
:103A600082FB992790F9998386FB992790F99B838C
:103A7000881F8827881F8C83DF91CF9108958F92AC
:103A80009F92AF92BF920F931F93CF93DF93CDB7C7
:103A9000DEB7A1970FB6F894DEBF0FBECDBF19A257
:103AA000423008F44AE08E010F5D1F4F842E912CA6
:103AB000A12CB12CA50194010E940332E62FB9017B
:103AC000CA0101501109EA3014F4E05D01C0E95C5B
:103AD000D801EC93232B242B252B61F7C8010E94DE
:103AE0007120A1960FB6F894DEBF0FBECDBFDF9157
:103AF000CF911F910F91BF90AF909F908F9008959D
:103B0000CF93DF93EC01FB0144815581608171818A
:103B10000E94A910811103C0CE010E94D710CE01CE
:103B2000DF91CF910895EF92FF920F931F93CF9360
:103B3000DF93CDB7DEB729970FB6F894DEBF0FBE7F
:103B4000CDBF8C01862FF801118210821382128260
:103B5000158214824AE09E012F5F3F4F7901B9011F
:103B600090E00E945A31F70101900020E9F7319767
:103B7000AF014E195F09B701C8010E9402112996D1
:103B80000FB6F894DEBF0FBECDBFDF91CF911F916E
:103B90000F91FF90EF900895EF92FF920F931F9374
:103BA000CF93DF93CDB7DEB762970FB6F894DEBF41
:103BB0000FBECDBF8C01CB01F801118210821382A0
:103BC0001282158214824AE09E012F5F3F4F7901D5
:103BD000B9010E944F31F70101900020E9F73197B8
:103BE000AF014E195F09B701C8010E940211629628
:103BF0000FB6F894DEBF0FBECDBFDF91CF911F91FE
:103C00000F91FF90EF900895CF92DF92EF92FF9285
:103C10000F931F93CF93DF93CDB7DEB729970FB6DE
:103C2000F894DEBF0FBECDBF8091A9099091AA097B
:103C3000892B09F4BBC0C090AF09D090B009E090C7
:103C4000B109F090B2090E94C71B6C157D058E0565
:103C50009F0550F40E94C71B6093AF097093B00991
:103C60008093B1099093B2090E94C71B0091AF09DC
:103C70001091B0092091B1093091B209DC01CB015A
:103C8000801B910BA20BB30B8C329140A105B105A7
:103C900090F2F8948091A4099091A5099A83898360
:103CA000E091A909F091AA09DF0111968081898725
:103CB0009091A009E091B309F091B4098091B50900
:103CC000992309F42EC09081982B98879081809534
:103CD00089238F838F818C8388E08B8358856F81C4
:103CE00049853B812C8189819A81508347FD252F0D
:103CF0003A952083262F39F0441F00C000006083CE
:103D0000000000C0F2CF38E04D91608300000197C1
:103D100061F7F093B409E093B30949873B832C839F
:103D200038C09081982B98879081809589238F83C4
:103D30008F818E8388E08D8358856F8149853D8191
:103D40002E8189819A81508347FD252F00C000C0B4
:103D5000208300C000C000C000C000C0608300001D
:103D6000262F3A9541F0441F000000C000C000C05B
:103D700000C000C0E8CF38E04D9100C0608300C0B3
:103D8000019709F7F093B409E093B30949873D839C
:103D90002E839A83898378940E94C71B6093AF090E
:103DA0007093B0098093B1099093B20929960FB628
:103DB000F894DEBF0FBECDBFDF91CF911F910F9161
:103DC000FF90EF90DF90CF9008951F93CF93DF93F4
:103DD0002150203118F587FF21C0D42F162FC82F6E
:103DE000622F682B80913C0890913D080E945B1BDC
:103DF000612F6F7780913C0890913D080E945B1B7A
:103E0000CF7EC03C59F06D2F6F7780913C08909128
:103E10003D08DF91CF911F910C945B1BDF91CF91F7
:103E20001F91089590E0FC013197EF30F105B0F556
:103E3000EA5AFF4F0C945C32809180008F7703C068
:103E4000809180008F7D8093800008958091800014
:103E5000877FF9CF84B58F7702C084B58F7D84BD0D
:103E60000895809190008F7707C0809190008F7D9A
:103E700003C080919000877F809390000895809187
:103E8000C0008F7703C08091C0008F7D8093C000F9
:103E900008958091C200877F8093C20008951F9388
:103EA000CF93DF93282F30E0F901EA56FE4F84913B
:103EB000F901EB5EF14FD491F901EE5BF14FC49142
:103EC000CC23C1F0162F81110E94121FEC2FF0E0BD
:103ED000EE0FFF1FEC5CF14FA591B4919FB7F894E2
:103EE000111104C08C91D095D82302C0EC91DE2B27
:103EF000DC939FBFDF91CF911F910895CF93DF9304
:103F000090E0FC01EB5EF14F2491FC01EE5BF14F80
:103F10008491882361F190E0880F991FFC01E85794
:103F2000FE4FC591D491FC01EC5CF14FA591B49189
:103F3000611109C09FB7F8948881209582238883F6
:103F4000EC912E230BC0623061F49FB7F894888106
:103F5000322F309583238883EC912E2B2C939FBF97
:103F600006C08FB7F894E8812E2B28838FBFDF918E
:103F7000CF910895823108F08251E82FF0E0E458A3
:103F8000FE4FE49180917B00E3FB222720F930E093
:103F900095E0220F331F9A95E1F78F7D282B209310
:103FA0007B00E770E064E0937C0080917A0080649D
:103FB00080937A0080917A0086FDFCCF8091780012
:103FC0002091790090E0922B08958F929F92AF926A
:103FD000BF92CF92DF92EF92FF926B017C010E9421
:103FE000C71B4B015C01C114D104E104F104F1F0E1
:103FF0000E94C71BDC01CB0188199909AA09BB09DA
:10400000883E9340A105B10570F321E0C21AD108A2
:10401000E108F10888EE880E83E0981EA11CB11C0F
:10402000C114D104E104F10419F7DDCFFF90EF9042
:10403000DF90CF90BF90AF909F908F9008952FB753
:10404000F89460912B0770912C0780912D07909127
:104050002E072FBF0895682F616080E00E943A21EB
:104060000E941F20709385096093840983E10E9458
:10407000171C8770B9F48091810990918209892B6E
:10408000A9F30E941F202091840930918509621BA9
:10409000730B80918109909182098617970730F7F9
:1040A00080E0089561E08BE00E943A2160E080E0CA
:1040B0000E943A2181E008959093C5098093C40934
:1040C000009741F0FC0124913196849190E0922B6D
:1040D000019721F081E08093BF0908951092BF09F4
:1040E0000895009769F0FC0101900020E9F73197ED
:1040F000AF01481B590BBC0180EA97E00C94AE124B
:1041000080E090E008950F93CF93DF93EC011B863E
:104110001A8660E40E9419180F8106950695069587
:1041200001504E81415020E060E0CE010E945018C5
:10413000DF91CF910F910895FF920F931F93CF932B
:10414000DF938C01F62ED42FC22F213059F038F096
:10415000223059F02330A9F485EB91E00DC08FE2B5
:104160009CE00AC089EE96E002C08FE29CE00E94CB
:104170005C20C093C70905C00E945C2081E0809349
:10418000C7096F2D86EB99E00E9431186D2F86EBE1
:1041900099E00E942118F801448155816081718164
:1041A00086EB99E0DF91CF911F910F91FF900C94D6
:1041B000760FFC01808191810C940933282F309176
:1041C0009F07313208F04AC080917B078111FCCFF4
:1041D00090919E0742E040937B0720937A072FEF50
:1041E000209379071092780730937707EEE7F7E08E
:1041F000A7E5B7E020E0321721F041914D932F5F02
:10420000FACF1092560720915607990F922B909350
:10421000560790915507913061F41092550790918F
:1042200056079093BB009091BC0093FDF8CF95EC9E
:1042300001C095EE9093BC0090917B079230E1F322
:10424000909179079F3F79F080917907803241F012
:1042500080917907803331F084E005C081E003C0AC
:1042600082E001C083E010927D0710929F071092B8
:104270007C0708951F93CF93DF93162FCFE7D9E0E4
:10428000998121E020937C0790939E0710927D07EF
:1042900010929F07682F80EF97E00E949816612F79
:1042A00080EF97E00E94981681E00E94DE208883CC
:1042B000DF91CF911F91089590917B079111FCCFD1
:1042C000613208F060E291E090937B0790937A0767
:1042D0002FEF2093790710927807260F2093770706
:1042E0009093560790915607880F892B8093560715
:1042F00080915507813061F41092550780915607DF
:104300008093BB008091BC0083FDF8CF85EC01C099
:1043100085EE8093BC0080917B078130E1F3809132
:104320007807861710F460917807E7E5F7E0A5E3D2
:10433000B7E080E0861721F091919D938F5FFACFCF
:10434000109234078093330708951F920F920FB68F
:104350000F9211242F933F938F939F93AF93BF930B
:1043600080912B0790912C07A0912D07B0912E07DB
:104370003091CD0923E0230F2D3720F40196A11DA4
:10438000B11D05C026E8230F0296A11DB11D209383
:10439000CD0980932B0790932C07A0932D07B09302
:1043A0002E0780912F0790913007A0913107B0918F
:1043B00032070196A11DB11D80932F0790933007FE
:1043C000A0933107B0933207BF91AF919F918F9126
:1043D0003F912F910F900FBE0F901F901895CF9384
:1043E000DF93CDB7DEB7C855D1090FB6F894DEBF5D
:1043F0000FBECDBF789484B5826084BD84B58160E2
:1044000084BD85B5826085BD85B5816085BD80919F
:104410006E00816080936E00109281008091810017
:10442000826080938100809181008160809381000F
:1044300080918000816080938000809191008260F3
:104440008093910080919100816080939100809190
:1044500090008160809390008091C100846080937F
:10446000C1008091C10082608093C1008091C10031
:1044700081608093C1008091C30081608093C300FC
:104480008091C00082608093C0008091C2008160F2
:104490008093C20080917A00846080937A0080913A
:1044A0007A00826080937A0080917A0081608093A4
:1044B0007A0080917A00806880937A0010922C05AF
:1044C00010922B0510922A058091D700816080936D
:1044D000D70080EA8093D80089B5806189BD89B50D
:1044E000826089BD09B400FEFDCF61E070E080E02C
:1044F00090E00E94E51F8091D8008F7C80618093BE
:10450000D8008091E000807F8093E0008091E100FE
:104510008E7E8093E1008DE08093E200559A209A90
:1045200091E090930001E0913C08F0913D080190EA
:10453000F081E02DA089B18982E08C93A485B585B6
:104540001C92A685B7858FE38C93108EA489B589BC
:1045500086E08C93A289B3898C9180618C93A28927
:10456000B3898C9188608C93A289B3898C9180687F
:104570008C930288F389E02D80818F7D80839093D6
:104580003E081092400810923F081092470810927F
:10459000460810924508109244088FEF9FEF9093C1
:1045A00049088093480890934B0880934A080E94DA
:1045B0001F206093D4087093D5088093D6089093F9
:1045C000D7081092D10810924E0810924D08109200
:1045D0004F08109250081092D3081092D208809180
:1045E0004C0881708260816080934C088091A6099C
:1045F0009091A70997FD08C061E00E947E1F60E0CE
:104600008091A6090E944F1F81E08093A1096091CB
:10461000A809653121F12091A9093091AA096150B9
:1046200031F070E08FEF94E10E94343202C060E01C
:1046300070E0F9014091A4095091A509CF01821BB6
:10464000930B8417950740F44081469FC001479F14
:10465000900D11249193EECF85E18093A80910E08D
:1046600020E040E060E0812F0E9438091F5F143095
:10467000B9F70E94041E61E08CE00E947E1F61E099
:1046800086E00E947E1F60E085E00E947E1F60E061
:1046900086E00E944F1F61E08CE00E944F1F0E9445
:1046A000BA0860937F05709380058093810590938D
:1046B00082050BE413E0F801F0800E5F1F4F61E00C
:1046C0008F2D0E947E1F60E08F2D0E944F1FF3E010
:1046D00003351F0781F710923407109233071092A9
:1046E0007D0710929F0710927B0781E080937A07E5
:1046F0001092550761E082E00E944F1F61E083E065
:104700000E944F1F8091B9008E7F8093B9008091E5
:10471000B9008D7F8093B90088E48093B80085E468
:104720008093BC008DE396E19093300580932F0534
:104730008EE396E190932E0580932D051092CA0981
:104740008CE38093C9091092B9008CE08093B80083
:104750001092BA091092BB09E3EEF0E085919491B2
:10476000E82EE5EEF0E0F490E6EEF0E0E491E09380
:10477000BC09E7EEF0E0E491E093BD09E8EEF0E07B
:10478000E491E093BE098C01802F8E198F1548F4B7
:10479000F801649186EB99E00E9419180F5F1F4F92
:1047A000F3CF86EB99E00E94832084EF91E0909311
:1047B00082098093810980EC0E94171C8E3EB1F023
:1047C00086EB99E00E94832063EC73E0CE010196B2
:1047D0000E943D1121E040E060E0CE0101960E9480
:1047E0009C20CE0101960E94D9201EC489E80E9417
:1047F000171C682F616089E80E943A2160E088E810
:104800000E943A2161E080E80E943A2161E08FEF46
:104810000E943A2160E080E00E943A2181E90E94F2
:10482000171C8093860961E080E00E943A2160E0D5
:104830008FEF0E943A2160E080E80E943A2180E6F2
:104840000E94171C682F626180E60E943A2160E294
:1048500070E084E40E94391C6FEF81E00E943A21ED
:1048600061E080E80E943A2161E08FEF0E943A21E6
:1048700060E080E00E943A2166E08FEF0E943A21DA
:1048800083E80E94171C682F646083E80E943A2125
:1048900067E08FEF0E943A2161E081E80E943A21AF
:1048A00061E080E80E943A216BE684E90E943A21A7
:1048B00060E083E80E943A210E941F2070938509DE
:1048C0006093840983E80E94171C811116C08091AF
:1048D000810990918209892BA9F30E941F202091C0
:1048E000840930918509621B730B80918109909135
:1048F00082098617970730F763CF61E083E80E944B
:104900003A2182E90E94171CD82EF82FFF77EF2E4C
:1049100060E081E80E943A2166E08FEF0E943A2130
:1049200083E80E94171C682F6B7F83E80E943A215E
:1049300061E08FEF0E943A2161E080E00E943A211D
:1049400060E08FEF0E943A2160E080E80E943A2107
:104950008091800991E090937C0780939E0710924C
:104960007D0710929F0760EB80EF97E00E949816FA
:1049700081E00E94DE2080937F0966E080918009BB
:104980000E945C218E01055B1F4F580197E0F92EB4
:10499000FA94FF2041F080EF97E00E944F16F50156
:1049A00081935F01F5CF61E08FEF0E943A2160E0D3
:1049B0008FE40E943A216CE28EE40E943A2160E08A
:1049C0008FEF0E943A2164EB86EB0E943A21D7FEDA
:1049D00002C06CE001C060E090E080E041E050E0A7
:1049E000282F269526952695782F7770F801E20FC7
:1049F000F11D861710F09E110AC09A0101C0220F06
:104A00007A95EAF7209530812323208309C02081FD
:104A100030E002C0359527957A95E2F720FD9F5F3B
:104A20008F5F8033E9F68091800991E090937C0755
:104A300080939E0710927D0710929F0760EB80EF96
:104A400097E00E94981687E0F82EFA94FF2041F034
:104A5000F80161918F0180EF97E00E949816F5CFE1
:104A600081E00E94DE2080937F0961E08FEF0E9449
:104A70003A2160E080E00E943A2160E08FEF0E94DE
:104A80003A2160E089E00E943A2160E080E10E94E2
:104A90003A2160E081E10E943A2161E084E20E94D3
:104AA0003A216FEF85E20E943A2160E085E70E949B
:104AB0003A2161E08FEF0E943A216CE28EE40E947D
:104AC0003A2160E088E40E943A2160E280E30E949B
:104AD0003A2160E08FEF0E943A2169E080E30E9472
:104AE0003A2160E084E50E943A2164E081E30E947B
:104AF0003A2163E082E30E943A2163E880E40E9465
:104B00003A2165E286E40E943A2160E080E60E9454
:104B10003A2160E087E20E943A2166E080E50E9447
:104B20003A2160E081E50E943A2166E982E50E942F
:104B30003A2168E086E50E943A2160E387E50E9419
:104B40003A2160E081E60E943A2160E082E60E941C
:104B50003A2160E084E60E943A2160E085E60E9406
:104B60003A2160EA86E60E943A2161E08FEF0E94D6
:104B70003A2162E382E20E943A2164E187E40E94E2
:104B80003A216FEF89E40E943A2160E08AE40E94B2
:104B90003A2160E08FEF0E943A216AE08AE70E94A2
:104BA0003A2160E08BE70E943A2161E288E70E94A7
:104BB0003A2161E08FEF0E943A2164E383E20E9490
:104BC0003A2160E082E40E943A216FEF84E40E947F
:104BD0003A2166E285E40E943A2165E086E40E947B
:104BE0003A2160E480E40E943A2166E08EE00E946F
:104BF0003A216AE180E20E943A2160E483E40E9463
:104C00003A2160E08FEF0E943A2163E084E30E9442
:104C10003A2164E485E30E943A2161E08FEF0E942B
:104C20003A2164E081E30E943A2169E08BE40E942A
:104C30003A2165E08CE40E943A2164E08DE40E9410
:104C40003A2160E08FEF0E943A2160E084E40E9404
:104C50003A2160E285E40E943A2168E087E40E94FC
:104C60003A2168E288E40E943A2160E087E60E94E7
:104C70003A2164E080E70E943A2161E081E70E94E6
:104C80003A216EEF82E70E943A2160E086E70E94B7
:104C90003A2160E087E70E943A2161E08FEF0E94AD
:104CA0003A2161E08DE00E943A2160E08FEF0E949E
:104CB0003A2161E080E80E943A2168EF81E00E9499
:104CC0003A2161E08FEF0E943A2161E08EE80E9474
:104CD0003A2161E080E00E943A2160E08FEF0E947B
:104CE0003A2160E080E80E943A2164E08AE00E9474
:104CF0003A2184E80E94171C682F6F7E84E80E9486
:104D00003A2161E08BE00E943A21CE018F5A9F4FF9
:104D10000E94221DBE016F5F7F4FCE018F5A9F4FB1
:104D20000E94631C62968FAD6297882349F08B8541
:104D30009C85AD85BE858C57924FAF4FBF4F04C049
:104D400086E39BE0A0E0B0E064962FAD6497222359
:104D500069F04B855C856D857E854E545D4F6F4F48
:104D60007F4F440F551F661F771F0DC063962FADF1
:104D70006397222361F04B855C856D857E854C565B
:104D80005D4F6F4F7F4F840F951FA61FB71F65960E
:104D90002FAD6597222361F04F85588969897A89FB
:104DA0004C565D4F6F4F7F4F840F951FA61FB71F47
:104DB00066962FAD6697222361F04B895C896D89D9
:104DC0007E894A5D5D4F6F4F7F4F840F951FA61FF1
:104DD000B71F8093870990938809A0938909B0939E
:104DE0008A0968EE81E00E943A21C0908709D0903C
:104DF0008809E0908909F0908A09F0E2CF16FEE474
:104E0000DF06E104F10408F4D0C0CE018F5A9F4FB1
:104E10000E94221DBE016F5F7F4FCE018F5A9F4FB0
:104E20000E94631C62968FAD6297882349F08B8540
:104E30009C85AD85BE858C57924FAF4FBF4F04C048
:104E400086E39BE0A0E0B0E064962FAD6497222358
:104E500069F04B855C856D857E854E545D4F6F4F47
:104E60007F4F440F551F661F771F0DC063962FADF0
:104E70006397222361F04B855C856D857E854C565A
:104E80005D4F6F4F7F4F840F951FA61FB71F65960D
:104E90001FAD6597112361F04F85588969897A891B
:104EA0004C565D4F6F4F7F4F840F951FA61FB71F46
:104EB00066962FAD6697222309F477C02C013D0139
:104EC00026E2420E22E0521E611C711CC414D5045D
:104ED000E604F70408F469C0AB81B0E020E03FE2EB
:104EE0004AE350E00E94B9314B015C0134EF830E7C
:104EF00031E0931EA11CB11CA701960124193509AC
:104F000046095709A8EEB3E00E94B9312B013C01D4
:104F1000C501B40120ED37E040E050E00E940332CB
:104F2000420E531E641E751EC501B40128EE33E007
:104F300040E050E00E940332C301B2010E940332FC
:104F4000112331F08F819885280F391F411D511D84
:104F50002115310541055105D9F089019A0101500A
:104F600011092109310960E070E0D901C8018827E1
:104F7000892B8A2B8B2B39F036952795179507951A
:104F80006F5F7F4FF2CF762F6627602B712B02C0A9
:104F900060E070E081E70E94391CC0928709D092DE
:104FA0008809E0928909F0928A0961E081E00E9413
:104FB0003A2180E40E942B20882309F401CC62E08E
:104FC00081E00E943A2180E00E942B20882309F48E
:104FD000F7CB68EE81E00E943A2161E080E80E9410
:104FE0003A2161E08FEF0E943A2160E080E00E9468
:104FF0003A216091860981E90E943A2161E080E0CE
:105000000E943A2160E08FEF0E943A2160E080E840
:105010000E943A2162E080E00E943A2190910001D2
:10502000E1E0F1E080E001C0FFCF958786878F5FE8
:105030003F968532D1F765ED73E0CE0101960E946F
:105040003D1123E041E060E0CE0101960E949C20EA
:10505000CE0101960E94D92064EF71E080E090E0DB
:105060000E94E51F68EE73E0CE0101960E943D119B
:1050700020E043E060E0CE0101960E949C20CE013A
:1050800001960E94D92010E0812F0E94651B0E948A
:10509000041E62E070E080E090E00E94E51F1F5F68
:1050A0001F3F91F764EF73E0CE0101960E943D111E
:1050B00020E043E069E6CE0101960E949C20CE01EB
:1050C00001960E94D92068EE73E080E090E00E9493
:1050D000E51F8091FF078F5F0E94521186EB99E0D8
:1050E0000E9483201E0141E4240E311C44244A9472
:1050F00053E0552ECE01059669969FAF8EAF699706
:105100000E941F204B015C016093D1067093D20670
:105110008093D3069093D40647E8E42E45E0F42E1E
:1051200000E010E000FF02C061E001C060E088E044
:105130000E944F1F01FF02C061E001C060E089E0F2
:105140000E944F1F02FF02C061E001C060E08AE0E0
:105150000E944F1FC80133E0959587953A95E1F776
:10516000892B11F061E001C060E08BE00E944F1FCD
:1051700061E070E080E090E00E94E51F82E10E9423
:10518000BA1FF701819391937F0183E10E94BA1FB7
:10519000F701978F868F0F5F1F4F0031110511F6B2
:1051A0000E94BA0860937F05709380058093810503
:1051B00090938205C501B4010E9420080E941F201F
:1051C000709385096093840983E10E94171C87709E
:1051D000E1F48091810990918209892BA9F30E94C1
:1051E0001F202091840930918509621B730B8091E7
:1051F0008109909182098617970730F781E08093A3
:105200008309EE24EA94FE2C09C08EE10E94EC1B77
:105210008C0161E08BE00E943A21780187010654FD
:105220001109083EF3E01F0784F50115110569F126
:105230006091830570918405809185059091860524
:1052400028E030E040E050E00E949A31A7E0B0E072
:105250000E94B93117FF02C0095F1F4F23E0159567
:1052600007952A95E1F7012E000C220B330BDC0188
:10527000CB01800F911FA21FB31F809383059093D2
:105280008405A0938505B0938605809183091092CB
:1052900083098823B9F069EF73E0CE0101960E947B
:1052A0003D1121E040E060E0CE0101960E949C208B
:1052B000CE0101960E94D92064EF71E080E090E079
:1052C0000E94E51F27E633E0AE014F5F5F4F7A0192
:1052D000DE015996CA01F90141919F01E42FF0E0E6
:1052E000EE0FFF1FE957FA4F40815181FC014193B6
:1052F0005193CF01EA17FB0771F783E593E0FC01B7
:105300002191CF01E22FF0E0EE0FFF1FE957FA4F96
:10531000208131814FEF53E0421B530B4D935D933E
:105320002A163B0661F784E10E94BA1FF201E81BCE
:10533000F90BCF01F1019183808385E10E94BA1FAF
:105340009201281B390B25963FAF2EAF259786E19A
:105350000E94BA1FA201481B590B27965FAF4EAFA0
:10536000279787E10E94BA1FF201E81BF90B2996E3
:10537000FFAFEEAF29978091830590918405A091AE
:105380008505B0918605B7FD0CC08139F1E09F0716
:10539000A105B10524F080E991E0A0E0B0E09C0116
:1053A00002C020E030E0A1E0BCEF0E94623220E9C0
:1053B00031E040E050E00E949A31DA01C9018150A9
:1053C0009C4FAF4FBF4F2B969FAF8EAF2B9701E0F7
:1053D00011E0D12CCC24C394F8011482F70121915F
:1053E00031917F01F80180819181A901481B590BFE
:1053F000CA0157FF03C0919581959109409774F1B7
:10540000F80131832083A1E8BFEF0E9462322FEFC1
:1054100033E040E050E00E949A31CA01B90161587E
:105420007F4F8F4F9F4FF80173836283C4824585FE
:1054300086850E940F0AD0927E0580917B05882385
:1054400021F0F8018281858307C08091700588234F
:1054500029F0F80182818683C092CF06D394015F40
:105460001F4FF5E2DF12B8CF8091090881110CC0FF
:10547000809137058823D9F181E0809309088091D4
:105480007E058093100831C080910A08811137C0D1
:1054900080916E05882399F020910808422F50E0F2
:1054A00080910B0890E001974817590719F4109262
:1054B000080803C02F5F209308080E94710A80919A
:1054C0007905882359F080910808811102C08091E4
:1054D0000B088150809308080E94710A809137055B
:1054E000882329F081E080930A080E94710A0CE366
:1054F00015E0F12CCC24C394E9E0DE2E18C2809193
:105500000808813009F456C0C8F0843009F491C00D
:10551000853009F0E6C16EE274E0CE0101960E948A
:105520003D1121E041E060E0CE0101960E949C2007
:10553000CE0101960E94D92014E64AC180917905D6
:105540008823D9F0E09110082E2F30E04FE0E49F3F
:10555000F0011124EF5FFE4F8685882311F0815002
:1055600001C08FE79FE0929FF001939FF00D1124FF
:10557000EF5FFE4F86870E94710A80916E05882337
:1055800009F4AFC1E09110082E2F30E05FE0E59FF5
:10559000F0011124EF5FFE4F86858F5F87FD80E06D
:1055A0009FE0929FF001939FF00D1124EF5FFE4F5B
:1055B00086873CC0809179058823D9F0E091100856
:1055C0002E2F30E08FE0E89FF0011124EF5FFE4FB7
:1055D0008585882311F0815001C08FE09FE0929F64
:1055E000F001939FF00D1124EF5FFE4F85870E941D
:1055F000710A80916E05882309F473C1E091100847
:105600002E2F30E09FE0E99FF0011124EF5FFE4F65
:1056100085858F5F8F3008F080E09FE0929FF001DA
:10562000939FF00D1124EF5FFE4F85870E94710A52
:1056300058C16DE074E08E010F5F1F4FC8010E94DA
:105640003D1121E041E060E0C8010E949C20C801BA
:105650000E94D92074E6672E0E94BA0860937F05E5
:105660007093800580938105909382050E941F208E
:105670000E9420088091420581110CC080914D0547
:10568000811108C080915805811104C08091630583
:10569000882361F0ECE3F5E080E096819111682EBB
:1056A0008F5F3B968430C9F781E001C080E0909124
:1056B0003705911102C0882379F2E4E66E1609F4E9
:1056C00010C186EB99E00E948320662D70E06F5F29
:1056D0007F4FCE01855B9F4F0E94CC1D6EE174E031
:1056E000C8010E943D11BE01655B7F4FC8010E9449
:1056F000801DBC01CE018F5A9F4F0E94231121E0D3
:1057000040E064E1CE018F5A9F4F0E949C20CE0161
:105710008F5A9F4F0E94D920C8010E94D920CE01E4
:10572000855B9F4F0E94D920F4E96F9E30011124C0
:10573000601A710A61E0E62E61E0F62EC12CD12CD0
:10574000F7018585898386858A8385818B83868118
:105750008C834601860C971C5801F50161915F010D
:10576000C4018E0F9F1F0E948C3169962EAD3FADF4
:1057700069972A153B0589F73FE0E30EF11C44E0E9
:10578000C40ED11C54E9C516D104D1F664EF71E002
:1057900080E090E00E94E51FA4C080914D05882321
:1057A00051F1ECE3F5E080E096819111182F8F5FC5
:1057B0003B968430C9F701E062E370E080E090E05E
:1057C0000E94E51F8091370581111FC001111DC086
:1057D0000E94BA0860937F057093800580938105CD
:1057E000909382050E941F200E942008809142050C
:1057F0008111D7CFD2CF809158058111D2CF80911E
:1058000063058111CECF00E0D7CF143609F469C00B
:1058100086EB99E00E948320612F70E06F5F7F4FDD
:10582000CE01855B9F4F0E94CC1D6FE374E0CE01DB
:1058300001960E943D11BE01655B7F4FCE0101962E
:105840000E94801DBC01CE018F5A9F4F0E942311E0
:1058500023E040E06EE1CE018F5A9F4F0E949C20D2
:10586000CE018F5A9F4F0E94D920CE0101960E94EF
:10587000D920CE01855B9F4F0E94D92084E9189FD3
:105880003001112401E011E0E12CF12C4701860CDC
:10589000971CFE0131965F01CC24C394D12CC60124
:1058A000880D991D0E948431F50181935F01FFEFFE
:1058B000CF1ADF0A25E0C216D10489F78981F801E1
:1058C00085878A8186878B8185838C818683015F2A
:1058D0001F4FF4E0EF0EF11C24E9E216F104B1F6DB
:1058E00055CF80913705882321F010920A080E9435
:1058F000710A0E941F2000910C0810910D08209140
:105900000E0830910F08DC01CB01801B910BA20B1C
:10591000B30B89389341A105B10508F4E8CD109285
:10592000090810920A0881E08093CF06E0CDF801C3
:105930008681882309F444C08091090881113AC006
:10594000E0900001E3942E2D40E46F2D80E90E9449
:10595000E51ED9828E2D80698A83FB8280E48C8348
:105960008091FF0744E050E0BE016F5F7F4F8F5F83
:105970000E94151261E070E080E090E00E94E51F57
:10598000E0900001E3942E2D40E06F2D80E90E940D
:10599000E51ED9828E2D80698A83FB821C828091CC
:1059A000FF0744E050E0BE016F5F7F4F8F5F0E94B2
:1059B000151206C01092090810920A08C092CF066C
:1059C000F394055F1F4FF4E0FF12B1CF4CE2E42ED9
:1059D00043E0F42E01E011E0F8018481882321F1F5
:1059E0008580912CA12CB12C2681822F90E0A0E003
:1059F000B0E09C01AD01281939094A095B09A2816F
:105A0000B3810E94C4312FE730E040E050E00E94B3
:105A10009A31CA01B901680D791D8A1D9B1DF801D3
:105A2000458586850E940F0A015F1F4FE016F1062B
:105A300099F682EE98E00E94D10F892BC1F082EE98
:105A400098E00E94D10F892B51F082EE98E00E94DD
:105A5000AF0F682F82EE98E00E940810F0CF2FEF72
:105A600040E060E080E00E9438090E94041E8091BE
:105A7000C7069091C806A091C906B091CA06409188
:105A8000CB065091CC066091CD067091CE06841B5A
:105A9000950BA60BB70B8F739927AA27BB27892BCA
:105AA0008A2B8B2B09F05FC08091FF070E94F312B5
:105AB000882309F46CC0C090C706D090C806E09057
:105AC000C906F090CA06FFEFCF1ADF0AEF0AFF0AF5
:105AD0002FE3C222DD24EE24FF248091CB06909197
