:100000000C944F070C9477070C9477070C947707A0
:100010000C9477070C9477070C9477070C94770768
:100020000C9477070C9477070C9490140C94571643
:100030000C9477070C9477070C9477070C94770748
:100040000C9477070C9477070C9477070C94770738
:100050000C9477070C9477070C9477070C94F4248E
:100060000C9477070C94BB180C9495180C94770794
:100070000C9477070C9477070C9477070C94770708
:100080000C9477070C9477070C9477070C947707F8
:100090000C94251D0C9477070C9477070C94770724
:1000A0000C9477070C9477070C947707F02C3F2D6E
:1000B000972DD92DEB2DF82D752E550E990EB10ECD
:1000C000B40EBE0EC10EC40E951E9A1E9A1E911E2F
:1000D000951E9A1E9A1E9A1E9A1E9A1E951E951E6F
:1000E0009A1E911E6F1F721F611F651F6B1F931F4A
:1000F000931F931F761F7A1F7E1F841F881F931FD5
:100100008E1FAED580A81FD300408D142002A1C839
:10011000DA02817FD9F1DB40A4A6AF020119802069
:1001200000080B00020202010009040000010202A3
:100130000000052400100105240101010424020629
:100140000524060001070581031000400904010091
:10015000020A0000000705020240000007058302B2
:100160004000000403090412010002EF02014041B3
:1001700023368000010102030141726475696E6FCC
:10018000204C4C430041726475696E6F204C656F62
:100190006E6172646F0000030C0F30333C3FC0C3CC
:1001A000CCCFF0F3FCFF070605040100080A0B0C96
:1001B0000D0900000000240027002A002D00300057
:1001C000000000002300260029002C002F00000062
:1001D000000200090F0000030401000C00000000F1
:1001E0000000000000000000000000000022080DD8
:1001F0000E20600402050607080902030305080231
:100200000402040704070707070707070702020796
:100210000707080E09080808070709080207080762
:100220000B0809070909070808090D07080804044D
:100230000406080307070607070507070203060267
:100240000A0707070705060507070B060705050147
:100250000507080000000000000000FEFE18181E40
:100260001E001E1E000000000090F89E90F89E1CCC
:1002700000001C0000183C26FF66CC88040C183CCB
:10028000180C041C221CC0308E4080000018040092
:100290000C100C80CC7E72F2DE0C80000C1C101056
:1002A000101C0C1C101E1E0000F0FC061C7CC0065E
:1002B000FCF0C07C1C14140E14140000000000603C
:1002C0006060FCFC6060600000000C0C000000003E
:1002D000005838C0C0C0C00000000000001818005E
:1002E000C0380618040000F8FC0E060EFCF8040CDA
:1002F0001C181C0C04180CFEFE00001C1C181C868C
:10030000C6663E1C181C1C18181818888C06262651
:10031000FEDC040C1C18180C04C0E0B88CFEFE8037
:10032000040404041C1C04707E3E3636F6C60C1C05
:100330001818180C04F8FC6E6666EECC040C18183D
:10034000181C0C060606E6761E0600001C1C0000A3
:10035000009CFE666666FE9C0C1C1818181C0C3C63
:100360007E666666FCF80C1C18181C0C041818181D
:1003700018181858386060F0F098980C00000000C9
:1003800004040CD8D8D8D8D8D8D800000000000071
:10039000000C9898F0F060600C0404000000000865
:1003A0000C06C6E6763C180000001818000000E0B5
:1003B0003008C4F63A1A1AF2FA7E0408F00C3060DB
:1003C0004C9C98988C9C9C90484C2000C0F8BE8611
:1003D000BEF8C000181C04040404041C18FEFE66C9
:1003E000666666FEDC1C1C181818181C0CF8FC0E3F
:1003F00006060E9C08040C1C18181C0C04FEFE06B5
:1004000006060EFCF81C1C1818181C0C04FEFE66D0
:10041000666666661C1C1818181818FEFE66666666
:1004200066061C1C0000000000F8FC0E0606C6CE86
:10043000DCC8040C1C181818180C04FEFE60606060
:1004400060FEFE1C1C000000001C1CFEFE1C1C802C
:1004500080000000FEFE0C1C1818181C0CFEFE602C
:100460003078EC86021C1C000000041C18FEFE0004
:10047000000000001C1C1818181818FEFE0E7CE066
:1004800000E07C0EFEFE1C1C00000C1C0C00001C7E
:100490001CFEFE1C78E080FEFE1C1C0000040C1CF0
:1004A0001CF8FC0E0606060EFCF8040C1C181818A6
:1004B0001C0C04FEFE6666667E3C1C1C00000000F0
:1004C00000F8FC0E0686060EFCF8040C1C18181C1E
:1004D0000C1C24FEFE6666E6E6BE1C001C1C00002A
:1004E000000C1C18103C7E666666EECC0C1C1818BE
:1004F000181C0C060606FEFE0606060000001C1C64
:10050000000000FEFE00000000FEFE040C1C181897
:100510001C0C04021EFCE000E0FC1E020000001C9B
:100520001C1C00000006FEF800F0FE0EFEF000F8B5
:10053000FE0600001C1C1C0000001C1C1C00000609
:100540000EF8F0F80E06181C0400041C18060E38ED
:10055000F0F0380E060000001C1C000000060686A5
:10056000E6761E0E06181C1C1818181818FEFE0633
:1005700006FCFCC0C00638C000000004180606FED9
:10058000FEC0C0FCFC20380E0E3820000000000029
:1005900000000000000000000080808080808080DB
:1005A000800206040000001098D858F8F0000C1CD7
:1005B00018180C1C10FEFE301838F0E01C1C0C182B
:1005C0001C0C04E0F018183830040C18181C0CE04F
:1005D000F0381830FEFE040C1C180C1C1CE0F0D87F
:1005E000D8D8F0E0040C181818180818FCFE1A1ACD
:1005F000001C1C0000E0F0381830F8F864ECDCD87F
:10060000CCFC7CFEFE301818F8F01C1C0000001C0E
:100610001CFAFA1C1C00FAFAC0FC7CFEFEE0F09802
:10062000081C1C00041C18FEFE1C1CF8F81018F80E
:10063000F01818F8F01C1C00001C1C00001C1CF812
:10064000F8301818F8F01C1C0000001C1CE0F038F2
:100650001838F0E0040C1C181C0C04F8F83018389A
:10066000F0E0FCFC0C181C0C04E0F0381830F8F832
:10067000040C1C180CFCFCF8F83018181C1C0000AA
:100680000070F8D8D8D890081818181C0C18FCFE60
:100690001818000C1C1818F8F8000000F8F80C1CCA
:1006A00018180C1C1C38F8C000C0F83800001C1CBE
:1006B0001C000018F8E000F038F000E0F818000026
:1006C0001C1C0C000C1C1C00001838E0E03818182A
:1006D0001C04041C1818F8E000E0F8180084FCF86A
:1006E0003C04001898D878381C1C18181880FC7E18
:1006F0000606007CFCC0C0FEFC06067EFC80C0C076
:10070000FC7C006030307060603000000000000051
:1007100000FE020202020202FE1C10101010101055
:100720001C0000070E206000000000000000000018
:1007300000000000000000FC0000000000000D00B0
:10074000000000003C003C00000000000000000031
:100750000020F82020F820000107010107010060B7
:1007600090F89010000004040F040300001824986F
:1007700060100C000C02010609060030C8C83000E9
:1007800000000708080906090000003C00000000FE
:10079000000000000000000000E01804020000005B
:1007A000030C102000020418E000000020100C03CD
:1007B00000000080A0C0C0A0800000020101020073
:1007C00000808080F0808080000000070000000032
:1007D00000000000000020180C0400000080808051
:1007E0008080800000000000000000000000000089
:1007F000000000081C0800000000008060180600CF
:1008000018060100000000F008844408F00003040A
:100810000808040300201008FC0000000000000F7E
:10082000000000180404844438000C0A0908080871
:10083000000804444444B80006080808080700807B
:10084000601804FC0000010101010F01007C242458
:100850002424C40006080808080700F88444444417
:10086000880007080808080700040404C4340C00C2
:10087000000C0300000000B844444444B8000708DA
:1008800008080807007884848444F80004080808ED
:100890000807000020702000000000081C0800006D
:1008A000000020702000000020180C0400000080D0
:1008B00040201008000000010204080000404040F1
:1008C00040404000020202020202000008102040E4
:1008D0008000000804020100000484442418000081
:1008E000000D0000000000F008C42424F8000304F8
:1008F000090A0A0300F884848484F8000F000000C9
:10090000000F00FC4444447880000F0808080807E2
:1009100000F804040404180007080808080600FC8E
:1009200004040408F0000F080808040300FC444411
:10093000444404000F080808080800FC44444444E8
:1009400004000F000000000000F8040484849800F4
:1009500007080808080700FC40404040FC000F0062
:100960000000000F000404FC0404000008080F0845
:100970000800000000040404FC000608080808073A
:1009800000FC4020D00804000F000000030C00FC15
:100990000000000000000F080808080800FC1860AC
:1009A000806018FC0F00000100000FFC1860800040
:1009B000FC000F000001060F00F804040404F80016
:1009C00007080808080700FC8484848478000F0066
:1009D0000000000000F804040404F8000708080EF2
:1009E000181700FC8484848478000F000102040836
:1009F00000384444848408000408080808070004F8
:100A00000404FC0404040000000F000000FC0000CB
:100A10000000FC0007080808080700FC00000000B0
:100A2000FC0000030C0C030000FC0000C00000FCF4
:100A3000030C0300030C030C30C0C0300C000C038B
:100A40000000030C003C408080403C000000000F90
:100A500000000004048444340C000C0A090808084F
:100A6000000000FE0202020000003F2020200006DD
:100A70001860800000000000000106180002020259
:100A8000FE0000002020203F0000001008040408A1
:100A90001000000000000000000000000000000046
:100AA0002020202020200000040C1820000000003E
:100AB000000000000000A0A0A0A0C00007080808D7
:100AC000040F00FC40202020C0000F040808080785
:100AD00000C020202020400007080808080400C0AB
:100AE00020202040FC0007080808040F00C0202038
:100AF0002020C0000709090909090080F8848484BE
:100B00000800000F0000000000C020202040E0008E
:100B100023444444423F00FC40202020C0000F00FA
:100B20000000000F00002020EC0000000000000F7B
:100B300000000000002020EC0000102020201F00FA
:100B400000FC0080402000000F01010204080000AA
:100B5000FC000000000000070808080000E020205A
:100B6000C02020C00F00000300000FE04020202024
:100B7000C0000F000000000F00C020202020C00097
:100B800007080808080700E040202020C0007F0276
:100B90000404040300C020202040E00003040404F7
:100BA000027F00E04020202040000F0000000000F5
:100BB00000C0202020204000040909090906002067
:100BC000F8202020000000070808080400E00000CA
:100BD0000000E00007080808040F00E00000000023
:100BE000E00000030C0C030000E00000800000E0C7
:100BF0000708040304080720408080402000080400
:100C00000202040800E000000000E0002344444425
:100C1000423F0020202020A06000080C0A0908089C
:100C2000000080807C0202000000001F20200000E5
:100C300000FE0000000000001F0000000002027C17
:100C40008080000020201F000000003008081020D5
:100C5000201800000000000000FEFEFEFEFEFEFE6A
:100C60007F7F7F7F7F7F7F0000050720600000007F
:100C7000000000005F00000003000300143E143E6B
:100C800014242A7F2A1243330866613649552250BC
:100C90000005030000001C2241000041221C00143A
:100CA000083E081408083E080800503000000808F4
:100CB000080808006060000020100804023E514946
:100CC000453E0004027F00426151494622414949A4
:100CD000361814127F1027454545393E4949493297
:100CE00001017109073649494936264949493E00FB
:100CF0003636000000563600000814224100141455
:100D0000141414004122140802015109063E4159ED
:100D1000555E7E0909097E7F494949363E41414178
:100D2000227F4141413E7F494949417F09090901EB
:100D30003E4141493A7F0808087F00417F41003029
:100D40004040403F7F081422417F404040407F02A6
:100D50000C027F7F0204087F3E4141413E7F09092A
:100D600009061E2121215E7F090909762649494984
:100D70003201017F01013F4040403F1F2040201FC2
:100D80007F2010207F41221C224107087008076144
:100D900051494543007F4100000204081020000033
:100DA000417F000402010204404040404000010233
:100DB000040020545454787F444444383844444414
:100DC00044384444447F385454541804047E050580
:100DD000085454543C7F0804047800447D400020AB
:100DE00040443D007F1028440000417F40007C04C7
:100DF0007804787C0804047838444444387C14141B
:100E00001408081414147C007C0804044854545436
:100E10002004043F44443C4040207C1C2040201CD3
:100E20003C4030403C44281028440C5050503C4436
:100E300064544C44000836414100007F00004141A9
:100E400036080002010204027F7F7F7F7F040802D0
:100E50000110408040102040804080080204018042
:100E600040201002011080102040402000000000AF
:100E7000250028002B002E00310004040404040384
:100E8000040502020202040302020202060606062A
:100E9000060604040202020404003F30FA2F112463
:100EA0001FBECFEFDAE0DEBFCDBF14E0A0E0B1E0BF
:100EB000E2EDFAE602C005900D92AA3EB107D9F71D
:100EC00028E0AAEEB4E001C01D92AC3DB207E1F704
:100ED00017E0CEE4D7E004C02197FE010E945A3308
:100EE000CD34D107C9F70E943E250C945C350C9493
:100EF000000080E00895FC0182818F5BFB0180830C
:100F000081E008950F931F93CF93DF93EC018B0142
:100F1000288139814A815B81A7E0B0E00E94AB3231
:100F200028E030E040E050E00E948C32C801110F10
:100F3000AA0BBB0B820F931FA41FB51F8883998335
:100F4000AA83BB831986AC01BD0133E07695679512
:100F5000579547953A95D1F78E819F81092E000CC0
:100F6000AA0BBB0B8A019B01081B190B2A0B3B0B1D
:100F7000D901C80137FF07C0B095A095909581951C
:100F80009F4FAF4FBF4F0997A105B10574F05F8325
:100F90004E83DB01CA0123E0B595A7959795879508
:100FA0002A95D1F7888781E08987DF91CF911F91BA
:100FB0000F9108958F929F92AF92BF92CF92DF923E
:100FC000EF92FF920F931F93FC01118612861682F7
:100FD00017826083808561110BC0811120C011824E
:100FE00081E08087868322833383448355831AC0BC
:100FF0008823A9F0108681E08783C280D380E480B3
:10100000F58049015A018C189D08AE08BF080CE212
:10101000801601E09006A104B1040CF4818781815F
:10102000811117C080858823A1F082819381A481DA
:10103000B58149015A01881A990AAA0ABB0A05EF23
:10104000801601E09006A104B1041CF081E08287C3
:1010500081831F910F91FF90EF90DF90CF90BF9011
:10106000AF909F908F900895FC016093BC00809199
:10107000BC0087FFFCCF9091B900987F90830895C2
:10108000CF92DF92EF92FF920F931F93CF93DF9354
:10109000EC01C62ED42E8C89882351F0411108C052
:1010A00084E98093BC008091BC0084FDFCCF1C8A45
:1010B000EC888E010E5E1F4FE11014C0FB8864EABD
:1010C000C8010E9434088A89883011F1803101F109
:1010D000DD2011F080E4E82EE092BB0064E8C80156
:1010E0000E943408C092BB0064E8C8010E94340822
:1010F00082E0D81204C08C898F5F8C8B11C084E988
:101100008093BC008091BC0084FDFCCF1C8A08C089
:10111000FF0CF092BB0064E8C8010E943408D8CFED
:10112000DF91CF911F910F91FF90EF90DF90CF90C3
:101130000895089580E090E00895EF92FF920F9354
:101140001F93CF93DF9300D000D0CDB7DEB7182F19
:101150000E94E31EFC0117FF0AC0183F09F470C08B
:101160001A3F08F474C01D3F09F06AC070C080893E
:1011700021E0280F208BDF01A80FB11D1D961C93C5
:101180008189882361F0233009F0AEC082858460B4
:10119000898385858A8386858B8387853DC09485F1
:1011A000892F807F803B59F168F4803841F120F429
:1011B000882309F443C098C0803909F1803A09F0C6
:1011C00093C01DC0803D51F118F4803C39F18CC0B2
:1011D000803EA9F0803F09F087C0892F8F70823050
:1011E00041F0833019F0813009F07EC08285826041
:1011F0001DC0223009F078C08285836008C022308B
:1012000009F072C0292F22952F708285822B898345
:101210009A8385858B8386858C830DC0213009F068
:1012200063C0292F22952F708285822B89839A8310
:1012300085858B831C82108A4EC01487108A54C007
:1012400082858F6089831A831B821C8244C08CE054
:10125000810F833030F48285856089831A831B82F5
:10126000E9CF103F29F481E0818B1587808B3CC04A
:10127000173F19F7808961E0680F608BDF01A80FC5
:10128000B11D1D961C938B5F9285892B8983AF01BD
:10129000435F5F4F9E012F5F3F4F7901862F90E0A4
:1012A0008701021B130B0817190750F4DA018D91FF
:1012B000AD01D70111968C93BFEFEB1AFB0AEECF6D
:1012C00001968430910529F0D901A80FB91F1C920D
:1012D000F7CF118AB0CF838144E050E0BE016F5F49
:1012E0007F4F8F5F0E94491581E090E00F900F9033
:1012F0000F900F90DF91CF911F910F91FF90EF9082
:101300000895DC018D919C91DC01ED91FC9101909F
:10131000F081E02D09946F927F928F929F92AF920D
:10132000BF92CF92DF92EF92FF920F931F93CF93D2
:10133000DF9300D000D0CDB7DEB7682E8FEF93E0FB
:101340000E947632681629F0662D8FEF93E00E9496
:101350007E3201E011E084E9689E30011124E12C25
:10136000F12C43018E0C9F1CFE0131965F01CC24B1
:10137000C394D12CC601880D991D0E947632F501C7
:1013800081935F01FFEFCF1ADF0A85E0C816D10411
:1013900089F78981F80184878A8185878B81828793
:1013A0008C818387025F1F4FF4E0EF0EF11C84E90C
:1013B000E816F104B1F60F900F900F900F90DF91A7
:1013C000CF911F910F91FF90EF90DF90CF90BF9042
:1013D000AF909F908F907F906F9008952F923F9243
:1013E0004F925F926F927F928F929F92AF92BF9235
:1013F000CF92DF92EF92FF920F931F93CF93DF93E1
:1014000000D000D01F92CDB7DEB7F82E8FEF93E05B
:101410000E947632F81629F06F2D8FEF93E00E942C
:101420007E3201E011E0CE0101963C01E4E9FE9E2E
:10143000C00111241C0126183708E12CF12C2E01C3
:10144000F5E04F0E511CF8018485898385858A83D8
:1014500082858B8383858C834701820C931C630177
:10146000F60121916F012D835F01A80CB91CC50104
:101470000E9476329D81981721F0692FC5010E9444
:101480007E324C145D0461F7025F1F4FE4E0EE0E04
:10149000F11CF4E9EF16F104B1F60F900F900F90E4
:1014A0000F900F90DF91CF911F910F91FF90EF90D0
:1014B000DF90CF90BF90AF909F908F907F906F9074
:1014C0005F904F903F902F900895CF92DF92EF92D0
:1014D000FF920F931F93CF93DF938DE4E82E85E067
:1014E000F82EC1E0D1E08E01CC24CA9493E0D92E2D
:1014F000F701819191917F01B601681B790BC801B9
:101500000E948207025F1F4FF2E0013C1F0781F734
:1015100084E10E940A23BC0181EC92E00E948207D0
:1015200085E10E940A23BC018FEC92E00E948207B1
:1015300086E10E940A23BC018DED92E00E948207A1
:1015400087E10E940A23BC018BEE92E00E94820791
:1015500030913B054091300590913E0520913F052B
:1015600080E059855523D9F0281314C0332341F066
:101570009885953708F095E79A879887932F0FC03D
:10158000442369F098859A3008F49AE09B879887FD
:10159000942F05C0411103C0311101C0282F8F5F66
:1015A0002E968532F1F690933E0520933F05DF910C
:1015B000CF911F910F91FF90EF90DF90CF90089502
:1015C000EF92FF920F931F93CF93DF930DE415E0FB
:1015D000C0E0D0E033E2E32EF12CC0FF02C061E0B6
:1015E00001C060E088E00E949F22C1FF02C061E06C
:1015F00001C060E089E00E949F22C2FF02C061E05A
:1016000001C060E08AE00E949F22CE0123E0959510
:1016100087952A95E1F7892B11F061E001C060E020
:101620008BE00E949F22C7010197F1F782E10E949F
:101630000A23F801819391938F0183E10E940A2389
:10164000F801978F868F2196C031D10531F6DF9151
:10165000CF911F910F91FF90EF900895CF92DF925D
:10166000EF92FF920F931F93CF93DF9360E08CE094
:101670000E949F2283E090E00197F1F761E08CE007
:101680000E949F22C7E0D0E0C12CD12C760103E05C
:1016900010E085E00E947622092E000CAA0BBB0BFD
:1016A0000C2E04C0880F991FAA1FBB1F0A94D2F7E3
:1016B000C82AD92AEA2AFB2A61E086E00E949F22F2
:1016C000C8010197F1F760E086E00E949F22219710
:1016D00000F7C701B601DF91CF911F910F91FF90E5
:1016E000EF90DF90CF9008950F931F9340914005A6
:1016F0005091410560914205709143058A019B011B
:1017000004C036952795179507958A95D2F7D90184
:10171000C80181701F910F910895CF92DF92EF92CF
:10172000FF926B017C0184E00E94740BA70196017B
:10173000682F83E395E00E94DA0785E00E94740B2E
:10174000A7019601682F88E295E00E94DA0786E0FB
:101750000E94740BA7019601682F81EF94E00E940C
:10176000DA0780E00E94740BA7019601682F8CEFC6
:1017700094E00E94DA0781E00E94740BA7019601B1
:10178000682F87E095E00E94DA0782E00E94740BE0
:10179000A7019601682F82E195E00E94DA0783E0B5
:1017A0000E94740BA7019601682F8DE195E0FF90D0
:1017B000EF90DF90CF900C94DA076F927F928F9228
:1017C0009F92AF92BF92CF92DF92EF92FF920F93D0
:1017D0001F93CF93DF9390EC699FB0011124672F83
:1017E000770F770B6B01FFE1CF22DD24A3E0CC0C58
:1017F000DD1CAA95E1F7822E912CC42FD0E0EE24B7
:10180000EA94F12C87010C1B1D0B089DD001099D4A
:10181000B00D189DB00D11244B2FCC9E5001CD9EC4
:10182000B00CDC9EB00C1124AB2CBB2400E011E00A
:1018300038016A187B08689C5001699CB00C789C40
:10184000B00C1124EC18FD08EC9E6001ED9ED00C4C
:10185000FC9ED00C1124CD2CDD240C191D09089DF3
:10186000E001099DD00D189DD00D1124629566955B
:101870006770623091F038F4662369F06130D9F412
:10188000522FEB2D19C0643081F058F0653099F477
:101890005B2F4B2D0EC05D2F0CC0522FEB2F4D2F09
:1018A0000BC05B2DEB2F422F07C05B2F422FED2F7C
:1018B00003C0E22F01C040E0682F70E02091AC0827
:1018C0003091AD086217730708F03FC02091B2084D
:1018D000222361F0E29FF0011124EF2F259FD00118
:1018E00011245B2F249F90011124432FF091B808FD
:1018F0009091B5082091B3083091B408F91308C04D
:10190000B901F3E08F9F600D711D1124CB010BC055
:10191000CB01880F991F880F991F820F931FDC013D
:10192000AF0FB11D1C922091B508DC01A20FB11DB3
:10193000EC932091B608FC01E20FF11D5083209139
:10194000B708FC01E20FF11D4083DF91CF911F9199
:101950000F91FF90EF90DF90CF90BF90AF909F904E
:101960008F907F906F900895CF92DF92FF920F93A8
:101970001F93CF93DF93F82EE1E0F1E0C7E0D3E0CF
:1019800020E030E046E0CC24CA94D12C8085642F3E
:101990000E942633B901680F711DCB010FEF10E0D3
:1019A000B6010E9446339C013E96CE17DF0771F7C1
:1019B000C296B8010E944633EC012F2D4FEF682FDD
:1019C00080E00E94DD0BCE010A96B8010E944633EA
:1019D0002F2D4FEF682F83E00E94DD0BCE014E9636
:1019E000B8010E9446332F2D4FEF682F82E00E94EE
:1019F000DD0BCE018896B8010E9446332F2D4FEFA4
:101A0000682F81E0DF91CF911F910F91FF90DF90C0
:101A1000CF900C94DD0BCF93DF93EC0181E08A83B0
:101A20000E947523798368832FEF40E060E08B810B
:101A3000DF91CF910C94DD0BCF9385EF97E00E945F
:101A40000513892BA9F085EF97E00E94E312C82FB8
:101A50000E949D086C2F85EF97E00E943C1386EA58
:101A600098E00E940B0D82EA98E00E940B0DE5CFF2
:101A70000E94E31EFC0183818F5FCF910C9486143A
:101A8000CF93DF930E94E31EEC010E94531EFE01E0
:101A9000EE5AFF4FCD5ADF4F90818881981791F011
:101AA0000E94E31E0E945822682F85EF97E00E9453
:101AB0003C138EE998E00E940B0D82EA98E00E94A8
:101AC0000B0DE0CF85EF97E0DF91CF910C94881359
:101AD0008F929F92AF92BF92CF92DF92EF92FF923E
:101AE0006C010E9475234B015C010D2C000CEE086B
:101AF000FF080E947523DC01CB0188199909AA0906
:101B0000BB098C159D05AE05BF0548F40E94E31E78
:101B10000E94531E0E94400D0E941C0DEACFFF90B0
:101B2000EF90DF90CF90BF90AF909F908F900895EF
:101B30000E94E31E0E94531E0E94400D0C941C0D37
:101B400087E00E947622892B21F48EE998E00C949C
:101B50000B0D0895FF920F931F93CF93DF93D82F10
:101B6000F62EC42F0E94A00D11E01C0FDF770F2D61
:101B70000F77C031B0F46C2F606980914F0790915E
:101B800050070E9481096D2F80914F079091500757
:101B90000E948109602F80914F07909150070E9409
:101BA0008109F11002C080E801C080E91F70812B1B
:101BB0000E949D088D2F0E949D08802FDF91CF915C
:101BC0001F910F91FF900C949D08CF93DF93FC0120
:101BD00022812223C1F0EC010E94752328813981E2
:101BE000DC01CB01821B930BA109B1094097A10530
:101BF000B10508F01A822FEF40E060E08B81DF91A1
:101C0000CF910C94DD0BDF91CF910895EF92FF926D
:101C10000F931F93CF93DF93CDB7DEB768970FB6BF
:101C2000F894DEBF0FBECDBF0E94752360931F07DF
:101C300070932007809321079093220780EC98E00F
:101C40000E94C62480911E078111AEC065EF73E02B
:101C5000CE0101960E94711420E040E060E0CE01C8
:101C600001960E94B91FCE0101960E94EE206BE002
:101C700074E0CE0101960E94711420E043E060E020
:101C8000CE0101960E94B91FCE0101960E94EE205E
:101C9000E0911C078E2F90E08730910508F0CBC1B2
:101CA000FC01E35AFF4F0C945A33E09123078EE076
:101CB000E89FF0011124EF5FFE4F6585CE010D9680
:101CC0000E94062160912307CE0107960E940621FB
:101CD00060E274E0CE0101960E947114BE01695F5A
:101CE0007F4FCE0101960E94F3206AE274E00E94C9
:101CF0001D14BE01635F7F4F0E94F320BC01CE0123
:101D000043960E94571421E041E060E0CE014396E3
:101D10000E94B91FCE0143960E94EE20CE0101968B
:101D20000E94EE20CE0107960E94EE20CE010D9675
:101D300080C160912307CE0107960E94062160E2D0
:101D400074E0CE0101960E947114BE01695F7F4F5D
:101D5000CE0101960E94F3206FE274E00E941D14F0
:101D600052C164E374E002C065E474E0CE01019600
:101D70000E94711421E041E060E00FC065E574E06D
:101D8000F5CF67E674E002C063E774E0CE01019628
:101D90000E94711421E041E064E1CE0101960E94AD
:101DA000B91FCE01019645C16FE774E0CE010196DF
:101DB0000E94711420E040E060E0CE0101960E9494
:101DC000B91FCE0101960E94EE2066E974E0CE01B3
:101DD00001960E94711420E043E060E0CE0101967C
:101DE0000E94B91FCE0101960E94EE2080911C072F
:101DF000813009F490C0B8F0823009F01CC16091C4
:101E00002407CE0107960E94062167EC74E0CE01FC
:101E100001960E947114BE01695F7F4FCE01019649
:101E20000E94F320F0C0E0912307AEE0EA9FF001AA
:101E30001124EF5FFE4F6585CE010D960E940621AD
:101E400060912307CE0107960E94062164E274E0A8
:101E5000CE0101960E947114BE01695F7F4FCE01D1
:101E600001960E94F3206BEA74E00E941D14BE01EB
:101E7000635F7F4F0E94F320BC01CE0143960E9416
:101E8000571421E041E060E0CE0143960E94B91F63
:101E9000CE0143960E94EE20CE0101960E94EE20D4
:101EA000CE0107960E94EE20CE010D960E94EE20F4
:101EB00091E0E92E91E0F92E10E00EE0E091230789
:101EC000E11711F10E9FF0011124EF5FFE4F958590
:101ED000D7011D968C911D97981316C094851C965A
:101EE0008C91981311C061EB74E0CE0101960E94B1
:101EF000711420E040E069E1CE0101960E94B91F13
:101F0000CE0101960E94EE201F5FBEE0EB0EF11C99
:101F10001532A1F690C0E09123078EE0E89FF00112
:101F20001124EF5FFE4F6485CE010D960E940621BD
:101F300060912307CE0107960E94062164E274E0B7
:101F4000CE0101960E947114BE01695F7F4FCE01E0
:101F500001960E94F32061EC74E00E941D14BE0102
:101F6000635F7F4F0E94F320BC01CE0143960E9425
:101F7000571421E041E060E0CE0143960E94B91F72
:101F8000CE0143960E94EE20CE0101960E94EE20E3
:101F9000CE0107960E94EE20CE010D960E94EE2003
:101FA00081E0E82E81E0F82E10E00EE0E0912307BA
:101FB000E11711F10E9FF0011124EF5FFE4F95859F
:101FC000D7011D968C911D97981316C094851C9669
:101FD0008C91981311C061EB74E0CE0101960E94C0
:101FE000711420E040E069E1CE0101960E94B91F22
:101FF000CE0101960E94EE201F5FBEE0EB0EF11CA9
:102000001532A1F618C0BC01CE010D960E945714DE
:1020100021E041E060E0CE010D960E94B91FCE01A3
:102020000D960E94EE20CE0101960E94EE20CE0178
:1020300007960E94EE2068960FB6F894DEBF0FBE9A
:10204000CDBFDF91CF911F910F91FF90EF90089539
:102050001F93CF93DF93CDB7DEB762970FB6F89497
:10206000DEBF0FBECDBFE0913F051EE01E9FF00119
:102070001124EF5FFE4F6585CE0107960E94062171
:102080006CEA74E0CE0101960E947114BE01695F92
:102090007F4FCE0101960E94F320BC01CE010D9628
:1020A0000E94571420E040E060E0CE010D960E94AF
:1020B000B91FCE010D960E94EE20CE0101960E941E
:1020C000EE20CE0107960E94EE20E0913F051E9F74
:1020D000F0011124EF5FFE4F6485CE0107960E9448
:1020E000062162EC74E0CE0101960E947114BE01DB
:1020F000695F7F4FCE0101960E94F320BC01CE01A3
:102100000D960E94571420E040E06AE5CE010D963E
:102110000E94B91FCE010D960E94EE20CE010196BD
:102120000E94EE20CE0107960E94EE2062960FB626
:10213000F894DEBF0FBECDBFDF91CF911F91089500
:102140001F93CF93DF93CDB7DEB762970FB6F894A6
:10215000DEBF0FBECDBF80EC98E00E94C6240E9477
:10216000281060913F05CE0101960E94062123E0D0
:1021700040E067E3CE0101960E94B91FCE010196AF
:102180000E94EE20E0913F051EE01E9FF001112409
:10219000EF5FFE4F6285CE0107960E94062164ED37
:1021A00074E0CE0101960E947114BE01695F7F4FF9
:1021B000CE0101960E94F320BC01CE010D960E9433
:1021C000571420E043E060E0CE010D960E94B91F55
:1021D000CE010D960E94EE20CE0101960E94EE20C7
:1021E000CE0107960E94EE20E0913F051E9FF00170
:1021F0001124EF5FFE4F6385CE0107960E940621F2
:102200006AED74E0CE0101960E947114BE01695F0F
:102210007F4FCE0101960E94F320BC01CE010D96A6
:102220000E94571421E042E061E4CE010D960E9425
:10223000B91FCE010D960E94EE20CE0101960E949C
:10224000EE20CE0107960E94EE2060913F05CE0160
:1022500001960E94062123E040E067E3CE0101964B
:102260000E94B91FCE0101960E94EE2062960FB621
:10227000F894DEBF0FBECDBFDF91CF911F910895BF
:102280001F93CF93DF93CDB7DEB762970FB6F89465
:10229000DEBF0FBECDBF80EC98E00E94C6240E9436
:1022A000281060913F05CE0101960E94062123E08F
:1022B00040E067E3CE0101960E94B91FCE0101966E
:1022C0000E94EE20E0913F051EE01E9FF0011124C8
:1022D000EF5FFE4F6285CE0107960E9406216FEDEB
:1022E00074E0CE0101960E947114BE01695F7F4FB8
:1022F000CE0101960E94F320BC01CE010D960E94F2
:10230000571421E042E060E0CE010D960E94B91F13
:10231000CE010D960E94EE20CE0101960E94EE2085
:10232000CE0107960E94EE20E0913F051E9FF0012E
:102330001124EF5FFE4F6385CE0107960E940621B0
:1023400064EE74E0CE0101960E947114BE01695FD3
:102350007F4FCE0101960E94F320BC01CE010D9665
:102360000E94571420E043E060E5CE010D960E94E4
:10237000B91FCE010D960E94EE20CE0101960E945B
:10238000EE20CE0107960E94EE2060913F05CE011F
:1023900001960E94062123E040E067E3CE0101960A
:1023A0000E94B91FCE0101960E94EE2062960FB6E0
:1023B000F894DEBF0FBECDBFDF91CF911F9108957E
:1023C0001F93CF93DF93CDB7DEB762970FB6F89424
:1023D000DEBF0FBECDBF80EC98E00E94C6240E94F5
:1023E0002810E0913F051EE01E9FF0011124EF5FD1
:1023F000FE4F6285CE0107960E94062164ED74E0CF
:10240000CE0101960E947114BE01695F7F4FCE011B
:1024100001960E94F320BC01CE010D960E94571434
:1024200020E043E060E0CE010D960E94B91FCE018E
:102430000D960E94EE20CE0101960E94EE20CE0164
:1024400007960E94EE20E0913F051E9FF0011124A7
:10245000EF5FFE4F6385CE0107960E94062164EE72
:1024600074E0CE0101960E947114BE01695F7F4F36
:10247000CE0101960E94F320BC01CE010D960E9470
:10248000571420E043E060E5CE010D960E94B91F8D
:10249000CE010D960E94EE20CE0101960E94EE2004
:1024A000CE0107960E94EE2060913F05CE01019675
:1024B0000E94062123E041E067E3CE0101960E94DD
:1024C000B91FCE0101960E94EE2062960FB6F894D5
:1024D000DEBF0FBECDBFDF91CF911F910895409118
:1024E0009B0550919C052091990530919A054217C2
:1024F0005307B4F49091E8009570E1F39091E800EF
:1025000092FD19C08093F10080919B0590919C05EC
:1025100001968F739927892B19F48EEF8093E80029
:1025200080919B0590919C05019690939C058093CA
:102530009B0581E0089580E00895615030F020917E
:10254000F100FC0120830196F8CF289884E680935F
:102550009E050895CF92DF92EF92FF920F931F9303
:10256000CF93DF936C017A018B01C0E0D0E0CE15F0
:10257000DF0581F0D8016D918D01D601ED91FC91BF
:102580000190F081E02DC6010995892B11F021966B
:10259000EECF7E01C701DF91CF911F910F91FF9088
:1025A000EF90DF90CF900895FC01538D448D252F3F
:1025B00030E0842F90E0821B930B541710F0CF96DD
:1025C000089501970895FC01918D828D981761F00F
:1025D000828DDF01A80FB11D5D968C91928D9F5F5A
:1025E0009F73928F90E008958FEF9FEF0895FC0105
:1025F000918D828D981731F0828DE80FF11D858DB8
:1026000090E008958FEF9FEF0895FC01918D228D4A
:10261000892F90E0805C9F4F821B91098F739927CF
:10262000089585EF97E00E94051321E0892B09F4B6
:1026300020E0822F0895FC01848DDF01A80FB11DD9
:10264000A35ABF4F2C91848D90E001968F739927E8
:10265000848FA689B7892C93A089B1898C918274C3
:102660008C93938D848D981306C00288F389E02D96
:1026700080818F7D80830895EF92FF920F931F9347
:10268000CF93DF93EC0181E0888F9B8D8C8D981325
:1026900005C0E889F989808185FD26C0F62E0B8D5D
:1026A00010E00F5F1F4F0F731127E02E8C8DE81283
:1026B0000CC00FB607FCFACFE889F989808185FF45
:1026C000F5CFCE010E941B13F1CF8B8DFE01E80FD9
:1026D000F11DE35AFF4FF0829FB7F8940B8FEA8900
:1026E000FB898081806209C09FB7F894EE89FF89D9
:1026F0006083E889F9898081827480839FBF81E04B
:1027000090E0DF91CF911F910F91FF90EF9008958E
:10271000CF93DF93EC01888D8823C9F0EA89FB8988
:10272000808185FD05C0A889B9898C9186FD0FC07F
:102730000FB607FCF5CF808185FFF2CFA889B98954
:102740008C9185FFEDCFCE010E941B13E7CFDF9167
:10275000CF91089580E090E0892B29F00E94111319
:1027600081110C94000008950E9447350F931F9328
:10277000CF93DF93EC0188819981009729F02A811A
:102780003B812617370788F48B016F5F7F4F0E94CC
:102790008134009761F0998388831B830A832C819D
:1027A0003D81232B11F4FC01108281E001C080E007
:1027B000DF91CF911F910F910895EF92FF920F93A8
:1027C0001F93CF93DF936115710511F480E01CC056
:1027D00041155105C1F07B01EC018C819D818A017D
:1027E000080F191FB801CE010E94B613882371F398
:1027F000288139818C819D81B701820F931F0E94AE
:1028000055351D830C8381E0DF91CF911F910F918E
:10281000FF90EF900895CF93DF93EC018881998129
:10282000009711F00E94F833198218821D821C82D1
:102830001B821A82DF91CF910895CF93DF93EC0131
:102840006115710561F0FB0101900020E9F73197F6
:10285000AF01461B570B0E94DD13811103C0CE014F
:102860000E940B14CE01DF91CF910895EF92FF9259
:102870000F931F93CF93DF93EC017B018A01BA0181
:102880000E94B613811104C0CE010E940B1407C030
:102890001D830C83B701888199810E945535CE0133
:1028A000DF91CF911F910F91FF90EF900895FB0161
:1028B000DC0111961C921E9213961C921E92129786
:1028C00015961C921E9214978617970749F06081FF
:1028D00071816115710521F0448155810C94361484
:1028E0000895FC01118210821382128215821482D3
:1028F0006115710551F0FB0101900020E9F7319756
:10290000AF01461B570B0C94361408958093E900D1
:102910008091F200882319F08AE38093E8000895FB
:102920001F920F920FB60F9211242F933F934F9344
:102930005F936F937F938F939F93AF93BF93CF9347
:10294000EF93FF93C091E1008091E100837F80933A
:10295000E100C3FF0FC01092E90081E08093EB001B
:102960001092EC0082E38093ED001092EC0488E07A
:102970008093F000C2FF19C083E00E94861480910A
:102980009F05882339F080919F05815080939F0592
:10299000882389F180919E05882339F080919E05D6
:1029A000815080939E05882341F1C4FF10C080911F
:1029B000E2008E7E81608093E2008091E1008F7E54
:1029C0008093E1008091EA048E7E806111C0C0FF97
:1029D00016C08091E2008E7E80618093E20080913B
:1029E000E1008E7E8093E1008091EA048E7E81601A
:1029F0008093EA0404C05D9ACDCF289AD6CFFF9188
:102A0000EF91CF91BF91AF919F918F917F916F91F6
:102A10005F914F913F912F910F900FBE0F901F909C
:102A20001895DF92EF92FF920F931F93CF93DF934E
:102A3000D82E8A017B01E40EF51EEB01CE15DF05D1
:102A400071F0D7FE03C0FE01849101C088810E940D
:102A50006F1221968111F2CF8FEF9FEF01C0C80155
:102A6000DF91CF911F910F91FF90EF90DF9008952C
:102A70002FB7F89487708093E9009091E800892F30
:102A8000807295FF04C09091F20080E4891B2FBFF3
:102A900008957F928F929F92AF92BF92CF92DF92D2
:102AA000EF92FF920F931F93CF93DF93C82E8B016A
:102AB0007A018091EC04811103C08FEF9FEF74C005
:102AC0008091EA0480FF05C08091E00082608093DD
:102AD000E000CE2DDF2DD12C8AEFB82E8C2D877003
:102AE000982E8C2D8072882E8C2D8074782E9AE3EF
:102AF000A92E209719F4DD2009F451C08C2D0E94D5
:102B0000381581110AC0BA94BB20B9F261E070E0B7
:102B100080E090E00E943B23ECCF282F30E0C217EA
:102B2000D3070CF48C2F9FB7F8949092E900209172
:102B3000E80025FF32C0282F30E0C21BD30B8820CD
:102B400029F08150A0F01092F100FBCFF801C7FEF0
:102B50000AC0815050F044914093F1003196F9CF72
:102B600041914093F1008150D8F7020F131FDD20EF
:102B700019F0A092E8000AC08091E80085FD08C025
:102B8000A092E800DD24D394209739F0D12C05C021
:102B9000209719F47110A092E8009FBFAACF5D980A
:102BA00084E680939F05C701DF91CF911F910F911C
:102BB000FF90EF90DF90CF90BF90AF909F908F905D
:102BC0007F9008959091EC04992311F057FF03C072
:102BD0008FEF9FEF08959FB7F89487708093E90077
:102BE0002091F20030E0421753070CF49A01822F33
:102BF000FB0144E6815038F0289840939E0550919F
:102C0000F1005193F7CF2115310521F08091F200A9
:102C1000882319F09FBFC90108958BE68093E800CF
:102C2000F9CF8091910581110DC082E080938D05CF
:102C300084E080938E051092900510928F0581E0BC
:102C4000809391058DE895E008950F931F93CF939E
:102C5000DF931F92CDB7DEB782E0898342E450E074
:102C600061E271E080E80E9411150E941116DC01FA
:102C700012960D911C9113970115110589F0D80139
:102C8000ED91FC910280F381E02DBE016F5F7F4FDB
:102C9000C801099597FD04C0F80100851185ECCFA6
:102CA00089810F90DF91CF911F910F9108951F920D
:102CB0000F920FB60F921124CF92DF92EF92FF92F4
:102CC0000F931F932F933F934F935F936F937F9334
:102CD0008F939F93AF93BF93EF93FF93CF93DF9324
:102CE000CDB7DEB76C97DEBFCDBF1092E900809103
:102CF000E80083FFFBC168E0CE0145960E949D126B
:102D000082EF8093E8008D8987FF05C09091E800ED
:102D100090FFFCCF03C09EEF9093E800982F907631
:102D200009F0C6C09E894F89588D2F89F88C911162
:102D30000CC0803829F48091EB048093F10002C02C
:102D40001092F1001092F10045C1913051F48111BF
:102D500041C14130510509F03DC18091EB048D7FA7
:102D60000BC0933061F4811135C14130510509F038
:102D700031C18091EB0482608093EB042BC19530CC
:102D800049F48091E80080FFFCCF822F8068809317
:102D9000E30020C1963009F05EC00B8D1C8D22E04F
:102DA0001092E90010929C0510929B05F21232C01D
:102DB00010929A05109299050E94251699E0BE017D
:102DC0006F5F7F4FDB01E92F1D92EA95E9F7998349
:102DD000FA8291E09E8390EA98879AEF99872091F2
:102DE0009B0530919C05275F3F4F3C832B838D8350
:102DF0001092E90010929C0510929B0510939A0581
:102E00000093990549E050E080E00E9411150E946E
:102E10002516E0C010939A05009399050E9411169B
:102E2000DC0112960D911C9113970115110509F4FF
:102E3000BBC0D801ED91FC910480F581E02DBE016D
:102E40006B5E7F4FC8010995009709F0C7C0F80174
:102E500000851185EACF973009F445C1983021F4F7
:102E600081E08093F100B6C0993009F0B3C083705F
:102E700009F039C1E7E1F3E081E031E096E3208138
:102E8000211109C08EE78093EA001092EA008F8931
:102E90008093EC049FC08093E9003093EB00219174
:102EA0002093EC009093ED008F5F873041F7EACFDD
:102EB0008B8D9C8D1092E90010929C0510929B05C1
:102EC00090939A0580939905898D811153C08E89BD
:102ED0009D89913A49F4813209F005C147E050E0FB
:102EE0006BE073E080E0BBC0913209F0FCC083323C
:102EF00069F48F89988DA0E0B0E0809307039093E8
:102F00000803A0930903B0930A0364C0803269F4F4
:102F10008091E80082FFFCCF67E08BE093E00E94A5
:102F20009D128BEF8093E80055C0823209F052C0A9
:102F30008F8980931203EEEFFFE7859194918B3F89
:102F40009C4D19F0E0E0F8E002C0EEEFFAE080916D
:102F50000B0390910C03A0910D03B0910E03803BE5
:102F60009440A105B10509F09EC08091120380FF35
:102F700079C099C00E941116FC01028113810115CC
:102F8000110509F4B0C0D801ED91FC910190F081D8
:102F9000E02DBE016B5E7F4FC801099581111AC0FB
:102FA000F80100851185EBCFF1E0FF1609F44EC062
:102FB000F3E0FF1298C08F89882309F44AC0823059
:102FC00089F440E860E185E891E00E940A308823B6
:102FD00009F489C08EEF8093E80088C0181619069E
:102FE000CCF381C0813029F440E86BE089E791E0BF
:102FF000ECCF833009F077C00E941116DC011296E5
:10300000ED90FC9013978E010F5F1F4F6801E11444
:10301000F10479F0D701ED91FC910680F781E02D64
:10302000B801C7010995080F111DF701E084F1846B
:10303000EECFD8011C92F60101900020E9F73197FC
:10304000BF016C197D0940E0C601BFCF67E671E0A2
:1030500002C063E671E0FB01449150E080E80E9409
:103060001115B8CFEE3F2AE0F20751F0808191812F
:103070008737A7E79A0721F09093FF0A8093FE0A0B
:1030800087E797E7918380838091600080939D0517
:103090009BE088E10FB6F894A895809360000FBE7E
:1030A0009093600097CF808191818737974709F08F
:1030B00091CFA89580916000886180936000809195
:1030C0009D0580936000EE3FBAE0FB0739F08091E8
:1030D000FE0A9091FF0A918380837CCF1092FF0AB1
:1030E0001092FE0A77CF81E28093EB006C960FB6C8
:1030F000F894DEBF0FBECDBFDF91CF91FF91EF916E
:10310000BF91AF919F918F917F916F915F914F91FF
:103110003F912F911F910F91FF90EF90DF90CF90F3
:103120000F900FBE0F901F9018951F920F920FB621
:103130000F9211242F933F934F935F936F937F933D
:103140008F939F93AF93BF93EF93FF9385EF97E098
:103150000E941B13FF91EF91BF91AF919F918F91AF
:103160007F916F915F914F913F912F910F900FBE83
:103170000F901F9018951F920F920FB60F92112467
:103180002F938F939F93EF93FF93E0910508F09116
:1031900006088081E0910B08F0910C0882FD12C0B6
:1031A000908180910E088F5F8F7320910F08821796
:1031B00051F0E0910E08F0E0EB50F84F958F8093BE
:1031C0000E0801C08081FF91EF919F918F912F9107
:1031D0000F900FBE0F901F901895CF93DF931F9203
:1031E000CDB7DEB76983DC01ED91FC910280F381FC
:1031F000E02D41E050E0BE016F5F7F4F09950F90D9
:10320000DF91CF910895FC018485958597FD0BC0D2
:103210009FB7F89482E08093E9008091F2009FBF0D
:1032200090E0019608959FB7F89482E08093E900BA
:103230008091F2009FBF90E00895CF93DF93EC015F
:103240008D85882319F081508D8711C09C818E81D6
:10325000981768F488896827E881F9810084F185E6
:10326000E02D42E0CE0109958C818F5F8C83DF9148
:10327000CF91089585ED8093BC008091BC0084FDC2
:10328000FCCF10928F06089540911C06262F30E047
:10329000240F311D21323105DCF420918F062430BA
:1032A000C9F4FC0180E090E0861758F430911C06C8
:1032B0002191DC01A450BA4FA30FB11D2C930196AC
:1032C000F3CF80911C06680F60931C0680E0089580
:1032D00081E0089582E00895089508950895E091A9
:1032E000480680914706E81730F4F0E0E75BF94FB5
:1032F000808190E008958FEF9FEF089590914806A8
:1033000080914706981750F4E92FF0E0E75BF94FFA
:10331000208130E09F5F9093480602C02FEF3FEF7F
:10332000C90108958091470690E020914806821BCC
:1033300091090895CF92DF92EF92FF920F931F931E
:10334000CF93DF937C01CB018A0120919006222349
:1033500089F0EB016B01C40ED51ECC15DD0569F0BB
:103360006991D701ED91FC910190F081E02DC701A9
:103370000995F3CF642F0E944419C801DF91CF91C2
:103380001F910F91FF90EF90DF90CF900895CF9312
:10339000DF931F92CDB7DEB7698320919006222379
:1033A000D1F02091B306203240F021E030E0FC0162
:1033B0003383228380E090E015C080919106E82F4E
:1033C000F0E0EE56F94F998190838F5F80939106DC
:1033D0008093B30605C061E0CE0101960E944419B6
:1033E00081E090E00F90DF91CF91089580E090E030
:1033F0000895CF93DF93EC0180911203882331F07D
:1034000083E00E9449151816190634F081E090E017
:103410009B838A8380E090E0DF91CF91089583E0E1
:103420000C94861483E00E94381590E008950F9361
:103430001F93CF93DF931F92CDB7DEB78C01FC01B2
:103440008485958597FF12C041E050E0BE016F5F13
:103450007F4F82E00E94E215019719F4898190E084
:1034600002C08FEF9FEFF80195878487F80184856C
:1034700095850F90DF91CF911F910F910895CF9374
:10348000DF931F92CDB7DEB7FC018485958597FD4C
:1034900005C02FEF3FEF358724870FC041E050E094
:1034A000BE016F5F7F4F82E00E94E215019719F421
:1034B000898190E002C08FEF9FEF0F90DF91CF9155
:1034C0000895862F0C949D080F931F93CF93DF933D
:1034D000CDB7DEB7CC55D1090FB6F894DEBF0FBE1D
:1034E000CDBF8C01DB019C919E5F9C93FE013196C8
:1034F0008CE5DF011D928A95E9F739E0398374E0A4
:103500007A8391E09E839F833A8754E25B879C870E
:103510009E873F87998B43E04A8B3B8B7C8B22E0D5
:103520002F8B988F498F87E08C8F5D8F9E8F98A30C
:1035300081E489A386E08BA35CA32DA39EA39FA314
:1035400089A75AA72BA72CA72DA73FA758AB49ABF4
:103550009AAB4BAB9CAB2DAB9EAB38AF59AF4AAFE0
:103560002BAF7CAF9DAF9EAF9FAF22963FAF229710
:1035700055E023965FAF239725962FAF259760E4FC
:1035800026966FAF26972B965FAF2B9785E22C96EA
:103590008FAF2C972D969FAF2D972E969FAF2E977E
:1035A0002F969FAF2F9760963FAF609761965FAF62
:1035B000619763962FAF639764966FAF6497699630
:1035C0005FAF69976A968FAF6A976B969FAF6B975D
:1035D0006C969FAF6C976D964FAF6D97D801129612
:1035E0009C9112979B839F5F9D8B13968C91249641
:1035F0008FAF24978F5F806862968FAF62974CE59C
:1036000050E0BF0180E00E941115C45ADF4F0FB691
:10361000F894DEBF0FBECDBFDF91CF911F910F9108
:103620000895DC01ED91FC910084F185E02D40E0EE
:103630000994FC018781869586958695681740F4E4
:1036400065839385690F6770606BCF010C94111BC4
:1036500008950F931F93CF93FC0126816217A0F466
:10366000C62F8C0164839085C90F6C2F6F70CF01BA
:103670000E94111B6C2F62956F706061C801CF9121
:103680001F910F910C94111BCF911F910F910895D1
:10369000CF92DF92EF92FF920F931F93CF93DF931E
:1036A000EC01F62EC42ED22E1D868F81869586952E
:1036B0008695081710F00FEF080F1D2D6F2DCE0106
:1036C000011788F00E94291B612FCE010E94191B4F
:1036D000EF2CCE1430F06889CE010E941D19E394BE
:1036E000F8CF1F5FEBCF0E94291B6D2DCE01DF911C
:1036F000CF911F910F91FF90EF90DF90CF900C949E
:10370000191B2F923F924F925F926F927F928F92EE
:103710009F92AF92BF92CF92DF92EF92FF920F9360
:103720001F93CF93DF93CDB7DEB72A970FB6F894E8
:10373000DEBF0FBECDBFDC011E962D913C911F97C1
:103740002115310509F463C19A878987F9013296F9
:10375000449031967491E72EF12CB7E0EB0EF11CFA
:1037600093E0F594E7949A95E1F7EA823196A49173
:103770003196E4916A1758F0462F50E08E2F90E072
:10378000FC01EA0FF11D4E175F070CF46AC06D30A3
:1037900031F460E089859A850E94291B3BC16A301B
:1037A00009F035C160E089859A850E94291BE98569
:1037B000FA8501890E9DE02C1124278126952695F6
:1037C000269565816E0D8E2D821B860F948599231B
:1037D00009F418C118160CF015C1A985BA851B96F5
:1037E0009C911B97890F87701B968C931B972E19A2
:1037F00015962C9315971E96ED91FC911F97309777
:1038000069F03396E491F0E0379683E0F595E7951B
:103810008A95E1F70E9FE02D112401C0E0E00FEF43
:10382000020F0E0FE985FA85468141506481CF0170
:103830000E94481BA985BA851C968C911C978130E3
:1038400009F0E8C01B966C911B97660F660F660F18
:103850006F731A966C931A976064CD010E94111BC6
:10386000D9C0A9014A5F5F4F6A1BA985BA8519961D
:10387000FC9119975196EC91FE9FE02D1124E88759
:10388000F901A4913196249130E03A2B2230310590
:1038900070F44E9CC0014F9C900D1124689F8001D4
:1038A000699F100D1124040F151F312C22C0777051
:1038B00021F028E0322E371A01C0312CFA0120E025
:1038C000A0E0B0E0261731F03491A30FB11D2F5FB7
:1038D0003196F8CFFA01E20FF11D4490EA9E800183
:1038E000EB9E100DFA9E100D1124080F191F040FE6
:1038F000151FA985BA851496BC91BB83E985FA8505
:10390000F581FC83A985BA851D96BC91BD83E42D04
:10391000F0E0FF83EE83812C912CC12CD12CC98245
:10392000FA81CF1608F06DC0212C36019FEF691A7D
:10393000790AA985BA8551968C915197281608F075
:1039400058C0ED811D96EC93F981F11102C022203F
:1039500079F0A985BA851596BC901597B3946B81BB
:10396000CD010E94291B6B2D89859A850E94191B08
:10397000A12CB12CA41410F0B12C2FC0F401EA0D2D
:10398000FB1DE00FF11F5490332061F0E614F704A3
:1039900049F4E52DF0E0032C02C0F595E7950A9473
:1039A000E2F75E2EE985FA858189823069F4E52D9A
:1039B0002110E295EF70F0E0EA56FE4F5490652D2D
:1039C00089859A850E941D19652D89859A850E9491
:1039D0001D19FFEFAF1ABF0ACDCF8885B81639F091
:1039E00060E089859A850E941D19B394F6CF2394CF
:1039F000A0CF9FEFC91AD90AAE81BF818A0E9B1E44
:103A00008ECF6C8189859A850E94191B03C080E046
:103A100090E002C081E090E02A960FB6F894DEBFF5
:103A20000FBECDBFDF91CF911F910F91FF90EF900F
:103A3000DF90CF90BF90AF909F908F907F906F90CE
:103A40005F904F903F902F9008951F920F920FB666
:103A50000F9211242F933F934F935F936F937F9314
:103A60008F939F93AF93BF93EF93FF938091B90090
:103A7000887F803609F49CC068F5883209F45BC001
:103A800090F4803109F454C038F4882309F4F6C066
:103A9000883009F44DC0F6C0883109F44CC080323A
:103AA00009F45DC0EFC0803409F468C048F4803385
:103AB00009F455C0883309F0E5C080938D06D8C05D
:103AC000803509F44FC0883509F45DC0883409F0A9
:103AD000D9C0D6C0883909F4C7C0A8F4883709F41A
:103AE00067C038F4883609F463C0803709F460C0D1
:103AF000C9C0883809F4B8C0803909F45FC080387B
:103B000009F0C0C05BC0803B09F486C038F4803A3D
:103B100009F466C0883A09F47FC0B4C0803C09F457
:103B2000A7C0883C09F4A4C0883B09F48AC0AAC095
:103B300080916A0610C090918C0680918B06981730
:103B400070F5E0918C0681E08E0F80938C06F0E09A
:103B5000E559F94F80818093BB0085EC86C0809346
:103B60008D068EC0E0918C0681E08E0F80938C06CE
:103B70008091BB00F0E0E559F94F808390918C066D
:103B800080918B066EC0E0918C0681E08E0F809351
:103B90008C068091BB00F0E0E559F94F808380915D
:103BA0008E0681116DC081E08093690684EA61C050
:103BB00083E080938F0610923E06CFCF80913E0621
:103BC000803208F051C0E0913E0681E08E0F809374
:103BD0003E068091BB00F0E0E25EF94F8083BDCFEE
:103BE00085EC8093BC0010928F0680913E06803257
:103BF00030F4E0913E06F0E0E25EF94F1082609111
:103C00003E0670E0E091ED04F091EE048EE196E066
:103C1000099510923E0636C084E080938F0610927C
:103C20001D0610921C06E091EF04F091F004099536
:103C300080911C06811105C081E080931C061092C2
:103C4000FC05E0911D0681E08E0F80931D06F0E0DB
:103C5000E450FA4F80818093BB0090911D068091C3
:103C60001C06981708F479CF85E88093BC000AC039
:103C700085EC8093BC0010928F0604C010928D06D4
:103C80000E943A19FF91EF91BF91AF919F918F914F
:103C90007F916F915F914F913F912F910F900FBE48
:103CA0000F901F901895AF92BF92CF92DF92EF9234
:103CB000FF920F931F93CF93DF93CDB7DEB7279774
:103CC0000FB6F894DEBF0FBECDBF8C015C0162E57C
:103CD000A60EB11C7C0173E5E70EF11C80E4C82E32
:103CE000D12C44E050E0BE016F5F7F4FD8011396A6
:103CF0008C910E94E215009709F454C0049709F0D2
:103D000051C02A813B818981E82FEF708E2F90E08E
:103D1000FC013297EE30F105A0F4EC59FF4F0C9402
:103D20005A332D8321E030E00EC02D833E8322E004
:103D300030E009C08C812D833E838F8323E030E007
:103D400002C020E030E0F5014081D7018C9190E085
:103D5000805C9F4F841B9109B6010E944633F60197
:103D6000E81BF90BE217F3070CF4BBCFFE01359605
:103D70002E0F3F1FE217F30709F4B3CFD7018C9141
:103D800090E0BC016F5F7F4F6F737727461741F05C
:103D9000D801A80FB91F508152965C93D7016C933C
:103DA0003196E8CF27960FB6F894DEBF0FBECDBF91
:103DB000DF91CF911F910F91FF90EF90DF90CF9007
:103DC000BF90AF9008958091F405811133C082E0D7
:103DD0008093A4058093A50583E193E09093A705C4
:103DE0008093A6051092A9051092A8058FE293E092
:103DF0009093A1058093A0051092AB051092AA059F
:103E00001092AC051092B0051092B1051092AD055C
:103E10001092AE051092AF051092F2051092F305C4
:103E200080E4E2EBF5E0DF011D928A95E9F781E09D
:103E30008093F40580EA95E008950E94E31EFC015A
:103E400083818F5F0C948614CF93DF930E94E31ECF
:103E5000EC010E94531EFE01EE5AFF4F8081319605
:103E60009081891721F0C80FD11D8A8901C080E097
:103E700090E0DF91CF9108950E94E31E0C945822A8
:103E8000CF93DF930E94E31EEC010E94531EFE01BC
:103E9000EE5AFF4FCD5ADF4F81E090E0308128810C
:103EA000321302C080E090E0DF91CF91089590E05E
:103EB000FC013197EF30F105B0F5EE58FF4F0C944F
:103EC0005A33809180008F7703C0809180008F7D6E
:103ED00080938000089580918000877FF9CF84B51A
:103EE0008F7702C084B58F7D84BD08958091900046
:103EF0008F7707C0809190008F7D03C080919000E4
:103F0000877F8093900008958091C0008F7703C0D1
:103F10008091C0008F7D8093C00008958091C20081
:103F2000877F8093C20008953FB7F894809143063D
:103F300090914406A0914506B091460626B5A89BEF
:103F400005C02F3F19F00196A11DB11D3FBFBA2F2B
:103F5000A92F982F8827820F911DA11DB11DBC018B
:103F6000CD0142E0660F771F881F991F4A95D1F750
:103F700008950F931F93CF93DF93EC01062F142F17
:103F8000213049F028F0233051F48DEE91E005C046
:103F900087E69CE002C081E297E00E94DF2481E096
:103FA0008093D108602F80EC98E00E94291B612F3C
:103FB00080EC98E00E94191B4C815D8168817981B9
:103FC00080EC98E0DF91CF911F910F910C94AA1291
:103FD0000F931F93CF93DF93162F072FC2E9D8E0DB
:103FE000998121E0209390069093B2061092910659
:103FF0001092B306682F84E097E00E94C719602FE3
:1040000084E097E00E94C719612F84E097E00E9446
:10401000C71981E00E94B2238883DF91CF911F915D
:104020000F9108958F929F92AF92BF92EF92FF925D
:104030000F931F93CF93DF937C01EB0180E50E94E8
:10404000A4248F5F880F90E09983888386E40E9480
:10405000A424082F10E00F5F1F4F1D830C83A8813D
:10406000B0E020E03FE24AE350E00E94AB326C5007
:104070007E4F8F4F9F4F38EE832E33E0932EA12C2F
:10408000B12CA50194010E94F532D8010E94B632EC
:104090006C507E4F8F4F9F4FA50194010E94F532C7
:1040A0002A873B874C875D8781E50E9457248C01D6
:1040B000112702C0000F111F9A95E2F70F5F1F4FE3
:1040C0001F830E83A881B0E020E03FE24AE350E086
:1040D0000E94AB326C507E4F8F4F9F4FA5019401D1
:1040E0000E94F532D8010E94AB326C507E4F8F4F48
:1040F0009F4FA50194010E94F5322E873F87488B80
:10410000598B80E70E94A4248F5F880F90E09B83E7
:104110008A8381E70E9457249C01992702C0880F57
:10412000991F3A95E2F7019699878887F7012381CD
:10413000222331F02E813F81821B930B9987888740
:10414000AA81B0E020E03FE24AE350E00E94AB32B7
:104150006C507E4F8F4F9F4F28EE822E23E0922E81
:10416000A12CB12CA50194010E94F532A885B98536
:104170000E94AB326C507E4F8F4F9F4FA501940130
:104180000E94F5322A8B3B8B4C8B5D8BDF91CF915C
:104190001F910F91FF90EF90BF90AF909F908F90E5
:1041A0000895CF93DF93EC0181E00E94A42484FB67
:1041B000992790F9988383FB992790F99A8382FB3A
:1041C000992790F9998386FB992790F99B83881FFB
:1041D0008827881F8C83DF91CF910895FC0180810F
:1041E00091810C94F833CF93DF93EC01FB01448170
:1041F0005581608171810E94DD13811103C0CE0160
:104200000E940B14CE01DF91CF910895EF92FF929F
:104210000F931F93CF93DF93CDB7DEB729970FB6D8
:10422000F894DEBF0FBECDBF8C01862FF80111823E
:10423000108213821282158214824AE09E012F5F3F
:104240003F4F7901B90190E00E944C32F701019093
:104250000020E9F73197AF014E195F09B701C80196
:104260000E94361429960FB6F894DEBF0FBECDBF5C
:10427000DF91CF911F910F91FF90EF900895CF9212
:10428000DF92EF92FF920F931F93CF93DF93CDB7FF
:10429000DEB729970FB6F894DEBF0FBECDBF809171
:1042A000B3089091B408892B09F4BBC0C090B90839
:1042B000D090BA08E090BB08F090BC080E94941F10
:1042C0006C157D058E059F0550F40E94941F609328
:1042D000B9087093BA088093BB089093BC080E94F9
:1042E000941F0091B9081091BA082091BB08309131
:1042F000BC08DC01CB01801B910BA20BB30B8C32F1
:104300009140A105B10590F2F8948091AE0890918A
:10431000AF089A838983E091B308F091B408DF0174
:104320001196808189879091AA08E091BD08F0914B
:10433000BE088091BF08992309F42EC09081982B64
:1043400098879081809589238F838F818C8388E0E3
:104350008B8358856F8149853B812C8189819A8126
:10436000508347FD252F3A952083262F39F0441F8F
:1043700000C000006083000000C0F2CF38E04D9123
:1043800060830000019761F7F093BE08E093BD08D9
:1043900049873B832C8338C09081982B98879081E4
:1043A000809589238F838F818E8388E08D835885C4
:1043B0006F8149853D812E8189819A81508347FD96
:1043C000252F00C000C0208300C000C000C000C076
:1043D00000C060830000262F3A9541F0441F000082
:1043E00000C000C000C000C000C0E8CF38E04D9160
:1043F00000C0608300C0019709F7F093BE08E09306
:10440000BD0849873D832E839A83898378940E94CF
:10441000941F6093B9087093BA088093BB08909377
:10442000BC0829960FB6F894DEBF0FBECDBFDF9152
:10443000CF911F910F91FF90EF90DF90CF90089553
:10444000EF92FF920F931F93CF93DF93CDB7DEB719
:1044500062970FB6F894DEBF0FBECDBF8C01CB01C3
:10446000F8011182108213821282158214824AE0AE
:104470009E012F5F3F4F7901B9010E944132F70140
:1044800001900020E9F73197AF014E195F09B7019C
:10449000C8010E94361462960FB6F894DEBF0FBEB4
:1044A000CDBFDF91CF911F910F91FF90EF900895B5
:1044B000CF93DF93EC010E94531EFE01EE5AFF4F93
:1044C0002081DE01AD5ABF4F8C91281751F030E0AA
:1044D000C20FD31F8A892F5F3F4F2F73332720834B
:1044E00001C080E090E0DF91CF910895CF93DF93FA
:1044F000282F30E0F901E253FE4F8491F901E35B8C
:10450000F14FD491F901E658F14FC491CC2391F0C9
:1045100081110E94571FEC2FF0E0EE0FFF1FE054B7
:10452000FE4FA591B491EC91ED2381E090E021F450
:1045300080E002C080E090E0DF91CF9108951F936A
:10454000CF93DF93282F30E0F901E253FE4F84919F
:10455000F901E35BF14FD491F901E658F14FC491B1
:10456000CC23C1F0162F81110E94571FEC2FF0E0D1
:10457000EE0FFF1FE459F14FA591B4919FB7F89446
:10458000111104C08C91D095D82302C0EC91DE2B80
:10459000DC939FBFDF91CF911F910895CF93DF935D
:1045A00090E0FC01E35BF14F2491FC01E658F14FF0
:1045B0008491882361F190E0880F991FFC01EE54EB
:1045C000FE4FC591D491FC01E459F14FA591B491EE
:1045D000611109C09FB7F894888120958223888350
:1045E000EC912E230BC0623061F49FB7F894888160
:1045F000322F309583238883EC912E2B2C939FBFF1
:1046000006C08FB7F894E8812E2B28838FBFDF91E7
:10461000CF910895823108F08251E82FF0E0EA55F9
:10462000FE4FE49180917B00E3FB222720F930E0EC
:1046300095E0220F331F9A95E1F78F7D282B209369
:104640007B008091150320E4829FC0011124E77054
:10465000E82BE0937C0080917A00806480937A005C
:1046600080917A0086FDFCCF8091780020917900BE
:1046700090E0922B08958F929F92AF92BF92CF922B
:10468000DF92EF92FF926B017C010E94941F4B011D
:104690005C01C114D104E104F104F1F00E94941F03
:1046A000DC01CB0188199909AA09BB09883E93400E
:1046B000A105B10570F321E0C21AD108E108F108A3
:1046C00088EE880E83E0981EA11CB11CC114D10491
:1046D000E104F10419F7DDCFFF90EF90DF90CF9068
:1046E000BF90AF909F908F9008952FB7F8946091EE
:1046F0003F067091400680914106909142062FBF7F
:104700000895682F616080E00E9482240E947523D2
:10471000709398086093970883E10E94A42487709F
:10472000B9F48091940890919508892BA9F30E947F
:1047300075232091970830919808621B730B809124
:104740009408909195088617970730F780E00895B0
:1047500061E08BE00E94822460E080E00E9482247D
:1047600081E00895282F3091B306313208F04AC015
:1047700080918F068111FCCF9091B20642E0409368
:104780008F0620938E062FEF20938D0610928C06B5
:1047900030938B06E2E9F6E0ABE6B6E020E03217B4
:1047A00021F041914D932F5FFACF10926A0620912C
:1047B0006A06990F922B90936A0690916906913040
:1047C00061F41092690690916A069093BB009091F3
:1047D000BC0093FDF8CF95EC01C095EE9093BC0022
:1047E00090918F069230E1F390918D069F3F79F082
:1047F00080918D06803241F080918D06803331F0BA
:1048000084E005C081E003C082E001C083E0109233
:1048100091061092B30610929006089590918F061B
:104820009111FCCF613208F060E291E090938F0625
:1048300090938E062FEF20938D0610928C06260FF4
:1048400020938B0690936A0690916A06880F892BB5
:1048500080936A0680916906813061F4109269063E
:1048600080916A068093BB008091BC0083FDF8CFE5
:1048700085EC01C085EE8093BC0080918F0681306D
:10488000E1F380918C06861710F460918C06EBE6BC
:10489000F6E0A9E4B6E080E0861721F091919D93BF
:1048A0008F5FFACF10924806809347060895CF9302
:1048B000DF93C2E9D8E0998121E02093900690939C
:1048C000B206109291061092B306682F84E097E02A
:1048D0000E94C71981E00E94B223888362E0898127
:1048E0000E940E2484E097E00E947E19D82F80E079
:1048F000C82F84E097E00E947E198C2B9D2BDF91BE
:10490000CF9108951F93CF93DF93162FC2E9D8E07C
:10491000998121E0209390069093B206109291061F
:104920001092B306682F84E097E00E94C719612FA8
:1049300084E097E00E94C71981E00E94B223888337
:10494000DF91CF911F910895CF93DF93C2E9D8E013
:10495000998121E0209390069093B20610929106DF
:104960001092B306682F84E097E00E94C71981E097
:104970000E94B223888361E089810E940E2484E032
:1049800097E00E947E19DF91CF9108950F93CF9306
:10499000DF93EC011B861A8660E40E94111B0F81D5
:1049A00006950695069501504E81415020E060E045
:1049B000CE010E94481BDF91CF910F9108959093F3
:1049C000CF088093CE08009741F0FC0124913196E6
:1049D000849190E0922B019721F081E08093C908A7
:1049E00008951092C90808951F920F920FB60F9262
:1049F00011242F933F938F939F93AF93BF938091F5
:104A00003F0690914006A0914106B0914206309138
:104A1000D70823E0230F2D3720F40196A11DB11DE7
:104A200005C026E8230F0296A11DB11D2093D708CB
:104A300080933F0690934006A0934106B0934206B0
:104A40008091430690914406A0914506B091460698
:104A50000196A11DB11D8093430690934406A09337
:104A60004506B0934606BF91AF919F918F913F91BC
:104A70002F910F900FBE0F901F901895CF93DF933B
:104A8000CDB7DEB7A6970FB6F894DEBF0FBECDBF89
:104A9000789484B5826084BD84B5816084BD85B519
:104AA000826085BD85B5816085BD80916E00816025
:104AB00080936E00109281008091810082608093CB
:104AC00081008091810081608093810080918000CD
:104AD000816080938000809191008260809391003A
:104AE000809191008160809391008091900081601D
:104AF000809390008091C10084608093C100809178
:104B0000C10082608093C1008091C1008160809368
:104B1000C1008091C30081608093C3008091C00078
:104B200082608093C0008091C20081608093C20047
:104B300080917A00846080937A0080917A0082600C
:104B400080937A0080917A00816080937A008091CE
:104B50007A00806880937A001092EC041092EB0443
:104B60001092EA048091D70081608093D70080EA98
:104B70008093D80089B5806189BD89B5826089BD7F
:104B800009B400FEFDCF61E070E080E090E00E949B
:104B90003B238091D8008F7C80618093D8008091E6
:104BA000E000807F8093E0008091E1008E7E809322
:104BB000E1008DE08093E200559A209A60E087E062
:104BC0000E94CE228FEF93E00E947632843008F06C
:104BD00081C08FEF93E00E947632182F0E948B09DC
:104BE00091E090930001E0914F07F0915007019000
:104BF000F081E02DA089B18982E08C93A485B585F0
:104C00001C92A685B7858FE38C93108EA489B589F5
:104C100086E08C93A289B3898C9180618C93A28960
:104C2000B3898C9188608C93A289B3898C918068B8
:104C30008C930288F389E02D80818F7D808390930F
:104C40005107109253071092520710925A07109270
:104C500059071092580710925707EE24EA94FE2C39
:104C6000F0925C07E0925B07F0925E07E0925D07CE
:104C70000E9475236093E7077093E8078093E90724
:104C80009093EA071092E407109261071092600770
:104C900010926207109263071092E6071092E507E0
:104CA00080915F0781708260816080935F07F092DE
:104CB000C106E092C0068091B0089091B10897FDBE
:104CC00027C061E00E94CE2260E08091B0080E947F
:104CD0009F221EC060E08FEF93E00E947E32E1E0F1
:104CE000F1E080E09FE714868587938712868F5FC7
:104CF0003E968532C1F780E00E94EE0981E00E9475
:104D0000EE0982E00E94EE0983E00E94EE0961CF85
:104D100081E08093AB086091B208633321F1209168
:104D2000B3083091B408615031F070E08FEF92E336
:104D30000E94323302C060E070E0F9014091AE0899
:104D40005091AF08CF01821B930B8417950740F455
:104D50004081469FC001479F900D11249193EECF53
:104D600083E38093B20800E020E040E060E0802F21
:104D70000E94DD0B0F5F0430B9F70E943F2161E014
:104D80008CE00E94CE2261E086E00E94CE2260E0AC
:104D900085E00E94CE2260E086E00E949F2261E0D2
:104DA0008CE00E949F220E942E0B6093400570931E
:104DB000410580934205909343051092150343E209
:104DC000E42E43E0F42E5BE2C52E53E0D52ED7014E
:104DD0000C91B2E0EB0EF11C61E0802F0E94CE221C
:104DE00060E0802F0E949F22CE14DF0481F7109292
:104DF000480610924706109291061092B306109240
:104E00008F0681E080938E061092690661E082E051
:104E10000E949F2261E083E00E949F228091B9005E
:104E20008E7F8093B9008091B9008D7F8093B90007
:104E300088E48093B80085E48093BC008CE699E117
:104E40009093F0048093EF048DE699E19093EE0443
:104E50008093ED048CE08093B8001092D4089CE31A
:104E60009093D3081092B9008093B8001092C408B0
:104E70001092C508EBE1F1E085919491D82EEDE117
:104E8000F1E00491EEE1F1E0E491E093C608EFE196
:104E9000F1E0E491E093C708E0E2F1E0E491E0930F
:104EA000C8087C018E2D8D19801750F4F70164918C
:104EB00080EC98E00E94111BFFEFEF1AFF0AF2CF7F
:104EC00080EC98E00E94C62484EF91E090939508CE
:104ED0008093940880EC0E94A4248E3E09F0DCC3E9
:104EE00089E80E94A424682F616089E80E948224D6
:104EF00060E088E80E94822461E080E80E948224C9
:104F000061E08FEF0E94822460E080E00E948224B2
:104F100081E90E94A4248093990861E080E00E94C6
:104F2000822460E08FEF0E94822460E080E80E948B
:104F3000822480E60E94A424682F626180E60E9499
:104F4000822460E270E084E40E94E81F6FEF81E059
:104F50000E94822461E080E80E94822461E08FEF59
:104F60000E94822460E080E00E94822466E08FEF4D
:104F70000E94822483E80E94A424682F646083E84E
:104F80000E94822467E08FEF0E94822461E081E822
:104F90000E94822461E080E80E9482246BE684E91A
:104FA0000E94822460E083E80E9482240E9475238C
:104FB000709398086093970883E80E94A424811155
:104FC00016C08091940890919508892BA9F30E94AE
:104FD00075232091970830919808621B730B80917C
:104FE0009408909195088617970730F755C361E0AC
:104FF00083E80E94822482E90E94A424C82E082FFC
:105000000F7760E081E80E94822466E08FEF0E94C3
:10501000822483E80E94A424682F6B7F83E80E9487
:10502000822461E08FEF0E94822461E080E00E9490
:10503000822460E08FEF0E94822460E080E80E947A
:1050400082248091930891E0909390068093B20619
:10505000109291061092B30660EB84E097E00E94F4
:10506000C71981E00E94B2238093920866E0809184
:1050700093080E940E247E0127E1E20EF11C5701E5
:1050800037E0D32EDA94DD2041F084E097E00E94EF
:105090007E19D5018D935D01F5CF61E08FEF0E9400
:1050A000822460E08FE40E9482246CE28EE40E94FD
:1050B000822460E08FEF0E94822464EB86EB0E94E2
:1050C0008224C7FE02C06CE001C060E090E080E096
:1050D00041E050E0282F269526952695782F777069
:1050E000F701E20FF11D861710F090130AC09A0124
:1050F00001C0220F7A95EAF720953081232320837F
:1051000009C0208130E002C0359527957A95E2F7F5
:1051100020FD9F5F8F5F8033E9F68091930891E0D7
:10512000909390068093B206109291061092B30667
:1051300060EB84E097E00E94C71907E0015041F05E
:10514000F70161917F0184E097E00E94C719F6CFD3
:1051500081E00E94B2238093920861E08FEF0E9469
:10516000822460E080E00E94822460E08FEF0E9451
:10517000822460E089E00E94822460E080E10E9455
:10518000822460E081E10E94822461E084E20E9446
:1051900082246FEF85E20E94822460E085E70E940E
:1051A000822461E08FEF0E9482246CE28EE40E94F0
:1051B000822460E088E40E94822460E280E30E940E
:1051C000822460E08FEF0E94822469E080E30E94E5
:1051D000822460E084E50E94822464E081E30E94EE
:1051E000822463E082E30E94822463E880E40E94D8
:1051F000822465E286E40E94822460E080E60E94C8
:10520000822460E087E20E94822466E080E50E94BA
:10521000822460E081E50E94822466E982E50E94A2
:10522000822468E086E50E94822460E387E50E948C
:10523000822460E081E60E94822460E082E60E948F
:10524000822460E084E60E94822460E085E60E9479
:10525000822460EA86E60E94822461E08FEF0E9449
:10526000822462E382E20E94822464E187E40E9455
:1052700082246FEF89E40E94822460E08AE40E9425
:10528000822460E08FEF0E9482246AE08AE70E9415
:10529000822460E08BE70E94822461E288E70E941A
:1052A000822461E08FEF0E94822464E383E20E9403
:1052B000822460E082E40E9482246FEF84E40E94F2
:1052C000822466E285E40E94822465E086E40E94EE
:1052D000822460E480E40E94822466E08EE00E94E2
:1052E00082246AE180E20E94822460E483E40E94D6
:1052F000822460E08FEF0E94822463E084E30E94B6
:10530000822464E485E30E94822461E08FEF0E949E
:10531000822464E081E30E94822469E08BE40E949D
:10532000822465E08CE40E94822464E08DE40E9483
:10533000822460E08FEF0E94822460E084E40E9477
:10534000822460E285E40E94822468E087E40E946F
:10535000822468E288E40E94822460E087E60E945A
:10536000822464E080E70E94822461E081E70E9459
:1053700082246EEF82E70E94822460E086E70E942A
:10538000822460E087E70E94822461E08FEF0E9420
:10539000822461E08DE00E94822460E08FEF0E9411
:1053A000822461E080E80E94822468EF81E00E940C
:1053B000822461E08FEF0E94822461E08EE80E94E7
:1053C000822461E080E00E94822460E08FEF0E94EE
:1053D000822460E080E80E94822464E08AE00E94E7
:1053E000822484E80E94A424682F6F7E84E80E94AF
:1053F000822461E08BE00E948224CE014D960E94BF
:10540000D120BE016F5F7F4FCE014D960E941220CA
:105410008D8D882349F08B859C85AD85BE858C5705
:10542000924FAF4FBF4F04C086E39BE0A0E0B0E0D7
:105430002F8D222369F04B855C856D857E854E54CA
:105440005D4F6F4F7F4F440F551F661F771F0BC077
:105450002E8D222361F04B855C856D857E854C56B3
:105460005D4F6F4F7F4F840F951FA61FB71F28A159
:10547000222361F04F85588969897A894C565D4F9E
:105480006F4F7F4F840F951FA61FB71F29A122239F
:1054900061F04B895C896D897E894A5D5D4F6F4FF4
:1054A0007F4F840F951FA61FB71F80939A08909374
:1054B0009B08A0939C08B0939D0868EE81E00E9431
:1054C0008224C0909A08D0909B08E0909C08F090AD
:1054D0009D08F0E2CF16FEE4DF06E104F10408F4D3
:1054E000C5C0CE014D960E94D120BE016F5F7F4F97
:1054F000CE014D960E9412208D8D882349F08B8518
:105500009C85AD85BE858C57924FAF4FBF4F04C071
:1055100086E39BE0A0E0B0E02F8D222369F04B856D
:105520005C856D857E854E545D4F6F4F7F4F440F78
:10553000551F661F771F0BC02E8D222361F04B85F0
:105540005C856D857E854C565D4F6F4F7F4F840F18
:10555000951FA61FB71F08A1002361F04F8558892A
:1055600069897A894C565D4F6F4F7F4F840F951F25
:10557000A61FB71F29A1222309F478C02C013D01E1
:1055800026E2420E22E0521E611C711CC414D50496
:10559000E604F70408F46AC0AB81B0E020E03FE223
:1055A0004AE350E00E94AB324B015C01A4EF8A0E4B
:1055B000A1E09A1EA11CB11CA7019601241935096E
:1055C00046095709A8EEB3E00E94AB322B013C011B
:1055D000C501B40120ED37E040E050E00E94F53213
:1055E000420E531E641E751EC501B40128EE33E041
:1055F00040E050E00E94F532C301B2010E94F53252
:10560000002331F08F819885280F391F411D511DCE
:105610002115310541055105E1F049015A01B1E07B
:105620008B1A9108A108B10860E070E0D501C401AF
:105630008827892B8A2B8B2B39F0B694A7949794C3
:1056400087946F5F7F4FF2CF762F6627682979297D
:1056500002C060E070E081E70E94E81FC0929A08F3
:10566000D0929B08E0929C08F0929D0861E081E056
:105670000E94822480E40E948123882369F062E0F2
:1056800081E00E94822480E00E948123882321F00F
:1056900068EE81E00E94822461E080E80E9482241A
:1056A00061E08FEF0E94822460E080E00E9482240B
:1056B0006091990881E90E94822461E080E00E9463
:1056C000822460E08FEF0E94822460E080E80E94E4
:1056D000822462E080E00E9482248FEF93E00E94A7
:1056E00076320E948B096DE873E0CE0101960E942C
:1056F000711423E041E060E0CE0101960E94B91FE1
:10570000CE0101960E94EE206CE271E080E090E014
:105710000E943B23612F70E06F5F7F4FCE01479661
:105720000E94202260EA73E0CE014D960E9471141F
:10573000BE01695E7F4FCE014D960E94F320BC01F1
:10574000CE0101960E94571420E043E060E0CE01B4
:1057500001960E94B91FCE0101960E94EE20CE0153
:105760004D960E94EE20CE0147960E94EE2068E5FD
:1057700072E080E090E00E943B236EEA73E0CE018D
:1057800001960E94711420E043E060E0CE01019692
:105790000E94B91FCE0101960E94EE206EEB73E0CD
:1057A000CE0101960E94711420E043E069E6CE012B
:1057B00001960E94B91FCE0101960E94EE2010E0D2
:1057C0000E94E00A0E94650A812F0E94B40C0E9488
:1057D0003F2162E070E080E090E00E943B231F5F89
:1057E0001F3F71F78091F904882359F00E947523B7
:1057F0000E948D0B68EC70E080E090E00E943B23FB
:10580000F1CF68EE73E080E090E00E943B2380ECF3
:1058100098E00E94C6243FE7E32E4EE0F42E57E0C6
:10582000252E53E0352E6FE7462E512C612C712C1E
:105830000E9475234B015C016093490570934A05F2
:1058400080934B0590934C050E94E00A0E942E0B1A
:105850006093400570934105809342059093430502
:10586000C501B4010E948D0B87E00E94740B811169
:1058700067C00E947523709398086093970883E12E
:105880000E94A4248770E1F4809194089091950877
:10589000892BA9F30E9475232091970830919808CD
:1058A000621B730B80919408909195088617970757
:1058B00030F781E080939608CC24CA94DC2C09C090
:1058C0008EE10E9457248C0161E08BE00E948224CB
:1058D0006801860106541109083EE3E01E0784F5BD
:1058E0000115110569F1609144057091450580919C
:1058F00046059091470528E030E040E050E00E94E6
:105900008C32A7E0B0E00E94AB3217FF02C0095F03
:105910001F4F23E0159507952A95E1F7012E000CFE
:10592000220B330BDC01CB01800F911FA21FB31F91
:105930008093440590934505A0934605B093470591
:105940000E94650A80911D0781110DC08091F704A6
:10595000882309F471C281E080931D0780913F057F
:10596000809323072DC080911E0781112CC0809148
:105970002E05882361F080911C07863019F410925F
:105980001C0703C08F5F80931C070E94060E809146
:105990003905882369F080911C07811104C0F6E065
:1059A000F0931C0703C0815080931C070E94060ED1
:1059B0008091F704882309F43FC281E080931E0799
:1059C0000E94060E39C2E0911C078E2F90E08730AE
:1059D000910508F00DC2FC01EA5AFF4F0C945A33AE
:1059E00080913905811108C080913405882311F117
:1059F00080913B058823F1F08091230790E0F89E89
:105A0000F001F99EF00D1124EF5FFE4F2585211165
:105A100002C02FE701C0215020932407F89EF00117
:105A2000F99EF00D1124EF5FFE4F809124078587CA
:105A30000E94060E80912E0581110AC080912905D1
:105A4000882309F4D5C180913005882309F4D0C199
:105A50002091230730E0F29EF001F39EF00D112417
:105A6000EF5FFE4F85858F5F87FD80E0F29EF0013E
:105A7000F39EF00D1124EF5FFE4F8587A9C0809142
:105A80003905811108C080913405882321F1809166
:105A90003B05882301F18091230790E0F89EF001F7
:105AA000F99EF00D1124EF5FFE4F2485211104C0F3
:105AB000AFE0A093240703C0215020932407F89E51
:105AC000F001F99EF00D1124EF5FFE4F8091240745
:105AD00084870E94060E80912E0581110AC0809154
