:100000000C943C070C9464070C9464070C946407EC
:100010000C9464070C9464070C9464070C946407B4
:100020000C9464070C9464070C94BE110C94A413F4
:100030000C9464070C9464070C9464070C94640794
:100040000C9464070C9464070C9464070C94640784
:100050000C9464070C9464070C9464070C94DB21E3
:100060000C9464070C9408160C94E2150C94640725
:100070000C9464070C9464070C9464070C94640754
:100080000C9464070C9464070C9464070C94640744
:100090000C948F1A0C9464070C9464070C946407F6
:1000A0000C9464070C9464070C946407C51EC81E66
:1000B000B71EBB1EC11EE91EE91EE91ECC1ED01EC6
:1000C000D41EDA1EDE1EE91EE41EAED580A81FD3A4
:1000D00000408D142002A1C8DA02817FD9F1DB40F3
:1000E000A4A6AFCA00198020006C696461722069FF
:1000F0006E6974206572726F722E0000000000231A
:1001000000260029002C002F00080B00020202012B
:10011000000904000001020200000524001001058E
:1001200024010101042402060524060001070581BB
:100130000310004009040100020A00000007050244
:100140000240000007058302400000040309041276
:10015000010002EF02014041233680000101020349
:100160000141726475696E6F204C4C4300417264AA
:1001700075696E6F204C656F6E6172646F0000036D
:100180000C0F30333C3FC0C3CCCFF0F3FCFF07066D
:1001900005040100080A0B0C0D09000000002400F2
:1001A00027002A002D0030000000000200090F0087
:1001B00000030401000C000000000000000000002B
:1001C0000000000000000022080D0E20600402055F
:1001D00006070809020303050802040204070407CE
:1001E000070707070707070202070707080E09089E
:1001F000080807070908020708070B080907090983
:10020000070808090D07080804040406080307077F
:10021000060707050707020306020A07070707057F
:10022000060507070B06070505010507080000007E
:100230000000000000FEFE18181E1E001E1E00001A
:1002400000000090F89E90F89E1C00001C00001812
:100250003C26FF66CC88040C183C180C041C221C9D
:10026000C0308E408000001804000C100C80CC7E42
:1002700072F2DE0C80000C1C1010101C0C1C101EE6
:100280001E0000F0FC061C7CC006FCF0C07C1C14A8
:10029000140E14140000000000606060FCFC60603C
:1002A000600000000C0C00000000005838C0C0C006
:1002B000C0000000000000181800C0380618040034
:1002C00000F8FC0E060EFCF8040C1C181C0C04189C
:1002D0000CFEFE00001C1C181C86C6663E1C181C6A
:1002E0001C18181818888C062626FEDC040C1C180E
:1002F000180C04C0E0B88CFEFE80040404041C1C2E
:1003000004707E3E3636F6C60C1C1818180C04F81D
:10031000FC6E6666EECC040C1818181C0C0606065B
:10032000E6761E0600001C1C0000009CFE66666649
:10033000FE9C0C1C1818181C0C3C7E666666FCF8AB
:100340000C1C18181C0C04181818181818583860A9
:1003500060F0F098980C0000000004040CD8D8D885
:10036000D8D8D8D8000000000000000C9898F0F011
:1003700060600C040400000000080C06C6E6763C31
:10038000180000001818000000E03008C4F63A1AFF
:100390001AF2FA7E0408F00C30604C9C98988C9C01
:1003A0009C90484C2000C0F8BE86BEF8C000181CC7
:1003B00004040404041C18FEFE66666666FEDC1C6B
:1003C0001C181818181C0CF8FC0E06060E9C0804C5
:1003D0000C1C18181C0C04FEFE0606060EFCF81C6D
:1003E0001C1818181C0C04FEFE66666666661C1C4B
:1003F0001818181818FEFE66666666061C1C0000B3
:10040000000000F8FC0E0606C6CEDCC8040C1C1862
:100410001818180C04FEFE60606060FEFE1C1C00D4
:100420000000001C1CFEFE1C1C8080000000FEFE64
:100430000C1C1818181C0CFEFE603078EC86021C90
:100440001C000000041C18FEFE00000000001C1C24
:100450001818181818FEFE0E7CE000E07C0EFEFE58
:100460001C1C00000C1C0C00001C1CFEFE1C78E078
:1004700080FEFE1C1C0000040C1C1CF8FC0E060672
:10048000060EFCF8040C1C1818181C0C04FEFE6662
:1004900066667E3C1C1C0000000000F8FC0E068610
:1004A000060EFCF8040C1C18181C0C1C24FEFE661E
:1004B00066E6E6BE1C001C1C0000000C1C18103C6C
:1004C0007E666666EECC0C1C1818181C0C06060618
:1004D000FEFE0606060000001C1C000000FEFE00DA
:1004E000000000FEFE040C1C18181C0C04021EFC6C
:1004F000E000E0FC1E020000001C1C1C00000006C6
:10050000FEF800F0FE0EFEF000F8FE0600001C1CD7
:100510001C0000001C1C1C0000060EF8F0F80E0663
:10052000181C0400041C18060E38F0F0380E0600E3
:1005300000001C1C000000060686E6761E0E06184B
:100540001C1C1818181818FEFE0606FCFCC0C00675
:1005500038C000000004180606FEFEC0C0FCFC20E7
:10056000380E0E38200000000000000000000000DF
:10057000000000808080808080808002060400006F
:10058000001098D858F8F0000C1C18180C1C10FE1D
:10059000FE301838F0E01C1C0C181C0C04E0F0189D
:1005A000183830040C18181C0CE0F0381830FEFE17
:1005B000040C1C180C1C1CE0F0D8D8D8F0E0040C7B
:1005C000181818180818FCFE1A1A001C1C0000E065
:1005D000F0381830F8F864ECDCD8CCFC7CFEFE3047
:1005E0001818F8F01C1C0000001C1CFAFA1C1C0057
:1005F000FAFAC0FC7CFEFEE0F098081C1C00041C0B
:1006000018FEFE1C1CF8F81018F8F01818F8F01C6A
:100610001C00001C1C00001C1CF8F8301818F8F016
:100620001C1C0000001C1CE0F0381838F0E0040C22
:100630001C181C0C04F8F8301838F0E0FCFC0C18FE
:100640001C0C04E0F0381830F8F8040C1C180CFCF2
:10065000FCF8F83018181C1C00000070F8D8D8D826
:1006600090081818181C0C18FCFE1818000C1C1800
:1006700018F8F8000000F8F80C1C18180C1C1C38AE
:10068000F8C000C0F83800001C1C1C000018F8E07E
:1006900000F038F000E0F81800001C1C0C000C1CE6
:1006A0001C00001838E0E03818181C04041C181846
:1006B000F8E000E0F8180084FCF83C04001898D832
:1006C00078381C1C18181880FC7E0606007CFCC0BC
:1006D000C0FEFC06067EFC80C0C0FC7C00603030A2
:1006E0007060603000000000000000FE02020202A4
:1006F0000202FE1C1010101010101C0000070E202B
:100700006000000000000000000000000000000089
:1007100000FC0000000000000D00000000003C0094
:100720003C0000000000000000000020F82020F83D
:100730002000010701010701006090F890100000FF
:1007400004040F0403000018249860100C000C022D
:10075000010609060030C8C8300000000708080973
:1007600006090000003C000000000000000000003E
:10077000000000E0180402000000030C102000023A
:100780000418E000000020100C0300000080A0C04E
:10079000C0A0800000020101020000808080F08083
:1007A0008080000000070000000000000000000042
:1007B00020180C04000000808080808080000000F1
:1007C00000000000000000000000000000081C08FD
:1007D00000000000008060180600180601000000FC
:1007E00000F008844408F000030408080403002013
:1007F0001008FC0000000000000F000000180404B6
:10080000844438000C0A09080808000804444444D9
:10081000B8000608080808070080601804FC0000FB
:10082000010101010F01007C24242424C4000608D6
:100830000808080700F884444444880007080808AA
:10084000080700040404C4340C00000C030000007A
:1008500000B844444444B800070808080807007872
:1008600084848444F8000408080808070000207005
:100870002000000000081C0800000000207020007C
:10088000000020180C040000008040201008000028
:1008900000010204080000404040404040000202C5
:1008A000020202020000081020408000000804023A
:1008B00001000004844424180000000D0000000022
:1008C00000F008C42424F8000304090A0A0300F80D
:1008D00084848484F8000F000000000F00FC44446E
:1008E000447880000F080808080700F8040404048E
:1008F000180007080808080600FC04040408F000B3
:100900000F080808040300FC4444444404000F0892
:100910000808080800FC4444444404000F00000098
:10092000000000F8040484849800070808080807F9
:1009300000FC40404040FC000F000000000F00049D
:1009400004FC0404000008080F080800000000046C
:100950000404FC0006080808080700FC4020D00832
:1009600004000F000000030C00FC00000000000069
:100970000F080808080800FC1860806018FC0F00C9
:10098000000100000FFC18608000FC000F00000157
:10099000060F00F804040404F80007080808080714
:1009A00000FC8484848478000F000000000000F8BC
:1009B00004040404F8000708080E181700FC8484D7
:1009C000848478000F0001020408003844448484C1
:1009D000080004080808080700040404FC040404D0
:1009E0000000000F000000FC00000000FC000708F1
:1009F0000808080700FC00000000FC0000030C0CC5
:100A0000030000FC0000C00000FC030C0300030C0A
:100A1000030C30C0C0300C000C030000030C003C81
:100A2000408080403C000000000F0000000404846F
:100A300044340C000C0A09080808000000FE0202F9
:100A4000020000003F202020000618608000000007
:100A500000000001061800020202FE000000202033
:100A6000203F0000001008040408100000000000EF
:100A700000000000000000000000202020202020B6
:100A80000000040C1820000000000000000000001E
:100A9000A0A0A0A0C00007080808040F00FC402088
:100AA0002020C0000F040808080700C020202020D4
:100AB000400007080808080400C020202040FC006F
:100AC00007080808040F00C020202020C0000709E4
:100AD000090909090080F88484840800000F0000D7
:100AE000000000C020202040E00023444444423F56
:100AF00000FC40202020C0000F000000000F00007C
:100B00002020EC0000000000000F0000000000208A
:100B100020EC0000102020201F0000FC008040205E
:100B200000000F01010204080000FC0000000000AA
:100B300000070808080000E02020C02020C00F00A7
:100B4000000300000FE040202020C0000F00000044
:100B5000000F00C020202020C00007080808080758
:100B600000E040202020C0007F020404040300C0F5
:100B700020202040E00003040404027F00E0402025
:100B8000202040000F000000000000C02020202096
:100B900040000409090909060020F820202000006F
:100BA00000070808080400E000000000E000070853
:100BB0000808040F00E000000000E00000030C0C37
:100BC000030000E00000800000E0070804030408C0
:100BD000072040808040200008040202040800E052
:100BE00000000000E00023444444423F0020202055
:100BF00020A06000080C0A090808000080807C0220
:100C000002000000001F2020000000FE0000000085
:100C100000001F0000000002027C808000002020F5
:100C20001F000000003008081020201800000000FD
:100C3000000000FEFEFEFEFEFEFE7F7F7F7F7F7FC8
:100C40007F000005072060000000000000005F003A
:100C5000000003000300143E143E14242A7F2A12CD
:100C600043330866613649552250000503000000F1
:100C70001C2241000041221C0014083E08140808F0
:100C80003E080800503000000808080808006060AE
:100C9000000020100804023E5149453E0004027F36
:100CA00000426151494622414949361814127F10C9
:100CB00027454545393E4949493201017109073601
:100CC00049494936264949493E0036360000005612
:100CD0003600000814224100141414141400412298
:100CE000140802015109063E4159555E7E09090961
:100CF0007E7F494949363E414141227F4141413E43
:100D00007F494949417F090909013E4141493A7FEB
:100D10000808087F00417F4100304040403F7F0885
:100D20001422417F404040407F020C027F7F02043A
:100D3000087F3E4141413E7F090909061E212121CC
:100D40005E7F09090976264949493201017F01017F
:100D50003F4040403F1F2040201F7F2010207F4108
:100D6000221C224107087008076151494543007F52
:100D700041000002040810200000417F000402012D
:100D800002044040404040000102040020545454FA
:100D9000787F444444383844444444384444447F8D
:100DA000385454541804047E0505085454543C7FA8
:100DB0000804047800447D40002040443D007F103A
:100DC00028440000417F40007C047804787C0804BB
:100DD000047838444444387C141414080814141457
:100DE0007C007C080404485454542004043F4444C8
:100DF0003C4040207C1C2040201C3C4030403C4477
:100E0000281028440C5050503C4464544C44000872
:100E100036414100007F00004141360800020102D6
:100E200004027F7F7F7F7F04080201104080401012
:100E30002040804080080204018040201002011000
:100E400080102040402000000000250028002B00DA
:100E50002E0031000404040404030405020202020B
:100E60000403020202020606060606060404020243
:100E700002040400782F682F11241FBECFEFDAE0A0
:100E8000DEBFCDBF15E0A0E0B1E0E8E6F9E602C0C4
:100E900005900D92AE31B107D9F729E0AEE1B5E08A
:100EA00001C01D92A03CB207E1F717E0CBE3D7E009
:100EB00004C02197FE010E949632CA33D107C9F7B8
:100EC0000E9425220C94A7340C9400008F929F92CC
:100ED000AF92BF92CF92DF92EF92FF920F931F9348
:100EE000FC0111861286168217826083808561114B
:100EF0000BC0811120C0118281E08087868322830C
:100F00003383448355831AC08823A9F0108681E077
:100F10008783C280D380E480F58049015A018C1810
:100F20009D08AE08BF080CE2801601E09006A104FF
:100F3000B1040CF481878181811117C080858823D9
:100F4000A1F082819381A481B58149015A01881A57
:100F5000990AAA0ABB0A05EF801601E09006A104CF
:100F6000B1041CF081E0828781831F910F91FF9073
:100F7000EF90DF90CF90BF90AF909F908F900895AB
:100F8000FC016093BC008091BC0087FFFCCF909176
:100F9000B900987F90830895CF92DF92EF92FF92ED
:100FA0000F931F93CF93DF93EC01C62ED42E8C8921
:100FB000882351F0411108C084E98093BC008091DE
:100FC000BC0084FDFCCF1C8AEC888E010E5E1F4F96
:100FD000E11014C0FB8864EAC8010E94C0078A8936
:100FE000883011F1803101F1DD2011F080E4E82E2C
:100FF000E092BB0064E8C8010E94C007C092BB0039
:1010000064E8C8010E94C00782E0D81204C08C893D
:101010008F5F8C8B11C084E98093BC008091BC00F1
:1010200084FDFCCF1C8A08C0FF0CF092BB0064E872
:10103000C8010E94C007D8CFDF91CF911F910F91B7
:10104000FF90EF90DF90CF900895089580E090E0BA
:101050000895CF92DF92EF92FF926B017C01809115
:10106000730590917405A0917505B091760524E003
:10107000B695A795979587952A95D1F7682F6170B2
:10108000A701960187E695E00E94660780917305A7
:1010900090917405A0917505B091760535E0B695EF
:1010A000A795979587953A95D1F7682F6170A70115
:1010B00096018CE595E00E946607809173059091FA
:1010C0007405A0917505B091760546E0B695A79593
:1010D000979587954A95D1F7682F6170A70196017A
:1010E00085E295E00E946607609173056170A70133
:1010F000960180E395E00E946607809173059091C8
:101100007405A0917505B0917605B695A79597954C
:101110008795682F6170A70196018BE395E00E9487
:1011200066078091730590917405A0917505B09143
:10113000760562E0B695A795979587956A95D1F75C
:10114000682F6170A701960186E495E00E9466070A
:101150008091730590917405A0917505B091760505
:1011600073E0B695A795979587957A95D1F7682FEF
:101170006170A701960181E595E0FF90EF90DF9007
:10118000CF900C9466074F925F926F927F928F92EE
:101190009F92AF92BF92CF92DF92EF92FF920F9306
:1011A0001F93CF93DF9360E08CE00E94EA1E8FE0F4
:1011B00090E00197F1F761E08CE00E94EA1EC7E041
:1011C000D0E0812C912C54019DEA692E91E0792E7A
:1011D0002CE2E22E2EE0F22E39E5C32E3EE0D32E95
:1011E0000FE010E0F3018491F7015490F601449070
:1011F0004420A1F081110E94AD1EE42DF0E0EE0F1D
:10120000FF1FE550FF4FA591B4918C91582231E01A
:1012100020E009F430E0832F922F02C080E090E0BC
:10122000092E000CAA0BBB0B0C2E04C0880F991FB3
:10123000AA1FBB1F0A94D2F7882A992AAA2ABB2A76
:1012400061E086E00E94EA1EC8010197F1F760E0C4
:1012500086E00E94EA1E219708F0C4CFC501B401C0
:10126000DF91CF911F910F91FF90EF90DF90CF9082
:10127000BF90AF909F908F907F906F905F904F90B6
:1012800008956F927F928F929F92AF92BF92CF926A
:10129000DF92EF92FF920F931F93CF93DF9390EC27
:1012A000699FB0011124672F770F770B6B01FFE166
:1012B000CF22DD24A3E0CC0CDD1CAA95E1F7822E21
:1012C000912CC42FD0E0EE24EA94F12C87010C1B62
:1012D0001D0B089DD001099DB00D189DB00D112466
:1012E0004B2FCC9E5001CD9EB00CDC9EB00C112437
:1012F000AB2CBB2400E011E038016A187B08689C25
:101300005001699CB00C789CB00C1124EC18FD08BD
:10131000EC9E6001ED9ED00CFC9ED00C1124CD2CD7
:10132000DD240C191D09089DE001099DD00D189DB3
:10133000D00D1124629566956770623091F038F493
:10134000662369F06130D9F4522FEB2D19C0643057
:1013500081F058F0653099F45B2F4B2D0EC05D2F56
:101360000CC0522FEB2F4D2F0BC05B2DEB2F422FBC
:1013700007C05B2F422FED2F03C0E22F01C040E0DA
:10138000682F70E0209190093091910962177307DE
:1013900008F03FC020919609222361F0E29FF001FE
:1013A0001124EF2F259FD00111245B2F249F900142
:1013B0001124432FF0919C0990919909209197094C
:1013C00030919809F91308C0B901F3E08F9F600DBF
:1013D000711D1124CB010BC0CB01880F991F880F01
:1013E000991F820F931FDC01AF0FB11D1C9220913A
:1013F0009909DC01A20FB11DEC9320919A09FC011F
:10140000E20FF11D508320919B09FC01E20FF11DB9
:101410004083DF91CF911F910F91FF90EF90DF906C
:10142000CF90BF90AF909F908F907F906F900895D6
:10143000CF93DF93CFE7D9E081E08C830E94DF1F59
:10144000688379838A839B832FEF40E060E081E0AB
:10145000DF91CF910C944109EF92FF920F931F936C
:10146000CF93DF9300D000D0CDB7DEB7E82EF62EB5
:10147000142F01E0040F0E94180A1031C0F4612FEC
:10148000606980913008909131080E94BD1B6E2DDB
:101490006F7780913008909131080E94BD1B6F2DAD
:1014A0006F7780913008909131080E94BD1B89E0D0
:1014B000898300690A83EB82FC828091F30744E010
:1014C00050E0BE016F5F7F4F8F5F0E9477120F90D9
:1014D0000F900F900F90DF91CF911F910F91FF9080
:1014E000EF900895EF92FF920F931F93CF93DF93A6
:1014F00000D000D0CDB7DEB7E82EF62E142F01E0D5
:10150000040F0E94180A1031C0F4612F606B8091A3
:101510003008909131080E94BD1B6E2D6F7780912D
:101520003008909131080E94BD1B6F2D6F7780911C
:101530003008909131080E94BD1B81E0809388099A
:101540000E94DF1F60938409709385098093860948
:10155000909387092FEF40E060E082E00E9441090C
:101560008BE08983006B0A83EB82FC828091F30716
:1015700044E050E0BE016F5F7F4F8F5F0E947712A3
:101580008091F3078F5F0E94B4110F900F900F901E
:101590000F90DF91CF911F910F91FF90EF900895E1
:1015A000EF92FF920F931F93CF93DF93CDB7DEB7E8
:1015B00068970FB6F894DEBF0FBECDBF0E94DF1F45
:1015C00060930008709301088093020890930308C9
:1015D00084EA99E00E9443208091FE07811102C1B4
:1015E0006091FC07CE0107960E94FB1D64E474E045
:1015F000CE0101960E949F11BE01695F7F4FCE010F
:1016000001960E94E81DBC01CE010D960E94851135
:1016100020E040E060E0CE010D960E945C20CE010B
:101620000D960E949920CE0101960E949920CE012C
:1016300007960E94992069E574E0CE0101960E9408
:101640009F1120E043E060E0CE0101960E945C2003
:10165000CE0101960E9499206CE574E0CE010196BE
:101660000E949F1120E043E06FE3CE0101960E94AB
:101670005C20CE0101960E9499206FE574E0CE01B6
:1016800001960E949F1120E043E063E7CE0101969E
:101690000E945C20CE0101960E9499208091FC0757
:1016A000823009F46BC0D8F4882321F1813009F02D
:1016B000F0C160910408CE0107960E94FB1D62E60E
:1016C00074E0CE0101960E949F11BE01695F7F4FB9
:1016D000CE0101960E94E81D6CE774E067C084307B
:1016E00009F47DC008F44DC0853009F0D2C16CE921
:1016F00074E0C0C1E09104088FE0E89FF00111247C
:10170000EE5FFE4F6685CE010D960E94FB1D609137
:101710000408CE0107960E94FB1D62E674E0CE012C
:1017200001960E949F11BE01695F7F4FCE01019615
:101730000E94E81D6DE674E00E944B11BE01635FDC
:101740007F4F0E94E81DBC01CE0143960E94851187
:1017500021E041E060E0CE0143960E945C20CE0192
:1017600043960E949920CE0101960E949920CE01B5
:1017700007960E949920CE010D9689C162E774E018
:1017800079C160910408CE0107960E94FB1D67E6AF
:1017900074E0CE0101960E949F11BE01695F7F4FE8
:1017A000CE0101960E94E81D65E874E00E944B118D
:1017B000BC01CE010D960E94851121E041E060E060
:1017C000CE010D960E945C20CE010D960E949920BC
:1017D000CE0101960E949920CE01079658C160E97A
:1017E00074E048C168EA74E0CE0101960E949F113E
:1017F00020E040E060E0CE0101960E945C20CE0136
:1018000001960E9499206DEB74E0CE0101960E9432
:101810009F1120E043E060E0CE0101960E945C2031
:10182000CE0101960E9499206FEB74E0CE010196E3
:101830000E949F1120E043E06CE3CE0101960E94DC
:101840005C20CE0101960E94992064EC74E0CE01E8
:1018500001960E949F1120E043E068E7CE010196C7
:101860000E945C20CE0101960E9499208091FC0785
:10187000813009F482C048F0823009F4F9C0833025
:1018800009F007C164EF74E0F5C0E0910408AFE02F
:10189000EA9FF0011124EE5FFE4F6685CE010D96A2
:1018A0000E94FB1D60910408CE0107960E94FB1D5B
:1018B00067E674E0CE0101960E949F11BE01695F48
:1018C0007F4FCE0101960E94E81D66EC74E00E94F5
:1018D0004B11BE01635F7F4F0E94E81DBC01CE012A
:1018E00043960E94851121E041E060E0CE014396DD
:1018F0000E945C20CE0143960E949920CE01019661
:101900000E949920CE0107960E949920CE010D9643
:101910000E94992092E0E92E91E0F92E10E00FE06C
:10192000E0910408E11711F10E9FF0011124EE5F20
:10193000FE4F9685D7011E968C911E97981316C060
:1019400095851D968C91981311C06CEC74E0CE01B6
:1019500001960E949F1120E043E069E1CE010196CB
:101960000E945C20CE0101960E9499201F5FBFE07B
:10197000EB0EF11C1532A1F68CC0E09104088FE04B
:10198000E89FF0011124EE5FFE4F658570E06F5F08
:101990007F4FCE010D960E94341E60910408CE0147
:1019A00007960E94FB1D67E674E0CE0101960E9437
:1019B0009F11BE01695F7F4FCE0101960E94E81D15
:1019C0006CED74E00E944B11BE01635F7F4F0E947B
:1019D000E81DBC01CE0143960E94851121E041E043
:1019E00060E0CE0143960E945C20CE0143960E94A7
:1019F0009920CE0101960E949920CE0107960E945F
:101A00009920CE010D960E94992082E0E82E81E077
:101A1000F82E10E00FE0E0910408E11711F10E9F9D
:101A2000F0011124EE5FFE4F9685D7011E968C9132
:101A30001E97981316C095851D968C91981311C00A
:101A40006CEC74E0CE0101960E949F1120E043E00F
:101A500069E1CE0101960E945C20CE0101960E94B0
:101A600099201F5FBFE0EB0EF11C1532A1F611C0EB
:101A700062EE74E0CE0101960E949F1121E041E0E8
:101A800060E0CE0101960E945C20CE0101960E948A
:101A9000992068960FB6F894DEBF0FBECDBFDF91D8
:101AA000CF911F910F91FF90EF9008951F93CF93C7
:101AB000DF93CDB7DEB762970FB6F894DEBF0FBEE7
:101AC000CDBFE09172051FE01E9FF0011124EE5F73
:101AD000FE4F6685CE0107960E94FB1D67EC74E001
:101AE000CE0101960E949F11BE01695F7F4FCE011A
:101AF00001960E94E81DBC01CE010D960E94851141
:101B000020E040E060E0CE010D960E945C20CE0116
:101B10000D960E949920CE0101960E949920CE0137
:101B200007960E949920E09172051E9FF0011124F2
:101B3000EE5FFE4F6585CE0107960E94FB1D6DEDA1
:101B400074E0CE0101960E949F11BE01695F7F4F34
:101B5000CE0101960E94E81DBC01CE010D960E94A7
:101B6000851120E040E06AE5CE010D960E945C20E0
:101B7000CE010D960E949920CE0101960E949920D7
:101B8000CE0107960E94992062960FB6F894DEBFA8
:101B90000FBECDBFDF91CF911F9108951F93CF93BB
:101BA000DF93CDB7DEB762970FB6F894DEBF0FBEF6
:101BB000CDBF84EA99E00E9443200E94560D6091B7
:101BC0007205CE0101960E94FB1D23E040E067E311
:101BD000CE0101960E945C20CE0101960E949920C0
:101BE000E09172051FE01E9FF0011124EE5FFE4F91
:101BF0006581CE0107960E94FB1D62E075E0CE0173
:101C000001960E949F11BE01695F7F4FCE01019630
:101C10000E94E81DBC01CE010D960E94851120E0B6
:101C200043E060E0CE010D960E945C20CE010D964F
:101C30000E949920CE0101960E949920CE0107961C
:101C40000E949920E09172051E9FF0011124EE5F21
:101C5000FE4F6681CE0107960E94FB1D68E075E08D
:101C6000CE0101960E949F11BE01695F7F4FCE0198
:101C700001960E94E81DBC01CE010D960E948511BF
:101C800021E042E061E4CE010D960E945C20CE018D
:101C90000D960E949920CE0101960E949920CE01B6
:101CA00007960E94992060917205CE0101960E94CC
:101CB000FB1D23E040E067E3CE0101960E945C201B
:101CC000CE0101960E94992062960FB6F894DEBF6D
:101CD0000FBECDBFDF91CF911F9108951F93CF937A
:101CE000DF93CDB7DEB762970FB6F894DEBF0FBEB5
:101CF000CDBF84EA99E00E9443200E94560D609176
:101D00007205CE0101960E94FB1D23E040E067E3CF
:101D1000CE0101960E945C20CE0101960E9499207E
:101D2000E09172051FE01E9FF0011124EE5FFE4F4F
:101D30006581CE0107960E94FB1D6DE075E0CE0126
:101D400001960E949F11BE01695F7F4FCE010196EF
:101D50000E94E81DBC01CE010D960E94851121E074
:101D600042E060E0CE010D960E945C20CE010D960F
:101D70000E949920CE0101960E949920CE010796DB
:101D80000E949920E09172051E9FF0011124EE5FE0
:101D9000FE4F6681CE0107960E94FB1D62E175E051
:101DA000CE0101960E949F11BE01695F7F4FCE0157
:101DB00001960E94E81DBC01CE010D960E9485117E
:101DC00020E043E060E5CE010D960E945C20CE014C
:101DD0000D960E949920CE0101960E949920CE0175
:101DE00007960E94992060917205CE0101960E948B
:101DF000FB1D23E040E067E3CE0101960E945C20DA
:101E0000CE0101960E94992062960FB6F894DEBF2B
:101E10000FBECDBFDF91CF911F9108951F93CF9338
:101E2000DF93CDB7DEB762970FB6F894DEBF0FBE73
:101E3000CDBF84EA99E00E9443200E94560DE091B4
:101E400072051FE01E9FF0011124EE5FFE4F6581B9
:101E5000CE0107960E94FB1D62E075E0CE0101965F
:101E60000E949F11BE01695F7F4FCE0101960E94C3
:101E7000E81DBC01CE010D960E94851120E043E0D3
:101E800060E0CE010D960E945C20CE010D960E946E
:101E90009920CE0101960E949920CE0107960E94BA
:101EA0009920E09172051E9FF0011124EE5FFE4F14
:101EB0006681CE0107960E94FB1D62E175E0CE01AE
:101EC00001960E949F11BE01695F7F4FCE0101966E
:101ED0000E94E81DBC01CE010D960E94851120E0F4
:101EE00043E060E5CE010D960E945C20CE010D9688
:101EF0000E949920CE0101960E949920CE0107965A
:101F00000E94992060917205CE0101960E94FB1DEE
:101F100023E041E067E3CE0101960E945C20CE0100
:101F200001960E94992062960FB6F894DEBF0FBE0C
:101F3000CDBFDF91CF911F9108954091D706509169
:101F4000D8062091D5063091D60642175307B4F42F
:101F50009091E8009570E1F39091E80092FD19C02E
:101F60008093F1008091D7069091D80601968F73E7
:101F70009927892B19F48EEF8093E8008091D7067A
:101F80009091D80601969093D8068093D70681E069
:101F9000089580E00895615030F02091F100FC0137
:101FA00020830196F8CF289884E68093DA06089576
:101FB000CF92DF92EF92FF920F931F93CF93DF9315
:101FC0006C017A018B01C0E0D0E0CE15DF0581F015
:101FD000D8016D918D01D601ED91FC910190F081B8
:101FE000E02DC6010995892B11F02196EECF7E01D7
:101FF000C701DF91CF911F910F91FF90EF90DF907C
:10200000CF900895FC01538D448D252F30E0842F0F
:1020100090E0821B930B541710F0CF960895019710
:102020000895FC01918D828D981761F0828DDF01FA
:10203000A80FB11D5D968C91928D9F5F9F73928FBB
:1020400090E008958FEF9FEF0895FC01918D828DB0
:10205000981731F0828DE80FF11D858D90E008957D
:102060008FEF9FEF0895FC01918D228D892F90E0D5
:10207000805C9F4F821B91098F739927089586ED8D
:1020800098E00E94331021E0892B09F420E0822F90
:102090000895FC01848DDF01A80FB11DA35ABF4F25
:1020A0002C91848D90E001968F739927848FA68957
:1020B000B7892C93A089B1898C9182748C93938D6C
:1020C000848D981306C00288F389E02D80818F7D6E
:1020D00080830895EF92FF920F931F93CF93DF9326
:1020E000EC0181E0888F9B8D8C8D981305C0E88969
:1020F000F989808185FD26C0F62E0B8D10E00F5FDB
:102100001F4F0F731127E02E8C8DE8120CC00FB6F5
:1021100007FCFACFE889F989808185FFF5CFCE01E8
:102120000E944910F1CF8B8DFE01E80FF11DE35A9B
:10213000FF4FF0829FB7F8940B8FEA89FB8980816B
:10214000806209C09FB7F894EE89FF896083E889AF
:10215000F9898081827480839FBF81E090E0DF9164
:10216000CF911F910F91FF90EF900895CF93DF9340
:10217000EC01888D8823C9F0EA89FB89808185FD7F
:1021800005C0A889B9898C9186FD0FC00FB607FCE0
:10219000F5CF808185FFF2CFA889B9898C9185FF21
:1021A000EDCFCE010E944910E7CFDF91CF91089586
:1021B00080E090E0892B29F00E943F1081110C945F
:1021C000000008950E9492340F931F93CF93DF93E2
:1021D000EC0188819981009729F02A813B8126179B
:1021E000370788F48B016F5F7F4F0E94CC330097D5
:1021F00061F0998388831B830A832C813D81232B83
:1022000011F4FC01108281E001C080E0DF91CF91E8
:102210001F910F910895EF92FF920F931F93CF9309
:10222000DF936115710511F480E01CC04115510563
:10223000C1F07B01EC018C819D818A01080F191F7F
:10224000B801CE010E94E410882371F328813981FE
:102250008C819D81B701820F931F0E94A0341D8342
:102260000C8381E0DF91CF911F910F91FF90EF9050
:102270000895CF93DF93EC0188819981009711F045
:102280000E944333198218821D821C821B821A828B
:10229000DF91CF910895CF93DF93EC016115710524
:1022A00061F0FB0101900020E9F73197AF01461B77
:1022B000570B0E940B11811103C0CE010E943911EE
:1022C000CE01DF91CF910895EF92FF920F931F936C
:1022D000CF93DF93EC017B018A01BA010E94E410E5
:1022E000811104C0CE010E94391107C01D830C83E7
:1022F000B701888199810E94A034CE01DF91CF91EE
:102300001F910F91FF90EF900895FB01DC01119652
:102310001C921E9213961C921E92129715961C9256
:102320001E9214978617970749F060817181611595
:10233000710521F0448155810C9464110895FC01CC
:102340001182108213821282158214826115710526
:1023500051F0FB0101900020E9F73197AF01461BD6
:10236000570B0C94641108958093E9008091F2005A
:10237000882319F08AE38093E80008951F920F9252
:102380000FB60F9211242F933F934F935F936F9348
:102390007F938F939F93AF93BF93CF93EF93FF93CD
:1023A000C091E1008091E100837F8093E100C3FF51
:1023B0000FC01092E90081E08093EB001092EC00D6
:1023C00082E38093ED001092200588E08093F00076
:1023D000C2FF19C083E00E94B4118091DB068823FC
:1023E00039F08091DB0681508093DB06882389F1E8
:1023F0008091DA06882339F08091DA068150809343
:10240000DA06882341F1C4FF10C08091E2008E7E7D
:1024100081608093E2008091E1008F7E8093E100F3
:1024200080911E058E7E806111C0C0FF16C0809114
:10243000E2008E7E80618093E2008091E1008E7EDA
:102440008093E10080911E058E7E816080931E0541
:1024500004C05D9ACDCF289AD6CFFF91EF91CF914E
:10246000BF91AF919F918F917F916F915F914F91AC
:102470003F912F910F900FBE0F901F901895DF92F4
:10248000EF92FF920F931F93CF93DF93D82E8A0181
:102490007B01E40EF51EEB01CE15DF0571F0D7FED2
:1024A00003C0FE01849101C088810E949D0F219686
:1024B0008111F2CF8FEF9FEF01C0C801DF91CF9163
:1024C0001F910F91FF90EF90DF9008952FB7F89430
:1024D00087708093E9009091E800892F807295FFC2
:1024E00004C09091F20080E4891B2FBF08957F9271
:1024F0008F929F92AF92BF92CF92DF92EF92FF9214
:102500000F931F93CF93DF93C82E8B017A01809195
:102510002005811103C08FEF9FEF74C080911E05CD
:1025200080FF05C08091E00082608093E000CE2DA6
:10253000DF2DD12C8AEFB82E8C2D8770982E8C2D04
:102540008072882E8C2D8074782E9AE3A92E209785
:1025500019F4DD2009F451C08C2D0E9466128111FE
:102560000AC0BA94BB20B9F261E070E080E090E06C
:102570000E94A51FECCF282F30E0C217D3070CF420
:102580008C2F9FB7F8949092E9002091E80025FFE6
:1025900032C0282F30E0C21BD30B882029F0815095
:1025A000A0F01092F100FBCFF801C7FE0AC08150E5
:1025B00050F044914093F1003196F9CF419140930E
:1025C000F1008150D8F7020F131FDD2019F0A092FF
:1025D000E8000AC08091E80085FD08C0A092E800EC
:1025E000DD24D394209739F0D12C05C0209719F41D
:1025F0007110A092E8009FBFAACF5D9884E68093F7
:10260000DB06C701DF91CF911F910F91FF90EF90F3
:10261000DF90CF90BF90AF909F908F907F90089564
:10262000CF93DF93EC0180913803882331F083E06E
:102630000E9477121816190634F081E090E09B830F
:102640008A8380E090E0DF91CF91089590912005FA
:10265000992311F057FF03C08FEF9FEF08959FB7A5
:10266000F89487708093E9002091F20030E04217DF
:1026700053070CF49A01822FFB0144E6815038F095
:1026800028984093DA065091F1005193F7CF211525
:10269000310521F08091F200882319F09FBFC90114
:1026A00008958BE68093E800F9CF9FB7F894877080
:1026B0008093E9008091F2009FBF08958091CD063C
:1026C00081110DC082E08093C90684E08093CA0620
:1026D0001092CC061092CB0681E08093CD0689EC57
:1026E00096E008950F931F93CF93DF931F92CDB77A
:1026F000DEB782E0898342E450E069E071E080E87F
:102700000E943F120E945E13DC0112960D911C91F3
:1027100013970115110589F0D801ED91FC91028004
:10272000F381E02DBE016F5F7F4FC801099597FDD2
:1027300004C0F80100851185ECCF89810F90DF91ED
:10274000CF911F910F9108951F920F920FB60F9284
:102750001124CF92DF92EF92FF920F931F932F934A
:102760003F934F935F936F937F938F939F93AF9319
:10277000BF93EF93FF93CF93DF93CDB7DEB76C9703
:10278000DEBFCDBF1092E9008091E80083FFFBC15E
:1027900068E0CE0145960E94CB0F82EF8093E8005F
:1027A0008D8987FF05C09091E80090FFFCCF03C0A2
:1027B0009EEF9093E800982F907609F0C6C09E890E
:1027C0004F89588D2F89F88C91110CC0803829F4CD
:1027D00080911F058093F10002C01092F1001092C9
:1027E000F10045C1913051F4811141C14130510591
:1027F00009F03DC180911F058D7F0BC0933061F4BE
:10280000811135C14130510509F031C180911F0559
:10281000826080931F052BC1953049F48091E800B8
:1028200080FFFCCF822F80688093E30020C1963028
:1028300009F05EC00B8D1C8D22E01092E900109211
:10284000D8061092D706F21232C01092D606109215
:10285000D5060E94721399E0BE016F5F7F4FDB01C6
:10286000E92F1D92EA95E9F79983FA8291E09E8318
:1028700090EA98879AEF99872091D7063091D806E9
:10288000275F3F4F3C832B838D831092E90010928A
:10289000D8061092D7061093D6060093D50649E0C5
:1028A00050E080E00E943F120E947213E0C010933B
:1028B000D6060093D5060E945E13DC0112960D9198
:1028C0001C9113970115110509F4BBC0D801ED91B6
:1028D000FC910480F581E02DBE016B5E7F4FC80145
:1028E0000995009709F0C7C0F80100851185EACF66
:1028F000973009F445C1983021F481E08093F100CC
:10290000B6C0993009F0B3C0837009F039C1EAE369
:10291000F3E081E031E096E32081211109C08EE7E8
:102920008093EA001092EA008F89809320059FC06F
:102930008093E9003093EB0021912093EC00909379
:10294000ED008F5F873041F7EACF8B8D9C8D109221
:10295000E9001092D8061092D7069093D60680937D
:10296000D506898D811153C08E899D89913A49F48C
:10297000813209F005C147E050E061E373E080E097
:10298000BBC0913209F0FCC0833269F48F89988D05
:10299000A0E0B0E080932D0390932E03A0932F032B
:1029A000B093300364C0803269F48091E80082FF04
:1029B000FCCF67E081E393E00E94CB0F8BEF809325
:1029C000E80055C0823209F052C08F8980933803E5
:1029D000EEEFFFE7859194918B3F9C4D19F0E0E07D
:1029E000F8E002C0EEEFFAE08091310390913203FB
:1029F000A0913303B0913403803B9440A105B1050D
:102A000009F09EC08091380380FF79C099C00E9470
:102A10005E13FC01028113810115110509F4B0C098
:102A2000D801ED91FC910190F081E02DBE016B5E2B
:102A30007F4FC801099581111AC0F80100851185E1
:102A4000EBCFF1E0FF1609F44EC0F3E0FF1298C09F
:102A50008F89882309F44AC0823089F440E860E114
:102A60008DE691E00E94332F882309F489C08EEF10
:102A70008093E80088C018161906CCF381C0813015
:102A800029F440E86BE081E691E0ECCF833009F077
:102A900077C00E945E13DC011296ED90FC901397B4
:102AA0008E010F5F1F4F6801E114F10479F0D70127
:102AB000ED91FC910680F781E02DB801C7010995E1
:102AC000080F111DF701E084F184EECFD8011C92AC
:102AD000F60101900020E9F73197BF016C197D09DB
:102AE00040E0C601BFCF6FE471E002C06BE471E06B
:102AF000FB01449150E080E80E943F12B8CFEE3FC6
:102B00002AE0F20751F0808191818737A7E79A0781
:102B100021F09093FF0A8093FE0A87E797E791835D
:102B20008083809160008093D9069BE088E10FB696
:102B3000F894A895809360000FBE9093600097CFA3
:102B4000808191818737974709F091CFA89580912F
:102B500060008861809360008091D9068093600056
:102B6000EE3FBAE0FB0739F08091FE0A9091FF0A30
:102B7000918380837CCF1092FF0A1092FE0A77CF58
:102B800081E28093EB006C960FB6F894DEBF0FBE27
:102B9000CDBFDF91CF91FF91EF91BF91AF919F9109
:102BA0008F917F916F915F914F913F912F911F91E5
:102BB0000F91FF90EF90DF90CF900F900FBE0F908E
:102BC0001F9018951F920F920FB60F9211242F93FA
:102BD0003F934F935F936F937F938F939F93AF93A5
:102BE000BF93EF93FF9386ED98E00E944910FF9109
:102BF000EF91BF91AF919F918F917F916F915F9175
:102C00004F913F912F910F900FBE0F901F901895ED
:102C10001F920F920FB60F9211242F938F939F93B1
:102C2000EF93FF93E091E608F091E7088081E0914F
:102C3000EC08F091ED0882FD12C090818091EF08C0
:102C40008F5F8F732091F008821751F0E091EF08A9
:102C5000F0E0EA52F74F958F8093EF0801C0808132
:102C6000FF91EF919F918F912F910F900FBE0F9039
:102C70001F901895CF93DF931F92CDB7DEB769836E
:102C8000DC01ED91FC910280F381E02D41E050E008
:102C9000BE016F5F7F4F09950F90DF91CF9108952F
:102CA000CF93DF93EC018D85882319F081508D87B8
:102CB00011C09C818E81981768F488896827E88103
:102CC000F9810084F185E02D42E0CE0109958C81E7
:102CD0008F5F8C83DF91CF91089585ED8093BC0049
:102CE0008091BC0084FDFCCF10926F070895409145
:102CF000FC06262F30E0240F311D21323105DCF493
:102D000020916F072430C9F4FC0180E090E0861721
:102D100058F43091FC062191DC01A452B94FA30F65
:102D2000B11D2C930196F3CF8091FC06680F609340
:102D3000FC0680E0089581E0089582E008950895FA
:102D400008950895E091280780912707E81730F447
:102D5000F0E0E75DF84F808190E008958FEF9FEFFE
:102D600008959091280780912707981750F4E92F2C
:102D7000F0E0E75DF84F208130E09F5F90932807F7
:102D800002C02FEF3FEFC90108958091270790E01F
:102D900020912807821B91090895CF92DF92EF922C
:102DA000FF920F931F93CF93DF937C01CB018A0196
:102DB00020917007222389F0EB016B01C40ED51E10
:102DC000CC15DD0569F06991D701ED91FC91019079
:102DD000F081E02DC7010995F3CF642F0E9477168B
:102DE000C801DF91CF911F910F91FF90EF90DF907D
:102DF000CF900895CF93DF931F92CDB7DEB769834D
:102E0000209170072223D1F020919307203240F0C7
:102E100021E030E0FC013383228380E090E015C0A4
:102E200080917107E82FF0E0EE58F84F9981908378
:102E30008F5F809371078093930705C061E0CE0197
:102E400001960E94771681E090E00F90DF91CF917C
:102E5000089580E090E0089580E00895FC0182816B
:102E60008F5BFB01808381E0089583E00C94B411B3
:102E700083E00E94661290E008950F931F93CF9312
:102E8000DF931F92CDB7DEB78C01FC018485958559
:102E900097FF12C041E050E0BE016F5F7F4F82E0BC
:102EA0000E942613019719F4898190E002C08FEFE8
:102EB0009FEFF80195878487F801848595850F90A9
:102EC000DF91CF911F910F910895CF93DF931F92C0
:102ED000CDB7DEB7FC018485958597FD05C02FEF42
:102EE0003FEF358724870FC041E050E0BE016F5FA0
:102EF0007F4F82E00E942613019719F4898190E0A8
:102F000002C08FEF9FEF0F90DF91CF910895FC01EA
:102F10008485958597FD06C082E00E94551390E058
:102F20000196089582E00E94551390E0089584E090
:102F3000E8E1F5E0DB0101900D928A95E1F784E08C
:102F40000895CF92DF92EF92FF920F931F93CF934A
:102F5000DF93CDB7DEB7C456D1090FB6F894DEBF04
:102F60000FBECDBF6C01DB019C919E5F9C93FE0167
:102F7000319684E6DF011D928A95E9F788E089831E
:102F80008BE08A8322E02C8391E09D839E8339E04D
:102F9000398774E07A879E879F873A8B44E24B8B10
:102FA0009C8B00E011E01E8B0D8B89E0E82EF12C4C
:102FB000F88EEF8A998F3B8F7C8F2F8F98A353E0E9
:102FC00059A387E08CA34DA39EA318A70FA301E4E8
:102FD00010E01AA709A786E08BA74CA72DA79EA7EC
:102FE0009FA789AB4AAB2BAB2CAB2DAB3FAB48AF0C
:102FF00059AF9AAF5BAF9CAF2DAF9EAF21963FAF5D
:10300000219722964FAF229723965FAF239724965E
:103010002FAF249725967FAF259726969FAF2697AB
:1030200027969FAF279728969FAF28972A963FAF5E
:103030002A9745E02B964FAF2B972D962FAF2D97C4
:1030400060E470E02F967FAF6EAF2F9763964FAF1F
:10305000639785E264968FAF649765969FAF659797
:1030600066969FAF669767969FAF679768963FAFE4
:10307000689769964FAF69976B962FAF6B976D9670
:103080007FAF6EAF6D97A1964FAFA197A2968FAF0E
:10309000A297A3969FAFA397A4969FAFA497A59638
:1030A0005FAFA597D60112969C9112979B839B8741
:1030B0009F5F9A8F9D8F13968C912C968FAF2C9734
:1030C0008F5F80686A968FAF6A9744E650E0BF01D1
:1030D00080E00E943F12CC59DF4F0FB6F894DEBF5C
:1030E0000FBECDBFDF91CF911F910F91FF90EF9059
:1030F000DF90CF900895DC01ED91FC910084F18583
:10310000E02D40E00994FC0187818695869586959F
:10311000681740F465839385690F6770606BCF0112
:103120000C947B1808950F931F93CF93FC01268175
:103130006217A0F4C62F8C0164839085C90F6C2F91
:103140006F70CF010E947B186C2F62956F70606169
:10315000C801CF911F910F910C947B18CF911F91B3
:103160000F910895CF92DF92EF92FF920F931F93EA
:10317000CF93DF93EC01F62EC42ED22E1D868F81C5
:10318000869586958695081710F00FEF080F1D2D70
:103190006F2DCE01011788F00E949318612FCE0188
:1031A0000E948318EF2CCE1430F06889CE010E9463
:1031B0005016E394F8CF1F5FEBCF0E9493186D2D4C
:1031C000CE01DF91CF911F910F91FF90EF90DF9093
:1031D000CF900C9483182F923F924F925F926F92F0
:1031E0007F928F929F92AF92BF92CF92DF92EF9297
:1031F000FF920F931F93CF93DF93CDB7DEB72A973C
:103200000FB6F894DEBF0FBECDBFDC011E962D9128
:103210003C911F972115310509F463C19A8789876D
:10322000F9013296449031967491E72EF12CB7E073
:10323000EB0EF11C93E0F594E7949A95E1F7EA829E
:103240003196A4913196E4916A1758F0462F50E0D8
:103250008E2F90E0FC01EA0FF11D4E175F070CF472
:103260006AC06D3031F460E089859A850E949318B8
:103270003BC16A3009F035C160E089859A850E94BA
:103280009318E985FA8501890E9DE02C1124278188
:1032900026952695269565816E0D8E2D821B860FAF
:1032A0009485992309F418C118160CF015C1A98545
:1032B000BA851B969C911B97890F87701B968C93E0
:1032C0001B972E1915962C9315971E96ED91FC9130
:1032D0001F97309769F03396E491F0E0379683E0DA
:1032E000F595E7958A95E1F70E9FE02D112401C031
:1032F000E0E00FEF020F0E0FE985FA85468141509D
:103300006481CF010E94B218A985BA851C968C9160
:103310001C97813009F0E8C01B966C911B97660FD3
:10332000660F660F6F731A966C931A976064CD01DF
:103330000E947B18D9C0A9014A5F5F4F6A1BA9850B
:10334000BA851996FC9119975196EC91FE9FE02D44
:103350001124E887F901A4913196249130E03A2BA9
:103360002230310570F44E9CC0014F9C900D112409
:10337000689F8001699F100D1124040F151F312CC7
:1033800022C0777021F028E0322E371A01C0312C8C
:10339000FA0120E0A0E0B0E0261731F03491A30F4D
:1033A000B11D2F5F3196F8CFFA01E20FF11D449065
:1033B000EA9E8001EB9E100DFA9E100D1124080F5D
:1033C000191F040F151FA985BA851496BC91BB83DC
:1033D000E985FA85F581FC83A985BA851D96BC919E
:1033E000BD83E42DF0E0FF83EE83812C912CC12C72
:1033F000D12CC982FA81CF1608F06DC0212C36017C
:103400009FEF691A790AA985BA8551968C915197CF
:10341000281608F058C0ED811D96EC93F981F11142
:1034200002C0222079F0A985BA851596BC9015971F
:10343000B3946B81CD010E9493186B2D89859A8579
:103440000E948318A12CB12CA41410F0B12C2FC011
:10345000F401EA0DFB1DE00FF11F5490332061F0E1
:10346000E614F70449F4E52DF0E0032C02C0F595CD
:10347000E7950A94E2F75E2EE985FA858189823024
:1034800069F4E52D2110E295EF70F0E0E258FE4F6F
:103490005490652D89859A850E945016652D8985E1
:1034A0009A850E945016FFEFAF1ABF0ACDCF8885CC
:1034B000B81639F060E089859A850E945016B39459
:1034C000F6CF2394A0CF9FEFC91AD90AAE81BF814E
:1034D0008A0E9B1E8ECF6C8189859A850E948318E7
:1034E00003C080E090E002C081E090E02A960FB631
:1034F000F894DEBF0FBECDBFDF91CF911F910F912A
:10350000FF90EF90DF90CF90BF90AF909F908F9003
:103510007F906F905F904F903F902F9008951F92F3
:103520000F920FB60F9211242F933F934F935F93F7
:103530006F937F938F939F93AF93BF93EF93FF937B
:103540008091B900887F803609F49CC068F5883284
:1035500009F45BC090F4803109F454C038F4882336
:1035600009F4F6C0883009F44DC0F6C0883109F47A
:103570004CC0803209F45DC0EFC0803409F468C0EB
:1035800048F4803309F455C0883309F0E5C08093CE
:103590006D07D8C0803509F44FC0883509F45DC087
:1035A000883409F0D9C0D6C0883909F4C7C0A8F456
:1035B000883709F467C038F4883609F463C0803767
:1035C00009F460C0C9C0883809F4B8C0803909F46A
:1035D0005FC0803809F0C0C05BC0803B09F486C082
:1035E00038F4803A09F466C0883A09F47FC0B4C060
:1035F000803C09F4A7C0883C09F4A4C0883B09F4C6
:103600008AC0AAC080914A0710C090916C0780912F
:103610006B07981770F5E0916C0781E08E0F80932F
:103620006C07F0E0E55BF84F80818093BB0085EC90
:1036300086C080936D078EC0E0916C0781E08E0F8D
:1036400080936C078091BB00F0E0E55BF84F8083CE
:1036500090916C0780916B076EC0E0916C0781E0E0
:103660008E0F80936C078091BB00F0E0E55BF84F14
:10367000808380916E0781116DC081E0809349073E
:1036800084EA61C083E080936F0710921E07CFCF5A
:1036900080911E07803208F051C0E0911E0781E042
:1036A0008E0F80931E078091BB00F0E0E250F94F2F
:1036B0008083BDCF85EC8093BC0010926F07809112
:1036C0001E07803230F4E0911E07F0E0E250F94F1F
:1036D000108260911E0770E0E0912105F0912205B3
:1036E0008EEF96E0099510921E0736C084E0809315
:1036F0006F071092FD061092FC06E0912305F091F1
:10370000240509958091FC06811105C081E0809314
:10371000FC061092DC06E091FD0681E08E0F80939E
:10372000FD06F0E0E452F94F80818093BB00909158
:10373000FD068091FC06981708F479CF85E8809300
:10374000BC000AC085EC8093BC0010926F0704C0D7
:1037500010926D070E946D16FF91EF91BF91AF918E
:103760009F918F917F916F915F914F913F912F9199
:103770000F900FBE0F901F901895DC018D919C91BA
:10378000DC01ED91FC910190F081E02D0994AF9264
:10379000BF92CF92DF92EF92FF921F93CF93DF936E
:1037A000182FE2E0F1E05EE1C52E53E0D52E20E0D7
:1037B00030E066E0A62EB12CCFEFD0E0828193817D
:1037C000B5010E948232CB01EE24EA94F12CBE01B5
:1037D0000E948232820F931FBE010E9482329C019E
:1037E0003F96CE16DF0651F7C296B7010E9482328D
:1037F000EC01DD27212F4FEF682F80E00E94410967
:10380000CE018896B7010E948232212F4FEF682F98
:1038100081E00E944109CE014E96B7010E9482329A
:10382000212F4FEF682F82E00E944109CE010A96B6
:10383000B7010E948232212F4FEF682F83E0DF9182
:10384000CF911F91FF90EF90DF90CF90BF90AF90FE
:103850000C9441091F93CF93DF93162FC3E7D9E050
:10386000998121E02093700790939207109271073D
:1038700010929307682F84EE97E00E94FA16612F4A
:1038800084EE97E00E94FA1681E00E947F218883EF
:10389000DF91CF911F91089590916F079111FCCF07
:1038A000613208F060E291E090936F0790936E07A9
:1038B0002FEF20936D0710926C07260F20936B0754
:1038C00090934A0790914A07880F892B80934A0763
:1038D00080914907813061F41092490780914A072D
:1038E0008093BB008091BC0083FDF8CF85EC01C0C4
:1038F00085EE8093BC0080916F078130E1F3809169
:103900006C07861710F460916C07EBE4F7E0A9E20E
:10391000B7E080E0861721F091919D938F5FFACFF9
:1039200010922807809327070895CF93DF93C3E76A
:10393000D9E0998121E0209370079093920710922B
:10394000710710929307682F84EE97E00E94FA1691
:1039500081E00E947F21888362E089810E944C1C63
:1039600084EE97E00E94B116D82F80E0C82F84EE35
:1039700097E00E94B1168C2B9D2BDF91CF9108957B
:10398000CF93DF93C3E7D9E0998121E020937007BB
:10399000909392071092710710929307682F84EE0C
:1039A00097E00E94FA1681E00E947F21888361E0FF
:1039B00089810E944C1C84EE97E00E94B116DF9131
:1039C000CF9108950F931F93CF93DF93162F072F57
:1039D000C3E7D9E0998121E0209370079093920783
:1039E0001092710710929307682F84EE97E00E945F
:1039F000FA16602F84EE97E00E94FA16612F84EE8B
:103A000097E00E94FA1681E00E947F218883DF916F
:103A1000CF911F910F9108958F929F92AF92BF9275
:103A2000EF92FF920F931F93CF93DF937C01EB01F3
:103A300080E50E94C01C8F5F880F90E09983888387
:103A400086E40E94C01C082F10E00F5F1F4F1D83EB
:103A50000C83A881B0E020E03FE24AE350E00E94FE
:103A6000F3316C507E4F8F4F9F4F38EE832E33E0F3
:103A7000932EA12CB12CA50194010E943D32D801B6
:103A80000E94FE316C507E4F8F4F9F4FA5019401D5
:103A90000E943D322A873B874C875D8781E50E94E3
:103AA000951C8C01112702C0000F111F9A95E2F797
:103AB0000F5F1F4F1F830E83A881B0E020E03FE21D
:103AC0004AE350E00E94F3316C507E4F8F4F9F4F7E
:103AD000A50194010E943D32D8010E94F3316C503F
:103AE0007E4F8F4F9F4FA50194010E943D322E873C
:103AF0003F87488B598B80E70E94C01C8F5F880FDF
:103B000090E09B838A8381E70E94951C9C01992702
:103B100002C0880F991F3A95E2F701969987888726
:103B2000F7012381222331F02E813F81821B930BE9
:103B300099878887AA81B0E020E03FE24AE350E01D
:103B40000E94F3316C507E4F8F4F9F4F28EE822E94
:103B500023E0922EA12CB12CA50194010E943D32AC
:103B6000A885B9850E94F3316C507E4F8F4F9F4FCF
:103B7000A50194010E943D322A8B3B8B4C8B5D8BBF
:103B8000DF91CF911F910F91FF90EF90BF90AF9079
:103B90009F908F900895CF93DF93EC0181E00E9476
:103BA000C01C84FB992790F9988383FB992790F98F
:103BB0009A8382FB992790F9998386FB992790F93C
:103BC0009B83881F8827881F8C83DF91CF9108955E
:103BD000CF93DF93EC01FB014481558160817181BA
:103BE0000E940B11811103C0CE010E943911CE0138
:103BF000DF91CF910895EF92FF920F931F93CF9390
:103C0000DF93CDB7DEB729970FB6F894DEBF0FBEAE
:103C1000CDBF8C01862FF80111821082138212828F
:103C2000158214824AE09E012F5F3F4F7901B9014E
:103C300090E00E949431F70101900020E9F731975C
:103C4000AF014E195F09B701C8010E94641129969E
:103C50000FB6F894DEBF0FBECDBFDF91CF911F919D
:103C60000F91FF90EF900895EF92FF920F931F93A3
:103C7000CF93DF93CDB7DEB762970FB6F894DEBF70
:103C80000FBECDBF8C01CB01F801118210821382CF
:103C90001282158214824AE09E012F5F3F4F790104
:103CA000B9010E948931F70101900020E9F73197AD
:103CB000AF014E195F09B701C8010E9464116296F5
:103CC0000FB6F894DEBF0FBECDBFDF91CF911F912D
:103CD0000F91FF90EF9008958F929F92AF92BF92B5
:103CE0000F931F93CF93DF93CDB7DEB7A1970FB696
:103CF000F894DEBF0FBECDBF19A2423008F44AE0EF
:103D00008E010F5D1F4F842E912CA12CB12CA5018B
:103D100094010E943D32E62FB901CA0101501109F8
:103D2000EA3014F4E05D01C0E95CD801EC93232B88
:103D3000242B252B61F7C8010E943120A1960FB6D4
:103D4000F894DEBF0FBECDBFDF91CF911F910F91D1
:103D5000BF90AF909F908F90089590E0FC013197B5
:103D6000EF30F105B0F5EA5AFF4F0C94963280918E
:103D700080008F7703C0809180008F7D80938000CA
:103D8000089580918000877FF9CF84B58F7702C036
:103D900084B58F7D84BD0895809190008F7707C092
:103DA000809190008F7D03C080919000877F8093E9
:103DB000900008958091C0008F7703C08091C0006B
:103DC0008F7D8093C00008958091C200877F80938B
:103DD000C20008951F93CF93DF93282F30E0F9019D
:103DE000E855FE4F8491F901E95DF14FD491F90155
:103DF000EC5AF14FC491CC23C1F0162F81110E94CF
:103E0000AD1EEC2FF0E0EE0FFF1FEA5BF14FA59126
:103E1000B4919FB7F894111104C08C91D095D82318
:103E200002C0EC91DE2BDC939FBFDF91CF911F91FD
:103E30000895CF93DF9390E0FC01E95DF14F249169
:103E4000FC01EC5AF14F8491882361F190E0880FD6
:103E5000991FFC01E656FE4FC591D491FC01EA5B27
:103E6000F14FA591B491611109C09FB7F894888171
:103E7000209582238883EC912E230BC0623061F45D
:103E80009FB7F8948881322F309583238883EC91F3
:103E90002E2B2C939FBF06C08FB7F894E8812E2B52
:103EA00028838FBFDF91CF910895823108F082512E
:103EB000E82FF0E0E257FE4FE49180917B00E3FBB6
:103EC000222720F930E095E0220F331F9A95E1F781
:103ED0008F7D282B20937B00E770E064E0937C00CB
:103EE00080917A00806480937A0080917A0086FDC8
:103EF000FCCF809178002091790090E0922B08957A
:103F00003FB7F8948091230790912407A09125074B
:103F1000B091260726B5A89B05C02F3F19F0019642
:103F2000A11DB11D3FBFBA2FA92F982F8827820F3F
:103F3000911DA11DB11DBC01CD0142E0660F771F8F
:103F4000881F991F4A95D1F708958F929F92AF923B
:103F5000BF92CF92DF92EF92FF926B017C010E94A1
:103F6000801F4B015C01C114D104E104F104F1F0A4
:103F70000E94801FDC01CB0188199909AA09BB099D
:103F8000883E9340A105B10570F321E0C21AD10823
:103F9000E108F10888EE880E83E0981EA11CB11C90
:103FA000C114D104E104F10419F7DDCFFF90EF90C3
:103FB000DF90CF90BF90AF909F908F9008952FB7D4
:103FC000F89460911F0770912007809121079091CC
:103FD00022072FBF0895682F616080E00E942A1C8D
:103FE0000E94DF1F709379096093780983E10E9432
:103FF000C01C8770B9F48091750990917609892B5E
:10400000A9F30E94DF1F2091780930917909621B82
:10401000730B80917509909176098617970730F791
:1040200080E0089561E08BE00E942A1C60E080E05F
:104030000E942A1C81E008959093B3098093B209ED
:10404000009741F0FC0124913196849190E0922BED
:10405000019721F081E08093AD0908951092AD0998
:104060000895009769F0FC0101900020E9F731976D
:10407000AF01481B590BBC0184E997E00C94101365
:1040800080E090E008950F93CF93DF93EC011B86BF
:104090001A8660E40E947B180F81069506950695A6
:1040A00001504E81415020E060E0CE010E94B218E4
:1040B000DF91CF910F910895FF920F931F93CF93AC
:1040C000DF938C01F62ED42FC22F213059F038F017
:1040D000223059F02330A9F487EC91E00DC081E43F
:1040E0009CE00AC08BEF96E002C081E49CE00E9455
:1040F0001C20C093B50905C00E941C2081E080935C
:10410000B5096F2D84EA99E00E9493186D2F84EA17
:1041100099E00E948318F801448155816081718182
:1041200084EA99E0DF91CF911F910F91FF900C9459
:10413000D80FFC01808191810C944333CF92DF92A0
:10414000EF92FF920F931F93CF93DF93CDB7DEB71C
:1041500029970FB6F894DEBF0FBECDBF80919709A7
:1041600090919809892B09F4BBC0C0909D09D0900B
:104170009E09E0909F09F090A0090E94801F6C1595
:104180007D058E059F0550F40E94801F60939D0958
:1041900070939E0980939F099093A0090E94801FAD
:1041A00000919D0910919E0920919F093091A009CD
:1041B000DC01CB01801B910BA20BB30B8C32914025
:1041C000A105B10590F2F89480919209909193091C
:1041D0009A838983E0919709F0919809DF011196FC
:1041E0008081898790918E09E091A109F091A209BF
:1041F0008091A309992309F42EC09081982B988768
:104200009081809589238F838F818C8388E08B8335
:1042100058856F8149853B812C8189819A815083A2
:1042200047FD252F3A952083262F39F0441F00C0E3
:1042300000006083000000C0F2CF38E04D91608341
:104240000000019761F7F093A209E093A109498763
:104250003B832C8338C09081982B988790818095E0
:1042600089238F838F818E8388E08D8358856F812A
:1042700049853D812E8189819A81508347FD252F73
:1042800000C000C0208300C000C000C000C000C04B
:1042900060830000262F3A9541F0441F000000C0C3
:1042A00000C000C000C000C0E8CF38E04D9100C0A1
:1042B000608300C0019709F7F093A209E093A10978
:1042C00049873D832E839A83898378940E94801F37
:1042D00060939D0970939E0980939F099093A00914
:1042E00029960FB6F894DEBF0FBECDBFDF91CF91F8
:1042F0001F910F91FF90EF90DF90CF900895282F9E
:1043000030919307313208F04AC080916F078111D4
:10431000FCCF9091920742E040936F0720936E0785
:104320002FEF20936D0710926C0730936B07E2E735
:10433000F7E0ABE4B7E020E0321721F041914D9374
:104340002F5FFACF10924A0720914A07990F922BBC
:1043500090934A0790914907913061F41092490770
:1043600090914A079093BB009091BC0093FDF8CFC9
:1043700095EC01C095EE9093BC0090916F07923040
:10438000E1F390916D079F3F79F080916D07803246
:1043900041F080916D07803331F084E005C081E009
:1043A00003C082E001C083E010927107109293076E
:1043B0001092700708951F920F920FB60F9211245A
:1043C0002F933F938F939F93AF93BF9380911F073A
:1043D00090912007A0912107B09122073091BB094D
:1043E00023E0230F2D3720F40196A11DB11D05C038
:1043F00026E8230F0296A11DB11D2093BB098093CF
:104400001F0790932007A0932107B0932207809164
:10441000230790912407A0912507B09126070196C4
:10442000A11DB11D8093230790932407A093250716
:10443000B0932607BF91AF919F918F913F912F919C
:104440000F900FBE0F901F901895CF93DF93CDB7AD
:10445000DEB7C855D1090FB6F894DEBF0FBECDBF89
:10446000789484B5826084BD84B5816084BD85B54F
:10447000826085BD85B5816085BD80916E0081605B
:1044800080936E0010928100809181008260809301
:104490008100809181008160809381008091800003
:1044A0008160809380008091910082608093910070
:1044B0008091910081608093910080919000816053
:1044C000809390008091C10084608093C1008091AE
:1044D000C10082608093C1008091C100816080939F
:1044E000C1008091C30081608093C3008091C000AF
:1044F00082608093C0008091C20081608093C2007E
:1045000080917A00846080937A0080917A00826042
:1045100080937A0080917A00816080937A00809104
:104520007A00806880937A001092200510921F050F
:1045300010921E058091D70081608093D70080EA99
:104540008093D80089B5806189BD89B5826089BDB5
:1045500009B400FEFDCF61E070E080E090E00E94D1
:10456000A51F8091D8008F7C80618093D8008091B6
:10457000E000807F8093E0008091E1008E7E809358
:10458000E1008DE08093E200559A209A91E09093AB
:1045900000018FE380930101E0913008F091310830
:1045A0000190F081E02DA089B18922E02C93A485AF
:1045B000B5851C92A685B7858C93108EA489B58984
:1045C00086E08C93A289B3898C9180618C93A289B7
:1045D000B3898C9188608C93A289B3898C9180680F
:1045E0008C930288F389E02D80818F7D8083909366
:1045F0003208109234081092330810923B0810923F
:104600003A0810923908109238088FEF9FEF909374
:104610003D0880933C0890933F0880933E080E9499
:10462000DF1F6093C8087093C9088093CA089093ED
:10463000CB081092C50810924208109241081092BF
:104640004308109244081092C7081092C60880913F
:104650004008817082608160809340088091940955
:104660009091950997FD08C061E00E94191F60E0D4
:10467000809194090E94EA1E81E080938F096091E5
:104680009609653121F1209197093091980961507F
:1046900031F070E08FEF94E10E946E3202C060E072
:1046A00070E0F9014091920950919309CF01821B6A
:1046B000930B8417950740F44081469FC001479FA4
:1046C000900D11249193EECF85E18093960910E02F
:1046D00020E040E060E0812F0E9441091F5F14301C
:1046E000B9F70E949E2061E08CE00E94191F61E0F2
:1046F00086E00E94191F60E085E00E94191F60E0BB
:1047000086E00E94EA1E61E08CE00E94EA1E0E94A0
:10471000C308609373057093740580937505909337
:1047200076050CE413E0F801F0800E5F1F4F61E0A6
:104730008F2D0E94191F60E08F2D0E94EA1EF3E06A
:1047400004351F0781F7109228071092270710924F
:1047500071071092930710926F0781E080936E07A4
:104760001092490761E082E00E94EA1E61E083E066
:104770000E94EA1E8091B9008E7F8093B9008091DB
:10478000B9008D7F8093B90088E48093B80085E4F8
:104790008093BC008FE996E19093240580932305D4
:1047A00080EA96E190932205809321051092B80942
:1047B0008CE38093B7091092B9008CE08093B80025
:1047C0001092A8091092A909E3EEF0E08591949166
:1047D000E82EE5EEF0E0F490E6EEF0E0E491E09310
:1047E000AA09E7EEF0E0E491E093AB09E8EEF0E02F
:1047F000E491E093AC098C01802F8E198F1548F459
:10480000F801649184EA99E00E947B180F5F1F4FC2
:10481000F3CF84EA99E00E94432084EF91E09093E3
:1048200076098093750980EC0E94C01C8E3EB9F019
:1048300084EA99E00E9443201A8219821C821B821A
:104840001E821D8261E170E0CE0101960E94E4109B
:10485000811123C4CE0101960E94391128C489E830
:104860000E94C01C682F616089E80E942A1C60E0D9
:1048700088E80E942A1C61E080E80E942A1C61E00E
:104880008FEF0E942A1C60E080E00E942A1C81E9D0
:104890000E94C01C80937A0961E080E00E942A1C7B
:1048A00060E08FEF0E942A1C60E080E80E942A1CD2
:1048B00080E60E94C01C682F626180E60E942A1C6C
:1048C00060E270E084E40E94E21C6FEF81E00E94ED
:1048D0002A1C61E080E80E942A1C61E08FEF0E94A0
:1048E0002A1C60E080E00E942A1C66E08FEF0E9494
:1048F0002A1C83E80E94C01C682F646083E80E9421
:104900002A1C67E08FEF0E942A1C61E081E80E9468
:104910002A1C61E080E80E942A1C6BE684E90E9460
:104920002A1C60E083E80E942A1C0E94DF1F70930B
:1049300079096093780983E80E94C01C811116C030
:104940008091750990917609892BA9F30E94DF1F48
:104950002091780930917909621B730B8091750958
:10496000909176098617970730F762CF61E083E868
:104970000E942A1C82E90E94C01CD82EF82FFF77C3
:10498000EF2E60E081E80E942A1C66E08FEF0E9413
:104990002A1C83E80E94C01C682F6B7F83E80E945A
:1049A0002A1C61E08FEF0E942A1C61E080E00E94D7
:1049B0002A1C60E08FEF0E942A1C60E080E80E94C1
:1049C0002A1C8091740991E090937007809392075C
:1049D000109271071092930760EB84EE97E00E94AB
:1049E000FA1681E00E947F218093730966E080912E
:1049F00074090E944C1C8E01055B1F4F580197E003
:104A0000F92EFA94FF2041F084EE97E00E94B1164F
:104A1000F50181935F01F5CF61E08FEF0E942A1CC1
:104A200060E08FE40E942A1C6CE28EE40E942A1C43
:104A300060E08FEF0E942A1C64EB86EB0E942A1C28
:104A4000D7FE02C06CE001C060E090E080E041E091
:104A500050E0282F269526952695782F7770F80117
:104A6000E20FF11D861710F09E110AC09A0101C0D5
:104A7000220F7A95EAF7209530812323208309C0FD
:104A8000208130E002C0359527957A95E2F720FD28
:104A90009F5F8F5F8033E9F68091740991E0909376
:104AA000700780939207109271071092930760EB42
:104AB00084EE97E00E94FA1687E0F82EFA94FF2021
:104AC00041F0F80161918F0184EE97E00E94FA169F
:104AD000F5CF81E00E947F218093730961E08FEF21
:104AE0000E942A1C60E080E00E942A1C60E08FEF98
:104AF0000E942A1C60E089E00E942A1C60E080E19C
:104B00000E942A1C60E081E10E942A1C61E084E28C
:104B10000E942A1C6FEF85E20E942A1C60E085E754
:104B20000E942A1C61E08FEF0E942A1C6CE28EE436
:104B30000E942A1C60E088E40E942A1C60E280E354
:104B40000E942A1C60E08FEF0E942A1C69E080E32B
:104B50000E942A1C60E084E50E942A1C64E081E334
:104B60000E942A1C63E082E30E942A1C63E880E41E
:104B70000E942A1C65E286E40E942A1C60E080E60E
:104B80000E942A1C60E087E20E942A1C66E080E501
:104B90000E942A1C60E081E50E942A1C66E982E5E9
:104BA0000E942A1C68E086E50E942A1C60E387E5D3
:104BB0000E942A1C60E081E60E942A1C60E082E6D6
:104BC0000E942A1C60E084E60E942A1C60E085E6C0
:104BD0000E942A1C60EA86E60E942A1C61E08FEF90
:104BE0000E942A1C62E382E20E942A1C64E187E49C
:104BF0000E942A1C6FEF89E40E942A1C60E08AE46C
:104C00000E942A1C60E08FEF0E942A1C6AE08AE75B
:104C10000E942A1C60E08BE70E942A1C61E288E760
:104C20000E942A1C61E08FEF0E942A1C64E383E249
:104C30000E942A1C60E082E40E942A1C6FEF84E438
:104C40000E942A1C66E285E40E942A1C65E086E434
:104C50000E942A1C60E480E40E942A1C66E08EE028
:104C60000E942A1C6AE180E20E942A1C60E483E41C
:104C70000E942A1C60E08FEF0E942A1C63E084E3FC
:104C80000E942A1C64E485E30E942A1C61E08FEFE5
:104C90000E942A1C64E081E30E942A1C69E08BE4E4
:104CA0000E942A1C65E08CE40E942A1C64E08DE4CA
:104CB0000E942A1C60E08FEF0E942A1C60E084E4BE
:104CC0000E942A1C60E285E40E942A1C68E087E4B6
:104CD0000E942A1C68E288E40E942A1C60E087E6A1
:104CE0000E942A1C64E080E70E942A1C61E081E7A0
:104CF0000E942A1C6EEF82E70E942A1C60E086E771
:104D00000E942A1C60E087E70E942A1C61E08FEF66
:104D10000E942A1C61E08DE00E942A1C60E08FEF57
:104D20000E942A1C61E080E80E942A1C68EF81E052
:104D30000E942A1C61E08FEF0E942A1C61E08EE82D
:104D40000E942A1C61E080E00E942A1C60E08FEF34
:104D50000E942A1C60E080E80E942A1C64E08AE02D
:104D60000E942A1C84E80E94C01C682F6F7E84E881
:104D70000E942A1C61E08BE00E942A1CCE018F5AFF
:104D80009F4F0E94CB1DBE016F5F7F4FCE018F5A98
:104D90009F4F0E940C1D62968FAD6297882349F049
:104DA0008B859C85AD85BE858C57924FAF4FBF4F8D
:104DB00004C086E39BE0A0E0B0E064962FAD64976A
:104DC000222369F04B855C856D857E854E545D4F51
:104DD0006F4F7F4F440F551F661F771F0DC063969F
:104DE0002FAD6397222361F04B855C856D857E85B1
:104DF0004C565D4F6F4F7F4F840F951FA61FB71FF7
:104E000065962FAD6597222361F04F855889698992
:104E10007A894C565D4F6F4F7F4F840F951FA61FA9
:104E2000B71F66962FAD6697222361F04B895C8988
:104E30006D897E894A5D5D4F6F4F7F4F840F951F4F
:104E4000A61FB71F80937B0990937C09A0937D09CF
:104E5000B0937E0968EE81E00E942A1CC0907B0915
:104E6000D0907C09E0907D09F0907E09F0E2CF16A9
:104E7000FEE4DF06E104F10408F4D0C0CE018F5A4D
:104E80009F4F0E94CB1DBE016F5F7F4FCE018F5A97
:104E90009F4F0E940C1D62968FAD6297882349F048
:104EA0008B859C85AD85BE858C57924FAF4FBF4F8C
:104EB00004C086E39BE0A0E0B0E064962FAD649769
:104EC000222369F04B855C856D857E854E545D4F50
:104ED0006F4F7F4F440F551F661F771F0DC063969E
:104EE0002FAD6397222361F04B855C856D857E85B0
:104EF0004C565D4F6F4F7F4F840F951FA61FB71FF6
:104F000065961FAD6597112361F04F8558896989B2
:104F10007A894C565D4F6F4F7F4F840F951FA61FA8
:104F2000B71F66962FAD6697222309F477C02C0130
:104F30003D0126E2420E22E0521E611C711CC41487
:104F4000D504E604F70408F469C0AB81B0E020E0C2
:104F50003FE24AE350E00E94F3314B015C0134EF41
:104F6000830E31E0931EA11CB11CA70196012419E8
:104F7000350946095709A8EEB3E00E94F3312B0129
:104F80003C01C501B40120ED37E040E050E00E9453
:104F90003D32420E531E641E751EC501B40128EE3B
:104FA00033E040E050E00E943D32C301B2010E9474
:104FB0003D32112331F08F819885280F391F411D13
:104FC000511D2115310541055105D9F089019A017D
:104FD000015011092109310960E070E0D901C801CF
:104FE0008827892B8A2B8B2B39F036952795179597
:104FF00007956F5F7F4FF2CF762F6627602B712B5F
:1050000002C060E070E081E70E94E21CC0927B0970
:10501000D0927C09E0927D09F0927E0961E081E006
:105020000E942A1C80E40E94EB1F882309F400CC14
:1050300062E081E00E942A1C80E00E94EB1F88232E
:1050400009F4F6CB68EE81E00E942A1C61E080E85A
:105050000E942A1C61E08FEF0E942A1C60E080E021
:105060000E942A1C60917A0981E90E942A1C61E051
:1050700080E00E942A1C60E08FEF0E942A1C60E002
:1050800080E80E942A1C62E080E00E942A1C909125
:105090000001E2E0F1E080E016C081E190E09E8353
:1050A0008D8369EE70E089819A810E94823121E0CE
:1050B00040E060E0CE0101960E945C20CE010196A6
:1050C0000E949920FFCF958786878F5F3F96853214
:1050D000D1F764EC73E0CE0101960E949F1123E0AA
:1050E00041E060E0CE0101960E945C20CE01019675
:1050F0000E94992064EF71E080E090E00E94A51F7B
:1051000067ED73E0CE0101960E949F1120E043E01D
:1051100060E0CE0101960E945C20CE0101960E94C3
:10512000992063EE73E0CE0101960E949F1120E06A
:1051300043E064E6CE0101960E945C20CE01019618
:105140000E94992010E0812F0E94C71B0E949E2080
:1051500062E070E080E090E00E94A51F1F5F1F3FAB
:1051600091F768EC70E080E090E00E94A51F8091CC
:10517000F3078F5F0E94B41184EA99E00E944320F4
:10518000AE014F5B5F4F69965FAF4EAF69972224C8
:105190002A9443E0342E0E94DF1F4B015C01609390
:1051A000C5067093C6068093C7069093C8063BE772
:1051B000E32E35E0F32E00E010E000FF02C061E0D6
:1051C00001C060E088E00E94EA1E01FF02C061E0C9
:1051D00001C060E089E00E94EA1E02FF02C061E0B7
:1051E00001C060E08AE00E94EA1EC80123E09595B4
:1051F00087952A95E1F7892B11F061E001C060E005
:105200008BE00E94EA1E61E070E080E090E00E9486
:10521000A51F82E10E94551FF701819391937F01A1
:1052200083E10E94551FF701978F868F0F5F1F4FF5
:105230000031110511F60E94C30860937305709345
:1052400074058093750590937605C501B4010E949D
:1052500029080E94DF1F709379096093780983E120
:105260000E94C01C8770D9F48091750990917609CD
:10527000892BA9F30E94DF1F2091780930917909C9
:10528000621B730B809175099091760986179707B9
:1052900030F781E0809377098FEF9FEF0BC08EE1AD
:1052A0000E94951CF82E192F61E08BE00E942A1CA9
:1052B0008F2D912F8C0106541109083EF3E01F0732
:1052C00064F50115110549F1609177057091780534
:1052D0008091790590917A052AE030E040E050E035
:1052E0000E94D431A9E0B0E00E94F3316B017C014F
:1052F000C8016AE070E00E948232CB01770FAA0BEE
:10530000BB0BC80ED91EEA1EFB1EC0927705D092B9
:105310007805E0927905F0927A05809177091092EC
:1053200077098823D9F084EA99E00E94432068EE47
:1053300073E0CE0101960E949F1121E040E060E001
:10534000CE0101960E945C20CE0101960E94992018
:1053500064EF71E080E090E00E94A51F28E633E052
:10536000AE014F5F5F4F7A01DE015996CA01F90124
:1053700041919F01E42FF0E0EE0FFF1FE558FA4F37
:1053800040815181FC0141935193CF01EA17FB0702
:1053900071F784E593E0FC012191CF01E22FF0E069
:1053A000EE0FFF1FE558FA4F208131814FEF53E098
:1053B000421B530B4D935D936996EEADFFAD69971C
:1053C000AE17BF0741F784E10E94551F9101281BCA
:1053D000390B23963FAF2EAF239785E10E94551FCF
:1053E000A101481B590B25965FAF4EAF259786E16B
:1053F0000E94551FF101E81BF90B2796FFAFEEAF96
:10540000279787E10E94551F9101281B390B299688
:105410003FAF2EAF29978091770590917805A091A5
:105420007905B0917A05B7FD0CC0813931E0930759
:10543000A105B10524F080E991E0A0E0B0E09C0175
:1054400002C020E030E0A1E0BCEF0E949C3220E9E5
:1054500031E040E050E00E94D431DA01C9018150CE
:105460009C4FAF4FBF4F2B969FAF8EAF2B9702E055
:1054700011E0D12CCC24C394F8011482F7012191BE
:1054800031917F01F80180819181A901481B590B5D
:10549000CA0157FF03C0919581959109409774F116
:1054A000F80131832083A1E8BFEF0E949C322FEFE7
:1054B00033E040E050E00E94D431CA01B9016158A4
:1054C0007F4F8F4F9F4FF80173836283C48245855E
:1054D00086850E94720AD092720580916F0588239A
:1054E00021F0F8018281858307C0809164058823BB
:1054F00029F0F80182818683C092C306D394015FAC
:105500001F4FF5E2DF12B8CF8091FD0781110CC06B
:1055100080912B058823D9F181E08093FD0780914C
:1055200072058093040831C08091FE07811135C057
:1055300080916205882399F02091FC07422F50E06A
:105540008091FF0790E001974817590719F41092CE
:10555000FC0703C02F5F2093FC070E94D00A8091B4
:105560006D05882359F08091FC07811102C080915C
:10557000FF0781508093FC070E94D00A80912B0581
:10558000882329F081E08093FE070E94D00A00E37F
:1055900015E0F12CEE24E3942AC28091FC078130BF
:1055A00009F456C0C8F0843009F491C0853009F080
:1055B000F8C16DE174E0CE0101960E949F1121E0D7
:1055C00041E060E0CE0101960E945C20CE01019690
:1055D0000E94992014E654C180916D058823D9F06A
:1055E000E09104082E2F30E04FE0E49FF0011124F9
:1055F000EE5FFE4F8685882311F0815001C08FE752
:105600009FE0929FF001939FF00D1124EE5FFE4FFB
:1056100086870E94D00A80916205882309F4C1C15F
:10562000E09104082E2F30E05FE0E59FF0011124A7
:10563000EE5FFE4F86858F5F87FD80E09FE0929F43
:10564000F001939FF00D1124EE5FFE4F86873CC062
:1056500080916D058823D9F0E09104082E2F30E069
:105660008FE0E89FF0011124EE5FFE4F85858823CF
:1056700011F0815001C08FE09FE0929FF001939F55
:10568000F00D1124EE5FFE4F85870E94D00A8091B5
:105690006205882309F485C1E09104082E2F30E0CB
:1056A0009FE0E99FF0011124EE5FFE4F85858F5F3B
:1056B0008F3008F080E09FE0929FF001939FF00D03
:1056C0001124EE5FFE4F85870E94D00A6AC16CEFFD
:1056D00073E0CE0101960E949F1121E041E060E05D
:1056E000CE0101960E945C20CE0101960E94992075
:1056F00014E60E94C3086093730570937405809349
:105700007505909376050E94DF1F0E9429088091FD
:10571000360581110CC080914105811108C080912E
:105720004C05811104C080915705882361F0E0E3A6
:10573000F5E080E096819111182F8F5F3B968430C1
:10574000C9F781E001C080E090912B05911102C062
:10575000882379F2143609F424C184EA99E00E947E
:105760004320612F70E06F5F7F4FCE01855B9F4FBD
:105770000E94341E6DE074E0CE0101960E949F11DC
:10578000BE01655B7F4FCE0101960E94E81DBC0102
:10579000CE018F5A9F4F0E94851123E040E064E1C3
:1057A000CE018F5A9F4F0E945C20CE018F5A9F4F8F
:1057B0000E949920CE0101960E949920CE01855B1E
:1057C0009F4F0E949920E5E21E9F30011124660C34
:1057D000771C660C771C02E011E0E12CF12C230110
:1057E000F2E04F0E511C26E0620E711CF801858517
:1057F000898386858A8385818B8386818C836201F8
:10580000CE0CDF1C9E012F5F3F4F590143018E0CD0
:105810009F1CF50161915F01C6010E94C631FFEF37
:10582000CF1ADF0A8C149D04A1F7015F1F4F24E0FB
:10583000E20EF11C34E9E316F104C1F664EF71E005
:1058400080E090E00E94A51FACC0809141058823B4
:1058500051F1E0E3F5E080E096819111182F8F5F20
:105860003B968430C9F701E062E370E080E090E0AD
:105870000E94A51F80912B0581111FC001111DC021
:105880000E94C30860937305709374058093750537
:10589000909376050E94DF1F0E94290880913605AB
:1058A0008111D7CFD2CF80914C058111D2CF809179
:1058B00057058111CECF00E0D7CF143609F471C05F
:1058C00084EA99E00E944320612F70E06F5F7F4F70
:1058D000CE01855B9F4F0E94341E6EE274E0CE01C4
:1058E00001960E949F11BE01655B7F4FCE0101961C
:1058F0000E94E81DBC01CE018F5A9F4F0E94851166
:1059000023E040E06AE0CE018F5A9F4F0E945C2066
:10591000CE018F5A9F4F0E949920CE0101960E947E
:105920009920CE01855B9F4F0E94992045E2149FEC
:1059300030011124660C771C660C771C02E011E024
:10594000E12CF12C230152E0450E511C86E0680E3B
:10595000711C6201CE0CDF1CFE0131965F01430118
:105960008E0C9F1CC6010E94BE31F50181935F0120
:10597000FFEFCF1ADF0A8C149D04A1F78981F8018B
:1059800085878A8186878B8185838C818683015F69
:105990001F4FF4E0EF0EF11C24E9E216F104C9F602
:1059A0004DCF80912B05882321F01092FE070E9495
:1059B000D00A0E94DF1F0091000810910108209179
:1059C000020830910308DC01CB01801B910BA20B74
:1059D000B30B89389341A105B10508F4D8CD1092D5
:1059E000FD071092FE0781E08093C306D0CDF80139
:1059F00086818823F1F08091FD07811114C04091C8
:105A00000001609101018F2D0E942C0A61E070E07D
:105A100080E090E00E94A51F4091000160E08F2D82
:105A20000E942C0A06C01092FD071092FE07E09219
:105A3000C306F394055F1F4FF4E0FF12D8CF4DE289
:105A4000E42E43E0F42E02E011E0F8018481882383
:105A500021F18580912CA12CB12C2681822F90E000
:105A6000A0E0B0E09C01AD01281939094A095B09A1
:105A7000A281B3810E94FE312FE730E040E050E088
:105A80000E94D431CA01B901680D791D8A1D9B1D80
:105A9000F801458586850E94720A015F1F4FE01656
:105AA000F10699F686ED98E00E943310892BC1F03B
:105AB00086ED98E00E943310892B51F086ED98E036
:105AC0000E941110682F86ED98E00E946A10F0CFB6
:105AD0002FEF40E060E080E00E9441090E949E209C
