:100000000C943C070C9464070C9464070C946407EC
:100010000C9464070C9464070C9464070C946407B4
:100020000C9464070C9464070C942A130C94101518
:100030000C9464070C9464070C9464070C94640794
:100040000C9464070C9464070C9464070C94640784
:100050000C9464070C9464070C9464070C94472375
:100060000C9464070C9474170C944E170C9464074A
:100070000C9464070C9464070C9464070C94640754
:100080000C9464070C9464070C9464070C94640744
:100090000C94FB1B0C9464070C9464070C94640789
:1000A0000C9464070C9464070C946407312034208A
:1000B000232027202D2055205520552038203C2056
:1000C000402046204A2055205020AED580A81FD37E
:1000D00000408D142002A1C8DA02817FD9F1DB40F3
:1000E000A4A6AFCA00198020006C696461722069FF
:1000F0006E6974206572726F722E0000000000231A
:1001000000260029002C002F00080B00020202012B
:10011000000904000001020200000524001001058E
:1001200024010101042402060524060001070581BB
:100130000310004009040100020A00000007050244
:100140000240000007058302400000040309041276
:10015000010002EF02014041233680000101020349
:100160000141726475696E6F204C4C4300417264AA
:1001700075696E6F204C656F6E6172646F0000036D
:100180000C0F30333C3FC0C3CCCFF0F3FCFF07066D
:1001900005040100080A0B0C0D09000000002400F2
:1001A00027002A002D0030000000000200090F0087
:1001B00000030401000C000000000000000000002B
:1001C0000000000000000022080D0E20600402055F
:1001D00006070809020303050802040204070407CE
:1001E000070707070707070202070707080E09089E
:1001F000080807070908020708070B080907090983
:10020000070808090D07080804040406080307077F
:10021000060707050707020306020A07070707057F
:10022000060507070B06070505010507080000007E
:100230000000000000FEFE18181E1E001E1E00001A
:1002400000000090F89E90F89E1C00001C00001812
:100250003C26FF66CC88040C183C180C041C221C9D
:10026000C0308E408000001804000C100C80CC7E42
:1002700072F2DE0C80000C1C1010101C0C1C101EE6
:100280001E0000F0FC061C7CC006FCF0C07C1C14A8
:10029000140E14140000000000606060FCFC60603C
:1002A000600000000C0C00000000005838C0C0C006
:1002B000C0000000000000181800C0380618040034
:1002C00000F8FC0E060EFCF8040C1C181C0C04189C
:1002D0000CFEFE00001C1C181C86C6663E1C181C6A
:1002E0001C18181818888C062626FEDC040C1C180E
:1002F000180C04C0E0B88CFEFE80040404041C1C2E
:1003000004707E3E3636F6C60C1C1818180C04F81D
:10031000FC6E6666EECC040C1818181C0C0606065B
:10032000E6761E0600001C1C0000009CFE66666649
:10033000FE9C0C1C1818181C0C3C7E666666FCF8AB
:100340000C1C18181C0C04181818181818583860A9
:1003500060F0F098980C0000000004040CD8D8D885
:10036000D8D8D8D8000000000000000C9898F0F011
:1003700060600C040400000000080C06C6E6763C31
:10038000180000001818000000E03008C4F63A1AFF
:100390001AF2FA7E0408F00C30604C9C98988C9C01
:1003A0009C90484C2000C0F8BE86BEF8C000181CC7
:1003B00004040404041C18FEFE66666666FEDC1C6B
:1003C0001C181818181C0CF8FC0E06060E9C0804C5
:1003D0000C1C18181C0C04FEFE0606060EFCF81C6D
:1003E0001C1818181C0C04FEFE66666666661C1C4B
:1003F0001818181818FEFE66666666061C1C0000B3
:10040000000000F8FC0E0606C6CEDCC8040C1C1862
:100410001818180C04FEFE60606060FEFE1C1C00D4
:100420000000001C1CFEFE1C1C8080000000FEFE64
:100430000C1C1818181C0CFEFE603078EC86021C90
:100440001C000000041C18FEFE00000000001C1C24
:100450001818181818FEFE0E7CE000E07C0EFEFE58
:100460001C1C00000C1C0C00001C1CFEFE1C78E078
:1004700080FEFE1C1C0000040C1C1CF8FC0E060672
:10048000060EFCF8040C1C1818181C0C04FEFE6662
:1004900066667E3C1C1C0000000000F8FC0E068610
:1004A000060EFCF8040C1C18181C0C1C24FEFE661E
:1004B00066E6E6BE1C001C1C0000000C1C18103C6C
:1004C0007E666666EECC0C1C1818181C0C06060618
:1004D000FEFE0606060000001C1C000000FEFE00DA
:1004E000000000FEFE040C1C18181C0C04021EFC6C
:1004F000E000E0FC1E020000001C1C1C00000006C6
:10050000FEF800F0FE0EFEF000F8FE0600001C1CD7
:100510001C0000001C1C1C0000060EF8F0F80E0663
:10052000181C0400041C18060E38F0F0380E0600E3
:1005300000001C1C000000060686E6761E0E06184B
:100540001C1C1818181818FEFE0606FCFCC0C00675
:1005500038C000000004180606FEFEC0C0FCFC20E7
:10056000380E0E38200000000000000000000000DF
:10057000000000808080808080808002060400006F
:10058000001098D858F8F0000C1C18180C1C10FE1D
:10059000FE301838F0E01C1C0C181C0C04E0F0189D
:1005A000183830040C18181C0CE0F0381830FEFE17
:1005B000040C1C180C1C1CE0F0D8D8D8F0E0040C7B
:1005C000181818180818FCFE1A1A001C1C0000E065
:1005D000F0381830F8F864ECDCD8CCFC7CFEFE3047
:1005E0001818F8F01C1C0000001C1CFAFA1C1C0057
:1005F000FAFAC0FC7CFEFEE0F098081C1C00041C0B
:1006000018FEFE1C1CF8F81018F8F01818F8F01C6A
:100610001C00001C1C00001C1CF8F8301818F8F016
:100620001C1C0000001C1CE0F0381838F0E0040C22
:100630001C181C0C04F8F8301838F0E0FCFC0C18FE
:100640001C0C04E0F0381830F8F8040C1C180CFCF2
:10065000FCF8F83018181C1C00000070F8D8D8D826
:1006600090081818181C0C18FCFE1818000C1C1800
:1006700018F8F8000000F8F80C1C18180C1C1C38AE
:10068000F8C000C0F83800001C1C1C000018F8E07E
:1006900000F038F000E0F81800001C1C0C000C1CE6
:1006A0001C00001838E0E03818181C04041C181846
:1006B000F8E000E0F8180084FCF83C04001898D832
:1006C00078381C1C18181880FC7E0606007CFCC0BC
:1006D000C0FEFC06067EFC80C0C0FC7C00603030A2
:1006E0007060603000000000000000FE02020202A4
:1006F0000202FE1C1010101010101C0000070E202B
:100700006000000000000000000000000000000089
:1007100000FC0000000000000D00000000003C0094
:100720003C0000000000000000000020F82020F83D
:100730002000010701010701006090F890100000FF
:1007400004040F0403000018249860100C000C022D
:10075000010609060030C8C8300000000708080973
:1007600006090000003C000000000000000000003E
:10077000000000E0180402000000030C102000023A
:100780000418E000000020100C0300000080A0C04E
:10079000C0A0800000020101020000808080F08083
:1007A0008080000000070000000000000000000042
:1007B00020180C04000000808080808080000000F1
:1007C00000000000000000000000000000081C08FD
:1007D00000000000008060180600180601000000FC
:1007E00000F008844408F000030408080403002013
:1007F0001008FC0000000000000F000000180404B6
:10080000844438000C0A09080808000804444444D9
:10081000B8000608080808070080601804FC0000FB
:10082000010101010F01007C24242424C4000608D6
:100830000808080700F884444444880007080808AA
:10084000080700040404C4340C00000C030000007A
:1008500000B844444444B800070808080807007872
:1008600084848444F8000408080808070000207005
:100870002000000000081C0800000000207020007C
:10088000000020180C040000008040201008000028
:1008900000010204080000404040404040000202C5
:1008A000020202020000081020408000000804023A
:1008B00001000004844424180000000D0000000022
:1008C00000F008C42424F8000304090A0A0300F80D
:1008D00084848484F8000F000000000F00FC44446E
:1008E000447880000F080808080700F8040404048E
:1008F000180007080808080600FC04040408F000B3
:100900000F080808040300FC4444444404000F0892
:100910000808080800FC4444444404000F00000098
:10092000000000F8040484849800070808080807F9
:1009300000FC40404040FC000F000000000F00049D
:1009400004FC0404000008080F080800000000046C
:100950000404FC0006080808080700FC4020D00832
:1009600004000F000000030C00FC00000000000069
:100970000F080808080800FC1860806018FC0F00C9
:10098000000100000FFC18608000FC000F00000157
:10099000060F00F804040404F80007080808080714
:1009A00000FC8484848478000F000000000000F8BC
:1009B00004040404F8000708080E181700FC8484D7
:1009C000848478000F0001020408003844448484C1
:1009D000080004080808080700040404FC040404D0
:1009E0000000000F000000FC00000000FC000708F1
:1009F0000808080700FC00000000FC0000030C0CC5
:100A0000030000FC0000C00000FC030C0300030C0A
:100A1000030C30C0C0300C000C030000030C003C81
:100A2000408080403C000000000F0000000404846F
:100A300044340C000C0A09080808000000FE0202F9
:100A4000020000003F202020000618608000000007
:100A500000000001061800020202FE000000202033
:100A6000203F0000001008040408100000000000EF
:100A700000000000000000000000202020202020B6
:100A80000000040C1820000000000000000000001E
:100A9000A0A0A0A0C00007080808040F00FC402088
:100AA0002020C0000F040808080700C020202020D4
:100AB000400007080808080400C020202040FC006F
:100AC00007080808040F00C020202020C0000709E4
:100AD000090909090080F88484840800000F0000D7
:100AE000000000C020202040E00023444444423F56
:100AF00000FC40202020C0000F000000000F00007C
:100B00002020EC0000000000000F0000000000208A
:100B100020EC0000102020201F0000FC008040205E
:100B200000000F01010204080000FC0000000000AA
:100B300000070808080000E02020C02020C00F00A7
:100B4000000300000FE040202020C0000F00000044
:100B5000000F00C020202020C00007080808080758
:100B600000E040202020C0007F020404040300C0F5
:100B700020202040E00003040404027F00E0402025
:100B8000202040000F000000000000C02020202096
:100B900040000409090909060020F820202000006F
:100BA00000070808080400E000000000E000070853
:100BB0000808040F00E000000000E00000030C0C37
:100BC000030000E00000800000E0070804030408C0
:100BD000072040808040200008040202040800E052
:100BE00000000000E00023444444423F0020202055
:100BF00020A06000080C0A090808000080807C0220
:100C000002000000001F2020000000FE0000000085
:100C100000001F0000000002027C808000002020F5
:100C20001F000000003008081020201800000000FD
:100C3000000000FEFEFEFEFEFEFE7F7F7F7F7F7FC8
:100C40007F000005072060000000000000005F003A
:100C5000000003000300143E143E14242A7F2A12CD
:100C600043330866613649552250000503000000F1
:100C70001C2241000041221C0014083E08140808F0
:100C80003E080800503000000808080808006060AE
:100C9000000020100804023E5149453E0004027F36
:100CA00000426151494622414949361814127F10C9
:100CB00027454545393E4949493201017109073601
:100CC00049494936264949493E0036360000005612
:100CD0003600000814224100141414141400412298
:100CE000140802015109063E4159555E7E09090961
:100CF0007E7F494949363E414141227F4141413E43
:100D00007F494949417F090909013E4141493A7FEB
:100D10000808087F00417F4100304040403F7F0885
:100D20001422417F404040407F020C027F7F02043A
:100D3000087F3E4141413E7F090909061E212121CC
:100D40005E7F09090976264949493201017F01017F
:100D50003F4040403F1F2040201F7F2010207F4108
:100D6000221C224107087008076151494543007F52
:100D700041000002040810200000417F000402012D
:100D800002044040404040000102040020545454FA
:100D9000787F444444383844444444384444447F8D
:100DA000385454541804047E0505085454543C7FA8
:100DB0000804047800447D40002040443D007F103A
:100DC00028440000417F40007C047804787C0804BB
:100DD000047838444444387C141414080814141457
:100DE0007C007C080404485454542004043F4444C8
:100DF0003C4040207C1C2040201C3C4030403C4477
:100E0000281028440C5050503C4464544C44000872
:100E100036414100007F00004141360800020102D6
:100E200004027F7F7F7F7F04080201104080401012
:100E30002040804080080204018040201002011000
:100E400080102040402000000000250028002B00DA
:100E50002E0031000404040404030405020202020B
:100E60000403020202020606060606060404020243
:100E700002040400F12FE12F11241FBECFEFDAE0AE
:100E8000DEBFCDBF15E0A0E0B1E0EAE5FAE602C0C2
:100E900005900D92A838B107D9F72AE0A8E8B5E087
:100EA00001C01D92AA32B207E1F717E0CBE3D7E009
:100EB00004C02197FE010E940F33CA33D107C9F73E
:100EC0000E9491230C9420350C9400008F929F92E5
:100ED000AF92BF92CF92DF92EF92FF920F931F9348
:100EE000FC0111861286168217826083808561114B
:100EF0000BC0811120C0118281E08087868322830C
:100F00003383448355831AC08823A9F0108681E077
:100F10008783C280D380E480F58049015A018C1810
:100F20009D08AE08BF080CE2801601E09006A104FF
:100F3000B1040CF481878181811117C080858823D9
:100F4000A1F082819381A481B58149015A01881A57
:100F5000990AAA0ABB0A05EF801601E09006A104CF
:100F6000B1041CF081E0828781831F910F91FF9073
:100F7000EF90DF90CF90BF90AF909F908F900895AB
:100F8000FC016093BC008091BC0087FFFCCF909176
:100F9000B900987F90830895CF92DF92EF92FF92ED
:100FA0000F931F93CF93DF93EC01C62ED42E8C8921
:100FB000882351F0411108C084E98093BC008091DE
:100FC000BC0084FDFCCF1C8AEC888E010E5E1F4F96
:100FD000E11014C0FB8864EAC8010E94C0078A8936
:100FE000883011F1803101F1DD2011F080E4E82E2C
:100FF000E092BB0064E8C8010E94C007C092BB0039
:1010000064E8C8010E94C00782E0D81204C08C893D
:101010008F5F8C8B11C084E98093BC008091BC00F1
:1010200084FDFCCF1C8A08C0FF0CF092BB0064E872
:10103000C8010E94C007D8CFDF91CF911F910F91B7
:10104000FF90EF90DF90CF900895089580E090E0BA
:1010500008950F931F93CF93DF9303EF16E0C0E043
:10106000D0E0C0FF02C061E001C060E088E00E9403
:101070005620C1FF02C061E001C060E089E00E942B
:101080005620C2FF02C061E001C060E08AE00E9419
:101090005620CE0123E0959587952A95E1F7892B77
:1010A00011F061E001C060E08BE00E94562061E039
:1010B00070E080E090E00E94112182E10E94C12056
:1010C000F801819391938F0183E10E94C120F8017F
:1010D000978F868F2196C031D10519F6DF91CF9178
:1010E0001F910F910895CF92DF92EF92FF926B01C3
:1010F0007C018091E2059091E305A091E405B09117
:10110000E50524E0B695A795979587952A95D1F79B
:10111000682F6170A701960185ED95E00E94660732
:101120008091E2059091E305A091E405B091E50579
:1011300035E0B695A795979587953A95D1F7682F9D
:101140006170A70196018AEC95E00E946607809184
:10115000E2059091E305A091E405B091E50546E034
:10116000B695A795979587954A95D1F7682F6170A1
:10117000A701960183E995E00E9466076091E20568
:101180006170A70196018EE995E00E946607809143
:10119000E2059091E305A091E405B091E505B695CF
:1011A000A79597958795682F6170A701960189EAA1
:1011B00095E00E9466078091E2059091E305A09179
:1011C000E405B091E50562E0B695A79597958795FA
:1011D0006A95D1F7682F6170A701960184EB95E0BD
:1011E0000E9466078091E2059091E305A091E405D5
:1011F000B091E50573E0B695A795979587957A9593
:10120000D1F7682F6170A70196018FEB95E0FF90F1
:10121000EF90DF90CF900C9466074F925F926F92A1
:101220007F928F929F92AF92BF92CF92DF92EF9276
:10123000FF920F931F93CF93DF9360E08CE00E94A7
:1012400056208FE090E00197F1F761E08CE00E947A
:101250005620C7E0D0E0812C912C54019DEA692EE4
:1012600091E0792E2CE2E22E2EE0F22E39E5C32E0B
:101270003EE0D32E0FE010E0F3018491F70154908B
:10128000F60144904420A1F081110E941920E42D20
:10129000F0E0EE0FFF1FE550FF4FA591B4918C9148
:1012A000582231E020E009F430E0832F922F02C071
:1012B00080E090E0092E000CAA0BBB0B0C2E04C0A2
:1012C000880F991FAA1FBB1F0A94D2F7882A992A50
:1012D000AA2ABB2A61E086E00E945620C801019735
:1012E000F1F760E086E00E945620219708F0C4CF15
:1012F000C501B401DF91CF911F910F91FF90EF9045
:10130000DF90CF90BF90AF909F908F907F906F9025
:101310005F904F9008956F927F928F929F92AF92BD
:10132000BF92CF92DF92EF92FF920F931F93CF93D2
:10133000DF9390EC699FB0011124672F770F770B33
:101340006B01FFE1CF22DD24A3E0CC0CDD1CAA95CC
:10135000E1F7822E912CC42FD0E0EE24EA94F12CF8
:1013600087010C1B1D0B089DD001099DB00D189D18
:10137000B00D11244B2FCC9E5001CD9EB00CDC9EA5
:10138000B00C1124AB2CBB2400E011E038016A182A
:101390007B08689C5001699CB00C789CB00C1124AF
:1013A000EC18FD08EC9E6001ED9ED00CFC9ED00C6C
:1013B0001124CD2CDD240C191D09089DE001099D87
:1013C000D00D189DD00D112462956695677062301E
:1013D00091F038F4662369F06130D9F4522FEB2D87
:1013E00019C0643081F058F0653099F45B2F4B2DB3
:1013F0000EC05D2F0CC0522FEB2F4D2F0BC05B2D5D
:10140000EB2F422F07C05B2F422FED2F03C0E22F9F
:1014100001C040E0682F70E02091FA093091FB098B
:101420006217730708F03FC02091000A222361F081
:10143000E29FF0011124EF2F259FD00111245B2F93
:10144000249F90011124432FF091060A9091030AE2
:101450002091010A3091020AF91308C0B901F3E0A2
:101460008F9F600D711D1124CB010BC0CB01880F24
:10147000991F880F991F820F931FDC01AF0FB11DB9
:101480001C922091030ADC01A20FB11DEC93209164
:10149000040AFC01E20FF11D50832091050AFC01B2
:1014A000E20FF11D4083DF91CF911F910F91FF90CB
:1014B000EF90DF90CF90BF90AF909F908F907F90F4
:1014C0006F900895CF93DF93C9EED9E081E08C83CC
:1014D0000E944B21688379838A839B832FEF40E0AE
:1014E00060E081E0DF91CF910C948B09EF92FF9245
:1014F0000F931F93CF93DF9300D000D0CDB7DEB70B
:10150000E82EF62E142F01E0040F0E94620A10311B
:10151000C0F4612F606980919A0890919B080E94A5
:10152000291D6E2D6F7780919A0890919B080E94DB
:10153000291D6F2D6F7780919A0890919B080E94CA
:10154000291D89E0898300690A83EB82FC828091EE
:101550005D0844E050E0BE016F5F7F4F8F5F0E94E7
:10156000E3130F900F900F900F90DF91CF911F9189
:101570000F91FF90EF900895EF92FF920F931F93BA
:10158000CF93DF9300D000D0CDB7DEB7E82EF62E94
:10159000142F01E0040F0E94620A1031C0F4612F81
:1015A000606B80919A0890919B080E94291D6E2D76
:1015B0006F7780919A0890919B080E94291D6F2D4A
:1015C0006F7780919A0890919B080E94291D81E075
:1015D0008093F2090E944B216093EE097093EF090A
:1015E0008093F0099093F1092FEF40E060E082E0F2
:1015F0000E948B098BE08983006B0A83EB82FC825B
:1016000080915D0844E050E0BE016F5F7F4F8F5FC7
:101610000E94E31380915D088F5F0E9420130F905A
:101620000F900F900F90DF91CF911F910F91FF902E
:10163000EF9008958F929F92AF92BF92CF92DF92D8
:10164000EF92FF920F931F93CF93DF93CDB7DEB747
:10165000CA54D1090FB6F894DEBF0FBECDBF82EBDE
:1016600093E09E012F5F3F4F79018E01075E1F4F70
:10167000D901FC012191CF01E22FF0E0EE0FFF1F15
:10168000ED50F94F208131812D933D93A017B10783
:1016900081F7AEE9B3E0CE018F5B9F4F2FEF33E0D0
:1016A000ED91F0E0EE0FFF1FED50F94FCC24CA94FE
:1016B00053E0D52E40815181B901641B750BF801AF
:1016C000619371938F01E817F90751F784E10E9444
:1016D000C1209601281B390BF8013183208385E155
:1016E0000E94C1209601281B390B25963FAF2EAFD3
:1016F000259786E10E94C120A601481B590B279619
:101700005FAF4EAF279787E10E94C120C81AD90A60
:101710002996DFAECEAE299780918F0590919005E6
:10172000A0919105B0919205B7FD0CC0813951E0AF
:101730009507A105B10524F080E991E0A0E0B0E0B3
:101740009C0102C020E030E0A1E0BCEF0E94153314
:1017500020E931E040E050E00E944D32DA01C90159
:1017600081509C4FAF4FBF4F2B969FAF8EAF2B97A3
:1017700002E011E0D12C88248A9483E0982EA12CD9
:10178000B12CCC24C394F8011482F701219131913A
:101790007F01F80180819181A901481B590BCA0181
:1017A00057FF03C091958195910940970CF44AC069
:1017B000F80131832083A1E8BFEF0E941533A50112
:1017C00094010E944D32CA01B90161587F4F8F4F79
:1017D0009F4FF80173836283C482478580890E948A
:1017E000BC0AD092E1058091DD05882321F0F80143
:1017F0008281858307C08091D205882329F0F80172
:1018000082818683C092E005F80183859485092E44
:10181000000CAA0BBB0B4781508561857285840F34
:10182000951FA61FB71F4091E6055091E7056091EF
:10183000E8057091E905481759076A077B0710F416
:1018400082818587D3940F5E1F4FF5E2DF129BCF15
:10185000C65BDF4F0FB6F894DEBF0FBECDBFDF9182
:10186000CF911F910F91FF90EF90DF90CF90BF909D
:10187000AF909F908F900895EF92FF920F931F93D8
:10188000CF93DF93CDB7DEB768970FB6F894DEBF7E
:101890000FBECDBF0E944B2160936A0870936B0806
:1018A00080936C0890936D088EE09AE00E94AF21BF
:1018B00080916808811102C160916608CE01079687
:1018C0000E94671F6FEA74E0CE0101960E940B131D
:1018D000BE01695F7F4FCE0101960E94541FBC017B
:1018E000CE010D960E94F11220E040E060E0CE01B2
:1018F0000D960E94C821CE010D960E940522CE01B0
:1019000001960E940522CE0107960E94052264ECF2
:1019100074E0CE0101960E940B1320E043E060E0EA
:10192000CE0101960E94C821CE0101960E94052297
:1019300067EC74E0CE0101960E940B1320E043E0B7
:101940006FE3CE0101960E94C821CE0101960E944C
:1019500005226AEC74E0CE0101960E940B1320E090
:1019600043E063E7CE0101960E94C821CE010196B3
:101970000E94052280916608823009F46BC0D8F479
:10198000882321F1813009F0F0C160916E08CE0109
:1019900007960E94671F6DEC74E0CE0101960E94CD
:1019A0000B13BE01695F7F4FCE0101960E94541F49
:1019B00067EE74E067C0843009F47DC008F44DC060
:1019C000853009F0D2C167E075E0C0C1E0916E08D2
:1019D00081E1E89FF0011124EE5FFE4F6089CE01A6
:1019E0000D960E94671F60916E08CE0107960E94B7
:1019F000671F6DEC74E0CE0101960E940B13BE01CF
:101A0000695F7F4FCE0101960E94541F68ED74E01C
:101A10000E94B712BE01635F7F4F0E94541FBC013A
:101A2000CE0143960E94F11221E041E060E0CE0138
:101A300043960E94C821CE0143960E940522CE0102
:101A400001960E940522CE0107960E940522CE0132
:101A50000D9689C16DED74E079C160916E08CE017B
:101A600007960E94671F62ED74E0CE0101960E9406
:101A70000B13BE01695F7F4FCE0101960E94541F78
:101A800060EF74E00E94B712BC01CE010D960E9477
:101A9000F11221E041E060E0CE010D960E94C821E4
:101AA000CE010D960E940522CE0101960E940522CC
:101AB000CE01079658C16BEF74E048C163E175E051
:101AC000CE0101960E940B1320E040E060E0CE01C1
:101AD00001960E94C821CE0101960E94052268E26B
:101AE00075E0CE0101960E940B1320E043E060E018
:101AF000CE0101960E94C821CE0101960E940522C6
:101B00006AE275E0CE0101960E940B1320E043E0EB
:101B10006CE3CE0101960E94C821CE0101960E947D
:101B200005226FE275E0CE0101960E940B1320E0C2
:101B300043E068E7CE0101960E94C821CE010196DC
:101B40000E94052280916608813009F482C048F025
:101B5000823009F4F9C0833009F007C16FE575E000
:101B6000F5C0E0916E08A1E1EA9FF0011124EE5F5B
:101B7000FE4F6089CE010D960E94671F60916E082E
:101B8000CE0107960E94671F62ED74E0CE010196B8
:101B90000E940B13BE01695F7F4FCE0101960E9428
:101BA000541F61E375E00E94B712BE01635F7F4F6F
:101BB0000E94541FBC01CE0143960E94F11221E005
:101BC00041E060E0CE0143960E94C821CE014396D9
:101BD0000E940522CE0101960E940522CE010796A1
:101BE0000E940522CE010D960E94052292E0E92E68
:101BF00091E0F92E10E001E1E0916E08E11711F19A
:101C00000E9FF0011124EE5FFE4F9089D701509690
:101C10008C915097981316C097851F968C919813A6
:101C200011C067E375E0CE0101960E940B1320E01E
:101C300043E069E1CE0101960E94C821CE010196E0
:101C40000E9405221F5FB1E1EB0EF11C1532A1F6D7
:101C50008CC0E0916E0881E1E89FF0011124EE5FF5
:101C6000FE4F678570E06F5F7F4FCE010D960E943B
:101C7000A01F60916E08CE0107960E94671F62ED5B
:101C800074E0CE0101960E940B13BE01695F7F4F85
:101C9000CE0101960E94541F67E475E00E94B712BE
:101CA000BE01635F7F4F0E94541FBC01CE0143966B
:101CB0000E94F11221E041E060E0CE0143960E94D3
:101CC000C821CE0143960E940522CE0101960E94B2
:101CD0000522CE0107960E940522CE010D960E9494
:101CE000052282E0E82E81E0F82E10E001E1E0918B
:101CF0006E08E11711F10E9FF0011124EE5FFE4F07
:101D00009089D70150968C915097981316C097855B
:101D10001F968C91981311C067E375E0CE01019670
:101D20000E940B1320E043E069E1CE0101960E947E
:101D3000C821CE0101960E9405221F5FB1E1EB0E82
:101D4000F11C1532A1F611C06DE475E0CE010196CB
:101D50000E940B1321E041E060E0CE0101960E9459
:101D6000C821CE0101960E94052268960FB6F8940C
:101D7000DEBF0FBECDBFDF91CF911F910F91FF90BE
:101D8000EF9008951F93CF93DF93CDB7DEB762979F
:101D90000FB6F894DEBF0FBECDBFE091E10511E1B3
:101DA0001E9FF0011124EE5FFE4F6089CE01079661
:101DB0000E94671F62E375E0CE0101960E940B133B
:101DC000BE01695F7F4FCE0101960E94541FBC0186
:101DD000CE010D960E94F11220E040E060E0CE01BD
:101DE0000D960E94C821CE010D960E940522CE01BB
:101DF00001960E940522CE0107960E940522E091DD
:101E0000E1051E9FF0011124EE5FFE4F6785CE01B4
:101E100007960E94671F68E475E0CE0101960E9454
:101E20000B13BE01695F7F4FCE0101960E94541FC4
:101E3000BC01CE010D960E94F11220E040E06AE55F
:101E4000CE010D960E94C821CE010D960E9405225A
:101E5000CE0101960E940522CE0107960E9405221E
:101E600062960FB6F894DEBF0FBECDBFDF91CF9163
:101E70001F9108951F93CF93DF93CDB7DEB762977D
:101E80000FB6F894DEBF0FBECDBF8EE09AE00E9481
:101E9000AF210E94C20E6091E105CE0101960E9421
:101EA000671F23E040E067E3CE0101960E94C8214E
:101EB000CE0101960E940522E091E10511E11E9FED
:101EC000F0011124EE5FFE4F6581CE0107960E945E
:101ED000671F6DE675E0CE0101960E940B13BE01EF
:101EE000695F7F4FCE0101960E94541FBC01CE0155
:101EF0000D960E94F11220E043E060E0CE010D96C5
:101F00000E94C821CE010D960E940522CE010196A5
:101F10000E940522CE0107960E940522E091E1056C
:101F20001E9FF0011124EE5FFE4F6681CE010796E1
:101F30000E94671F63E775E0CE0101960E940B13B4
:101F4000BE01695F7F4FCE0101960E94541FBC0104
:101F5000CE010D960E94F11221E042E061E4CE0133
:101F60000D960E94C821CE010D960E940522CE0139
:101F700001960E940522CE0107960E9405226091DB
:101F8000E105CE0101960E94671F23E040E067E370
:101F9000CE0101960E94C821CE0101960E94052221
:101FA00062960FB6F894DEBF0FBECDBFDF91CF9122
:101FB0001F9108951F93CF93DF93CDB7DEB762973C
:101FC0000FB6F894DEBF0FBECDBF8EE09AE00E9440
:101FD000AF210E94C20E6091E105CE0101960E94E0
:101FE000671F23E040E067E3CE0101960E94C8210D
:101FF000CE0101960E940522E091E10511E11E9FAC
:10200000F0011124EE5FFE4F6581CE0107960E941C
:10201000671F68E775E0CE0101960E940B13BE01B1
:10202000695F7F4FCE0101960E94541FBC01CE0113
:102030000D960E94F11221E042E060E0CE010D9683
:102040000E94C821CE010D960E940522CE01019664
:102050000E940522CE0107960E940522E091E1052B
:102060001E9FF0011124EE5FFE4F6681CE010796A0
:102070000E94671F6DE775E0CE0101960E940B1369
:10208000BE01695F7F4FCE0101960E94541FBC01C3
:10209000CE010D960E94F11220E043E060E5CE01F2
:1020A0000D960E94C821CE010D960E940522CE01F8
:1020B00001960E940522CE0107960E94052260919A
:1020C000E105CE0101960E94671F23E040E067E32F
:1020D000CE0101960E94C821CE0101960E940522E0
:1020E00062960FB6F894DEBF0FBECDBFDF91CF91E1
:1020F0001F9108951F93CF93DF93CDB7DEB76297FB
:102100000FB6F894DEBF0FBECDBF8EE09AE00E94FE
:10211000AF210E94C20EE091E10511E11E9FF00186
:102120001124EE5FFE4F6581CE0107960E94671F66
:102130006DE675E0CE0101960E940B13BE01695F4A
:102140007F4FCE0101960E94541FBC01CE010D9617
:102150000E94F11220E043E060E0CE010D960E9463
:10216000C821CE010D960E940522CE0101960E9443
:102170000522CE0107960E940522E091E1051E9FEF
:10218000F0011124EE5FFE4F6681CE0107960E949A
:10219000671F6DE775E0CE0101960E940B13BE012B
:1021A000695F7F4FCE0101960E94541FBC01CE0192
:1021B0000D960E94F11220E043E060E5CE010D96FD
:1021C0000E94C821CE010D960E940522CE010196E3
:1021D0000E940522CE0107960E9405226091E1052A
:1021E000CE0101960E94671F23E041E067E3CE0124
:1021F00001960E94C821CE0101960E940522629696
:102200000FB6F894DEBF0FBECDBFDF91CF911F9107
:102210000895409141075091420720913F07309126
:10222000400742175307B4F49091E8009570E1F32A
:102230009091E80092FD19C08093F10080914107D0
:102240009091420701968F739927892B19F48EEF8D
:102250008093E80080914107909142070196909306
:1022600042078093410781E0089580E0089561501E
:1022700030F02091F100FC0120830196F8CF2898DE
:1022800084E6809344070895CF92DF92EF92FF9205
:102290000F931F93CF93DF936C017A018B01C0E002
:1022A000D0E0CE15DF0581F0D8016D918D01D6010A
:1022B000ED91FC910190F081E02DC6010995892BEB
:1022C00011F02196EECF7E01C701DF91CF911F91D2
:1022D0000F91FF90EF90DF90CF900895FC01538D08
:1022E000448D252F30E0842F90E0821B930B5417F0
:1022F00010F0CF96089501970895FC01918D828D7D
:10230000981761F0828DDF01A80FB11D5D968C9149
:10231000928D9F5F9F73928F90E008958FEF9FEF54
:102320000895FC01918D828D981731F0828DE80F10
:10233000F11D858D90E008958FEF9FEF0895FC01CA
:10234000918D228D892F90E0805C9F4F821B910997
:102350008F739927089580E499E00E949F1121E0EE
:10236000892B09F420E0822F0895FC01848DDF0180
:10237000A80FB11DA35ABF4F2C91848D90E00196F8
:102380008F739927848FA689B7892C93A089B189E7
:102390008C9182748C93938D848D981306C00288DF
:1023A000F389E02D80818F7D80830895EF92FF92E5
:1023B0000F931F93CF93DF93EC0181E0888F9B8D68
:1023C0008C8D981305C0E889F989808185FD26C028
:1023D000F62E0B8D10E00F5F1F4F0F731127E02EAD
:1023E0008C8DE8120CC00FB607FCFACFE889F9898A
:1023F000808185FFF5CFCE010E94B511F1CF8B8D85
:10240000FE01E80FF11DE35AFF4FF0829FB7F894E9
:102410000B8FEA89FB898081806209C09FB7F8949D
:10242000EE89FF896083E889F989808182748083DD
:102430009FBF81E090E0DF91CF911F910F91FF90BE
:10244000EF900895CF93DF93EC01888D8823C9F036
:10245000EA89FB89808185FD05C0A889B9898C91AD
:1024600086FD0FC00FB607FCF5CF808185FFF2CF48
:10247000A889B9898C9185FFEDCFCE010E94B51155
:10248000E7CFDF91CF91089580E090E0892B29F08C
:102490000E94AB1181110C94000008950E940B352D
:1024A0000F931F93CF93DF93EC018881998100975D
:1024B00029F02A813B812617370788F48B016F5F4B
:1024C0007F4F0E944534009761F0998388831B8376
:1024D0000A832C813D81232B11F4FC01108281E0C1
:1024E00001C080E0DF91CF911F910F910895EF928D
:1024F000FF920F931F93CF93DF936115710511F432
:1025000080E01CC041155105C1F07B01EC018C81BC
:102510009D818A01080F191FB801CE010E94501237
:10252000882371F3288139818C819D81B701820FC5
:10253000931F0E9419351D830C8381E0DF91CF9199
:102540001F910F91FF90EF900895CF93DF93EC01CF
:1025500088819981009711F00E94BC3319821882FA
:102560001D821C821B821A82DF91CF910895CF9326
:10257000DF93EC016115710561F0FB010190002012
:10258000E9F73197AF01461B570B0E947712811173
:1025900003C0CE010E94A512CE01DF91CF91089514
:1025A000EF92FF920F931F93CF93DF93EC017B0188
:1025B0008A01BA010E945012811104C0CE010E940A
:1025C000A51207C01D830C83B701888199810E94E1
:1025D0001935CE01DF91CF911F910F91FF90EF90B0
:1025E0000895FB01DC0111961C921E9213961C9219
:1025F0001E92129715961C921E9214978617970793
:1026000049F0608171816115710521F04481558126
:102610000C94D0120895FC01118210821382128250
:10262000158214826115710551F0FB0101900020A3
:10263000E9F73197AF01461B570B0C94D012089560
:102640008093E9008091F200882319F08AE3809357
:10265000E80008951F920F920FB60F9211242F9346
:102660003F934F935F936F937F938F939F93AF931A
:10267000BF93CF93EF93FF93C091E1008091E1006E
:10268000837F8093E100C3FF0FC01092E90081E0D7
:102690008093EB001092EC0082E38093ED001092A7
:1026A0008A0588E08093F000C2FF19C083E00E9491
:1026B000201380914507882339F080914507815088
:1026C00080934507882389F180914407882339F056
:1026D00080914407815080934407882341F1C4FFCF
:1026E00010C08091E2008E7E81608093E200809134
:1026F000E1008F7E8093E100809188058E7E80616D
:1027000011C0C0FF16C08091E2008E7E8061809370
:10271000E2008091E1008E7E8093E1008091880547
:102720008E7E81608093880504C05D9ACDCF289A03
:10273000D6CFFF91EF91CF91BF91AF919F918F91A4
:102740007F916F915F914F913F912F910F900FBEAD
:102750000F901F901895DF92EF92FF920F931F93A7
:10276000CF93DF93D82E8A017B01E40EF51EEB0197
:10277000CE15DF0571F0D7FE03C0FE01849101C0C4
:1027800088810E94091121968111F2CF8FEF9FEF6E
:1027900001C0C801DF91CF911F910F91FF90EF9081
:1027A000DF9008952FB7F89487708093E900909197
:1027B000E800892F807295FF04C09091F20080E4B8
:1027C000891B2FBF08957F928F929F92AF92BF92E5
:1027D000CF92DF92EF92FF920F931F93CF93DF93ED
:1027E000C82E8B017A0180918A05811103C08FEF79
:1027F0009FEF74C08091880580FF05C08091E00044
:1028000082608093E000CE2DDF2DD12C8AEFB82E90
:102810008C2D8770982E8C2D8072882E8C2D807434
:10282000782E9AE3A92E209719F4DD2009F451C0DF
:102830008C2D0E94D21381110AC0BA94BB20B9F228
:1028400061E070E080E090E00E941121ECCF282F41
:1028500030E0C217D3070CF48C2F9FB7F8949092F6
:10286000E9002091E80025FF32C0282F30E0C21B8C
:10287000D30B882029F08150A0F01092F100FBCFFB
:10288000F801C7FE0AC0815050F044914093F10016
:102890003196F9CF41914093F1008150D8F7020F62
:1028A000131FDD2019F0A092E8000AC08091E80013
:1028B00085FD08C0A092E800DD24D394209739F06C
:1028C000D12C05C0209719F47110A092E8009FBF89
:1028D000AACF5D9884E680934507C701DF91CF9129
:1028E0001F910F91FF90EF90DF90CF90BF90AF902E
:1028F0009F908F907F900895CF93DF93EC0180910C
:102900008203882331F083E00E94E313181619062E
:1029100034F081E090E09B838A8380E090E0DF9157
:10292000CF91089590918A05992311F057FF03C024
:102930008FEF9FEF08959FB7F89487708093E90019
:102940002091F20030E0421753070CF49A01822FD5
:10295000FB0144E6815038F0289840934407509199
:10296000F1005193F7CF2115310521F08091F2004C
:10297000882319F09FBFC90108958BE68093E80072
:10298000F9CF9FB7F89487708093E9008091F200A7
:102990009FBF08958091370781110DC082E0809319
:1029A000330784E08093340710923607109235077E
:1029B00081E08093370783E397E008950F931F9397
:1029C000CF93DF931F92CDB7DEB782E0898342E4D5
:1029D00050E069E071E080E80E94AB130E94CA14E5
:1029E000DC0112960D911C9113970115110589F0C8
:1029F000D801ED91FC910280F381E02DBE016F5F63
:102A00007F4FC801099597FD04C0F8010085118525
:102A1000ECCF89810F90DF91CF911F910F91089595
:102A20001F920F920FB60F921124CF92DF92EF9266
:102A3000FF920F931F932F933F934F935F936F9347
:102A40007F938F939F93AF93BF93EF93FF93CF9316
:102A5000DF93CDB7DEB76C97DEBFCDBF1092E90034
:102A60008091E80083FFFBC168E0CE0145960E949B
:102A7000371182EF8093E8008D8987FF05C0909120
:102A8000E80090FFFCCF03C09EEF9093E800982FE2
:102A9000907609F0C6C09E894F89588D2F89F88C91
:102AA00091110CC0803829F4809189058093F10040
:102AB00002C01092F1001092F10045C1913051F422
:102AC000811141C14130510509F03DC18091890515
:102AD0008D7F0BC0933061F4811135C141305105B8
:102AE00009F031C1809189058260809389052BC1ED
:102AF000953049F48091E80080FFFCCF822F8068F8
:102B00008093E30020C1963009F05EC00B8D1C8DD0
:102B100022E01092E9001092420710924107F2124F
:102B200032C01092400710923F070E94DE1499E0D5
:102B3000BE016F5F7F4FDB01E92F1D92EA95E9F738
:102B40009983FA8291E09E8390EA98879AEF998719
:102B50002091410730914207275F3F4F3C832B83F1
:102B60008D831092E9001092420710924107109352
:102B7000400700933F0749E050E080E00E94AB131C
:102B80000E94DE14E0C01093400700933F070E94AC
:102B9000CA14DC0112960D911C91139701151105B1
:102BA00009F4BBC0D801ED91FC910480F581E02DC2
:102BB000BE016B5E7F4FC8010995009709F0C7C041
:102BC000F80100851185EACF973009F445C19830A6
:102BD00021F481E08093F100B6C0993009F0B3C0D0
:102BE000837009F039C1E4E8F3E081E031E096E375
:102BF0002081211109C08EE78093EA001092EA003B
:102C00008F8980938A059FC08093E9003093EB0001
:102C100021912093EC009093ED008F5F873041F776
:102C2000EACF8B8D9C8D1092E90010924207109292
:102C300041079093400780933F07898D811153C0CE
:102C40008E899D89913A49F4813209F005C147E0A6
:102C500050E06BE773E080E0BBC0913209F0FCC04C
:102C6000833269F48F89988DA0E0B0E08093770378
:102C700090937803A0937903B0937A0364C0803271
:102C800069F48091E80082FFFCCF67E08BE793E076
:102C90000E9437118BEF8093E80055C0823209F013
:102CA00052C08F8980938203EEEFFFE78591949164
:102CB0008B3F9C4D19F0E0E0F8E002C0EEEFFAE047
:102CC00080917B0390917C03A0917D03B0917E0362
:102CD000803B9440A105B10509F09EC0809182031C
:102CE00080FF79C099C00E94CA14FC01028113813F
:102CF0000115110509F4B0C0D801ED91FC910190C6
:102D0000F081E02DBE016B5E7F4FC80109958111F6
:102D10001AC0F80100851185EBCFF1E0FF1609F428
:102D20004EC0F3E0FF1298C08F89882309F44AC08F
:102D3000823089F440E860E18DE691E00E94AC2F9A
:102D4000882309F489C08EEF8093E80088C01816A4
:102D50001906CCF381C0813029F440E86BE081E6AC
:102D600091E0ECCF833009F077C00E94CA14DC01F7
:102D70001296ED90FC9013978E010F5F1F4F680124
:102D8000E114F10479F0D701ED91FC910680F7810F
:102D9000E02DB801C7010995080F111DF701E08466
:102DA000F184EECFD8011C92F60101900020E9F7E2
:102DB0003197BF016C197D0940E0C601BFCF6FE4B8
:102DC00071E002C06BE471E0FB01449150E080E8E7
:102DD0000E94AB13B8CFEE3F2AE0F20751F080819A
:102DE00091818737A7E79A0721F09093FF0A809394
:102DF000FE0A87E797E79183808380916000809344
:102E000043079BE088E10FB6F894A8958093600093
:102E10000FBE9093600097CF80819181873797474D
:102E200009F091CFA895809160008861809360003F
:102E30008091430780936000EE3FBAE0FB0739F0D2
:102E40008091FE0A9091FF0A918380837CCF10923B
:102E5000FF0A1092FE0A77CF81E28093EB006C9616
:102E60000FB6F894DEBF0FBECDBFDF91CF91FF91BB
:102E7000EF91BF91AF919F918F917F916F915F91F2
:102E80004F913F912F911F910F91FF90EF90DF9005
:102E9000CF900F900FBE0F901F9018951F920F921A
:102EA0000FB60F9211242F933F934F935F936F931D
:102EB0007F938F939F93AF93BF93EF93FF9380E4A0
:102EC00099E00E94B511FF91EF91BF91AF919F9151
:102ED0008F917F916F915F914F913F912F910F90C3
:102EE0000FBE0F901F9018951F920F920FB60F9262
:102EF00011242F938F939F93EF93FF93E0915009A9
:102F0000F09151098081E0915609F091570982FDB5
:102F100012C09081809159098F5F8F7320915A0957
:102F2000821751F0E0915909F0E0E05CF64F958F7F
:102F30008093590901C08081FF91EF919F918F91FA
:102F40002F910F900FBE0F901F901895CF93DF9386
:102F50001F92CDB7DEB76983DC01ED91FC91028051
:102F6000F381E02D41E050E0BE016F5F7F4F099596
:102F70000F90DF91CF910895CF93DF93EC018D8572
:102F8000882319F081508D8711C09C818E819817FC
:102F900068F488896827E881F9810084F185E02D4B
:102FA00042E0CE0109958C818F5F8C83DF91CF91B8
:102FB000089585ED8093BC008091BC0084FDFCCF1A
:102FC0001092D907089540916607262F30E0240F0C
:102FD000311D21323105DCF42091D9072430C9F4A8
:102FE000FC0180E090E0861758F43091660721914B
:102FF000DC01AA5BB84FA30FB11D2C930196F3CF50
:1030000080916607680F6093660780E0089581E00D
:10301000089582E00895089508950895E091920733
:1030200080919107E81730F4F0E0ED56F84F808179
:1030300090E008958FEF9FEF08959091920780910F
:103040009107981750F4E92FF0E0ED56F84F2081E2
:1030500030E09F5F9093920702C02FEF3FEFC901CE
:1030600008958091910790E020919207821B910929
:103070000895CF92DF92EF92FF920F931F93CF9319
:10308000DF937C01CB018A012091DA07222389F0AA
:10309000EB016B01C40ED51ECC15DD0569F06991FD
:1030A000D701ED91FC910190F081E02DC7010995C8
:1030B000F3CF642F0E94E317C801DF91CF911F91D6
:1030C0000F91FF90EF90DF90CF900895CF93DF9313
:1030D0001F92CDB7DEB769832091DA072223D1F0A2
:1030E0002091FD07203240F021E030E0FC013383E5
:1030F000228380E090E015C08091DB07E82FF0E0AC
:10310000E452F84F998190838F5F8093DB0780931F
:10311000FD0705C061E0CE0101960E94E31781E042
:1031200090E00F90DF91CF91089580E090E00895B6
:1031300080E00895FC0182818F5BFB01808381E048
:10314000089583E00C94201383E00E94D21390E052
:1031500008950F931F93CF93DF931F92CDB7DEB7E0
:103160008C01FC018485958597FF12C041E050E0F9
:10317000BE016F5F7F4F82E00E949214019719F4A5
:10318000898190E002C08FEF9FEFF80195878487D7
:10319000F801848595850F90DF91CF911F910F9154
:1031A0000895CF93DF931F92CDB7DEB7FC018485DE
:1031B000958597FD05C02FEF3FEF358724870FC01A
:1031C00041E050E0BE016F5F7F4F82E00E949214A9
:1031D000019719F4898190E002C08FEF9FEF0F9063
:1031E000DF91CF910895FC018485958597FD06C0F8
:1031F00082E00E94C11490E00196089582E00E944E
:10320000C11490E0089584E0E3E8F5E0DB0101906B
:103210000D928A95E1F784E00895CF92DF92EF92C4
:10322000FF920F931F93CF93DF93CDB7DEB7C456B2
:10323000D1090FB6F894DEBF0FBECDBF6C01DB0124
:103240009C919E5F9C93FE01319684E6DF011D9266
:103250008A95E9F788E089838BE08A8322E02C83D2
:1032600091E09D839E8339E0398774E07A879E8759
:103270009F873A8B44E24B8B9C8B00E011E01E8BC6
:103280000D8B89E0E82EF12CF88EEF8A998F3B8F19
:103290007C8F2F8F98A353E059A387E08CA34DA375
:1032A0009EA318A70FA301E410E01AA709A786E0C0
:1032B0008BA74CA72DA79EA79FA789AB4AAB2BAB8B
:1032C0002CAB2DAB3FAB48AF59AF9AAF5BAF9CAFC8
:1032D0002DAF9EAF21963FAF219722964FAF2297F9
:1032E00023965FAF239724962FAF249725967FAF21
:1032F000259726969FAF269727969FAF27972896C4
:103300009FAF28972A963FAF2A9745E02B964FAF5D
:103310002B972D962FAF2D9760E470E02F967FAFFF
:103320006EAF2F9763964FAF639785E264968FAF2A
:10333000649765969FAF659766969FAF6697679609
:103340009FAF679768963FAF689769964FAF699749
:103350006B962FAF6B976D967FAF6EAF6D97A19603
:103360004FAFA197A2968FAFA297A3969FAFA397B7
:10337000A4969FAFA497A5965FAFA597D601129686
:103380009C9112979B839B879F5F9A8F9D8F13962B
:103390008C912C968FAF2C978F5F80686A968FAF39
:1033A0006A9744E650E0BF0180E00E94AB13CC591D
:1033B000DF4F0FB6F894DEBF0FBECDBFDF91CF91C8
:1033C0001F910F91FF90EF90DF90CF900895DC0157
:1033D000ED91FC910084F185E02D40E00994FC0121
:1033E0008781869586958695681740F465839385D1
:1033F000690F6770606BCF010C94E71908950F9304
:103400001F93CF93FC0126816217A0F4C62F8C0175
:1034100064839085C90F6C2F6F70CF010E94E719EC
:103420006C2F62956F706061C801CF911F910F91F1
:103430000C94E719CF911F910F910895CF92DF92CD
:10344000EF92FF920F931F93CF93DF93EC01F62E31
:10345000C42ED22E1D868F81869586958695081757
:1034600010F00FEF080F1D2D6F2DCE01011788F002
:103470000E94FF19612FCE010E94EF19EF2CCE148C
:1034800030F06889CE010E94BC17E394F8CF1F5F2B
:10349000EBCF0E94FF196D2DCE01DF91CF911F91CF
:1034A0000F91FF90EF90DF90CF900C94EF192F9237
:1034B0003F924F925F926F927F928F929F92AF92C4
:1034C000BF92CF92DF92EF92FF920F931F93CF9311
:1034D000DF93CDB7DEB72A970FB6F894DEBF0FBEE5
:1034E000CDBFDC011E962D913C911F972115310512
:1034F00009F463C19A878987F9013296449031961D
:103500007491E72EF12CB7E0EB0EF11C93E0F594EB
:10351000E7949A95E1F7EA823196A4913196E49185
:103520006A1758F0462F50E08E2F90E0FC01EA0F0A
:10353000F11D4E175F070CF46AC06D3031F460E086
:1035400089859A850E94FF193BC16A3009F035C10F
:1035500060E089859A850E94FF19E985FA850189CD
:103560000E9DE02C112427812695269526956581B0
:103570006E0D8E2D821B860F9485992309F418C138
:1035800018160CF015C1A985BA851B969C911B973E
:10359000890F87701B968C931B972E1915962C9369
:1035A00015971E96ED91FC911F97309769F0339611
:1035B000E491F0E0379683E0F595E7958A95E1F799
:1035C0000E9FE02D112401C0E0E00FEF020F0E0F5F
:1035D000E985FA85468141506481CF010E941E1A17
:1035E000A985BA851C968C911C97813009F0E8C09A
:1035F0001B966C911B97660F660F660F6F731A967A
:103600006C931A976064CD010E94E719D9C0A90193
:103610004A5F5F4F6A1BA985BA851996FC91199775
:103620005196EC91FE9FE02D1124E887F901A491B9
:103630003196249130E03A2B2230310570F44E9CC3
:10364000C0014F9C900D1124689F8001699F100D4F
:103650001124040F151F312C22C0777021F028E0AF
:10366000322E371A01C0312CFA0120E0A0E0B0E080
:10367000261731F03491A30FB11D2F5F3196F8CF8B
:10368000FA01E20FF11D4490EA9E8001EB9E100DBD
:10369000FA9E100D1124080F191F040F151FA9857C
:1036A000BA851496BC91BB83E985FA85F581FC83C4
:1036B000A985BA851D96BC91BD83E42DF0E0FF83FA
:1036C000EE83812C912CC12CD12CC982FA81CF168A
:1036D00008F06DC0212C36019FEF691A790AA9857F
:1036E000BA8551968C915197281608F058C0ED81F3
:1036F0001D96EC93F981F11102C0222079F0A98581
:10370000BA851596BC901597B3946B81CD010E9434
:10371000FF196B2D89859A850E94EF19A12CB12C78
:10372000A41410F0B12C2FC0F401EA0DFB1DE00F22
:10373000F11F5490332061F0E614F70449F4E52DAD
:10374000F0E0032C02C0F595E7950A94E2F75E2EAF
:10375000E985FA858189823069F4E52D2110E295A9
:10376000EF70F0E0E258FE4F5490652D89859A8500
:103770000E94BC17652D89859A850E94BC17FFEFB2
:10378000AF1ABF0ACDCF8885B81639F060E08985B9
:103790009A850E94BC17B394F6CF2394A0CF9FEFD5
:1037A000C91AD90AAE81BF818A0E9B1E8ECF6C8149
:1037B00089859A850E94EF1903C080E090E002C0DD
:1037C00081E090E02A960FB6F894DEBF0FBECDBF21
:1037D000DF91CF911F910F91FF90EF90DF90CF90ED
:1037E000BF90AF909F908F907F906F905F904F9021
:1037F0003F902F9008951F920F920FB60F921124B1
:103800002F933F934F935F936F937F938F939F93E8
:10381000AF93BF93EF93FF938091B900887F803679
:1038200009F49CC068F5883209F45BC090F48031DB
:1038300009F454C038F4882309F4F6C0883009F438
:103840004DC0F6C0883109F44CC0803209F45DC027
:10385000EFC0803409F468C048F4803309F455C0DF
:10386000883309F0E5C08093D707D8C0803509F4C4
:103870004FC0883509F45DC0883409F0D9C0D6C07E
:10388000883909F4C7C0A8F4883709F467C038F448
:10389000883609F463C0803709F460C0C9C088382D
:1038A00009F4B8C0803909F45FC0803809F0C0C09D
:1038B0005BC0803B09F486C038F4803A09F466C0E6
:1038C000883A09F47FC0B4C0803C09F4A7C0883CA2
:1038D00009F4A4C0883B09F48AC0AAC08091B40747
:1038E00010C09091D6078091D507981770F5E09198
:1038F000D60781E08E0F8093D607F0E0EB54F84FA7
:1039000080818093BB0085EC86C08093D7078EC0F2
:10391000E091D60781E08E0F8093D6078091BB009F
:10392000F0E0EB54F84F80839091D6078091D50753
:103930006EC0E091D60781E08E0F8093D60780910C
:10394000BB00F0E0EB54F84F80838091D8078111E1
:103950006DC081E08093B30784EA61C083E0809307
:10396000D90710928807CFCF80918807803208F05E
:1039700051C0E091880781E08E0F80938807809185
:10398000BB00F0E0E859F84F8083BDCF85EC809311
:10399000BC001092D90780918807803230F4E09102
:1039A0008807F0E0E859F84F10826091880770E0CE
:1039B000E0918B05F0918C0588E697E009951092CF
:1039C000880736C084E08093D90710926707109269
:1039D0006607E0918D05F0918E0509958091660747
:1039E000811105C081E08093660710924607E0913F
:1039F000670781E08E0F80936707F0E0EA5BF84F7E
:103A000080818093BB00909167078091660798172B
:103A100008F479CF85E88093BC000AC085EC8093D8
:103A2000BC001092D90704C01092D7070E94D91782
:103A3000FF91EF91BF91AF919F918F917F916F9186
:103A40005F914F913F912F910F900FBE0F901F905C
:103A50001895DC018D919C91DC01ED91FC91019018
:103A6000F081E02D0994AF92BF92CF92DF92EF9256
:103A7000FF921F93CF93DF93182FE2E0F1E056E619
:103A8000C52E53E0D52E20E030E066E0A62EB12C06
:103A9000CFEFD0E082819381B5010E94FB32CB0150
:103AA000EE24EA94F12CBE010E94FB32820F931F98
:103AB000BE010E94FB329C017196CE16DF0651F7C3
:103AC000C296B7010E94FB32EC01DD27212F4FEF98
:103AD000682F80E00E948B09CE018896B7010E9472
:103AE000FB32212F4FEF682F81E00E948B09CE011E
:103AF0004E96B7010E94FB32212F4FEF682F82E0D4
:103B00000E948B09CE010A96B7010E94FB32212F39
:103B10004FEF682F83E0DF91CF911F91FF90EF90DF
:103B2000DF90CF90BF90AF900C948B091F93CF93F1
:103B3000DF93162FCDEDD9E0998121E02093DA07AC
:103B40009093FC071092DB071092FD07682F8EE41C
:103B500098E00E946618612F8EE498E00E94661833
:103B600081E00E94EB228883DF91CF911F9108951D
:103B70009091D9079111FCCF613208F060E291E099
:103B80009093D9079093D8072FEF2093D7071092DF
:103B9000D607260F2093D5079093B4079091B407CA
:103BA000880F892B8093B4078091B307813061F42B
:103BB0001092B3078091B4078093BB008091BC0042
:103BC00083FDF8CF85EC01C085EE8093BC00809129
:103BD000D9078130E1F38091D607861710F4609100
:103BE000D607E5EBF7E0A3E9B7E080E0861721F020
:103BF00091919D938F5FFACF1092920780939107D6
:103C00000895CF93DF93CDEDD9E0998121E0209302
:103C1000DA079093FC071092DB071092FD07682FDC
:103C20008EE498E00E94661881E00E94EB2288836F
:103C300062E089810E94B81D8EE498E00E941D1800
:103C4000D82F80E0C82F8EE498E00E941D188C2B9E
:103C50009D2BDF91CF910895CF93DF93CDEDD9E0E8
:103C6000998121E02093DA079093FC071092DB07FB
:103C70001092FD07682F8EE498E00E94661881E09C
:103C80000E94EB22888361E089810E94B81D8EE446
:103C900098E00E941D18DF91CF9108950F931F9314
:103CA000CF93DF93162F072FCDEDD9E0998121E037
:103CB0002093DA079093FC071092DB071092FD0720
:103CC000682F8EE498E00E946618602F8EE498E0DA
:103CD0000E946618612F8EE498E00E94661881E0C9
:103CE0000E94EB228883DF91CF911F910F9108955D
:103CF0008F929F92AF92BF92EF92FF920F931F937A
:103D0000CF93DF937C01EB0180E50E942C1E8F5F37
:103D1000880F90E09983888386E40E942C1E082FE8
:103D200010E00F5F1F4F1D830C83A881B0E020E0DF
:103D30003FE24AE350E00E946C326C507E4F8F4F5E
:103D40009F4F38EE832E33E0932EA12CB12CA5018A
:103D500094010E94B632D8010E9477326C507E4F97
:103D60008F4F9F4FA50194010E94B6322A873B874F
:103D70004C875D8781E50E94011E8C01112702C0DE
:103D8000000F111F9A95E2F70F5F1F4F1F830E83DD
:103D9000A881B0E020E03FE24AE350E00E946C32AC
:103DA0006C507E4F8F4F9F4FA50194010E94B632F9
:103DB000D8010E946C326C507E4F8F4F9F4FA501EF
:103DC00094010E94B6322E873F87488B598B80E73B
:103DD0000E942C1E8F5F880F90E09B838A8381E76F
:103DE0000E94011E9C01992702C0880F991F3A95D5
:103DF000E2F7019699878887F7012381222331F022
:103E00002E813F81821B930B99878887AA81B0E01E
:103E100020E03FE24AE350E00E946C326C507E4F5B
:103E20008F4F9F4F28EE822E23E0922EA12CB12C93
:103E3000A50194010E94B632A885B9850E946C3212
:103E40006C507E4F8F4F9F4FA50194010E94B63258
:103E50002A8B3B8B4C8B5D8BDF91CF911F910F9108
:103E6000FF90EF90BF90AF909F908F900895CF9369
:103E7000DF93EC0181E00E942C1E84FB992790F9CE
:103E8000988383FB992790F99A8382FB992790F96D
:103E9000998386FB992790F99B83881F8827881F21
:103EA0008C83DF91CF910895CF93DF93EC01FB01D9
:103EB00044815581608171810E947712811103C014
:103EC000CE010E94A512CE01DF91CF910895EF920D
:103ED000FF920F931F93CF93DF93CDB7DEB7299750
:103EE0000FB6F894DEBF0FBECDBF8C01862FF80150
:103EF0001182108213821282158214824AE09E017E
:103F00002F5F3F4F7901B90190E00E940D32F70118
:103F100001900020E9F73197AF014E195F09B70111
:103F2000C8010E94D01229960FB6F894DEBF0FBECA
:103F3000CDBFDF91CF911F910F91FF90EF9008952A
:103F4000EF92FF920F931F93CF93DF93CDB7DEB71E
:103F500062970FB6F894DEBF0FBECDBF8C01CB01C8
:103F6000F8011182108213821282158214824AE0B3
:103F70009E012F5F3F4F7901B9010E940232F70184
:103F800001900020E9F73197AF014E195F09B701A1
:103F9000C8010E94D01262960FB6F894DEBF0FBE21
:103FA000CDBFDF91CF911F910F91FF90EF900895BA
:103FB0008F929F92AF92BF920F931F93CF93DF93F5
:103FC000CDB7DEB7A1970FB6F894DEBF0FBECDBF59
:103FD00019A2423008F44AE08E010F5D1F4F842E73
:103FE000912CA12CB12CA50194010E94B632E62F90
:103FF000B901CA0101501109EA3014F4E05D01C0B1
:10400000E95CD801EC93232B242B252B61F7C80105
:104010000E949D21A1960FB6F894DEBF0FBECDBFC2
:10402000DF91CF911F910F91BF90AF909F908F9094
:10403000089590E0FC013197EF30F105B0F5EA5AB0
:10404000FF4F0C940F33809180008F7703C08091D5
:1040500080008F7D80938000089580918000877F0D
:10406000F9CF84B58F7702C084B58F7D84BD089564
:10407000809190008F7707C0809190008F7D03C062
:1040800080919000877F8093900008958091C00078
:104090008F7703C08091C0008F7D8093C00008950A
:1040A0008091C200877F8093C20008951F93CF93B1
:1040B000DF93282F30E0F901E855FE4F8491F90194
:1040C000E95DF14FD491F901EC5AF14FC491CC2341
:1040D000C1F0162F81110E941920EC2FF0E0EE0F95
:1040E000FF1FEA5BF14FA591B4919FB7F8941111AE
:1040F00004C08C91D095D82302C0EC91DE2BDC93C8
:104100009FBFDF91CF911F910895CF93DF9390E0F0
:10411000FC01E95DF14F2491FC01EC5AF14F8491CF
:10412000882361F190E0880F991FFC01E656FE4F4D
:10413000C591D491FC01EA5BF14FA591B491611155
:1041400009C09FB7F8948881209582238883EC91D9
:104150002E230BC0623061F49FB7F8948881322F10
:10416000309583238883EC912E2B2C939FBF06C020
:104170008FB7F894E8812E2B28838FBFDF91CF91E2
:104180000895823108F08251E82FF0E0E257FE4FA7
:10419000E49180917B00E3FB222720F930E095E059
:1041A000220F331F9A95E1F78F7D282B20937B00F8
:1041B000E770E064E0937C0080917A0080648093F3
:1041C0007A0080917A0086FDFCCF80917800209162
:1041D000790090E0922B08953FB7F89480918D0775
:1041E00090918E07A0918F07B091900726B5A89B5C
:1041F00005C02F3F19F00196A11DB11D3FBFBA2F79
:10420000A92F982F8827820F911DA11DB11DBC01D8
:10421000CD0142E0660F771F881F991F4A95D1F79D
:1042200008958F929F92AF92BF92CF92DF92EF92BA
:10423000FF926B017C010E94EC204B015C01C114D8
:10424000D104E104F104F1F00E94EC20DC01CB0187
:1042500088199909AA09BB09883E9340A105B105AF
:1042600070F321E0C21AD108E108F10888EE880E47
:1042700083E0981EA11CB11CC114D104E104F10417
:1042800019F7DDCFFF90EF90DF90CF90BF90AF9008
:104290009F908F9008952FB7F8946091890770913F
:1042A0008A0780918B0790918C072FBF0895682F04
:1042B000616080E00E94961D0E944B217093E3098B
:1042C0006093E20983E10E942C1E8770B9F480910B
:1042D000DF099091E009892BA9F30E944B212091DD
:1042E000E2093091E309621B730B8091DF09909121
:1042F000E0098617970730F780E0089561E08BE0CA
:104300000E94961D60E080E00E94961D81E0089565
:1043100090931D0A80931C0A009741F0FC012491A0
:104320003196849190E0922B019721F081E0809367
:10433000170A08951092170A0895009769F0FC0172
:1043400001900020E9F73197AF01481B590BBC01E0
:104350008EEF97E00C947C1480E090E008950F932A
:10436000CF93DF93EC011B861A8660E40E94E71965
:104370000F8106950695069501504E81415020E02B
:1043800060E0CE010E941E1ADF91CF910F91089537
:10439000FF920F931F93CF93DF938C01F62ED42FB0
:1043A000C22F213059F038F0223059F02330A9F4CF
:1043B00087EC91E00DC081E49CE00AC08BEF96E0B1
:1043C00002C081E49CE00E948821C0931F0A05C0BE
:1043D0000E94882181E080931F0A6F2D8EE09AE071
:1043E0000E94FF196D2F8EE09AE00E94EF19F801EC
:1043F00044815581608171818EE09AE0DF91CF9197
:104400001F910F91FF900C944411FC0180819181C8
:104410000C94BC33CF92DF92EF92FF920F931F93D5
:10442000CF93DF93CDB7DEB729970FB6F894DEBFF1
:104430000FBECDBF8091010A9091020A892B09F429
:10444000BBC0C090070AD090080AE090090AF0901B
:104450000A0A0E94EC206C157D058E059F0550F41C
:104460000E94EC206093070A7093080A8093090A5F
:1044700090930A0A0E94EC200091070A1091080A02
:104480002091090A30910A0ADC01CB01801B910BB3
:10449000A20BB30B8C329140A105B10590F2F894B8
:1044A0008091FC099091FD099A838983E091010A2A
:1044B000F091020ADF011196808189879091F809B5
:1044C000E0910B0AF0910C0A80910D0A992309F4EE
:1044D0002EC09081982B98879081809589238F8317
:1044E0008F818C8388E08B8358856F8149853B81E0
:1044F0002C8189819A81508347FD252F3A9520830D
:10450000262F39F0441F00C000006083000000C067
:10451000F2CF38E04D9160830000019761F7F0938E
:104520000C0AE0930B0A49873B832C8338C09081A7
:10453000982B98879081809589238F838F818E8394
:1045400088E08D8358856F8149853D812E818981E1
:104550009A81508347FD252F00C000C0208300C0F2
:1045600000C000C000C000C060830000262F3A9544
:1045700041F0441F000000C000C000C000C000C0E7
:10458000E8CF38E04D9100C0608300C0019709F783
:10459000F0930C0AE0930B0A49873D832E839A839C
:1045A000898378940E94EC206093070A7093080A2C
:1045B0008093090A90930A0A29960FB6F894DEBFF1
:1045C0000FBECDBFDF91CF911F910F91FF90EF9064
:1045D000DF90CF900895282F3091FD07313208F0F9
:1045E0004AC08091D9078111FCCF9091FC0742E02D
:1045F0004093D9072093D8072FEF2093D707109225
:10460000D6073093D507ECEDF7E0A5EBB7E020E057
:10461000321721F041914D932F5FFACF1092B407DA
:104620002091B407990F922B9093B4079091B30700
:10463000913061F41092B3079091B4079093BB004E
:104640009091BC0093FDF8CF95EC01C095EE90934E
:10465000BC009091D9079230E1F39091D7079F3F2A
:1046600079F08091D707803241F08091D70780336D
:1046700031F084E005C081E003C082E001C083E046
:104680001092DB071092FD071092DA0708951F922F
:104690000F920FB60F9211242F933F938F939F93F6
:1046A000AF93BF938091890790918A07A0918B0760
:1046B000B0918C073091250A23E0230F2D3720F489
:1046C0000196A11DB11D05C026E8230F0296A11D6C
:1046D000B11D2093250A8093890790938A07A093A0
:1046E0008B07B0938C0780918D0790918E07A091D6
:1046F0008F07B09190070196A11DB11D80938D0782
:1047000090938E07A0938F07B0939007BF91AF91BE
:104710009F918F913F912F910F900FBE0F901F90FF
:104720001895CF93DF93CDB7DEB7A4970FB6F89463
:10473000DEBF0FBECDBF789484B5826084BD84B5E2
:10474000816084BD85B5826085BD85B5816085BD8C
:1047500080916E00816080936E0010928100809144
:1047600081008260809381008091810081608093CC
:104770008100809180008160809380008091910011
:10478000826080939100809191008160809391007C
:10479000809190008160809390008091C10084603E
:1047A0008093C1008091C10082608093C10080919C
:1047B000C10081608093C1008091C30081608093BB
:1047C000C3008091C00082608093C0008091C200CD
:1047D00081608093C20080917A00846080937A0027
:1047E00080917A00826080937A0080917A00816063
:1047F00080937A0080917A00806880937A0010928A
:104800008A0510928905109288058091D7008160F1
:104810008093D70080EA8093D80089B5806189BDF4
:1048200089B5826089BD09B400FEFDCF61E070E00A
:1048300080E090E00E9411218091D8008F7C8061FF
:104840008093D8008091E000807F8093E000809189
:10485000E1008E7E8093E1008DE08093E200559A26
:10486000209A91E0909300018FE380930101E09101
:104870009A08F0919B080190F081E02DA089B18900
:1048800022E02C93A485B5851C92A685B7858C93D0
:10489000108EA489B58986E08C93A289B3898C9106
:1048A00080618C93A289B3898C9188608C93A28952
:1048B000B3898C9180688C930288F389E02D808184
:1048C0008F7D808390939C0810929E0810929D0883
:1048D0001092A5081092A4081092A3081092A208A2
:1048E0000FEF1FEF1093A7080093A6081093A908D5
:1048F0000093A8080E944B216093320970933309FA
:10490000809334099093350910922F091092AC08C6
:104910001092AB081092AD081092AE0810923109B7
:10492000109230098091AA08817082608160809322
:10493000AA0810930B0800930A088091FE09909131
:10494000FF0997FD08C061E00E94852060E080912A
:10495000FE090E94562081E08093F9096091000AC7
:10496000653121F12091010A3091020A615031F044
:1049700070E08FEF94E10E94E73202C060E070E0E7
:10498000F9014091FC095091FD09CF01821B930B65
:104990008417950740F44081469FC001479F900DC2
:1049A00011249193EECF85E18093000A10E020E07E
:1049B00040E060E0812F0E948B091F5F1430B9F73F
:1049C0000E940A2261E08CE00E94852061E086E07E
:1049D0000E94852060E085E00E94852060E086E0FE
:1049E0000E94562061E08CE00E9456200E940D0932
:1049F0006093E2057093E3058093E4059093E505E9
:104A000006E913E0F801F0800E5F1F4F61E08F2D83
:104A10000E94852060E08F2D0E945620F3E00E3921
:104A20001F0781F710929207109291071092DB07EF
:104A30001092FD071092D90781E08093D807109259
:104A4000B30761E082E00E94562061E083E00E94AB
:104A500056208091B9008E7F8093B9008091B90073
:104A60008D7F8093B90088E48093B80085E48093BB
:104A7000BC008BE098E190938E0580938D058CE0CF
:104A800098E190938C0580938B051092220A8CE319
:104A90008093210A1092B9008CE08093B8001092A4
:104AA000120A1092130AE3EEF0E085919491E82E39
:104AB000E5EEF0E0F490E6EEF0E0E491E093140A25
:104AC000E7EEF0E0E491E093150AE8EEF0E0E4911F
:104AD000E093160A8C01802F8E198F1548F4F80187
:104AE00064918EE09AE00E94E7190F5F1F4FF3CFA9
:104AF0008EE09AE00E94AF2184EF91E09093E0096C
:104B00008093DF0980EC0E942C1E8E3EB9F08EE06F
:104B10009AE00E94AF211A8219821C821B821E8297
:104B20001D8261E170E0CE0101960E945012811158
:104B30000BC4CE0101960E94A51210C489E80E9400
:104B40002C1E682F616089E80E94961D60E088E84D
:104B50000E94961D61E080E80E94961D61E08FEF43
:104B60000E94961D60E080E00E94961D81E90E94EF
:104B70002C1E8093E40961E080E00E94961D60E0B5
:104B80008FEF0E94961D60E080E80E94961D80E6EF
:104B90000E942C1E682F626180E60E94961D60E2D2
:104BA00070E084E40E944E1E6FEF81E00E94961D2B
:104BB00061E080E80E94961D61E08FEF0E94961DE3
:104BC00060E080E00E94961D66E08FEF0E94961DD7
:104BD00083E80E942C1E682F646083E80E94961D63
:104BE00067E08FEF0E94961D61E081E80E94961DAC
:104BF00061E080E80E94961D6BE684E90E94961DA4
:104C000060E083E80E94961D0E944B217093E309A7
:104C10006093E20983E80E942C1E811116C08091E6
:104C2000DF099091E009892BA9F30E944B21209183
:104C3000E2093091E309621B730B8091DF099091C7
:104C4000E0098617970730F762CF61E083E80E949A
:104C5000961D82E90E942C1ED82EF82FFF77EF2E8A
:104C600060E081E80E94961D66E08FEF0E94961D2D
:104C700083E80E942C1E682F6B7F83E80E94961D9C
:104C800061E08FEF0E94961D61E080E00E94961D1A
:104C900060E08FEF0E94961D60E080E80E94961D04
:104CA0008091DE0991E09093DA078093FC071092DF
:104CB000DB071092FD0760EB8EE498E00E94661817
:104CC00081E00E94EB228093DD0966E08091DE099D
:104CD0000E94B81D8E01095E1F4F580197E0F92E02
:104CE000FA94FF2041F08EE498E00E941D18F5012F
:104CF00081935F01F5CF61E08FEF0E94961D60E028
:104D00008FE40E94961D6CE28EE40E94961D60E086
:104D10008FEF0E94961D64EB86EB0E94961DD7FED6
:104D200002C06CE001C060E090E080E041E050E053
:104D3000282F269526952695782F7770F801E20F73
:104D4000F11D861710F09E110AC09A0101C0220FB2
:104D50007A95EAF7209530812323208309C02081AA
:104D600030E002C0359527957A95E2F720FD9F5FE8
:104D70008F5F8033E9F68091DE0991E09093DA0746
:104D80008093FC071092DB071092FD0760EB8EE426
:104D900098E00E94661887E0F82EFA94FF2041F010
:104DA000F80161918F018EE498E00E946618F5CFBA
:104DB00081E00E94EB228093DD0961E08FEF0E9489
:104DC000961D60E080E00E94961D60E08FEF0E94DB
:104DD000961D60E089E00E94961D60E080E10E94DF
:104DE000961D60E081E10E94961D61E084E20E94D0
:104DF000961D6FEF85E20E94961D60E085E70E9498
:104E0000961D61E08FEF0E94961D6CE28EE40E9479
:104E1000961D60E088E40E94961D60E280E30E9497
:104E2000961D60E08FEF0E94961D69E080E30E946E
:104E3000961D60E084E50E94961D64E081E30E9477
:104E4000961D63E082E30E94961D63E880E40E9461
:104E5000961D65E286E40E94961D60E080E60E9451
:104E6000961D60E087E20E94961D66E080E50E9444
:104E7000961D60E081E50E94961D66E982E50E942C
:104E8000961D68E086E50E94961D60E387E50E9416
:104E9000961D60E081E60E94961D60E082E60E9419
:104EA000961D60E084E60E94961D60E085E60E9403
:104EB000961D60EA86E60E94961D61E08FEF0E94D3
:104EC000961D62E382E20E94961D64E187E40E94DF
:104ED000961D6FEF89E40E94961D60E08AE40E94AF
:104EE000961D60E08FEF0E94961D6AE08AE70E949F
:104EF000961D60E08BE70E94961D61E288E70E94A4
:104F0000961D61E08FEF0E94961D64E383E20E948C
:104F1000961D60E082E40E94961D6FEF84E40E947B
:104F2000961D66E285E40E94961D65E086E40E9477
:104F3000961D60E480E40E94961D66E08EE00E946B
:104F4000961D6AE180E20E94961D60E483E40E945F
:104F5000961D60E08FEF0E94961D63E084E30E943F
:104F6000961D64E485E30E94961D61E08FEF0E9428
:104F7000961D64E081E30E94961D69E08BE40E9427
:104F8000961D65E08CE40E94961D64E08DE40E940D
:104F9000961D60E08FEF0E94961D60E084E40E9401
:104FA000961D60E285E40E94961D68E087E40E94F9
:104FB000961D68E288E40E94961D60E087E60E94E4
:104FC000961D64E080E70E94961D61E081E70E94E3
:104FD000961D6EEF82E70E94961D60E086E70E94B4
:104FE000961D60E087E70E94961D61E08FEF0E94AA
:104FF000961D61E08DE00E94961D60E08FEF0E949B
:10500000961D61E080E80E94961D68EF81E00E9495
:10501000961D61E08FEF0E94961D61E08EE80E9470
:10502000961D61E080E00E94961D60E08FEF0E9477
:10503000961D60E080E80E94961D64E08AE00E9470
:10504000961D84E80E942C1E682F6F7E84E80E94C3
:10505000961D61E08BE00E94961DCE014D960E9448
:10506000371FBE016F5F7F4FCE014D960E94781EA5
:105070008D8D882349F08B859C85AD85BE858C57A9
:10508000924FAF4FBF4F04C086E39BE0A0E0B0E07B
:105090002F8D222369F04B855C856D857E854E546E
:1050A0005D4F6F4F7F4F440F551F661F771F0BC01B
:1050B0002E8D222361F04B855C856D857E854C5657
:1050C0005D4F6F4F7F4F840F951FA61FB71F28A1FD
:1050D000222361F04F85588969897A894C565D4F42
:1050E0006F4F7F4F840F951FA61FB71F29A1222343
:1050F00061F04B895C896D897E894A5D5D4F6F4F98
:105100007F4F840F951FA61FB71F8093E5099093CB
:10511000E609A093E709B093E80968EE81E00E94F0
:10512000961DC090E509D090E609E090E709F0905F
:10513000E809F0E2CF16FEE4DF06E104F10408F42A
:10514000C4C0CE014D960E94371FBE016F5F7F4FD6
:10515000CE014D960E94781E8D8D882349F08B8557
:105160009C85AD85BE858C57924FAF4FBF4F04C015
:1051700086E39BE0A0E0B0E02F8D222369F04B8511
:105180005C856D857E854E545D4F6F4F7F4F440F1C
:10519000551F661F771F0BC02E8D222361F04B8594
:1051A0005C856D857E854C565D4F6F4F7F4F840FBC
:1051B000951FA61FB71F18A1112361F04F855889AD
:1051C00069897A894C565D4F6F4F7F4F840F951FC9
:1051D000A61FB71F29A1222309F477C02C013D0186
:1051E00026E2420E22E0521E611C711CC414D5043A
:1051F000E604F70408F469C0AB81B0E020E03FE2C8
:105200004AE350E00E946C324B015C01E4EF8E0EE9
:10521000E1E09E1EA11CB11CA701960124193509CD
:1052200046095709A8EEB3E00E946C322B013C01FD
:10523000C501B40120ED37E040E050E00E94B632F5
:10524000420E531E641E751EC501B40128EE33E0E4
:1052500040E050E00E94B632C301B2010E94B63273
:10526000112331F08F819885280F391F411D511D61
:105270002115310541055105D9F089019A010150E7
:1052800011092109310960E070E0D901C8018827BE
:10529000892B8A2B8B2B39F03695279517950795F7
:1052A0006F5F7F4FF2CF762F6627602B712B02C086
:1052B00060E070E081E70E944E1EC092E509D09246
:1052C000E609E092E709F092E80961E081E00E94D6
:1052D000961D80E40E945721882309F418CC62E0CF
:1052E00081E00E94961D80E00E945721882309F4E6
:1052F0000ECC68EE81E00E94961D61E080E80E947D
:10530000961D61E08FEF0E94961D60E080E00E9494
:10531000961D6091E40981E90E94961D61E080E09C
:105320000E94961D60E08FEF0E94961D60E080E86D
:105330000E94961D62E080E00E94961D90910001FF
:10534000E2E0F1E080E016C081E190E09E838D8391
:1053500069EE70E089819A810E94FB3121E040E092
:1053600060E0CE0101960E94C821CE0101960E9404
:105370000522FFCF9787808B8F5F71968532D1F79B
:105380006EE074E0CE0101960E940B1323E041E031
:1053900060E0CE0101960E94C821CE0101960E94D4
:1053A000052264EF71E080E090E00E94112161E24B
:1053B00074E0CE0101960E940B1320E043E060E010
:1053C000CE0101960E94C821CE0101960E940522BD
:1053D00010E30E9429080E941A0B1150D1F76DE2C8
:1053E00074E0CE0101960E940B1320E043E064E6D6
:1053F000CE0101960E94C821CE0101960E9405228D
:10540000812F0E94331D0E940A2262E070E080E03A
:1054100090E00E9411211F5F1F3F91F768EC70E040
:1054200080E090E00E94112180915D088F5F0E94D2
:1054300020138EE09AE00E94AF216FE7462E512C98
:10544000612C712C0E944B216B017C016093E6055D
:105450007093E7058093E8059093E9050E94290879
:105460000E940D096093E2057093E3058093E405C3
:105470009093E505C701B6010E9473080E944B2175
:105480007093E3096093E20983E10E942C1E877008
:10549000D9F48091DF099091E009892BA9F30E944A
:1054A0004B212091E2093091E309621B730B80913B
:1054B000DF099091E0098617970730F781E0809324
:1054C000E1090FEF1FEF09C08EE10E94011E7C0170
:1054D00061E08BE00E94961D870106541109083E89
:1054E000F3E01F0764F50115110549F160918F057F
:1054F0007091900580919105909192052AE030E09D
:1055000040E050E00E944D32A9E0B0E00E946C32D1
:105510006B017C01C8016AE070E00E94FB32CB01A4
:10552000770FAA0BBB0B8C0D9D1DAE1DBF1D80936D
:105530008F0590939005A0939105B093920580916B
:10554000E1091092E1098823D9F08EE09AE00E94E7
:10555000AF2162E374E0CE0101960E940B1321E0BB
:1055600040E060E0CE0101960E94C821CE01019684
:105570000E94052264EF71E080E090E00E9411211A
:105580000E941A0B8091670881110CC080919905C7
:105590008823D9F181E0809367088091E1058093A9
:1055A0006E0831C080916808811135C08091D005A6
:1055B000882399F020916608422F50E08091690875
:1055C00090E001974817590719F41092660803C034
:1055D0002F5F209366080E943C0C8091DB05882396
:1055E00059F080916608811102C08091690881504C
:1055F000809366080E943C0C80919905882329F0CD
:1056000081E0809368080E943C0C0EE915E0F12CC3
:10561000EE24E39469C280916608823009F49DC04B
:1056200030F48823F9F0813009F458C037C284304F
:1056300009F4A5C008F491C0853009F02FC26EE7C7
:1056400074E0CE0101960E940B1321E041E060E07E
:10565000CE0101960E94C821CE0101960E9405222A
:1056600014E661C18091DB058823D9F0E0916E08D2
:105670002E2F30E081E1E89FF0011124EE5FFE4F14
:105680008089882311F0815001C08FE791E1929FBA
:10569000F001939FF00D1124EE5FFE4F808B0E946E
:1056A0003C0C8091D005882309F4F8C1E0916E0884
:1056B0002E2F30E091E1E99FF0011124EE5FFE4FC3
:1056C00080898F5F87FD80E091E1929FF001939F39
:1056D000F00D1124EE5FFE4F808B3CC08091DB0506
:1056E0008823D9F0E0916E082E2F30E081E1E89F09
:1056F000F0011124EE5FFE4F8785882311F0815061
:1057000001C08FE091E1929FF001939FF00D112471
:10571000EE5FFE4F87870E943C0C8091D005882366
:1057200009F4BCC1E0916E082E2F30E091E1E99FB1
:10573000F0011124EE5FFE4F87858F5F8F3008F0F8
:1057400080E091E1929FF001939FF00D1124EE5FB4
:10575000FE4F87870E943C0CA1C166E474E0CE0135
:1057600001960E940B1320E040E060E0CE0101961C
:105770000E94C821CE0101960E9405228FC167E5D3
:1057800074E0CE0101960E940B1321E041E060E03D
:10579000CE0101960E94C821CE0101960E940522E9
:1057A00014E60E940D096093E2057093E30580936F
:1057B000E4059093E5050E944B210E9473088091B7
:1057C000A40581110CC08091AF05811108C08091A2
:1057D000BA05811104C08091C505882361F0EEE906
:1057E000F5E080E096819111182F8F5F3B96843011
:1057F000C9F701E001C000E080919905811101E045
:1058000062E370E080E090E00E941121002349F201
:10581000143609F443C18EE09AE00E94AF21612F53
:1058200070E06F5F7F4FCE0147960E94A01F68E631
:1058300074E0CE0101960E940B13BE01695E7F4F9A
:10584000CE0101960E94541FBC01CE014D960E94CC
:10585000F11223E040E064E1CE014D960E94C821A0
:10586000CE014D960E940522CE0101960E9405228E
:10587000CE0147960E940522E5E21E9F10011124E9
:10588000220C331C220C331C02E011E0E12CF12C21
:10589000C10102969CA38BA396E0290E311CF8014E
:1058A0008785898380898A8385818B8386818C83A0
:1058B000CBA0DCA0CE0CDF1CCE0101965C01410127
:1058C0008E0C9F1CF50161915F01C6010E943F3261
:1058D000FFEFCF1ADF0A8C149D04A1F70F5E1F4F54
:1058E00024E0E20EF11C84E9E816F104C1F6B9C027
:1058F0008091AF05882351F1EEE9F5E080E09681D3
:105900009111182F8F5F3B968430C9F701E062E355
:1059100070E080E090E00E94112180919905811152
:105920001FC001111DC00E940D096093E205709314
:10593000E3058093E4059093E5050E944B210E94C6
:1059400073088091A4058111D7CFD2CF8091BA0579
:105950008111D2CF8091C5058111CECF00E0D7CF84
:10596000143609F49BC08EE09AE00E94AF21612FAB
:1059700070E06F5F7F4FCE0147960E94A01F6FE8D7
:1059800074E0CE0101960E940B13BE01695E7F4F49
:10599000CE0101960E94541FBC01CE014D960E947B
:1059A000F11223E040E06AE0CE014D960E94C8214A
:1059B000CE014D960E940522CE0101960E9405223D
:1059C000CE0147960E94052295E2199F10011124ED
:1059D000220C331C220C331C02E011E0E12CF12CD0
:1059E000F1013296FCA3EBA3F6E02F0E311CCBA005
:1059F000DCA0CE0CDF1CCE0147965C0141018E0C71
:105A00009F1CC6010E943732F50181935F01FFEFB1
:105A1000CF1ADF0A8C149D04A1F76F89F8016787FC
:105A2000888D808B898D85838A8D86830F5E1F4F3D
:105A3000F4E0EF0EF11C24E9E216F104C1F670E087
:105A40006E557B4FCE0101960E940B1320E040E083
:105A500060E0CE0101960E94C821CE0101960E940D
:105A6000052264EF71E080E090E00E94112168E778
:105A700074E0CE0101960E940B1320E043E060E544
:105A8000CE0101960E94C821CE0101960E940522F6
:105A90006CE271E080E090E00E9411218091990514
:105AA000882321F0109268080E943C0C0E944B2130
:105AB00000916A0810916B0820916C0830916D0874
:105AC000DC01CB01801B910BA20BB30B89389341F6
:105AD000A105B10508F499CD1092670810926808E5
