:100000000C943A070C9462070C9462070C946207F4
:100010000C9462070C9462070C9462070C946207BC
:100020000C9462070C9462070C9427120C94F7133B
:100030000C9462070C9462070C9462070C9462079C
:100040000C9462070C9462070C9462070C9462078C
:100050000C9462070C9462070C9462070C941822AB
:100060000C9462070C945B160C9435160C94620782
:100070000C9462070C9462070C9462070C9462075C
:100080000C9462070C9462070C9462070C9462074C
:100090000C94F81A0C9462070C9462070C94620793
:1000A0000C9462070C9462070C946207DD0B210C20
:1000B000510C540C5E0C610C640C891F8C1F7B1F4F
:1000C0007F1F851FAD1FAD1FAD1F901F941F981F71
:1000D0009E1FA21FAD1FA81FAED580A81FD3004032
:1000E0008D142002A1C8DA02817FD9F1DB40A4A6D9
:1000F000AFD800198020000000000023002600294E
:10010000002C002F00080B0002020201000904006D
:100110000001020200000524001001052401010174
:10012000042402060524060001070581031000408F
:1001300009040100020A0000000705020240000055
:10014000070583024000000403090412010002EFC6
:100150000201404123368000010102030141726423
:1001600075696E6F204C4C430041726475696E6F07
:10017000204C656F6E6172646F0000030C0F3033AA
:100180003C3FC0C3CCCFF0F3FCFF070605040100E1
:10019000080A0B0C0D0900000000240027002A00AB
:1001A0002D0030000000000200090F0000030401D0
:1001B000000C000000000000000000000000000033
:1001C00000000022080D0E20600402050607080941
:1001D00002030305080204020407040707070707D0
:1001E0000707070202070707080E0908080807079C
:1001F0000908020708070B08090709090708080981
:100200000D07080804040406080307070607070586
:100210000707020306020A0707070705060507077F
:100220000B06070505010507080000000000000097
:1002300000FEFE18181E1E001E1E0000000000908A
:10024000F89E90F89E1C00001C0000183C26FF66DB
:10025000CC88040C183C180C041C221CC0308E40A6
:100260008000001804000C100C80CC7E72F2DE0CB2
:1002700080000C1C1010101C0C1C101E1E0000F026
:10028000FC061C7CC006FCF0C07C1C14140E14146C
:100290000000000000606060FCFC60606000000026
:1002A0000C0C00000000005838C0C0C0C0000000A6
:1002B000000000181800C0380618040000F8FC0EF2
:1002C000060EFCF8040C1C181C0C04180CFEFE0096
:1002D000001C1C181C86C6663E1C181C1C1818180E
:1002E00018888C062626FEDC040C1C18180C04C08A
:1002F000E0B88CFEFE80040404041C1C04707E3EE6
:100300003636F6C60C1C1818180C04F8FC6E666617
:10031000EECC040C1818181C0C060606E6761E0611
:1003200000001C1C0000009CFE666666FE9C0C1C07
:100330001818181C0C3C7E666666FCF80C1C181815
:100340001C0C0418181818181858386060F0F09829
:10035000980C0000000004040CD8D8D8D8D8D8D8FD
:10036000000000000000000C9898F0F060600C04A1
:100370000400000000080C06C6E6763C18000000E9
:100380001818000000E03008C4F63A1A1AF2FA7E93
:100390000408F00C30604C9C98988C9C9C90484CC5
:1003A0002000C0F8BE86BEF8C000181C0404040477
:1003B000041C18FEFE66666666FEDC1C1C18181817
:1003C000181C0CF8FC0E06060E9C08040C1C1818D1
:1003D0001C0C04FEFE0606060EFCF81C1C18181861
:1003E0001C0C04FEFE66666666661C1C181818184F
:1003F00018FEFE66666666061C1C0000000000F81B
:10040000FC0E0606C6CEDCC8040C1C181818180C06
:1004100004FEFE60606060FEFE1C1C000000001C0C
:100420001CFEFE1C1C8080000000FEFE0C1C181828
:10043000181C0CFEFE603078EC86021C1C000000CC
:10044000041C18FEFE00000000001C1C18181818E0
:1004500018FEFE0E7CE000E07C0EFEFE1C1C000080
:100460000C1C0C00001C1CFEFE1C78E080FEFE1C18
:100470001C0000040C1C1CF8FC0E0606060EFCF802
:10048000040C1C1818181C0C04FEFE6666667E3CE4
:100490001C1C0000000000F8FC0E0686060EFCF88E
:1004A000040C1C18181C0C1C24FEFE6666E6E6BE36
:1004B0001C001C1C0000000C1C18103C7E666666AC
:1004C000EECC0C1C1818181C0C060606FEFE0606C0
:1004D000060000001C1C000000FEFE00000000FEE4
:1004E000FE040C1C18181C0C04021EFCE000E0FCAE
:1004F0001E020000001C1C1C00000006FEF800F09C
:10050000FE0EFEF000F8FE0600001C1C1C000000A1
:100510001C1C1C0000060EF8F0F80E06181C040047
:10052000041C18060E38F0F0380E060000001C1CE3
:10053000000000060686E6761E0E06181C1C18181B
:10054000181818FEFE0606FCFCC0C00638C00000E5
:100550000004180606FEFEC0C0FCFC20380E0E3853
:1005600020000000000000000000000000000080EB
:10057000808080808080800206040000001098D86F
:1005800058F8F0000C1C18180C1C10FEFE3018381F
:10059000F0E01C1C0C181C0C04E0F0181838300497
:1005A0000C18181C0CE0F0381830FEFE040C1C1857
:1005B0000C1C1CE0F0D8D8D8F0E0040C181818185F
:1005C0000818FCFE1A1A001C1C0000E0F038183055
:1005D000F8F864ECDCD8CCFC7CFEFE301818F8F09F
:1005E0001C1C0000001C1CFAFA1C1C00FAFAC0FCBF
:1005F0007CFEFEE0F098081C1C00041C18FEFE1C8B
:100600001CF8F81018F8F01818F8F01C1C00001C62
:100610001C00001C1CF8F8301818F8F01C1C000016
:10062000001C1CE0F0381838F0E0040C1C181C0CFE
:1006300004F8F8301838F0E0FCFC0C181C0C04E04E
:10064000F0381830F8F8040C1C180CFCFCF8F830E2
:1006500018181C1C00000070F8D8D8D8900818187A
:10066000181C0C18FCFE1818000C1C1818F8F800C0
:100670000000F8F80C1C18180C1C1C38F8C000C03E
:10068000F83800001C1C1C000018F8E000F038F0DE
:1006900000E0F81800001C1C0C000C1C1C000018CA
:1006A00038E0E03818181C04041C1818F8E000E0C2
:1006B000F8180084FCF83C04001898D878381C1C02
:1006C00018181880FC7E0606007CFCC0C0FEFC06E4
:1006D000067EFC80C0C0FC7C006030307060603002
:1006E00000000000000000FE020202020202FE1CE6
:1006F0001010101010101C0000070E2060000000E9
:1007000000000000000000000000000000FC0000ED
:10071000000000000D00000000003C003C00000054
:100720000000000000000020F82020F82000010751
:1007300001010701006090F89010000004040F040C
:1007400003000018249860100C000C020106090632
:100750000030C8C83000000007080809060900007A
:10076000003C00000000000000000000000000E06D
:10077000180402000000030C102000020418E0001E
:10078000000020100C0300000080A0C0C0A080006A
:1007900000020101020000808080F0808080000063
:1007A00000070000000000000000000020180C04FA
:1007B0000000008080808080800000000000000039
:1007C000000000000000000000081C0800000000FD
:1007D00000806018060018060100000000F0088480
:1007E0004408F00003040808040300201008FC007B
:1007F00000000000000F00000018040484443800CA
:100800000C0A09080808000804444444B800060813
:10081000080808070080601804FC000001010101BD
:100820000F01007C24242424C400060808080807BB
:1008300000F88444444488000708080808070004B6
:100840000404C4340C00000C0300000000B844444D
:100850004444B800070808080807007884848444E2
:10086000F8000408080808070000207020000000B5
:1008700000081C0800000000207020000000201864
:100880000C04000000804020100800000001020459
:1008900008000040404040404000020202020202C4
:1008A000000008102040800000080402010000043D
:1008B000844424180000000D0000000000F008C46B
:1008C0002424F8000304090A0A0300F884848484B9
:1008D000F8000F000000000F00FC44444478800042
:1008E0000F080808080700F80404040418000708A3
:1008F0000808080600FC04040408F0000F080808B3
:10090000040300FC4444444404000F080808080899
:1009100000FC4444444404000F000000000000F8C0
:1009200004048484980007080808080700FC404075
:100930004040FC000F000000000F000404FC040411
:10094000000008080F080800000000040404FC0070
:1009500006080808080700FC4020D00804000F0023
:100960000000030C00FC0000000000000F08080855
:10097000080800FC1860806018FC0F0000010000EF
:100980000FFC18608000FC000F000001060F00F84B
:1009900004040404F80007080808080700FC84841D
:1009A000848478000F000000000000F804040404B0
:1009B000F8000708080E181700FC84848484780067
:1009C0000F0001020408003844448484080004082D
:1009D0000808080700040404FC0404040000000FD5
:1009E000000000FC00000000FC00070808080807E1
:1009F00000FC00000000FC0000030C0C030000FCE5
:100A00000000C00000FC030C0300030C030C30C00A
:100A1000C0300C000C030000030C003C4080804000
:100A20003C000000000F00000004048444340C006B
:100A30000C0A09080808000000FE0202020000007B
:100A40003F20202000061860800000000000000108
:100A5000061800020202FE0000002020203F0000D5
:100A6000001008040408100000000000000000004E
:100A70000000000000002020202020200000040CA6
:100A8000182000000000000000000000A0A0A0A0AE
:100A9000C00007080808040F00FC40202020C00008
:100AA0000F040808080700C0202020204000070885
:100AB0000808080400C020202040FC00070808089F
:100AC000040F00C020202020C000070909090909DF
:100AD0000080F88484840800000F0000000000C03B
:100AE00020202040E00023444444423F00FC4020BA
:100AF0002020C0000F000000000F00002020EC00AC
:100B000000000000000F00000000002020EC0000AA
:100B1000102020201F0000FC0080402000000F015A
:100B2000010204080000FC000000000000070808A3
:100B3000080000E02020C02020C00F0000030000BB
:100B40000FE040202020C0000F000000000F00C078
:100B500020202020C00007080808080700E04020E7
:100B60002020C0007F020404040300C02020204095
:100B7000E00003040404027F00E040202020400045
:100B80000F000000000000C02020202040000409C9
:100B9000090909060020F8202020000000070808A5
:100BA000080400E000000000E00007080808040F47
:100BB00000E000000000E00000030C0C030000E077
:100BC0000000800000E007080403040807204080BC
:100BD0008040200008040202040800E00000000039
:100BE000E00023444444423F0020202020A0600035
:100BF000080C0A090808000080807C02020000003E
:100C0000001F2020000000FE0000000000001F0068
:100C100000000002027C8080000020201F000000F5
:100C2000003008081020201800000000000000FE1E
:100C3000FEFEFEFEFEFE7F7F7F7F7F7F7F00000542
:100C4000072060000000000000005F0000000300BB
:100C50000300143E143E14242A7F2A1243330866EC
:100C60006136495522500005030000001C22410056
:100C70000041221C0014083E081408083E08080021
:100C800050300000080808080800606000002010CC
:100C90000804023E5149453E0004027F0042615172
:100CA000494622414949361814127F1027454545C7
:100CB000393E4949493201017109073649494936E6
:100CC000264949493E0036360000005636000008E5
:100CD00014224100141414141400412214080201B7
:100CE0005109063E4159555E7E0909097E7F4949F1
:100CF00049363E414141227F4141413E7F49494978
:100D0000417F090909013E4141493A7F0808087FAE
:100D100000417F4100304040403F7F081422417F26
:100D2000404040407F020C027F7F0204087F3E412A
:100D300041413E7F090909061E2121215E7F0909E3
:100D40000976264949493201017F01013F4040406F
:100D50003F1F2040201F7F2010207F41221C224166
:100D600007087008076151494543007F41000002B0
:100D7000040810200000417F0004020102044040EA
:100D8000404040000102040020545454787F444401
:100D900044383844444444384444447F38545454D8
:100DA0001804047E0505085454543C7F0804047854
:100DB00000447D40002040443D007F102844000056
:100DC000417F40007C047804787C0804047838442F
:100DD0004444387C14141408081414147C007C084F
:100DE0000404485454542004043F44443C404020EC
:100DF0007C1C2040201C3C4030403C4428102844AF
:100E00000C5050503C4464544C440008364141005E
:100E1000007F0000414136080002010204027F7F8A
:100E20007F7F7F04080201104080401020408040F6
:100E30008008020401804020100201108010204030
:100E4000402000000000250028002B002E0031006B
:100E5000040404040403040502020202040302025F
:100E60000202060606060606040402020204040044
:100E7000772F672F11241FBECFEFDAE0DEBFCDBF83
:100E800015E0A0E0B1E0E2E5F9E602C005900D92C0
:100E9000A232B107D9F729E0A2E2B5E001C01D9264
:100EA000A33CB207E1F717E0C9E3D7E004C02197FC
:100EB000FE010E948B32C833D107C9F70E9462221B
:100EC0000C949C340C9400008F929F92AF92BF922E
:100ED000CF92DF92EF92FF920F931F93FC01118646
:100EE0001286168217826083808561110BC0811182
:100EF00020C0118281E080878683228333834483EC
:100F000055831AC08823A9F0108681E08783C280A8
:100F1000D380E480F58049015A018C189D08AE0801
:100F2000BF080CE2801601E09006A104B1040CF4A5
:100F300081878181811117C080858823A1F08281FA
:100F40009381A481B58149015A01881A990AAA0A94
:100F5000BB0A05EF801601E09006A104B1041CF065
:100F600081E0828781831F910F91FF90EF90DF9046
:100F7000CF90BF90AF909F908F900895FC016093A9
:100F8000BC008091BC0087FFFCCF9091B900987F96
:100F900090830895CF92DF92EF92FF920F931F9369
:100FA000CF93DF93EC01C62ED42E8C89882351F089
:100FB000411108C084E98093BC008091BC0084FD8D
:100FC000FCCF1C8AEC888E010E5E1F4FE11014C00E
:100FD000FB8864EAC8010E94BE078A89883011F143
:100FE000803101F1DD2011F080E4E82EE092BB00B9
:100FF00064E8C8010E94BE07C092BB0064E8C80153
:101000000E94BE0782E0D81204C08C898F5F8C8B4F
:1010100011C084E98093BC008091BC0084FDFCCFAA
:101020001C8A08C0FF0CF092BB0064E8C8010E9453
:10103000BE07D8CFDF91CF911F910F91FF90EF9016
:10104000DF90CF900895089580E090E008956F922A
:101050007F928F929F92AF92BF92CF92DF92EF9248
:10106000FF920F931F93CF93DF9300D000D0CDB7A3
:10107000DEB7682E8FEF93E00E94B331681629F037
:10108000662D8FEF93E00E94BB3101E011E084E90F
:10109000689E30011124E12CF12C43018E0C9F1C21
:1010A000FE0131965F01CC24C394D12CC601880D7A
:1010B000991D0E94B331F50181935F01FFEFCF1AB3
:1010C000DF0A85E0C816D10489F78981F801858790
:1010D0008A8186878B8185838C818683015F1F4F00
:1010E000F4E0EF0EF11C84E9E816F104B1F60F907C
:1010F0000F900F900F90DF91CF911F910F91FF9064
:10110000EF90DF90CF90BF90AF909F908F907F90A7
:101110006F9008952F923F924F925F926F927F92BD
:101120008F929F92AF92BF92CF92DF92EF92FF92F7
:101130000F931F93CF93DF9300D000D01F92CDB7B2
:10114000DEB7F82E8FEF93E00E94B331F81629F046
:101150006F2D8FEF93E00E94BB3101E011E0CE01D3
:1011600001963C01E4E9FE9EC00111241C012618F1
:101170003708E12CF12C2E01F5E04F0E511CF8013F
:101180008585898386858A8385818B8386818C8307
:101190004701820C931C6301F60121916F012D839D
:1011A0005F01A80CB91CC5010E94B3319D8198173D
:1011B00021F0692FC5010E94BB314C145D0461F719
:1011C000015F1F4FE4E0EE0EF11CF4E9EF16F104AD
:1011D000B1F60F900F900F900F900F90DF91CF917D
:1011E0001F910F91FF90EF90DF90CF90BF90AF9045
:1011F0009F908F907F906F905F904F903F902F9037
:101200000895CF92DF92EF92FF926B017C01809163
:10121000770590917805A0917905B0917A0524E041
:10122000B695A795979587952A95D1F7682F617000
:10123000A70196018BE695E00E94640780917705EF
:1012400090917805A0917905B0917A0535E0B69531
:10125000A795979587953A95D1F7682F6170A70163
:10126000960180E695E00E94640780917705909151
:101270007805A0917905B0917A0546E0B695A795D5
:10128000979587954A95D1F7682F6170A7019601C8
:1012900089E295E00E946407609177056170A7017B
:1012A000960184E395E00E94640780917705909110
:1012B0007805A0917905B0917A05B695A79597958F
:1012C0008795682F6170A70196018FE395E00E94D2
:1012D00064078091770590917805A0917905B09188
:1012E0007A0562E0B695A795979587956A95D1F7A7
:1012F000682F6170A70196018AE495E00E94640757
:101300008091770590917805A0917905B0917A0543
:1013100073E0B695A795979587957A95D1F7682F3D
:101320006170A701960185E595E0FF90EF90DF9051
:10133000CF900C9464074F925F926F927F928F923E
:101340009F92AF92BF92CF92DF92EF92FF920F9354
:101350001F93CF93DF9360E08CE00E94AE1F83E089
:1013600090E00197F1F761E08CE00E94AE1FC7E0CA
:10137000D0E0812C912C540199EA692E91E0792ECC
:1013800028E2E22E2EE0F22E35E5C32E3EE0D32EEB
:1013900003E010E0F3018491F7015490F6014490CA
:1013A0004420A1F081110E94711FE42DF0E0EE0FA6
:1013B000FF1FE950FF4FA591B4918C91582231E065
:1013C00020E009F430E0832F922F02C080E090E00B
:1013D000092E000CAA0BBB0B0C2E04C0880F991F02
:1013E000AA1FBB1F0A94D2F7882A992AAA2ABB2AC5
:1013F00061E086E00E94AE1FC8010197F1F760E04E
:1014000086E00E94AE1F219708F0C4CFC501B40149
:10141000DF91CF911F910F91FF90EF90DF90CF90D0
:10142000BF90AF909F908F907F906F905F904F9004
:1014300008956F927F928F929F92AF92BF92CF92B8
:10144000DF92EF92FF920F931F93CF93DF9390EC75
:10145000699FB0011124672F770F770B6B01FFE1B4
:10146000CF22DD24A3E0CC0CDD1CAA95E1F7822E6F
:10147000912CC42FD0E0EE24EA94F12C87010C1BB0
:101480001D0B089DD001099DB00D189DB00D1124B4
:101490004B2FCC9E5001CD9EB00CDC9EB00C112485
:1014A000AB2CBB2400E011E038016A187B08689C73
:1014B0005001699CB00C789CB00C1124EC18FD080C
:1014C000EC9E6001ED9ED00CFC9ED00C1124CD2C26
:1014D000DD240C191D09089DE001099DD00D189D02
:1014E000D00D1124629566956770623091F038F4E2
:1014F000662369F06130D9F4522FEB2D19C06430A6
:1015000081F058F0653099F45B2F4B2D0EC05D2FA4
:101510000CC0522FEB2F4D2F0BC05B2DEB2F422F0A
:1015200007C05B2F422FED2F03C0E22F01C040E028
:10153000682F70E020919309309194096217730726
:1015400008F03FC020919909222361F0E29FF00149
:101550001124EF2F259FD00111245B2F249F900190
:101560001124432FF0919F0990919C0920919A0991
:1015700030919B09F91308C0B901F3E08F9F600D0A
:10158000711D1124CB010BC0CB01880F991F880F4F
:10159000991F820F931FDC01AF0FB11D1C92209188
:1015A0009C09DC01A20FB11DEC9320919D09FC0167
:1015B000E20FF11D508320919E09FC01E20FF11D05
:1015C0004083DF91CF911F910F91FF90EF90DF90BB
:1015D000CF90BF90AF909F908F907F906F90089525
:1015E000CF92DF92EF92FF920F931F93CF93DF93EF
:1015F00000D000D0CDB7DEB7F82E062F11E0140FC3
:1016000082E8C82E89E0D82EEE24E394F601E48225
:101610000E947E20F60160837183828393832FEF83
:1016200040E060E081E00E94190A212F402F6F2DD9
:1016300080EB0E94441F97E8C92E99E0D92EF6014D
:10164000E4820E947E20F60160837183828393830B
:101650002FEF40E060E082E00E94190A8BE089836E
:10166000106B1A83FB820C8304EF17E0F80183816F
:1016700044E050E0BE016F5F7F4F8F5F0E94E01239
:10168000F80183818F5F0E941D120F900F900F90C1
:101690000F90DF91CF911F910F91FF90EF90DF900E
:1016A000CF900895EF92FF920F931F93CF93DF9304
:1016B000CDB7DEB768970FB6F894DEBF0FBECDBFCB
:1016C0000E947E20609303087093040880930508AD
:1016D0009093060887EA99E00E94D0208091020842
:1016E000811102C160910008CE0107960E94F21D8F
:1016F0006BE474E0CE0101960E940812BE01695F9E
:101700007F4FCE0101960E94DF1DBC01CE010D96D8
:101710000E94EE1120E040E060E0CE010D960E94B4
:10172000E920CE010D960E942121CE0101960E9452
:101730002121CE0107960E94212160E674E0CE01AE
:1017400001960E94081220E043E060E0CE0101967D
:101750000E94E920CE0101960E94212163E674E0F7
:10176000CE0101960E94081220E043E06FE3CE0113
:1017700001960E94E920CE0101960E94212166E691
:1017800074E0CE0101960E94081220E043E063E776
:10179000CE0101960E94E920CE0101960E942121EE
:1017A000E09100088E2F90E08730910508F0DAC1B3
:1017B000FC01EA5AFF4F0C948B32E09107088FE04E
:1017C000E89FF0011124EF5FFE4F6685CE010D9674
:1017D0000E94F21D60910708CE0107960E94F21D3B
:1017E00069E674E0CE0101960E940812BE01695FAD
:1017F0007F4FCE0101960E94DF1D64E774E00E94D6
:10180000B411BE01635F7F4F0E94DF1DBC01CE019A
:1018100043960E94EE1121E041E060E0CE01439644
:101820000E94E920CE0143960E942121CE0101961B
:101830000E942121CE0107960E942121CE010D9602
:101840002DC060910708CE0107960E94F21D69E63F
:1018500074E0CE0101960E940812BE01695F7F4FBD
:10186000CE0101960E94DF1D69E774E00E94B41169
:10187000BC01CE010D960E94EE1121E041E060E036
:10188000CE010D960E94E920CE010D960E942121E5
:10189000CE0101960E942121CE0107960E942121AE
:1018A00061C162E874E002C063E974E0CE010196B0
:1018B0000E94081221E041E060E00FC063EA74E09A
:1018C000F5CF65EB74E002C061EC74E0CE010196E7
:1018D0000E94081221E041E064E1CE0101960E94DD
:1018E000E920CE010196DACF6DEC74E0CE010196CD
:1018F0000E94081220E040E060E0CE0101960E94C4
:10190000E920CE0101960E94212162EE74E0CE0111
:1019100001960E94081220E043E060E0CE010196AB
:101920000E94E920CE0101960E94212164EE74E01C
:10193000CE0101960E94081220E043E06CE3CE0144
:1019400001960E94E920CE0101960E94212169EEB4
:1019500074E0CE0101960E94081220E043E069E69F
:10196000CE0101960E94E920CE0101960E9421211C
:1019700080910008882309F44FC0813009F0F2C03B
:10198000E09107088FE0E89FF0011124EF5FFE4F20
:101990006585CE010D960E94F21D60910708CE016B
:1019A00007960E94F21D6EE674E0CE0101960E9439
:1019B0000812BE01695F7F4FCE0101960E94DF1DB4
:1019C00061E075E00E94B411BE01635F7F4F0E9429
:1019D000DF1DBC01CE0143960E94EE1121E041E0E3
:1019E00060E0CE0143960E94E920CE0143960E941A
:1019F0002121CE0101960E942121CE0107960E944D
:101A00002121CE010D960E94212181E0E82E81E066
:101A1000F82E10E00FE08AC0E0910708AFE0EA9FDF
:101A2000F0011124EF5FFE4F6685CE010D960E94F6
:101A3000F21D60910708CE0107960E94F21D6EE626
:101A400074E0CE0101960E940812BE01695F7F4FCB
:101A5000CE0101960E94DF1D6BEE74E00E94B4116E
:101A6000BE01635F7F4F0E94DF1DBC01CE01439624
:101A70000E94EE1121E041E060E0CE0143960E9419
:101A8000E920CE0143960E942121CE0101960E94B9
:101A90002121CE0107960E942121CE010D960E94A0
:101AA000212191E0E92E91E0F92E10E00FE0E09184
:101AB0000708E11711F10E9FF0011124EF5FFE4FAF
:101AC0009685D7011E968C911E97981316C0958502
:101AD0001D968C91981311C061EF74E0CE010196B0
:101AE0000E94081220E043E069E1CE0101960E94C5
:101AF000E920CE0101960E9421211F5FBFE0EB0E7D
:101B0000F11C1532A1F62EC00E9FF0011124EF5FDB
:101B1000FE4F9685D7011E968C911E97981759F007
:101B20001F5FBFE0EB0EF11C1532E1F0E0910708FA
:101B3000E113EACFF5CF95851D968C919813F0CFE0
:101B400061EF74E0CE0101960E94081220E043E0AC
:101B500069E1CE0101960E94E920CE0101960E9422
:101B60002121DECF68960FB6F894DEBF0FBECDBF41
:101B7000DF91CF911F910F91FF90EF9008951F93E8
:101B8000CF93DF93CDB7DEB762970FB6F894DEBF81
:101B90000FBECDBFE09176051FE01E9FF00111241E
:101BA000EF5FFE4F6685CE0107960E94F21D6CEE38
:101BB00074E0CE0101960E940812BE01695F7F4F5A
:101BC000CE0101960E94DF1DBC01CE010D960E9440
:101BD000EE1120E040E060E0CE010D960E94E92089
:101BE000CE010D960E942121CE0101960E94212155
:101BF000CE0107960E942121E09176051E9FF001FB
:101C00001124EF5FFE4F6585CE0107960E94F21DFD
:101C100062E075E0CE0101960E940812BE01695F84
:101C20007F4FCE0101960E94DF1DBC01CE010D96B3
:101C30000E94EE1120E040E06AE5CE010D960E9480
:101C4000E920CE010D960E942121CE0101960E942D
:101C50002121CE0107960E94212162960FB6F894A9
:101C6000DEBF0FBECDBFDF91CF911F9108951F93AF
:101C7000CF93DF93CDB7DEB762970FB6F894DEBF90
:101C80000FBECDBF87EA99E00E94D0200E94BF0D11
:101C900060917605CE0101960E94F21D23E040E09E
:101CA00067E3CE0101960E94E920CE0101960E94D1
:101CB0002121E09176051FE01E9FF0011124EF5FC6
:101CC000FE4F6581CE0107960E94F21D67E075E028
:101CD000CE0101960E940812BE01695F7F4FCE01BE
:101CE00001960E94DF1DBC01CE010D960E94EE11EF
:101CF00020E043E060E0CE010D960E94E920CE0195
:101D00000D960E942121CE0101960E942121CE0133
:101D100007960E942121E09176051E9FF001112473
:101D2000EF5FFE4F6681CE0107960E94F21D6DE0C7
:101D300075E0CE0101960E940812BE01695F7F4FD7
:101D4000CE0101960E94DF1DBC01CE010D960E94BE
:101D5000EE1121E042E061E4CE010D960E94E920FF
:101D6000CE010D960E942121CE0101960E942121D3
:101D7000CE0107960E94212160917605CE01019641
:101D80000E94F21D23E040E067E3CE0101960E942D
:101D9000E920CE0101960E94212162960FB6F894A7
:101DA000DEBF0FBECDBFDF91CF911F9108951F936E
:101DB000CF93DF93CDB7DEB762970FB6F894DEBF4F
:101DC0000FBECDBF87EA99E00E94D0200E94BF0DD0
:101DD00060917605CE0101960E94F21D23E040E05D
:101DE00067E3CE0101960E94E920CE0101960E9490
:101DF0002121E09176051FE01E9FF0011124EF5F85
:101E0000FE4F6581CE0107960E94F21D62E175E0EA
:101E1000CE0101960E940812BE01695F7F4FCE017C
:101E200001960E94DF1DBC01CE010D960E94EE11AD
:101E300021E042E060E0CE010D960E94E920CE0153
:101E40000D960E942121CE0101960E942121CE01F2
:101E500007960E942121E09176051E9FF001112432
:101E6000EF5FFE4F6681CE0107960E94F21D67E18B
:101E700075E0CE0101960E940812BE01695F7F4F96
:101E8000CE0101960E94DF1DBC01CE010D960E947D
:101E9000EE1120E043E060E5CE010D960E94E920BE
:101EA000CE010D960E942121CE0101960E94212192
:101EB000CE0107960E94212160917605CE01019600
:101EC0000E94F21D23E040E067E3CE0101960E94EC
:101ED000E920CE0101960E94212162960FB6F89466
:101EE000DEBF0FBECDBFDF91CF911F9108951F932D
:101EF000CF93DF93CDB7DEB762970FB6F894DEBF0E
:101F00000FBECDBF87EA99E00E94D0200E94BF0D8E
:101F1000E09176051FE01E9FF0011124EF5FFE4F58
:101F20006581CE0107960E94F21D67E075E0CE0143
:101F300001960E940812BE01695F7F4FCE01019693
:101F40000E94DF1DBC01CE010D960E94EE1120E023
:101F500043E060E0CE010D960E94E920CE010D968F
:101F60000E942121CE0101960E942121CE010796D7
:101F70000E942121E09176051E9FF0011124EF5F60
:101F8000FE4F6681CE0107960E94F21D67E175E063
:101F9000CE0101960E940812BE01695F7F4FCE01FB
:101FA00001960E94DF1DBC01CE010D960E94EE112C
:101FB00020E043E060E5CE010D960E94E920CE01CD
:101FC0000D960E942121CE0101960E942121CE0171
:101FD00007960E94212160917605CE0101960E940C
:101FE000F21D23E041E067E3CE0101960E94E92063
:101FF000CE0101960E94212162960FB6F894DEBFB1
:102000000FBECDBFDF91CF911F9108954091DB06A8
:102010005091DC062091D9063091DA064217530719
:10202000B4F49091E8009570E1F39091E80092FD8E
:1020300019C08093F1008091DB069091DC06019637
:102040008F739927892B19F48EEF8093E800809184
:10205000DB069091DC0601969093DC068093DB060C
:1020600081E0089580E00895615030F02091F10002
:10207000FC0120830196F8CF289884E68093DE0641
:102080000895CF92DF92EF92FF920F931F93CF9319
:10209000DF936C017A018B01C0E0D0E0CE15DF0543
:1020A00081F0D8016D918D01D601ED91FC910190E7
:1020B000F081E02DC6010995892B11F02196EECF14
:1020C0007E01C701DF91CF911F910F91FF90EF909B
:1020D000DF90CF900895FC01538D448D252F30E083
:1020E000842F90E0821B930B541710F0CF96089525
:1020F00001970895FC01918D828D981761F0828D72
:10210000DF01A80FB11D5D968C91928D9F5F9F732B
:10211000928F90E008958FEF9FEF0895FC01918DCD
:10212000828D981731F0828DE80FF11D858D90E03A
:1021300008958FEF9FEF0895FC01918D228D892FD7
:1021400090E0805C9F4F821B91098F7399270895BF
:1021500089ED98E00E949C1021E0892B09F420E091
:10216000822F0895FC01848DDF01A80FB11DA35AB1
:10217000BF4F2C91848D90E001968F739927848FA7
:10218000A689B7892C93A089B1898C9182748C938C
:10219000938D848D981306C00288F389E02D808189
:1021A0008F7D80830895EF92FF920F931F93CF93BB
:1021B000DF93EC0181E0888F9B8D8C8D981305C097
:1021C000E889F989808185FD26C0F62E0B8D10E007
:1021D0000F5F1F4F0F731127E02E8C8DE8120CC07C
:1021E0000FB607FCFACFE889F989808185FFF5CF22
:1021F000CE010E94B210F1CF8B8DFE01E80FF11DD0
:10220000E35AFF4FF0829FB7F8940B8FEA89FB895E
:102210008081806209C09FB7F894EE89FF8960834E
:10222000E889F9898081827480839FBF81E090E092
:10223000DF91CF911F910F91FF90EF900895CF9371
:10224000DF93EC01888D8823C9F0EA89FB898081BE
:1022500085FD05C0A889B9898C9186FD0FC00FB690
:1022600007FCF5CF808185FFF2CFA889B9898C91D1
:1022700085FFEDCFCE010E94B210E7CFDF91CF9165
:10228000089580E090E0892B29F00E94A810811128
:102290000C94000008950E9487340F931F93CF93EE
:1022A000DF93EC0188819981009729F02A813B8195
:1022B0002617370788F48B016F5F7F4F0E94C13369
:1022C000009761F0998388831B830A832C813D8169
:1022D000232B11F4FC01108281E001C080E0DF912A
:1022E000CF911F910F910895EF92FF920F931F933B
:1022F000CF93DF936115710511F480E01CC0411587
:102300005105C1F07B01EC018C819D818A01080F90
:10231000191FB801CE010E944D11882371F3288145
:1023200039818C819D81B701820F931F0E94953462
:102330001D830C8381E0DF91CF911F910F91FF905E
:10234000EF900895CF93DF93EC01888199810097F6
:1023500011F00E943833198218821D821C821B8260
:102360001A82DF91CF910895CF93DF93EC0161152D
:10237000710561F0FB0101900020E9F73197AF0191
:10238000461B570B0E947411811103C0CE010E949D
:10239000A211CE01DF91CF910895EF92FF920F939A
:1023A0001F93CF93DF93EC017B018A01BA010E9456
:1023B0004D11811104C0CE010E94A21107C01D83DE
:1023C0000C83B701888199810E949534CE01DF91F9
:1023D000CF911F910F91FF90EF900895FB01DC01C9
:1023E00011961C921E9213961C921E92129715968D
:1023F0001C921E9214978617970749F0608171818D
:102400006115710521F0448155810C94CD11089519
:10241000FC011182108213821282158214826115CE
:10242000710551F0FB0101900020E9F73197AF01F0
:10243000461B570B0C94CD1108958093E9008091B1
:10244000F200882319F08AE38093E80008951F9230
:102450000F920FB60F9211242F933F934F935F93D8
:102460006F937F938F939F93AF93BF93CF93EF938C
:10247000FF93C091E1008091E100837F8093E100B0
:10248000C3FF0FC01092E90081E08093EB0010922F
:10249000EC0082E38093ED001092240588E08093A5
:1024A000F000C2FF19C083E00E941D128091DF0678
:1024B000882339F08091DF0681508093DF068823DE
:1024C00089F18091DE06882339F08091DE06815003
:1024D0008093DE06882341F1C4FF10C08091E200A2
:1024E0008E7E81608093E2008091E1008F7E8093F8
:1024F000E100809122058E7E806111C0C0FF16C070
:102500008091E2008E7E80618093E2008091E10004
:102510008E7E8093E100809122058E7E8160809383
:10252000220504C05D9ACDCF289AD6CFFF91EF91B6
:10253000CF91BF91AF919F918F917F916F915F915B
:102540004F913F912F910F900FBE0F901F901895B4
:10255000DF92EF92FF920F931F93CF93DF93D82ECA
:102560008A017B01E40EF51EEB01CE15DF0571F04B
:10257000D7FE03C0FE01849101C088810E9406102D
:1025800021968111F2CF8FEF9FEF01C0C801DF913B
:10259000CF911F910F91FF90EF90DF9008952FB78B
:1025A000F89487708093E9009091E800892F8072F9
:1025B00095FF04C09091F20080E4891B2FBF08951D
:1025C0007F928F929F92AF92BF92CF92DF92EF92C3
:1025D000FF920F931F93CF93DF93C82E8B017A0145
:1025E00080912405811103C08FEF9FEF74C080910B
:1025F000220580FF05C08091E00082608093E000AA
:10260000CE2DDF2DD12C8AEFB82E8C2D8770982EF1
:102610008C2D8072882E8C2D8074782E9AE3A92EB2
:10262000209719F4DD2009F451C08C2D0E94CF129F
:1026300081110AC0BA94BB20B9F261E070E080E079
:1026400090E00E944420ECCF282F30E0C217D3073F
:102650000CF48C2F9FB7F8949092E9002091E80039
:1026600025FF32C0282F30E0C21BD30B882029F071
:102670008150A0F01092F100FBCFF801C7FE0AC014
:10268000815050F044914093F1003196F9CF41913F
:102690004093F1008150D8F7020F131FDD2019F08D
:1026A000A092E8000AC08091E80085FD08C0A092D1
:1026B000E800DD24D394209739F0D12C05C0209771
:1026C00019F47110A092E8009FBFAACF5D9884E62C
:1026D0008093DF06C701DF91CF911F910F91FF908B
:1026E000EF90DF90CF90BF90AF909F908F907F90B2
:1026F000089590912405992311F057FF03C08FEF9F
:102700009FEF08959FB7F89487708093E900209118
:10271000F20030E0421753070CF49A01822FFB01BC
:1027200044E6815038F028984093DE065091F1003D
:102730005193F7CF2115310521F08091F2008823C4
:1027400019F09FBFC90108958BE68093E800F9CF87
:102750009FB7F89487708093E9008091F2009FBF43
:1027600008958091D10681110DC082E08093CD063D
:1027700084E08093CE061092D0061092CF0681E0BE
:102780008093D1068DEC96E008950F931F93CF931D
:10279000DF931F92CDB7DEB782E0898342E450E039
:1027A00065E071E080E80E94A8120E94B113DC018C
:1027B00012960D911C9113970115110589F0D801FE
:1027C000ED91FC910280F381E02DBE016F5F7F4FA0
:1027D000C801099597FD04C0F80100851185ECCF6B
:1027E00089810F90DF91CF911F910F9108951F92D2
:1027F0000F920FB60F921124CF92DF92EF92FF92B9
:102800000F931F932F933F934F935F936F937F93F8
:102810008F939F93AF93BF93EF93FF93CF93DF93E8
:10282000CDB7DEB76C97DEBFCDBF1092E9008091C7
:10283000E80083FFFBC168E0CE0145960E9434109A
:1028400082EF8093E8008D8987FF05C09091E800B2
:1028500090FFFCCF03C09EEF9093E800982F9076F6
:1028600009F0C6C09E894F89588D2F89F88C911127
:102870000CC0803829F4809123058093F10002C0B8
:102880001092F1001092F10045C1913051F4811184
:1028900041C14130510509F03DC1809123058D7F33
:1028A0000BC0933061F4811135C14130510509F0FD
:1028B00031C1809123058260809323052BC195301F
:1028C00049F48091E80080FFFCCF822F80688093DC
:1028D000E30020C1963009F05EC00B8D1C8D22E014
:1028E0001092E9001092DC061092DB06F21232C060
:1028F0001092DA061092D9060E94C51399E0BE0123
:102900006F5F7F4FDB01E92F1D92EA95E9F799830D
:10291000FA8291E09E8390EA98879AEF99872091B6
:10292000DB063091DC06275F3F4F3C832B838D8392
:102930001092E9001092DC061092DB061093DA0682
:102940000093D90649E050E080E00E94A8120E945E
:10295000C513E0C01093DA060093D9060E94B113A4
:10296000DC0112960D911C9113970115110509F4C4
:10297000BBC0D801ED91FC910480F581E02DBE0132
:102980006B5E7F4FC8010995009709F0C7C0F80139
:1029900000851185EACF973009F445C1983021F4BC
:1029A00081E08093F100B6C0993009F0B3C0837024
:1029B00009F039C1E9E3F3E081E031E096E32081F9
:1029C000211109C08EE78093EA001092EA008F89F6
:1029D000809324059FC08093E9003093EB00219100
:1029E0002093EC009093ED008F5F873041F7EACFA2
:1029F0008B8D9C8D1092E9001092DC061092DB0604
:102A00009093DA068093D906898D811153C08E89FF
:102A10009D89913A49F4813209F005C147E050E0BF
:102A200060E373E080E0BBC0913209F0FCC0833208
:102A300069F48F89988DA0E0B0E080932C03909387
:102A40002D03A0932E03B0932F0364C0803269F44A
:102A50008091E80082FFFCCF67E080E393E00E9472
:102A600034108BEF8093E80055C0823209F052C0D9
:102A70008F8980933703EEEFFFE7859194918B3F29
:102A80009C4D19F0E0E0F8E002C0EEEFFAE0809132
:102A9000300390913103A0913203B0913303803B16
:102AA0009440A105B10509F09EC08091370380FFD5
:102AB00079C099C00E94B113FC01028113810115F4
:102AC000110509F4B0C0D801ED91FC910190F0819D
:102AD000E02DBE016B5E7F4FC801099581111AC0C0
:102AE000F80100851185EBCFF1E0FF1609F44EC027
:102AF000F3E0FF1298C08F89882309F44AC082301E
:102B000089F440E860E189E691E00E94322F882351
:102B100009F489C08EEF8093E80088C01816190662
:102B2000CCF381C0813029F440E86BE08DE591E081
:102B3000ECCF833009F077C00E94B113DC0112960C
:102B4000ED90FC9013978E010F5F1F4F6801E11409
:102B5000F10479F0D701ED91FC910680F781E02D29
:102B6000B801C7010995080F111DF701E084F18430
:102B7000EECFD8011C92F60101900020E9F73197C1
:102B8000BF016C197D0940E0C601BFCF6BE471E065
:102B900002C067E471E0FB01449150E080E80E94CC
:102BA000A812B8CFEE3F2AE0F20751F08081918160
:102BB0008737A7E79A0721F09093FF0A8093FE0AD0
:102BC00087E797E791838083809160008093DD069B
:102BD0009BE088E10FB6F894A895809360000FBE43
:102BE0009093600097CF808191818737974709F054
:102BF00091CFA8958091600088618093600080915A
:102C0000DD0680936000EE3FBAE0FB0739F080916B
:102C1000FE0A9091FF0A918380837CCF1092FF0A75
:102C20001092FE0A77CF81E28093EB006C960FB68C
:102C3000F894DEBF0FBECDBFDF91CF91FF91EF9132
:102C4000BF91AF919F918F917F916F915F914F91C4
:102C50003F912F911F910F91FF90EF90DF90CF90B8
:102C60000F900FBE0F901F9018951F920F920FB6E6
:102C70000F9211242F933F934F935F936F937F9302
:102C80008F939F93AF93BF93EF93FF9389ED98E05A
:102C90000E94B210FF91EF91BF91AF919F918F91E0
:102CA0007F916F915F914F913F912F910F900FBE48
:102CB0000F901F9018951F920F920FB60F9211242C
:102CC0002F938F939F93EF93FF93E091E908F091F7
:102CD000EA088081E091EF08F091F00882FD12C0CF
:102CE00090818091F2088F5F8F732091F308821793
:102CF00051F0E091F208F0E0E752F74F958F8093A2
:102D0000F20801C08081FF91EF919F918F912F91E7
:102D10000F900FBE0F901F901895CF93DF931F92C7
:102D2000CDB7DEB76983DC01ED91FC910280F381C0
:102D3000E02D41E050E0BE016F5F7F4F09950F909D
:102D4000DF91CF910895CF93DF93EC018D85882398
:102D500019F081508D8711C09C818E81981768F47D
:102D600088896827E881F9810084F185E02D42E0B7
:102D7000CE0109958C818F5F8C83DF91CF9108956F
:102D800085ED8093BC008091BC0084FDFCCF109247
:102D90007307089540910007262F30E0240F311D5E
:102DA00021323105DCF4209173072430C9F4FC0191
:102DB00080E090E0861758F4309100072191DC0103
:102DC000A052B94FA30FB11D2C930196F3CF809160
:102DD0000007680F6093000780E0089581E0089580
:102DE00082E00895089508950895E0912C07809158
:102DF0002B07E81730F4F0E0E35DF84F808190E0B6
:102E000008958FEF9FEF089590912C0780912B07E5
:102E1000981750F4E92FF0E0E35DF84F208130E09F
:102E20009F5F90932C0702C02FEF3FEFC9010895D9
:102E300080912B0790E020912C07821B9109089527
:102E4000CF92DF92EF92FF920F931F93CF93DF9376
:102E50007C01CB018A0120917407222389F0EB01C8
:102E60006B01C40ED51ECC15DD0569F06991D70143
:102E7000ED91FC910190F081E02DC7010995F3CF10
:102E8000642F0E94CA16C801DF91CF911F910F9144
:102E9000FF90EF90DF90CF900895CF93DF931F9234
:102EA000CDB7DEB76983209174072223D1F020913A
:102EB0009707203240F021E030E0FC013383228389
:102EC00080E090E015C080917507E82FF0E0EA58A7
:102ED000F84F998190838F5F809375078093970750
:102EE00005C061E0CE0101960E94CA1681E090E023
:102EF0000F90DF91CF91089580E090E0089580E0F9
:102F00000895FC0182818F5BFB01808381E008953D
:102F1000CF93DF93EC0180913703882331F083E076
:102F20000E94E0121816190634F081E090E09B83AD
:102F30008A8380E090E0DF91CF91089583E00C9444
:102F40001D1283E00E94CF1290E008950F931F930B
:102F5000CF93DF931F92CDB7DEB78C01FC01848540
:102F6000958597FF12C041E050E0BE016F5F7F4F33
:102F700082E00E947913019719F4898190E002C0E0
:102F80008FEF9FEFF80195878487F80184859585F9
:102F90000F90DF91CF911F910F910895CF93DF9301
:102FA0001F92CDB7DEB7FC018485958597FD05C0DE
:102FB0002FEF3FEF358724870FC041E050E0BE017F
:102FC0006F5F7F4F82E00E947913019719F4898126
:102FD00090E002C08FEF9FEF0F90DF91CF910895A7
:102FE000FC018485958597FD06C082E00E94A813A8
:102FF00090E00196089582E00E94A81390E0089561
:1030000084E0EDE1F5E0DB0101900D928A95E1F7B6
:1030100084E00895CF92DF92EF92FF920F931F9377
:10302000CF93DF93CDB7DEB7C456D1090FB6F8946E
:10303000DEBF0FBECDBF6C01DB019C919E5F9C93F8
:10304000FE01319684E6DF011D928A95E9F788E05A
:1030500089838BE08A8322E02C8391E09D839E8389
:1030600039E0398774E07A879E879F873A8B44E2FC
:103070004B8B9C8B00E011E01E8B0D8B89E0E82EC2
:10308000F12CF88EEF8A998F3B8F7C8F2F8F98A32E
:1030900053E059A387E08CA34DA39EA318A70FA3C9
:1030A00001E410E01AA709A786E08BA74CA72DA77B
:1030B0009EA79FA789AB4AAB2BAB2CAB2DAB3FABED
:1030C00048AF59AF9AAF5BAF9CAF2DAF9EAF219683
:1030D0003FAF219722964FAF229723965FAF23975A
:1030E00024962FAF249725967FAF259726969FAFDE
:1030F000269727969FAF279728969FAF28972A96BF
:103100003FAF2A9745E02B964FAF2B972D962FAFC9
:103110002D9760E470E02F967FAF6EAF2F97639688
:103120004FAF639785E264968FAF649765969FAFC4
:10313000659766969FAF669767969FAF6797689605
:103140003FAF689769964FAF69976B962FAF6B97B4
:103150006D967FAF6EAF6D97A1964FAFA197A29678
:103160008FAFA297A3969FAFA397A4969FAFA49764
:10317000A5965FAFA597D60112969C9112979B8357
:103180009B879F5F9A8F9D8F13968C912C968FAF04
:103190002C978F5F80686A968FAF6A9744E650E0FD
:1031A000BF0180E00E94A812CC59DF4F0FB6F894FF
:1031B000DEBF0FBECDBFDF91CF911F910F91FF906A
:1031C000EF90DF90CF900895DC01ED91FC910084A9
:1031D000F185E02D40E00994FC0187818695869574
:1031E0008695681740F465839385690F6770606BF7
:1031F000CF010C94E41808950F931F93CF93FC0113
:1032000026816217A0F4C62F8C0164839085C90FB4
:103210006C2F6F70CF010E94E4186C2F62956F7055
:103220006061C801CF911F910F910C94E418CF9168
:103230001F910F910895CF92DF92EF92FF920F931B
:103240001F93CF93DF93EC01F62EC42ED22E1D8652
:103250008F81869586958695081710F00FEF080FD9
:103260001D2D6F2DCE01011788F00E94FC18612FD3
:10327000CE010E94EC18EF2CCE1430F06889CE01FC
:103280000E94A316E394F8CF1F5FEBCF0E94FC18B7
:103290006D2DCE01DF91CF911F910F91FF90EF9097
:1032A000DF90CF900C94EC182F923F924F925F9248
:1032B0006F927F928F929F92AF92BF92CF92DF9246
:1032C000EF92FF920F931F93CF93DF93CDB7DEB7AB
:1032D0002A970FB6F894DEBF0FBECDBFDC011E9655
:1032E0002D913C911F972115310509F463C19A87EF
:1032F0008987F9013296449031967491E72EF12C2A
:10330000B7E0EB0EF11C93E0F594E7949A95E1F7A2
:10331000EA823196A4913196E4916A1758F0462FCB
:1033200050E08E2F90E0FC01EA0FF11D4E175F0771
:103330000CF46AC06D3031F460E089859A850E9492
:10334000FC183BC16A3009F035C160E089859A8577
:103350000E94FC18E985FA8501890E9DE02C112454
:10336000278126952695269565816E0D8E2D821BCB
:10337000860F9485992309F418C118160CF015C10D
:10338000A985BA851B969C911B97890F87701B9600
:103390008C931B972E1915962C9315971E96ED91CD
:1033A000FC911F97309769F03396E491F0E03796DF
:1033B00083E0F595E7958A95E1F70E9FE02D1124BE
:1033C00001C0E0E00FEF020F0E0FE985FA8546819C
:1033D00041506481CF010E941B19A985BA851C96B2
:1033E0008C911C97813009F0E8C01B966C911B975B
:1033F000660F660F660F6F731A966C931A97606468
:10340000CD010E94E418D9C0A9014A5F5F4F6A1B31
:10341000A985BA851996FC9119975196EC91FE9F52
:10342000E02D1124E887F901A4913196249130E030
:103430003A2B2230310570F44E9CC0014F9C900D08
:103440001124689F8001699F100D1124040F151F1E
:10345000312C22C0777021F028E0322E371A01C0BB
:10346000312CFA0120E0A0E0B0E0261731F03491D1
:10347000A30FB11D2F5F3196F8CFFA01E20FF11DB6
:103480004490EA9E8001EB9E100DFA9E100D1124CF
:10349000080F191F040F151FA985BA851496BC9132
:1034A000BB83E985FA85F581FC83A985BA851D96DC
:1034B000BC91BD83E42DF0E0FF83EE83812C912C41
:1034C000C12CD12CC982FA81CF1608F06DC0212CF5
:1034D00036019FEF691A790AA985BA8551968C91B0
:1034E0005197281608F058C0ED811D96EC93F9818C
:1034F000F11102C0222079F0A985BA851596BC90F9
:103500001597B3946B81CD010E94FC186B2D8985B2
:103510009A850E94EC18A12CB12CA41410F0B12CA7
:103520002FC0F401EA0DFB1DE00FF11F5490332072
:1035300061F0E614F70449F4E52DF0E0032C02C035
:10354000F595E7950A94E2F75E2EE985FA8581897B
:10355000823069F4E52D2110E295EF70F0E0E65835
:10356000FE4F5490652D89859A850E94A316652D7E
:1035700089859A850E94A316FFEFAF1ABF0ACDCFA7
:103580008885B81639F060E089859A850E94A3166F
:10359000B394F6CF2394A0CF9FEFC91AD90AAE8176
:1035A000BF818A0E9B1E8ECF6C8189859A850E9471
:1035B000EC1803C080E090E002C081E090E02A9621
:1035C0000FB6F894DEBF0FBECDBFDF91CF911F9134
:1035D0000F91FF90EF90DF90CF90BF90AF909F90B2
:1035E0008F907F906F905F904F903F902F900895B5
:1035F0001F920F920FB60F9211242F933F934F9368
:103600005F936F937F938F939F93AF93BF93EF934A
:10361000FF938091B900887F803609F49CC068F5DB
:10362000883209F45BC090F4803109F454C038F456
:10363000882309F4F6C0883009F44DC0F6C08831FB
:1036400009F44CC0803209F45DC0EFC0803409F445
:1036500068C048F4803309F455C0883309F0E5C0E8
:1036600080937107D8C0803509F44FC0883509F4BC
:103670005DC0883409F0D9C0D6C0883909F4C7C004
:10368000A8F4883709F467C038F4883609F463C0B1
:10369000803709F460C0C9C0883809F4B8C08039DF
:1036A00009F45FC0803809F0C0C05BC0803B09F4FA
:1036B00086C038F4803A09F466C0883A09F47FC0BD
:1036C000B4C0803C09F4A7C0883C09F4A4C0883B7E
:1036D00009F48AC0AAC080914E0710C0909170076B
:1036E00080916F07981770F5E091700781E08E0F59
:1036F00080937007F0E0E15BF84F80818093BB001E
:1037000085EC86C0809371078EC0E091700781E0E0
:103710008E0F809370078091BB00F0E0E15BF84F63
:1037200080839091700780916F076EC0E091700761
:1037300081E08E0F809370078091BB00F0E0E15B29
:10374000F84F80838091720781116DC081E0809372
:103750004D0784EA61C083E08093730710922207CB
:10376000CFCF80912207803208F051C0E09122072C
:1037700081E08E0F809322078091BB00F0E0EE5F26
:10378000F84F8083BDCF85EC8093BC001092730707
:1037900080912207803230F4E0912207F0E0EE5F62
:1037A000F84F10826091220770E0E0912505F091BA
:1037B000260582E097E009951092220736C084E042
:1037C000809373071092010710920007E09127057C
:1037D000F0912805099580910007811105C081E0CD
:1037E000809300071092E006E091010781E08E0FC0
:1037F00080930107F0E0E052F94F80818093BB0095
:103800009091010780910007981708F479CF85E817
:103810008093BC000AC085EC8093BC0010927307B3
:1038200004C0109271070E94C016FF91EF91BF91E2
:10383000AF919F918F917F916F915F914F913F9148
:103840002F910F900FBE0F901F901895DC018D9156
:103850009C91DC01ED91FC910190F081E02D0994A7
:10386000AF92BF92CF92DF92EF92FF921F93CF93CE
:10387000DF93182FE1E0F1E05DE1C52E53E0D52E96
:1038800020E030E066E0A62EB12CCFEFD0E08281C0
:103890009381B5010E947732CB01EE24EA94F12C9A
:1038A000BE010E947732820F931FBE010E947732C1
:1038B0009C013F96CE16DF0651F7C296B7010E94D3
:1038C0007732EC01212F4FEF682F80E00E94190A18
:1038D000CE010A96B7010E947732212F4FEF682F51
:1038E00083E00E94190ACE014E96B7010E947732FA
:1038F000212F4FEF682F82E00E94190ACE0188968F
:10390000B7010E947732212F4FEF682F81E0DF91BE
:10391000CF911F91FF90EF90DF90CF90BF90AF902D
:103920000C94190A3FB7F8948091270790912807C3
:10393000A0912907B0912A0726B5A89B05C02F3F63
:1039400019F00196A11DB11D3FBFBA2FA92F982FC5
:103950008827820F911DA11DB11DBC01CD0142E040
:10396000660F771F881F991F4A95D1F70895CF9347
:10397000DF93C6E7D9E0998121E020937407909303
:1039800096071092750710929707682F88EE97E0B8
:103990000E944D1781E00E942621888361E0898181
:1039A0000E94A42188EE97E00E940417DF91CF9136
:1039B00008950F931F93CF93DF93162F072FC6E71A
:1039C000D9E0998121E02093740790939607109293
:1039D000750710929707682F88EE97E00E944D17A1
:1039E000602F88EE97E00E944D17612F88EE97E0D8
:1039F0000E944D1781E00E9426218883DF91CF919C
:103A00001F910F9108958F929F92AF92BF92EF9264
:103A1000FF920F931F93CF93DF937C01EB0180E51F
:103A20000E94B71C8F5F880F90E09983888386E49B
:103A30000E94B71C082F10E00F5F1F4F1D830C83DF
:103A4000A881B0E020E03FE24AE350E00E94E83184
:103A50006C507E4F8F4F9F4F38EE832E33E0932E66
:103A6000A12CB12CA50194010E943232D8010E94F0
:103A7000F3316C507E4F8F4F9F4FA50194010E94F0
:103A800032322A873B874C875D8781E50E94ED2192
:103A90008C01112702C0000F111F9A95E2F70F5FEA
:103AA0001F4F1F830E83A881B0E020E03FE24AE36E
:103AB00050E00E94E8316C507E4F8F4F9F4FA50120
:103AC00094010E943232D8010E94E8316C507E4F3E
:103AD0008F4F9F4FA50194010E9432322E873F875E
:103AE000488B598B80E70E94B71C8F5F880F90E04E
:103AF0009B838A8381E70E94ED219C01992702C064
:103B0000880F991F3A95E2F7019699878887F70100
:103B10002381222331F02E813F81821B930B9987D1
:103B20008887AA81B0E020E03FE24AE350E00E94AB
:103B3000E8316C507E4F8F4F9F4F28EE822E23E04E
:103B4000922EA12CB12CA50194010E943232A8859D
:103B5000B9850E94E8316C507E4F8F4F9F4FA50171
:103B600094010E9432322A8B3B8B4C8B5D8BDF9110
:103B7000CF911F910F91FF90EF90BF90AF909F90CA
:103B80008F900895CF93DF93EC0181E00E94B71CE2
:103B900084FB992790F9988383FB992790F99A835E
:103BA00082FB992790F9998386FB992790F99B834B
:103BB000881F8827881F8C83DF91CF910895CF932A
:103BC000DF93EC01FB0144815581608171810E948A
:103BD0007411811103C0CE010E94A211CE01DF91A8
:103BE000CF910895EF92FF920F931F93CF93DF939E
:103BF000CDB7DEB729970FB6F894DEBF0FBECDBFA5
:103C00008C01862FF8011182108213821282158294
:103C100014824AE09E012F5F3F4F7901B90190E085
:103C20000E948931F70101900020E9F73197AF0137
:103C30004E195F09B701C8010E94CD1129960FB630
:103C4000F894DEBF0FBECDBFDF91CF911F910F91D2
:103C5000FF90EF900895EF92FF920F931F93CF93F1
:103C6000DF93CDB7DEB762970FB6F894DEBF0FBE15
:103C7000CDBF8C01CB01F801118210821382128218
:103C8000158214824AE09E012F5F3F4F7901B901EE
:103C90000E947E31F70101900020E9F73197AF01D2
:103CA0004E195F09B701C8010E94CD1162960FB687
:103CB000F894DEBF0FBECDBFDF91CF911F910F9162
:103CC000FF90EF900895CF92DF92EF92FF920F93C3
:103CD0001F93CF93DF93CDB7DEB729970FB6F89434
:103CE000DEBF0FBECDBF80919A0990919B09892BB1
:103CF00009F4BBC0C090A009D090A109E090A2092E
:103D0000F090A3090E94921C6C157D058E059F05FD
:103D100050F40E94921C6093A0097093A1098093B3
:103D2000A2099093A3090E94921C0091A0091091EE
:103D3000A1092091A2093091A309DC01CB01801BCC
:103D4000910BA20BB30B8C329140A105B10590F2FF
:103D5000F89480919509909196099A838983E091CE
:103D60009A09F0919B09DF011196808189879091D2
:103D70009109E091A409F091A5098091A6099923E0
:103D800009F42EC09081982B988790818095892383
:103D90008F838F818C8388E08B8358856F814985E1
:103DA0003B812C8189819A81508347FD252F3A954B
:103DB0002083262F39F0441F00C0000060830000DC
:103DC00000C0F2CF38E04D9160830000019761F7A9
:103DD000F093A509E093A40949873B832C8338C05D
:103DE0009081982B98879081809589238F838F81EC
:103DF0008E8388E08D8358856F8149853D812E8132
:103E000089819A81508347FD252F00C000C02083FF
:103E100000C000C000C000C000C060830000262FAA
:103E20003A9541F0441F000000C000C000C000C02F
:103E300000C0E8CF38E04D9100C0608300C001971A
:103E400009F7F093A509E093A40949873D832E83E0
:103E50009A83898378940E94921C6093A00970933E
:103E6000A1098093A2099093A30929960FB6F8940B
:103E7000DEBF0FBECDBFDF91CF911F910F91FF909D
:103E8000EF90DF90CF9008951F93CF93DF93215051
:103E9000203118F587FF21C0D42F162FC82F622F8D
:103EA000682B80913308909134080E94261C612F62
:103EB0006F7780913308909134080E94261CCF7E42
:103EC000C03C59F06D2F6F77809133089091340882
:103ED000DF91CF911F910C94261CDF91CF911F9100
:103EE000089590E0FC013197EF30F105B0F5E35A09
:103EF000FF4F0C948B32809180008F7703C08091AC
:103F000080008F7D80938000089580918000877F5E
:103F1000F9CF84B58F7702C084B58F7D84BD0895B5
:103F2000809190008F7707C0809190008F7D03C0B3
:103F300080919000877F8093900008958091C000C9
:103F40008F7703C08091C0008F7D8093C00008955B
:103F50008091C200877F8093C20008951F93CF9302
:103F6000DF93282F30E0F901EC55FE4F8491F901E1
:103F7000ED5DF14FD491F901E05BF14FC491CC2399
:103F8000C1F0162F81110E94711FEC2FF0E0EE0F8F
:103F9000FF1FEE5BF14FA591B4919FB7F8941111FB
:103FA00004C08C91D095D82302C0EC91DE2BDC9319
:103FB0009FBFDF91CF911F910895CF93DF9390E042
:103FC000FC01ED5DF14F2491FC01E05BF14F849128
:103FD000882361F190E0880F991FFC01EA56FE4F9B
:103FE000C591D491FC01EE5BF14FA591B4916111A3
:103FF00009C09FB7F8948881209582238883EC912B
:104000002E230BC0623061F49FB7F8948881322F61
:10401000309583238883EC912E2B2C939FBF06C071
:104020008FB7F894E8812E2B28838FBFDF91CF9133
:104030000895823108F08251E82FF0E0E657FE4FF4
:10404000E49180917B00E3FB222720F930E095E0AA
:10405000220F331F9A95E1F78F7D282B20937B0049
:10406000E770E064E0937C0080917A008064809344
:104070007A0080917A0086FDFCCF809178002091B3
:10408000790090E0922B08958F929F92AF92BF9209
:10409000CF92DF92EF92FF926B017C010E94921C03
:1040A0004B015C01C114D104E104F104F1F00E9460
:1040B000921CDC01CB0188199909AA09BB09883E29
:1040C0009340A105B10570F321E0C21AD108E108BF
:1040D000F10888EE880E83E0981EA11CB11CC11463
:1040E000D104E104F10419F7DDCFFF90EF90DF90E8
:1040F000CF90BF90AF909F908F9008952FB7F89476
:1041000060912307709124078091250790912607DD
:104110002FBF0895682F616080E00E9482210E9475
:104120007E2070937C0960937B0983E10E94B71C19
:104130008770B9F48091780990917909892BA9F356
:104140000E947E2020917B0930917C09621B730BB9
:1041500080917809909179098617970730F780E068
:10416000089561E08BE00E94822160E080E00E947F
:10417000822181E008959093B6098093B509009754
:1041800041F0FC0124913196849190E0922B0197AB
:1041900021F081E08093B00908951092B00908954C
:1041A0000F93CF93DF93EC011B861A8660E40E9485
:1041B000E4180F8106950695069501504E814150F1
:1041C00020E060E0CE010E941B19DF91CF910F919A
:1041D0000895FF920F931F93CF93DF938C01F62ED8
:1041E000D42FC22F213049F028F0233091F483ECF2
:1041F00091E00AC08DE39CE007C087EF96E00E9443
:10420000BB20C093B80905C00E94BB2081E0809309
:10421000B8096F2D87EA99E00E94FC186D2F87EA94
:1042200099E00E94EC18F801448155816081718108
:1042300087EA99E0DF91CF911F910F91FF900C9445
:104240004110FC01808191810C943833282F3091EA
:104250009707313208F04AC0809173078111FCCF73
:104260009091960742E040937307209372072FEFD7
:10427000209371071092700730936F07E6E7F7E01D
:10428000AFE4B7E020E0321721F041914D932F5F6A
:10429000FACF10924E0720914E07990F922B9093D0
:1042A0004E0790914D07913061F410924D07909117
:1042B0004E079093BB009091BC0093FDF8CF95EC16
:1042C00001C095EE9093BC00909173079230E1F39A
:1042D000909171079F3F79F080917107803241F092
:1042E00080917107803331F084E005C081E003C024
:1042F00082E001C083E01092750710929707109238
:10430000740708951F93CF93DF93162FC6E7D9E064
:10431000998121E020937407909396071092750776
:1043200010929707682F88EE97E00E944D17612F33
:1043300088EE97E00E944D1781E00E942621888335
:10434000DF91CF911F910895909173079111FCCF48
:10435000613208F060E291E09093730790937207E6
:104360002FEF2093710710927007260F20936F078D
:1043700090934E0790914E07880F892B80934E079C
:1043800080914D07813061F410924D0780914E0766
:104390008093BB008091BC0083FDF8CF85EC01C009
:1043A00085EE8093BC00809173078130E1F38091AA
:1043B0007007861710F460917007EFE4F7E0ADE244
:1043C000B7E080E0861721F091919D938F5FFACF3F
:1043D00010922C0780932B070895CF93DF93C6E7A5
:1043E000D9E0998121E02093740790939607109269
:1043F000750710929707682F88EE97E00E944D1777
:1044000081E00E942621888362E089810E94A421A4
:1044100088EE97E00E940417D82F80E0C82F88EE1E
:1044200097E00E9404178C2B9D2BDF91CF9108956C
:104430001F920F920FB60F9211242F933F938F93D9
:104440009F93AF93BF938091230790912407A091EE
:104450002507B09126073091BE0923E0230F2D37A1
:1044600020F40196A11DB11D05C026E8230F029678
:10447000A11DB11D2093BE098093230790932407AB
:10448000A0932507B09326078091270790912807CE
:10449000A0912907B0912A070196A11DB11D809313
:1044A000270790932807A0932907B0932A07BF9165
:1044B000AF919F918F913F912F910F900FBE0F90D1
:1044C0001F901895CF93DF93CDB7DEB7C655D109AE
:1044D0000FB6F894DEBF0FBECDBF789484B582606E
:1044E00084BD84B5816084BD85B5826085BD85B598
:1044F000816085BD80916E00816080936E00109216
:104500008100809181008260809381008091810090
:104510008160809381008091800081608093800021
:1045200080919100826080939100809191008160E0
:1045300080939100809190008160809390008091A1
:10454000C10084608093C1008091C100826080932B
:10455000C1008091C10081608093C1008091C3003F
:1045600081608093C3008091C00082608093C0000E
:104570008091C20081608093C20080917A00846043
:1045800080937A0080917A00826080937A00809193
:104590007A00816080937A0080917A0080688093AD
:1045A0007A00109224051092230510922205809122
:1045B000D70081608093D70080EA8093D80089B5C6
:1045C000806189BD89B5826089BD09B400FEFDCFD7
:1045D00061E070E080E090E00E9444208091D8008B
:1045E0008F7C80618093D8008091E000807F8093F1
:1045F000E0008091E1008E7E8093E1008DE0809369
:10460000E200559A209A8FEF93E00E94B3318430F4
:1046100008F07CC08FEF93E00E94B331182F0E9406
:10462000270891E090930001E0913308F09134085D
:104630000190F081E02DA089B18982E08C93A4855E
:10464000B5851C92A685B7858FE38C93108EA489BF
:10465000B58986E08C93A289B3898C9180618C9313
:10466000A289B3898C9188608C93A289B3898C913B
:1046700080688C930288F389E02D80818F7D808310
:1046800090933508109237081092360810923E0821
:1046900010923D0810923C0810923B088FEF9FEF5C
:1046A0009093400880933F0890934208809341087C
:1046B0000E947E206093CB087093CC088093CD0835
:1046C0009093CE081092C8081092450810924408A2
:1046D00010924608109247081092CA081092C90812
:1046E000809143088170826081608093430880914B
:1046F00097099091980997FD1BC061E00E94DD1F0A
:1047000060E0809197090E94AE1F12C060E08FEFB9
:1047100093E00E94BB3180E00E948A0881E00E9401
:104720008A0882E00E948A0883E00E948A0872CF89
:1047300081E08093920960919909653121F120917E
:104740009A0930919B09615031F070E08FEF94E14C
:104750000E94633202C060E070E0F9014091950967
:1047600050919609CF01821B930B8417950740F453
:104770004081469FC001479F900D11249193EECF39
:1047800085E18093990900E020E040E060E0802F1F
:104790000E94190A0F5F0430B9F70E94631E61E09E
:1047A0008CE00E94DD1F61E086E00E94DD1F60E07A
:1047B00085E00E94DD1F60E086E00E94AE1F61E0A0
:1047C0008CE00E94AE1F0E949B0960937705709356
:1047D00078058093790590937A0565E4E62E63E089
:1047E000F62EF7010081F2E0EF0EF11C61E0802F60
:1047F0000E94DD1F60E0802F0E94AE1F2DE4E216B4
:1048000023E0F20671F710922C0710922B071092FA
:104810007507109297071092730781E080937207D3
:1048200010924D0761E082E00E94AE1F61E083E0DC
:104830000E94AE1F8091B9008E7F8093B900809155
:10484000B9008D7F8093B90088E48093B80085E437
:104850008093BC0082EF96E1909328058093270512
:1048600083EF96E190932605809325051092BB096E
:104870008CE38093BA091092B9008CE08093B80061
:104880001092AB091092AC09E1EFF0E085919491A0
:10489000D82EE3EFF0E00491E4EFF0E0E491E09350
:1048A000AD09E5EFF0E0E491E093AE09E6EFF0E06A
:1048B000E491E093AF097C018E2D8D19801750F49F
:1048C000F701649187EA99E00E94E418FFEFEF1A7C
:1048D000FF0AF2CF87EA99E00E94D02084EF91E0AE
:1048E000909379098093780980EC0E94B71C8E3EE2
:1048F000B1F087EA99E00E94D0206DEB73E0CE0121
:1049000001960E94081221E040E060E0CE0101968D
:104910000E94E920CE0101960E94212122C489E84B
:104920000E94B71C682F616089E80E94822160E0C4
:1049300088E80E94822161E080E80E94822161E093
:104940008FEF0E94822160E080E00E94822181E955
:104950000E94B71C80937D0961E080E00E94822163
:1049600060E08FEF0E94822160E080E80E94822157
:1049700080E60E94B71C682F626180E60E94822157
:1049800060E270E084E40E94D91C6FEF81E00E9435
:10499000822161E080E80E94822161E08FEF0E9425
:1049A000822160E080E00E94822166E08FEF0E9419
:1049B000822183E80E94B71C682F646083E80E940C
:1049C000822167E08FEF0E94822161E081E80E94EE
:1049D000822161E080E80E9482216BE684E90E94E6
:1049E000822160E083E80E9482210E947E207093F1
:1049F0007C0960937B0983E80E94B71C811116C073
:104A00008091780990917909892BA9F30E947E20E1
:104A100020917B0930917C09621B730B809178098E
:104A2000909179098617970730F763CF61E083E8A3
:104A30000E94822182E90E94B71CA82E282F2F777E
:104A4000D22E60E081E80E94822166E08FEF0E9412
:104A5000822183E80E94B71C682F6B7F83E80E9445
:104A6000822161E08FEF0E94822161E080E00E945C
:104A7000822160E08FEF0E94822160E080E80E9446
:104A800082218091770991E0909374078093960733
:104A9000109275071092970760EB88EE97E00E94DE
:104AA0004D1781E00E9426218093760966E080916F
:104AB00077090E94A4217E013BE4E30EF11C47012B
:104AC00057E0C52E2E2C0F2DCA94CC2041F088EE35
:104AD00097E00E940417F40181934F01F5CF61E044
:104AE0008FEF0E94822160E08FE40E9482216CE2BD
:104AF0008EE40E94822160E08FEF0E94822164EBAD
:104B000086EB0E948221A7FE02C06CE001C060E03B
:104B100090E080E041E050E0282F269526952695EC
:104B2000782F7770F701E20FF11D861710F09D11B5
:104B30000AC09A0101C0220F7A95EAF720953081C8
:104B40002323208309C0208130E002C035952795BA
:104B50007A95E2F720FD9F5F8F5F8033E9F68091C1
:104B6000770991E0909374078093960710927507E8
:104B70001092970760EB88EE97E00E944D1747E090
:104B8000D42EDA94DD2041F0F70161917F0188EEA7
:104B900097E00E944D17F5CF81E00E942621809377
:104BA000760961E08FEF0E94822160E080E00E9440
:104BB000822160E08FEF0E94822160E089E00E9404
:104BC000822160E080E10E94822160E081E10E9418
:104BD000822161E084E20E9482216FEF85E20E94DF
:104BE000822160E085E70E94822161E08FEF0E94D0
:104BF00082216CE28EE40E94822160E088E40E94BF
:104C0000822160E280E30E94822160E08FEF0E94B7
:104C1000822169E080E30E94822160E084E50E94B5
:104C2000822164E081E30E94822163E082E30E94AA
:104C3000822163E880E40E94822165E286E40E948A
:104C4000822160E080E60E94822160E087E20E948B
:104C5000822166E080E50E94822160E081E50E9479
:104C6000822166E982E50E94822168E086E50E9451
:104C7000822160E387E50E94822160E081E60E9454
:104C8000822160E082E60E94822160E084E60E9448
:104C9000822160E085E60E94822160EA86E60E9429
:104CA000822161E08FEF0E94822162E382E20E9412
:104CB000822164E187E40E9482216FEF89E40E94EF
:104CC000822160E08AE40E94822160E08FEF0E94EE
:104CD00082216AE08AE70E94822160E08BE70E94DD
:104CE000822161E288E70E94822161E08FEF0E94C9
:104CF000822164E383E20E94822160E082E40E94D8
:104D000082216FEF84E40E94822166E285E40E94A2
:104D1000822165E086E40E94822160E480E40E94B2
:104D2000822166E08EE00E9482216AE180E20E9498
:104D3000822160E483E40E94822160E08FEF0E9480
:104D4000822163E084E30E94822164E485E30E947F
:104D5000822161E08FEF0E94822164E081E30E9462
:104D6000822169E08BE40E94822165E08CE40E944C
:104D7000822164E08DE40E94822160E08FEF0E9436
:104D8000822160E084E40E94822160E285E40E9446
:104D9000822168E087E40E94822168E288E40E9420
:104DA000822160E087E60E94822164E080E70E9421
:104DB000822161E081E70E9482216EEF82E70E94FA
:104DC000822160E086E70E94822160E087E70E94FE
:104DD000822161E08FEF0E94822161E08DE00E94DC
:104DE000822160E08FEF0E94822161E080E80E94D2
:104DF000822168EF81E00E94822161E08FEF0E94B2
:104E0000822161E08EE80E94822161E080E00E94C0
:104E1000822160E08FEF0E94822160E080E80E94A2
:104E2000822164E08AE00E94822184E80E94B71C0B
:104E3000682F6F7E84E80E94822161E08BE00E94EF
:104E40008221CE018F5A9F4F0E94C21DBE016F5F0B
:104E50007F4FCE018F5A9F4F0E94031D62968FADE8
:104E60006297882349F08B859C85AD85BE858C57DC
:104E7000924FAF4FBF4F04C086E39BE0A0E0B0E08D
:104E800064962FAD6497222369F04B855C856D8510
:104E90007E854E545D4F6F4F7F4F440F551F661FE9
:104EA000771F0DC063962FAD6397222361F04B856A
:104EB0005C856D857E854C565D4F6F4F7F4F840FAF
:104EC000951FA61FB71F65962FAD6597222361F02A
:104ED0004F85588969897A894C565D4F6F4F7F4F4E
:104EE000840F951FA61FB71F66962FAD66972223C6
:104EF00061F04B895C896D897E894A5D5D4F6F4F9A
:104F00007F4F840F951FA61FB71F80937E09909334
:104F10007F09A0938009B093810968EE81E00E9427
:104F20008221C0907E09D0907F09E0908009F090A6
:104F30008109F0E2CF16FEE4DF06E104F10408F493
:104F4000D1C0CE018F5A9F4F0E94C21DBE016F5F1C
:104F50007F4FCE018F5A9F4F0E94031D62968FADE7
:104F60006297882349F08B859C85AD85BE858C57DB
:104F7000924FAF4FBF4F04C086E39BE0A0E0B0E08C
:104F800064962FAD6497222369F04B855C856D850F
:104F90007E854E545D4F6F4F7F4F440F551F661FE8
:104FA000771F0DC063962FAD6397222361F04B8569
:104FB0005C856D857E854C565D4F6F4F7F4F840FAE
:104FC000951FA61FB71F65963FAC6597332061F00C
:104FD0004F85588969897A894C565D4F6F4F7F4F4D
:104FE000840F951FA61FB71F66962FAD66972223C5
:104FF00009F478C04C015D0126E2820E22E0921E87
:10500000A11CB11CC814D904EA04FB0408F46AC04A
:10501000AB81B0E020E03FE24AE350E00E94E8319B
:105020002B013C0134EF430E31E0531E611C711C17
:10503000A7019601281939094A095B09A8EEB3E0CE
:105040000E94E8314B015C01C301B20120ED37E061
:1050500040E050E00E943232820E931EA41EB51E24
:10506000C301B20128EE33E040E050E00E9432324A
:10507000C501B4010E943232332031F08F8198850E
:10508000280F391F411D511D2115310541055105BD
:10509000E1F029013A0181E0481A510861087108DC
:1050A00060E070E0D301C2018827892B8A2B8B2B0B
:1050B00039F076946794579447946F5F7F4FF2CF9F
:1050C000762F66276429752902C060E070E081E7C9
:1050D0000E94D91CC0927E09D0927F09E09280097B
:1050E000F092810961E081E00E94822180E40E94C7
:1050F0008A20882309F4FDCB62E081E00E948221AE
:1051000080E00E948A20882309F4F3CB68EE81E0D6
:105110000E94822161E080E80E94822161E08FEF9D
:105120000E94822160E080E00E94822160917D09DE
:1051300081E90E94822161E080E00E94822160E09A
:105140008FEF0E94822160E080E80E94822162E06D
:1051500080E00E94822190910001E1E0F1E080E096
:1051600001C0FFCF958786878F5F3F968532D1F745
:105170006FEC73E0CE0101960E94081223E041E03B
:1051800060E0CE0101960E94E920CE0101960E94C6
:1051900021216CE271E080E090E00E944420612FC8
:1051A00070E06F5F7F4F822D902F0E942B1E62EE6A
:1051B00073E0CE018F5A9F4F0E940812622D702F0C
:1051C000CE018F5A9F4F0E94DF1DBC01CE01019678
:1051D0000E94EE1120E043E060E0CE0101960E94C3
:1051E000E920CE0101960E942121CE018F5A9F4FC6
:1051F0000E942121822D902F0E94212168E572E0DA
:1052000080E090E00E94442060EF73E0CE010196C0
:105210000E94081220E043E060E0CE0101960E9467
:10522000E920CE0101960E9421216CE271E080E02C
:1052300090E00E94442060E074E0CE0101960E945C
:10524000081220E043E069E6CE0101960E94E920C1
:10525000CE0101960E94212110E0812F0E94301C76
:105260000E94631E62E070E080E090E00E944420B3
:105270001F5F1F3F91F768EE73E080E090E00E94AF
:1052800044208091F7078F5F0E941D1287EA99E002
:105290000E94D0201E0191E4290E311CEE24EA94D4
:1052A000B3E0FB2E1FE7412E512C612C712C0E9484
:1052B0007E204B015C016093C9067093CA068093FF
:1052C000CB069093CC06AFE7CA2EA5E0DA2E00E01D
:1052D00010E000FF02C061E001C060E088E00E94D1
:1052E000AE1F01FF02C061E001C060E089E00E94E2
:1052F000AE1F02FF02C061E001C060E08AE00E94D0
:10530000AE1FC801F3E095958795FA95E1F7892BD3
:1053100011F061E001C060E08BE00E94AE1F61E02F
:1053200070E080E090E00E94442082E10E94192019
:10533000F601819391936F0183E10E941920F60198
:10534000978F868F0F5F1F4F0031110511F60E9456
:105350009B09609377057093780580937905909306
:105360007A05C501B4010E9401090E947E20709354
:105370007C0960937B0983E10E94B71C8770E1F48C
:105380008091780990917909892BA9F30E947E2058
:1053900020917B0930917C09621B730B8091780905
:1053A000909179098617970730F781E080937A0901
:1053B000CC24CA94DC2C09C08EE10E94ED218C0122
:1053C00061E08BE00E948221680186010654110988
:1053D000083EF3E01F0784F50115110569F160919E
:1053E0007B0570917C0580917D0590917E0528E07C
:1053F00030E040E050E00E94C931A7E0B0E00E94F8
:10540000E83117FF02C0095F1F4FE3E015950795CC
:10541000EA95E1F7012E000C220B330BDC01CB01E6
:10542000800F911FA21FB31F80937B0590937C0573
:10543000A0937D05B0937E0580917A0910927A0938
:105440008823B9F065E074E0CE0101960E9408124D
:1054500021E040E060E0CE0101960E94E920CE010B
:1054600001960E94212164EF71E080E090E00E94AB
:10547000442021E633E0AE014F5F5F4F6A01DE0159
:105480005996CA01F90141919F01E42FF0E0EE0F16
:10549000FF1FE158FA4F40815181FC014193519324
:1054A000CF01EA17FB0771F78DE493E0FC0121912E
:1054B000CF01E22FF0E0EE0FFF1FE158FA4F2081FD
:1054C00031814FEF53E0421B530B4D935D932A16EE
:1054D0003B0661F784E10E941920F701E81BF90BF4
:1054E000CF01F1019183808385E10E94192097010A
:1054F000281B390B25963FAF2EAF259786E10E94DA
:105500001920A701481B590B27965FAF4EAF27976D
:1055100087E10E941920F701E81BF90B2996FFAFDC
:10552000EEAF299780917B0590917C05A0917D0538
:10553000B0917E05B7FD0CC08139F1E09F07A10550
:10554000B10524F080E991E0A0E0B0E09C0102C048
:1055500020E030E0A1E0BCEF0E94913220E931E090
:1055600040E050E00E94C931DA01C90181509C4FEE
:10557000AF4FBF4F2B969FAF8EAF2B9701E011E03F
:10558000B12CAA24A394F8011482F601219131913F
:105590006F01F80180819181A901481B590BCA0153
:1055A00057FF03C0919581959109409774F1F801D7
:1055B00031832083A1E8BFEF0E9491322FEF33E0C7
:1055C00040E050E00E94C931CA01B90161587F4FE3
:1055D0008F4F9F4FF80173836283A4824585868530
:1055E0000E94F00AB092760580917305882321F01D
:1055F000F8018281858307C080916805882329F09E
:10560000F80182818683A092C706B394015F1F4F81
:10561000F5E2BF12B8CF8091010881110CC08091D2
:105620002F058823A1F181E0809301088091760500
:10563000809307082AC080910208811130C08091B0
:105640006605882361F080910008863019F4109275
:10565000000803C08F5F809300080E94520B809166
:105660007105882359F080910008811102C086E0FD
:1056700001C08150809300080E94520B80912F0539
:10568000882329F081E0809302080E94520B04E3F2
:1056900015E0D12CAA24A39459E0B52EBAC180916B
:1056A0000008813009F456C0C8F0853009F491C073
:1056B000863009F088C16AE374E0CE0101960E9449
:1056C000081221E041E060E0CE0101960E94E9204D
:1056D000CE0101960E94212114E616C18091710528
:1056E0008823D9F0E09107082E2F30E04FE0E49FA7
:1056F000F0011124EF5FFE4F8685882311F0815061
:1057000001C08FE79FE0929FF001939FF00D11245D
:10571000EF5FFE4F86870E94520B809166058823BB
:1057200009F451C1E09107082E2F30E05FE0E59FBA
:10573000F0011124EF5FFE4F86858F5F87FD80E0CB
:105740009FE0929FF001939FF00D1124EF5FFE4FB9
:1057500086873CC0809171058823D9F0E0910708C5
:105760002E2F30E08FE0E89FF0011124EF5FFE4F15
:105770008585882311F0815001C08FE09FE0929FC2
:10578000F001939FF00D1124EF5FFE4F85870E947B
:10579000520B80916605882309F415C1E091070832
:1057A0002E2F30E09FE0E99FF0011124EF5FFE4FC4
:1057B00085858F5F8F3008F080E09FE0929FF00139
:1057C000939FF00D1124EF5FFE4F85870E94520BCF
:1057D000FAC069E174E0CE0101960E94081221E04E
:1057E00041E060E0CE0101960E94E920CE010196E1
:1057F0000E94212114E60E949B0960937705709313
:1058000078058093790590937A050E947E200E9406
:10581000010980913A0581110CC0809145058111E3
:1058200008C080915005811104C080915B058823D8
:1058300061F0E4E3F5E080E096819111182F8F5F2D
:105840003B968430C9F781E001C080E090912F053C
:10585000911102C0882379F2143609F4B4C087EAA2
:1058600099E00E94D020612F70E06F5F7F4FCE01E2
:10587000855B9F4F0E942B1E6AE274E0CE01019669
:105880000E940812BE01655B7F4FCE0101960E9407
:10589000DF1DBC01CE018F5A9F4F0E94EE1121E007
:1058A00041E060E0CE018F5A9F4F0E94E920CE0177
:1058B0008F5A9F4F0E942121CE0101960E942121E3
:1058C000CE01855B9F4F0E942121812F0E948A0873
:1058D00074C080914505882351F1E4E3F5E080E050
:1058E00096819111182F8F5F3B968430C9F701E0A4
:1058F00062E370E080E090E00E94442080912F05F8
:1059000081111FC001111DC00E949B096093770582
:10591000709378058093790590937A050E947E2094
:105920000E94010980913A058111D7CFD2CF809191
:1059300050058111D2CF80915B058111CECF00E05F
:10594000D7CF143609F43FC087EA99E00E94D020EF
:10595000612F70E06F5F7F4FCE01855B9F4F0E948C
:105960002B1E62EE73E0CE0101960E940812BE016A
:10597000655B7F4FCE0101960E94DF1DBC01CE0109
:105980008F5A9F4F0E94EE1121E041E060E0CE016E
:105990008F5A9F4F0E94E920CE018F5A9F4F0E943D
:1059A0002121CE0101960E942121CE01855B9F4FCE
:1059B0000E942121812F0E94270864EF71E080E07E
:1059C00090E00E94442080912F05882321F01092BE
:1059D00002080E94520B0E947E2000910308109141
:1059E00004082091050830910608DC01CB01801BDA
:1059F000910BA20BB30B89389341A105B10508F4B3
:105A000046CE109201081092020881E08093C706EA
:105A10003ECEF8018681882309F444C080910108B4
:105A200081113AC0C0900001C3942C2D40E46D2D2B
:105A300080E90E94441FB9828C2D80698A83DB82B1
:105A400080E48C838091F70744E050E0BE016F5FF3
:105A50007F4F8F5F0E94E01261E070E080E090E095
:105A60000E944420C0900001C3942C2D40E06D2D75
:105A700080E90E94441FB9828C2D80698A83DB8271
:105A80001C828091F70744E050E0BE016F5F7F4FBA
:105A90008F5F0E94E01206C0109201081092020867
:105AA000A092C706D394055F1F4FF4E0DF12B1CF79
:105AB0004CE2C42E43E0D42E01E011E0F8018481D1
:105AC000882311F18580912CA12CB12C2681822F65
:105AD00090E0A0E0B0E09C01AD01281939094A0925
