:100000000C9433070C945B070C945B070C945B0710
:100010000C945B070C945B070C945B070C945B07D8
:100020000C945B070C945B070C9460110C944613C2
:100030000C945B070C945B070C945B070C945B07B8
:100040000C945B070C945B070C945B070C945B07A8
:100050000C945B070C945B070C945B070C94472192
:100060000C945B070C94AA150C9484150C945B07F4
:100070000C945B070C945B070C945B070C945B0778
:100080000C945B070C945B070C945B070C945B0768
:100090000C94311A0C945B070C945B070C945B076F
:1000A0000C945B070C945B070C945B07CC1ECF1E73
:1000B000BE1EC21EC81EF01EF01EF01ED31ED71E8E
:1000C000DB1EE11EE51EF01EEB1EAED580A81FD381
:1000D00000408D142002A1C8DA02817FD9F1DB40F3
:1000E000A4A6AFCA0019802000000000002300264B
:1000F0000029002C002F00080B0002020201000959
:100100000400000102020000052400100105240182
:1001100001010424020605240600010705810310DD
:10012000004009040100020A000000070502024025
:1001300000000705830240000004030904120100C7
:1001400002EF020140412336800001010203014118
:10015000726475696E6F204C4C430041726475691E
:100160006E6F204C656F6E6172646F0000030C0F40
:1001700030333C3FC0C3CCCFF0F3FCFF070605048F
:100180000100080A0B0C0D090000000024002700E4
:100190002A002D0030000000000200090F000003BB
:1001A0000401000C0000000000000000000000003E
:1001B000000000000022080D0E2060040205060762
:1001C00008090203030508020402040704070707DD
:1001D00007070707070202070707080E09080808AC
:1001E00007070908020708070B0809070909070894
:1001F00008090D0708080404040608030707060792
:1002000007050707020306020A0707070705060591
:1002100007070B0607050501050708000000000099
:10022000000000FEFE18181E1E001E1E000000002A
:100230000090F89E90F89E1C00001C0000183C26C0
:10024000FF66CC88040C183C180C041C221CC0301F
:100250008E408000001804000C100C80CC7E72F2DE
:10026000DE0C80000C1C1010101C0C1C101E1E003C
:1002700000F0FC061C7CC006FCF0C07C1C14140EB4
:1002800014140000000000606060FCFC606060000E
:1002900000000C0C00000000005838C0C0C0C000B6
:1002A0000000000000181800C0380618040000F80C
:1002B000FC0E060EFCF8040C1C181C0C04180CFE9A
:1002C000FE00001C1C181C86C6663E1C181C1C1850
:1002D000181818888C062626FEDC040C1C18180C2E
:1002E00004C0E0B88CFEFE80040404041C1C0470EE
:1002F0007E3E3636F6C60C1C1818180C04F8FC6E38
:100300006666EECC040C1818181C0C060606E67679
:100310001E0600001C1C0000009CFE666666FE9C1B
:100320000C1C1818181C0C3C7E666666FCF80C1C2D
:1003300018181C0C0418181818181858386060F091
:10034000F098980C0000000004040CD8D8D8D8D835
:10035000D8D8000000000000000C9898F0F0606011
:100360000C040400000000080C06C6E6763C1800E9
:1003700000001818000000E03008C4F63A1A1AF21B
:10038000FA7E0408F00C30604C9C98988C9C9C90F1
:10039000484C2000C0F8BE86BEF8C000181C0404FB
:1003A0000404041C18FEFE66666666FEDC1C1C184F
:1003B0001818181C0CF8FC0E06060E9C08040C1CE1
:1003C00018181C0C04FEFE0606060EFCF81C1C1871
:1003D00018181C0C04FEFE66666666661C1C18185F
:1003E000181818FEFE66666666061C1C00000000F3
:1003F00000F8FC0E0606C6CEDCC8040C1C18181843
:10040000180C04FEFE60606060FEFE1C1C00000014
:10041000001C1CFEFE1C1C8080000000FEFE0C1C4C
:100420001818181C0CFEFE603078EC86021C1C00AC
:100430000000041C18FEFE00000000001C1C181820
:10044000181818FEFE0E7CE000E07C0EFEFE1C1C60
:1004500000000C1C0C00001C1CFEFE1C78E080FE42
:10046000FE1C1C0000040C1C1CF8FC0E0606060EEC
:10047000FCF8040C1C1818181C0C04FEFE666666BA
:100480007E3C1C1C0000000000F8FC0E0686060ED8
:10049000FCF8040C1C18181C0C1C24FEFE6666E6F6
:1004A000E6BE1C001C1C0000000C1C18103C7E66E4
:1004B0006666EECC0C1C1818181C0C060606FEFE10
:1004C0000606060000001C1C000000FEFE000000E6
:1004D00000FEFE040C1C18181C0C04021EFCE0009C
:1004E000E0FC1E020000001C1C1C00000006FEF8C0
:1004F00000F0FE0EFEF000F8FE0600001C1C1C00C2
:1005000000001C1C1C0000060EF8F0F80E06181C5B
:100510000400041C18060E38F0F0380E0600000027
:100520001C1C000000060686E6761E0E06181C1C23
:100530001818181818FEFE0606FCFCC0C00638C0C5
:1005400000000004180606FEFEC0C0FCFC20380EA9
:100550000E38200000000000000000000000000035
:10056000008080808080808080020604000000106F
:1005700098D858F8F0000C1C18180C1C10FEFE300F
:100580001838F0E01C1C0C181C0C04E0F01818388B
:1005900030040C18181C0CE0F0381830FEFE040C67
:1005A0001C180C1C1CE0F0D8D8D8F0E0040C18186B
:1005B00018180818FCFE1A1A001C1C0000E0F0387D
:1005C0001830F8F864ECDCD8CCFC7CFEFE3018184F
:1005D000F8F01C1C0000001C1CFAFA1C1C00FAFAA3
:1005E000C0FC7CFEFEE0F098081C1C00041C18FEF9
:1005F000FE1C1CF8F81018F8F01818F8F01C1C0075
:10060000001C1C00001C1CF8F8301818F8F01C1C0A
:100610000000001C1CE0F0381838F0E0040C1C1836
:100620001C0C04F8F8301838F0E0FCFC0C181C0C1A
:1006300004E0F0381830F8F8040C1C180CFCFCF836
:10064000F83018181C1C00000070F8D8D8D8900892
:100650001818181C0C18FCFE1818000C1C1818F898
:10066000F8000000F8F80C1C18180C1C1C38F8C016
:1006700000C0F83800001C1C1C000018F8E000F056
:1006800038F000E0F81800001C1C0C000C1C1C00CA
:10069000001838E0E03818181C04041C1818F8E09A
:1006A00000E0F8180084FCF83C04001898D878386A
:1006B0001C1C18181880FC7E0606007CFCC0C0FEBE
:1006C000FC06067EFC80C0C0FC7C006030307060A0
:1006D000603000000000000000FE02020202020280
:1006E000FE1C1010101010101C0000070E206000DF
:1006F000000000000000000000000000000000FCFE
:100700000000000000000D00000000003C003C0064
:1007100000000000000000000020F82020F8200069
:10072000010701010701006090F890100000040427
:100730000F0403000018249860100C000C0201063E
:1007400009060030C8C8300000000708080906097B
:100750000000003C0000000000000000000000005D
:1007600000E0180402000000030C1020000204182E
:10077000E000000020100C0300000080A0C0C0A01A
:10078000800000020101020000808080F0808080F3
:10079000000000070000000000000000000020181A
:1007A0000C04000000808080808080000000000039
:1007B0000000000000000000000000081C0800000D
:1007C000000000806018060018060100000000F01C
:1007D00008844408F00003040808040300201008FB
:1007E000FC0000000000000F000000180404844416
:1007F00038000C0A09080808000804444444B800FA
:100800000608080808070080601804FC00000101C1
:1008100001010F01007C24242424C40006080808D8
:10082000080700F8844444448800070808080807BB
:1008300000040404C4340C00000C0300000000B8E1
:1008400044444444B8000708080808070078848432
:100850008444F800040808080807000020702000FD
:10086000000000081C0800000000207020000000AC
:1008700020180C0400000080402010080000000137
:1008800002040800004040404040400002020202D2
:10089000020200000810204080000008040201004D
:1008A0000004844424180000000D0000000000F043
:1008B00008C42424F8000304090A0A0300F8848405
:1008C0008484F8000F000000000F00FC44444478CA
:1008D00080000F080808080700F804040404180042
:1008E00007080808080600FC04040408F0000F08C4
:1008F0000808040300FC4444444404000F080808AA
:10090000080800FC4444444404000F0000000000B8
:1009100000F804048484980007080808080700FC0D
:1009200040404040FC000F000000000F000404FCA9
:100930000404000008080F08080000000004040474
:10094000FC0006080808080700FC4020D008040046
:100950000F000000030C00FC0000000000000F0866
:100960000808080800FC1860806018FC0F000001EF
:1009700000000FFC18608000FC000F000001060F53
:1009800000F804040404F80007080808080700FC3D
:100990008484848478000F000000000000F80404C0
:1009A0000404F8000708080E181700FC84848484E7
:1009B00078000F00010204080038444484840800D1
:1009C00004080808080700040404FC0404040000E8
:1009D000000F000000FC00000000FC0007080808F1
:1009E000080700FC00000000FC0000030C0C0300E2
:1009F00000FC0000C00000FC030C0300030C030C0F
:100A000030C0C0300C000C030000030C003C4080E0
:100A100080403C000000000F0000000404844434C7
:100A20000C000C0A09080808000000FE020202007F
:100A300000003F2020200006186080000000000019
:100A40000001061800020202FE0000002020203FE4
:100A5000000000100804040810000000000000005E
:100A600000000000000000002020202020200000C6
:100A7000040C182000000000000000000000A0A0EE
:100A8000A0A0C00007080808040F00FC4020202098
:100A9000C0000F040808080700C0202020204000E4
:100AA00007080808080400C020202040FC000708B0
:100AB0000808040F00C020202020C00007090909F1
:100AC00009090080F88484840800000F00000000F9
:100AD00000C020202040E00023444444423F00FC6A
:100AE00040202020C0000F000000000F0000202048
:100AF000EC0000000000000F00000000002020ECCF
:100B00000000102020201F0000FC0080402000007A
:100B10000F01010204080000FC00000000000007B3
:100B20000808080000E02020C02020C00F000003BB
:100B300000000FE040202020C0000F000000000F48
:100B400000C020202020C00007080808080700E097
:100B500040202020C0007F020404040300C02020A5
:100B60002040E00003040404027F00E04020202035
:100B700040000F000000000000C0202020204000A6
:100B80000409090909060020F820202000000007B8
:100B90000808080400E000000000E000070808085A
:100BA000040F00E000000000E00000030C0C030054
:100BB00000E00000800000E00708040304080720AC
:100BC00040808040200008040202040800E0000089
:100BD0000000E00023444444423F0020202020A0A5
:100BE0006000080C0A090808000080807C020200EE
:100BF0000000001F2020000000FE00000000000098
:100C00001F0000000002027C8080000020201F00E6
:100C1000000000300808102020180000000000002C
:100C200000FEFEFEFEFEFEFE7F7F7F7F7F7F7F0059
:100C30000005072060000000000000005F000000C9
:100C400003000300143E143E14242A7F2A12433367
:100C500008666136495522500005030000001C2239
:100C600041000041221C0014083E081408083E08F8
:100C70000800503000000808080808006060000004
:100C800020100804023E5149453E0004027F004204
:100C90006151494622414949361814127F102745AF
:100CA0004545393E494949320101710907364949EB
:100CB0004936264949493E0036360000005636007E
:100CC00000081422410014141414140041221408C2
:100CD00002015109063E4159555E7E0909097E7F90
:100CE000494949363E414141227F4141413E7F4988
:100CF0004949417F090909013E4141493A7F0808B4
:100D0000087F00417F4100304040403F7F0814226F
:100D1000417F404040407F020C027F7F0204087FF9
:100D20003E4141413E7F090909061E2121215E7F86
:100D300009090976264949493201017F01013F40ED
:100D400040403F1F2040201F7F2010207F41221C59
:100D5000224107087008076151494543007F41005F
:100D60000002040810200000417F00040201020478
:100D70004040404040000102040020545454787F19
:100D8000444444383844444444384444447F385408
:100D900054541804047E0505085454543C7F080438
:100DA000047800447D40002040443D007F102844EA
:100DB0000000417F40007C047804787C08040478BB
:100DC00038444444387C14141408081414147C0067
:100DD0007C080404485454542004043F44443C40D8
:100DE00040207C1C2040201C3C4030403C442810CB
:100DF00028440C5050503C4464544C440008364144
:100E00004100007F00004141360800020102040257
:100E10007F7F7F7F7F0408020110408040102040C8
:100E200080408008020401804020100201108010E0
:100E30002040402000000000250028002B002E004C
:100E40003100040404040403040502020202040342
:100E50000202020206060606060604040202020454
:100E60000400552D452D11241FBECFEFDAE0DEBF63
:100E7000CDBF15E0A0E0B1E0ECEDF4E602C00590D6
:100E80000D92A634B107D9F729E0A6E4B5E001C078
:100E90001D92A93DB207E1F717E0C2E3D7E004C015
:100EA0002197FE010E945030C133D107C9F70E943B
:100EB00091210C9461320C9400008F929F92AF921A
:100EC000BF92CF92DF92EF92FF920F931F93FC019C
:100ED00011861286168217826083808561110BC08D
:100EE000811120C0118281E0808786832283338331
:100EF000448355831AC08823A9F0108681E0878334
:100F0000C280D380E480F58049015A018C189D0885
:100F1000AE08BF080CE2801601E09006A104B104FF
:100F20000CF481878181811117C080858823A1F00D
:100F300082819381A481B58149015A01881A990A55
:100F4000AA0ABB0A05EF801601E09006A104B104CD
:100F50001CF081E0828781831F910F91FF90EF90B9
:100F6000DF90CF90BF90AF909F908F900895FC013D
:100F70006093BC008091BC0087FFFCCF9091B900CA
:100F8000987F90830895CF92DF92EF92FF920F9314
:100F90001F93CF93DF93EC01C62ED42E8C89882328
:100FA00051F0411108C084E98093BC008091BC00DD
:100FB00084FDFCCF1C8AEC888E010E5E1F4FE11071
:100FC00014C0FB8864EAC8010E94B7078A89883088
:100FD00011F1803101F1DD2011F080E4E82EE09282
:100FE000BB0064E8C8010E94B707C092BB0064E878
:100FF000C8010E94B70782E0D81204C08C898F5FB5
:101000008C8B11C084E98093BC008091BC0084FD6E
:10101000FCCF1C8A08C0FF0CF092BB0064E8C8013A
:101020000E94B707D8CFDF91CF911F910F91FF900A
:10103000EF90DF90CF900895089580E090E00895BC
:10104000CF92DF92EF92FF926B017C0180919B0522
:1010500090919C05A0919D05B0919E0524E0B695C8
:10106000A795979587952A95D1F7682F6170A70165
:1010700096018FE895E00E945D0780919B05909115
:101080009C05A0919D05B0919E0535E0B695A7956C
:10109000979587953A95D1F7682F6170A7019601CA
:1010A00084E895E00E945D0780919B0590919C05E6
:1010B000A0919D05B0919E0546E0B695A7959795A0
:1010C00087954A95D1F7682F6170A70196018DE445
:1010D00095E00E945D0760919B056170A7019601F4
:1010E00088E595E00E945D0780919B0590919C05A5
:1010F000A0919D05B0919E05B695A795979587956A
:10110000682F6170A701960183E695E00E945D0754
:1011100080919B0590919C05A0919D05B0919E05A5
:1011200062E0B695A795979587956A95D1F7682F50
:101130006170A70196018EE695E00E945D0780919F
:101140009B0590919C05A0919D05B0919E0573E033
:10115000B695A795979587957A95D1F7682F617081
:10116000A701960189E795E0FF90EF90DF90CF907F
:101170000C945D074F925F926F927F928F929F9235
:10118000AF92BF92CF92DF92EF92FF920F931F9395
:10119000CF93DF9360E08CE00E94F11E8FE090E03F
:1011A0000197F1F761E08CE00E94F11EC7E0D0E00A
:1011B000812C912C54019BE9692E91E0792E2AE132
:1011C000E22E2EE0F22E37E4C32E3EE0D32E0FE0C7
:1011D00010E0F3018491F7015490F601449044200B
:1011E000A1F081110E94B41EE42DF0E0EE0FFF1F6C
:1011F000E751FF4FA591B4918C91582231E020E046
:1012000009F430E0832F922F02C080E090E0092E95
:10121000000CAA0BBB0B0C2E04C0880F991FAA1F31
:10122000BB1F0A94D2F7882A992AAA2ABB2A61E00E
:1012300086E00E94F11EC8010197F1F760E086E0A8
:101240000E94F11E219708F0C4CFC501B401DF91BF
:10125000CF911F910F91FF90EF90DF90CF90BF90B3
:10126000AF909F908F907F906F905F904F90089578
:101270004F925F926F927F92AF92BF92CF92DF9226
:10128000EF92FF920F931F93CF93DF93E82F022FDC
:10129000B62F2AEF35E0A0E00E945E30DC01CB01E2
:1012A0009058AF4FBF4FCD01BB2797FDB095AB2FE7
:1012B0008E3F51E0950758F48F3F910510F460E0A0
:1012C0002AC06EEF962F981B60E08FEF25C08C3FF1
:1012D00053E0950770F48D3F52E0950720F462E0EB
:1012E000680F8FEF04C06CEF681B862F6FEF90E0E4
:1012F00013C08A3F55E0950761F08B3F54E0950796
:1013000028F494E0980F6FEF80E006C06AEF681B46
:1013100001C060E080E09FEFCE2FD0E02091A909CE
:101320003091AA09C217D30708F096C010E00F5FEA
:101330001F4FA42FB0E01196409550E06A9F7001B6
:101340006B9FF00C1124EF2CFF24E40EF51E8A9FF6
:1013500090018B9F300D1124232F3327240F351F2D
:101360009A9F50019B9FB00C1124AB2CBB24A40E60
:10137000B51ED8010E945E302B013C014424662436
:10138000772497010E945E30BB27A92F982F872FC3
:1013900073016201C82AD92AEA2AFB2A9501D801D9
:1013A0000E945E30DC01CB018827AA27BB27BA2F19
:1013B000A92F982F8827B701A601482B592B6A2BF4
:1013C0007B2B2B0166247724052F162F272F3327FD
:1013D000A02FF42F8091AF09882391F0E82EF12CF3
:1013E000E49CD001E59CB00DF49CB00D11244B2E73
:1013F000809F80011124A12F849FA0011124F52F2B
:101400002091B5093091B2098091B0099091B1094C
:10141000231306C023E0E29F800D911D11240AC012
:10142000CC0FDD1FCC0FDD1F8C0F9D1FEC01C20FF9
:10143000D11D18822091B209EC01C20FD11D488242
:101440002091B309EC01C20FD11DA8832091B409EA
:10145000DC01A20FB11DFC93DF91CF911F910F9181
:10146000FF90EF90DF90CF90BF90AF907F906F9004
:101470005F904F900895FF920F931F93CF93DF9348
:1014800000D000D0CDB7DEB7F82E062F11E0140F34
:101490002FEF40E060E081E00E9438092FEF40E04C
:1014A00060E082E00E9438090E94A61D212F402F93
:1014B0006F2D80EB0E94871E8BE08983106B1A834F
:1014C000FB820C8308E118E0F801838144E050E0DE
:1014D000BE016F5F7F4F8F5F0E941912F8018381F9
:1014E0008F5F0E9456110F900F900F900F90DF9119
:1014F000CF911F910F91FF9008950F931F93CF935A
:10150000DF93CDB7DEB768970FB6F894DEBF0FBE96
:10151000CDBF0E94C11F6093280870932908809353
:101520002A0890932B088DEB99E00E94252080914A
:1015300026088111E5C06091240870E06F5F7F4F3D
:10154000CE0107960E946E1D67E574E0CE010196FC
:101550000E944111BE01695F7F4FCE0101960E943A
:101560005B1DBC01CE010D960E94271120E040E0DA
:1015700060E0CE010D960E943E20CE010D960E94A5
:101580007B20CE0101960E947B20CE0107960E940F
:101590007B206CE674E0CE0101960E94411120E0B0
:1015A00043E060E0CE0101960E943E20CE0101960C
:1015B0000E947B206FE674E0CE0101960E944111EB
:1015C00020E043E06CE3CE0101960E943E20CE0174
:1015D00001960E947B2062E774E0CE0101960E9492
:1015E000411120E043E069E6CE0101960E943E20D1
:1015F000CE0101960E947B2080912408823009F45C
:1016000079C0D8F4882319F1813009F0C1C1609103
:101610002C08CE0107960E94221D65E774E0CE01DA
:1016200001960E944111BE01695F7F4FCE01019674
:101630000E945B1D6FE874E042C0843009F45DC015
:1016400048F1853009F0A4C16FEA74E031C1E0913E
:101650002C0881E1E89FF0011124EE5FFE4F6089C4
:10166000CE010D960E94221D60912C08CE01079696
:101670000E94221D65E774E0CE0101960E9441118F
:10168000BE01695F7F4FCE0101960E945B1D60E83D
:1016900074E0E7C060912C08CE0107960E94221DDD
:1016A0006AE774E0CE0101960E944111BE01695FB4
:1016B0007F4FCE0101960E945B1D68E974E00E9495
:1016C000ED10BC01CE010D960E94271121E041E0F2
:1016D00060E0CE010D960E943E20CE010D960E9444
:1016E0007B20CE0101960E947B20CE0107960E94AE
:1016F0007B204EC165E874E0DBC063EA74E0D8C0CB
:101700006BEB74E0CE0101960E94411120E040E0B5
:1017100060E0CE0101960E943E20CE0101960E941B
:101720007B2060ED74E0CE0101960E94411120E023
:1017300043E060E0CE0101960E943E20CE0101967A
:101740000E947B2062ED74E0CE0101960E9441115F
:1017500020E043E06CE3CE0101960E943E20CE01E2
:1017600001960E947B2067ED74E0CE0101960E94F5
:10177000411120E043E069E6CE0101960E943E203F
:10178000CE0101960E947B2080912408823009F4CA
:101790008AC060F5882309F442C0813009F0F8C09E
:1017A000E0912C0881E1E89FF0011124EE5FFE4FEB
:1017B000678570E06F5F7F4FCE010D960E946E1DB2
:1017C00060912C08CE0107960E94221D6AE774E002
:1017D000CE0101960E944111BE01695F7F4FCE018B
:1017E00001960E945B1D6EED74E03BC0833009F4EE
:1017F0005DC0843009F0CCC063E075E0CE01019695
:101800000E94411121E041E060E0CE0101960E947A
:101810003E20CE0101960E947B2014E66EC0E0912E
:101820002C0881E1E89FF0011124EE5FFE4F6089F2
:10183000CE010D960E94221D60912C08CE010796C4
:101840000E94221D6AE774E0CE0101960E944111B8
:10185000BE01695F7F4FCE0101960E945B1D69ED5D
:1018600074E00E94ED10BE01635F7F4F0E945B1D1C
:10187000BC01CE0143960E94271121E041E060E0C7
:10188000CE0143960E943E20CE0143960E947B20CB
:10189000CE0101960E947B20CE0107960E947B20FC
:1018A000CE010D9624CF63EE74E002C065EF74E0C4
:1018B000CE0101960E94411121E041E060E0CE019D
:1018C00001960E943E20CE01019611CF80916905BC
:1018D000882331F1E8E5F5E080E096819111182F39
:1018E0008F5F3B968430C9F701E062E370E080E0EF
:1018F00090E00E94871F011119C00E94BA086093EE
:101900009B0570939C0580939D0590939E050E9476
:10191000C11F0E94200880915E058111DBCFD6CFC8
:10192000809174058111D6CF00E0DFCF143681F1AC
:10193000612FCE0107960E94221D64E175E0CE0161
:1019400001960E944111BE01695F7F4FCE01019651
:101950000E945B1DBC01CE010D960E94271121E063
:1019600040E060E0CE010D960E943E20CE010D9633
:101970000E947B20CE0101960E947B20CE0107961B
:101980000E947B2068EE73E080E090E00E94871F59
:1019900068960FB6F894DEBF0FBECDBFDF91CF9132
:1019A0001F910F9108951F93CF93DF93CDB7DEB7AB
:1019B00068970FB6F894DEBF0FBECDBF8DEB99E0F0
:1019C0000E942520E0919A0511E11E9FF00111244B
:1019D000EE5FFE4F6581CE0107960E94221D6EE1EB
:1019E00075E0CE0101960E944111BE01695F7F4FF3
:1019F000CE0101960E945B1DBC01CE010D960E9496
:101A0000271120E043E060E0CE010D960E943E20C9
:101A1000CE010D960E947B20CE0101960E947B2074
:101A2000CE0107960E947B20E0919A051E9FF0014F
:101A30001124EE5FFE4F6681CE0107960E94221DA3
:101A400064E275E0CE0101960E944111BE01695F1A
:101A50007F4FCE0101960E945B1DBC01CE010D9609
:101A60000E94271121E042E068E2CE010D960E941B
:101A70003E20CE010D960E947B20CE0101960E9451
:101A80007B20CE0107960E947B20E0919A051E9F45
:101A9000F0011124EE5FFE4F678570E06F5F7F4FAE
:101AA000CE010D960E946E1DE0919A051E9FF001D9
:101AB0001124EE5FFE4F6089CE0107960E94221D21
:101AC0006DE275E0CE0101960E944111BE01695F91
:101AD0007F4FCE0101960E945B1D62E375E00E947C
:101AE000ED10BE01635F7F4F0E945B1DBC01CE0104
:101AF00043960E94271120E040E060E0CE0143962B
:101B00000E943E20CE0143960E947B20CE0101968A
:101B10000E947B20CE0107960E947B20CE010D966D
:101B20000E947B2068960FB6F894DEBF0FBECDBF33
:101B3000DF91CF911F9108951F93CF93DF93CDB77E
:101B4000DEB768970FB6F894DEBF0FBECDBF8DEB42
:101B500099E00E942520E0919A0511E11E9FF00175
:101B60001124EE5FFE4F6581CE0107960E94221D73
:101B70006EE175E0CE0101960E944111BE01695FE0
:101B80007F4FCE0101960E945B1DBC01CE010D96D8
:101B90000E94271121E042E060E0CE010D960E94F4
:101BA0003E20CE010D960E947B20CE0101960E9420
:101BB0007B20CE0107960E947B20E0919A051E9F14
:101BC000F0011124EE5FFE4F6681CE0107960E9460
:101BD000221D66E275E0CE0101960E944111BE0110
:101BE000695F7F4FCE0101960E945B1DBC01CE0153
:101BF0000D960E94271120E043E06BE4CE010D9684
:101C00000E943E20CE010D960E947B20CE010196BF
:101C10000E947B20CE0107960E947B20E0919A05CE
:101C20001E9FF0011124EE5FFE4F678570E06F5F2D
:101C30007F4FCE010D960E946E1DE0919A051E9F6A
:101C4000F0011124EE5FFE4F6089CE0107960E94DD
:101C5000221D6DE275E0CE0101960E944111BE0188
:101C6000695F7F4FCE0101960E945B1D62E375E0C4
:101C70000E94ED10BE01635F7F4F0E945B1DBC019F
:101C8000CE0143960E94271120E040E060E0CE01A3
:101C900043960E943E20CE0143960E947B20CE01B7
:101CA00001960E947B20CE0107960E947B20CE01E8
:101CB0000D960E947B2068960FB6F894DEBF0FBE8B
:101CC000CDBFDF91CF911F9108951F93CF93DF93E5
:101CD000CDB7DEB768970FB6F894DEBF0FBECDBFA5
:101CE0008DEB99E00E942520E0919A0511E11E9F5D
:101CF000F0011124EE5FFE4F6581CE0107960E9430
:101D0000221D6EE175E0CE0101960E944111BE01D7
:101D1000695F7F4FCE0101960E945B1DBC01CE0121
:101D20000D960E94271120E043E060E0CE010D9661
:101D30000E943E20CE010D960E947B20CE0101968E
:101D40000E947B20CE0107960E947B20E0919A059D
:101D50001E9FF0011124EE5FFE4F6681CE010796B3
:101D60000E94221D66E275E0CE0101960E9441119B
:101D7000BE01695F7F4FCE0101960E945B1DBC01D1
:101D8000CE010D960E94271120E043E06BE4CE01C6
:101D90000D960E943E20CE010D960E947B20CE0122
:101DA00001960E947B20CE0107960E947B20E09145
:101DB0009A051E9FF0011124EE5FFE4F678570E0CB
:101DC0006F5F7F4FCE010D960E946E1DE0919A05C8
:101DD0001E9FF0011124EE5FFE4F6089CE01079631
:101DE0000E94221D6DE275E0CE0101960E94411114
:101DF000BE01695F7F4FCE0101960E945B1D62E3C9
:101E000075E00E94ED10BE01635F7F4F0E945B1D75
:101E1000BC01CE0143960E94271120E040E060E023
:101E2000CE0143960E943E20CE0143960E947B2025
:101E3000CE0101960E947B20CE0107960E947B2056
:101E4000CE010D960E947B2060919A05CE010196ED
:101E50000E94221D23E042E067E3CE0101960E942A
:101E60003E20CE0101960E947B2068960FB6F89422
:101E7000DEBF0FBECDBFDF91CF911F91089540917E
:101E8000FF06509100072091FD063091FE06421793
:101E90005307B4F49091E8009570E1F39091E80055
:101EA00092FD19C08093F1008091FF069091000788
:101EB00001968F739927892B19F48EEF8093E80090
:101EC0008091FF0690910007019690930007809300
:101ED000FF0681E0089580E00895615030F0209180
:101EE000F100FC0120830196F8CF289884E68093C6
:101EF00002070895CF92DF92EF92FF920F931F9304
:101F0000CF93DF936C017A018B01C0E0D0E0CE1556
:101F1000DF0581F0D8016D918D01D601ED91FC9125
:101F20000190F081E02DC6010995892B11F02196D1
:101F3000EECF7E01C701DF91CF911F910F91FF90EE
:101F4000EF90DF90CF900895FC01538D448D252FA5
:101F500030E0842F90E0821B930B541710F0CF9643
:101F6000089501970895FC01918D828D981761F075
:101F7000828DDF01A80FB11D5D968C91928D9F5FC0
:101F80009F73928F90E008958FEF9FEF0895FC016B
:101F9000918D828D981731F0828DE80FF11D858D1E
:101FA00090E008958FEF9FEF0895FC01918D228DB1
:101FB000892F90E0805C9F4F821B91098F73992736
:101FC00008958EEF98E00E94D50F21E0892B09F447
:101FD00020E0822F0895FC01848DDF01A80FB11D40
:101FE000A35ABF4F2C91848D90E001968F7399274F
:101FF000848FA689B7892C93A089B1898C9182742A
:102000008C93938D848D981306C00288F389E02DFC
:1020100080818F7D80830895EF92FF920F931F93AD
:10202000CF93DF93EC0181E0888F9B8D8C8D98138B
:1020300005C0E889F989808185FD26C0F62E0B8DC3
:1020400010E00F5F1F4F0F731127E02E8C8DE812E9
:102050000CC00FB607FCFACFE889F989808185FFAB
:10206000F5CFCE010E94EB0FF1CF8B8DFE01E80F73
:10207000F11DE35AFF4FF0829FB7F8940B8FEA8966
:10208000FB898081806209C09FB7F894EE89FF893F
:102090006083E889F9898081827480839FBF81E0B1
:1020A00090E0DF91CF911F910F91FF90EF900895F5
:1020B000CF93DF93EC01888D8823C9F0EA89FB89EF
:1020C000808185FD05C0A889B9898C9186FD0FC0E6
:1020D0000FB607FCF5CF808185FFF2CFA889B989BB
:1020E0008C9185FFEDCFCE010E94EB0FE7CFDF9102
:1020F000CF91089580E090E0892B29F00E94E10FB4
:1021000081110C94000008950E944C320F931F938C
:10211000CF93DF93EC0188819981009729F02A8180
:102120003B812617370788F48B016F5F7F4F0E9432
:102130008631009761F0998388831B830A832C8101
:102140003D81232B11F4FC01108281E001C080E06D
:10215000DF91CF911F910F910895EF92FF920F930E
:102160001F93CF93DF936115710511F480E01CC0BC
:1021700041155105C1F07B01EC018C819D818A01E3
:10218000080F191FB801CE010E948610882371F331
:10219000288139818C819D81B701820F931F0E9414
:1021A0005A321D830C8381E0DF91CF911F910F91F3
:1021B000FF90EF900895CF93DF93EC018881998190
:1021C000009711F00E94FD30198218821D821C8236
:1021D0001B821A82DF91CF910895CF93DF93EC0198
:1021E0006115710561F0FB0101900020E9F731975D
:1021F000AF01461B570B0E94AD10811103C0CE01E9
:102200000E94DB10CE01DF91CF910895EF92FF92F3
:102210000F931F93CF93DF93EC017B018A01BA01E7
:102220000E948610811104C0CE010E94DB1007C0FD
:102230001D830C83B701888199810E945A32CE0197
:10224000DF91CF911F910F91FF90EF900895FB01C7
:10225000DC0111961C921E9213961C921E921297EC
:1022600015961C921E9214978617970749F0608165
:1022700071816115710521F0448155810C9406111D
:102280000895FC0111821082138212821582148239
:102290006115710551F0FB0101900020E9F73197BC
:1022A000AF01461B570B0C94061108958093E9006B
:1022B0008091F200882319F08AE38093E800089562
:1022C0001F920F920FB60F9211242F933F934F93AB
:1022D0005F936F937F938F939F93AF93BF93CF93AE
:1022E000EF93FF93C091E1008091E100837F8093A1
:1022F000E100C3FF0FC01092E90081E08093EB0082
:102300001092EC0082E38093ED001092480588E083
:102310008093F000C2FF19C083E00E9456118091A3
:102320000307882339F080910307815080930307C6
:10233000882389F180910207882339F08091020770
:10234000815080930207882341F1C4FF10C080911F
:10235000E2008E7E81608093E2008091E1008F7EBA
:102360008093E100809146058E7E806111C0C0FFA0
:1023700016C08091E2008E7E80618093E2008091A1
:10238000E1008E7E8093E100809146058E7E816023
:102390008093460504C05D9ACDCF289AD6CFFF9191
:1023A000EF91CF91BF91AF919F918F917F916F915D
:1023B0005F914F913F912F910F900FBE0F901F9003
:1023C0001895DF92EF92FF920F931F93CF93DF93B5
:1023D000D82E8A017B01E40EF51EEB01CE15DF0538
:1023E00071F0D7FE03C0FE01849101C088810E9474
:1023F0003F0F21968111F2CF8FEF9FEF01C0C801EF
:10240000DF91CF911F910F91FF90EF90DF90089592
:102410002FB7F89487708093E9009091E800892F96
:10242000807295FF04C09091F20080E4891B2FBF59
:1024300008957F928F929F92AF92BF92CF92DF9238
:10244000EF92FF920F931F93CF93DF93C82E8B01D0
:102450007A0180914805811103C08FEF9FEF74C00E
:102460008091460580FF05C08091E00082608093E6
:10247000E000CE2DDF2DD12C8AEFB82E8C2D877069
:10248000982E8C2D8072882E8C2D8074782E9AE355
:10249000A92E209719F4DD2009F451C08C2D0E943B
:1024A000081281110AC0BA94BB20B9F261E070E051
:1024B00080E090E00E94871FECCF282F30E0C21709
:1024C000D3070CF48C2F9FB7F8949092E9002091D9
:1024D000E80025FF32C0282F30E0C21BD30B882034
:1024E00029F08150A0F01092F100FBCFF801C7FE57
:1024F0000AC0815050F044914093F1003196F9CFD9
:1025000041914093F1008150D8F7020F131FDD2055
:1025100019F0A092E8000AC08091E80085FD08C08B
:10252000A092E800DD24D394209739F0D12C05C087
:10253000209719F47110A092E8009FBFAACF5D9870
:1025400084E680930307C701DF91CF911F910F911C
:10255000FF90EF90DF90CF90BF90AF909F908F90C3
:102560007F900895CF93DF93EC01809182038823BD
:1025700031F083E00E9419121816190634F081E038
:1025800090E09B838A8380E090E0DF91CF91089573
:1025900090914805992311F057FF03C08FEF9FEFEB
:1025A00008959FB7F89487708093E9002091F20016
:1025B00030E0421753070CF49A01822FFB0144E6E6
:1025C000815038F02898409302075091F1005193C0
:1025D000F7CF2115310521F08091F200882319F001
:1025E0009FBFC90108958BE68093E800F9CF9FB79C
:1025F000F89487708093E9008091F2009FBF08955E
:102600008091F50681110DC082E08093F10684E08F
:102610008093F2061092F4061092F30681E0809304
:10262000F50681EF96E008950F931F93CF93DF9304
:102630001F92CDB7DEB782E0898342E450E067EFB6
:1026400070E080E80E94E1110E940013DC01129604
:102650000D911C9113970115110589F0D801ED9189
:10266000FC910280F381E02DBE016F5F7F4FC801B6
:10267000099597FD04C0F80100851185ECCF89818B
:102680000F90DF91CF911F910F9108951F920F929C
:102690000FB60F921124CF92DF92EF92FF920F9319
:1026A0001F932F933F934F935F936F937F938F93DA
:1026B0009F93AF93BF93EF93FF93CF93DF93CDB7E8
:1026C000DEB76C97DEBFCDBF1092E9008091E800C5
:1026D00083FFFBC168E0CE0145960E946D0F82EF3B
:1026E0008093E8008D8987FF05C09091E80090FFF6
:1026F000FCCF03C09EEF9093E800982F907609F0EE
:10270000C6C09E894F89588D2F89F88C91110CC0B5
:10271000803829F4809147058093F10002C010921F
:10272000F1001092F10045C1913051F4811141C185
:102730004130510509F03DC1809147058D7F0BC0A7
:10274000933061F4811135C14130510509F031C137
:10275000809147058260809347052BC1953049F4ED
:102760008091E80080FFFCCF822F80688093E30097
:1027700020C1963009F05EC00B8D1C8D22E01092B6
:10278000E900109200071092FF06F21232C0109278
:10279000FE061092FD060E94141399E0BE016F5FC1
:1027A0007F4FDB01E92F1D92EA95E9F79983FA82C1
:1027B00091E09E8390EA98879AEF99872091FF068F
:1027C00030910007275F3F4F3C832B838D8310920E
:1027D000E900109200071092FF061093FE06009386
:1027E000FD0649E050E080E00E94E1110E941413D0
:1027F000E0C01093FE060093FD060E940013DC016A
:1028000012960D911C9113970115110509F4BBC087
:10281000D801ED91FC910480F581E02DBE016B5E45
:102820007F4FC8010995009709F0C7C0F8010085DE
:102830001185EACF973009F445C1983021F481E041
:102840008093F100B6C0993009F0B3C0837009F0ED
:1028500039C1E4E8F3E081E031E096E32081211121
:1028600009C08EE78093EA001092EA008F89809376
:1028700048059FC08093E9003093EB00219120939D
:10288000EC009093ED008F5F873041F7EACF8B8D9E
:102890009C8D1092E900109200071092FF06909311
:1028A000FE068093FD06898D811153C08E899D8916
:1028B000913A49F4813209F005C147E050E06BE7F5
:1028C00073E080E0BBC0913209F0FCC0833269F450
:1028D0008F89988DA0E0B0E0809377039093780380
:1028E000A0937903B0937A0364C0803269F4809135
:1028F000E80082FFFCCF67E08BE793E00E946D0F5A
:102900008BEF8093E80055C0823209F052C08F8966
:1029100080938203EEEFFFE7859194918B3F9C4D6E
:1029200019F0E0E0F8E002C0EEEFFAE080917B03FE
:1029300090917C03A0917D03B0917E03803B9440F5
:10294000A105B10509F09EC08091820380FF79C086
:1029500099C00E940013FC01028113810115110529
:1029600009F4B0C0D801ED91FC910190F081E02D07
:10297000BE016B5E7F4FC801099581111AC0F80135
:1029800000851185EBCFF1E0FF1609F44EC0F3E0AE
:10299000FF1298C08F89882309F44AC0823089F4D5
:1029A00040E860E18BE591E00E94102D882309F456
:1029B00089C08EEF8093E80088C018161906CCF302
:1029C00081C0813029F440E86BE08FE491E0ECCFE6
:1029D000833009F077C00E940013DC011296ED905D
:1029E000FC9013978E010F5F1F4F6801E114F104F3
:1029F00079F0D701ED91FC910680F781E02DB801C7
:102A0000C7010995080F111DF701E084F184EECF8D
:102A1000D8011C92F60101900020E9F73197BF011F
:102A20006C197D0940E0C601BFCF6DE371E002C0C3
:102A300069E371E0FB01449150E080E80E94E111FC
:102A4000B8CFEE3F2AE0F20751F0808191818737BD
:102A5000A7E79A0721F09093FF0A8093FE0A87E781
:102A600097E79183808380916000809301079BE0CA
:102A700088E10FB6F894A895809360000FBE9093FC
:102A8000600097CF808191818737974709F091CF78
:102A9000A895809160008861809360008091010713
:102AA00080936000EE3FBAE0FB0739F08091FE0AA8
:102AB0009091FF0A918380837CCF1092FF0A10923D
:102AC000FE0A77CF81E28093EB006C960FB6F89404
:102AD000DEBF0FBECDBFDF91CF91FF91EF91BF91D0
:102AE000AF919F918F917F916F915F914F913F91A6
:102AF0002F911F910F91FF90EF90DF90CF900F904B
:102B00000FBE0F901F9018951F920F920FB60F9245
:102B100011242F933F934F935F936F937F938F93E2
:102B20009F93AF93BF93EF93FF938EEF98E00E9434
:102B3000EB0FFF91EF91BF91AF919F918F917F919B
:102B40006F915F914F913F912F910F900FBE0F901A
:102B50001F9018951F920F920FB60F9211242F936A
:102B60008F939F93EF93FF93E0910E09F0910F09DC
:102B70008081E0911409F091150982FD12C09081C5
:102B8000809117098F5F8F7320911809821751F078
:102B9000E0911709F0E0E250F74F958F8093170905
:102BA00001C08081FF91EF919F918F912F910F90A4
:102BB0000FBE0F901F901895CF93DF931F92CDB744
:102BC000DEB76983DC01ED91FC910280F381E02D99
:102BD00041E050E0BE016F5F7F4F09950F90DF919C
:102BE000CF910895CF93DF93EC018D85882319F061
:102BF00081508D8711C09C818E81981768F48889D7
:102C00006827E881F9810084F185E02D42E0CE015A
:102C100009958C818F5F8C83DF91CF91089585ED2D
:102C20008093BC008091BC0084FDFCCF109297077C
:102C3000089540912407262F30E0240F311D2132C2
:102C40003105DCF4209197072430C9F4FC0180E0C1
:102C500090E0861758F4309124072191DC01AC5F95
:102C6000B84FA30FB11D2C930196F3CF8091240789
:102C7000680F6093240780E0089581E0089582E062
:102C80000895089508950895E091500780914F07A1
:102C9000E81730F4F0E0EF5AF84F808190E00895A3
:102CA0008FEF9FEF08959091500780914F079817ED
:102CB00050F4E92FF0E0EF5AF84F208130E09F5FA9
:102CC0009093500702C02FEF3FEFC9010895809104
:102CD0004F0790E020915007821B91090895CF92F1
:102CE000DF92EF92FF920F931F93CF93DF937C01BC
:102CF000CB018A0120919807222389F0EB016B0117
:102D0000C40ED51ECC15DD0569F06991D701ED9192
:102D1000FC910190F081E02DC7010995F3CF642F5C
:102D20000E941916C801DF91CF911F910F91FF905A
:102D3000EF90DF90CF900895CF93DF931F92CDB7A0
:102D4000DEB76983209198072223D1F02091BB0739
:102D5000203240F021E030E0FC013383228380E028
:102D600090E015C080919907E82FF0E0E656F84F03
:102D7000998190838F5F809399078093BB0705C0EB
:102D800061E0CE0101960E94191681E090E00F905B
:102D9000DF91CF91089580E090E0089580E008955C
:102DA000FC0182818F5BFB01808381E0089583E0D9
:102DB0000C94561183E00E94081290E008950F933E
:102DC0001F93CF93DF931F92CDB7DEB78C01FC0129
:102DD0008485958597FF12C041E050E0BE016F5F8A
:102DE0007F4F82E00E94C812019719F4898190E018
:102DF00002C08FEF9FEFF80195878487F8018485E3
:102E000095850F90DF91CF911F910F910895CF93EA
:102E1000DF931F92CDB7DEB7FC018485958597FDC2
:102E200005C02FEF3FEF358724870FC041E050E00A
:102E3000BE016F5F7F4F82E00E94C812019719F4B4
:102E4000898190E002C08FEF9FEF0F90DF91CF91CB
:102E50000895FC018485958597FD06C082E00E9457
:102E6000F71290E00196089582E00E94F71290E038
:102E7000089584E0E1E4F5E0DB0101900D928A958C
:102E8000E1F784E00895CF92DF92EF92FF920F93E3
:102E90001F93CF93DF93CDB7DEB7C456D1090FB6DA
:102EA000F894DEBF0FBECDBF6C01DB019C919E5F2D
:102EB0009C93FE01319684E6DF011D928A95E9F725
:102EC00088E089838BE08A8322E02C8391E09D83D4
:102ED0009E8339E0398774E07A879E879F873A8B93
:102EE00044E24B8B9C8B00E011E01E8B0D8B89E044
:102EF000E82EF12CF88EEF8A998F3B8F7C8F2F8FE5
:102F000098A353E059A387E08CA34DA39EA318A7D1
:102F10000FA301E410E01AA709A786E08BA74CA72E
:102F20002DA79EA79FA789AB4AAB2BAB2CAB2DAB94
:102F30003FAB48AF59AF9AAF5BAF9CAF2DAF9EAFE1
:102F400021963FAF219722964FAF229723965FAFEE
:102F5000239724962FAF249725967FAF2597269603
:102F60009FAF269727969FAF279728969FAF2897C2
:102F70002A963FAF2A9745E02B964FAF2B972D9679
:102F80002FAF2D9760E470E02F967FAF6EAF2F9735
:102F900063964FAF639785E264968FAF64976596AB
:102FA0009FAF659766969FAF669767969FAF679747
:102FB00068963FAF689769964FAF69976B962FAF4A
:102FC0006B976D967FAF6EAF6D97A1964FAFA19740
:102FD000A2968FAFA297A3969FAFA397A4969FAFF9
:102FE000A497A5965FAFA597D60112969C911297CC
:102FF0009B839B879F5F9A8F9D8F13968C912C96B6
:103000008FAF2C978F5F80686A968FAF6A9744E680
:1030100050E0BF0180E00E94E111CC59DF4F0FB6B4
:10302000F894DEBF0FBECDBFDF91CF911F910F91FE
:10303000FF90EF90DF90CF900895DC01ED91FC912F
:103040000084F185E02D40E00994FC01878186959C
:1030500086958695681740F465839385690F677038
:10306000606BCF010C941D1808950F931F93CF939D
:10307000FC0126816217A0F4C62F8C016483908521
:10308000C90F6C2F6F70CF010E941D186C2F6295B5
:103090006F706061C801CF911F910F910C941D1842
:1030A000CF911F910F910895CF92DF92EF92FF92EF
:1030B0000F931F93CF93DF93EC01F62EC42ED22EE5
:1030C0001D868F81869586958695081710F00FEFDF
:1030D000080F1D2D6F2DCE01011788F00E943518A5
:1030E000612FCE010E942518EF2CCE1430F0688994
:1030F000CE010E94F215E394F8CF1F5FEBCF0E9440
:1031000035186D2DCE01DF91CF911F910F91FF905A
:10311000EF90DF90CF900C9425182F923F924F9212
:103120005F926F927F928F929F92AF92BF92CF9257
:10313000DF92EF92FF920F931F93CF93DF93CDB760
:10314000DEB72A970FB6F894DEBF0FBECDBFDC0105
:103150001E962D913C911F972115310509F463C1ED
:103160009A878987F9013296449031967491E72EB7
:10317000F12CB7E0EB0EF11C93E0F594E7949A95EF
:10318000E1F7EA823196A4913196E4916A1758F0FA
:10319000462F50E08E2F90E0FC01EA0FF11D4E17F4
:1031A0005F070CF46AC06D3031F460E089859A8560
:1031B0000E9435183BC16A3009F035C160E089854D
:1031C0009A850E943518E985FA8501890E9DE02CC3
:1031D0001124278126952695269565816E0D8E2DC5
:1031E000821B860F9485992309F418C118160CF0D8
:1031F00015C1A985BA851B969C911B97890F87706D
:103200001B968C931B972E1915962C9315971E962B
:10321000ED91FC911F97309769F03396E491F0E0BF
:10322000379683E0F595E7958A95E1F70E9FE02DB7
:10323000112401C0E0E00FEF020F0E0FE985FA85BF
:10324000468141506481CF010E945418A985BA85F6
:103250001C968C911C97813009F0E8C01B966C91EC
:103260001B97660F660F660F6F731A966C931A970B
:103270006064CD010E941D18D9C0A9014A5F5F4F4B
:103280006A1BA985BA851996FC9119975196EC91FC
:10329000FE9FE02D1124E887F901A4913196249135
:1032A00030E03A2B2230310570F44E9CC0014F9C27
:1032B000900D1124689F8001699F100D1124040F47
:1032C000151F312C22C0777021F028E0322E371ADA
:1032D00001C0312CFA0120E0A0E0B0E0261731F067
:1032E0003491A30FB11D2F5F3196F8CFFA01E20F91
:1032F000F11D4490EA9E8001EB9E100DFA9E100D88
:103300001124080F191F040F151FA985BA851496DB
:10331000BC91BB83E985FA85F581FC83A985BA85D3
:103320001D96BC91BD83E42DF0E0FF83EE83812CDC
:10333000912CC12CD12CC982FA81CF1608F06DC016
:10334000212C36019FEF691A790AA985BA85519611
:103350008C915197281608F058C0ED811D96EC937A
:10336000F981F11102C0222079F0A985BA8515965C
:10337000BC901597B3946B81CD010E9435186B2DCD
:1033800089859A850E942518A12CB12CA41410F0CF
:10339000B12C2FC0F401EA0DFB1DE00FF11F54907A
:1033A000332061F0E614F70449F4E52DF0E0032C36
:1033B00002C0F595E7950A94E2F75E2EE985FA8555
:1033C0008189823069F4E52D2110E295EF70F0E0FB
:1033D000E459FE4F5490652D89859A850E94F21517
:1033E000652D89859A850E94F215FFEFAF1ABF0AF5
:1033F000CDCF8885B81639F060E089859A850E941E
:10340000F215B394F6CF2394A0CF9FEFC91AD90A2F
:10341000AE81BF818A0E9B1E8ECF6C8189859A8575
:103420000E94251803C080E090E002C081E090E097
:103430002A960FB6F894DEBF0FBECDBFDF91CF91B5
:103440001F910F91FF90EF90DF90CF90BF90AF90C2
:103450009F908F907F906F905F904F903F902F90B4
:1034600008951F920F920FB60F9211242F933F933E
:103470004F935F936F937F938F939F93AF93BF937C
:10348000EF93FF938091B900887F803609F49CC048
:1034900068F5883209F45BC090F4803109F454C0B7
:1034A00038F4882309F4F6C0883009F44DC0F6C01A
:1034B000883109F44CC0803209F45DC0EFC080341B
:1034C00009F468C048F4803309F455C0883309F022
:1034D000E5C080939507D8C0803509F44FC0883582
:1034E00009F45DC0883409F0D9C0D6C0883909F420
:1034F000C7C0A8F4883709F467C038F4883609F4DF
:1035000063C0803709F460C0C9C0883809F4B8C006
:10351000803909F45FC0803809F0C0C05BC0803BCF
:1035200009F486C038F4803A09F466C0883A09F490
:103530007FC0B4C0803C09F4A7C0883C09F4A4C093
:10354000883B09F48AC0AAC08091720710C090918C
:10355000940780919307981770F5E091940781E0A4
:103560008E0F80939407F0E0ED58F84F80818093A0
:10357000BB0085EC86C0809395078EC0E0919407D0
:1035800081E08E0F809394078091BB00F0E0ED58AE
:10359000F84F808390919407809193076EC0E091DB
:1035A000940781E08E0F809394078091BB00F0E038
:1035B000ED58F84F80838091960781116DC081E0AE
:1035C0008093710784EA61C083E08093970710922B
:1035D0004607CFCF80914607803208F051C0E09176
:1035E000460781E08E0F809346078091BB00F0E094
:1035F000EA5DF84F8083BDCF85EC8093BC001092CC
:10360000970780914607803230F4E0914607F0E05A
:10361000EA5DF84F10826091460770E0E09149053D
:10362000F0914A0586E297E009951092460736C068
:1036300084E0809397071092250710922407E09169
:103640004B05F0914C05099580912407811105C027
:1036500081E08093240710920407E091250781E020
:103660008E0F80932507F0E0EC5FF84F8081809308
:10367000BB009091250780912407981708F479CF13
:1036800085E88093BC000AC085EC8093BC00109252
:10369000970704C0109295070E940F16FF91EF91B3
:1036A000BF91AF919F918F917F916F915F914F915A
:1036B0003F912F910F900FBE0F901F901895DC0136
:1036C0008D919C91DC01ED91FC910190F081E02DB8
:1036D00009943FB7F89480914B0790914C07A091C3
:1036E0004D07B0914E0726B5A89B05C02F3F19F096
:1036F0000196A11DB11D3FBFBA2FA92F982F882772
:10370000820F911DA11DB11DBC01CD0142E0660FCC
:10371000771F881F991F4A95D1F70895CF93DF939C
:10372000CBE9D9E0998121E0209398079093BA07DB
:10373000109299071092BB07682F8CE098E00E94C6
:103740009C1681E00E948020888362E089810E942B
:10375000FE208CE098E00E945316D82F80E0C82FFE
:103760008CE098E00E9453168C2B9D2BDF91CF911B
:103770000895CF93DF93CBE9D9E0998121E020939D
:1037800098079093BA07109299071092BB07682F79
:103790008CE098E00E949C1681E00E948020888343
:1037A00061E089810E94FE208CE098E00E9453161F
:1037B000DF91CF9108950F931F93CF93DF93162F2F
:1037C000072FCBE9D9E0998121E0209398079093C6
:1037D000BA07109299071092BB07682F8CE098E007
:1037E0000E949C16602F8CE098E00E949C16612F2E
:1037F0008CE098E00E949C1681E00E9480208883E3
:10380000DF91CF911F910F9108958F929F92AF9268
:10381000BF92EF92FF920F931F93CF93DF937C01A0
:10382000EB0180E50E94B91B8F5F880F90E09983C0
:10383000888386E40E94B91B082F10E00F5F1F4F9A
:103840001D830C83A881B0E020E03FE24AE350E012
:103850000E94AD2F6C507E4F8F4F9F4F38EE832EBE
:1038600033E0932EA12CB12CA50194010E94F72FD7
:10387000D8010E94B82F6C507E4F8F4F9F4FA501EB
:1038800094010E94F72F2A873B874C875D8781E54B
:103890000E948E1B8C01112702C0000F111F9A95E8
:1038A000E2F70F5F1F4F1F830E83A881B0E020E077
:1038B0003FE24AE350E00E94AD2F6C507E4F8F4FA5
:1038C0009F4FA50194010E94F72FD8010E94AD2FB0
:1038D0006C507E4F8F4F9F4FA50194010E94F72F90
:1038E0002E873F87488B598B80E70E94B91B8F5FDB
:1038F000880F90E09B838A8381E70E948E1B9C0146
:10390000992702C0880F991F3A95E2F70196998787
:103910008887F7012381222331F02E813F81821B8A
:10392000930B99878887AA81B0E020E03FE24AE3C1
:1039300050E00E94AD2F6C507E4F8F4F9F4F28EE6E
:10394000822E23E0922EA12CB12CA50194010E947D
:10395000F72FA885B9850E94AD2F6C507E4F8F4FF1
:103960009F4FA50194010E94F72F2A8B3B8B4C8B14
:103970005D8BDF91CF911F910F91FF90EF90BF90E2
:10398000AF909F908F900895CF93DF93EC0181E0EB
:103990000E94B91B84FB992790F9988383FB992790
:1039A00090F99A8382FB992790F9998386FB99274E
:1039B00090F99B83881F8827881F8C83DF91CF9184
:1039C00008958F929F92AF92BF920F931F93CF93C0
:1039D000DF93CDB7DEB7A1970FB6F894DEBF0FBE69
:1039E000CDBF19A2423008F44AE08E010F5D1F4F8F
:1039F000842E912CA12CB12CA50194010E94F72FAB
:103A0000E62FB901CA0101501109EA3014F4E05D52
:103A100001C0E95CD801EC93232B242B252B61F703
:103A2000C8010E941320A1960FB6F894DEBF0FBE06
:103A3000CDBFDF91CF911F910F91BF90AF909F901D
:103A40008F900895EF92FF920F931F93CF93DF9380
:103A5000CDB7DEB729970FB6F894DEBF0FBECDBF46
:103A60008C01862FF8011182108213821282158236
:103A700014824AE09E012F5F3F4F7901B90190E027
:103A80000E94642FF70101900020E9F73197AF0100
:103A90004E195F09B701C8010E94061129960FB699
:103AA000F894DEBF0FBECDBFDF91CF911F910F9174
:103AB000FF90EF900895CF93DF93EC01FB014481D9
:103AC0005581608171810E94AD10811103C0CE01CA
:103AD0000E94DB10CE01DF91CF910895EF92FF920B
:103AE0000F931F93CF93DF93CDB7DEB762970FB6D7
:103AF000F894DEBF0FBECDBF8C01CB01F80111825F
:103B0000108213821282158214824AE09E012F5F76
:103B10003F4F7901B9010E94592FF7010190002010
:103B2000E9F73197AF014E195F09B701C8010E944B
:103B3000061162960FB6F894DEBF0FBECDBFDF91BF
:103B4000CF911F910F91FF90EF900895CF92DF9248
:103B5000EF92FF920F931F93CF93DF93CDB7DEB712
:103B600029970FB6F894DEBF0FBECDBF8091B00984
:103B70009091B109892B09F4BBC0C090B609D090CF
:103B8000B709E090B809F090B9090E94691B6C155B
:103B90007D058E059F0550F40E94691B6093B60950
:103BA0007093B7098093B8099093B9090E94691B73
:103BB0000091B6091091B7092091B8093091B9095F
:103BC000DC01CB01801B910BA20BB30B8C3291401B
:103BD000A105B10590F2F8948091AB099091AC09E0
:103BE0009A838983E091B009F091B109DF011196C0
:103BF000808189879091A709E091BA09F091BB096A
:103C00008091BC09992309F42EC09081982B988744
:103C10009081809589238F838F818C8388E08B832B
:103C200058856F8149853B812C8189819A81508398
:103C300047FD252F3A952083262F39F0441F00C0D9
:103C400000006083000000C0F2CF38E04D91608337
:103C50000000019761F7F093BB09E093BA09498727
:103C60003B832C8338C09081982B988790818095D6
:103C700089238F838F818E8388E08D8358856F8120
:103C800049853D812E8189819A81508347FD252F69
:103C900000C000C0208300C000C000C000C000C041
:103CA00060830000262F3A9541F0441F000000C0B9
:103CB00000C000C000C000C0E8CF38E04D9100C097
:103CC000608300C0019709F7F093BB09E093BA093C
:103CD00049873D832E839A83898378940E94691B48
:103CE0006093B6097093B7098093B8099093B909A6
:103CF00029960FB6F894DEBF0FBECDBFDF91CF91EE
:103D00001F910F91FF90EF90DF90CF9008951F9338
:103D1000CF93DF932150203118F587FF21C0D42F96
:103D2000162FC82F622F682B809158089091590840
:103D30000E945F1B612F6F778091580890915908FE
:103D40000E945F1BCF7EC03C59F06D2F6F77809132
:103D5000580890915908DF91CF911F910C945F1BE7
:103D6000DF91CF911F91089590E0FC013197EF30E2
:103D7000F105B0F5EA5AFF4F0C9450308091800065
:103D80008F7703C0809180008F7D8093800008959D
:103D900080918000877FF9CF84B58F7702C084B58A
:103DA0008F7D84BD0895809190008F7707C08091AA
:103DB00090008F7D03C080919000877F809390005A
:103DC00008958091C0008F7703C08091C0008F7DDF
:103DD0008093C00008958091C200877F8093C200C5
:103DE00008951F93CF93DF93282F30E0F901EA560F
:103DF000FE4F8491F901EB5EF14FD491F901EE5B36
:103E0000F14FC491CC23C1F0162F81110E94B41E32
:103E1000EC2FF0E0EE0FFF1FEC5CF14FA591B49199
:103E20009FB7F894111104C08C91D095D82302C08B
:103E3000EC91DE2BDC939FBFDF91CF911F91089512
:103E4000CF93DF9390E0FC01EB5EF14F2491FC01F6
:103E5000EE5BF14F8491882361F190E0880F991F08
:103E6000FC01E857FE4FC591D491FC01EC5CF14F89
:103E7000A591B491611109C09FB7F89488812095EC
:103E800082238883EC912E230BC0623061F49FB7AC
:103E9000F8948881322F309583238883EC912E2BE0
:103EA0002C939FBF06C08FB7F894E8812E2B2883F0
:103EB0008FBFDF91CF910895823108F08251E82FB2
:103EC000F0E0E458FE4FE49180917B00E3FB222771
:103ED00020F930E095E0220F331F9A95E1F78F7DAE
:103EE000282B20937B00E770E064E0937C008091B6
:103EF0007A00806480937A0080917A0086FDFCCFFE
:103F0000809178002091790090E0922B08958F9213
:103F10009F92AF92BF92CF92DF92EF92FF926B018E
:103F20007C010E94691B4B015C01C114D104E104B6
:103F3000F104F1F00E94691BDC01CB018819990999
:103F4000AA09BB09883E9340A105B10570F321E0A1
:103F5000C21AD108E108F10888EE880E83E0981EA5
:103F6000A11CB11CC114D104E104F10419F7DDCF87
:103F7000FF90EF90DF90CF90BF90AF909F908F9089
:103F800008952FB7F8946091470770914807809182
:103F9000490790914A072FBF0895682F616080E01C
:103FA0000E94DC200E94C11F7093A1096093A009A8
:103FB00083E10E94B91B8770B9F480919D099091AB
:103FC0009E09892BA9F30E94C11F2091A00930915D
:103FD000A109621B730B80919D0990919E09861720
:103FE000970730F780E0089561E08BE00E94DC20C5
:103FF00060E080E00E94DC2081E008959093CC098D
:104000008093CB09009741F0FC0124913196849173
:1040100090E0922B019721F081E08093C6090895EA
:104020001092C6090895009769F0FC0101900020E4
:10403000E9F73197AF01481B590BBC018CEB97E0B6
:104040000C94B21280E090E008950F93CF93DF9329
:10405000EC011B861A8660E40E941D180F810695EC
:104060000695069501504E81415020E060E0CE015A
:104070000E945418DF91CF910F910895FF920F93F2
:104080001F93CF93DF938C01F62ED42FC22F2130B4
:1040900059F038F0223059F02330A9F485EB91E043
:1040A0000DC08FE29CE00AC089EE96E002C08FE26C
:1040B0009CE00E94FE1FC093CE0905C00E94FE1F17
:1040C00081E08093CE096F2D8DEB99E00E94351829
:1040D0006D2F8DEB99E00E942518F80144815581E0
:1040E000608171818DEB99E0DF91CF911F910F91EC
:1040F000FF900C947A0FFC01808191810C94FD302B
:10410000282F3091BB07313208F04AC080919707C1
:104110008111FCCF9091BA0742E04093970720931A
:1041200096072FEF209395071092940730939307EB
:10413000EAE9F7E0A3E7B7E020E0321721F0419188
:104140004D932F5FFACF1092720720917207990F4B
:10415000922B9093720790917107913061F41092B5
:104160007107909172079093BB009091BC0093FDF2
:10417000F8CF95EC01C095EE9093BC009091970715
:104180009230E1F3909195079F3F79F080919507E8
:10419000803241F080919507803331F084E005C092
:1041A00081E003C082E001C083E010929907109281
:1041B000BB071092980708951F93CF93DF93162F94
:1041C000CBE9D9E0998121E0209398079093BA0731
:1041D000109299071092BB07682F8CE098E00E941C
:1041E0009C16612F8CE098E00E949C1681E00E9452
:1041F00080208883DF91CF911F9108959091970738
:104200009111FCCF613208F060E291E09093970742
:10421000909396072FEF2093950710929407260FFF
:10422000209393079093720790917207880F892BC0
:104230008093720780917107813061F41092710749
:10424000809172078093BB008091BC0083FDF8CF02
:1042500085EC01C085EE8093BC008091970781308A
:10426000E1F380919407861710F460919407E3E7D7
:10427000F7E0A1E5B7E080E0861721F091919D93EA
:104280008F5FFACF1092500780934F0708951F92C7
:104290000F920FB60F9211242F933F938F939F93FA
:1042A000AF93BF938091470790914807A09149072A
:1042B000B0914A073091D40923E0230F2D3720F421
:1042C0000196A11DB11D05C026E8230F0296A11D70
:1042D000B11D2093D4098093470790934807A0937A
:1042E0004907B0934A0780914B0790914C07A091E2
:1042F0004D07B0914E070196A11DB11D80934B074C
:1043000090934C07A0934D07B0934E07BF91AF9188
:104310009F918F913F912F910F900FBE0F901F9003
:104320001895CF93DF93CDB7DEB7C555D1090FB63A
:10433000F894DEBF0FBECDBF789484B5826084BD93
:1043400084B5816084BD85B5826085BD85B5816099
:1043500085BD80916E00816080936E001092810017
:1043600080918100826080938100809181008160D2
:104370008093810080918000816080938000809193
:104380009100826080939100809191008160809380
:104390009100809190008160809390008091C10095
:1043A00084608093C1008091C10082608093C100CD
:1043B0008091C10081608093C1008091C3008160C1
:1043C0008093C3008091C00082608093C000809180
:1043D000C20081608093C20080917A0084608093E3
:1043E0007A0080917A00826080937A0080917A00CE
:1043F000816080937A0080917A00806880937A004F
:104400001092480510924705109246058091D700FA
:1044100081608093D70080EA8093D80089B580615D
:1044200089BD89B5826089BD09B400FEFDCF61E018
:1044300070E080E090E00E94871F8091D8008F7C20
:1044400080618093D8008091E000807F8093E000BD
:104450008091E1008E7E8093E1008DE08093E20008
:10446000559A209A91E0909300018FE38093010187
:10447000E0915808F09159080190F081E02DA08951
:10448000B18922E02C93A485B5851C92A685B785B9
:104490008C93108EA489B58986E08C93A289B38908
:1044A0008C9180618C93A289B3898C9188608C9364
:1044B000A289B3898C9180688C930288F389E02D5E
:1044C00080818F7D808390935A0810925C081092AF
:1044D0005B081092630810926208109261081092B3
:1044E00060080FEF1FEF10936508009364081093A6
:1044F0006708009366080E94C11F6093F0087093DC
:10450000F1088093F2089093F3081092ED0810924E
:104510006A081092690810926B0810926C08109249
:10452000EF081092EE0880916808817082608160C7
:10453000809368081093C9070093C8078091AD095C
:104540009091AE0997FD08C061E00E94201F60E0D5
:104550008091AD090E94F11E81E08093A8096091CD
:10456000AF09653121F12091B0093091B109615055
:1045700031F070E08FEF94E10E94283002C060E0DB
:1045800070E0F9014091AB095091AC09CF01821B59
:10459000930B8417950740F44081469FC001479FC5
:1045A000900D11249193EECF85E18093AF0910E037
:1045B00020E040E060E0812F0E9438091F5F143046
:1045C000B9F70E94A61D61E08CE00E94201F61E007
:1045D00086E00E94201F60E085E00E94201F60E0CE
:1045E00086E00E94F11E61E08CE00E94F11E0E94B4
:1045F000BA0860939B0570939C0580939D059093EA
:104600009E0506E913E0F801F0800E5F1F4F61E0A0
:104610008F2D0E94201F60E08F2D0E94F11EF3E07D
:104620000E391F0781F71092500710924F07109212
:1046300099071092BB071092970781E08093960725
:104640001092710761E082E00E94F11E61E083E058
:104650000E94F11E8091B9008E7F8093B9008091F5
:10466000B9008D7F8093B90088E48093B80085E419
:104670008093BC0081E496E190934C0580934B05B8
:1046800082E496E190934A05809349051092D109FE
:104690008CE38093D0091092B9008CE08093B8002D
:1046A0001092C1091092C209E3EEF0E08591949155
:1046B000E82EE5EEF0E0F490E6EEF0E0E491E09331
:1046C000C309E7EEF0E0E491E093C409E8EEF0E01E
:1046D000E491E093C5098C01802F8E198F1548F461
:1046E000F80164918DEB99E00E941D180F5F1F4F38
:1046F000F3CF8DEB99E00E94252084EF91E0909319
:104700009E0980939D0980EC0E94B91B8E3EB1F0FA
:104710008DEB99E00E9425206EE074E0CE010196B9
:104720000E94411121E040E060E0CE0101960E942C
:104730003E20CE0101960E947B201EC489E80E9483
:10474000B91B682F616089E80E94DC2060E088E87E
:104750000E94DC2061E080E80E94DC2061E08FEFB5
:104760000E94DC2060E080E00E94DC2081E90E9461
:10477000B91B8093A20961E080E00E94DC2060E028
:104780008FEF0E94DC2060E080E80E94DC2080E661
:104790000E94B91B682F626180E60E94DC2060E203
:1047A00070E084E40E94DB1B6FEF81E00E94DC205C
:1047B00061E080E80E94DC2061E08FEF0E94DC2055
:1047C00060E080E00E94DC2066E08FEF0E94DC2049
:1047D00083E80E94B91B682F646083E80E94DC2094
:1047E00067E08FEF0E94DC2061E081E80E94DC201E
:1047F00061E080E80E94DC206BE684E90E94DC2016
:1048000060E083E80E94DC200E94C11F7093A10930
:104810006093A00983E80E94B91B811116C08091A2
:104820009D0990919E09892BA9F30E94C11F209197
:10483000A0093091A109621B730B80919D09909191
:104840009E098617970730F763CF61E083E80E94DF
:10485000DC2082E90E94B91BD82EF82FFF77EF2EBB
:1048600060E081E80E94DC2066E08FEF0E94DC209F
:1048700083E80E94B91B682F6B7F83E80E94DC20CD
:1048800061E08FEF0E94DC2061E080E00E94DC208C
:1048900060E08FEF0E94DC2060E080E80E94DC2076
:1048A00080919C0991E0909398078093BA071092A9
:1048B00099071092BB0760EB8CE098E00E949C1671
:1048C00081E00E94802080939B0966E080919C0992
:1048D0000E94FE208E01055B1F4F580197E0F92EC4
:1048E000FA94FF2041F08CE098E00E945316F50105
:1048F00081935F01F5CF61E08FEF0E94DC2060E0E3
:104900008FE40E94DC206CE28EE40E94DC2060E0F8
:104910008FEF0E94DC2064EB86EB0E94DC20D7FC4A
:1049200002C060E001C06CE090E080E041E050E057
:10493000282F269526952695782F7770F801E20F77
:10494000F11D861710F0E9120AC09A0101C0220F6A
:104950007A95EAF7209530812323208309C02081AE
:1049600030E002C0359527957A95E2F720FD9F5FEC
:104970008F5F8033E9F680919C0991E090939807CE
:104980008093BA07109299071092BB0760EB8CE0F6
:1049900098E00E949C1687E0F82EFA94FF2041F0E0
:1049A000F80161918F018CE098E00E949C16F5CF90
:1049B00081E00E94802080939B0961E08FEF0E943C
:1049C000DC2060E080E00E94DC2060E08FEF0E944D
:1049D000DC2060E089E00E94DC2060E080E10E9451
:1049E000DC2060E081E10E94DC2061E084E20E9442
:1049F000DC206FEF85E20E94DC2060E085E70E940A
:104A0000DC2061E08FEF0E94DC206CE28EE40E94EB
:104A1000DC2060E088E40E94DC2060E280E30E9409
:104A2000DC2060E08FEF0E94DC2069E080E30E94E0
:104A3000DC2060E084E50E94DC2064E081E30E94E9
:104A4000DC2063E082E30E94DC2063E880E40E94D3
:104A5000DC2065E286E40E94DC2060E080E60E94C3
:104A6000DC2060E087E20E94DC2066E080E50E94B6
:104A7000DC2060E081E50E94DC2066E982E50E949E
:104A8000DC2068E086E50E94DC2060E387E50E9488
:104A9000DC2060E081E60E94DC2060E082E60E948B
:104AA000DC2060E084E60E94DC2060E085E60E9475
:104AB000DC2060EA86E60E94DC2061E08FEF0E9445
:104AC000DC2062E382E20E94DC2064E187E40E9451
:104AD000DC206FEF89E40E94DC2060E08AE40E9421
:104AE000DC2060E08FEF0E94DC206AE08AE70E9411
:104AF000DC2060E08BE70E94DC2061E288E70E9416
:104B0000DC2061E08FEF0E94DC2064E383E20E94FE
:104B1000DC2060E082E40E94DC206FEF84E40E94ED
:104B2000DC2066E285E40E94DC2065E086E40E94E9
:104B3000DC2060E480E40E94DC2066E08EE00E94DD
:104B4000DC206AE180E20E94DC2060E483E40E94D1
:104B5000DC2060E08FEF0E94DC2063E084E30E94B1
:104B6000DC2064E485E30E94DC2061E08FEF0E949A
:104B7000DC2064E081E30E94DC2069E08BE40E9499
:104B8000DC2065E08CE40E94DC2064E08DE40E947F
:104B9000DC2060E08FEF0E94DC2060E084E40E9473
:104BA000DC2060E285E40E94DC2068E087E40E946B
:104BB000DC2068E288E40E94DC2060E087E60E9456
:104BC000DC2064E080E70E94DC2061E081E70E9455
:104BD000DC206EEF82E70E94DC2060E086E70E9426
:104BE000DC2060E087E70E94DC2061E08FEF0E941C
:104BF000DC2061E08DE00E94DC2060E08FEF0E940D
:104C0000DC2061E080E80E94DC2068EF81E00E9407
:104C1000DC2061E08FEF0E94DC2061E08EE80E94E2
:104C2000DC2061E080E00E94DC2060E08FEF0E94E9
:104C3000DC2060E080E80E94DC2064E08AE00E94E2
:104C4000DC2084E80E94B91B682F6F7E84E80E94F4
:104C5000DC2061E08BE00E94DC20CE018F5A9F4F68
:104C60000E94C41CBE016F5F7F4FCE018F5A9F4FC1
:104C70000E94051C62968FAD6297882349F08B8550
:104C80009C85AD85BE858C57924FAF4FBF4F04C0FA
:104C900086E39BE0A0E0B0E064962FAD649722230A
:104CA00069F04B855C856D857E854E545D4F6F4FF9
:104CB0007F4F440F551F661F771F0DC063962FADA2
:104CC0006397222361F04B855C856D857E854C560C
:104CD0005D4F6F4F7F4F840F951FA61FB71F6596BF
:104CE0002FAD6597222361F04F85588969897A89AC
:104CF0004C565D4F6F4F7F4F840F951FA61FB71FF8
:104D000066962FAD6697222361F04B895C896D8989
:104D10007E894A5D5D4F6F4F7F4F840F951FA61FA1
:104D2000B71F8093A3099093A409A093A509B093FA
:104D3000A60968EE81E00E94DC20C090A309D09013
:104D4000A409E090A509F090A609F0E2CF16FEE4D0
:104D5000DF06E104F10408F4D0C0CE018F5A9F4F62
:104D60000E94C41CBE016F5F7F4FCE018F5A9F4FC0
:104D70000E94051C62968FAD6297882349F08B854F
:104D80009C85AD85BE858C57924FAF4FBF4F04C0F9
:104D900086E39BE0A0E0B0E064962FAD6497222309
:104DA00069F04B855C856D857E854E545D4F6F4FF8
:104DB0007F4F440F551F661F771F0DC063962FADA1
:104DC0006397222361F04B855C856D857E854C560B
:104DD0005D4F6F4F7F4F840F951FA61FB71F6596BE
:104DE0001FAD6597112361F04F85588969897A89CC
:104DF0004C565D4F6F4F7F4F840F951FA61FB71FF7
:104E000066962FAD6697222309F477C02C013D01E9
:104E100026E2420E22E0521E611C711CC414D5040D
:104E2000E604F70408F469C0AB81B0E020E03FE29B
:104E30004AE350E00E94AD2F4B015C0134EF830E3A
:104E400031E0931EA11CB11CA7019601241935095C
:104E500046095709A8EEB3E00E94AD2F2B013C0193
:104E6000C501B40120ED37E040E050E00E94F72F8B
:104E7000420E531E641E751EC501B40128EE33E0B8
:104E800040E050E00E94F72FC301B2010E94F72FCB
:104E9000112331F08F819885280F391F411D511D35
:104EA0002115310541055105D9F089019A010150BB
:104EB00011092109310960E070E0D901C801882792
:104EC000892B8A2B8B2B39F03695279517950795CB
:104ED0006F5F7F4FF2CF762F6627602B712B02C05A
:104EE00060E070E081E70E94DB1BC092A309D092D2
:104EF000A409E092A509F092A60961E081E00E9470
:104F0000DC2080E40E94CD1F882309F401CC62E0FC
:104F100081E00E94DC2080E00E94CD1F882309F4FC
:104F2000F7CB68EE81E00E94DC2061E080E80E941F
:104F3000DC2061E08FEF0E94DC2060E080E00E94D6
:104F4000DC206091A20981E90E94DC2061E080E020
:104F50000E94DC2060E08FEF0E94DC2060E080E8AF
:104F60000E94DC2062E080E00E94DC209091000141
:104F7000E2E0F1E080E001C0FFCF9787808B8F5F98
:104F800071968532D1F760E274E0CE0101960E94FD
:104F9000411123E041E06AE0CE0101960E943E20EB
:104FA000CE0101960E947B2064EF71E080E090E0EA
:104FB0000E94871F6FE274E0CE0101960E944111AA
:104FC00020E043E060E0CE0101960E943E20CE0149
:104FD00001960E947B2068EC70E080E090E00E94E7
:104FE000871F6BE374E0CE0101960E94411120E01F
:104FF00043E064E6CE0101960E943E20CE01019678
:105000000E947B2068EE73E080E090E00E94871FA2
:1050100080911B088F5F0E9456118DEB99E00E94D2
:1050200025201E0141E4240E311CEE24EA9453E0B5
:10503000F52E6FE7462E512C612C712C0E94C11F5A
:105040004B015C016093ED067093EE068093EF06D2
:105050009093F00643EAC42E45E0D42E00E010E021
:1050600000FF02C061E001C060E088E00E94F11E24
:1050700001FF02C061E001C060E089E00E94F11E12
:1050800002FF02C061E001C060E08AE00E94F11E00
:10509000C80133E0959587953A95E1F7892B11F092
:1050A00061E001C060E08BE00E94F11E61E070E011
:1050B00080E090E00E94871F82E10E945C1FF60161
:1050C000819391936F0183E10E945C1FF601978F9A
:1050D000868F0F5F1F4F0031110511F60E94BA082D
:1050E00060939B0570939C0580939D0590939E050E
:1050F000C501B4010E9420080E94C11F7093A1093C
:105100006093A00983E10E94B91B8770E1F480914C
:105110009D0990919E09892BA9F30E94C11F20919E
:10512000A0093091A109621B730B80919D09909198
:105130009E098617970730F781E080939F09CC245A
:10514000CA94DC2C09C08EE10E948E1B8C0161E0A8
:105150008BE00E94DC206801860106541109083E9C
:10516000F3E01F0784F50115110569F160919F05B2
:105170007091A0058091A1059091A20528E030E0F2
:1051800040E050E00E948E2FA7E0B0E00E94AD2FDB
:1051900017FF02C0095F1F4F23E0159507952A9559
:1051A000E1F7012E000C220B330BDC01CB01800F49
:1051B000911FA21FB31F80939F059093A005A093FA
:1051C000A105B093A20580919F0910929F098823A1
:1051D000B9F060E474E0CE0101960E94411121E033
:1051E00040E060E0CE0101960E943E20CE01019693
:1051F0000E947B2064EF71E080E090E00E94871FB6
:1052000022EB33E0AE014F5F5F4F6A01DE0159963A
:10521000CA01F90141919F01E42FF0E0EE0FFF1F59
:10522000ED55FA4F40815181FC0141935193CF01DB
:10523000EA17FB0771F78EE993E0FC012191CF019A
:10524000E22FF0E0EE0FFF1FED55FA4F2081318184
:105250004FEF53E0421B530B4D935D932A163B06D1
:1052600061F784E10E945C1FF701E81BF90BCF0195
:10527000F1019183808385E10E945C1F9701281BC7
:10528000390B25963FAF2EAF259786E10E945C1F14
:10529000A701481B590B27965FAF4EAF279787E1B1
:1052A0000E945C1FF701E81BF90B2996FFAFEEAFD8
:1052B000299780919F059091A005A091A105B0919B
:1052C000A205B7FD0CC08139F1E09F07A105B1052A
:1052D00024F080E991E0A0E0B0E09C0102C020E071
:1052E00030E0A1E0BCEF0E94563020E931E040E020
:1052F00050E00E948E2FDA01C90181509C4FAF4FC0
:10530000BF4F2B969FAF8EAF2B9702E011E0B12CD1
:10531000AA24A394F8011482F601219131916F011E
:10532000F80180819181A901481B590BCA0157FFDF
:1053300003C091958195910940970CF44CC0F801F8
:1053400031832083A1E8BFEF0E9456302FEF33E076
:1053500040E050E00E948E2FCA01B90161587F4F92
:105360008F4F9F4FF80173836283A48247858089A2
:105370000E943B0AB0929A0580919705882321F0FC
:10538000F8018281858307C080918C05882329F0EC
:10539000F80182818683A092EB06F80183859485CB
:1053A000092E000CAA0BBB0B4781508561857285C5
:1053B000840F951FA61FB71F4091ED065091EE0672
:1053C0006091EF067091F006481759076A077B074E
:1053D00010F482818587B3940F5E1F4FF5E2BF12F0
:1053E00099CF8091250881110FC0809153058823A2
:1053F00009F4E3C081E08093250880919A058093A9
:105400002C080E947D0AD9C080912608811131C0E4
:1054100080918A05882391F0809124088F5F809382
:10542000240890E02091270830E0215031098217AC
:10543000930714F0109224080E947D0A809195052C
:10544000882371F0809124088150809324088F3F35
:1054500029F4809127088150809324080E947D0AB6
:1054600080915305882309F48CC081E0809326083D
:1054700086C080912408882319F08130E9F179C031
:10548000809195058823D9F0E0912C082E2F30E0EB
:1054900041E1E49FF0011124EE5FFE4F80898823F3
:1054A00011F0815001C08FE791E1929FF001939F2D
:1054B000F00D1124EE5FFE4F808B0E947D0A8091DB
:1054C0008A05882309F455C0E0912C082E2F30E07E
:1054D00051E1E59FF0011124EE5FFE4F80898F5F5F
:1054E00087FD80E091E1929FF001939FF00D1124E0
:1054F000EE5FFE4F808B3BC0809195058823D9F0ED
:10550000E0912C082E2F30E081E1E89FF00111247A
:10551000EE5FFE4F8785882311F0815001C08FE038
:1055200091E1929FF001939FF00D1124EE5FFE4FE9
:1055300087870E947D0A80918A058823D1F0E091B7
:105540002C082E2F30E091E1E99FF0011124EE5F4D
:10555000FE4F87858F5F8F3008F080E091E1929F4A
:10556000F001939FF00D1124EE5FFE4F87870E949C
:105570007D0A80915305882321F0109226080E940D
:105580007D0A0E94C11F00912808109129082091CE
:105590002A0830912B08DC01CB01801B910BA20B58
:1055A000B30B89389341A105B10538F01092250855
:1055B0001092260881E08093EB06F8E5CF2EF5E007
:1055C000DF2E10E099249394A9E0BA2EF60186818B
:1055D000882309F443C080912508811139C0A09027
:1055E0000101009100010F5F202F4A2D612F80E9FA
:1055F0000E94871EB98200690A831B83AC82809156
:105600001B0844E050E0BE016F5F7F4F8F5F0E9438
:10561000191261E070E080E090E00E94871F009125
:1056200000010F5F202F40E0612F80E90E94871E5C
:10563000B98200690A831B831C8280911B0844E0A5
:1056400050E0BE016F5F7F4F8F5F0E94191206C04E
:1056500010922508109226089092EB061F5FFBE03F
:10566000CF0ED11C143009F0B1CFE7E7CE2EE3E026
:10567000DE2E02E011E0F8018481882311F185809B
:10568000912CA12CB12C2681822F90E0A0E0B0E0DB
:105690009C01AD01281939094A095B09A281B3812E
:1056A0000E94B82FA30192010E948E2FCA01B90156
:1056B000680D791D8A1D9B1DF801478580890E9410
:1056C0003B0A0F5E1F4FC016D106A9F68EEF98E079
:1056D0000E94D50F892BC1F08EEF98E00E94D50F64
:1056E000892B51F08EEF98E00E94B30F682F8EEF58
:1056F00098E00E940C10F0CF2FEF40E060E080E0D7
:105700000E9438090E94A61D8091E3069091E4064C
:10571000A091E506B091E6064091E7065091E806B3
:105720006091E9067091EA06841B950BA60BB70BF6
:105730008F739927AA27BB27892B8A2B8B2B09F0DC
:105740005FC080911B080E94F712882309F46CC087
:105750008090E3069090E406A090E506B090E606FF
:10576000FFEF8F1A9F0AAF0ABF0A2FE38222992404
:10577000AA24BB248091E7069091E806A091E9064F
:10578000B091EA0688159905AA05BB05C9F1809173
:105790001B080E94F71244E050E0BE016F5F7F4F8C
:1057A00080911B080E94C812049754F18091E3066F
:1057B0009091E406A091E506B091E606880F991F46
:1057C000880F991FFC01ED51FA4F49815A816B8175
:1057D0007C8140835183628373838092E30690923D
:1057E000E406A092E506B092E6063FEF831A930A1C
:1057F000A30AB30A4FE384229924AA24BB24BACF74
:105800008091E7069091E806A091E906B091EA063A
:10581000880F991F880F991FFC01ED51FA4F608185
:10582000D1800281138104C010E000E0D12C60E03F
:105830008090E3069090E406A090E506B090E6061E
:105840008091E7069091E806A091E906B091EA06FA
:1058500088169906AA06BB06B9F08091E7069091D2
:10586000E806A091E906B091EA060196A11DB11DD6
:105870008F739927AA27BB278093E7069093E806A2
:10588000A093E906B093EA06662381F170E080E018
:1058900090E04AE00E94E11C80E395E00E94132022
:1058A0006D2D70E080E090E04AE00E94E11C80E312
:1058B00095E00E941320602F70E080E090E04AE0C5
:1058C0000E94E11C80E395E00E941320612F70E0AC
:1058D00080E090E04AE00E94E11C80E395E00E94B5
:1058E000132084E594E00E9413200ECF86E6882ED4
:1058F00083E0982EE2E0F1E020E030E096E0A92E8F
:10590000B12CCC24CA94D12C82819381B5010E9400
:105910003C30CB010FEF10E0B6010E943C30820F0B
:10592000931FB6010E943C309C0171968E169F0613
:1059300059F7C296B8010E943C306C012FEF4FEF2F
:10594000682F80E00E943809C6010A96B8010E94BB
:105950003C302FEF4FEF682F83E00E943809C601DB
:105960004E96B8010E943C302FEF4FEF682F82E037
:105970000E943809C6018896B8010E943C302FEF7A
:105980004FEF682F81E00E9438090E94A61D809188
:105990002508811137C080919A059091EC068913F2
:1059A00004C09091EB069923A1F08093EC068091BE
:1059B0009705882319F00E949C0D09C080918C05E1
:1059C000882319F00E94D30C02C00E94650E109229
:1059D000EB0680919505882319F00E949C0D12C05A
:1059E00080919605882319F00E94650E0BC0809166
:1059F0008A05882319F00E94D30C04C080918B057E
:105A00008111F2CF80911B088F5F0E94561165E0D3
:105A100070E080E090E00E94871F0E947A100ECB19
:105A2000DF92EF92FF920F931F93CF93DF93D82EC5
:105A3000F92EE42E062F10E0C8010196880F0E946F
:105A40003F0F83E00E943F0FCD2DDF2D0C0F1D1F58
:105A5000C017D10789F0E7FE03C0FE01849101C0A1
:105A600088810E943F0FF82E80E00E943F0F8F2117
:105A700021968111EDCF01C081E0DF91CF911F917F
:105A80000F91FF90EF90DF9008958091B009909171
:105A9000B1090E94FD308091AD099091AE0997FD4A
:105AA00003C060E00C94201F089510920109109229
:105AB000000988EE93E0A0E0B0E0809302099093A3
:105AC0000309A0930409B093050922EC33E0309355
:105AD000FF082093FE082DEC30E030930B09209353
