:100000000C9441070C9469070C9469070C946907D8
:100010000C9469070C9469070C9469070C946907A0
:100020000C9469070C9469070C94D5120C94A514D0
:100030000C9469070C9469070C9469070C94690780
:100040000C9469070C9469070C9469070C94690770
:100050000C9469070C9469070C9469070C94DC22D2
:100060000C9469070C9409170C94E3160C94690717
:100070000C9469070C9469070C9469070C94690740
:100080000C9469070C9469070C9469070C94690730
:100090000C94181B0C9469070C9469070C9469075D
:1000A0000C9469070C9469070C946907FA2B3A2C95
:1000B000832CC72CD92CE72C672D780CBC0CD40CC6
:1000C000D70CE10CE40CE70C332036202520292046
:1000D0002F205720572057203A203E2042204820EA
:1000E0004C2057205220AED580A81FD300408D143D
:1000F0002002A1C8DA02817FD9F1DB40A4A6AFE6D5
:100100000019802000000000002300260029002C98
:10011000002F00080B000202020100090400000188
:10012000020200000524001001052401010104243D
:10013000020605240600010705810310004009049A
:100140000100020A00000007050202400000070546
:1001500083024000000403090412010002EF0201BF
:100160004041233680000101020301417264756938
:100170006E6F204C4C430041726475696E6F204C69
:10018000656F6E6172646F0000030C0F30333C3F8B
:10019000C0C3CCCFF0F3FCFF070605040100080A3A
:1001A0000B0C0D0900000000240027002A002D0080
:1001B00030000000000200090F0000030401000CE1
:1001C000000000000000000000000000000000002F
:1001D0000022080D0E20600402050607080902032C
:1001E00003050802040204070407070707070707B7
:1001F000070202070707080E090808080707090889
:10020000020708070B0809070909070808090D076D
:10021000080804040406080307070607070507077C
:10022000020306020A0707070705060507070B066C
:10023000070505010507080000000000000000FE9A
:10024000FE18181E1E001E1E000000000090F89EE2
:1002500090F89E1C00001C0000183C26FF66CC880D
:10026000040C183C180C041C221CC0308E4080006A
:10027000001804000C100C80CC7E72F2DE0C8000A2
:100280000C1C1010101C0C1C101E1E0000F0FC0694
:100290001C7CC006FCF0C07C1C14140E141400005E
:1002A000000000606060FCFC6060600000000C0CFE
:1002B00000000000005838C0C0C0C00000000000AE
:1002C00000181800C0380618040000F8FC0E060ECE
:1002D000FCF8040C1C181C0C04180CFEFE00001C7E
:1002E0001C181C86C6663E1C181C1C18181818887A
:1002F0008C062626FEDC040C1C18180C04C0E0B882
:100300008CFEFE80040404041C1C04707E3E363601
:10031000F6C60C1C1818180C04F8FC6E6666EECCB9
:10032000040C1818181C0C060606E6761E060000BB
:100330001C1C0000009CFE666666FE9C0C1C1818C7
:10034000181C0C3C7E666666FCF80C1C18181C0C0D
:100350000418181818181858386060F0F098980C9D
:100360000000000004040CD8D8D8D8D8D8D8000091
:1003700000000000000C9898F0F060600C0404008D
:10038000000000080C06C6E6763C180000001818AD
:10039000000000E03008C4F63A1A1AF2FA7E0408A7
:1003A000F00C30604C9C98988C9C9C90484C2000A1
:1003B000C0F8BE86BEF8C000181C04040404041C67
:1003C00018FEFE66666666FEDC1C1C181818181CF3
:1003D0000CF8FC0E06060E9C08040C1C18181C0CCD
:1003E00004FEFE0606060EFCF81C1C1818181C0C51
:1003F00004FEFE66666666661C1C1818181818FE51
:10040000FE66666666061C1C0000000000F8FC0E16
:100410000606C6CEDCC8040C1C181818180C04FEFE
:10042000FE60606060FEFE1C1C000000001C1CFEE4
:10043000FE1C1C8080000000FEFE0C1C1818181CFE
:100440000CFEFE603078EC86021C1C000000041CD0
:1004500018FEFE00000000001C1C1818181818FEDA
:10046000FE0E7CE000E07C0EFEFE1C1C00000C1C5E
:100470000C00001C1CFEFE1C78E080FEFE1C1C0014
:1004800000040C1C1CF8FC0E0606060EFCF8040CFE
:100490001C1818181C0C04FEFE6666667E3C1C1CAC
:1004A0000000000000F8FC0E0686060EFCF8040CA6
:1004B0001C18181C0C1C24FEFE6666E6E6BE1C001A
:1004C0001C1C0000000C1C18103C7E666666EECCFE
:1004D0000C1C1818181C0C060606FEFE0606060064
:1004E00000001C1C000000FEFE00000000FEFE04D8
:1004F0000C1C18181C0C04021EFCE000E0FC1E0280
:100500000000001C1C1C00000006FEF800F0FE0E9F
:10051000FEF000F8FE0600001C1C1C0000001C1C65
:100520001C0000060EF8F0F80E06181C0400041C4F
:1005300018060E38F0F0380E060000001C1C0000F3
:1005400000060686E6761E0E06181C1C18181818DB
:1005500018FEFE0606FCFCC0C00638C00000000401
:10056000180606FEFEC0C0FCFC20380E0E38200027
:1005700000000000000000000000000000808080FB
:1005800080808080800206040000001098D858F80F
:10059000F0000C1C18180C1C10FEFE301838F0E08F
:1005A0001C1C0C181C0C04E0F018183830040C1833
:1005B000181C0CE0F0381830FEFE040C1C180C1C43
:1005C0001CE0F0D8D8D8F0E0040C18181818081857
:1005D000FCFE1A1A001C1C0000E0F0381830F8F875
:1005E00064ECDCD8CCFC7CFEFE301818F8F01C1C47
:1005F0000000001C1CFAFA1C1C00FAFAC0FC7CFE6D
:10060000FEE0F098081C1C00041C18FEFE1C1CF8E0
:10061000F81018F8F01818F8F01C1C00001C1C004A
:10062000001C1CF8F8301818F8F01C1C0000001C06
:100630001CE0F0381838F0E0040C1C181C0C04F80E
:10064000F8301838F0E0FCFC0C181C0C04E0F03812
:100650001830F8F8040C1C180CFCFCF8F8301818CA
:100660001C1C00000070F8D8D8D890081818181C66
:100670000C18FCFE1818000C1C1818F8F8000000E4
:10068000F8F80C1C18180C1C1C38F8C000C0F838FE
:1006900000001C1C1C000018F8E000F038F000E01E
:1006A000F81800001C1C0C000C1C1C00001838E082
:1006B000E03818181C04041C1818F8E000E0F818BA
:1006C0000084FCF83C04001898D878381C1C1818D2
:1006D0001880FC7E0606007CFCC0C0FEFC06067E80
:1006E000FC80C0C0FC7C0060303070606030000076
:1006F0000000000000FE020202020202FE1C1010B6
:10070000101010101C0000070E20600000000000F8
:100710000000000000000000000000FC00000000DD
:1007200000000D00000000003C003C000000000044
:10073000000000000020F82020F82000010701013F
:100740000701006090F89010000004040F040300FB
:100750000018249860100C000C02010609060030F5
:10076000C8C8300000000708080906090000003C5E
:1007700000000000000000000000000000E018047D
:1007800002000000030C102000020418E00000002A
:1007900020100C0300000080A0C0C0A08000000258
:1007A0000101020000808080F0808080000000074E
:1007B0000000000000000000000020180C040000F1
:1007C0000080808080808000000000000000000029
:1007D00000000000000000081C080000000000806D
:1007E0006018060018060100000000F008844408A4
:1007F000F00003040808040300201008FC000000B7
:100800000000000F000000180404844438000C0AA3
:1008100009080808000804444444B8000608080809
:1008200008070080601804FC0000010101010F01AD
:10083000007C24242424C40006080808080700F8C3
:100840008444444488000708080808070004040496
:10085000C4340C00000C0300000000B844444444BD
:10086000B800070808080807007884848444F80062
:100870000408080808070000207020000000000895
:100880001C080000000020702000000020180C044C
:100890000000008040201008000000010204080051
:1008A00000404040404040000202020202020000BC
:1008B0000810204080000008040201000004844465
:1008C00024180000000D0000000000F008C42424DB
:1008D000F8000304090A0A0300F884848484F800F9
:1008E0000F000000000F00FC4444447880000F0813
:1008F0000808080700F8040404041800070808089A
:10090000080600FC04040408F0000F0808080403AB
:1009100000FC4444444404000F080808080800FC94
:100920004444444404000F000000000000F80404A4
:100930008484980007080808080700FC40404040ED
:10094000FC000F000000000F000404FC0404000081
:1009500008080F080800000000040404FC00060852
:100960000808080700FC4020D00804000F00000021
:10097000030C00FC0000000000000F080808080835
:1009800000FC1860806018FC0F00000100000FFCE4
:1009900018608000FC000F000001060F00F804043E
:1009A0000404F80007080808080700FC848484840D
:1009B00078000F000000000000F804040404F800B0
:1009C0000708080E181700FC8484848478000F0040
:1009D000010204080038444484840800040808081C
:1009E000080700040404FC0404040000000F0000D5
:1009F00000FC00000000FC0007080808080700FCD5
:100A000000000000FC0000030C0C030000FC0000D0
:100A1000C00000FC030C0300030C030C30C0C0300A
:100A20000C000C030000030C003C408080403C00A4
:100A30000000000F00000004048444340C000C0A81
:100A400009080808000000FE0202020000003F2022
:100A50002020000618608000000000000001061839
:100A600000020202FE0000002020203F00000010D3
:100A7000080404081000000000000000000000004E
:100A8000000000002020202020200000040C18205E
:100A900000000000000000000000A0A0A0A0C00016
:100AA00007080808040F00FC40202020C0000F04A5
:100AB0000808080700C02020202040000708080878
:100AC000080400C020202040FC0007080808040F8C
:100AD00000C020202020C000070909090909008062
:100AE000F88484840800000F0000000000C020206B
:100AF0002040E00023444444423F00FC40202020AA
:100B0000C0000F000000000F00002020EC000000DB
:100B10000000000F00000000002020EC000010206A
:100B200020201F0000FC0080402000000F01010277
:100B300004080000FC00000000000007080808008E
:100B400000E02020C02020C00F00000300000FE0C4
:100B500040202020C0000F000000000F00C0202017
:100B60002020C00007080808080700E040202020D7
:100B7000C0007F020404040300C020202040E000E5
:100B800003040404027F00E04020202040000F0006
:100B90000000000000C020202020400004090909B6
:100BA00009060020F820202000000007080808049B
:100BB00000E000000000E00007080808040F00E063
:100BC00000000000E00000030C0C030000E0000047
:100BD000800000E0070804030408072040808040EC
:100BE000200008040202040800E000000000E00009
:100BF00023444444423F0020202020A06000080CF1
:100C00000A090808000080807C0202000000001F22
:100C10002020000000FE0000000000001F00000077
:100C20000002027C8080000020201F0000000030B5
:100C300008081020201800000000000000FEFEFE42
:100C4000FEFEFEFE7F7F7F7F7F7F7F000005072007
:100C500060000000000000005F00000003000300CF
:100C6000143E143E14242A7F2A1243330866613648
:100C7000495522500005030000001C22410000419C
:100C8000221C0014083E081408083E0808005030D2
:100C90000000080808080800606000002010080430
:100CA000023E5149453E0004027F004261514946DF
:100CB00022414949361814127F1027454545393ECF
:100CC00049494932010171090736494949362649DE
:100CD00049493E003636000000563600000814220E
:100CE0004100141414141400412214080201510983
:100CF000063E4159555E7E0909097E7F49494936BC
:100D00003E414141227F4141413E7F494949417F26
:100D1000090909013E4141493A7F0808087F00411D
:100D20007F4100304040403F7F081422417F4040D7
:100D300040407F020C027F7F0204087F3E41414118
:100D40003E7F090909061E2121215E7F09090976D6
:100D5000264949493201017F01013F4040403F1F80
:100D60002040201F7F2010207F41221C22410708A5
:100D70007008076151494543007F410000020408A3
:100D800010200000417F0004020102044040404066
:100D900040000102040020545454787F44444438F5
:100DA0003844444444384444447F38545454180428
:100DB000047E0505085454543C7F0804047800441C
:100DC0007D40002040443D007F1028440000417FCA
:100DD00040007C047804787C080404783844444457
:100DE000387C14141408081414147C007C080404BF
:100DF000485454542004043F44443C4040207C1C4C
:100E00002040201C3C4030403C44281028440C50DA
:100E100050503C4464544C44000836414100007F2B
:100E20000000414136080002010204027F7F7F7FFB
:100E30007F0408020110408040102040804080085C
:100E40000204018040201002011080102040402048
:100E500000000000250028002B002E0031000404B3
:100E60000404040304050202020204030202020253
:100E70000606060606060404020202040400592FB0
:100E8000492F11241FBECFEFDAE0DEBFCDBF15E042
:100E9000A0E0B1E0E6E2F9E602C005900D92A830CC
:100EA000B107D9F729E0A8E0B5E001C01D92A63A44
:100EB000B207E1F717E0C0E4D7E004C02197FE01D4
:100EC0000E947532CF33D107C9F70E9426230C94B4
:100ED00086340C9400008F929F92AF92BF92CF9273
:100EE000DF92EF92FF920F931F93FC0111861286FF
:100EF000168217826083808561110BC0811120C02A
:100F0000118281E0808786832283338344835583E3
:100F10001AC08823A9F0108681E08783C280D3801D
:100F2000E480F58049015A018C189D08AE08BF087D
:100F30000CE2801601E09006A104B1040CF4818754
:100F40008181811117C080858823A1F082819381DE
:100F5000A481B58149015A01881A990AAA0ABB0AD3
:100F600005EF801601E09006A104B1041CF081E0B9
:100F7000828781831F910F91FF90EF90DF90CF9038
:100F8000BF90AF909F908F900895FC016093BC003C
:100F90008091BC0087FFFCCF9091B900987F90832F
:100FA0000895CF92DF92EF92FF920F931F93CF930A
:100FB000DF93EC01C62ED42E8C89882351F0411189
:100FC00008C084E98093BC008091BC0084FDFCCF04
:100FD0001C8AEC888E010E5E1F4FE11014C0FB8846
:100FE00064EAC8010E94C5078A89883011F18031FE
:100FF00001F1DD2011F080E4E82EE092BB0064E80E
:10100000C8010E94C507C092BB0064E8C8010E94E5
:10101000C50782E0D81204C08C898F5F8C8B11C009
:1010200084E98093BC008091BC0084FDFCCF1C8AC5
:1010300008C0FF0CF092BB0064E8C8010E94C5071D
:10104000D8CFDF91CF911F910F91FF90EF90DF905C
:10105000CF900895089580E090E008956F927F9278
:101060008F929F92AF92BF92CF92DF92EF92FF92B8
:101070000F931F93CF93DF9300D000D0CDB7DEB78F
:10108000682E8FEF93E00E949D31681629F0662D3F
:101090008FEF93E00E94A53101E011E084E9689EA2
:1010A00030011124E12CF12C43018E0C9F1CFE0118
:1010B00031965F01CC24C394D12CC601880D991DB3
:1010C0000E949D31F50181935F01FFEFCF1ADF0A86
:1010D00085E0C816D10489F78981F80185878A815E
:1010E00086878B8185838C818683015F1F4FF4E027
:1010F000EF0EF11C84E9E816F104B1F60F900F90A1
:101100000F900F90DF91CF911F910F91FF90EF9073
:10111000DF90CF90BF90AF909F908F907F906F9017
:1011200008952F923F924F925F926F927F928F928B
:101130009F92AF92BF92CF92DF92EF92FF920F9366
:101140001F93CF93DF9300D000D01F92CDB7DEB7AF
:10115000F82E8FEF93E00E949D31F81629F06F2D45
:101160008FEF93E00E94A53101E011E0CE010196DE
:101170003C01E4E9FE9EC00111241C012618370839
:10118000E12CF12C2E01F5E04F0E511CF801858564
:10119000898386858A8385818B8386818C834701B9
:1011A000820C931C6301F60121916F012D835F0175
:1011B000A80CB91CC5010E949D319D81981721F092
:1011C000692FC5010E94A5314C145D0461F7015FD0
:1011D0001F4FE4E0EE0EF11CF4E9EF16F104B1F656
:1011E0000F900F900F900F900F90DF91CF911F9164
:1011F0000F91FF90EF90DF90CF90BF90AF909F90B6
:101200008F907F906F905F904F903F902F900895B8
:10121000CF92DF92EF92FF920F931F93CF93DF93C2
:1012200000D000D0CDB7DEB78091AB069091AC0670
:10123000A091AD06B091AE064091AF065091B006B8
:101240006091B1067091B206841B950BA60BB70B8B
:101250008F739927AA27BB27892B8A2B8B2B09F001
:1012600055C080918D070E945614882309F462C0EE
:10127000C090AB06D090AC06E090AD06F090AE0604
:101280008FEFC81AD80AE80AF80A8FE3C822DD24CB
:10129000EE24FF248091AF069091B006A091B10694
:1012A000B091B2068C159D05AE05BF0579F1809110
:1012B0008D070E94561444E050E0BE016F5F7F4FDF
:1012C00080918D070E942714049704F18091AB064A
:1012D0009091AC06A091AD06B091AE06880F991F13
:1012E000880F991FFC01E555FA4F49815A816B819E
:1012F0007C814083518362837383C092AB06D0921A
:10130000AC06E092AD06F092AE06BACF8091AF0681
:101310009091B006A091B106B091B206880F991FC6
:10132000880F991FFC01E555FA4F6081E180F2803A
:10133000D38004C0D12CF12CE12C60E00091AB06ED
:101340001091AC062091AD063091AE068091AF06AB
:101350009091B006A091B106B091B2060817190796
:101360002A073B07B9F08091AF069091B006A09193
:10137000B106B091B2060196A11DB11D8F739927D8
:10138000AA27BB278093AF069093B006A093B1061F
:10139000B093B2066623D9F08FE698E00E948111DF
:1013A000EE2029F06E2D8FE698E00E948111FF203B
:1013B00029F06F2D8FE698E00E948111DD2009F45D
:1013C00033CF6D2D8FE698E00E9481112DCF0F90C5
:1013D0000F900F900F90DF91CF911F910F91FF9081
:1013E000EF90DF90CF900895CF92DF92EF92FF922F
:1013F0006B017C0184E00E94461CA7019601682FC6
:1014000081E595E00E946B0785E00E94461CA701DC
:101410009601682F86E495E00E946B0786E00E94A3
:10142000461CA7019601682F8FE095E00E946B078C
:1014300080E00E94461CA7019601682F8AE195E092
:101440000E946B0781E00E94461CA7019601682F4D
:1014500085E295E00E946B0782E00E94461CA7018E
:101460009601682F80E395E00E946B0783E00E945D
:10147000461CA7019601682F8BE395E0FF90EF9043
:10148000DF90CF900C946B074F925F926F927F9298
:101490008F929F92AF92BF92CF92DF92EF92FF9284
:1014A0000F931F93CF93DF9360E08CE00E9458204E
:1014B00083E090E00197F1F761E08CE00E94582012
:1014C000C7E0D0E0812C912C540197EB692E91E07C
:1014D000792E26E3E22E2EE0F22E33E6C32E3EE0F6
:1014E000D32E03E010E0F3018491F7015490F6014C
:1014F00044904420A1F081110E941B20E42DF0E0D3
:10150000EE0FFF1FEB5FFE4FA591B4918C91582217
:1015100031E020E009F430E0832F922F02C080E018
:1015200090E0092E000CAA0BBB0B0C2E04C0880FF8
:10153000991FAA1FBB1F0A94D2F7882A992AAA2AA0
:10154000BB2A61E086E00E945820C8010197F1F7AC
:1015500060E086E00E945820219708F0C4CFC501C2
:10156000B401DF91CF911F910F91FF90EF90DF9029
:10157000CF90BF90AF909F908F907F906F905F9033
:101580004F9008956F927F928F929F92AF92BF92E9
:10159000CF92DF92EF92FF920F931F93CF93DF933F
:1015A00090EC699FB0011124672F770F770B6B01C7
:1015B000FFE1CF22DD24A3E0CC0CDD1CAA95E1F7EE
:1015C000822E912CC42FD0E0EE24EA94F12C8701D6
:1015D0000C1B1D0B089DD001099DB00D189DB00D71
:1015E00011244B2FCC9E5001CD9EB00CDC9EB00C34
:1015F0001124AB2CBB2400E011E038016A187B08F1
:10160000689C5001699CB00C789CB00C1124EC18BB
:10161000FD08EC9E6001ED9ED00CFC9ED00C1124C8
:10162000CD2CDD240C191D09089DE001099DD00D6C
:10163000189DD00D1124629566956770623091F007
:1016400038F4662369F06130D9F4522FEB2D19C0BC
:10165000643081F058F0653099F45B2F4B2D0EC04B
:101660005D2F0CC0522FEB2F4D2F0BC05B2DEB2F9E
:10167000422F07C05B2F422FED2F03C0E22F01C086
:1016800040E0682F70E02091260930912709621709
:10169000730708F03FC020912C09222361F0E29FDC
:1016A000F0011124EF2F259FD00111245B2F249FDF
:1016B00090011124432FF091320990912F0920912C
:1016C0002D0930912E09F91308C0B901F3E08F9F5D
:1016D000600D711D1124CB010BC0CB01880F991F28
:1016E000880F991F820F931FDC01AF0FB11D1C9251
:1016F00020912F09DC01A20FB11DEC93209130093C
:10170000FC01E20FF11D508320913109FC01E20F31
:10171000F11D4083DF91CF911F910F91FF90EF90CA
:10172000DF90CF90BF90AF909F908F907F906F9001
:101730000895CF93DF93EC0181E08A830E942E21EC
:10174000798368832FEF40E060E08B81DF91CF9158
:101750000C94C20AFF920F931F93CF93DF9300D094
:1017600000D0CDB7DEB7F82E062F142F88E199E010
:101770000E94990B212F402F6F2D80EB0E94EE1FAE
:101780008CE199E00E94990B8BE089831F5F106BBD
:101790001A83FB820C830AE817E0F801838144E096
:1017A00050E0BE016F5F7F4F8F5F0E948E13F80184
:1017B00083818F5F0E94CB120F900F900F900F903C
:1017C000DF91CF911F910F91FF900895CF93DF93F9
:1017D000FC0122812223C1F0EC010E942E212881EC
:1017E0003981DC01CB01821B930BA109B109409720
:1017F000A105B10508F01A822FEF40E060E08B816F
:10180000DF91CF910C94C20ADF91CF910895EF92AE
:10181000FF920F931F93CF93DF93CDB7DEB76897F7
:101820000FB6F894DEBF0FBECDBF0E942E2160938D
:10183000990770939A0780939B0790939C078AE37C
:1018400099E00E948021809198078111D0C066E2C2
:1018500074E0CE0101960E94B61220E040E060E004
:10186000CE0101960E949921CE0101960E94841E0C
:101870006CE374E0CE0101960E94B61220E043E0D2
:1018800060E0CE0101960E949921CE0101960E944E
:10189000841E6FE374E0CE0101960E94B61220E030
:1018A00043E06FE3CE0101960E949921CE0101969B
:1018B0000E94841E62E474E0CE0101960E94B6127A
:1018C00020E043E063E7CE0101960E949921CE011A
:1018D00001960E94841EE09196078E2F90E087303B
:1018E000910508F0EDC1FC01E35AFF4F0C947532ED
:1018F000E0919D078FE0E89FF0011124EF5FFE4F1C
:101900006685CE010D960E949C1E60919D07CE01BA
:1019100007960E949C1E65E474E0CE0101960E9429
:10192000B612BE01695F7F4FCE0101960E94891EEB
:1019300060E574E00E946212BE01635F7F4F0E9407
:10194000891EBC01CE0143960E949C1221E041E019
:1019500060E0CE0143960E949921CE0143960E94F9
:10196000841ECE0101960E94841ECE0107960E941D
:10197000841ECE010D96A2C160919D07CE010796EF
:101980000E949C1E65E474E0CE0101960E94B6128E
:10199000BE01695F7F4FCE0101960E94891E65E5F9
:1019A00074E00E94621274C16AE574E002C06BE6E2
:1019B00074E0CE0101960E94B61221E041E060E0A1
:1019C0000FC06BE774E0F5CF6DE874E002C069E921
:1019D00074E0CE0101960E94B61221E041E064E17C
:1019E000CE0101960E949921CE01019667C165EA58
:1019F00074E0CE0101960E94B61220E040E060E063
:101A0000CE0101960E949921CE0101960E94841E6A
:101A10006AEB74E0CE0101960E94B61220E043E02A
:101A200060E0CE0101960E949921CE0101960E94AC
:101A3000841E6CEB74E0CE0101960E94B61220E089
:101A400043E06CE3CE0101960E949921CE010196FC
:101A50000E94841E61EC74E0CE0101960E94B612D1
:101A600020E043E069E6CE0101960E949921CE0173
:101A700001960E94841E80919607813009F490C0DF
:101A8000B8F0823009F01CC160919E07CE01079624
:101A90000E949C1E6FED74E0CE0101960E94B6126A
:101AA000BE01695F7F4FCE0101960E94891EF0C082
:101AB000E0919D07AFE0EA9FF0011124EF5FFE4F38
:101AC0006685CE010D960E949C1E60919D07CE01F9
:101AD00007960E949C1E6AE474E0CE0101960E9463
:101AE000B612BE01695F7F4FCE0101960E94891E2A
:101AF00063EC74E00E946212BE01635F7F4F0E943C
:101B0000891EBC01CE0143960E949C1221E041E057
:101B100060E0CE0143960E949921CE0143960E9437
:101B2000841ECE0101960E94841ECE0107960E945B
:101B3000841ECE010D960E94841E91E0E92E91E054
:101B4000F92E10E00FE0E0919D07E11711F10E9FD3
:101B5000F0011124EF5FFE4F9685D7011E968C9100
:101B60001E97981316C095851D968C91981311C0D9
:101B700069EC74E0CE0101960E94B61220E040E0CC
:101B800069E1CE0101960E949921CE0101960E9441
:101B9000841E1F5FBFE0EB0EF11C1532A1F690C052
:101BA000E0919D078FE0E89FF0011124EF5FFE4F69
:101BB0006585CE010D960E949C1E60919D07CE0109
:101BC00007960E949C1E6AE474E0CE0101960E9472
:101BD000B612BE01695F7F4FCE0101960E94891E39
:101BE00069ED74E00E946212BE01635F7F4F0E9444
:101BF000891EBC01CE0143960E949C1221E041E067
:101C000060E0CE0143960E949921CE0143960E9446
:101C1000841ECE0101960E94841ECE0107960E946A
:101C2000841ECE010D960E94841E81E0E82E81E084
:101C3000F82E10E00FE0E0919D07E11711F10E9FE3
:101C4000F0011124EF5FFE4F9685D7011E968C910F
:101C50001E97981316C095851D968C91981311C0E8
:101C600069EC74E0CE0101960E94B61220E040E0DB
:101C700069E1CE0101960E949921CE0101960E9450
:101C8000841E1F5FBFE0EB0EF11C1532A1F618C0D9
:101C9000BC01CE010D960E949C1221E041E060E063
:101CA000CE010D960E949921CE010D960E94841EB0
:101CB000CE0101960E94841ECE0107960E94841ECA
:101CC00068960FB6F894DEBF0FBECDBFDF91CF91FF
:101CD0001F910F91FF90EF9008951F93CF93DF9383
:101CE000CDB7DEB762970FB6F894DEBF0FBECDBF9B
:101CF000E0915C051FE01E9FF0011124EF5FFE4F95
:101D00006685CE0107960E949C1E64EC74E0CE01AD
:101D100001960E94B612BE01695F7F4FCE01019607
:101D20000E94891EBC01CE010D960E949C1220E0EB
:101D300040E060E0CE010D960E949921CE010D9603
:101D40000E94841ECE0101960E94841ECE01079639
:101D50000E94841EE0915C051E9FF0011124EF5F3C
:101D6000FE4F6585CE0107960E949C1E6AED74E0C9
:101D7000CE0101960E94B612BE01695F7F4FCE016F
:101D800001960E94891EBC01CE010D960E949C12F4
:101D900020E040E06AE5CE010D960E949921CE0137
:101DA0000D960E94841ECE0101960E94841ECE01D3
:101DB00007960E94841E62960FB6F894DEBF0FBE8F
:101DC000CDBFDF91CF911F9108951F93CF93DF93E4
:101DD000CDB7DEB762970FB6F894DEBF0FBECDBFAA
:101DE0008AE399E00E9480210E946D0E60915C055B
:101DF000CE0101960E949C1E23E040E067E3CE01E5
:101E000001960E949921CE0101960E94841EE091C4
:101E10005C051FE01E9FF0011124EF5FFE4F6581FE
:101E2000CE0107960E949C1E6CEE74E0CE010196D6
:101E30000E94B612BE01695F7F4FCE0101960E94DB
:101E4000891EBC01CE010D960E949C1220E043E049
:101E500060E0CE010D960E949921CE010D960E9460
:101E6000841ECE0101960E94841ECE0107960E9418
:101E7000841EE0915C051E9FF0011124EF5FFE4F70
:101E80006681CE0107960E949C1E62EF74E0CE012F
:101E900001960E94B612BE01695F7F4FCE01019686
:101EA0000E94891EBC01CE010D960E949C1221E069
:101EB00042E061E4CE010D960E949921CE010D967B
:101EC0000E94841ECE0101960E94841ECE010796B8
:101ED0000E94841E60915C05CE0101960E949C1EAA
:101EE00023E040E067E3CE0101960E949921CE01F4
:101EF00001960E94841E62960FB6F894DEBF0FBE54
:101F0000CDBFDF91CF911F9108951F93CF93DF93A2
:101F1000CDB7DEB762970FB6F894DEBF0FBECDBF68
:101F20008AE399E00E9480210E946D0E60915C0519
:101F3000CE0101960E949C1E23E040E067E3CE01A3
:101F400001960E949921CE0101960E94841EE09183
:101F50005C051FE01E9FF0011124EF5FFE4F6581BD
:101F6000CE0107960E949C1E67EF74E0CE01019699
:101F70000E94B612BE01695F7F4FCE0101960E949A
:101F8000891EBC01CE010D960E949C1221E042E008
:101F900060E0CE010D960E949921CE010D960E941F
:101FA000841ECE0101960E94841ECE0107960E94D7
:101FB000841EE0915C051E9FF0011124EF5FFE4F2F
:101FC0006681CE0107960E949C1E6CEF74E0CE01E4
:101FD00001960E94B612BE01695F7F4FCE01019645
:101FE0000E94891EBC01CE010D960E949C1220E029
:101FF00043E060E5CE010D960E949921CE010D9639
:102000000E94841ECE0101960E94841ECE01079676
:102010000E94841E60915C05CE0101960E949C1E68
:1020200023E040E067E3CE0101960E949921CE01B2
:1020300001960E94841E62960FB6F894DEBF0FBE12
:10204000CDBFDF91CF911F9108951F93CF93DF9361
:10205000CDB7DEB762970FB6F894DEBF0FBECDBF27
:102060008AE399E00E9480210E946D0EE0915C0558
:102070001FE01E9FF0011124EF5FFE4F6581CE012E
:1020800007960E949C1E6CEE74E0CE0101960E94A1
:10209000B612BE01695F7F4FCE0101960E94891E74
:1020A000BC01CE010D960E949C1220E043E060E04E
:1020B000CE010D960E949921CE010D960E94841E9C
:1020C000CE0101960E94841ECE0107960E94841EB6
:1020D000E0915C051E9FF0011124EF5FFE4F6681C9
:1020E000CE0107960E949C1E6CEF74E0CE01019613
:1020F0000E94B612BE01695F7F4FCE0101960E9419
:10210000891EBC01CE010D960E949C1220E043E086
:1021100060E5CE010D960E949921CE010D960E9498
:10212000841ECE0101960E94841ECE0107960E9455
:10213000841E60915C05CE0101960E949C1E23E0E6
:1021400041E067E3CE0101960E949921CE010196FC
:102150000E94841E62960FB6F894DEBF0FBECDBFFC
:10216000DF91CF911F9108954091C1065091C20611
:102170002091BF063091C00642175307B4F49091E6
:10218000E8009570E1F39091E80092FD19C080930A
:10219000F1008091C1069091C20601968F73992734
:1021A000892B19F48EEF8093E8008091C1069091FD
:1021B000C20601969093C2068093C10681E00895FD
:1021C00080E00895615030F02091F100FC012083FF
:1021D0000196F8CF289884E68093C4060895CF929C
:1021E000DF92EF92FF920F931F93CF93DF936C01D7
:1021F0007A018B01C0E0D0E0CE15DF0581F0D80177
:102200006D918D01D601ED91FC910190F081E02D51
:10221000C6010995892B11F02196EECF7E01C701E9
:10222000DF91CF911F910F91FF90EF90DF90CF90B2
:102230000895FC01538D448D252F30E0842F90E0CC
:10224000821B930B541710F0CF96089501970895B1
:10225000FC01918D828D981761F0828DDF01A80FAE
:10226000B11D5D968C91928D9F5F9F73928F90E0D0
:1022700008958FEF9FEF0895FC01918D828D98173F
:1022800031F0828DE80FF11D858D90E008958FEF7C
:102290009FEF0895FC01918D228D892F90E0805C45
:1022A0009F4F821B91098F73992708958FE698E0BD
:1022B0000E944A1121E0892B09F420E0822F089521
:1022C000FC01848DDF01A80FB11DA35ABF4F2C91D3
:1022D000848D90E001968F739927848FA689B789A2
:1022E0002C93A089B1898C9182748C93938D848D69
:1022F000981306C00288F389E02D80818F7D80834A
:102300000895EF92FF920F931F93CF93DF93EC0109
:1023100081E0888F9B8D8C8D981305C0E889F989A1
:10232000808185FD26C0F62E0B8D10E00F5F1F4FBC
:102330000F731127E02E8C8DE8120CC00FB607FC2E
:10234000FACFE889F989808185FFF5CFCE010E9417
:102350006011F1CF8B8DFE01E80FF11DE35AFF4FA5
:10236000F0829FB7F8940B8FEA89FB8980818062A5
:1023700009C09FB7F894EE89FF896083E889F989DD
:102380008081827480839FBF81E090E0DF91CF9154
:102390001F910F91FF90EF900895CF93DF93EC0181
:1023A000888D8823C9F0EA89FB89808185FD05C075
:1023B000A889B9898C9186FD0FC00FB607FCF5CFAF
:1023C000808185FFF2CFA889B9898C9185FFEDCFF7
:1023D000CE010E946011E7CFDF91CF91089580E098
:1023E00090E0892B29F00E94561181110C94000075
:1023F00008950E9471340F931F93CF93DF93EC01E4
:1024000088819981009729F02A813B812617370717
:1024100088F48B016F5F7F4F0E94AB33009761F0B0
:10242000998388831B830A832C813D81232B11F49C
:10243000FC01108281E001C080E0DF91CF911F910B
:102440000F910895EF92FF920F931F93CF93DF9315
:102450006115710511F480E01CC041155105C1F0F2
:102460007B01EC018C819D818A01080F191FB80145
:10247000CE010E94FB11882371F3288139818C8160
:102480009D81B701820F931F0E947F341D830C83AF
:1024900081E0DF91CF911F910F91FF90EF90089510
:1024A000CF93DF93EC0188819981009711F00E940E
:1024B0002233198218821D821C821B821A82DF91AC
:1024C000CF910895CF93DF93EC016115710561F011
:1024D000FB0101900020E9F73197AF01461B570B34
:1024E0000E942212811103C0CE010E945012CE011F
:1024F000DF91CF910895EF92FF920F931F93CF93A7
:10250000DF93EC017B018A01BA010E94FB1181116A
:1025100004C0CE010E94501207C01D830C83B70176
:10252000888199810E947F34CE01DF91CF911F91E4
:102530000F91FF90EF900895FB01DC0111961C9222
:102540001E9213961C921E92129715961C921E9222
:1025500014978617970749F060817181611571059D
:1025600021F0448155810C947B120895FC01118265
:10257000108213821282158214826115710551F046
:10258000FB0101900020E9F73197AF01461B570B83
:102590000C947B1208958093E9008091F2008823C7
:1025A00019F08AE38093E80008951F920F920FB606
:1025B0000F9211242F933F934F935F936F937F93C9
:1025C0008F939F93AF93BF93CF93EF93FF93C0915C
:1025D000E1008091E100837F8093E100C3FF0FC0A1
:1025E0001092E90081E08093EB001092EC0082E30E
:1025F0008093ED0010920A0588E08093F000C2FFFE
:1026000019C083E00E94CB128091C506882339F05F
:102610008091C50681508093C506882389F18091F9
:10262000C406882339F08091C40681508093C40683
:10263000882341F1C4FF10C08091E2008E7E81604A
:102640008093E2008091E1008F7E8093E100809191
:1026500008058E7E806111C0C0FF16C08091E20027
:102660008E7E80618093E2008091E1008E7E809377
:10267000E100809108058E7E81608093080504C08A
:102680005D9ACDCF289AD6CFFF91EF91CF91BF9190
:10269000AF919F918F917F916F915F914F913F91FA
:1026A0002F910F900FBE0F901F901895DF92EF9211
:1026B000FF920F931F93CF93DF93D82E8A017B0154
:1026C000E40EF51EEB01CE15DF0571F0D7FE03C059
:1026D000FE01849101C088810E94B410219681116D
:1026E000F2CF8FEF9FEF01C0C801DF91CF911F9113
:1026F0000F91FF90EF90DF9008952FB7F8948770B7
:102700008093E9009091E800892F807295FF04C0C2
:102710009091F20080E4891B2FBF08957F928F92E1
:102720009F92AF92BF92CF92DF92EF92FF920F9360
:102730001F93CF93DF93C82E8B017A0180910A05F6
:10274000811103C08FEF9FEF74C08091080580FF57
:1027500005C08091E00082608093E000CE2DDF2DE7
:10276000D12C8AEFB82E8C2D8770982E8C2D8072EC
:10277000882E8C2D8074782E9AE3A92E209719F438
:10278000DD2009F451C08C2D0E947D1381110AC0F7
:10279000BA94BB20B9F261E070E080E090E00E9462
:1027A000F420ECCF282F30E0C217D3070CF48C2F85
:1027B0009FB7F8949092E9002091E80025FF32C07D
:1027C000282F30E0C21BD30B882029F08150A0F0C5
:1027D0001092F100FBCFF801C7FE0AC0815050F003
:1027E00044914093F1003196F9CF41914093F1002B
:1027F0008150D8F7020F131FDD2019F0A092E800D6
:102800000AC08091E80085FD08C0A092E800DD24A0
:10281000D394209739F0D12C05C0209719F471106A
:10282000A092E8009FBFAACF5D9884E68093C5067A
:10283000C701DF91CF911F910F91FF90EF90DF9033
:10284000CF90BF90AF909F908F907F900895909180
:102850000A05992311F057FF03C08FEF9FEF0895EA
:102860009FB7F89487708093E9002091F20030E0E0
:10287000421753070CF49A01822FFB0144E6815062
:1028800038F028984093C4065091F1005193F7CF47
:102890002115310521F08091F200882319F09FBFA6
:1028A000C90108958BE68093E800F9CF9FB7F894AB
:1028B00087708093E9008091F2009FBF0895809116
:1028C000B70681110DC082E08093B30684E0809347
:1028D000B4061092B6061092B50681E08093B70652
:1028E00083EB96E008950F931F93CF93DF931F928E
:1028F000CDB7DEB782E0898342E450E063E171E066
:1029000080E80E9456130E945F14DC0112960D911C
:102910001C9113970115110589F0D801ED91FC91D7
:102920000280F381E02DBE016F5F7F4FC8010995E2
:1029300097FD04C0F80100851185ECCF89810F90C7
:10294000DF91CF911F910F9108951F920F920FB6B3
:102950000F921124CF92DF92EF92FF920F931F9369
:102960002F933F934F935F936F937F938F939F9397
:10297000AF93BF93EF93FF93CF93DF93CDB7DEB7C2
:102980006C97DEBFCDBF1092E9008091E80083FF15
:10299000FBC168E0CE0145960E94E21082EF809371
:1029A000E8008D8987FF05C09091E80090FFFCCF7B
:1029B00003C09EEF9093E800982F907609F0C6C070
:1029C0009E894F89588D2F89F88C91110CC08038C1
:1029D00029F4809109058093F10002C01092F10062
:1029E0001092F10045C1913051F4811141C1413043
:1029F000510509F03DC1809109058D7F0BC09330D1
:102A000061F4811135C14130510509F031C1809126
:102A100009058260809309052BC1953049F48091A6
:102A2000E80080FFFCCF822F80688093E30020C104
:102A3000963009F05EC00B8D1C8D22E01092E900EB
:102A40001092C2061092C106F21232C01092C00655
:102A50001092BF060E94731499E0BE016F5F7F4F12
:102A6000DB01E92F1D92EA95E9F79983FA8291E05B
:102A70009E8390EA98879AEF99872091C1063091BA
:102A8000C206275F3F4F3C832B838D831092E90062
:102A90001092C2061092C1061093C0060093BF06A2
:102AA00049E050E080E00E9456130E947314E0C099
:102AB0001093C0060093BF060E945F14DC011296BB
:102AC0000D911C9113970115110509F4BBC0D80194
:102AD000ED91FC910480F581E02DBE016B5E7F4F8E
:102AE000C8010995009709F0C7C0F8010085118554
:102AF000EACF973009F445C1983021F481E0809302
:102B0000F100B6C0993009F0B3C0837009F039C143
:102B1000EAE3F3E081E031E096E32081211109C08E
:102B20008EE78093EA001092EA008F8980930A056D
:102B30009FC08093E9003093EB0021912093EC003B
:102B40009093ED008F5F873041F7EACF8B8D9C8D9E
:102B50001092E9001092C2061092C1069093C0062E
:102B60008093BF06898D811153C08E899D89913ACA
:102B700049F4813209F005C147E050E061E373E0B8
:102B800080E0BBC0913209F0FCC0833269F48F89C8
:102B9000988DA0E0B0E080932C0390932D03A09338
:102BA0002E03B0932F0364C0803269F48091E80053
:102BB00082FFFCCF67E081E393E00E94E2108BEF9D
:102BC0008093E80055C0823209F052C08F8980930B
:102BD0003803EEEFFFE7859194918B3F9C4D19F000
:102BE000E0E0F8E002C0EEEFFAE08091310390916E
:102BF0003203A0913303B0913403803B9440A1058C
:102C0000B10509F09EC08091380380FF79C099C05A
:102C10000E945F14FC01028113810115110509F462
:102C2000B0C0D801ED91FC910190F081E02DBE0182
:102C30006B5E7F4FC801099581111AC0F8010085AC
:102C40001185EBCFF1E0FF1609F44EC0F3E0FF125F
:102C500098C08F89882309F44AC0823089F440E8FB
:102C600060E187E791E00E94142F882309F489C06E
:102C70008EEF8093E80088C018161906CCF381C047
:102C8000813029F440E86BE08BE691E0ECCF8330B3
:102C900009F077C00E945F14DC011296ED90FC9061
:102CA00013978E010F5F1F4F6801E114F10479F053
:102CB000D701ED91FC910680F781E02DB801C701A5
:102CC0000995080F111DF701E084F184EECFD801BA
:102CD0001C92F60101900020E9F73197BF016C19B1
:102CE0007D0940E0C601BFCF69E571E002C065E53E
:102CF00071E0FB01449150E080E80E945613B8CF88
:102D0000EE3F2AE0F20751F0808191818737A7E7F3
:102D10009A0721F09093FF0A8093FE0A87E797E7CE
:102D200091838083809160008093C3069BE088E15B
:102D30000FB6F894A895809360000FBE9093600042
:102D400097CF808191818737974709F091CFA895D8
:102D5000809160008861809360008091C3068093B9
:102D60006000EE3FBAE0FB0739F08091FE0A9091D7
:102D7000FF0A918380837CCF1092FF0A1092FE0A93
:102D800077CF81E28093EB006C960FB6F894DEBFAC
:102D90000FBECDBFDF91CF91FF91EF91BF91AF916A
:102DA0009F918F917F916F915F914F913F912F9163
:102DB0001F910F91FF90EF90DF90CF900F900FBE7B
:102DC0000F901F9018951F920F920FB60F9211241B
:102DD0002F933F934F935F936F937F938F939F9323
:102DE000AF93BF93EF93FF938FE698E00E9460113B
:102DF000FF91EF91BF91AF919F918F917F916F91D3
:102E00005F914F913F912F910F900FBE0F901F90A8
:102E100018951F920F920FB60F9211242F938F9334
:102E20009F93EF93FF93E0917F08F091800880815A
:102E3000E0918508F091860882FD12C09081809112
:102E400088088F5F8F7320918908821751F0E09175
:102E50008808F0E0E159F74F958F8093880801C00A
:102E60008081FF91EF919F918F912F910F900FBED5
:102E70000F901F901895CF93DF93EC018D858823D9
:102E800019F081508D8711C09C818E81981768F44C
:102E900088896827E881F9810084F185E02D42E086
:102EA000CE0109958C818F5F8C83DF91CF9108953E
:102EB00085ED8093BC008091BC0084FDFCCF109216
:102EC000590708954091E606262F30E0240F311D62
:102ED00021323105DCF4209159072430C9F4FC017A
:102EE00080E090E0861758F43091E6062191DC01ED
:102EF000AA53B94FA30FB11D2C930196F3CF809124
:102F0000E606680F6093E60680E0089581E0089584
:102F100082E00895089508950895E0911207809140
:102F20001107E81730F4F0E0ED5EF84F808190E093
:102F300008958FEF9FEF08959091120780911107E8
:102F4000981750F4E92FF0E0ED5EF84F208130E063
:102F50009F5F9093120702C02FEF3FEFC9010895C2
:102F60008091110790E020911207821B910908952A
:102F7000CF92DF92EF92FF920F931F93CF93DF9345
:102F80007C01CB018A0120915A07222389F0EB01B1
:102F90006B01C40ED51ECC15DD0569F06991D70112
:102FA000ED91FC910190F081E02DC7010995F3CFDF
:102FB000642F0E946217C801DF91CF911F910F917A
:102FC000FF90EF90DF90CF900895CF93DF931F9203
:102FD000CDB7DEB7698320915A072223D1F0209123
:102FE0007D07203240F021E030E0FC013383228372
:102FF00080E090E015C080915B07E82FF0E0E45A94
:10300000F84F998190838F5F80935B0780937D0752
:1030100005C061E0CE0101960E94621781E090E058
:103020000F90DF91CF91089580E090E0089580E0C7
:103030000895FC0182818F5BFB01808381E008950C
:1030400084E0E2E0F5E0DB0101900D928A95E1F782
:1030500084E00895CF92DF92EF92FF920F931F9337
:10306000CF93DF93CDB7DEB7C456D1090FB6F8942E
:10307000DEBF0FBECDBF6C01DB019C919E5F9C93B8
:10308000FE01319684E6DF011D928A95E9F788E01A
:1030900089838BE08A8322E02C8391E09D839E8349
:1030A00039E0398774E07A879E879F873A8B44E2BC
:1030B0004B8B9C8B00E011E01E8B0D8B89E0E82E82
:1030C000F12CF88EEF8A998F3B8F7C8F2F8F98A3EE
:1030D00053E059A387E08CA34DA39EA318A70FA389
:1030E00001E410E01AA709A786E08BA74CA72DA73B
:1030F0009EA79FA789AB4AAB2BAB2CAB2DAB3FABAD
:1031000048AF59AF9AAF5BAF9CAF2DAF9EAF219642
:103110003FAF219722964FAF229723965FAF239719
:1031200024962FAF249725967FAF259726969FAF9D
:10313000269727969FAF279728969FAF28972A967E
:103140003FAF2A9745E02B964FAF2B972D962FAF89
:103150002D9760E470E02F967FAF6EAF2F97639648
:103160004FAF639785E264968FAF649765969FAF84
:10317000659766969FAF669767969FAF67976896C5
:103180003FAF689769964FAF69976B962FAF6B9774
:103190006D967FAF6EAF6D97A1964FAFA197A29638
:1031A0008FAFA297A3969FAFA397A4969FAFA49724
:1031B000A5965FAFA597D60112969C9112979B8317
:1031C0009B879F5F9A8F9D8F13968C912C968FAFC4
:1031D0002C978F5F80686A968FAF6A9744E650E0BD
:1031E000BF0180E00E945613CC59DF4F0FB6F89410
:1031F000DEBF0FBECDBFDF91CF911F910F91FF902A
:10320000EF90DF90CF900895DC01ED91FC91008468
:10321000F185E02D40E00994FC0187818695869533
:103220008695681740F465839385690F6770606BB6
:10323000CF010C94041908950F931F93CF93FC01B1
:1032400026816217A0F4C62F8C0164839085C90F74
:103250006C2F6F70CF010E9404196C2F62956F70F4
:103260006061C801CF911F910F910C940419CF9107
:103270001F910F910895CF92DF92EF92FF920F93DB
:103280001F93CF93DF93EC01F62EC42ED22E1D8612
:103290008F81869586958695081710F00FEF080F99
:1032A0001D2D6F2DCE01011788F00E941C19612F72
:1032B000CE010E940C19EF2CCE1430F06889CE019B
:1032C0000E943B17E394F8CF1F5FEBCF0E941C19BD
:1032D0006D2DCE01DF91CF911F910F91FF90EF9057
:1032E000DF90CF900C940C192F923F924F925F92E7
:1032F0006F927F928F929F92AF92BF92CF92DF9206
:10330000EF92FF920F931F93CF93DF93CDB7DEB76A
:103310002A970FB6F894DEBF0FBECDBFDC011E9614
:103320002D913C911F972115310509F463C19A87AE
:103330008987F9013296449031967491E72EF12CE9
:10334000B7E0EB0EF11C93E0F594E7949A95E1F762
:10335000EA823196A4913196E4916A1758F0462F8B
:1033600050E08E2F90E0FC01EA0FF11D4E175F0731
:103370000CF46AC06D3031F460E089859A850E9452
:103380001C193BC16A3009F035C160E089859A8516
:103390000E941C19E985FA8501890E9DE02C1124F3
:1033A000278126952695269565816E0D8E2D821B8B
:1033B000860F9485992309F418C118160CF015C1CD
:1033C000A985BA851B969C911B97890F87701B96C0
:1033D0008C931B972E1915962C9315971E96ED918D
:1033E000FC911F97309769F03396E491F0E037969F
:1033F00083E0F595E7958A95E1F70E9FE02D11247E
:1034000001C0E0E00FEF020F0E0FE985FA8546815B
:1034100041506481CF010E943B19A985BA851C9651
:103420008C911C97813009F0E8C01B966C911B971A
:10343000660F660F660F6F731A966C931A97606427
:10344000CD010E940419D9C0A9014A5F5F4F6A1BD0
:10345000A985BA851996FC9119975196EC91FE9F12
:10346000E02D1124E887F901A4913196249130E0F0
:103470003A2B2230310570F44E9CC0014F9C900DC8
:103480001124689F8001699F100D1124040F151FDE
:10349000312C22C0777021F028E0322E371A01C07B
:1034A000312CFA0120E0A0E0B0E0261731F0349191
:1034B000A30FB11D2F5F3196F8CFFA01E20FF11D76
:1034C0004490EA9E8001EB9E100DFA9E100D11248F
:1034D000080F191F040F151FA985BA851496BC91F2
:1034E000BB83E985FA85F581FC83A985BA851D969C
:1034F000BC91BD83E42DF0E0FF83EE83812C912C01
:10350000C12CD12CC982FA81CF1608F06DC0212CB4
:1035100036019FEF691A790AA985BA8551968C916F
:103520005197281608F058C0ED811D96EC93F9814B
:10353000F11102C0222079F0A985BA851596BC90B8
:103540001597B3946B81CD010E941C196B2D898551
:103550009A850E940C19A12CB12CA41410F0B12C46
:103560002FC0F401EA0DFB1DE00FF11F5490332032
:1035700061F0E614F70449F4E52DF0E0032C02C0F5
:10358000F595E7950A94E2F75E2EE985FA8581893B
:10359000823069F4E52D2110E295EF70F0E0E857F4
:1035A000FE4F5490652D89859A850E943B17652DA5
:1035B00089859A850E943B17FFEFAF1ABF0ACDCFCE
:1035C0008885B81639F060E089859A850E943B1796
:1035D000B394F6CF2394A0CF9FEFC91AD90AAE8136
:1035E000BF818A0E9B1E8ECF6C8189859A850E9431
:1035F0000C1903C080E090E002C081E090E02A96C0
:103600000FB6F894DEBF0FBECDBFDF91CF911F91F3
:103610000F91FF90EF90DF90CF90BF90AF909F9071
:103620008F907F906F905F904F903F902F90089574
:103630001F920F920FB60F9211242F933F934F9327
:103640005F936F937F938F939F93AF93BF93EF930A
:10365000FF938091B900887F803609F49CC068F59B
:10366000883209F45BC090F4803109F454C038F416
:10367000882309F4F6C0883009F44DC0F6C08831BB
:1036800009F44CC0803209F45DC0EFC0803409F405
:1036900068C048F4803309F455C0883309F0E5C0A8
:1036A00080935707D8C0803509F44FC0883509F496
:1036B0005DC0883409F0D9C0D6C0883909F4C7C0C4
:1036C000A8F4883709F467C038F4883609F463C071
:1036D000803709F460C0C9C0883809F4B8C080399F
:1036E00009F45FC0803809F0C0C05BC0803B09F4BA
:1036F00086C038F4803A09F466C0883A09F47FC07D
:10370000B4C0803C09F4A7C0883C09F4A4C0883B3D
:1037100009F48AC0AAC08091340710C0909156075E
:1037200080915507981770F5E091560781E08E0F4C
:1037300080935607F0E0EB5CF84F80818093BB00EC
:1037400085EC86C0809357078EC0E091560781E0D4
:103750008E0F809356078091BB00F0E0EB5CF84F32
:10376000808390915607809155076EC0E09156076F
:1037700081E08E0F809356078091BB00F0E0EB5CF8
:10378000F84F80838091580781116DC081E080934C
:10379000330784EA61C083E08093590710920807D9
:1037A000CFCF80910807803208F051C0E091080720
:1037B00081E08E0F809308078091BB00F0E0E85114
:1037C000F94F8083BDCF85EC8093BC0010925907E0
:1037D00080910807803230F4E0910807F0E0E8516A
:1037E000F94F10826091080770E0E0910B05F091AD
:1037F0000C0588EE96E009951092080736C084E023
:10380000809359071092E7061092E606E0910D05A5
:10381000F0910E0509958091E606811105C081E0C1
:103820008093E6061092C606E091E70681E08E0FCF
:103830008093E706F0E0EA53F94F80818093BB0064
:103840009091E7068091E606981708F479CF85E80D
:103850008093BC000AC085EC8093BC00109259078D
:1038600004C0109257070E945817FF91EF91BF9123
:10387000AF919F918F917F916F915F914F913F9108
:103880002F910F900FBE0F901F9018950F931F93BD
:1038900040915D0550915E0560915F0570916005F6
:1038A0008A019B0104C036952795179507958A953F
:1038B000D2F7D901C80181701F910F910895DC01E1
:1038C0008D919C91DC01ED91FC910190F081E02DB6
:1038D0000994AF92BF92CF92DF92FF920F931F9302
:1038E000CF93DF93F82EE1E0F1E08CE2C82E83E085
:1038F000D82E20E030E096E0A92EB12CCFEFD0E01A
:1039000082819381B5010E946132CB010FEF10E0FB
:10391000BE010E946132820F931FBE010E9461327C
:103920009C013F96CE16DF0659F7C296B8010E9459
:103930006132EC012F2D4FEF682F80E00E94C20A08
:10394000DD27CE010A96B8010E9461322F2D4FEF7C
:10395000682F83E00E94C20ACE014E96B8010E94F1
:1039600061322F2D4FEF682F82E00E94C20ACE01F4
:103970008896B8010E9461322F2D4FEF682F81E0A9
:10398000DF91CF911F910F91FF90DF90CF90BF906B
:10399000AF900C94C20ACF93DF931F92CDB7DEB7DE
:1039A0006983DC01ED91FC910280F381E02D41E01F
:1039B00050E0BE016F5F7F4F09950F90DF91CF916F
:1039C00008953FB7F89480910D0790910E07A0914C
:1039D0000F07B091100726B5A89B05C02F3F19F01F
:1039E0000196A11DB11D3FBFBA2FA92F982F88277F
:1039F000820F911DA11DB11DBC01CD0142E0660FDA
:103A0000771F881F991F4A95D1F70895CF93DF93A9
:103A1000EC0180913803882331F083E00E948E13FB
:103A20001816190634F081E090E09B838A8380E0C9
:103A300090E0DF91CF91089583E00C94CB1283E066
:103A40000E947D1390E008950F931F93CF93DF930F
:103A50001F92CDB7DEB78C01FC018485958597FF59
:103A600012C041E050E0BE016F5F7F4F82E00E94D4
:103A70002714019719F4898190E002C08FEF9FEF1E
:103A8000F80195878487F801848595850F90DF91EB
:103A9000CF911F910F910895CF93DF931F92CDB7D0
:103AA000DEB7FC018485958597FD05C02FEF3FEFBC
:103AB000358724870FC041E050E0BE016F5F7F4F24
:103AC00082E00E942714019719F4898190E002C0D6
:103AD0008FEF9FEF0F90DF91CF910895FC018485C8
:103AE000958597FD06C082E00E94561490E00196ED
:103AF000089582E00E94561490E008950F931F935A
:103B0000CF93DF93162F072FCCE0D9E0998121E0E6
:103B100020935A0790937C0710925B0710927D07C1
:103B2000682F8EE797E00E94E517602F8EE797E0F9
:103B30000E94E517612F8EE797E00E94E51781E06C
:103B40000E94C8218883DF91CF911F910F91089522
:103B50008F929F92AF92BF92EF92FF920F931F931B
:103B6000CF93DF937C01EB0180E50E94BA228F5F47
:103B7000880F90E09983888386E40E94BA22082FF8
:103B800010E00F5F1F4F1D830C83A881B0E020E081
:103B90003FE24AE350E00E94D2316C507E4F8F4F9B
:103BA0009F4F38EE832E33E0932EA12CB12CA5012C
:103BB00094010E941C32D8010E94DD316C507E4F6E
:103BC0008F4F9F4FA50194010E941C322A873B878B
:103BD0004C875D8781E50E948F228C01112702C0EE
:103BE000000F111F9A95E2F70F5F1F4F1F830E837F
:103BF000A881B0E020E03FE24AE350E00E94D231E9
:103C00006C507E4F8F4F9F4FA50194010E941C3234
:103C1000D8010E94D2316C507E4F8F4F9F4FA5012B
:103C200094010E941C322E873F87488B598B80E776
:103C30000E94BA228F5F880F90E09B838A8381E77E
:103C40000E948F229C01992702C0880F991F3A95E4
:103C5000E2F7019699878887F7012381222331F0C3
:103C60002E813F81821B930B99878887AA81B0E0C0
:103C700020E03FE24AE350E00E94D2316C507E4F98
:103C80008F4F9F4F28EE822E23E0922EA12CB12C35
:103C9000A50194010E941C32A885B9850E94D231E9
:103CA0006C507E4F8F4F9F4FA50194010E941C3294
:103CB0002A8B3B8B4C8B5D8BDF91CF911F910F91AA
:103CC000FF90EF90BF90AF909F908F900895CF930B
:103CD000DF93EC0181E00E94BA2284FB992790F9DE
:103CE000988383FB992790F99A8382FB992790F90F
:103CF000998386FB992790F99B83881F8827881FC3
:103D00008C83DF91CF910895FC01808191810C9487
:103D10002233CF93DF93EC01FB0144815581608115
:103D200071810E942212811103C0CE010E945012A3
:103D3000CE01DF91CF910895EF92FF920F931F93E1
:103D4000CF93DF93CDB7DEB729970FB6F894DEBFD8
:103D50000FBECDBF8C01862FF80111821082138215
:103D60001282158214824AE09E012F5F3F4F790133
:103D7000B90190E00E947331F70101900020E9F74A
:103D80003197AF014E195F09B701C8010E947B123C
:103D900029960FB6F894DEBF0FBECDBFDF91CF914D
:103DA0001F910F91FF90EF900895EF92FF920F9364
:103DB0001F93CF93DF93CDB7DEB762970FB6F8941A
:103DC000DEBF0FBECDBF8C01CB01F8011182108286
:103DD00013821282158214824AE09E012F5F3F4FA8
:103DE0007901B9010E946831F70101900020E9F7DB
:103DF0003197AF014E195F09B701C8010E947B12CC
:103E000062960FB6F894DEBF0FBECDBFDF91CF91A3
:103E10001F910F91FF90EF900895CF92DF92EF9254
:103E2000FF920F931F93CF93DF93CDB7DEB7299700
:103E30000FB6F894DEBF0FBECDBF80912D099091D3
:103E40002E09892B09F4BBC0C0903309D0903409E6
:103E5000E0903509F09036090E94E11C6C157D0553
:103E60008E059F0550F40E94E11C60933309709306
:103E7000340980933509909336090E94E11C009122
:103E80003309109134092091350930913609DC014C
:103E9000CB01801B910BA20BB30B8C329140A1057F
:103EA000B10590F2F89480912809909129099A839C
:103EB0008983E0912D09F0912E09DF01119680810F
:103EC000898790912409E0913709F0913809809110
:103ED0003909992309F42EC09081982B98879081F5
:103EE000809589238F838F818C8388E08B8358858D
:103EF0006F8149853B812C8189819A81508347FD5F
:103F0000252F3A952083262F39F0441F00C000004A
:103F10006083000000C0F2CF38E04D916083000064
:103F2000019761F7F0933809E093370949873B839C
:103F30002C8338C09081982B988790818095892315
:103F40008F838F818E8388E08D8358856F8149852B
:103F50003D812E8189819A81508347FD252F00C0A4
:103F600000C0208300C000C000C000C000C060834B
:103F70000000262F3A9541F0441F000000C000C009
:103F800000C000C000C0E8CF38E04D9100C06083A1
:103F900000C0019709F7F0933809E0933709498782
:103FA0003D832E839A83898378940E94E11C6093D9
:103FB0003309709334098093350990933609299613
:103FC0000FB6F894DEBF0FBECDBFDF91CF911F912A
:103FD0000F91FF90EF90DF90CF9008951F93CF93B4
:103FE000DF932150203118F587FF21C0D42F162FE1
:103FF000C82F622F682B8091C9079091CA070E9431
:104000005F1C612F6F778091C9079091CA070E944A
:104010005F1CCF7EC03C59F06D2F6F778091C90730
:104020009091CA07DF91CF911F910C945F1CDF9193
:10403000CF911F91089590E0FC013197EF30F10589
:10404000B0F5EC59FF4F0C947532809180008F775A
:1040500003C0809180008F7D8093800008958091BF
:104060008000877FF9CF84B58F7702C084B58F7DBC
:1040700084BD0895809190008F7707C08091900053
:104080008F7D03C080919000877F8093900008957A
:104090008091C0008F7703C08091C0008F7D809396
:1040A000C00008958091C200877F8093C200089568
:1040B0001F93CF93DF93282F30E0F901EE54FE4F8A
:1040C0008491F901EF5CF14FD491F901E25AF14F7B
:1040D000C491CC23C1F0162F81110E941B20EC2F1C
:1040E000F0E0EE0FFF1FE05BF14FA591B4919FB799
:1040F000F894111104C08C91D095D82302C0EC9192
:10410000DE2BDC939FBFDF91CF911F910895CF935A
:10411000DF9390E0FC01EF5CF14F2491FC01E25A47
:10412000F14F8491882361F190E0880F991FFC0181
:10413000EC55FE4FC591D491FC01E05BF14FA59188
:10414000B491611109C09FB7F894888120958223AA
:104150008883EC912E230BC0623061F49FB7F894F2
:104160008881322F309583238883EC912E2B2C93DA
:104170009FBF06C08FB7F894E8812E2B28838FBF8E
:10418000DF91CF910895823108F08251E82FF0E05D
:10419000E856FE4FE49180917B00E3FB222720F953
:1041A00030E095E0220F331F9A95E1F78F7D282BA1
:1041B00020937B008091300320E4829FC001112472
:1041C000E770E82BE0937C0080917A008064809314
:1041D0007A0080917A0086FDFCCF80917800209152
:1041E000790090E0922B08958F929F92AF92BF92A8
:1041F000CF92DF92EF92FF926B017C010E94E11C53
:104200004B015C01C114D104E104F104F1F00E94FE
:10421000E11CDC01CB0188199909AA09BB09883E78
:104220009340A105B10570F321E0C21AD108E1085D
:10423000F10888EE880E83E0981EA11CB11CC11401
:10424000D104E104F10419F7DDCFFF90EF90DF9086
:10425000CF90BF90AF909F908F9008952FB7F89414
:104260006091090770910A0780910B0790910C07E4
:104270002FBF0895682F616080E00E9424220E9471
:104280002E21709312096093110983E10E94BA22D2
:104290008770B9F480910E0990910F09892BA9F3C9
:1042A0000E942E212091110930911209621B730B7B
:1042B00080910E0990910F098617970730F780E0DB
:1042C000089561E08BE00E94242260E080E00E947B
:1042D000242281E00895909349098093480900972A
:1042E00041F0FC0124913196849190E0922B01974A
:1042F00021F081E0809343090895109243090895C5
:104300000F93CF93DF93EC011B861A8660E40E9423
:1043100004190F8106950695069501504E8141506E
:1043200020E060E0CE010E943B19DF91CF910F9118
:1043300008950F931F93CF93DF93EC01062F142F53
:10434000213049F028F0233051F481ED91E005C08F
:104350008BE49CE002C085E097E00E946B2181E045
:1043600080934B09602F8AE399E00E941C19612F0A
:104370008AE399E00E940C194C815D816881798102
:104380008AE399E0DF91CF911F910F910C94EF1088
:10439000282F30917D07313208F04AC080915907AB
:1043A0008111FCCF90917C0742E040935907209304
:1043B00058072FEF20935707109256073093550751
:1043C000ECE5F7E0A5E3B7E020E0321721F04191FA
:1043D0004D932F5FFACF1092340720913407990F35
:1043E000922B9093340790913307913061F410929F
:1043F0003307909134079093BB009091BC0093FDDC
:10440000F8CF95EC01C095EE9093BC0090915907C0
:104410009230E1F3909157079F3F79F080915707D1
:10442000803241F080915707803331F084E005C03D
:1044300081E003C082E001C083E010925B0710922C
:104440007D0710925A0708951F93CF93DF93162F7D
:10445000CCE0D9E0998121E020935A0790937C0722
:1044600010925B0710927D07682F8EE797E00E94FD
:10447000E517612F8EE797E00E94E51781E00E9423
:10448000C8218883DF91CF911F910895909159079A
:104490009111FCCF613208F060E291E090935907EE
:1044A000909358072FEF2093570710925607260F27
:1044B000209355079093340790913407880F892BE8
:1044C0008093340780913307813061F41092330771
:1044D000809134078093BB008091BC0083FDF8CFAE
:1044E00085EC01C085EE8093BC0080915907813036
:1044F000E1F380915607861710F460915607E5E3C3
:10450000F7E0A3E1B7E080E0861721F091919D9359
:104510008F5FFACF10921207809311070895CF93FF
:10452000DF93CCE0D9E0998121E020935A07909362
:104530007C0710925B0710927D07682F8EE797E04B
:104540000E94E51781E00E94C821888362E089818A
:104550000E9446228EE797E00E949C17D82F80E0A9
:10456000C82F8EE797E00E949C178C2B9D2BDF9124
:10457000CF910895CF93DF93CCE0D9E0998121E0EA
:1045800020935A0790937C0710925B0710927D0747
:10459000682F8EE797E00E94E51781E00E94C8210E
:1045A000888361E089810E9446228EE797E00E941D
:1045B0009C17DF91CF9108951F920F920FB60F9223
:1045C00011242F933F938F939F93AF93BF93809129
:1045D000090790910A07A0910B07B0910C07309141
:1045E000A10923E0230F2D3720F40196A11DB11D51
:1045F00005C026E8230F0296A11DB11D2093A10935
:104600008093090790930A07A0930B07B0930C07B8
:1046100080910D0790910E07A0910F07B0911007A0
:104620000196A11DB11D80930D0790930E07A093D5
:104630000F07B0931007BF91AF919F918F913F915A
:104640002F910F900FBE0F901F901895CF93DF936F
:10465000CDB7DEB7C655D1090FB6F894DEBF0FBE91
:10466000CDBF789484B5826084BD84B5816084BDFB
:1046700085B5826085BD85B5816085BD80916E0000
:10468000816080936E001092810080918100826031
:10469000809381008091810081608093810080916E
:1046A000800081608093800080919100826080937F
:1046B00091008091910081608093910080919000A1
:1046C0008160809390008091C10084608093C100DC
:1046D0008091C10082608093C1008091C10081609F
:1046E0008093C1008091C30081608093C30080915A
:1046F000C00082608093C0008091C200816080937E
:10470000C20080917A00846080937A0080917A0060
:10471000826080937A0080917A00816080937A0031
:1047200080917A00806880937A0010920A05109236
:104730000905109208058091D70081608093D70009
:1047400080EA8093D80089B5806189BD89B582608F
:1047500089BD09B400FEFDCF61E070E080E090E02B
:104760000E94F4208091D8008F7C80618093D800D3
:104770008091E000807F8093E0008091E1008E7E58
:104780008093E1008DE08093E200559A209A60E0EA
:1047900087E00E9487208FEF93E00E949D31843054
:1047A00008F07CC08FEF93E00E949D31182F0E948B
:1047B0002E0891E090930001E091C907F091CA079B
:1047C0000190F081E02DA089B18982E08C93A485CD
:1047D000B5851C92A685B7858FE38C93108EA4892E
:1047E000B58986E08C93A289B3898C9180618C9382
:1047F000A289B3898C9188608C93A289B3898C91AA
:1048000080688C930288F389E02D80818F7D80837E
:104810009093CB071092CD071092CC071092D4073B
:104820001092D3071092D2071092D1078FEF9FEF0B
:104830009093D6078093D5079093D8078093D70796
:104840000E942E2160936108709362088093630830
:104850009093640810925E081092DB071092DA07BA
:104860001092DC071092DD071092600810925F082A
:104870008091D9078170826081608093D90780918F
:104880002A0990912B0997FD1BC061E00E948720A7
:1048900060E080912A090E94582012C060E08FEFEA
:1048A00093E00E94A53180E00E94910881E00E947F
:1048B000910882E00E94910883E00E94910872CFE3
:1048C00081E08093250960912C09653121F12091C7
:1048D0002D0930912E09615031F070E08FEF94E195
:1048E0000E944D3202C060E070E0F9014091280959
:1048F00050912909CF01821B930B8417950740F42F
:104900004081469FC001479F900D11249193EECFA7
:1049100085E180932C0900E020E040E060E0802FFA
:104920000E94C20A0F5F0430B9F70E940D1F61E0B8
:104930008CE00E94872061E086E00E94872060E092
:1049400085E00E94872060E086E00E94582061E0B8
:104950008CE00E9458200E94440A60935D05709389
:104960005E0580935F05909360051092300366E4C6
:10497000E62E63E0F62EF7010081F2E0EF0EF11C67
:1049800061E0802F0E94872060E0802F0E945820E5
:104990002EE4E21623E0F20671F71092120710924D
:1049A000110710925B0710927D071092590781E062
:1049B000809358071092330761E082E00E945820EC
:1049C00061E083E00E9458208091B9008E7F80933F
:1049D000B9008091B9008D7F8093B90088E48093FD
:1049E000B80085E48093BC008AE897E190930E05B7
:1049F00080930D058BE897E190930C0580930B0550
:104A000010924E098CE380934D091092B9008CE00E
:104A10008093B80010923E0910923F09EFEFF0E04A
:104A200085919491D82EE1E0F1E00491E2E0F1E08B
:104A3000E491E0934009E3E0F1E0E491E09341097F
:104A4000E4E0F1E0E491E09342097C018E2D8D19C0
:104A5000801750F4F70164918AE399E00E940419E9
:104A6000FFEFEF1AFF0AF2CF8AE399E00E9480215C
:104A700084EF91E090930F0980930E0980EC0E94DF
:104A8000BA228E3E09F020C489E80E94BA22682F1B
:104A9000616089E80E94242260E088E80E94242264
:104AA00061E080E80E94242261E08FEF0E942422CE
:104AB00060E080E00E94242281E90E94BA22809373
:104AC000130961E080E00E94242260E08FEF0E94E1
:104AD000242260E080E80E94242280E60E94BA221C
:104AE000682F626180E60E94242260E270E084E424
:104AF0000E947E1D6FEF81E00E94242261E080E829
:104B00000E94242261E08FEF0E94242260E080E076
:104B10000E94242266E08FEF0E94242283E80E94F4
:104B2000BA22682F646083E80E94242267E08FEF36
:104B30000E94242261E081E80E94242261E080E852
:104B40000E9424226BE684E90E94242260E083E82C
:104B50000E9424220E942E21709312096093110951
:104B600083E80E94BA22811116C080910E099091AB
:104B70000F09892BA9F30E942E2120911109309150
:104B80001209621B730B80910E0990910F09861711
:104B9000970730F799C361E083E80E94242282E9F5
:104BA0000E94BA22A82E282F2F77D22E60E081E80B
:104BB0000E94242266E08FEF0E94242283E80E9454
:104BC000BA22682F6B7F83E80E94242261E08FEF76
:104BD0000E94242261E080E00E94242260E08FEFA6
:104BE0000E94242260E080E80E94242280910D0926
:104BF00091E090935A0780937C0710925B07109284
:104C00007D0760EB8EE797E00E94E51781E00E9448
:104C1000C82180930C0966E080910D090E9446220C
:104C20007E013BE4E30EF11C470157E0C52E2E2C1C
:104C30000F2DCA94CC2041F08EE797E00E949C177C
:104C4000F40181934F01F5CF61E08FEF0E942422A0
:104C500060E08FE40E9424226CE28EE40E94242211
:104C600060E08FEF0E94242264EB86EB0E942422F6
:104C7000A7FE02C06CE001C060E090E080E041E08F
:104C800050E0282F269526952695782F7770F701E6
:104C9000E20FF11D861710F09D110AC09A0101C0A4
:104CA000220F7A95EAF7209530812323208309C0CB
:104CB000208130E002C0359527957A95E2F720FDF6
:104CC0009F5F8F5F8033E9F680910D0991E09093AB
:104CD0005A0780937C0710925B0710927D0760EB68
:104CE0008EE797E00E94E51747E0D42EDA94DD20A6
:104CF00041F0F70161917F018EE797E00E94E5178F
:104D0000F5CF81E00E94C82180930C0961E08FEF0C
:104D10000E94242260E080E00E94242260E08FEF65
:104D20000E94242260E089E00E94242260E080E169
:104D30000E94242260E081E10E94242261E084E25A
:104D40000E9424226FEF85E20E94242260E085E722
:104D50000E94242261E08FEF0E9424226CE28EE404
:104D60000E94242260E088E40E94242260E280E322
:104D70000E94242260E08FEF0E94242269E080E3F9
:104D80000E94242260E084E50E94242264E081E302
:104D90000E94242263E082E30E94242263E880E4EC
:104DA0000E94242265E286E40E94242260E080E6DC
:104DB0000E94242260E087E20E94242266E080E5CF
:104DC0000E94242260E081E50E94242266E982E5B7
:104DD0000E94242268E086E50E94242260E387E5A1
:104DE0000E94242260E081E60E94242260E082E6A4
:104DF0000E94242260E084E60E94242260E085E68E
:104E00000E94242260EA86E60E94242261E08FEF5D
:104E10000E94242262E382E20E94242264E187E469
:104E20000E9424226FEF89E40E94242260E08AE439
:104E30000E94242260E08FEF0E9424226AE08AE729
:104E40000E94242260E08BE70E94242261E288E72E
:104E50000E94242261E08FEF0E94242264E383E217
:104E60000E94242260E082E40E9424226FEF84E406
:104E70000E94242266E285E40E94242265E086E402
:104E80000E94242260E480E40E94242266E08EE0F6
:104E90000E9424226AE180E20E94242260E483E4EA
:104EA0000E94242260E08FEF0E94242263E084E3CA
:104EB0000E94242264E485E30E94242261E08FEFB3
:104EC0000E94242264E081E30E94242269E08BE4B2
:104ED0000E94242265E08CE40E94242264E08DE498
:104EE0000E94242260E08FEF0E94242260E084E48C
:104EF0000E94242260E285E40E94242268E087E484
:104F00000E94242268E288E40E94242260E087E66E
:104F10000E94242264E080E70E94242261E081E76D
:104F20000E9424226EEF82E70E94242260E086E73E
:104F30000E94242260E087E70E94242261E08FEF34
:104F40000E94242261E08DE00E94242260E08FEF25
:104F50000E94242261E080E80E94242268EF81E020
:104F60000E94242261E08FEF0E94242261E08EE8FB
:104F70000E94242261E080E00E94242260E08FEF02
:104F80000E94242260E080E80E94242264E08AE0FB
:104F90000E94242284E80E94BA22682F6F7E84E84F
:104FA0000E94242261E08BE00E942422CE018F5ACD
:104FB0009F4F0E94671EBE016F5F7F4FCE018F5AC9
:104FC0009F4F0E94A81D62968FAD6297882349F07B
:104FD0008B859C85AD85BE858C57924FAF4FBF4F5B
:104FE00004C086E39BE0A0E0B0E064962FAD649738
:104FF000222369F04B855C856D857E854E545D4F1F
:105000006F4F7F4F440F551F661F771F0DC063966C
:105010002FAD6397222361F04B855C856D857E857E
:105020004C565D4F6F4F7F4F840F951FA61FB71FC4
:1050300065962FAD6597222361F04F855889698960
:105040007A894C565D4F6F4F7F4F840F951FA61F77
:10505000B71F66962FAD6697222361F04B895C8956
:105060006D897E894A5D5D4F6F4F7F4F840F951F1D
:10507000A61FB71F8093140990931509A0931609D2
:10508000B093170968EE81E00E942422C0901409B1
:10509000D0901509E0901609F0901709F0E2CF16AC
:1050A000FEE4DF06E104F10408F4D1C0CE018F5A1A
:1050B0009F4F0E94671EBE016F5F7F4FCE018F5AC8
:1050C0009F4F0E94A81D62968FAD6297882349F07A
:1050D0008B859C85AD85BE858C57924FAF4FBF4F5A
:1050E00004C086E39BE0A0E0B0E064962FAD649737
:1050F000222369F04B855C856D857E854E545D4F1E
:105100006F4F7F4F440F551F661F771F0DC063966B
:105110002FAD6397222361F04B855C856D857E857D
:105120004C565D4F6F4F7F4F840F951FA61FB71FC3
:1051300065963FAC6597332061F04F855889698942
:105140007A894C565D4F6F4F7F4F840F951FA61F76
:10515000B71F66962FAD6697222309F478C04C01DD
:105160005D0126E2820E22E0921EA11CB11CC81431
:10517000D904EA04FB0408F46AC0AB81B0E020E083
:105180003FE24AE350E00E94D2312B013C0134EF70
:10519000430E31E0531E611C711CA70196012819B2
:1051A00039094A095B09A8EEB3E00E94D2314B01EC
:1051B0005C01C301B20120ED37E040E050E00E9405
:1051C0001C32820E931EA41EB51EC301B20128EE2E
:1051D00033E040E050E00E941C32C501B4010E945F
:1051E0001C32332031F08F819885280F391F411DE3
:1051F000511D2115310541055105E1F029013A0103
:1052000081E0481A51086108710860E070E0D3013C
:10521000C2018827892B8A2B8B2B39F076946794CF
:10522000579447946F5F7F4FF2CF762F662764299C
:10523000752902C060E070E081E70E947E1DC09287
:105240001409D0921509E0921609F092170961E04D
:1052500081E00E94242280E40E943A218823A1F167
:1052600062E081E00E94242280E00E943A218823AB
:1052700059F168EE81E00E94242261E080E80E94FA
:10528000242261E08FEF0E94242260E080E00E94EF
:1052900024226091130981E90E94242261E080E0C8
:1052A0000E94242260E08FEF0E94242260E080E8C8
:1052B0000E94242262E080E00E942422909100015A
:1052C000E1E0F1E080E001C0FFCF958786878F5F46
:1052D0003F968532D1F76EEB73E0CE0101960E94C6
:1052E000B61223E041E060E0CE0101960E949921D0
:1052F000CE0101960E94841E6CE271E080E090E095
:105300000E94F420612F70E06F5F7F4F822D902FFD
:105310000E94D51E61ED73E0CE018F5A9F4F0E940F
:10532000B612622D702FCE018F5A9F4F0E94891E98
:10533000BC01CE0101960E949C1220E043E060E097
:10534000CE0101960E949921CE0101960E94841EF1
:10535000CE018F5A9F4F0E94841E822D902F0E9453
:10536000841E68E572E080E090E00E94F4206FED1A
:1053700073E0CE0101960E94B61220E043E060E0A7
:10538000CE0101960E949921CE0101960E94841EB1
:105390006CE271E080E090E00E94F4206FEE73E038
:1053A000CE0101960E94B61220E043E069E6CE01EC
:1053B00001960E949921CE0101960E94841E10E060
:1053C000812F0E94691C0E940D1F62E070E080E046
:1053D00090E00E94F4201F5F1F3F91F768EE73E09A
:1053E00080E090E00E94F42080918D078F5F0E9402
:1053F000CB128AE399E00E9480211E0191E4290EDC
:10540000311CEE24EA94E3E0FE2EFFE74F2E512CF0
:10541000612C712C0E942E214B015C016093A70529
:105420007093A8058093A9059093AA0575E6C72EE9
:1054300075E0D72E00E010E000FF02C061E001C07F
:1054400060E088E00E94582001FF02C061E001C0D6
:1054500060E089E00E94582002FF02C061E001C0C4
:1054600060E08AE00E945820C80163E09595879526
:105470006A95E1F7892B11F061E001C060E08BE0F3
:105480000E94582082E10E94C320F60181939193EB
:105490006F0183E10E94C320F601978F868F0F5F13
:1054A0001F4F0031110541F60E94440A60935D05CB
:1054B00070935E0580935F0590936005C501B4010C
:1054C0000E94F4090E942E21709312096093110921
:1054D00083E10E94BA228770E1F480910E099091D5
:1054E0000F09892BA9F30E942E21209111093091D7
:1054F0001209621B730B80910E0990910F09861798
:10550000970730F781E080931009CC24CA94DC2CF3
:1055100009C08EE10E948F228C0161E08BE00E9425
:1055200024226801860106541109083EF3E01F0792
:1055300084F50115110569F16091610570916205AD
:10554000809163059091640528E030E040E050E0F0
:105550000E94B331A7E0B0E00E94D23117FF02C031
:10556000095F1F4F53E0159507955A95E1F7012EF6
:10557000000C220B330BDC01CB01800F911FA21F0B
:10558000B31F8093610590936205A0936305B09368
:10559000640522E633E0AE014F5F5F4F6A01DE0132
:1055A0005996CA01F90141919F01E42FF0E0EE0FF5
:1055B000FF1FEB59FA4F40815181FC0141935193F8
:1055C000CF01EA17FB0771F78EE493E0FC0121910C
:1055D000CF01E22FF0E0EE0FFF1FEB59FA4F2081D1
:1055E00031814FEF53E0421B530B4D935D93A21556
:1055F000B30561F784E10E94C320F701E81BF90BB2
:10560000CF01F1019183808385E10E94C32097013E
:10561000281B390B25963FAF2EAF259786E10E94B8
:10562000C320A701481B590B27965FAF4EAF2797A2
:1056300087E10E94C320F701E81BF90B2996FFAF11
:10564000EEAF29978091610590916205A091630565
:10565000B0916405B7FD0CC08139F1E09F07A10549
:10566000B10524F080E991E0A0E0B0E09C0102C027
:1056700020E030E0A1E0BCEF0E947B3220E931E085
:1056800040E050E00E94B331DA01C90181509C4FE3
:10569000AF4FBF4F2B969FAF8EAF2B9701E011E01E
:1056A000B12CAA24A394F8011482F601219131911E
:1056B0006F01F80180819181A901481B590BCA0132
:1056C00057FF03C09195819591090B97E4F1F8017B
:1056D00031832083A1E8BFEF0E947B322FEF33E0BC
:1056E00040E050E00E94B331CA01B90161587F4FD8
:1056F0008F4F9F4FF80173836283A482458586850F
:105700000E94AA0BB0925C0580915905882359F03C
:10571000F801828193818637910514F085E790E046
:10572000F80185830EC080914E05882361F0F80151
:10573000828193818A30910514F48AE090E0F80127
:105740008683A092A505B394015F1F4FF5E2BF12B7
:10575000AACF8091970781110CC0809115058823ED
:10576000A1F181E08093970780915C0580939D076C
:105770002AC080919807811130C080914C05882300
:1057800061F080919607863019F41092960703C055
:105790008F5F809396070E94070C8091570588239E
:1057A00059F080919607811102C086E001C08150B6
:1057B000809396070E94070C80911505882329F095
:1057C00081E0809398070E94070C0AE115E0D12C34
:1057D000AA24A39429E0B22E2BC2E09196078E2F23
:1057E00090E08730910508F0FDC1FC01EA5AFF4FB7
:1057F0000C947532809157058823F9F0E0919D074C
:105800002E2F30E04FE0E49FF0011124EF5FFE4FB8
:105810008685811102C08FE701C0815080939E0769
:105820008FE0829FF001839FF00D1124EF5FFE4F08
:1058300080919E0786870E94070C80914C058823E3
:1058400009F4D0C1E0919D072E2F30E05FE0E59F85
:10585000F0011124EF5FFE4F86858F5F87FD80E0AA
:105860009FE0929FF001939FF00D1124EF5FFE4F98
:1058700086879CC080915705882309F180919D07F8
:1058800090E03FE0389FF001399FF00D1124EF5F69
:10589000FE4F2585211103C030939E0703C0215080
:1058A00020939E072FE0289FF001299FF00D1124DF
:1058B000EF5FFE4F80919E0785870E94070C8091C5
:1058C0004C05882309F48EC1E0919D072E2F30E00E
:1058D0008FE0E89FF0011124EF5FFE4F85858F5F19
:1058E0008F3018F480939E0702C010929E078FE0BD
:1058F000829FF001839FF00D1124EF5FFE4F809196
:105900009E07858753C0809157058823F1F0E09169
:105910009D079FE09E9FF0011124EF5FFE4F85855C
:10592000811107C090939E0780919E07E1E0F1E00E
:1059300004C0815080939E07F7CF85873F9693E000
:10594000EC32F907D1F70E94070C80914C058823AF
:1059500009F448C1E0919D072FE0E29FF001112476
:10596000EF5FFE4F85858F5F8F3018F480939E0721
:1059700002C010929E0720919E078CE293E0E1E026
:10598000F1E025873F968E179F07D9F70FC0E1E01A
:10599000F1E080E021E09FE72587868796831582E6
:1059A0008F5F3F968532C1F7109298070E94070CCF
:1059B00019C1E1E0F1E080E021E09FE725878687DB
:1059C000968315828F5F3F968532C1F7EDCF64EFE6
:1059D00073E0CE0101960E94B61221E041E060E042
:1059E000CE0101960E949921CE0101960E94841E4B
:1059F00014E60E94440A60935D0570935E058093EF
:105A00005F05909360050E942E210E94F409809109
:105A1000200581110CC080912B05811108C0809157
:105A20003605811104C080914105882361F0EAE1C7
:105A3000F5E080E096819111182F8F5F3B968430BE
:105A4000C9F781E001C080E090911505911102C075
:105A5000882379F2143609F4C5C08AE399E00E94DC
:105A60008021612F70E06F5F7F4FCE01855B9F4F7C
:105A70000E94D51E65E074E0CE0101960E94B61228
:105A8000BE01655B7F4FCE0101960E94891EBC015D
:105A9000CE018F5A9F4F0E949C1221E041E060E0AE
:105AA000CE018F5A9F4F0E949921CE018F5A9F4F4E
:105AB0000E94841ECE0101960E94841ECE01855B49
:105AC0009F4F0E94841E812F0E94910885C065E12E
:105AD00074E0CE0101960E94B61221E041E060E040
