:100000000C944F070C9477070C9477070C947707A0
:100010000C9477070C9477070C9477070C94770768
:100020000C9477070C9477070C948F130C946C1531
:100030000C9477070C9477070C9477070C94770748
:100040000C9477070C9477070C9477070C94770738
:100050000C9477070C9477070C9477070C942E2454
:100060000C9477070C94D0170C94AA170C9477076C
:100070000C9477070C9477070C9477070C94770708
:100080000C9477070C9477070C9477070C947707F8
:100090000C940E1C0C9477070C9477070C9477073C
:1000A0000C9477070C9477070C947707482D882DCC
:1000B000D12D162E282E362EB62E1C0D600D780D45
:1000C0007B0D850D880D8B0D7E1D831D831D7A1D77
:1000D0007E1D831D831D831D831D831D7E1D7E1D2F
:1000E000831D7A1D581E5B1E4A1E4E1E541E7C1E0A
:1000F0007C1E7C1E5F1E631E671E6D1E711E7C1E95
:10010000771EAED580A81FD300408D142002A1C851
:10011000DA02817FD9F1DB40A4A6AF020119802069
:1001200000080B00020202010009040000010202A3
:100130000000052400100105240101010424020629
:100140000524060001070581031000400904010091
:10015000020A0000000705020240000007058302B2
:100160004000000403090412010002EF02014041B3
:1001700023368000010102030141726475696E6FCC
:10018000204C4C430041726475696E6F204C656F62
:100190006E6172646F0000030C0F30333C3FC0C3CC
:1001A000CCCFF0F3FCFF070605040100080A0B0C96
:1001B0000D0900000000240027002A002D00300057
:1001C000000000002300260029002C002F00000062
:1001D000000200090F0000030401000C00000000F1
:1001E0000000000000000000000000000022080DD8
:1001F0000E20600402050607080902030305080231
:100200000402040704070707070707070702020796
:100210000707080E09080808070709080207080762
:100220000B0809070909070808090D07080804044D
:100230000406080307070607070507070203060267
:100240000A0707070705060507070B060705050147
:100250000507080000000000000000FEFE18181E40
:100260001E001E1E000000000090F89E90F89E1CCC
:1002700000001C0000183C26FF66CC88040C183CCB
:10028000180C041C221CC0308E4080000018040092
:100290000C100C80CC7E72F2DE0C80000C1C101056
:1002A000101C0C1C101E1E0000F0FC061C7CC0065E
:1002B000FCF0C07C1C14140E14140000000000603C
:1002C0006060FCFC6060600000000C0C000000003E
:1002D000005838C0C0C0C00000000000001818005E
:1002E000C0380618040000F8FC0E060EFCF8040CDA
:1002F0001C181C0C04180CFEFE00001C1C181C868C
:10030000C6663E1C181C1C18181818888C06262651
:10031000FEDC040C1C18180C04C0E0B88CFEFE8037
:10032000040404041C1C04707E3E3636F6C60C1C05
:100330001818180C04F8FC6E6666EECC040C18183D
:10034000181C0C060606E6761E0600001C1C0000A3
:10035000009CFE666666FE9C0C1C1818181C0C3C63
:100360007E666666FCF80C1C18181C0C041818181D
:1003700018181858386060F0F098980C00000000C9
:1003800004040CD8D8D8D8D8D8D800000000000071
:10039000000C9898F0F060600C0404000000000865
:1003A0000C06C6E6763C180000001818000000E0B5
:1003B0003008C4F63A1A1AF2FA7E0408F00C3060DB
:1003C0004C9C98988C9C9C90484C2000C0F8BE8611
:1003D000BEF8C000181C04040404041C18FEFE66C9
:1003E000666666FEDC1C1C181818181C0CF8FC0E3F
:1003F00006060E9C08040C1C18181C0C04FEFE06B5
:1004000006060EFCF81C1C1818181C0C04FEFE66D0
:10041000666666661C1C1818181818FEFE66666666
:1004200066061C1C0000000000F8FC0E0606C6CE86
:10043000DCC8040C1C181818180C04FEFE60606060
:1004400060FEFE1C1C000000001C1CFEFE1C1C802C
:1004500080000000FEFE0C1C1818181C0CFEFE602C
:100460003078EC86021C1C000000041C18FEFE0004
:10047000000000001C1C1818181818FEFE0E7CE066
:1004800000E07C0EFEFE1C1C00000C1C0C00001C7E
:100490001CFEFE1C78E080FEFE1C1C0000040C1CF0
:1004A0001CF8FC0E0606060EFCF8040C1C181818A6
:1004B0001C0C04FEFE6666667E3C1C1C00000000F0
:1004C00000F8FC0E0686060EFCF8040C1C18181C1E
:1004D0000C1C24FEFE6666E6E6BE1C001C1C00002A
:1004E000000C1C18103C7E666666EECC0C1C1818BE
:1004F000181C0C060606FEFE0606060000001C1C64
:10050000000000FEFE00000000FEFE040C1C181897
:100510001C0C04021EFCE000E0FC1E020000001C9B
:100520001C1C00000006FEF800F0FE0EFEF000F8B5
:10053000FE0600001C1C1C0000001C1C1C00000609
:100540000EF8F0F80E06181C0400041C18060E38ED
:10055000F0F0380E060000001C1C000000060686A5
:10056000E6761E0E06181C1C1818181818FEFE0633
:1005700006FCFCC0C00638C000000004180606FED9
:10058000FEC0C0FCFC20380E0E3820000000000029
:1005900000000000000000000080808080808080DB
:1005A000800206040000001098D858F8F0000C1CD7
:1005B00018180C1C10FEFE301838F0E01C1C0C182B
:1005C0001C0C04E0F018183830040C18181C0CE04F
:1005D000F0381830FEFE040C1C180C1C1CE0F0D87F
:1005E000D8D8F0E0040C181818180818FCFE1A1ACD
:1005F000001C1C0000E0F0381830F8F864ECDCD87F
:10060000CCFC7CFEFE301818F8F01C1C0000001C0E
:100610001CFAFA1C1C00FAFAC0FC7CFEFEE0F09802
:10062000081C1C00041C18FEFE1C1CF8F81018F80E
:10063000F01818F8F01C1C00001C1C00001C1CF812
:10064000F8301818F8F01C1C0000001C1CE0F038F2
:100650001838F0E0040C1C181C0C04F8F83018389A
:10066000F0E0FCFC0C181C0C04E0F0381830F8F832
:10067000040C1C180CFCFCF8F83018181C1C0000AA
:100680000070F8D8D8D890081818181C0C18FCFE60
:100690001818000C1C1818F8F8000000F8F80C1CCA
:1006A00018180C1C1C38F8C000C0F83800001C1CBE
:1006B0001C000018F8E000F038F000E0F818000026
:1006C0001C1C0C000C1C1C00001838E0E03818182A
:1006D0001C04041C1818F8E000E0F8180084FCF86A
:1006E0003C04001898D878381C1C18181880FC7E18
:1006F0000606007CFCC0C0FEFC06067EFC80C0C076
:10070000FC7C006030307060603000000000000051
:1007100000FE020202020202FE1C10101010101055
:100720001C0000070E206000000000000000000018
:1007300000000000000000FC0000000000000D00B0
:10074000000000003C003C00000000000000000031
:100750000020F82020F820000107010107010060B7
:1007600090F89010000004040F040300001824986F
:1007700060100C000C02010609060030C8C83000E9
:1007800000000708080906090000003C00000000FE
:10079000000000000000000000E01804020000005B
:1007A000030C102000020418E000000020100C03CD
:1007B00000000080A0C0C0A0800000020101020073
:1007C00000808080F0808080000000070000000032
:1007D00000000000000020180C0400000080808051
:1007E0008080800000000000000000000000000089
:1007F000000000081C0800000000008060180600CF
:1008000018060100000000F008844408F00003040A
:100810000808040300201008FC0000000000000F7E
:10082000000000180404844438000C0A0908080871
:10083000000804444444B80006080808080700807B
:10084000601804FC0000010101010F01007C242458
:100850002424C40006080808080700F88444444417
:10086000880007080808080700040404C4340C00C2
:10087000000C0300000000B844444444B8000708DA
:1008800008080807007884848444F80004080808ED
:100890000807000020702000000000081C0800006D
:1008A000000020702000000020180C0400000080D0
:1008B00040201008000000010204080000404040F1
:1008C00040404000020202020202000008102040E4
:1008D0008000000804020100000484442418000081
:1008E000000D0000000000F008C42424F8000304F8
:1008F000090A0A0300F884848484F8000F000000C9
:10090000000F00FC4444447880000F0808080807E2
:1009100000F804040404180007080808080600FC8E
:1009200004040408F0000F080808040300FC444411
:10093000444404000F080808080800FC44444444E8
:1009400004000F000000000000F8040484849800F4
:1009500007080808080700FC40404040FC000F0062
:100960000000000F000404FC0404000008080F0845
:100970000800000000040404FC000608080808073A
:1009800000FC4020D00804000F000000030C00FC15
:100990000000000000000F080808080800FC1860AC
:1009A000806018FC0F00000100000FFC1860800040
:1009B000FC000F000001060F00F804040404F80016
:1009C00007080808080700FC8484848478000F0066
:1009D0000000000000F804040404F8000708080EF2
:1009E000181700FC8484848478000F000102040836
:1009F00000384444848408000408080808070004F8
:100A00000404FC0404040000000F000000FC0000CB
:100A10000000FC0007080808080700FC00000000B0
:100A2000FC0000030C0C030000FC0000C00000FCF4
:100A3000030C0300030C030C30C0C0300C000C038B
:100A40000000030C003C408080403C000000000F90
:100A500000000004048444340C000C0A090808084F
:100A6000000000FE0202020000003F2020200006DD
:100A70001860800000000000000106180002020259
:100A8000FE0000002020203F0000001008040408A1
:100A90001000000000000000000000000000000046
:100AA0002020202020200000040C1820000000003E
:100AB000000000000000A0A0A0A0C00007080808D7
:100AC000040F00FC40202020C0000F040808080785
:100AD00000C020202020400007080808080400C0AB
:100AE00020202040FC0007080808040F00C0202038
:100AF0002020C0000709090909090080F8848484BE
:100B00000800000F0000000000C020202040E0008E
:100B100023444444423F00FC40202020C0000F00FA
:100B20000000000F00002020EC0000000000000F7B
:100B300000000000002020EC0000102020201F00FA
:100B400000FC0080402000000F01010204080000AA
:100B5000FC000000000000070808080000E020205A
:100B6000C02020C00F00000300000FE04020202024
:100B7000C0000F000000000F00C020202020C00097
:100B800007080808080700E040202020C0007F0276
:100B90000404040300C020202040E00003040404F7
:100BA000027F00E04020202040000F0000000000F5
:100BB00000C0202020204000040909090906002067
:100BC000F8202020000000070808080400E00000CA
:100BD0000000E00007080808040F00E00000000023
:100BE000E00000030C0C030000E00000800000E0C7
:100BF0000708040304080720408080402000080400
:100C00000202040800E000000000E0002344444425
:100C1000423F0020202020A06000080C0A0908089C
:100C2000000080807C0202000000001F20200000E5
:100C300000FE0000000000001F0000000002027C17
:100C40008080000020201F000000003008081020D5
:100C5000201800000000000000FEFEFEFEFEFEFE6A
:100C60007F7F7F7F7F7F7F0000050720600000007F
:100C7000000000005F00000003000300143E143E6B
:100C800014242A7F2A1243330866613649552250BC
:100C90000005030000001C2241000041221C00143A
:100CA000083E081408083E080800503000000808F4
:100CB000080808006060000020100804023E514946
:100CC000453E0004027F00426151494622414949A4
:100CD000361814127F1027454545393E4949493297
:100CE00001017109073649494936264949493E00FB
:100CF0003636000000563600000814224100141455
:100D0000141414004122140802015109063E4159ED
:100D1000555E7E0909097E7F494949363E41414178
:100D2000227F4141413E7F494949417F09090901EB
:100D30003E4141493A7F0808087F00417F41003029
:100D40004040403F7F081422417F404040407F02A6
:100D50000C027F7F0204087F3E4141413E7F09092A
:100D600009061E2121215E7F090909762649494984
:100D70003201017F01013F4040403F1F2040201FC2
:100D80007F2010207F41221C224107087008076144
:100D900051494543007F4100000204081020000033
:100DA000417F000402010204404040404000010233
:100DB000040020545454787F444444383844444414
:100DC00044384444447F385454541804047E050580
:100DD000085454543C7F0804047800447D400020AB
:100DE00040443D007F1028440000417F40007C04C7
:100DF0007804787C0804047838444444387C14141B
:100E00001408081414147C007C0804044854545436
:100E10002004043F44443C4040207C1C2040201CD3
:100E20003C4030403C44281028440C5050503C4436
:100E300064544C44000836414100007F00004141A9
:100E400036080002010204027F7F7F7F7F040802D0
:100E50000110408040102040804080080204018042
:100E600040201002011080102040402000000000AF
:100E7000250028002B002E00310004040404040384
:100E8000040502020202040302020202060606062A
:100E900006060404020202040400A1305C3011249E
:100EA0001FBECFEFDAE0DEBFCDBF15E0A0E0B1E0BE
:100EB000ECE9FBE602C005900D92A632B107D9F726
:100EC00029E0A6E2B5E001C01D92A831B207E1F722
:100ED00017E0CEE4D7E004C02197FE010E94B033B2
:100EE000CD34D107C9F70E9478240C94C1350C94F5
:100EF000000080E00895FC0182818F5BFB0180830C
:100F000081E008950F931F9340917B0550917C05DC
:100F100060917D0570917E058A019B0104C0369524
:100F20002795179507958A95D2F7D901C801817041
:100F30001F910F910895DC018D919C91DC01ED9141
:100F4000FC910190F081E02D09948F929F92AF92D5
:100F5000BF92CF92DF92EF92FF920F931F93FC010B
:100F600011861286168217826083808561110BC0FC
:100F7000811120C0118281E08087868322833383A0
:100F8000448355831AC08823A9F0108681E08783A3
:100F9000C280D380E480F58049015A018C189D08F5
:100FA000AE08BF080CE2801601E09006A104B1046F
:100FB0000CF481878181811117C080858823A1F07D
:100FC00082819381A481B58149015A01881A990AC5
:100FD000AA0ABB0A05EF801601E09006A104B1043D
:100FE0001CF081E0828781831F910F91FF90EF9029
:100FF000DF90CF90BF90AF909F908F900895FC01AD
:101000006093BC008091BC0087FFFCCF9091B90039
:10101000987F90830895CF92DF92EF92FF920F9383
:101020001F93CF93DF93EC01C62ED42E8C89882397
:1010300051F0411108C084E98093BC008091BC004C
:1010400084FDFCCF1C8AEC888E010E5E1F4FE110E0
:1010500014C0FB8864EAC8010E94FF078A898830AF
:1010600011F1803101F1DD2011F080E4E82EE092F1
:10107000BB0064E8C8010E94FF07C092BB0064E89F
:10108000C8010E94FF0782E0D81204C08C898F5FDC
:101090008C8B11C084E98093BC008091BC0084FDDE
:1010A000FCCF1C8A08C0FF0CF092BB0064E8C801AA
:1010B0000E94FF07D8CFDF91CF911F910F91FF9032
:1010C000EF90DF90CF900895089580E090E008952C
:1010D000EF92FF920F931F93CF93DF9300D000D036
:1010E000CDB7DEB7182F0E94CC1DFC0117FF0AC038
:1010F000183F09F470C01A3F08F474C01D3F09F08E
:101100006AC070C0808921E0280F208BDF01A80F02
:10111000B11D1D961C938189882361F0233009F04D
:10112000AEC082858460898385858A8386858B832A
:1011300087853DC09485892F807F803B59F168F475
:10114000803841F120F4882309F443C098C08039E5
:1011500009F1803A09F093C01DC0803D51F118F4A7
:10116000803C39F18CC0803EA9F0803F09F087C0F7
:10117000892F8F70823041F0833019F0813009F06F
:101180007EC0828582601DC0223009F078C08285D1
:10119000836008C0223009F072C0292F22952F7079
:1011A0008285822B89839A8385858B8386858C8330
:1011B0000DC0213009F063C0292F22952F70828540
:1011C000822B89839A8385858B831C82108A4EC0EB
:1011D0001487108A54C082858F6089831A831B828A
:1011E0001C8244C08CE0810F833030F4828585609E
:1011F00089831A831B82E9CF103F29F481E0818B18
:101200001587808B3CC0173F19F7808961E0680F14
:10121000608BDF01A80FB11D1D961C938B5F92851B
:10122000892B8983AF01435F5F4F9E012F5F3F4F43
:101230007901862F90E08701021B130B081719070D
:1012400050F4DA018D91AD01D70111968C93BFEF67
:10125000EB1AFB0AEECF01968430910529F0D901F3
:10126000A80FB91F1C92F7CF118AB0CF838144E039
:1012700050E0BE016F5F7F4F8F5F0E94481481E096
:1012800090E00F900F900F900F90DF91CF911F91F2
:101290000F91FF90EF9008956F927F928F929F929F
:1012A000AF92BF92CF92DF92EF92FF920F931F9374
:1012B000CF93DF9300D000D0CDB7DEB7682E8FEF8D
:1012C00093E00E94D832681629F0662D8FEF93E0E4
:1012D0000E94E03201E011E084E9689E30011124AF
:1012E000E12CF12C43018E0C9F1CFE0131965F0115
:1012F000CC24C394D12CC601880D991D0E94D832EC
:10130000F50181935F01FFEFCF1ADF0A85E0C81670
:10131000D10489F78981F80185878A8186878B8145
:1013200085838C818683015F1F4FF4E0EF0EF11CF3
:1013300084E9E816F104B1F60F900F900F900F902A
:10134000DF91CF911F910F91FF90EF90DF90CF90A1
:10135000BF90AF909F908F907F906F9008952F9245
:101360003F924F925F926F927F928F929F92AF9235
:10137000BF92CF92DF92EF92FF920F931F93CF9382
:10138000DF9300D000D01F92CDB7DEB7F82E8FEFDD
:1013900093E00E94D832F81629F06F2D8FEF93E07A
:1013A0000E94E03201E011E0CE0101963C01E4E947
:1013B000FE9EC00111241C0126183708E12CF12CD7
:1013C0002E01F5E04F0E511CF80185858983868535
:1013D0008A8385818B8386818C834701820C931C51
:1013E0006301F60121916F012D835F01A80CB91CE7
:1013F000C5010E94D8329D81981721F0692FC5013F
:101400000E94E0324C145D0461F7015F1F4FE4E07D
:10141000EE0EF11CF4E9EF16F104B1F60F900F9007
:101420000F900F900F90DF91CF911F910F91FF9030
:10143000EF90DF90CF90BF90AF909F908F907F9074
:101440006F905F904F903F902F900895CF92DF92D2
:10145000EF92FF926B017C0184E00E948207A7015A
:101460009601682F8FE695E00E94A50785E00E940F
:101470008207A7019601682F84E695E00E94A507E0
:1014800086E00E948207A7019601682F8DE295E011
:101490000E94A50780E00E948207A7019601682F9D
:1014A00088E395E00E94A50781E00E948207A701DA
:1014B0009601682F83E495E00E94A50782E00E94D0
:1014C0008207A7019601682F8EE495E00E94A50788
:1014D00083E00E948207A7019601682F89E595E0C5
:1014E000FF90EF90DF90CF900C94A507CF92DF9202
:1014F000EF92FF920F931F93CF93DF9360E08CE006
:101500000E94A62183E090E00197F1F761E08CE072
:101510000E94A621C7E0D0E0C12CD12C760103E0C7
:1015200010E085E00E947D21092E000CAA0BBB0B68
:101530000C2E04C0880F991FAA1FBB1F0A94D2F754
:10154000C82AD92AEA2AFB2A61E086E00E94A6215D
:10155000C8010197F1F760E086E00E94A62121977B
:1015600000F7C701B601DF91CF911F910F91FF9056
:10157000EF90DF90CF9008956F927F928F929F921D
:10158000AF92BF92CF92DF92EF92FF920F931F9391
:10159000CF93DF9390EC699FB0011124672F770FF1
:1015A000770B6B01FFE1CF22DD24A3E0CC0CDD1C27
:1015B000AA95E1F7822E912CC42FD0E0EE24EA9474
:1015C000F12C87010C1B1D0B089DD001099DB00D4E
:1015D000189DB00D11244B2FCC9E5001CD9EB00C08
:1015E000DC9EB00C1124AB2CBB2400E011E03801D0
:1015F0006A187B08689C5001699CB00C789CB00C00
:101600001124EC18FD08EC9E6001ED9ED00CFC9EB0
:10161000D00C1124CD2CDD240C191D09089DE001EE
:10162000099DD00D189DD00D1124629566956770A7
:10163000623091F038F4662369F06130D9F4522FAA
:10164000EB2D19C0643081F058F0653099F45B2FB0
:101650004B2D0EC05D2F0CC0522FEB2F4D2F0BC00A
:101660005B2DEB2F422F07C05B2F422FED2F03C0C6
:10167000E22F01C040E0682F70E02091E80830912F
:10168000E9086217730708F03FC02091EE08222393
:1016900061F0E29FF0011124EF2F259FD00111246A
:1016A0005B2F249F90011124432FF091F408909117
:1016B000F1082091EF083091F008F91308C0B90142
:1016C000F3E08F9F600D711D1124CB010BC0CB0186
:1016D000880F991F880F991F820F931FDC01AF0F8E
:1016E000B11D1C922091F108DC01A20FB11DEC93F9
:1016F0002091F208FC01E20FF11D50832091F308C4
:10170000FC01E20FF11D4083DF91CF911F910F91FA
:10171000FF90EF90DF90CF90BF90AF909F908F9011
:101720007F906F900895AF92BF92CF92DF92FF9219
:101730000F931F93CF93DF93F82EE1E0F1E08CE25B
:10174000C82E83E0D82E20E030E096E0A92EB12C00
:10175000CFEFD0E082819381B5010E949C33CB0111
:101760000FEF10E0BE010E949C33820F931FBE0159
:101770000E949C339C013F96CE16DF0659F7C29615
:10178000B8010E949C33EC012F2D4FEF682F80E0B1
:101790000E94BC0ADD27CE010A96B8010E949C3344
:1017A0002F2D4FEF682F83E00E94BC0ACE014E968A
:1017B000B8010E949C332F2D4FEF682F82E00E94CA
:1017C000BC0ACE018896B8010E949C332F2D4FEFA2
:1017D000682F81E0DF91CF911F910F91FF90DF90F3
:1017E000CF90BF90AF900C94BC0ACF93DF93EC01E5
:1017F00081E08A830E947C22798368832FEF40E016
:1018000060E08B81DF91CF910C94BC0ACF92DF9284
:10181000EF92FF9287E00E947D21892B21F48AEDCF
:1018200098E00E94F50B87E00E947D216C01990FE2
:10183000EE08FF08F7FE0EC06DE280EF96E00E9412
:101840009D1266277727CB016C197D098E099F09A8
:101850004AE003C04AE0C701B6010E94162342E0F5
:1018600050E06AE374E080EF96E0FF90EF90DF9045
:10187000CF900C94E114FF920F931F93CF93DF93BB
:10188000D82FF62EC42F0E94060C11E01C0FDF7714
:101890000F2D0F77C031B0F46C2F606980918B07EA
:1018A00090918C070E949B076D2F80918B079091E0
:1018B0008C070E949B07602F80918B0790918C076B
:1018C0000E949B07F11002C080E801C080E91F70F0
:1018D000812B0E9468088D2F0E946808802FDF915D
:1018E000CF911F910F91FF900C9468081F93CF9395
:1018F000DF93182FD62FC42F0E94060C6FEF6C0FAA
:101900001F77DF776031A8F4606B80918B0790912F
:101910008C070E949B07612F80918B0790918C0709
:101920000E949B076D2F80918B0790918C070E94DE
:101930009B078EED98E00E94F50BCF5F8C2F8F7088
:10194000806B0E946808812F0E9468088D2FDF91AC
:10195000CF911F910C946808CF93DF93FC012281F3
:101960002223C1F0EC010E947C2228813981DC0114
:10197000CB01821B930BA109B1094097A105B105C9
:1019800008F01A822FEF40E060E08B81DF91CF9169
:101990000C94BC0ADF91CF910895EF92FF920F93C0
:1019A0001F93CF93DF93CDB7DEB768970FB6F89448
:1019B000DEBF0FBECDBF0E947C2260935B07709399
:1019C0005C0780935D0790935E078CEF98E00E9420
:1019D000CE2280915A078111AEC06DE374E0CE0132
:1019E00001960E94701320E040E060E0CE01019675
:1019F0000E94E722CE0101960E94F51F63E574E084
:101A0000CE0101960E94701320E043E060E0CE0119
:101A100001960E94E722CE0101960E94F51FE091F7
:101A200058078E2F90E08730910508F0EDC1FC013A
:101A3000E35AFF4F0C94B033E0915F078FE0E89FCB
:101A4000F0011124EF5FFE4F6685CE010D960E94D6
:101A50000D2060915F07CE0107960E940D2068E679
:101A600074E0CE0101960E947013BE01695F7F4F42
:101A7000CE0101960E94FA1F63E774E00E941C13D6
:101A8000BE01635F7F4F0E94FA1FBC01CE014396E7
:101A90000E94561321E041E060E0CE0143960E948F
:101AA000E722CE0143960E94F51FCE0101960E94C7
:101AB000F51FCE0107960E94F51FCE010D96A2C11B
:101AC00060915F07CE0107960E940D2068E674E0E2
:101AD000CE0101960E947013BE01695F7F4FCE0157
:101AE00001960E94FA1F68E774E00E941C1374C1FB
:101AF0006DE774E002C06EE874E0CE0101960E94CA
:101B0000701321E041E060E00FC06EE974E0F5CFB2
:101B100060EB74E002C06CEB74E0CE0101960E94B1
:101B2000701321E041E064E1CE0101960E94E722BA
:101B3000CE01019667C168EC74E0CE0101960E9467
:101B4000701320E040E060E0CE0101960E94E722A1
:101B5000CE0101960E94F51F6DED74E0CE01019655
:101B60000E94701320E043E060E0CE0101960E94E5
:101B7000E722CE0101960E94F51F6FED74E0CE01C1
:101B800001960E94701320E043E06CE3CE010196C1
:101B90000E94E722CE0101960E94F51F64EE74E0D8
:101BA000CE0101960E94701320E043E069E6CE0169
:101BB00001960E94E722CE0101960E94F51F8091B6
:101BC0005807813009F490C0B8F0823009F01CC188
:101BD00060916007CE0107960E940D2062E075E0DB
:101BE000CE0101960E947013BE01695F7F4FCE0146
:101BF00001960E94FA1FF0C0E0915F07AFE0EA9FF4
:101C0000F0011124EF5FFE4F6685CE010D960E9414
:101C10000D2060915F07CE0107960E940D206DE6B2
:101C200074E0CE0101960E947013BE01695F7F4F80
:101C3000CE0101960E94FA1F66EE74E00E941C130A
:101C4000BE01635F7F4F0E94FA1FBC01CE01439625
:101C50000E94561321E041E060E0CE0143960E94CD
:101C6000E722CE0143960E94F51FCE0101960E9405
:101C7000F51FCE0107960E94F51FCE010D960E941A
:101C8000F51F91E0E92E91E0F92E10E00FE0E091D0
:101C90005F07E11711F10E9FF0011124EF5FFE4F76
:101CA0009685D7011E968C911E97981316C0958520
:101CB0001D968C91981311C06CEE74E0CE010196C4
:101CC0000E94701320E040E069E1CE0101960E947D
:101CD000E722CE0101960E94F51F1F5FBFE0EB0EC9
:101CE000F11C1532A1F690C0E0915F078FE0E89FEC
:101CF000F0011124EF5FFE4F6585CE010D960E9425
:101D00000D2060915F07CE0107960E940D206DE6C1
:101D100074E0CE0101960E947013BE01695F7F4F8F
:101D2000CE0101960E94FA1F6CEF74E00E941C1312
:101D3000BE01635F7F4F0E94FA1FBC01CE01439634
:101D40000E94561321E041E060E0CE0143960E94DC
:101D5000E722CE0143960E94F51FCE0101960E9414
:101D6000F51FCE0107960E94F51FCE010D960E9429
:101D7000F51F81E0E82E81E0F82E10E00FE0E09101
:101D80005F07E11711F10E9FF0011124EF5FFE4F85
:101D90009685D7011E968C911E97981316C095852F
:101DA0001D968C91981311C06CEE74E0CE010196D3
:101DB0000E94701320E040E069E1CE0101960E948C
:101DC000E722CE0101960E94F51F1F5FBFE0EB0ED8
:101DD000F11C1532A1F618C0BC01CE010D960E946F
:101DE000561321E041E060E0CE010D960E94E7220B
:101DF000CE010D960E94F51FCE0101960E94F51F9F
:101E0000CE0107960E94F51F68960FB6F894DEBFC4
:101E10000FBECDBFDF91CF911F910F91FF90EF903B
:101E200008951F93CF93DF93CDB7DEB762970FB6B8
:101E3000F894DEBF0FBECDBFE0917A051FE01E9F74
:101E4000F0011124EF5FFE4F6685CE0107960E94D8
:101E50000D2067EE74E0CE0101960E947013BE0162
:101E6000695F7F4FCE0101960E94FA1FBC01CE012F
:101E70000D960E94561320E040E060E0CE010D96E2
:101E80000E94E722CE010D960E94F51FCE01019619
:101E90000E94F51FCE0107960E94F51FE0917A057A
:101EA0001E9FF0011124EF5FFE4F6585CE0107965E
:101EB0000E940D206DEF74E0CE0101960E94701318
:101EC000BE01695F7F4FCE0101960E94FA1FBC01DF
:101ED000CE010D960E94561320E040E06AE5CE0147
:101EE0000D960E94E722CE010D960E94F51FCE01AD
:101EF00001960E94F51FCE0107960E94F51F62967B
:101F00000FB6F894DEBF0FBECDBFDF91CF911F910A
:101F100008951F93CF93DF93CDB7DEB762970FB6C7
:101F2000F894DEBF0FBECDBF8CEF98E00E94CE22AA
:101F30000E94110F60917A05CE0101960E940D203A
:101F400023E040E067E3CE0101960E94E722CE0144
:101F500001960E94F51FE0917A051FE01E9FF00197
:101F60001124EF5FFE4F6581CE0107960E940D2080
:101F70006FE075E0CE0101960E947013BE01695FAB
:101F80007F4FCE0101960E94FA1FBC01CE010D9633
:101F90000E94561320E043E060E0CE010D960E94BF
:101FA000E722CE010D960E94F51FCE0101960E94F8
:101FB000F51FCE0107960E94F51FE0917A051E9F3E
:101FC000F0011124EF5FFE4F6681CE0107960E945B
:101FD0000D2065E175E0CE0101960E947013BE01EF
:101FE000695F7F4FCE0101960E94FA1FBC01CE01AE
:101FF0000D960E94561321E042E061E4CE010D9659
:102000000E94E722CE010D960E94F51FCE01019697
:102010000E94F51FCE0107960E94F51F60917A0578
:10202000CE0101960E940D2023E040E067E3CE013F
:1020300001960E94E722CE0101960E94F51F62964A
:102040000FB6F894DEBF0FBECDBFDF91CF911F91C9
:1020500008951F93CF93DF93CDB7DEB762970FB686
:10206000F894DEBF0FBECDBF8CEF98E00E94CE2269
:102070000E94110F60917A05CE0101960E940D20F9
:1020800023E040E067E3CE0101960E94E722CE0103
:1020900001960E94F51FE0917A051FE01E9FF00156
:1020A0001124EF5FFE4F6581CE0107960E940D203F
:1020B0006AE175E0CE0101960E947013BE01695F6E
:1020C0007F4FCE0101960E94FA1FBC01CE010D96F2
:1020D0000E94561321E042E060E0CE010D960E947E
:1020E000E722CE010D960E94F51FCE0101960E94B7
:1020F000F51FCE0107960E94F51FE0917A051E9FFD
:10210000F0011124EF5FFE4F6681CE0107960E9419
:102110000D206FE175E0CE0101960E947013BE01A3
:10212000695F7F4FCE0101960E94FA1FBC01CE016C
:102130000D960E94561320E043E060E5CE010D9617
:102140000E94E722CE010D960E94F51FCE01019656
:102150000E94F51FCE0107960E94F51F60917A0537
:10216000CE0101960E940D2023E040E067E3CE01FE
:1021700001960E94E722CE0101960E94F51F629609
:102180000FB6F894DEBF0FBECDBFDF91CF911F9188
:1021900008951F93CF93DF93CDB7DEB762970FB645
:1021A000F894DEBF0FBECDBF8CEF98E00E94CE2228
:1021B0000E94110FE0917A051FE01E9FF00111248B
:1021C000EF5FFE4F6581CE0107960E940D206FE004
:1021D00075E0CE0101960E947013BE01695F7F4FCA
:1021E000CE0101960E94FA1FBC01CE010D960E94FD
:1021F000561320E043E060E0CE010D960E94E722F6
:10220000CE010D960E94F51FCE0101960E94F51F8A
:10221000CE0107960E94F51FE0917A051E9FF001FE
:102220001124EF5FFE4F6681CE0107960E940D20BC
:102230006FE175E0CE0101960E947013BE01695FE7
:102240007F4FCE0101960E94FA1FBC01CE010D9670
:102250000E94561320E043E060E5CE010D960E94F7
:10226000E722CE010D960E94F51FCE0101960E9435
:10227000F51FCE0107960E94F51F60917A05CE01E9
:1022800001960E940D2023E041E067E3CE01019614
:102290000E94E722CE0101960E94F51F62960FB6BA
:1022A000F894DEBF0FBECDBFDF91CF911F9108958F
:1022B0004091D7055091D8052091D5053091D6058C
:1022C00042175307B4F49091E8009570E1F39091B0
:1022D000E80092FD19C08093F1008091D70590919C
:1022E000D80501968F739927892B19F48EEF809367
:1022F000E8008091D7059091D80501969093D80574
:102300008093D70581E0089580E00895615030F012
:102310002091F100FC0120830196F8CF289884E6F3
:102320008093DA050895CF92DF92EF92FF920F9398
:102330001F93CF93DF936C017A018B01C0E0D0E053
:10234000CE15DF0581F0D8016D918D01D601ED919B
:10235000FC910190F081E02DC6010995892B11F0C7
:102360002196EECF7E01C701DF91CF911F910F9192
:10237000FF90EF90DF90CF900895FC01538D448D36
:10238000252F30E0842F90E0821B930B541710F020
:10239000CF96089501970895FC01918D828D98172D
:1023A00061F0828DDF01A80FB11D5D968C91928D39
:1023B0009F5F9F73928F90E008958FEF9FEF089536
:1023C000FC01918D828D981731F0828DE80FF11DFF
:1023D000858D90E008958FEF9FEF0895FC01918D1A
:1023E000228D892F90E0805C9F4F821B91098F7313
:1023F0009927089581E398E00E94EE1121E0892B4E
:1024000009F420E0822F0895FC01848DDF01A80FDC
:10241000B11DA35ABF4F2C91848D90E001968F730C
:102420009927848FA689B7892C93A089B1898C912B
:1024300082748C93938D848D981306C00288F389DF
:10244000E02D80818F7D80830895EF92FF920F931E
:102450001F93CF93DF93EC0181E0888F9B8D8C8D50
:10246000981305C0E889F989808185FD26C0F62E7C
:102470000B8D10E00F5F1F4F0F731127E02E8C8D17
:10248000E8120CC00FB607FCFACFE889F989808101
:1024900085FFF5CFCE010E940412F1CF8B8DFE0196
:1024A000E80FF11DE35AFF4FF0829FB7F8940B8FAE
:1024B000EA89FB898081806209C09FB7F894EE8920
:1024C000FF896083E889F9898081827480839FBF56
:1024D00081E090E0DF91CF911F910F91FF90EF90FD
:1024E0000895CF93DF93EC01888D8823C9F0EA89A2
:1024F000FB89808185FD05C0A889B9898C9186FDFD
:102500000FC00FB607FCF5CF808185FFF2CFA889F9
:10251000B9898C9185FFEDCFCE010E940412E7CFDF
:10252000DF91CF91089580E090E0892B29F00E94FF
:10253000FA1181110C9400000895CF93DF931F923C
:10254000CDB7DEB76983DC01ED91FC910280F381A8
:10255000E02D41E050E0BE016F5F7F4F09950F9085
:10256000DF91CF9108950E94AC350F931F93CF93C5
:10257000DF93EC0188819981009729F02A813B81C2
:102580002617370788F48B016F5F7F4F0E94E63470
:10259000009761F0998388831B830A832C813D8196
:1025A000232B11F4FC01108281E001C080E0DF9157
:1025B000CF911F910F910895EF92FF920F931F9368
:1025C000CF93DF936115710511F480E01CC04115B4
:1025D0005105C1F07B01EC018C819D818A01080FBE
:1025E000191FB801CE010E94B512882371F328810A
:1025F00039818C819D81B701820F931F0E94BA356A
:102600001D830C8381E0DF91CF911F910F91FF908B
:10261000EF900895CF93DF93EC0188819981009723
:1026200011F00E945D34198218821D821C821B8267
:102630001A82DF91CF910895CF93DF93EC0161155A
:10264000710561F0FB0101900020E9F73197AF01BE
:10265000461B570B0E94DC12811103C0CE010E9461
:102660000A13CE01DF91CF910895EF92FF920F935D
:102670001F93CF93DF93EC017B018A01BA010E9483
:10268000B512811104C0CE010E940A1307C01D8338
:102690000C83B701888199810E94BA35CE01DF9100
:1026A000CF911F910F91FF90EF900895FB01DC01F6
:1026B00011961C921E9213961C921E9212971596BA
:1026C0001C921E9214978617970749F060817181BA
:1026D0006115710521F0448155810C9435130895DD
:1026E000FC011182108213821282158214826115FC
:1026F000710551F0FB0101900020E9F73197AF011E
:10270000461B570B0C94351308958093E900809174
:10271000F200882319F08AE38093E80008951F925D
:102720000F920FB60F9211242F933F934F935F9305
:102730006F937F938F939F93AF93BF93CF93EF93B9
:10274000FF93C091E1008091E100837F8093E100DD
:10275000C3FF0FC01092E90081E08093EB0010925C
:10276000EC0082E38093ED001092280588E08093CE
:10277000F000C2FF19C083E00E9485138091DB0541
:10278000882339F08091DB0581508093DB05882315
:1027900089F18091DA05882339F08091DA0581503A
:1027A0008093DA05882341F1C4FF10C08091E200D4
:1027B0008E7E81608093E2008091E1008F7E809325
:1027C000E100809126058E7E806111C0C0FF16C099
:1027D0008091E2008E7E80618093E2008091E10032
:1027E0008E7E8093E100809126058E7E81608093AD
:1027F000260504C05D9ACDCF289AD6CFFF91EF91E0
:10280000CF91BF91AF919F918F917F916F915F9188
:102810004F913F912F910F900FBE0F901F901895E1
:10282000DF92EF92FF920F931F93CF93DF93D82EF7
:102830008A017B01E40EF51EEB01CE15DF0571F078
:10284000D7FE03C0FE01849101C088810E94581107
:1028500021968111F2CF8FEF9FEF01C0C801DF9168
:10286000CF911F910F91FF90EF90DF9008952FB7B8
:10287000F89487708093E9009091E800892F807226
:1028800095FF04C09091F20080E4891B2FBF08954A
:102890007F928F929F92AF92BF92CF92DF92EF92F0
:1028A000FF920F931F93CF93DF93C82E8B017A0172
:1028B00080912805811103C08FEF9FEF74C0809134
:1028C000260580FF05C08091E00082608093E000D3
:1028D000CE2DDF2DD12C8AEFB82E8C2D8770982E1F
:1028E0008C2D8072882E8C2D8074782E9AE3A92EE0
:1028F000209719F4DD2009F451C08C2D0E94371463
:1029000081110AC0BA94BB20B9F261E070E080E0A6
:1029100090E00E944222ECCF282F30E0C217D3076C
:102920000CF48C2F9FB7F8949092E9002091E80066
:1029300025FF32C0282F30E0C21BD30B882029F09E
:102940008150A0F01092F100FBCFF801C7FE0AC041
:10295000815050F044914093F1003196F9CF41916C
:102960004093F1008150D8F7020F131FDD2019F0BA
:10297000A092E8000AC08091E80085FD08C0A092FE
:10298000E800DD24D394209739F0D12C05C020979E
:1029900019F47110A092E8009FBFAACF5D9884E659
:1029A0008093DB05C701DF91CF911F910F91FF90BD
:1029B000EF90DF90CF90BF90AF909F908F907F90DF
:1029C0000895CF93DF93EC0180913703882331F092
:1029D00083E00E9448141816190634F081E090E054
:1029E0009B838A8380E090E0DF91CF91089590915E
:1029F0002805992311F057FF03C08FEF9FEF08952B
:102A00009FB7F89487708093E9002091F20030E03E
:102A1000421753070CF49A01822FFB0144E68150C0
:102A200038F028984093DA055091F1005193F7CF90
:102A30002115310521F08091F200882319F09FBF04
:102A4000C90108958BE68093E800F9CF8091CD0508
:102A500081110DC082E08093C90584E08093CA058E
:102A60001092CC051092CB0581E08093CD0589ECC6
:102A700095E008950F931F93CF93DF931F92CDB7E7
:102A8000DEB782E0898342E450E061E271E080E8F1
:102A90000E9410140E942615DC0112960D911C91C3
:102AA00013970115110589F0D801ED91FC91028071
:102AB000F381E02DBE016F5F7F4FC801099597FD3F
:102AC00004C0F80100851185ECCF89810F90DF915A
:102AD000CF911F910F9108951F920F920FB60F92F1
:102AE0001124CF92DF92EF92FF920F931F932F93B7
:102AF0003F934F935F936F937F938F939F93AF9386
:102B0000BF93EF93FF93CF93DF93CDB7DEB76C976F
:102B1000DEBFCDBF1092E9008091E80083FFFBC1CA
:102B200068E0CE0145960E94861182EF8093E8000E
:102B30008D8987FF05C09091E80090FFFCCF03C00E
:102B40009EEF9093E800982F907609F0C6C09E897A
:102B50004F89588D2F89F88C91110CC0803829F439
:102B6000809127058093F10002C01092F10010922D
:102B7000F10045C1913051F4811141C141305105FD
:102B800009F03DC1809127058D7F0BC0933061F422
:102B9000811135C14130510509F031C180912705BE
:102BA0008260809327052BC1953049F48091E8001D
:102BB00080FFFCCF822F80688093E30020C1963095
:102BC00009F05EC00B8D1C8D22E01092E90010927E
:102BD000D8051092D705F21232C01092D605109285
:102BE000D5050E943A1599E0BE016F5F7F4FDB016A
:102BF000E92F1D92EA95E9F79983FA8291E09E8385
:102C000090EA98879AEF99872091D7053091D80557
:102C1000275F3F4F3C832B838D831092E9001092F6
:102C2000D8051092D7051093D6050093D50549E035
:102C300050E080E00E9410140E943A15E0C010930A
:102C4000D6050093D5050E942615DC0112960D913C
:102C50001C9113970115110509F4BBC0D801ED9122
:102C6000FC910480F581E02DBE016B5E7F4FC801B1
:102C70000995009709F0C7C0F80100851185EACFD2
:102C8000973009F445C1983021F481E08093F10038
:102C9000B6C0993009F0B3C0837009F039C1ECE3D4
:102CA000F3E081E031E096E32081211109C08EE755
:102CB0008093EA001092EA008F89809328059FC0D4
:102CC0008093E9003093EB0021912093EC009093E6
:102CD000ED008F5F873041F7EACF8B8D9C8D10928E
:102CE000E9001092D8051092D7059093D6058093ED
:102CF000D505898D811153C08E899D89913A49F4FA
:102D0000813209F005C147E050E060E373E080E004
:102D1000BBC0913209F0FCC0833269F48F89988D71
:102D2000A0E0B0E080932C0390932D03A0932E039A
:102D3000B0932F0364C0803269F48091E80082FF71
:102D4000FCCF67E080E393E00E9486118BEF8093D5
:102D5000E80055C0823209F052C08F898093370352
:102D6000EEEFFFE7859194918B3F9C4D19F0E0E0E9
:102D7000F8E002C0EEEFFAE0809130039091310369
:102D8000A0913203B0913303803B9440A105B1057B
:102D900009F09EC08091370380FF79C099C00E94DE
:102DA0002615FC01028113810115110509F4B0C03B
:102DB000D801ED91FC910190F081E02DBE016B5E98
:102DC0007F4FC801099581111AC0F801008511854E
:102DD000EBCFF1E0FF1609F44EC0F3E0FF1298C00C
:102DE0008F89882309F44AC0823089F440E860E181
:102DF00085E891E00E946C30882309F489C08EEF49
:102E00008093E80088C018161906CCF381C0813081
:102E100029F440E86BE089E791E0ECCF833009F0DA
:102E200077C00E942615DC011296ED90FC90139756
:102E30008E010F5F1F4F6801E114F10479F0D70193
:102E4000ED91FC910680F781E02DB801C70109954D
:102E5000080F111DF701E084F184EECFD8011C9218
:102E6000F60101900020E9F73197BF016C197D0947
:102E700040E0C601BFCF67E671E002C063E671E0E3
:102E8000FB01449150E080E80E941014B8CFEE3F5F
:102E90002AE0F20751F0808191818737A7E79A07EE
:102EA00021F09093FF0A8093FE0A87E797E79183CA
:102EB0008083809160008093D9059BE088E10FB604
:102EC000F894A895809360000FBE9093600097CF10
:102ED000808191818737974709F091CFA89580919C
:102EE00060008861809360008091D90580936000C4
:102EF000EE3FBAE0FB0739F08091FE0A9091FF0A9D
:102F0000918380837CCF1092FF0A1092FE0A77CFC4
:102F100081E28093EB006C960FB6F894DEBF0FBE93
:102F2000CDBFDF91CF91FF91EF91BF91AF919F9175
:102F30008F917F916F915F914F913F912F911F9151
:102F40000F91FF90EF90DF90CF900F900FBE0F90FA
:102F50001F9018951F920F920FB60F9211242F9366
:102F60003F934F935F936F937F938F939F93AF9311
:102F7000BF93EF93FF9381E398E00E940412FF91C7
:102F8000EF91BF91AF919F918F917F916F915F91E1
:102F90004F913F912F910F900FBE0F901F9018955A
:102FA0001F920F920FB60F9211242F938F939F931E
:102FB000EF93FF93E0914108F09142088081E09106
:102FC0004708F091480882FD12C0908180914A081C
:102FD0008F5F8F7320914B08821751F0E0914A0860
:102FE000F0E0EF5CF74F958F80934A0801C0808135
:102FF000FF91EF919F918F912F910F900FBE0F90A6
:103000001F901895FC018485958597FD0BC09FB78F
:10301000F89482E08093E9008091F2009FBF90E0F5
:10302000019608959FB7F89482E08093E90080911B
:10303000F2009FBF90E00895CF93DF93EC018D8560
:10304000882319F081508D8711C09C818E8198173B
:1030500068F488896827E881F9810084F185E02D8A
:1030600042E0CE0109958C818F5F8C83DF91CF91F7
:10307000089585ED8093BC008091BC0084FDFCCF59
:103080001092CB06089540915806262F30E0240F69
:10309000311D21323105DCF42091CB062430C9F4F6
:1030A000FC0180E090E0861758F430915806219199
:1030B000DC01A85CB94FA30FB11D2C930196F3CF8F
:1030C00080915806680F6093580680E0089581E06B
:1030D000089582E00895089508950895E091840682
:1030E00080918306E81730F4F0E0EB57F94F8081C8
:1030F00090E008958FEF9FEF08959091840680915E
:103100008306981750F4E92FF0E0EB57F94F208130
:1031100030E09F5F9093840602C02FEF3FEFC9011C
:1031200008958091830690E020918406821B910986
:103130000895CF92DF92EF92FF920F931F93CF9358
:10314000DF937C01CB018A012091CC06222389F0F8
:10315000EB016B01C40ED51ECC15DD0569F069913C
:10316000D701ED91FC910190F081E02DC701099507
:10317000F3CF642F0E944318C801DF91CF911F91B4
:103180000F91FF90EF90DF90CF900895CF93DF9352
:103190001F92CDB7DEB769832091CC062223D1F0F0
:1031A0002091EF06203240F021E030E0FC01338333
:1031B000228380E090E015C08091CD06E82FF0E0FA
:1031C000E253F94F998190838F5F8093CD0680936E
:1031D000EF0605C061E0CE0101960E94431881E030
:1031E00090E00F90DF91CF91089580E090E00895F6
:1031F00083E00C94851383E00E94371490E00895D7
:103200000F931F93CF93DF931F92CDB7DEB78C013F
:10321000FC018485958597FF12C041E050E0BE0116
:103220006F5F7F4F82E00E94F714019719F4898144
:1032300090E002C08FEF9FEFF80195878487F80137
:10324000848595850F90DF91CF911F910F910895FF
:10325000CF93DF931F92CDB7DEB7FC0184859585B0
:1032600097FD05C02FEF3FEF358724870FC041E062
:1032700050E0BE016F5F7F4F82E00E94F71401971C
:1032800019F4898190E002C08FEF9FEF0F90DF91DA
:10329000CF910895862F0C9468080F931F93CF93B6
:1032A000DF93CDB7DEB7CC55D1090FB6F894DEBFAA
:1032B0000FBECDBF8C01DB019C919E5F9C93FE01F4
:1032C00031968CE5DF011D928A95E9F739E0398363
:1032D00074E07A8391E09E839F833A8754E25B8710
:1032E0009C879E873F87998B43E04A8B3B8B7C8BE7
:1032F00022E02F8B988F498F87E08C8F5D8F9E8F78
:1033000098A381E489A386E08BA35CA32DA39EA34D
:103310009FA389A75AA72BA72CA72DA73FA758ABD8
:1033200049AB9AAB4BAB9CAB2DAB9EAB38AF59AF17
:103330004AAF2BAF7CAF9DAF9EAF9FAF22963FAF02
:10334000229755E023965FAF239725962FAF2597B9
:1033500060E426966FAF26972B965FAF2B9785E29A
:103360002C968FAF2C972D969FAF2D972E969FAFB3
:103370002E972F969FAF2F9760963FAF60976196DD
:103380005FAF619763962FAF639764966FAF649753
:1033900069965FAF69976A968FAF6A976B969FAF92
:1033A0006B976C969FAF6C976D964FAF6D97D801EA
:1033B00012969C9112979B839F5F9D8B13968C9185
:1033C00024968FAF24978F5F806862968FAF629745
:1033D0004CE550E0BF0180E00E941014C45ADF4F5A
:1033E0000FB6F894DEBF0FBECDBFDF91CF911F9116
:1033F0000F910895DC01ED91FC910084F185E02DA1
:1034000040E00994FC01878186958695869568172A
:1034100040F465839385690F6770606BCF010C94EE
:10342000FA1908950F931F93CF93FC012681621719
:10343000A0F4C62F8C0164839085C90F6C2F6F7028
:10344000CF010E94FA196C2F62956F706061C801FC
:10345000CF911F910F910C94FA19CF911F910F9159
:103460000895CF92DF92EF92FF920F931F93CF9325
:10347000DF93EC01F62EC42ED22E1D868F81869509
:1034800086958695081710F00FEF080F1D2D6F2DEC
:10349000CE01011788F00E94121A612FCE010E94FE
:1034A000021AEF2CCE1430F06889CE010E941C184D
:1034B000E394F8CF1F5FEBCF0E94121A6D2DCE015F
:1034C000DF91CF911F910F91FF90EF90DF90CF9000
:1034D0000C94021A2F923F924F925F926F927F92BA
:1034E0008F929F92AF92BF92CF92DF92EF92FF9214
:1034F0000F931F93CF93DF93CDB7DEB72A970FB605
:10350000F894DEBF0FBECDBFDC011E962D913C911D
:103510001F972115310509F463C19A878987F9013D
:103520003296449031967491E72EF12CB7E0EB0E71
:10353000F11C93E0F594E7949A95E1F7EA823196CD
:10354000A4913196E4916A1758F0462F50E08E2FDF
:1035500090E0FC01EA0FF11D4E175F070CF46AC002
:103560006D3031F460E089859A850E94121A3BC162
:103570006A3009F035C160E089859A850E94121A87
:10358000E985FA8501890E9DE02C11242781269575
:103590002695269565816E0D8E2D821B860F94854E
:1035A000992309F418C118160CF015C1A985BA851C
:1035B0001B969C911B97890F87701B968C931B976A
:1035C0002E1915962C9315971E96ED91FC911F9729
:1035D000309769F03396E491F0E0379683E0F59503
:1035E000E7958A95E1F70E9FE02D112401C0E0E0F8
:1035F0000FEF020F0E0FE985FA8546814150648175
:10360000CF010E94311AA985BA851C968C911C970E
:10361000813009F0E8C01B966C911B97660F660F0E
:10362000660F6F731A966C931A976064CD010E94AF
:10363000FA19D9C0A9014A5F5F4F6A1BA985BA85EB
:103640001996FC9119975196EC91FE9FE02D11244B
:10365000E887F901A4913196249130E03A2B223089
:10366000310570F44E9CC0014F9C900D1124689F51
:103670008001699F100D1124040F151F312C22C0E9
:10368000777021F028E0322E371A01C0312CFA0170
:1036900020E0A0E0B0E0261731F03491A30FB11D77
:1036A0002F5F3196F8CFFA01E20FF11D4490EA9EA8
:1036B0008001EB9E100DFA9E100D1124080F191FAA
:1036C000040F151FA985BA851496BC91BB83E985A3
:1036D000FA85F581FC83A985BA851D96BC91BD83C9
:1036E000E42DF0E0FF83EE83812C912CC12CD12CB2
:1036F000C982FA81CF1608F06DC0212C36019FEFE8
:10370000691A790AA985BA8551968C91519728161C
:1037100008F058C0ED811D96EC93F981F11102C0BB
:10372000222079F0A985BA851596BC901597B39497
:103730006B81CD010E94121A6B2D89859A850E949A
:10374000021AA12CB12CA41410F0B12C2FC0F4013A
:10375000EA0DFB1DE00FF11F5490332061F0E614D9
:10376000F70449F4E52DF0E0032C02C0F595E79548
:103770000A94E2F75E2EE985FA858189823069F440
:10378000E52D2110E295EF70F0E0EA56FE4F5490DF
:10379000652D89859A850E941C18652D89859A85D5
:1037A0000E941C18FFEFAF1ABF0ACDCF8885B8164C
:1037B00039F060E089859A850E941C18B394F6CF91
:1037C0002394A0CF9FEFC91AD90AAE81BF818A0E78
:1037D0009B1E8ECF6C8189859A850E94021A03C038
:1037E00080E090E002C081E090E02A960FB6F89465
:1037F000DEBF0FBECDBFDF91CF911F910F91FF9024
:10380000EF90DF90CF90BF90AF909F908F907F9080
:103810006F905F904F903F902F9008951F920F925E
:103820000FB60F9211242F933F934F935F936F9393
:103830007F938F939F93AF93BF93EF93FF93809169
:10384000B900887F803609F49CC068F5883209F495
:103850005BC090F4803109F454C038F4882309F433
:10386000F6C0883009F44DC0F6C0883109F44CC068
:10387000803209F45DC0EFC0803409F468C048F4B8
:10388000803309F455C0883309F0E5C08093C90638
:10389000D8C0803509F44FC0883509F45DC088343C
:1038A00009F0D9C0D6C0883909F4C7C0A8F4883750
:1038B00009F467C038F4883609F463C0803709F426
:1038C00060C0C9C0883809F4B8C0803909F45FC045
:1038D000803809F0C0C05BC0803B09F486C038F472
:1038E000803A09F466C0883A09F47FC0B4C0803CCD
:1038F00009F4A7C0883C09F4A4C0883B09F48AC035
:10390000AAC08091A60610C09091C8068091C706F3
:10391000981770F5E091C80681E08E0F8093C80675
:10392000F0E0E955F94F80818093BB0085EC86C0BB
:103930008093C9068EC0E091C80681E08E0F809307
:10394000C8068091BB00F0E0E955F94F8083909163
:10395000C8068091C7066EC0E091C80681E08E0F50
:103960008093C8068091BB00F0E0E955F94F808351
:103970008091CA0681116DC081E08093A50684EA1A
:1039800061C083E08093CB0610927A06CFCF8091FE
:103990007A06803208F051C0E0917A0681E08E0FFD
:1039A00080937A068091BB00F0E0E65AF94F80835D
:1039B000BDCF85EC8093BC001092CB0680917A0637
:1039C000803230F4E0917A06F0E0E65AF94F108246
:1039D00060917A0670E0E0912905F0912A058AE568
:1039E00096E0099510927A0636C084E08093CB0663
:1039F0001092590610925806E0912B05F0912C0573
:103A0000099580915806811105C081E08093580680
:103A100010923806E091590681E08E0F8093590686
:103A2000F0E0E85CF94F80818093BB0090915906EB
:103A300080915806981708F479CF85E88093BC00E8
:103A40000AC085EC8093BC001092CB0604C0109293
:103A5000C9060E943918FF91EF91BF91AF919F91D4
:103A60008F917F916F915F914F913F912F910F9027
:103A70000FBE0F901F901895AF92BF92CF92DF921A
:103A8000EF92FF920F931F93CF93DF93CDB7DEB7E3
:103A900027970FB6F894DEBF0FBECDBF8C015C0137
:103AA00062E5A60EB11C7C0173E5E70EF11C80E413
:103AB000C82ED12C44E050E0BE016F5F7F4FD8018B
:103AC00013968C910E94F714009709F454C0049740
:103AD00009F051C02A813B818981E82FEF708E2F38
:103AE00090E0FC013297EE30F105A0F4EC59FF4F65
:103AF0000C94B0332D8321E030E00EC02D833E8343
:103B000022E030E009C08C812D833E838F8323E047
:103B100030E002C020E030E0F5014081D7018C9117
:103B200090E0805C9F4F841B9109B6010E949C33FA
:103B3000F601E81BF90BE217F3070CF4BBCFFE010B
:103B400035962E0F3F1FE217F30709F4B3CFD701C5
:103B50008C9190E0BC016F5F7F4F6F7377274617A2
:103B600041F0D801A80FB91F508152965C93D7013C
:103B70006C933196E8CF27960FB6F894DEBF0FBE50
:103B8000CDBFDF91CF911F910F91FF90EF90DF900C
:103B9000CF90BF90AF90089580913006811133C0CF
:103BA00082E08093E0058093E10588E393E09093C1
:103BB000E3058093E2051092E5051092E40584E7A1
:103BC00093E09093DD058093DC051092E705109259
:103BD000E6051092E8051092EC051092ED051092A2
:103BE000E9051092EA051092EB0510922E0610924C
:103BF0002F0680E4EEEEF5E0DF011D928A95E9F7ED
:103C000081E0809330068CED95E008950E94CC1DF4
:103C1000FC0183818F5F0C948513CF93DF930E9407
:103C2000CC1DEC010E943C1DFE01EE5AFF4F80812D
:103C300031969081891721F0C80FD11D8A8901C062
:103C400080E090E0DF91CF9108950E94CC1D0C940C
:103C50005F21CF93DF930E94CC1DEC010E943C1D9D
:103C6000FE01EE5AFF4FCD5ADF4F81E090E03081E8
:103C70002881321302C080E090E0DF91CF91089557
:103C800090E0FC013197EF30F105B0F5EE58FF4FB1
:103C90000C94B033809180008F7703C080918000B6
:103CA0008F7D80938000089580918000877FF9CF79
:103CB00084B58F7702C084B58F7D84BD08958091CF
:103CC00090008F7707C0809190008F7D03C0809116
:103CD0009000877F8093900008958091C0008F7737
:103CE00003C08091C0008F7D8093C00008958091B3
:103CF000C200877F8093C20008953FB7F8948091F7
:103D00007F0690918006A0918106B091820626B52B
:103D1000A89B05C02F3F19F00196A11DB11D3FBF03
:103D2000BA2FA92F982F8827820F911DA11DB11D91
:103D3000BC01CD0142E0660F771F881F991F4A958D
:103D4000D1F70895CF93DF93CEECD8E0998121E0AD
:103D50002093CC069093EE061092CD061092EF06BB
:103D6000682F80E497E00E94C61881E00E946723D4
:103D7000888362E089810E94E52380E497E00E94C5
:103D80007D18D82F80E0C82F80E497E00E947D182E
:103D90008C2B9D2BDF91CF910895CF93DF93CEECA9
:103DA000D8E0998121E02093CC069093EE06109202
:103DB000CD061092EF06682F80E497E00E94C618A7
:103DC00081E00E946723888361E089810E94E52366
:103DD00080E497E00E947D18DF91CF9108950F93C2
:103DE0001F93CF93DF93162F072FCEECD8E0998146
:103DF00021E02093CC069093EE061092CD0610920F
:103E0000EF06682F80E497E00E94C618602F80E4D8
:103E100097E00E94C618612F80E497E00E94C618C0
:103E200081E00E9467238883DF91CF911F910F91DA
:103E300008958F929F92AF92BF92EF92FF920F934D
:103E40001F93CF93DF937C01EB0180E50E94CD1E91
:103E50008F5F880F90E09983888386E40E94CD1E4F
:103E6000082F10E00F5F1F4F1D830C83A881B0E067
:103E700020E03FE24AE350E00E940D336C507E4F59
:103E80008F4F9F4F38EE832E33E0932EA12CB12C11
:103E9000A50194010E945733D8010E9418336C5039
:103EA0007E4F8F4F9F4FA50194010E9457332A8761
:103EB0003B874C875D8781E50E94A21E8C011127FC
:103EC00002C0000F111F9A95E2F70F5F1F4F1F836B
:103ED0000E83A881B0E020E03FE24AE350E00E9478
:103EE0000D336C507E4F8F4F9F4FA50194010E9460
:103EF0005733D8010E940D336C507E4F8F4F9F4F28
:103F0000A50194010E9457332E873F87488B598B18
:103F100080E70E94CD1E8F5F880F90E09B838A838D
:103F200081E70E94A21E9C01992702C0880F991F59
:103F30003A95E2F7019699878887F7012381222332
:103F400031F02E813F81821B930B99878887AA814C
:103F5000B0E020E03FE24AE350E00E940D336C50B5
:103F60007E4F8F4F9F4F28EE822E23E0922EA12C62
:103F7000B12CA50194010E945733A885B9850E94F0
:103F80000D336C507E4F8F4F9F4FA50194010E94BF
:103F900057332A8B3B8B4C8B5D8BDF91CF911F91DD
:103FA0000F91FF90EF90BF90AF909F908F900895EA
:103FB000CF93DF93EC0181E00E94CD1E84FB992713
:103FC00090F9988383FB992790F99A8382FB99272C
:103FD00090F9998386FB992790F99B83881F8827FE
:103FE000881F8C83DF91CF910895FC01808191819E
:103FF0000C945D34CF93DF93EC01FB014481558138
:10400000608171810E94DC12811103C0CE010E9487
:104010000A13CE01DF91CF910895EF92FF920F9393
:104020001F93CF93DF93CDB7DEB729970FB6F894E0
:10403000DEBF0FBECDBF8C01862FF801118210822A
:1040400013821282158214824AE09E012F5F3F4F35
:104050007901B90190E00E94AE32F7010190002091
:10406000E9F73197AF014E195F09B701C8010E9406
:10407000351329960FB6F894DEBF0FBECDBFDF9182
:10408000CF911F910F91FF90EF900895EF92FF92C3
:104090000F931F93CF93DF93CDB7DEB762970FB621
:1040A000F894DEBF0FBECDBF8C01CB01F8011182A9
:1040B000108213821282158214824AE09E012F5FC1
:1040C0003F4F7901B9010E94A332F701019000200E
:1040D000E9F73197AF014E195F09B701C8010E9496
:1040E000351362960FB6F894DEBF0FBECDBFDF91D9
:1040F000CF911F910F91FF90EF900895CF92DF9293
:10410000EF92FF920F931F93CF93DF93CDB7DEB75C
:1041100029970FB6F894DEBF0FBECDBF8091EF0890
:104120009091F008892B09F4BBC0C090F508D0909D
:10413000F608E090F708F090F8080E947D1E6C15D4
:104140007D058E059F0550F40E947D1E6093F50845
:104150007093F6088093F7089093F8080E947D1EEC
:104160000091F5081091F6082091F7083091F808B1
:10417000DC01CB01801B910BA20BB30B8C32914065
:10418000A105B10590F2F8948091EA089091EB08AE
:104190009A838983E091EF08F091F008DF0111968E
:1041A000808189879091E608E091F908F091FA08FA
:1041B0008091FB08992309F42EC09081982B988751
:1041C0009081809589238F838F818C8388E08B8376
:1041D00058856F8149853B812C8189819A815083E3
:1041E00047FD252F3A952083262F39F0441F00C024
:1041F00000006083000000C0F2CF38E04D91608382
:104200000000019761F7F093FA08E093F9084987F5
:104210003B832C8338C09081982B98879081809520
:1042200089238F838F818E8388E08D8358856F816A
:1042300049853D812E8189819A81508347FD252FB3
:1042400000C000C0208300C000C000C000C000C08B
:1042500060830000262F3A9541F0441F000000C003
:1042600000C000C000C000C0E8CF38E04D9100C0E1
:10427000608300C0019709F7F093FA08E093F9080A
:1042800049873D832E839A83898378940E947D1E7B
:104290006093F5087093F6088093F7089093F808F8
:1042A00029960FB6F894DEBF0FBECDBFDF91CF9138
:1042B0001F910F91FF90EF90DF90CF900895CF93D3
:1042C000DF93EC010E943C1DFE01EE5AFF4F20815E
:1042D000DE01AD5ABF4F8C91281751F030E0C20F6C
:1042E000D31F8A892F5F3F4F2F733327208301C04D
:1042F00080E090E0DF91CF910895CF93DF93282F56
:1043000030E0F901E253FE4F8491F901E35BF14F94
:10431000D491F901E658F14FC491CC2391F0811169
:104320000E94401EEC2FF0E0EE0FFF1FE054FE4F06
:10433000A591B491EC91ED2381E090E021F480E02F
:1043400002C080E090E0DF91CF9108951F93CF935A
:10435000DF93282F30E0F901E253FE4F8491F901F9
:10436000E35BF14FD491F901E658F14FC491CC23AE
:10437000C1F0162F81110E94401EEC2FF0E0EE0FCD
:10438000FF1FE459F14FA591B4919FB7F894111113
:1043900004C08C91D095D82302C0EC91DE2BDC9325
:1043A0009FBFDF91CF911F910895CF93DF9390E04E
:1043B000FC01E35BF14F2491FC01E658F14F84913D
:1043C000882361F190E0880F991FFC01EE54FE4FA5
:1043D000C591D491FC01E459F14FA591B4916111BB
:1043E00009C09FB7F8948881209582238883EC9137
:1043F0002E230BC0623061F49FB7F8948881322F6E
:10440000309583238883EC912E2B2C939FBF06C07D
:104410008FB7F894E8812E2B28838FBFDF91CF913F
:104420000895823108F08251E82FF0E0EA55FE4FFE
:10443000E49180917B00E3FB222720F930E095E0B6
:10444000220F331F9A95E1F78F7D282B20937B0055
:1044500080913A0320E4829FC0011124E770E82B89
:10446000E0937C0080917A00806480937A00809150
:104470007A0086FDFCCF809178002091790090E051
:10448000922B08958F929F92AF92BF92CF92DF921C
:10449000EF92FF926B017C010E947D1E4B015C013B
:1044A000C114D104E104F104F1F00E947D1EDC018D
:1044B000CB0188199909AA09BB09883E9340A10537
:1044C000B10570F321E0C21AD108E108F10888EEC5
:1044D000880E83E0981EA11CB11CC114D104E10414
:1044E000F10419F7DDCFFF90EF90DF90CF90BF90F0
:1044F000AF909F908F9008952FB7F89460917B06AE
:1045000070917C0680917D0690917E062FBF089564
:10451000682F616080E00E94C3230E947C22709318
:10452000D4086093D30883E10E94CD1E8770B9F44C
:104530008091D0089091D108892BA9F30E947C2208
:104540002091D3083091D408621B730B8091D0085E
:104550009091D1088617970730F780E0089561E0C1
:104560008BE00E94C32360E080E00E94C32381E0CF
:10457000089590930B0980930A09009741F0FC017C
:1045800024913196849190E0922B019721F081E063
:104590008093050908951092050908950F93CF930C
:1045A000DF93EC011B861A8660E40E94FA190F81E2
:1045B00006950695069501504E81415020E060E039
:1045C000CE010E94311ADF91CF910F9108950F9380
:1045D0001F93CF93DF93EC01062F142F213049F066
:1045E00028F0233051F48DEE91E005C087E69CE081
:1045F00002C081E297E00E94B92281E080930D0918
:10460000602F8CEF98E00E94121A612F8CEF98E0D7
:104610000E94021A4C815D81688179818CEF98E05B
:10462000DF91CF911F910F910C9493118F929F92D4
:10463000AF92BF920F931F93CF93DF93CDB7DEB7A7
:10464000A1970FB6F894DEBF0FBECDBF19A24230BE
:1046500008F44AE08E010F5D1F4F842E912CA12C8F
:10466000B12CA50194010E945733E62FB901CA016C
:1046700001501109EA3014F4E05D01C0E95CD80191
:10468000EC93232B242B252B61F70115110571F0D9
:10469000F80101900020E9F73197AF01401B510B61
:1046A000B80180EF96E00E94E11402C080E090E043
:1046B000A1960FB6F894DEBF0FBECDBFDF91CF91AC
:1046C0001F910F91BF90AF909F908F900895282FCA
:1046D0003091EF06313208F04AC08091CB0681114B
:1046E000FCCF9091EE0642E04093CB062093CA06A1
:1046F0002FEF2093C9061092C8063093C706EEEC40
:10470000F6E0A7EAB6E020E0321721F041914D93A0
:104710002F5FFACF1092A6062091A606990F922B32
:104720009093A6069091A506913061F41092A5068B
:104730009091A6069093BB009091BC0093FDF8CF9A
:1047400095EC01C095EE9093BC009091CB06923011
:10475000E1F39091C9069F3F79F08091C9068032BC
:1047600041F08091C906803331F084E005C081E0DA
:1047700003C082E001C083E01092CD061092EF06E4
:104780001092CC0608951F93CF93DF93162FCEEC93
:10479000D8E0998121E02093CC069093EE06109208
:1047A000CD061092EF06682F80E497E00E94C618AD
:1047B000612F80E497E00E94C61881E00E94672381
:1047C0008883DF91CF911F9108959091CB0691112D
:1047D000FCCF613208F060E291E09093CB069093B9
:1047E000CA062FEF2093C9061092C806260F209301
:1047F000C7069093A6069091A606880F892B8093F2
:10480000A6068091A506813061F41092A5068091DC
:10481000A6068093BB008091BC0083FDF8CF85EC99
:1048200001C085EE8093BC008091CB068130E1F31E
:104830008091C806861710F46091C806E7EAF6E092
:10484000A5E8B6E080E0861721F091919D938F5FF7
:10485000FACF109284068093830608951F920F92D8
:104860000FB60F9211242F933F938F939F93AF9383
:10487000BF9380917B0690917C06A0917D06B091BC
:104880007E063091130923E0230F2D3720F4019683
:10489000A11DB11D05C026E8230F0296A11DB11D63
:1048A0002093130980937B0690937C06A0937D064A
:1048B000B0937E0680917F0690918006A09181063C
:1048C000B09182060196A11DB11D80937F06909341
:1048D0008006A0938106B0938206BF91AF919F910D
:1048E0008F913F912F910F900FBE0F901F901895B1
:1048F000CF93DF93CDB7DEB7C655D1090FB6F89485
:10490000DEBF0FBECDBF789484B5826084BD84B510
:10491000816084BD85B5826085BD85B5816085BDBA
:1049200080916E00816080936E0010928100809172
:1049300081008260809381008091810081608093FA
:10494000810080918000816080938000809191003F
:1049500082608093910080919100816080939100AA
:10496000809190008160809390008091C10084606C
:104970008093C1008091C10082608093C1008091CA
:10498000C10081608093C1008091C30081608093E9
:10499000C3008091C00082608093C0008091C200FB
:1049A00081608093C20080917A00846080937A0055
:1049B00080917A00826080937A0080917A00816091
:1049C00080937A0080917A00806880937A001092B8
:1049D000280510922705109226058091D700816046
:1049E0008093D70080EA8093D80089B5806189BD23
:1049F00089B5826089BD09B400FEFDCF61E070E039
:104A000080E090E00E9442228091D8008F7C8061FB
:104A10008093D8008091E000807F8093E0008091B7
:104A2000E1008E7E8093E1008DE08093E200559A54
:104A3000209A60E087E00E94D5218FEF93E00E94EA
:104A4000D832843008F081C08FEF93E00E94D832D2
:104A5000182F0E944C0991E090930001E0918B0780
:104A6000F0918C070190F081E02DA089B18982E05E
:104A70008C93A485B5851C92A685B7858FE38C930E
:104A8000108EA489B58986E08C93A289B3898C9114
:104A900080618C93A289B3898C9188608C93A28960
:104AA000B3898C9180688C930288F389E02D808192
:104AB0008F7D808390938D0710928F0710928E07C1
:104AC00010929607109295071092940710929307F0
:104AD000EE24EA94FE2CF0929807E0929707F09269
:104AE0009A07E09299070E947C22609323087093B2
:104AF000240880932508909326081092200810928D
:104B00009D0710929C0710929E0710929F0710928B
:104B100022081092210880919B0781708260816039
:104B200080939B07F092FD06E092FC068091EC08D2
:104B30009091ED0897FD1BC061E00E94D52160E0D7
:104B40008091EC080E94A62112C060E08FEF93E0F4
:104B50000E94E03280E00E94AF0981E00E94AF092C
:104B600082E00E94AF0983E00E94AF096DCF81E02F
:104B70008093E7086091EE08653121F12091EF08FC
:104B80003091F008615031F070E08FEF94E10E94B5
:104B9000883302C060E070E0F9014091EA0850916A
:104BA000EB08CF01821B930B8417950740F44081DB
:104BB000469FC001479F900D11249193EECF85E150
:104BC0008093EE0800E020E040E060E0802F0E944B
:104BD000BC0A0F5F0430B9F70E947E2061E08CE0D0
:104BE0000E94D52161E086E00E94D52160E085E049
:104BF0000E94D52160E086E00E94A62161E08CE061
:104C00000E94A6210E94760A60937B0570937C0522
:104C100080937D0590937E0510923A0368E4E62E1A
:104C200063E0F62EF7010081F2E0EF0EF11C61E087
:104C3000802F0E94D52160E0802F0E94A62120E5D0
:104C4000E21623E0F20671F71092840610928306B2
:104C50001092CD061092EF061092CB0681E0809361
:104C6000CA061092A50661E082E00E94A62161E0DA
:104C700083E00E94A6218091B9008E7F8093B900C5
:104C80008091B9008D7F8093B90088E48093B8004B
:104C900085E48093BC008BE698E190932C0580938B
:104CA0002B058CE698E190932A05809329051092B4
:104CB00010098CE380930F091092B9008CE0809367
:104CC000B8001092000910920109EBE1F1E0859122
:104CD0009491D82EEDE1F1E00491EEE1F1E0E49160
:104CE000E0930209EFE1F1E0E491E0930309E0E2EF
:104CF000F1E0E491E09304097C018E2D8D19801779
:104D000050F4F70164918CEF98E00E94FA19FFEFDC
:104D1000EF1AFF0AF2CF8CEF98E00E94CE2284EFC8
:104D200091E09093D1088093D00880EC0E94CD1E32
:104D30008E3E09F020C489E80E94CD1E682F616074
:104D400089E80E94C32360E088E80E94C32361E0F1
:104D500080E80E94C32361E08FEF0E94C32360E0DC
:104D600080E00E94C32381E90E94CD1E8093D50874
:104D700061E080E00E94C32360E08FEF0E94C323C4
:104D800060E080E80E94C32380E60E94CD1E682F69
:104D9000626180E60E94C32360E270E084E40E94C6
:104DA000EF1E6FEF81E00E94C32361E080E80E9464
:104DB000C32361E08FEF0E94C32360E080E00E9484
:104DC000C32366E08FEF0E94C32383E80E94CD1EB9
:104DD000682F646083E80E94C32367E08FEF0E941E
:104DE000C32361E081E80E94C32361E080E80E9460
:104DF000C3236BE684E90E94C32360E083E80E943A
:104E0000C3230E947C227093D4086093D30883E864
:104E10000E94CD1E811116C08091D0089091D108BA
:104E2000892BA9F30E947C222091D3083091D408C9
:104E3000621B730B8091D0089091D1088617970759
:104E400030F799C361E083E80E94C32382E90E949E
:104E5000CD1EA82E282F2F77D22E60E081E80E9449
:104E6000C32366E08FEF0E94C32383E80E94CD1E18
:104E7000682F6B7F83E80E94C32361E08FEF0E945D
:104E8000C32361E080E00E94C32360E08FEF0E94B3
:104E9000C32360E080E80E94C3238091CF0891E0A3
:104EA0009093CC068093EE061092CD061092EF06FA
:104EB00060EB80E497E00E94C61881E00E946723BF
:104EC0008093CE0866E08091CF080E94E5237E01A2
:104ED0003BE4E30EF11C470157E0C52E2E2C0F2DAD
:104EE000CA94CC2041F080E497E00E947D18F40140
:104EF00081934F01F5CF61E08FEF0E94C32360E003
:104F00008FE40E94C3236CE28EE40E94C32360E01E
:104F10008FEF0E94C32364EB86EB0E94C323A7FE9E
:104F200002C06CE001C060E090E080E041E050E051
:104F3000282F269526952695782F7770F701E20F72
:104F4000F11D861710F09D110AC09A0101C0220FB1
:104F50007A95EAF7209530812323208309C02081A8
:104F600030E002C0359527957A95E2F720FD9F5FE6
:104F70008F5F8033E9F68091CF0891E09093CC0663
:104F80008093EE061092CD061092EF0660EB80E45F
:104F900097E00E94C61847E0D42EDA94DD2041F055
:104FA000F70161917F0180E497E00E94C618F5CF78
:104FB00081E00E9467238093CE0861E08FEF0E941A
:104FC000C32360E080E00E94C32360E08FEF0E9473
:104FD000C32360E089E00E94C32360E080E10E9477
:104FE000C32360E081E10E94C32361E084E20E9468
:104FF000C3236FEF85E20E94C32360E085E70E9430
:10500000C32361E08FEF0E94C3236CE28EE40E9411
:10501000C32360E088E40E94C32360E280E30E942F
:10502000C32360E08FEF0E94C32369E080E30E9406
:10503000C32360E084E50E94C32364E081E30E940F
:10504000C32363E082E30E94C32363E880E40E94F9
:10505000C32365E286E40E94C32360E080E60E94E9
:10506000C32360E087E20E94C32366E080E50E94DC
:10507000C32360E081E50E94C32366E982E50E94C4
:10508000C32368E086E50E94C32360E387E50E94AE
:10509000C32360E081E60E94C32360E082E60E94B1
:1050A000C32360E084E60E94C32360E085E60E949B
:1050B000C32360EA86E60E94C32361E08FEF0E946B
:1050C000C32362E382E20E94C32364E187E40E9477
:1050D000C3236FEF89E40E94C32360E08AE40E9447
:1050E000C32360E08FEF0E94C3236AE08AE70E9437
:1050F000C32360E08BE70E94C32361E288E70E943C
:10510000C32361E08FEF0E94C32364E383E20E9424
:10511000C32360E082E40E94C3236FEF84E40E9413
:10512000C32366E285E40E94C32365E086E40E940F
:10513000C32360E480E40E94C32366E08EE00E9403
:10514000C3236AE180E20E94C32360E483E40E94F7
:10515000C32360E08FEF0E94C32363E084E30E94D7
:10516000C32364E485E30E94C32361E08FEF0E94C0
:10517000C32364E081E30E94C32369E08BE40E94BF
:10518000C32365E08CE40E94C32364E08DE40E94A5
:10519000C32360E08FEF0E94C32360E084E40E9499
:1051A000C32360E285E40E94C32368E087E40E9491
:1051B000C32368E288E40E94C32360E087E60E947C
:1051C000C32364E080E70E94C32361E081E70E947B
:1051D000C3236EEF82E70E94C32360E086E70E944C
:1051E000C32360E087E70E94C32361E08FEF0E9442
:1051F000C32361E08DE00E94C32360E08FEF0E9433
:10520000C32361E080E80E94C32368EF81E00E942D
:10521000C32361E08FEF0E94C32361E08EE80E9408
:10522000C32361E080E00E94C32360E08FEF0E940F
:10523000C32360E080E80E94C32364E08AE00E9408
:10524000C32384E80E94CD1E682F6F7E84E80E94ED
:10525000C32361E08BE00E94C323CE018F5A9F4F8E
:105260000E94D81FBE016F5F7F4FCE018F5A9F4FA4
:105270000E94191F62968FAD6297882349F08B8533
:105280009C85AD85BE858C57924FAF4FBF4F04C0F4
:1052900086E39BE0A0E0B0E064962FAD6497222304
:1052A00069F04B855C856D857E854E545D4F6F4FF3
:1052B0007F4F440F551F661F771F0DC063962FAD9C
:1052C0006397222361F04B855C856D857E854C5606
:1052D0005D4F6F4F7F4F840F951FA61FB71F6596B9
:1052E0002FAD6597222361F04F85588969897A89A6
:1052F0004C565D4F6F4F7F4F840F951FA61FB71FF2
:1053000066962FAD6697222361F04B895C896D8983
:105310007E894A5D5D4F6F4F7F4F840F951FA61F9B
:10532000B71F8093D6089093D708A093D808B0935E
:10533000D90868EE81E00E94C323C090D608D090BF
:10534000D708E090D808F090D908F0E2CF16FEE434
:10535000DF06E104F10408F4D1C0CE018F5A9F4F5B
:105360000E94D81FBE016F5F7F4FCE018F5A9F4FA3
:105370000E94191F62968FAD6297882349F08B8532
:105380009C85AD85BE858C57924FAF4FBF4F04C0F3
:1053900086E39BE0A0E0B0E064962FAD6497222303
:1053A00069F04B855C856D857E854E545D4F6F4FF2
:1053B0007F4F440F551F661F771F0DC063962FAD9B
:1053C0006397222361F04B855C856D857E854C5605
:1053D0005D4F6F4F7F4F840F951FA61FB71F6596B8
:1053E0003FAC6597332061F04F85588969897A8988
:1053F0004C565D4F6F4F7F4F840F951FA61FB71FF1
:1054000066962FAD6697222309F478C04C015D01A2
:1054100026E2820E22E0921EA11CB11CC814D904FF
:10542000EA04FB0408F46AC0AB81B0E020E03FE28C
:105430004AE350E00E940D332B013C0134EF430E50
:1054400031E0531E611C711CA7019601281939090E
:105450004A095B09A8EEB3E00E940D334B015C01E1
:10546000C301B20120ED37E040E050E00E94573325
:10547000820E931EA41EB51EC301B20128EE33E0B6
:1054800040E050E00E945733C501B4010E945733F9
:10549000332031F08F819885280F391F411D511D10
:1054A0002115310541055105E1F029013A0181E05D
:1054B000481A51086108710860E070E0D301C20128
:1054C0008827892B8A2B8B2B39F0769467945794F5
:1054D00047946F5F7F4FF2CF762F66276429752937
:1054E00002C060E070E081E70E94EF1EC092D60823
:1054F000D092D708E092D808F092D90861E081E014
:105500000E94C32380E40E9488228823A1F162E0E4
:1055100081E00E94C32380E00E948822882359F101
:1055200068EE81E00E94C32361E080E80E94C3230B
:1055300061E08FEF0E94C32360E080E00E94C323FC
:105540006091D50881E90E94C32361E080E00E9458
:10555000C32360E08FEF0E94C32360E080E80E94D5
:10556000C32362E080E00E94C32390910001E1E048
:10557000F1E080E001C0FFCF958786878F5F3F967F
:105580008532D1F762ED73E0CE0101960E9470136F
:1055900023E041E060E0CE0101960E94E722CE01C7
:1055A00001960E94F51F6CE271E080E090E00E949D
:1055B0004222612F70E06F5F7F4F822D902F0E94FB
:1055C000462065EE73E0CE018F5A9F4F0E94701304
:1055D000622D702FCE018F5A9F4F0E94FA1FBC017F
:1055E000CE0101960E94561320E043E060E0CE0118
:1055F00001960E94E722CE0101960E94F51FCE017E
:105600008F5A9F4F0E94F51F822D902F0E94F51FE9
:1056100068E572E080E090E00E94422263EF73E070
:10562000CE0101960E94701320E043E060E0CE01BD
:1056300001960E94E722CE0101960E94F51F6CE2BE
:1056400071E080E090E00E94422263E074E0CE01CD
:1056500001960E94701320E043E069E6CE010196B6
:105660000E94E722CE0101960E94F51F10E0812FD3
:105670000E94930B0E947E2062E070E080E090E048
:105680000E9442221F5F1F3F91F768EE73E080E0A7
:1056900090E00E9442228CEF98E00E94CE221E01F0
:1056A00091E4290E311CEE24EA94E3E0FE2EFFE79C
:1056B0004F2E512C612C712C0E947C224B015C01DD
:1056C0006093C5057093C6058093C7059093C80580
:1056D00073E8C72E75E0D72E00E010E000FF02C08F
:1056E00061E001C060E088E00E94A62101FF02C0E5
:1056F00061E001C060E089E00E94A62102FF02C0D3
:1057000061E001C060E08AE00E94A621C80163E078
:10571000959587956A95E1F7892B11F061E001C0B5
:1057200060E08BE00E94A62182E10E941122F60136
:10573000819391936F0183E10E941122F601978F6B
:10574000868F0F5F1F4F0031110541F60E94760AC8
:1057500060937B0570937C0580937D0590937E0517
:10576000C501B4010E94260A0E947C227093D408CD
:105770006093D30883E10E94CD1E8770E1F480918D
:10578000D0089091D108892BA9F30E947C22209106
:10579000D3083091D408621B730B8091D00890918C
:1057A000D1088617970730F781E08093D208CC2480
:1057B000CA94DC2C09C08EE10E94A21E8C0161E01B
:1057C0008BE00E94C3236801860106541109083E3C
:1057D000F3E01F0784F50115110569F160917F055C
:1057E00070918005809181059091820528E030E0DC
:1057F00040E050E00E94EE32A7E0B0E00E940D339E
:1058000017FF02C0095F1F4F53E0159507955A9582
:10581000E1F7012E000C220B330BDC01CB01800FD2
:10582000911FA21FB31F80937F0590938005A093C3
:105830008105B093820524E633E0AE014F5F5F4FF0
:105840006A01DE015996CA01F90141919F01E42FD5
:10585000F0E0EE0FFF1FED57FA4F40815181FC0140
:1058600041935193CF01EA17FB0771F780E593E06D
:10587000FC012191CF01E22FF0E0EE0FFF1FED5769
:10588000FA4F208131814FEF53E0421B530B4D9370
:105890005D93A215B30561F784E10E941122F7011F
:1058A000E81BF90BCF01F1019183808385E10E9410
:1058B00011229701281B390B25963FAF2EAF259754
:1058C00086E10E941122A701481B590B27965FAF62
:1058D0004EAF279787E10E941122F701E81BF90BD1
:1058E0002996FFAFEEAF299780917F0590918005B3
:1058F000A0918105B0918205B7FD0CC08139F1E01E
:105900009F07A105B10524F080E991E0A0E0B0E097
:105910009C0102C020E030E0A1E0BCEF0E94B63361
:1059200020E931E040E050E00E94EE32DA01C901A6
:1059300081509C4FAF4FBF4F2B969FAF8EAF2B9791
:1059400001E011E0B12CAA24A394F8011482F6011D
:10595000219131916F01F80180819181A901481B4A
:10596000590BCA0157FF03C09195819591090B9777
:10597000ECF1F80131832083A1E8BFEF0E94B63338
:105980002FEF33E040E050E00E94EE32BA01A9016F
:1059900041585F4F6F4F7F4FF80153834283A4827A
:1059A000B0927A0580917705882349F09A014637AD
:1059B000510514F025E730E0F80125830CC08091F3
:1059C0006C05882369F09A014A30510514F42AE0E5
:1059D00030E0F8012683A092C30533273383228366
:1059E000F8014585628186850E94760CB394015F3B
:1059F0001F4FF5E2BF12A9CF8091590781110DC049
:105A000080913305882309F460C281E080935907AF
:105A100080917A0580935F072BC080915A0781118E
:105A20002AC080916A05882361F0809158078630EA
:105A300019F41092580703C08F5F809358070E9493
:105A4000CD0C80917505882359F0809158078111FC
:105A500002C086E001C08150809358070E94CD0C9F
:105A600080913305882309F430C281E080935A077E
:105A70000E94CD0C2AC2E09158078E2F90E087300B
:105A8000910508F0FEC1FC01EA5AFF4F0C94B033B7
:105A9000809175058823F9F0E0915F072E2F30E0A3
:105AA0004FE0E49FF0011124EF5FFE4F86858111E6
:105AB00002C08FE701C08150809360078FE0829F12
:105AC000F001839FF00D1124EF5FFE4F809160077E
:105AD00086870E94CD0C80916A05882309F4D1C184
