:100000000C9427070C944F070C944F070C944F0740
:100010000C944F070C944F070C944F070C944F0708
:100020000C944F070C944F070C9475210C94F321FA
:100030000C944F070C944F070C944F070C944F07E8
:100040000C944F070C944F070C944F070C944F07D8
:100050000C944F070C944F070C944F070C942B21D2
:100060000C944F070C944B240C9425240C944F07AC
:100070000C944F070C944F070C944F070C944F07A8
:100080000C944F070C944F070C944F070C944F0798
:100090000C947D240C944F070C944F070C944F073D
:1000A0000C944F070C944F070C944F07AED580A8C3
:1000B0001FD300408D142002A1C8DA02817FD9F13C
:1000C000DB40A4A6AF0000070E2060000000000087
:1000D0000000000000000000000000FC0000000024
:1000E00000000D00000000003C003C00000000008B
:1000F000000000000020F82020F820000107010186
:100100000701006090F89010000004040F04030041
:100110000018249860100C000C020106090600303B
:10012000C8C8300000000708080906090000003CA4
:1001300000000000000000000000000000E01804C3
:1001400002000000030C102000020418E000000070
:1001500020100C0300000080A0C0C0A0800000029E
:100160000101020000808080F08080800000000794
:100170000000000000000000000020180C04000037
:10018000008080808080800000000000000000006F
:1001900000000000000000081C08000000000080B3
:1001A0006018060018060100000000F008844408EA
:1001B000F00003040808040300201008FC000000FD
:1001C0000000000F000000180404844438000C0AEA
:1001D00009080808000804444444B8000608080850
:1001E00008070080601804FC0000010101010F01F4
:1001F000007C24242424C40006080808080700F80A
:1002000084444444880007080808080700040404DC
:10021000C4340C00000C0300000000B84444444403
:10022000B800070808080807007884848444F800A8
:1002300004080808080700002070200000000008DB
:100240001C080000000020702000000020180C0492
:100250000000008040201008000000010204080097
:100260000040404040404000020202020202000002
:1002700008102040800000080402010000048444AB
:1002800024180000000D0000000000F008C4242421
:10029000F8000304090A0A0300F884848484F8003F
:1002A0000F000000000F00FC4444447880000F0859
:1002B0000808080700F804040404180007080808E0
:1002C000080600FC04040408F0000F0808080403F2
:1002D00000FC4444444404000F080808080800FCDB
:1002E0004444444404000F000000000000F80404EB
:1002F0008484980007080808080700FC4040404034
:10030000FC000F000000000F000404FC04040000C7
:1003100008080F080800000000040404FC00060898
:100320000808080700FC4020D00804000F00000067
:10033000030C00FC0000000000000F08080808087B
:1003400000FC1860806018FC0F00000100000FFC2A
:1003500018608000FC000F000001060F00F8040484
:100360000404F80007080808080700FC8484848453
:1003700078000F000000000000F804040404F800F6
:100380000708080E181700FC8484848478000F0086
:100390000102040800384444848408000408080862
:1003A000080700040404FC0404040000000F00001B
:1003B00000FC00000000FC0007080808080700FC1B
:1003C00000000000FC0000030C0C030000FC000017
:1003D000C00000FC030C0300030C030C30C0C03051
:1003E0000C000C030000030C003C408080403C00EB
:1003F0000000000F00000004048444340C000C0AC8
:1004000009080808000000FE0202020000003F2068
:10041000202000061860800000000000000106187F
:1004200000020202FE0000002020203F0000001019
:100430000804040810000000000000000000000094
:10044000000000002020202020200000040C1820A4
:1004500000000000000000000000A0A0A0A0C0005C
:1004600007080808040F00FC40202020C0000F04EB
:100470000808080700C020202020400007080808BE
:10048000080400C020202040FC0007080808040FD2
:1004900000C020202020C0000709090909090080A8
:1004A000F88484840800000F0000000000C02020B1
:1004B0002040E00023444444423F00FC40202020F0
:1004C000C0000F000000000F00002020EC00000022
:1004D0000000000F00000000002020EC00001020B1
:1004E00020201F0000FC0080402000000F010102BE
:1004F00004080000FC0000000000000708080800D5
:1005000000E02020C02020C00F00000300000FE00A
:1005100040202020C0000F000000000F00C020205D
:100520002020C00007080808080700E0402020201D
:10053000C0007F020404040300C020202040E0002B
:1005400003040404027F00E04020202040000F004C
:100550000000000000C020202020400004090909FC
:1005600009060020F82020200000000708080804E1
:1005700000E000000000E00007080808040F00E0A9
:1005800000000000E00000030C0C030000E000008D
:10059000800000E007080403040807204080804032
:1005A000200008040202040800E000000000E0004F
:1005B00023444444423F0020202020A06000080C37
:1005C0000A090808000080807C0202000000001F69
:1005D0002020000000FE0000000000001F000000BE
:1005E0000002027C8080000020201F0000000030FC
:1005F00008081020201800000000000000FEFEFE89
:10060000FEFEFEFE7F7F7F7F7F7F7F00000507204D
:1006100060000000000000005F0000000300030015
:10062000143E143E14242A7F2A124333086661368E
:10063000495522500005030000001C2241000041E2
:10064000221C0014083E081408083E080800503018
:100650000000080808080800606000002010080476
:10066000023E5149453E0004027F00426151494625
:1006700022414949361814127F1027454545393E15
:100680004949493201017109073649494936264924
:1006900049493E0036360000005636000008142254
:1006A00041001414141414004122140802015109C9
:1006B000063E4159555E7E0909097E7F4949493602
:1006C0003E414141227F4141413E7F494949417F6D
:1006D000090909013E4141493A7F0808087F004164
:1006E0007F4100304040403F7F081422417F40401E
:1006F00040407F020C027F7F0204087F3E4141415F
:100700003E7F090909061E2121215E7F090909761C
:10071000264949493201017F01013F4040403F1FC6
:100720002040201F7F2010207F41221C22410708EB
:100730007008076151494543007F410000020408E9
:1007400010200000417F00040201020440404040AC
:1007500040000102040020545454787F444444383B
:100760003844444444384444447F3854545418046E
:10077000047E0505085454543C7F08040478004462
:100780007D40002040443D007F1028440000417F10
:1007900040007C047804787C08040478384444449D
:1007A000387C14141408081414147C007C08040405
:1007B000485454542004043F44443C4040207C1C92
:1007C0002040201C3C4030403C44281028440C5021
:1007D00050503C4464544C44000836414100007F72
:1007E0000000414136080002010204027F7F7F7F42
:1007F0007F00030C0F30333C3FC0C3CCCFF0F3FC81
:10080000FF080B00020202000009040000010202BE
:100810000000052400100105240101010424020642
:1008200005240600010705810310004009040100AA
:10083000020A0000000705020240000007058302CB
:100840004000000403090412010002EF02014041CC
:1008500023368000010102030141726475696E6FE5
:10086000204C4C43004D494E544120466C656D6907
:100870006E67204D756C74694C464F00AC00198052
:10088000200022080D0E2060040205060708090258
:100890000303050802040204070407070707070704
:1008A00007070202070707080E09080808070709D3
:1008B00008020708070B0809070909070808090DB6
:1008C00007080804040406080307070607070507C6
:1008D00007020306020A0707070705060507070BB5
:1008E00006070505010507080000000000000000DC
:1008F000FEFE18181E1E001E1E000000000090F8CC
:100900009E90F89E1C00001C0000183C26FF66CC40
:1009100088040C183C180C041C221CC0308E40802B
:1009200000001804000C100C80CC7E72F2DE0C80EB
:10093000000C1C1010101C0C1C101E1E0000F0FCE3
:10094000061C7CC006FCF0C07C1C14140E141400A1
:1009500000000000606060FCFC6060600000000C53
:100960000C00000000005838C0C0C0C000000000EB
:100970000000181800C0380618040000F8FC0E0625
:100980000EFCF8040C1C181C0C04180CFEFE0000D5
:100990001C1C181C86C6663E1C181C1C181818182F
:1009A000888C062626FEDC040C1C18180C04C0E0FB
:1009B000B88CFEFE80040404041C1C04707E3E36C9
:1009C00036F6C60C1C1818180C04F8FC6E6666EE99
:1009D000CC040C1818181C0C060606E6761E060039
:1009E000001C1C0000009CFE666666FE9C0C1C1829
:1009F00018181C0C3C7E666666FCF80C1C18181C4B
:100A00000C0418181818181858386060F0F09898E6
:100A10000C0000000004040CD8D8D8D8D8D8D800CE
:100A20000000000000000C9898F0F060600C0404D6
:100A300000000000080C06C6E6763C18000000180E
:100A400018000000E03008C4F63A1A1AF2FA7E04E0
:100A500008F00C30604C9C98988C9C9C90484C20E2
:100A600000C0F8BE86BEF8C000181C0404040404CC
:100A70001C18FEFE66666666FEDC1C1C181818183C
:100A80001C0CF8FC0E06060E9C08040C1C18181C06
:100A90000C04FEFE0606060EFCF81C1C1818181C9A
:100AA0000C04FEFE66666666661C1C18181818188C
:100AB000FEFE66666666061C1C0000000000F8FC70
:100AC0000E0606C6CEDCC8040C1C181818180C0438
:100AD000FEFE60606060FEFE1C1C000000001C1C2E
:100AE000FEFE1C1C8080000000FEFE0C1C18181866
:100AF0001C0CFEFE603078EC86021C1C000000041A
:100B00001C18FEFE00000000001C1C181818181805
:100B1000FEFE0E7CE000E07C0EFEFE1C1C00000CC5
:100B20001C0C00001C1CFEFE1C78E080FEFE1C1C41
:100B30000000040C1C1CF8FC0E0606060EFCF80453
:100B40000C1C1818181C0C04FEFE6666667E3C1C05
:100B50001C0000000000F8FC0E0686060EFCF804DF
:100B60000C1C18181C0C1C24FEFE6666E6E6BE1C57
:100B7000001C1C0000000C1C18103C7E666666EE13
:100B8000CC0C1C1818181C0C060606FEFE060606E1
:100B90000000001C1C000000FEFE00000000FEFE25
:100BA000040C1C18181C0C04021EFCE000E0FC1EC7
:100BB000020000001C1C1C00000006FEF800F0FEF5
:100BC0000EFEF000F8FE0600001C1C1C0000001CBD
:100BD0001C1C0000060EF8F0F80E06181C04000499
:100BE0001C18060E38F0F0380E060000001C1C0021
:100BF0000000060686E6761E0E06181C1C1818183D
:100C00001818FEFE0606FCFCC0C00638C000000036
:100C100004180606FEFEC0C0FCFC20380E0E38206C
:100C200000000000000000000000000000008080C4
:100C30008080808080800206040000001098D858D0
:100C4000F8F0000C1C18180C1C10FEFE301838F0C0
:100C5000E01C1C0C181C0C04E0F018183830040CB4
:100C600018181C0CE0F0381830FEFE040C1C180C90
:100C70001C1CE0F0D8D8D8F0E0040C18181818089C
:100C800018FCFE1A1A001C1C0000E0F0381830F89E
:100C9000F864ECDCD8CCFC7CFEFE301818F8F01CB4
:100CA0001C0000001C1CFAFA1C1C00FAFAC0FC7C98
:100CB000FEFEE0F098081C1C00041C18FEFE1C1C24
:100CC000F8F81018F8F01818F8F01C1C00001C1C9C
:100CD00000001C1CF8F8301818F8F01C1C0000006C
:100CE0001C1CE0F0381838F0E0040C1C181C0C0434
:100CF000F8F8301838F0E0FCFC0C181C0C04E0F09C
:100D0000381830F8F8040C1C180CFCFCF8F83018F3
:100D1000181C1C00000070F8D8D8D89008181818B3
:100D20001C0C18FCFE1818000C1C1818F8F8000011
:100D300000F8F80C1C18180C1C1C38F8C000C0F87F
:100D40003800001C1C1C000018F8E000F038F0000F
:100D5000E0F81800001C1C0C000C1C1C00001838CB
:100D6000E0E03818181C04041C1818F8E000E0F83B
:100D7000180084FCF83C04001898D878381C1C181B
:100D8000181880FC7E0606007CFCC0C0FEFC06062F
:100D90007EFC80C0C0FC7C00603030706060300041
:100DA000000000000000FE020202020202FE1C100F
:100DB00010101010101C070605040100080A0B0C87
:100DC0000D0900000000240027002A002D0030003B
:100DD000000000002300260029002C002F00000046
:100DE000000200090F0000030401000C00000000D5
:100DF00000000000000000000000000000040802E5
:100E00000110408040102040804080080204018092
:100E100040201002011080102040402000000000FF
:100E2000250028002B002E003100040404040403D4
:100E3000040502020202040302020202060606067A
:100E400006060404020202040400CF250433112420
:100E50001FBECFEFDAE0DEBFCDBF14E0A0E0B1E00F
:100E6000ECE7FCE602C005900D92A233B107D9F77A
:100E700028E0A2E3B4E001C01D92A632B207E1F778
:100E800017E0C6E2D7E004C02197FE010E942D348E
:100E9000C532D107C9F70E94C7270C9431360C948C
:100EA000000090931C0880931B08FC01249131964C
:100EB000E491F22F319719F410921608089581E009
:100EC00080931608089581508F3008F047C0E82FAE
:100ED000F0E0E359F84F0C942D348A078E077C0715
:100EE00082078607AE07AE07AE07910797079B07F5
:100EF0009F07A507AE07A907809180008F77809391
:100F000080000895809180008F7DF9CF80918000CE
:100F1000877FF5CF84B58F7784BD089584B58F7DA5
:100F2000FBCF809190008F778093900008958091FF
:100F300090008F7DF9CF80919000877FF5CF8091D1
:100F4000C0008F778093C00008958091C0008F7D8E
:100F5000F9CF8091C200877F8093C2000895CF931C
:100F6000DF93282F30E0F901E252F24F8491F9012A
:100F7000E350F24FD491F901E65DF14FC491CC23D7
:100F8000A1F081110E946307EC2FF0E0EE0FFF1F2C
:100F9000E053F24FA591B491EC91ED2381E090E004
:100FA00009F480E0DF91CF91089580E090E0FACFDE
:100FB0001F93CF93DF93282F30E0F901E252F24FD5
:100FC0008491F901E350F24FD491F901E65DF14FBC
:100FD000C491CC23A9F0162F81110E946307EC2F36
:100FE000F0E0EE0FFF1FE45EF14FA591B4918FB7D3
:100FF000F894EC91111108C0D095DE23DC938FBFDB
:10100000DF91CF911F910895DE2BF8CFCF93DF931F
:1010100090E0FC01E350F24F2491865D914FFC017A
:1010200084918823D1F090E0880F991FFC01EE5342
:10103000F24FA591B491FC01E45EF14FC591D491BA
:1010400061110EC09FB7F8948C91E22FE0958E232A
:101050008C932881E223E8839FBFDF91CF9108958D
:101060008FB7F894EC91E22BEC938FBFF6CF8251BF
:10107000E82FF0E0EA54F24FE49190917B008E2F3C
:10108000880F880F80729F7D892B80937B008091D1
:10109000450220E4829FC0011124E770E82BE09311
:1010A0007C0080917A00806480937A0080917A003D
:1010B00086FDFCCF809178009091790008953FB72C
:1010C000F8948091950590919605A0919705B0911F
:1010D000980526B5A89B05C02F3F19F00196A11DC4
:1010E000B11D3FBFBA2FA92F982F8827BC01CD0172
:1010F000620F711D811D911D42E0660F771F881FD1
:10110000991F4A95D1F70895CF92DF92EF92FF92FF
:101110000F931F93CF93DF93CDB7DEB729970FB609
:10112000F894DEBF0FBECDBF8091000890910108FA
:10113000892B09F480C0C0900608D0900708E09081
:101140000808F09009080E945F086C157D058E055F
:101150009F0550F40E945F0860930608709307088B
:1011600080930808909309080E945F080091060880
:10117000109107082091080830910908601B710B35
:10118000820B930B6C32714081059105A0F2F894AB
:101190008091FB079091FC079A838983E091000876
:1011A000F0910108DF011196808189879091F707FE
:1011B000E0910A08F0910B0880910C08992309F43A
:1011C00049C09081982B98879081809589238F833F
:1011D0008F818C8388E08B8358856F8149853B8123
:1011E0002C8189819A81508347FD252F3A95208350
:1011F000262F39F0441F00C000006083000000C0AB
:10120000F2CF38E04D9160830000019761F7F093D1
:101210000B08E0930A0849873B832C839A838983D0
:1012200078940E945F086093060870930708809383
:1012300008089093090829960FB6F894DEBF0FBEF0
:10124000CDBFDF91CF911F910F91FF90EF90DF9075
:10125000CF9008959081982B9887908180958923CD
:101260008F838F818E8388E08D8358856F81498538
:101270003D812E8189819A81508347FD252F00C0B1
:1012800000C0208300C000C000C000C000C0608358
:101290000000262F3A9541F0441F000000C000C016
:1012A00000C000C000C0E8CF38E04D9100C06083AE
:1012B00000C0019709F7F0930B08E0930A084987EB
:1012C0003D832E83ABCF8F929F92AF92BF92CF92EE
:1012D000DF92EF92FF924B015C010E945F086B016D
:1012E0007C010E945F086C197D098E099F09683E88
:1012F000734081059105A8F321E0821A9108A108A5
:10130000B10888EEC80E83E0D81EE11CF11C8114E0
:101310009104A104B10429F7FF90EF90DF90CF90E2
:10132000BF90AF909F908F9008952FB7F8946091E1
:1013300091057091920580919305909194052FBF2E
:101340000895089508958093E9008091F20088231C
:1013500019F08AE38093E80008954091EB045091DE
:10136000EC042091E9043091EA0442175307B4F4E5
:101370009091E8009570E1F39091E80092FD19C01A
:101380008093F1008091EB049091EC0401968F73AF
:101390009927892B19F48EEF8093E8008091EB0454
:1013A0009091EC0401969093EC048093EB0481E01F
:1013B000089580E00895DF92EF92FF920F931F93BC
:1013C000CF93DF93D82E8A01EB017B01E40EF51E4B
:1013D000CE15DF0559F0D7FE12C0FE0184910E94A0
:1013E000AD0921968111F4CF0FEF1FEFC801DF91F6
:1013F000CF911F910F91FF90EF90DF90089588811A
:10140000EECF2FB7F89487708093E9009091E800B1
:10141000892F807295FF04C09091F20080E4891BAF
:101420002FBF08957F928F929F92AF92BF92CF92DB
:10143000DF92EF92FF920F931F93CF93DF93C82E0B
:101440008B017A018091F204811110C08FEF9FEF20
:10145000DF91CF911F910F91FF90EF90DF90CF9090
:10146000BF90AF909F908F907F9008958091F004EF
:1014700080FF05C08091E00082608093E000CE2D67
:10148000DF2DD12C8AEFB82E8C2D8770982E8C2DC5
:101490008072882E8C2D8074782E9AE3A92E209746
:1014A00019F4DD2009F452C08C2D0E94010A81112B
:1014B0000AC0BA94BB2051F261E070E080E090E095
:1014C0000E946309ECCF8C171D0611F00CF08C2FD5
:1014D0009FB7F8949092E9002091E80025FD02C0A2
:1014E0009FBFDDCF282F30E0C21BD30B882029F00F
:1014F0008150A0F01092F100FBCFF801C7FC0AC0A8
:10150000815050F041914093F100FACF44914093C3
:10151000F10031968150D0F7020F131FDD2021F02A
:10152000A092E800D12CDCCF8091E80085FD07C0B7
:10153000A092E800DD24D394209791F2F3CF209776
:1015400079F6772069F2A092E800CACF5D9884E628
:101550008093EF04C7017CCF9091F204992319F195
:101560003FB7F89487708093E9008091F20090E093
:10157000481759070CF4CA01282FFB0154E62150E3
:1015800038F028985093EE044091F1004193F7CF42
:10159000009739F02091F200211103C02BE620932F
:1015A000E8003FBF08958FEF9FEF0895615030F03E
:1015B0002091F100FC0120830196F8CF289884E661
:1015C0008093EE040895AF92BF92CF92DF92EF9294
:1015D000FF920F931F93CF93DF936C017B018B01DD
:1015E000040F151FEB015E01AE18BF08C017D1072D
:1015F00059F06991D601ED91FC910190F081E02DB7
:10160000C6010995892B79F7C501DF91CF911F910B
:101610000F91FF90EF90DF90CF90BF90AF90089523
:101620008091E10481110DC082E08093DD0484E0AB
:101630008093DE041092E0041092DF0481E0809336
:10164000E1048DED94E008950F931F93CF93DF9302
:101650001F92CDB7DEB782E0898342E450E061E0BB
:1016600078E080E80E94DB090E94100BDC011296F2
:101670000D911C910115110589F0D801ED91FC9196
:101680000280F381E02DBE016F5F7F4FC801099595
:1016900097FD04C0F80100851185ECCF89810F907A
:1016A000DF91CF911F910F910895FC01538D448DCF
:1016B000252F30E0842F90E0821B930B541710F0FD
:1016C000CF96089501970895FC01918D828D98170A
:1016D00061F0A28DAE0FBF2FB11D5D968C91928DE2
:1016E0009F5F9F73928F90E008958FEF9FEF089513
:1016F000FC01918D828D981731F0828DE80FF11DDC
:10170000858D90E008958FEF9FEF0895FC01918DF6
:10171000228D892F90E0805C9F4F821B91098F73EF
:10172000992708958CE497E00E94860B21E0892B8D
:1017300009F420E0822F089580E090E0892B29F0C1
:101740000E94920B81110C9400000895FC01A48D5D
:10175000A80FB92FB11DA35ABF4F2C91848D90E0D3
:1017600001968F739927848FA689B7892C93A089B6
:10177000B1898C9182748C93938D848D981306C05B
:101780000288F389E02D80818F7D80830895EF9218
:10179000FF920F931F93CF93DF93EC0181E0888F2B
:1017A0009B8D8C8D981319C0E889F989808185FFFC
:1017B00014C09FB7F894EE89FF896083E889F9899E
:1017C0008081827480839FBF81E090E0DF91CF9120
:1017D0001F910F91FF90EF900895F62E0B8D10E062
:1017E0000F5F1F4F0F731127E02E8C8D8E110CC0D1
:1017F0000FB607FCFACFE889F989808185FFF5CF1C
:10180000CE010E94A60BF1CFEB8DEC0FFD2FF11D49
:10181000E35AFF4FF0829FB7F8940B8FEA89FB8958
:1018200080818062CFCFCF93DF93EC01888D8823B6
:10183000B9F0AA89BB89E889F9898C9185FD03C033
:10184000808186FD0DC00FB607FCF7CF8C9185FF18
:10185000F2CF808185FFEDCFCE010E94A60BE9CFAC
:10186000DF91CF910895CF93DF93EC0180910D012B
:10187000882331F083E00E94120A1816190634F00A
:1018800081E090E09B838A8380E090E0DF91CF91BC
:101890000895CF93DF931F92CDB7DEB76983DC0144
:1018A000ED91FC910280F381E02D41E050E0BE011A
:1018B0006F5F7F4F09950F90DF91CF91089583E07F
:1018C0000C94A30983E00E94010A90E00895CF934D
:1018D000DF931F92CDB7DEB7FC018485958597FD18
:1018E00008C02FEF3FEF358724870F90DF91CF910E
:1018F000089541E050E0BE016F5F7F4F82E00E949B
:10190000AC0A019719F4898190E0EFCF8FEF9FEF38
:10191000ECCF0F931F93CF93DF931F92CDB7DEB71A
:101920008C01FC018485958597FF0FC041E050E054
:10193000BE016F5F7F4F82E00E94AC0A019771F495
:10194000898190E0F80195878487F80184859585E1
:101950000F90DF91CF911F910F9108958FEF9FEF1F
:10196000F1CFFC018485958597FD0BC09FB7F89456
:1019700082E08093E9008091F2009FBF90E00196A1
:1019800008959FB7F89482E08093E9008091F20077
:101990009FBF90E00895CF93DF93EC018D8588235E
:1019A00029F081508D87DF91CF9108959C818E81A0
:1019B0009817C8F788896827E881F9810084F1853C
:1019C000E02D42E0CE0109958C818F5F8C83EBCFB7
:1019D000DC01ED91FC910084F185E02D40E009945B
:1019E0000F931F93CF938C01FC016483C085C60FB6
:1019F0006C2F6F700E94E80C6C2F62956F706061A5
:101A0000C801CF911F910F910C94E80CFC01278124
:101A1000269526952695621738F465832385620FEF
:101A20006770606B0C94E80C08951F93CF93DF935D
:101A3000EC01142F8E81681718F4CE010E94F00C6F
:101A4000612FCE01DF91CF911F910C94060DCF92A3
:101A5000DF92EF92FF920F931F93CF93DF93EC01EE
:101A6000F62EC42ED22E1D868F818695869586955C
:101A7000081710F00FEF080F1D2D011780F0412FF0
:101A80006F2DCE010E94150DEF2CCE1430F0688919
:101A9000CE010E94CB0CE394F8CF1F5FEECF4D2D0B
:101AA0006F2DCE01DF91CF911F910F91FF90EF909D
:101AB000DF90CF900C94150D0F93DC0115962C91AF
:101AC00015971E96ED91FC911F9700E0309779F0E5
:101AD0003396E491F0E0379683E0F595E7958A95A3
:101AE000E1F751960C9151970E9F002D1124EFEFC5
:101AF000E20F0E0F16964C911697415014966C916A
:101B00001497CD010E94270D0F9108952F923F92B7
:101B10004F925F926F927F928F929F92AF92BF92FD
:101B2000CF92DF92EF92FF920F931F93CF93DF93A9
:101B300000D000D000D0CDB7DEB7FC0126853785B8
:101B40002115310509F44AC19E838D83F90132962E
:101B5000649031964491E42EF12CF7E0EF0EF11CE5
:101B600053E0F594E7945A95E1F7E982F901349648
:101B700054913196E491651748F08E2F90E0FC0166
:101B8000E50FF11D6E171F060CF469C06D3031F5BD
:101B9000ED81FE81868181111BC081E090E0269657
:101BA0000FB6F894DEBF0FBECDBFDF91CF911F916E
:101BB0000F91FF90EF90DF90CF90BF90AF909F90EC
:101BC0008F907F906F905F904F903F902F900895EF
:101BD00060E08D819E810E94F00CDFCF6A3009F0B9
:101BE000FDC0ED81FE818681882321F060E0CF0178
:101BF0000E94F00CED81FE8181898E9DE02C1124E4
:101C000065816E0D8485882349F097819695969518
:101C100096958E2D891B860F18162CF08D819E812E
:101C20000E94060DBACFED81FE812385820F877059
:101C300083879E199583CF010E945C0DED81FE8103
:101C40008485813009F0A9CF6385660F660F660F22
:101C50006F7362876064CF010E94E80C9ECF890198
:101C60000A5F1F4F651BED81FE8171855189759F4C
:101C7000502D11245C83F90154912F5F3F4FF901DE
:101C80002491352F2230310508F06AC06E9CC001C6
:101C90006F9C900D1124689FF001699FF00D112435
:101CA0000E0F1F1F512CED81FE81F481FA83ED810F
:101CB000FE812580F585FB83862C912CAA24A39494
:101CC000B12C312C8981381608F086C0412CED8169
:101CD000FE818189481608F078C08B818587311094
:101CE00002C0442041F0ED81FE8145814F5F6A8151
:101CF000CF010E94150DD12CC12CC61408F058C07C
:101D0000F801EC0DFD1D7490552061F0EA14FB0400
:101D100049F4E72DF0E0052C02C0F595E7950A940B
:101D2000E2F77E2EED81FE818189823081F44420AC
:101D300009F43AC072948FE07822E72DF0E0EF507A
:101D4000F84F7490672D8D819E810E94CB0C672D7A
:101D50008D819E810E94CB0C8FEFC81AD80ACDCFFF
:101D6000477028E0522E541A411101C0512CF8013D
:101D7000612C30E020E0661631F04491240F311DD3
:101D800063943196F8CF600E712E711CF30164904C
:101D9000E29EF001E39EF00DF29EF00D11248E0FF5
:101DA0009F1F080F191F7FCFF72DFF707F2EC5CF04
:101DB000D12CEC81DE1639F060E08D819E810E948D
:101DC000CB0CD394F6CF439482CF3394080D191DD6
:101DD000FFEFAF1ABF0A76CF622D20CF90E080E0F0
:101DE000DECE0F93CF93DF93EC011B861A8660E45F
:101DF0000E94E80C0F8106950695069501504E81CC
:101E0000415020E060E0CE010E94270DDF91CF918C
:101E10000F9108952091BA04260F3327331F2132E2
:101E20003105ECF42091E105FC0190E080E02430E4
:101E300069F082E00895A091BA042191AC01465660
:101E40005B4FA40FB52FB11D2C930196861798F305
:101E50008091BA04680F6093BA0480E0089581E02D
:101E600008951092E10581E08093E0051092BB0592
:101E700061E082E00E94D80761E083E00E94D80719
:101E8000E9EBF0E080818E7F808380818D7F80838D
:101E900088E48093B80085E48093BC000895CF93D4
:101EA000DF9391E0909399048823B9F0C091B80032
:101EB000D091BA008091BC008A7B8093BC0060E026
:101EC00082E00E94D80760E083E00E94D8070E9469
:101ED000310FD093BA00C093B800DF91CF9108952D
:101EE0008F929F92AF92BF92CF92DF92EF92FF922A
:101EF0000F931F93CF93DF93D0910A06D13208F04E
:101F0000D7C0182FC09109060E945F086B017C01A1
:101F10008091E10581116BC082E08093E10510930F
:101F2000E0058FEF8093DF051092DE05D093DD058D
:101F3000A9EEB5E0EDEBF5E080E0D81391C010928A
:101F4000BC058091BC05CC0FC82BC093BC0580910B
:101F5000BB05813009F088C01092BB050E945F0864
:101F60006B017C018091BC058093BB008091E305EF
:101F70009091E405A091E505B091E605892B8A2BA7
:101F80008B2BA1F00E945F080091E3051091E405FE
:101F90002091E5053091E6056C197D098E099F09B0
:101FA000061717072807390708F442C08091BC00BC
:101FB00083FDD8CF85EC8093BC000E945F086B0145
:101FC0007C018091E105823009F450C08091DF05E9
:101FD0008F3F09F46FC08091DF05803209F46CC037
:101FE0008091DF05803309F469C084E026C08091C8
:101FF000E3059091E405A091E505B091E605892BF4
:102000008A2B8B2B09F484CF0E945F088090E30514
:102010009090E405A090E505B090E6056C197D0967
:102020008E099F0986169706A806B90608F070CF94
:102030008091E2050E944F0F85E01092E805109212
:102040000A061092E705DF91CF911F910F91FF9043
:10205000EF90DF90CF90BF90AF909F908F900895BA
:102060009D9191938F5F69CF85EEA5CF8091E30518
:102070009091E405A091E505B091E605892B8A2BA6
:102080008B2B09F49ECF0E945F080091E30510910D
:10209000E4052091E5053091E6056C197D098E096E
:1020A0009F09061717072807390708F08ACFC0CFFE
:1020B00081E0C3CF80E0C1CF82E0BFCF83E0BDCF5E
:1020C000CF92DF92EF92FF920F931F93CF93DF9304
:1020D000D82FC62F613208F098C00E945F086B01AC
:1020E0007C018091E10581116BC081E08093E10565
:1020F0008093E0059FEF9093DF051092DE059C0F23
:102100009093DD058093BC058091BC05DD0FD82B35
:10211000D093BC058091BB05813009F078C0109246
:10212000BB050E945F086B017C018091BC05809318
:10213000BB008091E3059091E405A091E505B09185
:10214000E605892B8A2B8B2BA1F00E945F0800915A
:10215000E3051091E4052091E5053091E6056C1941
:102160007D098E099F09061717072807390708F404
:1021700048C08091BC0083FDD8CF85EC8093BC0023
:102180000E945F086B017C018091E105813009F4B8
:1021900040C08091DE058C1710F4C091DE05EDEB98
:1021A000F5E0ABE9B5E080E08C1355C08C2FDF91F2
:1021B000CF911F910F91FF90EF90DF90CF900895F6
:1021C0008091E3059091E405A091E505B091E605C5
:1021D000892B8A2B8B2B09F484CF0E945F080091F6
:1021E000E3051091E4052091E5053091E6056C19B1
:1021F0007D098E099F09061717072807390708F078
:1022000070CF8091E2050E944F0FC0E0CFCF85EEE6
:10221000B5CF8091E3059091E405A091E505B091DB
:10222000E605892B8A2B8B2B09F4AECF0E945F0821
:102230000091E3051091E4052091E5053091E60554
:102240006C197D098E099F0906171707280739079A
:1022500008F09ACFD6CF91919D938F5FA5CF089527
:10226000E0919A0580919905E81730F4F0E0E55681
:10227000FA4F808190E008958FEF9FEF089590913D
:102280009A05809199052FEF3FEF981748F4E92FB1
:10229000F0E0E556FA4F208130E09F5F90939A0579
:1022A000C90108958091990590919A05891B990B10
:1022B0000895CF92DF92EF92FF920F931F93CF93E7
:1022C000DF937C01CB018A012091E705222389F06D
:1022D000EB016B01C40ED51ECC15DD0569F06991CB
:1022E000D701ED91FC910190F081E02DC701099596
:1022F000F3CF642F0E940A0FC801DF91CF911F9185
:102300000F91FF90EF90DF90CF900895CF93DF93E0
:102310001F92CDB7DEB769832091E7052223F9F03C
:1023200020910A06203258F021E030E0FC0133838E
:10233000228390E080E00F90DF91CF91089580910B
:10234000E805E82FF0E0E751FA4F998190838F5F1D
:102350008093E80580930A0681E090E0ECCF61E08D
:10236000CE0101960E940A0FF7CF1F93CF93DF9300
:10237000162FCBEED7E0998121E02093E7059093CB
:1023800009061092E80510920A06682F8BE596E080
:102390000E948611612F8BE596E00E94861181E0F4
:1023A0000E94700F8883DF91CF911F9108950F9342
:1023B0001F93CF93DF93162F072FCBEED7E0998192
:1023C00021E02093E705909309061092E80510920A
:1023D0000A06682F8BE596E00E948611602F8BE538
:1023E00096E00E948611612F8BE596E00E9486118F
:1023F00081E00E94700F8883DF91CF911F910F9130
:102400000895AF92BF92CF92DF92EF92FF920F9317
:102410001F93CF93DF9300D000D000D01F92CDB791
:10242000DEB78C015C0162E5A60EB11C7C0173E590
:10243000E70EF11C80E4C82ED12C44E050E0BE0130
:102440006F5F7F4FD80113968C910E94AC0A009762
:1024500009F45DC0049709F05AC08A819B81E98123
:10246000EF70E25030E020E0EE30B0F4F0E0E55CF8
:10247000FD4E0C942D347B128012801249127B1277
:10248000801280128012801280127B127B128012C6
:1024900049128D8321E030E0F5014081D7018C9114
:1024A00090E0805C9F4F841B9109B6010E94193413
:1024B000F601E81BF90BE217F3070CF4BECFFE019F
:1024C00035962E0F3F1FE217F30709F4B6CFD70159
:1024D0008C9190E0BC016F5F7F4F6F737727461739
:1024E00041F0800F911F5081DC0152965C93D7011F
:1024F0006C933196E8CF8D839E8322E030E0CCCF81
:102500002C818D839E832F8323E030E0C5CF2796D7
:102510000FB6F894DEBF0FBECDBFDF91CF911F91F4
:102520000F91FF90EF90DF90CF90BF90AF90089504
:10253000CF93DF93EC010E940112FE01EE5AFF4F90
:102540002081DE01AD5ABF4F8C91281769F030E031
:10255000C20FD31F8A892F5F3F4F2F7333272083EA
:1025600090E0DF91CF91089580E0FACF90E080E095
:102570000895CF93DF93CDB7DEB7CC55D1090FB611
:10258000F894DEBF0FBECDBFFC01DB019C919E5FC6
:102590009C939E012D5F3F4F86E5D9011D928A9540
:1025A000E9F739E0398364E06A8391E09E839F8391
:1025B0003A8754E25B879C879E873F87998B43E0ED
:1025C0004A8B3B8B6C8B22E02F8B988F498F87E057
:1025D0008C8F5D8F9E8F98A381E489A386E08BA367
:1025E0005CA32DA39EA39FA389A75AA72BA72CA7C3
:1025F0002DA73FA758AB49AB9AAB4BAB9CAB2DABD0
:102600009EAB38AF59AF4AAF2BAF6CAF9DAF9EAF0B
:102610009FAF22963FAF229755E023965FAF239757
:1026200025962FAF259760E426966FAF26972B96B9
:102630005FAF2B9785E22C968FAF2C972D969FAF8F
:102640002D972E969FAF2E972F969FAF2F97609620
:102650003FAF609761965FAF619763962FAF6397C7
:1026600064966FAF649769965FAF69976A968FAF0C
:102670006A976B969FAF6B976C969FAF6C976D96B2
:102680004FAF6D9792819B839F5F9D8B8381249633
:102690008FAF24978F5F806862968FAF62974CE50B
:1026A00050E0BE016F5F7F4F80E00E94DB09C45A9B
:1026B000DF4F0FB6F894DEBF0FBECDBFDF91CF91D5
:1026C000089580E00895FC0182818F5BFB01808387
:1026D00081E00895DC018D919C91DC01ED91FC91EC
:1026E0000190F081E02D0994CF93DF93EC012881D4
:1026F0003981C901880F991F820F931F97FD039697
:10270000DC01B595A795B595A795A60FB71FB98319
:10271000A883B7FD1396B595A795B595A7952FE016
:1027200034E00E943334683F2FE172078105910540
:1027300064F12FEF33E0683F4BE1740740E1840719
:10274000910544F42FEF33E040E050E00E945F3306
:10275000285031091D828A819B81A901481B590B90
:10276000CA0157FF03C0919581959109099754F0CB
:102770003B832A8383E0359527958A95E1F72C835F
:1027800081E08D83DF91CF91089530E020E0E2CFAA
:10279000CF92DF92EF92FF920F931F93CF93DF932D
:1027A00005E415E0CFE0D1E07E01CC24CA9483E0BB
:1027B000D82EF801819191918F01B601681B790B98
:1027C000C7010E947413FAE0EF0EF11C85E0013896
:1027D000180779F72091F8043091F9044091FA0430
:1027E0005091FB042139E1E03E074105510524F0F9
:1027F00020E931E040E050E057FF03C020E030E046
:10280000A901AFEFB3E00E947E3320E931E040E060
:1028100050E00E945F33B9018BE392E00E94741391
:1028200030913705409142059091FC042091FD04C0
:1028300080E05D81552361F0981326C04423C9F0E0
:102840009C81953708F095E79E839C83982F242FD1
:102850008F5F2A968F3169F72093FD049093FC04D3
:10286000DF91CF911F910F91FF90EF90DF90CF906C
:102870000895332369F39C819A3008F49AE09F838A
:102880009C83982F232FE4CF3111E2CF4111E0CF69
:10289000982FDECFEF92FF920F931F93CF93DF938A
:1028A00005E415E0D0E0C0E033E2E32EF12C61E076
:1028B000C0FF60E088E00E94D80761E0C1FF60E0EF
:1028C00089E00E94D80761E0C2FF60E08AE00E94D0
:1028D000D807CE0123E0959587952A95E1F761E029
:1028E000892B09F460E08BE00E94D807C7010197AB
:1028F000F1F782E10E943708F801819391938F01EB
:1029000083E10E943708F801958F848F2196CF309C
:10291000D10569F6DF91CF911F910F91FF90EF9054
:1029200008958F929F92AF92BF92CF92DF92EF92D3
:10293000FF92FC01118612861682178260838085C1
:10294000611129C0811108C0118281E080878683CE
:1029500022833383448355838181811113C0808511
:10296000882381F082819381A481B581281B390B52
:102970004A0B5B0B253F3140410551051CF081E0BE
:1029800082878183FF90EF90DF90CF90BF90AF90D0
:102990009F908F9008958823F9F2108681E08783B5
:1029A000C280D380E480F58049015A018C189D08CB
:1029B000AE08BF08750164019CE2C91691E0D90612
:1029C000E104F1044CF68187C7CFCF92DF92EF92FA
:1029D000FF920F931F93CF93DF9360E08CE00E94F0
:1029E000D80783E090E00197F1F761E08CE00E9466
:1029F000D807C7E0D0E0C12CD12C760103E010E06D
:102A000085E00E94AF07092E000CAA0BBB0B0C2E11
:102A100004C0880F991FAA1FBB1F0A94D2F7C82AA7
:102A2000D92AEA2AFB2A61E086E00E94D807C80179
:102A30000197F1F760E086E00E94D807219700F740
:102A4000C701B601DF91CF911F910F91FF90EF90D9
:102A5000DF90CF9008950F931F9340918C05509174
:102A60008D0560918E0570918F058A019B0104C0D0
:102A700036952795179507958A95D2F7C8018170E5
:102A80001F910F910895CF92DF92EF92FF920E94D3
:102A900095096B017C0184E00E942B15A70196012A
:102AA000682F8AE395E00E9491140E9495096B01BA
:102AB0007C0185E00E942B15A7019601682F8FE20B
:102AC00095E00E9491140E9495096B017C0186E0BB
:102AD0000E942B15A7019601682F81E895E00E94BE
:102AE00091140E9495096B017C0180E00E942B15D6
:102AF000A7019601682F8EEF94E00E9491140E9426
:102B000095096B017C0181E00E942B15A7019601BC
:102B1000682F89E095E00E9491140E9495096B014D
:102B20007C0182E00E942B15A7019601682F84E1A9
:102B300095E00E9491140E9495096B017C0183E04D
:102B40000E942B15A7019601682F8FE195E0FF9059
:102B5000EF90DF90CF900C949114CF92DF92EF9290
:102B6000FF920F931F93CF93DF93EC010E9495097F
:102B7000C980DA80EB80FC809701860108531F4FE3
:102B80002F4F3F4F601771078207930708F04AC025
:102B90000E9495099B01AC012C193D094E095F0962
:102BA000A4E0B1E00E947E3369337F4F8F4F9F4F87
:102BB000ACF1C980DA80EB80FC800E9495099B0112
:102BC000AC012C193D094E095F09A4E0B1E00E9457
:102BD0007E3368307D498105910514F5C980DA801E
:102BE000EB80FC800E9495099B01AC012C193D09EA
:102BF0004E095F09A4E0B1E00E947E3328EC30E08A
:102C000040E050E00E945F332883DF91CF911F9115
:102C10000F91FF90EF90DF90CF90089520E0F4CFD8
:102C200028ECF2CF8FEF8883F0CF8AE295E00E9404
:102C3000AD1588E394E00E94AD1583E394E00C9415
:102C4000AD15CF93DF93EC010E94950969837A83D8
:102C50008B839C83DF91CF91089587E00E94AF071B
:102C6000892B21F483E394E00C9421160895AF920C
:102C7000BF92CF92DF92EF92FF920F931F93CF9369
:102C8000DF9390EC699FB0011124672F770F770BCA
:102C90008B010F71112733E0000F111F3A95E1F7F7
:102CA000C22ED12C50E0CFEFD0E0DE01A41BB50B3B
:102CB000AC9DF001AD9DF00DBC9DF00D11243F2F9A
:102CC000409F7001419FF00C509FF00C1124EF2C9D
:102CD000FF24A0E0B1E05D01AE18BF08AC9C70011C
:102CE000AD9CF00CBC9CF00C1124C01BD10BC49FFC
:102CF0008001C59F100DD49F100D1124012F1127A5
:102D0000A01BB10BAC9DA001AD9D500DBC9D500D05
:102D10001124952F629566956770623009F458C04A
:102D200008F04AC0662319F0613009F44EC0A82F9C
:102D3000B0E04091F9075091FA07A417B50788F55C
:102D40006091FF07662361F0269FA0011124252FC3
:102D5000699FA0011124952F639FB0011124372F83
:102D6000E091050840910008509101086091020827
:102D7000E6133AC0E3E08E9F400D511D1124E0910F
:102D80000208E40FF52FF11D2083E0910308E40F02
:102D9000F52FF11D908380910408480F511DFA0111
:102DA0003083DF91CF911F910F91FF90EF90DF90D3
:102DB000CF90BF90AF900895643091F068F0653087
:102DC00009F0B5CF9F2F3F2DB2CF922F2F2DAFCF30
:102DD000922F2F2F352FABCF9F2D322F2F2FA7CFF5
:102DE000322F252F9F2FA3CFAA0FBB1FAA0FBB1FC8
:102DF0004A0F5B1FE40FF52FF11D1082C0CFEF9239
:102E0000FF921F93CF93DF93182FEFE0F1E045E49B
:102E100052E030E020E0A6E084816A2F0E94F9337E
:102E2000280F311D3A964E175F07B1F7C901C296B8
:102E3000EE24EA94F12CB7010E941934EC01212F01
:102E40004FEF682F80E00E943716CE010A96B70137
:102E50000E941934212F40913804682F83E00E948A
:102E60003716CE014E96B7010E941934212F40919A
:102E70003304682F82E00E943716CE018896B7018E
:102E80000E941934212F40912A05682F81E0DF919B
:102E9000CF911F91FF90EF900C9437160F931F93D3
:102EA000CF93DF93EC01162F042F2130E9F0B8F017
:102EB0002330E9F081E080931E08402F612F8DE0E0
:102EC00098E00E94150D4C815D81688179818DE0CB
:102ED00098E0DF91CF911F910F910C94E30A8BE062
:102EE00096E00E945107E6CF85EC90E0FACF82E8A9
:102EF00098E0F7CFFC016093BC008091BC0087FF95
:102F0000FCCF9091B900987F90830895DF92EF9263
:102F1000FF920F931F93CF93DF93EC01D62EF42EE5
:102F20008C89882351F0411108C084E98093BC004A
:102F30008091BC0084FDFCCF1C8A8E010E5E1F4F69
:102F40008C8981111AC0EB8864EAC8010E947A1743
:102F50008A89883011F0803139F4EE0CE092BB00A0
:102F600064E8C8010E947A1780E0F11080E4809341
:102F7000BB0064E8C8010E947A17D092BB0064E8E5
:102F8000C8010E947A1782E0F8120BC08C898F5F0B
:102F90008C8BDF91CF911F910F91FF90EF90DF907D
:102FA000089584E98093BC008091BC0084FDFCCF2F
:102FB0001C8AEFCF089590E080E00895CF93DF93CF
:102FC000CBEED7E0998121E02093E70590930906A5
:102FD0001092E80510920A06682F8BE596E00E9491
:102FE000861181E00E94700F888362E089810E94CF
:102FF000601010929A05809399058BE596E00E94E7
:103000003F11D82F80E0C82F8BE596E00E943F113A
:103010008C2B9D2BDF91CF910895CF93DF93CBEE37
:10302000D7E0998121E02093E7059093090610925B
:10303000E80510920A06682F8BE596E00E9486113B
:1030400081E00E94700F888361E089810E94601096
:1030500010929A05809399058BE596E00E943F11A6
:10306000DF91CF910895CF93DF93EC0181E00E942F
:103070000D1884FB992790F9988383FB992790F981
:103080009A8382FB992790F9998386FB992790F977
:103090009B83881F8827881F8C83DF91CF91089599
:1030A000682F616080E00E94B5110E9495097093BD
:1030B000F1076093F00783E10E940D188770B9F45F
:1030C0008091ED079091EE07892BA9F30E94950955
:1030D0002091F0073091F107621B730B8091ED078F
:1030E0009091EE078617970730F780E0089561E02A
:1030F0008BE00E94B51160E080E00E94B51181E094
:1031000008958F929F92AF92BF92EF92FF920F938A
:103110001F93CF93DF937C01EB0180E50E940D1894
:103120008F5F880F90E09983888386E40E940D1852
:10313000082F10E00F5F1F4F1D830C83A881B0E0A4
:1031400020E03FE24AE350E00E947E336C507E4F25
:103150008F4F9F4F38EE832E33E0932EA12CB12C4E
:10316000A50194010E94C833D8010E9489336C5094
:103170007E4F8F4F9F4FA50194010E94C8332A872D
:103180003B874C875D8781E50E94DE178C01112704
:1031900002C0000F111F9A95E2F70F5F1F4F1F83A8
:1031A0000E83A881B0E020E03FE24AE350E00E94B5
:1031B0007E336C507E4F8F4F9F4FA50194010E942C
:1031C000C833D8010E947E336C507E4F8F4F9F4F83
:1031D000A50194010E94C8332E873F87488B598BE5
:1031E00080E70E940D188F5F880F90E09B838A8391
:1031F00081E70E94DE179C01992702C0880F991F62
:103200003A95E2F7019699878887F701238122236F
:1032100031F02E813F81821B930B99878887AA8189
:10322000B0E020E03FE24AE350E00E947E336C5081
:103230007E4F8F4F9F4F28EE822E23E0922EA12C9F
:10324000B12CA50194010E94C833A885B9850E94BC
:103250007E336C507E4F8F4F9F4FA50194010E948B
:10326000C8332A8B3B8B4C8B5D8BDF91CF911F91A9
:103270000F91FF90EF90BF90AF909F908F90089527
:10328000CF93DF93EC0188819981009711F00E9420
:10329000D634198218821D821C821B821A82DF9109
:1032A000CF910895FC0180819181009711F00C94D9
:1032B000D634089580919104811133C082E08093C7
:1032C00041048093420480E091E090934404809311
:1032D0004304109246041092450487E592E09093CF
:1032E0003E0480933D0410924804109247041092CB
:1032F000490410924D0410924E0410924A04109208
:103300004B0410924C0410928F0410929004EFE43E
:10331000F4E080E4DF011D928A95E9F781E0809373
:1033200091048DE394E008950E945A19FC01838171
:103330008F5F0C94A309CF93DF930E945A19EC017D
:103340000E940112FE01EE5AFF4FE081DE01AD5AEC
:10335000BF4F8C91E81741F0EC0FFD2FF11D8289D2
:1033600090E0DF91CF91089580E0FACF0E945A1942
:103370000C949812CF93DF930E945A19EC010E948B
:103380000112FE01EE5AFF4FCD5ADF4F81E090E06F
:1033900030812881321302C090E080E0DF91CF912C
:1033A00008950F931F93CF93DF9300D000D0CDB734
:1033B000DEB7182F0E945A19FC0117FF6DC0183F85
:1033C00079F01A3F10F01D3F59F48CE0810F8330E3
:1033D000B8F48285856089831A831B821C8257C05A
:1033E00082858F6089831A831B821C82838144E0DB
:1033F00050E0BE016F5F7F4F8F5F0E94120A06C0D0
:10340000103F79F481E0818B1587808B81E090E01B
:103410000F900F900F900F90DF91CF911F910F9110
:103420000895173FB1F5808961E0680F608B9F01B7
:10343000280F311DD9011D961C938B5F9285892B16
:103440008983AF01435F5F4FCE0101969C01062F38
:1034500010E0B901681B790B6017710770F0D80193
:10346000A80FB91F9D01281B390B2330310570F4BB
:1034700011961C9211971196F5CFDA016D91AD015D
:10348000D90111966C932F5F3F4FE3CF118A108AB9
:10349000ADCF1487108ABACFA08941E04A0F408B84
:1034A000A80FB92FB11D1D961C938189882369F03F
:1034B000433009F0ABCF82858460898385858A8318
:1034C00086858B8387858C83E2CF9485292F30E096
:1034D000892F807F803B61F0B8F4803849F018F480
:1034E0008823C1F293CF803919F0803A09F08ECF4A
:1034F000423009F08BCF44E0359527954A95E1F7A6
:103500008285282B29832DC0803D21F078F4803CD2
:1035100009F07CCF413009F079CF84E035952795CB
:103520008A95E1F78285282B298311C0803E01F31B
:10353000803F09F06BCF892F8F70823061F083302C
:1035400019F0813009F062CF8285826089839A8385
:1035500085858B8343CF423009F058CF82858360C5
:1035600089839A8385858B838685ADCF862F0C943E
:10357000D1191F93CF93DF93182FD62FC42F40312B
:10358000B0F4642F60698091A6069091A7060E940E
:103590006A13612F8091A6069091A7060E946A1374
:1035A0006D2F8091A6069091A7060E946A1380E96C
:1035B000D11101C080E8CF708C2B0E94D119812FCE
:1035C0000E94D1198D2F0E94D1198AE295E00E94A4
:1035D0002116DF91CF911F910C942D16CF93DF937D
:1035E0000E945A190E9401120E945A19EC010E946D
:1035F0000112FE01EE5AFF4FCD5ADF4F90818881B4
:10360000981791F00E945A190E949812682F8CE422
:1036100097E00E94C70B83E394E00E9421168AE2A0
:1036200095E00E942116E0CF8CE497E00E94130CF5
:103630008CE497E00E94860B892BA9F08CE497E03C
:103640000E94640BC82F0E94D1196C2F8CE497E064
:103650000E94C70B88E394E00E9421168AE295E05D
:103660000E942116E5CF0E945A19FC0183818F5FC9
:10367000DF91CF910C94A3098F929F92AF92BF924A
:10368000CF92DF92EF92FF924B015C010E9495096D
:103690006B017C010E9495096C197D098E099F09B7
:1036A000681579058A059B0518F40E94EE1AF2CF79
:1036B000FF90EF90DF90CF90BF90AF909F908F9052
:1036C00008950E941C360F931F93CF93DF93EC0154
:1036D00088819981009759F02A813B812617370705
:1036E00030F081E0DF91CF911F910F9108958B0110
:1036F0006F5F7F4F0E945F35009759F099838883F1
:103700001B830A832C813D81232B59F7FC011082F6
:10371000E8CF80E0E7CFEF92FF920F931F93CF9314
:10372000DF936115710541F480E0DF91CF911F9126
:103730000F91FF90EF90089541155105B1F07B0175
:10374000EC010C811D81040F151FB8010E94631B41
:10375000882351F3288139818C819D81B701820FA3
:10376000931F0E942A361D830C8381E0DECFCF9306
:10377000DF93EC01FB0101900020E9F73197AF01E5
:10378000461B570B0E948B1B811103C0CE010E9468
:103790004019CE01DF91CF910895CF93DF93EC01D3
:1037A000FB0144815581608171810E948B1B8111D5
:1037B00003C0CE010E944019CE01DF91CF91089540
:1037C000EF92FF920F931F93CF93DF93EC017B0156
:1037D0008A01BA010E94631B81110BC0CE010E94B5
:1037E0004019CE01DF91CF911F910F91FF90EF9083
:1037F00008951D830C83B701888199810E942A3620
:10380000F0CFEF92FF920F931F93CF93DF93CDB73B
:10381000DEB729970FB6F894DEBF0FBECDBF8C017F
:10382000862FF8011182108213821282158214826F
:103830004AE09E012F5F3F4F7901B90190E00E945D
:103840001F33F70101900020E9F73197AF014E19BE
:103850005F09B701C8010E94E01B29960FB6F894D2
:10386000DEBF0FBECDBFDF91CF911F910F91FF90B3
:10387000EF900895EF92FF920F931F93CF93DF93F2
:10388000CDB7DEB762970FB6F894DEBF0FBECDBFDF
:103890008C01CB01F80111821082138212821582F1
:1038A00014824AE09E012F5F3F4F7901B9010E94C7
:1038B0001433F70101900020E9F73197AF014E1959
:1038C0005F09B701C8010E94E01B62960FB6F89429
:1038D000DEBF0FBECDBFDF91CF911F910F91FF9043
:1038E000EF900895CF93DF93EC01FB0186179707C4
:1038F00049F0608171816115710541F04481558104
:103900000E94E01BCE01DF91CF9108950E944019E3
:10391000F9CFFC0111821082138212821582148267
:103920000C94721CFC011182108213821282158287
:103930001482FB0101900020E9F73197AF01461B8B
:10394000570B0C94E01BEF92FF920F931F93CF93B2
:10395000DF9300D000D000D0CDB7DEB78FE0E82EE7
:1039600081E0F82E10E00AE080917A06089FF001CD
:103970001124E15FFE4F2185D70119969C9119977B
:10398000291318C0208518969C91291313C08117FC
:1039900089F06DEB72E0CE0101960E94921C20E04E
:1039A00040E069E1CE0101960E944E17CE010196DA
:1039B0000E9452191F5FBAE0EB0EF11C1F31A1F6F5
:1039C00026960FB6F894DEBF0FBECDBFDF91CF9124
:1039D0001F910F91FF90EF9008950F931F93CF9336
:1039E000DF9300D000D000D0CDB7DEB78C010E94AD
:1039F000011CF801848195810397A0F462EB73E0C8
:103A0000CE0101960E94921CB801CE0101960E943F
:103A1000CD1BBC01C8010E94721CCE0101960E9400
:103A20005219E7CFC80126960FB6F894DEBF0FBE35
:103A3000CDBFDF91CF911F910F910895CF93DF9369
:103A4000CDB7DEB768970FB6F894DEBF0FBECDBF17
:103A50000E949509609376067093770680937806A6
:103A6000909379068DE098E00E94F10E80917506A2
:103A70008111A2C06DEC72E0CE0101960E94921CF1
:103A800020E040E060E0CE0101960E944E17CE019A
:103A900001960E94521963EE72E0CE0101960E94D7
:103AA000921C20E043E060E0CE0101960E944E1798
:103AB000CE0101960E945219E0917306E73008F09A
:103AC000A9C0F0E0EA59F24E0C942D346D1DA01DF2
:103AD000B91DC31DC61DC91DD91D60917A0670E0B0
:103AE0006F5F7F4FCE0107960E943A1C68EF72E02D
:103AF000CE0101960E94921CBE01695F7F4FCE01EC
:103B000001960E94CD1B62E073E00E94B71BBC01CE
:103B1000CE010D960E94891C21E041E060E0CE01BB
:103B20000D960E944E17CE010D960E945219CE019D
:103B300001960E945219CE0107960E9452196AC03E
:103B400060917A0670E06F5F7F4FCE0107960E940A
:103B50003A1C68EF72E0CE0101960E94921CBE01F1
:103B6000695F7F4FCE0101960E94CD1B67E073E035
:103B7000CCCF6CE073E0CE0101960E94921C21E054
:103B800041E060E00FC06DE173E0F5CF6DE273E0FE
:103B9000F2CF6FE373E0CE0101960E94921C21E008
:103BA00041E064E1CE0101960E944E17CE010196DC
:103BB000C4CF6BE473E0EFCF67E573E0CE0101960D
:103BC0000E94921C20E040E060E0CE0101960E943D
:103BD0004E17CE0101960E9452196EE673E0CE0197
:103BE00001960E94921C20E043E060E0CE01019625
:103BF0000E944E17CE0101960E94521980917306C1
:103C0000813009F45BC078F0823009F480C08530DF
:103C100009F491C068960FB6F894DEBF0FBECDBF11
:103C2000DF91CF910895E0917A068AE0E89FF00154
:103C30001124E15FFE4F6185CE010D960E94011CAB
:103C400060917A0670E06F5F7F4FCE0107960E9409
:103C50003A1C6CEF72E0CE0101960E94921CBE01EC
:103C6000695F7F4FCE0101960E94CD1B64E873E02F
:103C70000E94B71BBE01635F7F4F0E94CD1BBC013A
:103C8000CE0143960E94891C21E041E060E0CE0114
:103C900043960E944E17CE0143960E945219CE01C0
:103CA00001960E945219CE0107960E945219CE0128
:103CB0000D960E9452190E94A31CACCFE0917A0687
:103CC0008AE0E89FF0011124E15FFE4F608570E01B
:103CD0006F5F7F4FCE010D960E943A1C60917A066D
:103CE00070E06F5F7F4FCE0107960E943A1C6CEF29
:103CF00072E0CE0101960E94921CBE01695F7F4F67
:103D0000CE0101960E94CD1B6AE873E0B1CF6091AD
:103D10007B06CE0107960E94011C60E973E0CE018C
:103D200001960E94921CBE01695F7F4FCE010196F1
:103D30000E94CD1BECCE6DE973E0CE0101960E948E
:103D4000921C20E043E01DCF1F93CF93DF93CDB7AC
:103D5000DEB762970FB6F894DEBF0FBECDBF8DE021
:103D600098E00E94F10EE091FC041AE01E9FF00121
:103D70001124E15FFE4F6185CE0107960E94011C70
:103D800065E873E0CE010D960E94921CBE01695F4A
:103D90007F4FCE010D960E94CD1BBC01CE01019636
:103DA0000E94891C20E040E060E0CE0101960E9464
:103DB0004E17CE0101960E945219CE010D960E9417
:103DC0005219CE0107960E945219E091FC041E9FE1
:103DD000F0011124E15FFE4F608512E6693008F0C2
:103DE0001AE570E06F5F7F4FCE0107960E943A1C84
:103DF0006BE873E0CE010D960E94921CBE01695FD4
:103E00007F4FCE010D960E94CD1BBC01CE010196C5
:103E10000E94891C20E040E0612FCE0101960E94A3
:103E20004E17CE0101960E945219CE010D960E94A6
:103E30005219CE0107960E945219E091FC041AE033
:103E40001E9FF0011124E15FFE4F6681CE010796AF
:103E50000E94ED1C64EB73E0CE0101960E94921C5F
:103E6000BE01695F7F4FCE0101960E94CD1BBC0150
:103E7000CE010D960E94891C20E043E060E0CE0157
:103E80000D960E944E17CE010D960E945219CE013A
:103E900001960E945219CE0107960E945219E09194
:103EA000FC041E9FF0011124E15FFE4F6781CE01EB
:103EB00007960E94ED1C69EB73E0CE0101960E940B
:103EC000921CBE01695F7F4FCE0101960E94CD1BFF
:103ED000BC01CE010D960E94891C20E043E065E5FF
:103EE000CE010D960E944E17CE010D960E945219DA
:103EF000CE0101960E945219CE0107960E945219D6
:103F00006091FC041EE36A3008F01AE370E06F5F12
:103F10007F4FCE0101960E943A1C23E040E0612FC2
:103F2000CE0101960E944E17CE0101960E945219B1
:103F300062960FB6F894DEBF0FBECDBFDF91CF9172
:103F40001F910895CF93DF93CDB7DEB762970FB679
:103F5000F894DEBF0FBECDBFE091FC048091320427
:103F6000E81305C08091FD04882309F469C0E0933B
:103F70003204809142058823D9F18AE0E89FF0015C
:103F80001124E15FFE4F6681CE0107960E94ED1C71
:103F900064EB73E0CE0101960E94921CBE01695F42
:103FA0007F4FCE0101960E94CD1BBC01CE010D9624
:103FB0000E94891C21E042E060E0CE010D960E9443
:103FC0004E17CE010D960E945219CE0101960E9405
:103FD0005219CE0107960E9452191092FD04629662
:103FE0000FB6F894DEBF0FBECDBFDF91CF9108951D
:103FF00080913705882309F18AE0E89FF0011124B8
:10400000E15FFE4F6781CE0107960E94ED1C69EBD0
:1040100073E0CE0101960E94921CBE01695F7F4F42
:10402000CE0101960E94CD1BBC01CE010D960E94CF
:10403000891C21E042E06AE4C0CF0E94A41ECDCFDB
:1040400080914005882389F18AE0E89FF0011124DE
:10405000E15FFE4F6681CE0107960E94ED1C64EB86
:1040600073E0CE0101960E94921CBE01695F7F4FF2
:10407000CE0101960E94CD1BBC01CE010D960E947F
:10408000891C21E042E060E0CE010D960E944E17AF
:10409000CE010D960E945219CE0101960E9452192E
:1040A000CE0107960E9452199ACF80913505882338
:1040B00009F18AE0E89FF0011124E15FFE4F67817A
:1040C000CE0107960E94ED1C69EB73E0CE010196CC
:1040D0000E94921CBE01695F7F4FCE0101960E9433
:1040E000CD1BBC01CE010D960E94891C21E042E04F
:1040F0006AE4CACF80914105811105C080913605DF
:10410000882309F46CCF0E94A41E69CF85ED8093AB
:10411000BC008091E3059091E405A091E505B09184
:10412000E6050796A11DB11D23E0B695A7959795C5
:1041300087952A95D1F72091BC0024FD03C01092E9
:10414000E10508954091E3055091E4056091E5058E
:104150007091E605452B462B472B69F30097A10587
:10416000B10541F025E32A95F1F700000197A10977
:10417000B109E1CF8091E2050C944F0FFF920F93AC
:104180001F93CF93DF93EC01F62E08811981C801AC
:104190000E944933F81621F06F2DC8010E94513357
:1041A000CE01DF91CF911F910F91FF900895AF92B3
:1041B000BF92CF92DF92EF92FF920F931F93CF9314
:1041C000DF9300D000D0CDB7DEB7E82E8EEF93E0BE
:1041D0009A8389836E2DCE0101960E94BE200FE046
:1041E00011E08CE7E89E70011124FE0131965F0119
:1041F000CC24C394D12CC6018E0D9F1D0E9449333F
:10420000F50181935F01FFEFCF1ADF0A85E0C81641
:10421000D10489F78981F80180878A8181878B8120
:1042200086838C818783065F1F4FF4E0EF0EF11CBD
:1042300082E005341807C9F60F900F900F900F9089
:10424000DF91CF911F910F91FF90EF90DF90CF9072
:10425000BF90AF9008951F920F920FB60F92112446
:104260002F933F938F939F93AF93BF93809191052B
:1042700090919205A0919305B0919405309190058D
:1042800023E0230F2D3758F50196A11DB11D209372
:1042900090058093910590939205A0939305B09318
:1042A00094058091950590919605A0919705B09100
:1042B00098050196A11DB11D8093950590939605D3
:1042C000A0939705B0939805BF91AF919F918F915F
:1042D0003F912F910F900FBE0F901F90189526E8D9
:1042E000230F0296A11DB11DD2CF1F920F920FB6C0
:1042F0000F9211242F933F934F935F936F937F936C
:104300008F939F93AF93BF93CF93EF93FF93C091FE
:10431000E1008091E100837F8093E100C3FF0FC043
:104320001092E90081E08093EB001092EC0082E3B0
:104330008093ED001092F20488E08093F000C2FFB9
:104340001BC083E00E94A3098091EF04882341F001
:104350008091EF0481508093EF04811101C05D9A38
:104360008091EE04882341F08091EE048150809387
:10437000EE04811101C0289AC4FF23C08091E2009D
:104380008E7E81608093E2008091E1008F7E809339
:10439000E1008091F0048E7E80618093F004FF91B3
:1043A000EF91CF91BF91AF919F918F917F916F913D
:1043B0005F914F913F912F910F900FBE0F901F90E3
:1043C0001895C0FFECCF8091E2008E7E80618093D3
:1043D000E2008091E1008E7E8093E1008091F00404
:1043E0008E7E8160DACF1F920F920FB60F9211244A
:1043F000CF92DF92EF92FF920F931F932F933F93F1
:104400004F935F936F937F938F939F93AF93BF93DC
:10441000EF93FF93CF93DF93CDB7DEB76C97DEBFFB
:10442000CDBF1092E9008091E80083FF25C068E0CD
:10443000CE0145960E94D60A82EF8093E8008D89CE
:1044400087FF39C09091E80090FFFCCF982F9076BD
:1044500009F034C19E894F89588D2F89F88C9111AC
:1044600031C0803861F58091F1048093F1001092A1
:10447000F1008EEF8093E8006C960FB6F894DEBFE3
:104480000FBECDBFDF91CF91FF91EF91BF91AF9163
:104490009F918F917F916F915F914F913F912F915C
:1044A0001F910F91FF90EF90DF90CF900F900FBE74
:1044B0000F901F9018959EEF9093E800C7CF109231
:1044C000F100D5CF913059F48111D3CF413051054E
:1044D00081F68091F1048D7F8093F104CACF9330EF
:1044E00049F48111C6CF4130510519F68091F1048C
:1044F0008260F2CF953041F48091E80080FFFCCFDC
:1045000020682093E300B5CF963009F0A9C00B8D49
:104510001C8D22E01092E9001092EC041092EB0442
:10452000F2122EC01092EA041092E9040E94240BA9
:104530001F8299E09983FA8291E09E8390EA98879E
:104540009AEF99872091EB043091EC04275F3F4F5D
:104550003C832B838D831092E9001092EC0410921F
:10456000EB041093EA040093E90449E050E0BE0133
:104570006F5F7F4F80E00E94DB090E94240B79CFA0
:104580001093EA040093E9040E94100BDC011296D8
:104590000D911C910115110509F451C1D801ED913E
:1045A000FC910480F581E02DBE016B5E7F4FC80158
:1045B0000995009709F03EC1F80100851185EACF01
:1045C000F3E0FF120EC08F89882309F440C08230C7
:1045D00061F440E866E185E698E00E949C2581113F
:1045E00048CF81E28093EB0047CF813029F440E847
:1045F0006BE089E598E0F1CF833099F70E94100BCA
:10460000DC011296ED90FC908E010F5F1F4F680148
:10461000E114F10479F0D701ED91FC910680F78166
:10462000E02DB801C7010995080F111DF701E084BD
:10463000F184EECFD8011C92F60101900020E9F739
:104640003197BF016C197D0940E0C601C6CF63E414
:1046500078E0FB01449150E080E80E94DB0909CF3B
:10466000973009F4BECF983021F481E08093F100B7
:1046700000CF993009F0FDCE837009F0B2CFE7E4A6
:10468000F2E081E031E096E32191222371F0809302
:10469000E9003093EB00DF0111972C912093EC009F
:1046A0009093ED008F5F873079F78EE78093EA0073
:1046B0001092EA008F898093F204DBCE8B8D9C8D63
:1046C0001092E9001092EC041092EB049093EA042B
:1046D0008093E904898D811192C08E899D89913AD8
:1046E00049F4813209F07DCF47E050E066E071E0A7
:1046F00080E0B3CF913209F074CF833269F48F89AF
:10470000988DB0E0A0E08093020190930301A09304
:104710000401B0930501ADCE803269F48091E800C8
:1047200082FFFCCF67E086E091E00E94D60A8BEF23
:104730008093E8009ECE823209F09BCE8F898093D1
:104740000D01EEEFFFE7859194918B3F9C4D51F168
:10475000E0E0F8E08091060190910701A091080146
:10476000B0910901803B9440A105B105F1F480911D
:104770000D0180FD1AC0EE3F8AE0F80789F587E752
:1047800097E791838083809160008093ED0488E1B6
:104790009BE00FB6F894A895809360000FBE9093AD
:1047A000600067CEEEEFFAE0D5CF80819181873748
:1047B000974709F05ECEA89580916000886180934C
:1047C00060008091ED0480936000EE3F2AE0F207E4
:1047D00089F08091FE0A9091FF0A9183808349CEEF
:1047E000808191818737980751F29093FF0A8093D7
:1047F000FE0AC5CF1092FF0A1092FE0A3ACE0E941E
:10480000100BDC0112960D911C910115110509F494
:10481000E8CED801ED91FC910190F081E02DBE0130
:104820006B5E7F4FC8010995811123CEF801008589
:104830001185EBCF181619060CF41BCED2CEF1E081
:10484000FF12BECE67E478E004CF1F920F920FB63E
:104850000F9211242F933F934F935F936F937F9306
:104860008F939F93AF93BF93EF93FF938CE497E065
:104870000E94A60BFF91EF91BF91AF919F918F91F5
:104880007F916F915F914F913F912F910F900FBE4C
:104890000F901F9018951F920F920FB60F92112430
:1048A0002F938F939F93EF93FF93E0915C07F09189
:1048B0005D078081E0916207F091630782FD1BC074
:1048C0009081809165078F5F8F73209166078217B3
:1048D00041F0E0916507F0E0E45BF84F958F80933D
:1048E0006507FF91EF919F918F912F910F900FBED0
:1048F0000F901F9018958081F4CF1F920F920FB6E2
:104900000F9211242F933F934F935F936F937F9355
:104910008F939F93AF93BF93EF93FF938091B900D1
:10492000887F803609F44AC0F0F5883209F4A7C0C0
:1049300018F5803109F49BC0B8F4882309F4F9C054
:10494000883009F494C0FF91EF91BF91AF919F918E
:104950008F917F916F915F914F913F912F910F9028
:104960000FBE0F901F901895883109F488C08032CF
:1049700051F78093DF0514C0803409F49DC040F4E2
:104980008033B9F38833F9F68093DF0585ECB0C046
:10499000803509F485C0883509F496C0883499F6C5
:1049A0000E948620D0CF883909F48CC038F588372A
:1049B00029F050F4883611F0803729F683E080938F
:1049C000E1051092DC0457C0883809F47BC08039B7
:1049D00019F0803809F0B7CF8091DC04803208F0FC
:1049E00071C0E091DC0481E08E0F8093DC04809143
:1049F000BB00F0E0E454FB4F80833DC0803B39F0C6
:104A0000E0F4803A09F479C0883A09F09CCF84E058
:104A10008093E1051092BB041092BA04E091F50472
:104A2000F091F60409958091BA0481110FC081E0DC
:104A30008093BA0410929A0409C0803C09F4A6CF6E
:104A4000883C09F4A3CF883B09F07DCFE091BB04FB
:104A500081E08E0F8093BB04F0E0E656FB4F80812F
:104A60008093BB009091BB048091BA0429C08091CF
:104A7000BC058093BB0085EC8093BC0064CF909113
:104A8000DE058091DD05981758F5E091DE0581E09F
:104A90008E0F8093DE05F0E0E354FA4F8081E9CF7A
:104AA000E091DE0581E08E0F8093DE058091BB00F2
:104AB000F0E0E354FA4F80839091DE058091DD05AC
:104AC0009817C8F285E8D8CFE091DE0581E08E0F17
:104AD0008093DE058091BB00F0E0E354FA4F8083C1
:104AE0008091E00581115CCF81E08093BB0584EA71
:104AF0008093BC001092E10526CF85EC8093BC002A
:104B00001092E1058091DC04803230F4E091DC0405
:104B1000F0E0E454FB4F10826091DC0470E0E0911F
:104B2000F304F091F4048CEB94E009951092DC040A
:104B30000ACF1092DF0534CFEF92FF920F931F93AD
:104B4000CF93DF93F82E192FE62E042F81E0860FE6
:104B5000880F0E94AD0983E00E94AD09CF2DD12FAF
:104B6000EC0EFD2EF11CCE15DF05B9F007FF13C0CA
:104B7000FE0184910E94AD09182F80E00E94AD09CA
:104B8000812321968111EFCFDF91CF911F910F915A
:104B9000FF90EF9008958881EDCF81E0F5CFCF931E
:104BA000DF9310924F0710924E0788EE93E0A0E03B
:104BB000B0E08093500790935107A0935207B093B1
:104BC00053072BE632E030934D0720934C072DEC32
:104BD00030E030935907209358072CEC30E03093A5
:104BE0005B0720935A0728EC30E030935D07209351
:104BF0005C0729EC30E030935F0720935E072AECD6
:104C000030E030936107209360072EEC30E0309362
:104C1000630720936207109265071092660710924F
:104C200067071092680710920E0610920D06809387
:104C30000F0690931006A0931106B09312062DE76D
:104C400032E030930C0620930B062FEF3FEF3093AA
:104C500018062093170610925E0610925D06809348
:104C60005F0690936006A0936106B09362062FE8FA
:104C700032E030935C0620935B0610926A06109235
:104C8000690680936B0690936C06A0936D06B093B3
:104C90006E0681EA92E090936806809367060E9410
:104CA000100BEC010E945A19FC0189813481682F94
:104CB000630F7727771F683071057CF5AA81BB8168
:104CC0001097F9F4FB83EA8398819283838385812B
:104CD000890F888390E080E08317F8F42981A22F60
:104CE000B0E0BD016A5B7D4F46815781480F591F77
:104CF000DA014C91DB014C932F5F29830196ECCFB5
:104D0000DA0118964D915C91199741155105C1F73B
:104D10001996FC93EE931897D7CF10921008109223
:104D20000F081092190810921A0810921C0810927D
:104D30001B0810921D0881E080931E0823EB32E0CF
:104D400030930E0820930D081092F8071092FF0779
:104D5000109206081092070810920808109209088D
:104D600080930508809302081092030892E09093C4
:104D700004088093F7078CE090E09093FC07809301
:104D8000FB070E943A349093010880930008009733
:104D900009F4F4C02CE0FC0111922A95E9F784E0B3
:104DA00090E09093FA078093F9078DE090E090935C
:104DB000FE078093FD078091F807882341F061E0AA
:104DC0008DE00E94060860E08DE00E94D807E7E3CE
:104DD000FEE0E491F0E0EE0FFF1FE45EF14F8591FD
:104DE000949190930B0880930A08EAE0FEE0E49126
:104DF000E0930C0889E28093EC071092EE07109282
:104E0000ED071092EF078CE497E09093EA07809308
:104E1000E90710927D0610927C0610927F06109290
:104E20007E061092810610928006109283061092E0
:104E300082061092850610928406109287061092C0
:104E40008606109289061092880610928B061092A0
:104E50008A0610928D0610928C0610928F06109280
:104E60008E06109291061092900610929306109260
:104E70009206109295061092940610929706109240
:104E80009606109299061092980610929B06109220
:104E90009A0610929D0610929C0610929F06109200
:104EA0009E061092A1061092A0061092A3061092E0
:104EB000A2061092A5061092A40689EE97E09093A0
:104EC000A7068093A6061092A8061092A906109233
:104ED000AA061092AF061092AE061092B10610927A
:104EE000B0068FEF9FEF9093B3068093B206909336
:104EF000B5068093B40683E08093B6061092B70699
:104F00001092B8061092B9061092BA0610923B079A
:104F1000EBEBF6E080E8DF011D928A95E9F710924D
:104F20003E0710923F0710924007109241071092DF
:104F300042071092430710924407109245071092BF
:104F4000460710924707109248071092490710929F
:104F50004A0710924B071092730610927406109233
:104F600075061092760610927706109278061092C7
:104F7000790610927B06DF91CF9108951092FC077D
:104F80001092FB071092FA071092F9070ECFCF93F9
:104F9000DF93CDB7DEB7A8970FB6F894DEBF0FBE8C
:104FA000CDBF789484B5826084BD84B5816084BDB2
:104FB00085B5826085BD85B5816085BD80916E00B7
:104FC000816080936E0010928100809181008260E8
:104FD0008093810080918100816080938100809125
:104FE0008000816080938000809191008260809336
:104FF0009100809191008160809391008091900058
:105000008160809390008091C10084608093C10092
:105010008091C10082608093C1008091C100816055
:105020008093C1008091C30081608093C300809110
:10503000C00082608093C0008091C2008160809334
:10504000C20080917A00846080937A0080917A0017
:10505000826080937A0080917A00816080937A00E8
:1050600080917A00806880937A001092F204109206
:10507000F1041092F0048091D70081608093D700F2
:1050800080EA8093D80089B5806189BD89B5826046
:1050900089BD09B400FEFDCF61E070E080E090E0E2
:1050A0000E9463098091D8008F7C80618093D80032
:1050B0008091E000807F8093E0008091E1008E7E0F
:1050C0008093E1008DE08093E200559A209A60E0A1
:1050D00087E00E9406088EEF93E00E944933182F64
:1050E000843040F40E94D72084E893E00E94493342
:1050F00080930E01E091A606F091A7060190F08141
:10510000E02DA089B18982E08C93A485B5851C929D
:10511000A685B7858FE38C93108EA489B58986E028
:105120008C93A289B3898C9180618C93A289B38975
:105130008C9188608C93A289B3898C9180688C93C0
:105140000288F389E02D80818F7D808381E08093C8
:10515000A8061092AA061092A9061092B106109203
:10516000B0061092AF061092AE068FEF9FEF9093AD
:10517000B3068093B2069093B5068093B4060E945E
:10518000950960933E0770933F0780934007909383
:10519000410710923B071092B8061092B706109282
:1051A000B9061092BA0610923D0710923C07809102
:1051B000B6068170826081608093B6068091FD079B
:1051C0009091FE0797FD08C061E00E94060860E02C
:1051D0008091FD070E94D80781E08093F8076091D5
:1051E000FF07633329F120910008309101086150D5
:1051F000C9F070E08FEF92E30E940534F90140910D
:10520000FB075091FC07CF01821B930B8417950776
:1052100060F44081469FC001479F900D1124908308
:105220003196EDCF70E060E0E9CF83E38093FF0734
:1052300000E020E040E060E0802F0E9437160F5F22
:105240000430B9F70E94840861E08CE00E940608EF
:1052500061E086E00E94060860E085E00E940608A2
:1052600060E086E00E94D80761E08CE00E94D807E9
:105270000E94E51460938C0570938D0580938E05D4
:1052800090938F05109245025FE5E52E52E0F52ED2
:10529000F7010081F2E0EF0EF11C61E0802F0E9427
:1052A000060860E0802F0E94D80727E6E21622E079
:1052B000F20671F710929A05109299051092E8057E
:1052C00010920A060E94310F81EA99E09093F60449
:1052D0008093F50482EA99E09093F4048093F304B8
:1052E0008CE08093B800109221089CE390932008F2
:1052F0001092B9008093B800109211081092120811
:10530000ECE7F8E085919491D82EEEE7F8E004916F
:10531000EFE7F8E0E491E0931308E0E8F8E0E491C7
:10532000E0931408E1E8F8E0E491E09315087C01CB
:105330008E2D8D19801750F4F70164918DE098E05F
:105340000E94E80CFFEFEF1AFF0AF2CF8DE098E021
:105350000E94F10E84EF91E09093EE078093ED07A9
:1053600080EC0E940D188E3E09F086C089E80E94EC
:105370000D18682F616089E80E94B51160E088E827
:105380000E94B51161E080E80E94B51161E08FEFE5
:105390000E94B51160E080E00E94B51181E90E9491
:1053A0000D188093F20761E080E00E94B51160E083
:1053B0008FEF0E94B51160E080E80E94B51180E691
:1053C0000E940D18682F626180E60E94B51160E2AC
:1053D00070E084E40E94D7116FEF81E00E94B51164
:1053E00061E080E80E94B51161E08FEF0E94B51185
:1053F00060E080E00E94B51166E08FEF0E94B51179
:1054000083E80E940D18682F646083E80E94B5113C
:1054100067E08FEF0E94B51161E081E80E94B5114D
:1054200061E080E80E94B5116BE684E90E94B51145
:1054300060E083E80E94B5110E9495097093F1071E
:105440006093F00783E80E940D1881116BC0809172
:10545000ED079091EE07892BA9F30E949509209101
:10546000F0073091F107621B730B8091ED0790916B
:10547000EE078617970730F761E080E80E94B511C4
:1054800061E08FEF0E94B51160E080E00E94B511ED
:105490006091F20781E90E94B51161E080E00E940D
:1054A000B51160E08FEF0E94B51160E080E80E94C6
:1054B000B51162E080E00E94B5118EEF93E00E948A
:1054C00049330E94D7206EEB73E0CE0183960E9491
:1054D000921C40E06AE28DE098E00E94150D82E89F
:1054E00098E00E94510700E0802F90E02FA138A59E
:1054F0008217930708F081C3EBA1FCA1309709F054
:1055000079C31092F704E7EFF4E060818DE098E052
:105510000E94860D6CE370E080E090E00E946309D9
:105520000F5FE2CF61E083E80E94B51182E90E943B
:105530000D18082F0F77D82EDD1CDD24DD1C60E050
:1055400081E80E94B51166E08FEF0E94B51183E8F3
:105550000E940D18682F6B7F83E80E94B51161E0EF
:105560008FEF0E94B51161E080E00E94B51160E00C
:105570008FEF0E94B51160E080E80E94B511809124
:10558000EC0791E09093E705809309061092E805F7
:1055900010920A0660EB8BE596E00E94861181E08E
:1055A0000E94700F8093EB0766E08091EC070E94E9
:1055B000601010929A05809399057E0127E1E20E12
:1055C000F11C570147E0C42ECA94CC2041F08BE572
:1055D00096E00E943F11F50181935F01F5CF61E0F4
:1055E0008FEF0E94B51160E08FE40E94B5116CE26C
:1055F0008EE40E94B51160E08FEF0E94B51164EB5C
:1056000086EB0E94B511ACE0D11001C0A0E090E0A3
:1056100080E061E070E0482F46954695469550E061
:10562000F701E40FF51F2081B82FB7708A1710F02B
:10563000091329C0F701E40FF51FAB0101C0440FA6
:10564000BA95EAF74095242320838F5F803319F7BA
:105650008091EC0791E09093E70580930906109202
:10566000E80510920A0660EB8BE596E00E94861131
:1056700007E0015091F0F70161917F018BE596E021
:105680000E948611F6CF30E002C035952795BA9575
:10569000E2F720FFDACF9F5FD8CF81E00E94700F42
:1056A0008093EB0761E08FEF0E94B51160E080E02E
:1056B0000E94B51160E08FEF0E94B51160E089E0B3
:1056C0000E94B51160E080E10E94B51160E081E1C7
:1056D0000E94B51161E084E20E94B5116FEF85E28E
:1056E0000E94B51160E085E70E94B51161E08FEF7F
:1056F0000E94B5116CE28EE40E94B51160E088E46E
:105700000E94B51160E280E30E94B51160E08FEF66
:105710000E94B51169E080E30E94B51160E084E564
:105720000E94B51164E081E30E94B51163E082E359
:105730000E94B51163E880E40E94B51165E286E439
:105740000E94B51160E080E60E94B51160E087E23A
:105750000E94B51166E080E50E94B51160E081E528
:105760000E94B51166E982E50E94B51168E086E500
:105770000E94B51160E387E50E94B51160E081E603
:105780000E94B51160E082E60E94B51160E084E6F7
:105790000E94B51160E085E60E94B51160EA86E6D8
:1057A0000E94B51161E08FEF0E94B51162E382E2C1
:1057B0000E94B51164E187E40E94B5116FEF89E49E
:1057C0000E94B51160E08AE40E94B51160E08FEF9D
:1057D0000E94B5116AE08AE70E94B51160E08BE78C
:1057E0000E94B51161E288E70E94B51161E08FEF78
:1057F0000E94B51164E383E20E94B51160E082E487
:105800000E94B5116FEF84E40E94B51166E285E451
:105810000E94B51165E086E40E94B51160E480E461
:105820000E94B51166E08EE00E94B5116AE180E247
:105830000E94B51160E483E40E94B51160E08FEF2F
:105840000E94B51163E084E30E94B51164E485E32E
:105850000E94B51161E08FEF0E94B51164E081E311
:105860000E94B51169E08BE40E94B51165E08CE4FB
:105870000E94B51164E08DE40E94B51160E08FEFE5
:105880000E94B51160E084E40E94B51160E285E4F5
:105890000E94B51168E087E40E94B51168E288E4CF
:1058A0000E94B51160E087E60E94B51164E080E7D0
:1058B0000E94B51161E081E70E94B5116EEF82E7A9
:1058C0000E94B51160E086E70E94B51160E087E7AD
:1058D0000E94B51161E08FEF0E94B51161E08DE08B
:1058E0000E94B51160E08FEF0E94B51161E080E881
:1058F0000E94B51168EF81E00E94B51161E08FEF61
:105900000E94B51161E08EE80E94B51161E080E06F
:105910000E94B51160E08FEF0E94B51160E080E851
:105920000E94B51164E08AE00E94B51184E80E94EB
:105930000D18682F6F7E84E80E94B51161E08BE03E
:105940000E94B511CE014D960E943318BE016F5FC3
:105950007F4FCE014D960E9481188D8D882309F4CA
:10596000FDC08B859C85AD85BE858C57924FAF4F12
:10597000BF4F2F8D222309F4F6C04B855C856D85C2
:105980007E854E545D4F6F4F7F4F440F551F661FEE
:10599000771F840F951FA61FB71F28A1222361F030
:1059A0004F85588969897A894C565D4F6F4F7F4F73
:1059B000840F951FA61FB71F29A1222361F04B89D1
:1059C0005C896D897E894A5D5D4F6F4F7F4F840F83
:1059D000951FA61FB71F8093F3079093F407A0931A
:1059E000F507B093F60768EE81E00E94B511C0900C
:1059F000F307D090F407E090F507F090F607F0E297
:105A0000CF16FEE4DF06E104F10408F4DAC0CE01AB
:105A10004D960E943318BE016F5F7F4FCE014D96A9
:105A20000E9481188D8D882309F4AAC08B859C85DE
:105A3000AD85BE858C57924FAF4FBF4F2F8D222320
:105A400009F4A3C04B855C856D857E854E545D4F02
:105A50006F4F7F4F440F551F661F771F840F951F91
:105A6000A61FB71F08A1002361F04F8558896989D7
:105A70007A894C565D4F6F4F7F4F840F951FA61F3D
:105A8000B71F29A1222309F49CC02C013D0126E265
:105A9000420E22E0521E611C711CC414D504E6049F
:105AA000F70408F48EC0AB81B0E020E03FE24AE3A7
:105AB00050E00E947E334B015C01E4EF8E0EE1E08A
:105AC0009E1EA11CB11CA701960124193509460987
:105AD0005709A8EEB3E00E947E332B013C01C501BB
