:100000000C944F070C9477070C9477070C947707A0
:100010000C9477070C9477070C9477070C94770768
:100020000C9477070C9477070C94B1130C948E15ED
:100030000C9477070C9477070C9477070C94770748
:100040000C9477070C9477070C9477070C94770738
:100050000C9477070C9477070C9477070C94502432
:100060000C9477070C94F2170C94CC170C94770728
:100070000C9477070C9477070C9477070C94770708
:100080000C9477070C9477070C9477070C947707F8
:100090000C94301C0C9477070C9477070C9477071A
:1000A0000C9477070C9477070C9477076A2DAA2D88
:1000B000F32D382E4A2E582ED82E3E0D820D9A0D35
:1000C0009D0DA70DAA0DAD0DA01DA51DA51D9C1D67
:1000D000A01DA51DA51DA51DA51DA51DA01DA01D1F
:1000E000A51D9C1D7A1E7D1E6C1E701E761E9E1EFA
:1000F0009E1E9E1E811E851E891E8F1E931E9E1E85
:10010000991EAED580A81FD300408D142002A1C82F
:10011000DA02817FD9F1DB40A4A6AF020119802069
:1001200000080B00020202010009040000010202A3
:100130000000052400100105240101010424020629
:100140000524060001070581031000400904010091
:10015000020A0000000705020240000007058302B2
:100160004000000403090412010002EF02014041B3
:1001700023368000010102030141726475696E6FCC
:10018000204C4C430041726475696E6F204C656F62
:100190006E6172646F0000030C0F30333C3FC0C3CC
:1001A000CCCFF0F3FCFF070605040100080A0B0C96
:1001B0000D0900000000240027002A002D00300057
:1001C000000000002300260029002C002F00000062
:1001D000000200090F0000030401000C00000000F1
:1001E0000000000000000000000000000022080DD8
:1001F0000E20600402050607080902030305080231
:100200000402040704070707070707070702020796
:100210000707080E09080808070709080207080762
:100220000B0809070909070808090D07080804044D
:100230000406080307070607070507070203060267
:100240000A0707070705060507070B060705050147
:100250000507080000000000000000FEFE18181E40
:100260001E001E1E000000000090F89E90F89E1CCC
:1002700000001C0000183C26FF66CC88040C183CCB
:10028000180C041C221CC0308E4080000018040092
:100290000C100C80CC7E72F2DE0C80000C1C101056
:1002A000101C0C1C101E1E0000F0FC061C7CC0065E
:1002B000FCF0C07C1C14140E14140000000000603C
:1002C0006060FCFC6060600000000C0C000000003E
:1002D000005838C0C0C0C00000000000001818005E
:1002E000C0380618040000F8FC0E060EFCF8040CDA
:1002F0001C181C0C04180CFEFE00001C1C181C868C
:10030000C6663E1C181C1C18181818888C06262651
:10031000FEDC040C1C18180C04C0E0B88CFEFE8037
:10032000040404041C1C04707E3E3636F6C60C1C05
:100330001818180C04F8FC6E6666EECC040C18183D
:10034000181C0C060606E6761E0600001C1C0000A3
:10035000009CFE666666FE9C0C1C1818181C0C3C63
:100360007E666666FCF80C1C18181C0C041818181D
:1003700018181858386060F0F098980C00000000C9
:1003800004040CD8D8D8D8D8D8D800000000000071
:10039000000C9898F0F060600C0404000000000865
:1003A0000C06C6E6763C180000001818000000E0B5
:1003B0003008C4F63A1A1AF2FA7E0408F00C3060DB
:1003C0004C9C98988C9C9C90484C2000C0F8BE8611
:1003D000BEF8C000181C04040404041C18FEFE66C9
:1003E000666666FEDC1C1C181818181C0CF8FC0E3F
:1003F00006060E9C08040C1C18181C0C04FEFE06B5
:1004000006060EFCF81C1C1818181C0C04FEFE66D0
:10041000666666661C1C1818181818FEFE66666666
:1004200066061C1C0000000000F8FC0E0606C6CE86
:10043000DCC8040C1C181818180C04FEFE60606060
:1004400060FEFE1C1C000000001C1CFEFE1C1C802C
:1004500080000000FEFE0C1C1818181C0CFEFE602C
:100460003078EC86021C1C000000041C18FEFE0004
:10047000000000001C1C1818181818FEFE0E7CE066
:1004800000E07C0EFEFE1C1C00000C1C0C00001C7E
:100490001CFEFE1C78E080FEFE1C1C0000040C1CF0
:1004A0001CF8FC0E0606060EFCF8040C1C181818A6
:1004B0001C0C04FEFE6666667E3C1C1C00000000F0
:1004C00000F8FC0E0686060EFCF8040C1C18181C1E
:1004D0000C1C24FEFE6666E6E6BE1C001C1C00002A
:1004E000000C1C18103C7E666666EECC0C1C1818BE
:1004F000181C0C060606FEFE0606060000001C1C64
:10050000000000FEFE00000000FEFE040C1C181897
:100510001C0C04021EFCE000E0FC1E020000001C9B
:100520001C1C00000006FEF800F0FE0EFEF000F8B5
:10053000FE0600001C1C1C0000001C1C1C00000609
:100540000EF8F0F80E06181C0400041C18060E38ED
:10055000F0F0380E060000001C1C000000060686A5
:10056000E6761E0E06181C1C1818181818FEFE0633
:1005700006FCFCC0C00638C000000004180606FED9
:10058000FEC0C0FCFC20380E0E3820000000000029
:1005900000000000000000000080808080808080DB
:1005A000800206040000001098D858F8F0000C1CD7
:1005B00018180C1C10FEFE301838F0E01C1C0C182B
:1005C0001C0C04E0F018183830040C18181C0CE04F
:1005D000F0381830FEFE040C1C180C1C1CE0F0D87F
:1005E000D8D8F0E0040C181818180818FCFE1A1ACD
:1005F000001C1C0000E0F0381830F8F864ECDCD87F
:10060000CCFC7CFEFE301818F8F01C1C0000001C0E
:100610001CFAFA1C1C00FAFAC0FC7CFEFEE0F09802
:10062000081C1C00041C18FEFE1C1CF8F81018F80E
:10063000F01818F8F01C1C00001C1C00001C1CF812
:10064000F8301818F8F01C1C0000001C1CE0F038F2
:100650001838F0E0040C1C181C0C04F8F83018389A
:10066000F0E0FCFC0C181C0C04E0F0381830F8F832
:10067000040C1C180CFCFCF8F83018181C1C0000AA
:100680000070F8D8D8D890081818181C0C18FCFE60
:100690001818000C1C1818F8F8000000F8F80C1CCA
:1006A00018180C1C1C38F8C000C0F83800001C1CBE
:1006B0001C000018F8E000F038F000E0F818000026
:1006C0001C1C0C000C1C1C00001838E0E03818182A
:1006D0001C04041C1818F8E000E0F8180084FCF86A
:1006E0003C04001898D878381C1C18181880FC7E18
:1006F0000606007CFCC0C0FEFC06067EFC80C0C076
:10070000FC7C006030307060603000000000000051
:1007100000FE020202020202FE1C10101010101055
:100720001C0000070E206000000000000000000018
:1007300000000000000000FC0000000000000D00B0
:10074000000000003C003C00000000000000000031
:100750000020F82020F820000107010107010060B7
:1007600090F89010000004040F040300001824986F
:1007700060100C000C02010609060030C8C83000E9
:1007800000000708080906090000003C00000000FE
:10079000000000000000000000E01804020000005B
:1007A000030C102000020418E000000020100C03CD
:1007B00000000080A0C0C0A0800000020101020073
:1007C00000808080F0808080000000070000000032
:1007D00000000000000020180C0400000080808051
:1007E0008080800000000000000000000000000089
:1007F000000000081C0800000000008060180600CF
:1008000018060100000000F008844408F00003040A
:100810000808040300201008FC0000000000000F7E
:10082000000000180404844438000C0A0908080871
:10083000000804444444B80006080808080700807B
:10084000601804FC0000010101010F01007C242458
:100850002424C40006080808080700F88444444417
:10086000880007080808080700040404C4340C00C2
:10087000000C0300000000B844444444B8000708DA
:1008800008080807007884848444F80004080808ED
:100890000807000020702000000000081C0800006D
:1008A000000020702000000020180C0400000080D0
:1008B00040201008000000010204080000404040F1
:1008C00040404000020202020202000008102040E4
:1008D0008000000804020100000484442418000081
:1008E000000D0000000000F008C42424F8000304F8
:1008F000090A0A0300F884848484F8000F000000C9
:10090000000F00FC4444447880000F0808080807E2
:1009100000F804040404180007080808080600FC8E
:1009200004040408F0000F080808040300FC444411
:10093000444404000F080808080800FC44444444E8
:1009400004000F000000000000F8040484849800F4
:1009500007080808080700FC40404040FC000F0062
:100960000000000F000404FC0404000008080F0845
:100970000800000000040404FC000608080808073A
:1009800000FC4020D00804000F000000030C00FC15
:100990000000000000000F080808080800FC1860AC
:1009A000806018FC0F00000100000FFC1860800040
:1009B000FC000F000001060F00F804040404F80016
:1009C00007080808080700FC8484848478000F0066
:1009D0000000000000F804040404F8000708080EF2
:1009E000181700FC8484848478000F000102040836
:1009F00000384444848408000408080808070004F8
:100A00000404FC0404040000000F000000FC0000CB
:100A10000000FC0007080808080700FC00000000B0
:100A2000FC0000030C0C030000FC0000C00000FCF4
:100A3000030C0300030C030C30C0C0300C000C038B
:100A40000000030C003C408080403C000000000F90
:100A500000000004048444340C000C0A090808084F
:100A6000000000FE0202020000003F2020200006DD
:100A70001860800000000000000106180002020259
:100A8000FE0000002020203F0000001008040408A1
:100A90001000000000000000000000000000000046
:100AA0002020202020200000040C1820000000003E
:100AB000000000000000A0A0A0A0C00007080808D7
:100AC000040F00FC40202020C0000F040808080785
:100AD00000C020202020400007080808080400C0AB
:100AE00020202040FC0007080808040F00C0202038
:100AF0002020C0000709090909090080F8848484BE
:100B00000800000F0000000000C020202040E0008E
:100B100023444444423F00FC40202020C0000F00FA
:100B20000000000F00002020EC0000000000000F7B
:100B300000000000002020EC0000102020201F00FA
:100B400000FC0080402000000F01010204080000AA
:100B5000FC000000000000070808080000E020205A
:100B6000C02020C00F00000300000FE04020202024
:100B7000C0000F000000000F00C020202020C00097
:100B800007080808080700E040202020C0007F0276
:100B90000404040300C020202040E00003040404F7
:100BA000027F00E04020202040000F0000000000F5
:100BB00000C0202020204000040909090906002067
:100BC000F8202020000000070808080400E00000CA
:100BD0000000E00007080808040F00E00000000023
:100BE000E00000030C0C030000E00000800000E0C7
:100BF0000708040304080720408080402000080400
:100C00000202040800E000000000E0002344444425
:100C1000423F0020202020A06000080C0A0908089C
:100C2000000080807C0202000000001F20200000E5
:100C300000FE0000000000001F0000000002027C17
:100C40008080000020201F000000003008081020D5
:100C5000201800000000000000FEFEFEFEFEFEFE6A
:100C60007F7F7F7F7F7F7F0000050720600000007F
:100C7000000000005F00000003000300143E143E6B
:100C800014242A7F2A1243330866613649552250BC
:100C90000005030000001C2241000041221C00143A
:100CA000083E081408083E080800503000000808F4
:100CB000080808006060000020100804023E514946
:100CC000453E0004027F00426151494622414949A4
:100CD000361814127F1027454545393E4949493297
:100CE00001017109073649494936264949493E00FB
:100CF0003636000000563600000814224100141455
:100D0000141414004122140802015109063E4159ED
:100D1000555E7E0909097E7F494949363E41414178
:100D2000227F4141413E7F494949417F09090901EB
:100D30003E4141493A7F0808087F00417F41003029
:100D40004040403F7F081422417F404040407F02A6
:100D50000C027F7F0204087F3E4141413E7F09092A
:100D600009061E2121215E7F090909762649494984
:100D70003201017F01013F4040403F1F2040201FC2
:100D80007F2010207F41221C224107087008076144
:100D900051494543007F4100000204081020000033
:100DA000417F000402010204404040404000010233
:100DB000040020545454787F444444383844444414
:100DC00044384444447F385454541804047E050580
:100DD000085454543C7F0804047800447D400020AB
:100DE00040443D007F1028440000417F40007C04C7
:100DF0007804787C0804047838444444387C14141B
:100E00001408081414147C007C0804044854545436
:100E10002004043F44443C4040207C1C2040201CD3
:100E20003C4030403C44281028440C5050503C4436
:100E300064544C44000836414100007F00004141A9
:100E400036080002010204027F7F7F7F7F040802D0
:100E50000110408040102040804080080204018042
:100E600040201002011080102040402000000000AF
:100E7000250028002B002E00310004040404040384
:100E8000040502020202040302020202060606062A
:100E900006060404020202040400C3307E3011245A
:100EA0001FBECFEFDAE0DEBFCDBF15E0A0E0B1E0BE
:100EB000E0EEFBE602C005900D92AA31B107D9F72A
:100EC00029E0AAE1B5E001C01D92AC30B207E1F71C
:100ED00017E0CEE4D7E004C02197FE010E94D23390
:100EE000CD34D107C9F70E949A240C94E3350C94B1
:100EF000000080E00895FC0182818F5BFB0180830C
:100F000081E008950F931F9340916F0550917005F4
:100F100060917105709172058A019B0104C036953C
:100F20002795179507958A95D2F7D901C801817041
:100F30001F910F910895DC018D919C91DC01ED9141
:100F4000FC910190F081E02D09948F929F92AF92D5
:100F5000BF92CF92DF92EF92FF920F931F93FC010B
:100F600011861286168217826083808561110BC0FC
:100F7000811120C0118281E08087868322833383A0
:100F8000448355831AC08823A9F0108681E08783A3
:100F9000C280D380E480F58049015A018C189D08F5
:100FA000AE08BF080CE2801601E09006A104B1046F
:100FB0000CF481878181811117C080858823A1F07D
:100FC00082819381A481B58149015A01881A990AC5
:100FD000AA0ABB0A05EF801601E09006A104B1043D
:100FE0001CF081E0828781831F910F91FF90EF9029
:100FF000DF90CF90BF90AF909F908F900895FC01AD
:101000006093BC008091BC0087FFFCCF9091B90039
:10101000987F90830895CF92DF92EF92FF920F9383
:101020001F93CF93DF93EC01C62ED42E8C89882397
:1010300051F0411108C084E98093BC008091BC004C
:1010400084FDFCCF1C8AEC888E010E5E1F4FE110E0
:1010500014C0FB8864EAC8010E94FF078A898830AF
:1010600011F1803101F1DD2011F080E4E82EE092F1
:10107000BB0064E8C8010E94FF07C092BB0064E89F
:10108000C8010E94FF0782E0D81204C08C898F5FDC
:101090008C8B11C084E98093BC008091BC0084FDDE
:1010A000FCCF1C8A08C0FF0CF092BB0064E8C801AA
:1010B0000E94FF07D8CFDF91CF911F910F91FF9032
:1010C000EF90DF90CF900895089580E090E008952C
:1010D000EF92FF920F931F93CF93DF9300D000D036
:1010E000CDB7DEB7182F0E94EE1DFC0117FF0AC016
:1010F000183F09F470C01A3F08F474C01D3F09F08E
:101100006AC070C0808921E0280F208BDF01A80F02
:10111000B11D1D961C938189882361F0233009F04D
:10112000AEC082858460898385858A8386858B832A
:1011300087853DC09485892F807F803B59F168F475
:10114000803841F120F4882309F443C098C08039E5
:1011500009F1803A09F093C01DC0803D51F118F4A7
:10116000803C39F18CC0803EA9F0803F09F087C0F7
:10117000892F8F70823041F0833019F0813009F06F
:101180007EC0828582601DC0223009F078C08285D1
:10119000836008C0223009F072C0292F22952F7079
:1011A0008285822B89839A8385858B8386858C8330
:1011B0000DC0213009F063C0292F22952F70828540
:1011C000822B89839A8385858B831C82108A4EC0EB
:1011D0001487108A54C082858F6089831A831B828A
:1011E0001C8244C08CE0810F833030F4828585609E
:1011F00089831A831B82E9CF103F29F481E0818B18
:101200001587808B3CC0173F19F7808961E0680F14
:10121000608BDF01A80FB11D1D961C938B5F92851B
:10122000892B8983AF01435F5F4F9E012F5F3F4F43
:101230007901862F90E08701021B130B081719070D
:1012400050F4DA018D91AD01D70111968C93BFEF67
:10125000EB1AFB0AEECF01968430910529F0D901F3
:10126000A80FB91F1C92F7CF118AB0CF838144E039
:1012700050E0BE016F5F7F4F8F5F0E946A1481E074
:1012800090E00F900F900F900F90DF91CF911F91F2
:101290000F91FF90EF9008956F927F928F929F929F
:1012A000AF92BF92CF92DF92EF92FF920F931F9374
:1012B000CF93DF9300D000D0CDB7DEB7682E8FEF8D
:1012C00093E00E94FA32681629F0662D8FEF93E0C2
:1012D0000E94023301E011E084E9689E300111248C
:1012E000E12CF12C43018E0C9F1CFE0131965F0115
:1012F000CC24C394D12CC601880D991D0E94FA32CA
:10130000F50181935F01FFEFCF1ADF0A85E0C81670
:10131000D10489F78981F80185878A8186878B8145
:1013200085838C818683015F1F4FF4E0EF0EF11CF3
:1013300084E9E816F104B1F60F900F900F900F902A
:10134000DF91CF911F910F91FF90EF90DF90CF90A1
:10135000BF90AF909F908F907F906F9008952F9245
:101360003F924F925F926F927F928F929F92AF9235
:10137000BF92CF92DF92EF92FF920F931F93CF9382
:10138000DF9300D000D01F92CDB7DEB7F82E8FEFDD
:1013900093E00E94FA32F81629F06F2D8FEF93E058
:1013A0000E94023301E011E0CE0101963C01E4E924
:1013B000FE9EC00111241C0126183708E12CF12CD7
:1013C0002E01F5E04F0E511CF80185858983868535
:1013D0008A8385818B8386818C834701820C931C51
:1013E0006301F60121916F012D835F01A80CB91CE7
:1013F000C5010E94FA329D81981721F0692FC5011D
:101400000E9402334C145D0461F7015F1F4FE4E05A
:10141000EE0EF11CF4E9EF16F104B1F60F900F9007
:101420000F900F900F90DF91CF911F910F91FF9030
:10143000EF90DF90CF90BF90AF909F908F907F9074
:101440006F905F904F903F902F900895CF92DF92D2
:10145000EF92FF926B017C0184E00E948207A7015A
:101460009601682F83E695E00E94A50785E00E941B
:101470008207A7019601682F88E595E00E94A507DD
:1014800086E00E948207A7019601682F81E295E01D
:101490000E94A50780E00E948207A7019601682F9D
:1014A0008CE295E00E94A50781E00E948207A701D7
:1014B0009601682F87E395E00E94A50782E00E94CD
:1014C0008207A7019601682F82E495E00E94A50794
:1014D00083E00E948207A7019601682F8DE495E0C2
:1014E000FF90EF90DF90CF900C94A507CF92DF9202
:1014F000EF92FF920F931F93CF93DF9360E08CE006
:101500000E94C82183E090E00197F1F761E08CE050
:101510000E94C821C7E0D0E0C12CD12C760103E0A5
:1015200010E085E00E949F21092E000CAA0BBB0B46
:101530000C2E04C0880F991FAA1FBB1F0A94D2F754
:10154000C82AD92AEA2AFB2A61E086E00E94C8213B
:10155000C8010197F1F760E086E00E94C821219759
:1015600000F7C701B601DF91CF911F910F91FF9056
:10157000EF90DF90CF9008956F927F928F929F921D
:10158000AF92BF92CF92DF92EF92FF920F931F9391
:10159000CF93DF9390EC699FB0011124672F770FF1
:1015A000770B6B01FFE1CF22DD24A3E0CC0CDD1C27
:1015B000AA95E1F7822E912CC42FD0E0EE24EA9474
:1015C000F12C87010C1B1D0B089DD001099DB00D4E
:1015D000189DB00D11244B2FCC9E5001CD9EB00C08
:1015E000DC9EB00C1124AB2CBB2400E011E03801D0
:1015F0006A187B08689C5001699CB00C789CB00C00
:101600001124EC18FD08EC9E6001ED9ED00CFC9EB0
:10161000D00C1124CD2CDD240C191D09089DE001EE
:10162000099DD00D189DD00D1124629566956770A7
:10163000623091F038F4662369F06130D9F4522FAA
:10164000EB2D19C0643081F058F0653099F45B2FB0
:101650004B2D0EC05D2F0CC0522FEB2F4D2F0BC00A
:101660005B2DEB2F422F07C05B2F422FED2F03C0C6
:10167000E22F01C040E0682F70E02091DC0830913B
:10168000DD086217730708F03FC02091E2082223AB
:1016900061F0E29FF0011124EF2F259FD00111246A
:1016A0005B2F249F90011124432FF091E808909123
:1016B000E5082091E3083091E408F91308C0B90166
:1016C000F3E08F9F600D711D1124CB010BC0CB0186
:1016D000880F991F880F991F820F931FDC01AF0F8E
:1016E000B11D1C922091E508DC01A20FB11DEC9305
:1016F0002091E608FC01E20FF11D50832091E708DC
:10170000FC01E20FF11D4083DF91CF911F910F91FA
:10171000FF90EF90DF90CF90BF90AF909F908F9011
:101720007F906F900895AF92BF92CF92DF92FF9219
:101730000F931F93CF93DF93F82EE1E0F1E08CE25B
:10174000C82E83E0D82E20E030E096E0A92EB12C00
:10175000CFEFD0E082819381B5010E94BE33CB01EF
:101760000FEF10E0BE010E94BE33820F931FBE0137
:101770000E94BE339C013F96CE16DF0659F7C296F3
:10178000B8010E94BE33EC012F2D4FEF682F80E08F
:101790000E94BC0ADD27CE010A96B8010E94BE3322
:1017A0002F2D4FEF682F83E00E94BC0ACE014E968A
:1017B000B8010E94BE332F2D4FEF682F82E00E94A8
:1017C000BC0ACE018896B8010E94BE332F2D4FEF80
:1017D000682F81E0DF91CF911F910F91FF90DF90F3
:1017E000CF90BF90AF900C94BC0ACF93DF93EC01E5
:1017F00081E08A830E949E22798368832FEF40E0F4
:1018000060E08B81DF91CF910C94BC0ACF92DF9284
:10181000EF92FF9287E00E949F21892B21F48EECAA
:1018200098E00E94F50B87E00E949F216C01990FC0
:10183000EE08FF08F7FE0EC06DE284EE96E00E940F
:10184000BF1266277727CB016C197D098E099F0986
:101850004AE003C04AE0C701B6010E94382342E0D3
:1018600050E06AE374E084EE96E0FF90EF90DF9042
:10187000CF900C940315FF920F931F93CF93DF9398
:10188000D82FF62EC42F0E94060C11E01C0FDF7714
:101890000F2D0F77C031B0F46C2F606980917F07F6
:1018A000909180070E949B076D2F80917F079091F8
:1018B00080070E949B07602F80917F07909180078F
:1018C0000E949B07F11002C080E801C080E91F70F0
:1018D000812B0E9468088D2F0E946808802FDF915D
:1018E000CF911F910F91FF900C9468081F93CF9395
:1018F000DF93182FD62FC42F0E94060C6FEF6C0FAA
:101900001F77DF776031A8F4606B80917F0790913B
:1019100080070E949B07612F80917F07909180072D
:101920000E949B076D2F80917F07909180070E94F6
:101930009B0782ED98E00E94F50BCF5F8C2F8F7094
:10194000806B0E946808812F0E9468088D2FDF91AC
:10195000CF911F910C946808CF93DF93FC012281F3
:101960002223C1F0EC010E949E2228813981DC01F2
:10197000CB01821B930BA109B1094097A105B105C9
:1019800008F01A822FEF40E060E08B81DF91CF9169
:101990000C94BC0ADF91CF910895EF92FF920F93C0
:1019A0001F93CF93DF93CDB7DEB768970FB6F89448
:1019B000DEBF0FBECDBF0E949E2260934F07709383
:1019C0005007809351079093520780EF98E00E9450
:1019D000F02280914E078111D0C06DE374E0CE01FA
:1019E00001960E94921320E040E060E0CE01019653
:1019F0000E940923CE0101960E94172063E574E03E
:101A0000CE0101960E94921320E043E060E0CE01F7
:101A100001960E940923CE0101960E94172066E5D7
:101A200074E0CE0101960E94921320E043E06FE340
:101A3000CE0101960E940923CE0101960E94172033
:101A400069E574E0CE0101960E94921320E043E024
:101A500063E7CE0101960E940923CE0101960E9400
:101A60001720E0914C078E2F90E08730910508F009
:101A7000EDC1FC01E35AFF4F0C94D233E0915307C0
:101A80008FE0E89FF0011124EF5FFE4F6685CE01E5
:101A90000D960E942F2060915307CE0107960E9459
:101AA0002F206CE574E0CE0101960E949213BE01D6
:101AB000695F7F4FCE0101960E941C2067E674E0AB
:101AC0000E943E13BE01635F7F4F0E941C20BC0139
:101AD000CE0143960E94781321E041E060E0CE0100
:101AE00043960E940923CE0143960E941720CE01FF
:101AF00001960E941720CE0107960E941720CE0162
:101B00000D96A2C160915307CE0107960E942F2027
:101B10006CE574E0CE0101960E949213BE01695FEC
:101B20007F4FCE0101960E941C206CE674E00E945B
:101B30003E1374C161E774E002C062E874E0CE0154
:101B400001960E94921321E041E060E00FC062E93B
:101B500074E0F5CF64EA74E002C060EB74E0CE019B
:101B600001960E94921321E041E064E1CE010196CA
:101B70000E940923CE01019667C16CEB74E0CE018F
:101B800001960E94921320E040E060E0CE010196B1
:101B90000E940923CE0101960E94172061ED74E096
:101BA000CE0101960E94921320E043E060E0CE0156
:101BB00001960E940923CE0101960E94172063ED31
:101BC00074E0CE0101960E94921320E043E06CE3A2
:101BD000CE0101960E940923CE0101960E94172092
:101BE00068ED74E0CE0101960E94921320E043E07C
:101BF00069E6CE0101960E940923CE0101960E945A
:101C0000172080914C07813009F490C0B8F08230E1
:101C100009F01CC160915407CE0107960E942F2045
:101C200066EF74E0CE0101960E949213BE01695FD7
:101C30007F4FCE0101960E941C20F0C0E091530717
:101C4000AFE0EA9FF0011124EF5FFE4F6685CE0101
:101C50000D960E942F2060915307CE0107960E9497
:101C60002F2061E674E0CE0101960E949213BE011E
:101C7000695F7F4FCE0101960E941C206AED74E0DF
:101C80000E943E13BE01635F7F4F0E941C20BC0177
:101C9000CE0143960E94781321E041E060E0CE013E
:101CA00043960E940923CE0143960E941720CE013D
:101CB00001960E941720CE0107960E941720CE01A0
:101CC0000D960E94172091E0E92E91E0F92E10E088
:101CD0000FE0E0915307E11711F10E9FF00111247D
:101CE000EF5FFE4F9685D7011E968C911E97981335
:101CF00016C095851D968C91981311C060EE74E006
:101D0000CE0101960E94921320E040E069E1CE01ED
:101D100001960E940923CE0101960E9417201F5FA1
:101D2000BFE0EB0EF11C1532A1F690C0E091530715
:101D30008FE0E89FF0011124EF5FFE4F6585CE0133
:101D40000D960E942F2060915307CE0107960E94A6
:101D50002F2061E674E0CE0101960E949213BE012D
:101D6000695F7F4FCE0101960E941C2060EF74E0F6
:101D70000E943E13BE01635F7F4F0E941C20BC0186
:101D8000CE0143960E94781321E041E060E0CE014D
:101D900043960E940923CE0143960E941720CE014C
:101DA00001960E941720CE0107960E941720CE01AF
:101DB0000D960E94172081E0E82E81E0F82E10E0B9
:101DC0000FE0E0915307E11711F10E9FF00111248C
:101DD000EF5FFE4F9685D7011E968C911E97981344
:101DE00016C095851D968C91981311C060EE74E015
:101DF000CE0101960E94921320E040E069E1CE01FD
:101E000001960E940923CE0101960E9417201F5FB0
:101E1000BFE0EB0EF11C1532A1F618C0BC01CE01DB
:101E20000D960E94781321E041E060E0CE010D960E
:101E30000E940923CE010D960E941720CE01019623
:101E40000E941720CE0107960E94172068960FB6B1
:101E5000F894DEBF0FBECDBFDF91CF911F910F91E0
:101E6000FF90EF9008951F93CF93DF93CDB7DEB728
:101E700062970FB6F894DEBF0FBECDBFE0916E053E
:101E80001FE01E9FF0011124EF5FFE4F6685CE011B
:101E900007960E942F206BED74E0CE0101960E9400
:101EA0009213BE01695F7F4FCE0101960E941C20F4
:101EB000BC01CE010D960E94781320E040E060E066
:101EC000CE010D960E940923CE010D960E94172087
:101ED000CE0101960E941720CE0107960E9417207E
:101EE000E0916E051E9FF0011124EF5FFE4F6585A6
:101EF000CE0107960E942F2061EF74E0CE0101967B
:101F00000E949213BE01695F7F4FCE0101960E942D
:101F10001C20BC01CE010D960E94781320E040E009
:101F20006AE5CE010D960E940923CE010D960E940E
:101F30001720CE0101960E941720CE0107960E941D
:101F4000172062960FB6F894DEBF0FBECDBFDF91AB
:101F5000CF911F9108951F93CF93DF93CDB7DEB735
:101F600062970FB6F894DEBF0FBECDBF80EF98E04A
:101F70000E94F0220E94330F60916E05CE010196FF
:101F80000E942F2023E040E067E3CE0101960E94EB
:101F90000923CE0101960E941720E0916E051FE0F3
:101FA0001E9FF0011124EF5FFE4F6581CE01079661
:101FB0000E942F2063E075E0CE0101960E949213EB
:101FC000BE01695F7F4FCE0101960E941C20BC01BB
:101FD000CE010D960E94781320E043E060E0CE0130
:101FE0000D960E940923CE010D960E941720CE0166
:101FF00001960E941720CE0107960E941720E091BB
:102000006E051E9FF0011124EF5FFE4F6681CE0129
:1020100007960E942F2069E075E0CE0101960E948C
:102020009213BE01695F7F4FCE0101960E941C2072
:10203000BC01CE010D960E94781321E042E061E4DC
:10204000CE010D960E940923CE010D960E94172005
:10205000CE0101960E941720CE0107960E941720FC
:1020600060916E05CE0101960E942F2023E040E092
:1020700067E3CE0101960E940923CE0101960E94DA
:10208000172062960FB6F894DEBF0FBECDBFDF916A
:10209000CF911F9108951F93CF93DF93CDB7DEB7F4
:1020A00062970FB6F894DEBF0FBECDBF80EF98E009
:1020B0000E94F0220E94330F60916E05CE010196BE
:1020C0000E942F2023E040E067E3CE0101960E94AA
:1020D0000923CE0101960E941720E0916E051FE0B2
:1020E0001E9FF0011124EF5FFE4F6581CE01079620
:1020F0000E942F206EE075E0CE0101960E9492139F
:10210000BE01695F7F4FCE0101960E941C20BC0179
:10211000CE010D960E94781321E042E060E0CE01EE
:102120000D960E940923CE010D960E941720CE0124
:1021300001960E941720CE0107960E941720E09179
:102140006E051E9FF0011124EF5FFE4F6681CE01E8
:1021500007960E942F2063E175E0CE0101960E9450
:102160009213BE01695F7F4FCE0101960E941C2031
:10217000BC01CE010D960E94781320E043E060E59B
:10218000CE010D960E940923CE010D960E941720C4
:10219000CE0101960E941720CE0107960E941720BB
:1021A00060916E05CE0101960E942F2023E040E051
:1021B00067E3CE0101960E940923CE0101960E9499
:1021C000172062960FB6F894DEBF0FBECDBFDF9129
:1021D000CF911F9108951F93CF93DF93CDB7DEB7B3
:1021E00062970FB6F894DEBF0FBECDBF80EF98E0C8
:1021F0000E94F0220E94330FE0916E051FE01E9FA7
:10220000F0011124EF5FFE4F6581CE0107960E9419
:102210002F2063E075E0CE0101960E949213BE016B
:10222000695F7F4FCE0101960E941C20BC01CE0148
:102230000D960E94781320E043E060E0CE010D96F9
:102240000E940923CE010D960E941720CE0101960F
:102250000E941720CE0107960E941720E0916E057C
:102260001E9FF0011124EF5FFE4F6681CE0107969D
:102270000E942F2063E175E0CE0101960E94921327
:10228000BE01695F7F4FCE0101960E941C20BC01F8
:10229000CE010D960E94781320E043E060E5CE0168
:1022A0000D960E940923CE010D960E941720CE01A3
:1022B00001960E941720CE0107960E941720609178
:1022C0006E05CE0101960E942F2023E041E067E3D6
:1022D000CE0101960E940923CE0101960E9417208B
:1022E00062960FB6F894DEBF0FBECDBFDF91CF91DF
:1022F0001F9108954091CB055091CC052091C905BF
:102300003091CA0542175307B4F49091E8009570D4
:10231000E1F39091E80092FD19C08093F100809163
:10232000CB059091CC0501968F739927892B19F4D1
:102330008EEF8093E8008091CB059091CC050196BB
:102340009093CC058093CB0581E0089580E00895BB
:10235000615030F02091F100FC0120830196F8CF0C
:10236000289884E68093CE050895CF92DF92EF926D
:10237000FF920F931F93CF93DF936C017A018B0130
:10238000C0E0D0E0CE15DF0581F0D8016D918D0160
:10239000D601ED91FC910190F081E02DC6010995E7
:1023A000892B11F02196EECF7E01C701DF91CF91ED
:1023B0001F910F91FF90EF90DF90CF900895FC0157
:1023C000538D448D252F30E0842F90E0821B930B9A
:1023D000541710F0CF96089501970895FC01918D40
:1023E000828D981761F0828DDF01A80FB11D5D9677
:1023F0008C91928D9F5F9F73928F90E008958FEFE5
:102400009FEF0895FC01918D828D981731F0828D98
:10241000E80FF11D858D90E008958FEF9FEF0895EF
:10242000FC01918D228D892F90E0805C9F4F821B53
:1024300091098F739927089585E298E00E94101200
:1024400021E0892B09F420E0822F0895FC01848D7E
:10245000DF01A80FB11DA35ABF4F2C91848D90E0CE
:1024600001968F739927848FA689B7892C93A089A9
:10247000B1898C9182748C93938D848D981306C04E
:102480000288F389E02D80818F7D80830895EF920B
:10249000FF920F931F93CF93DF93EC0181E0888F1E
:1024A0009B8D8C8D981305C0E889F989808185FD05
:1024B00026C0F62E0B8D10E00F5F1F4F0F731127F4
:1024C000E02E8C8DE8120CC00FB607FCFACFE8891D
:1024D000F989808185FFF5CFCE010E942612F1CFC8
:1024E0008B8DFE01E80FF11DE35AFF4FF0829FB77D
:1024F000F8940B8FEA89FB898081806209C09FB7BD
:10250000F894EE89FF896083E889F9898081827473
:1025100080839FBF81E090E0DF91CF911F910F9169
:10252000FF90EF900895CF93DF93EC01888D88237F
:10253000C9F0EA89FB89808185FD05C0A889B98930
:102540008C9186FD0FC00FB607FCF5CF808185FF0B
:10255000F2CFA889B9898C9185FFEDCFCE010E9479
:102560002612E7CFDF91CF91089580E090E0892B8C
:1025700029F00E941C1281110C9400000895CF9341
:10258000DF931F92CDB7DEB76983DC01ED91FC913B
:102590000280F381E02D41E050E0BE016F5F7F4F8C
:1025A00009950F90DF91CF9108950E94CE350F933A
:1025B0001F93CF93DF93EC0188819981009729F0D5
:1025C0002A813B812617370788F48B016F5F7F4F85
:1025D0000E940835009761F0998388831B830A83E2
:1025E0002C813D81232B11F4FC01108281E001C07C
:1025F00080E0DF91CF911F910F910895EF92FF92AC
:102600000F931F93CF93DF936115710511F480E051
:102610001CC041155105C1F07B01EC018C819D81ED
:102620008A01080F191FB801CE010E94D712882312
:1026300071F3288139818C819D81B701820F931FAD
:102640000E94DC351D830C8381E0DF91CF911F91C7
:102650000F91FF90EF900895CF93DF93EC01888165
:102660009981009711F00E947F34198218821D828F
:102670001C821B821A82DF91CF910895CF93DF9342
:10268000EC016115710561F0FB0101900020E9F793
:102690003197AF01461B570B0E94FE12811103C0F8
:1026A000CE010E942C13CE01DF91CF910895EF92BD
:1026B000FF920F931F93CF93DF93EC017B018A016D
:1026C000BA010E94D712811104C0CE010E942C13BE
:1026D00007C01D830C83B701888199810E94DC3576
:1026E000CE01DF91CF911F910F91FF90EF90089550
:1026F000FB01DC0111961C921E9213961C921E92F5
:10270000129715961C921E9214978617970749F0F8
:10271000608171816115710521F0448155810C94AE
:1027200057130895FC0111821082138212821582C0
:1027300014826115710551F0FB0101900020E9F749
:102740003197AF01461B570B0C9457130895809394
:10275000E9008091F200882319F08AE38093E80071
:1027600008951F920F920FB60F9211242F933F934B
:102770004F935F936F937F938F939F93AF93BF9389
:10278000CF93EF93FF93C091E1008091E100837FAD
:102790008093E100C3FF0FC01092E90081E08093B5
:1027A000EB001092EC0082E38093ED0010921C0588
:1027B00088E08093F000C2FF19C083E00E94A71355
:1027C0008091CF05882339F08091CF058150809387
:1027D000CF05882389F18091CE05882339F0809137
:1027E000CE0581508093CE05882341F1C4FF10C0EF
:1027F0008091E2008E7E81608093E2008091E10012
:102800008F7E8093E10080911A058E7E806111C0D9
:10281000C0FF16C08091E2008E7E80618093E2004E
:102820008091E1008E7E8093E10080911A058E7E7A
:10283000816080931A0504C05D9ACDCF289AD6CFC7
:10284000FF91EF91CF91BF91AF919F918F917F9128
:102850006F915F914F913F912F910F900FBE0F900D
:102860001F901895DF92EF92FF920F931F93CF93D3
:10287000DF93D82E8A017B01E40EF51EEB01CE1505
:10288000DF0571F0D7FE03C0FE01849101C088818D
:102890000E947A1121968111F2CF8FEF9FEF01C034
:1028A000C801DF91CF911F910F91FF90EF90DF90C2
:1028B00008952FB7F89487708093E9009091E8000D
:1028C000892F807295FF04C09091F20080E4891BEB
:1028D0002FBF08957F928F929F92AF92BF92CF9217
:1028E000DF92EF92FF920F931F93CF93DF93C82E47
:1028F0008B017A0180911C05811103C08FEF9FEF3E
:1029000074C080911A0580FF05C08091E00082604C
:102910008093E000CE2DDF2DD12C8AEFB82E8C2DA8
:102920008770982E8C2D8072882E8C2D8074782E36
:102930009AE3A92E209719F4DD2009F451C08C2DBB
:102940000E94591481110AC0BA94BB20B9F261E007
:1029500070E080E090E00E946422ECCF282F30E00D
:10296000C217D3070CF48C2F9FB7F8949092E9000C
:102970002091E80025FF32C0282F30E0C21BD30B86
:10298000882029F08150A0F01092F100FBCFF801CF
:10299000C7FE0AC0815050F044914093F100319637
:1029A000F9CF41914093F1008150D8F7020F131FE6
:1029B000DD2019F0A092E8000AC08091E80085FDB2
:1029C00008C0A092E800DD24D394209739F0D12CE0
:1029D00005C0209719F47110A092E8009FBFAACFFC
:1029E0005D9884E68093CF05C701DF91CF911F9159
:1029F0000F91FF90EF90DF90CF90BF90AF909F909E
:102A00008F907F900895CF93DF93EC0180913703EF
:102A1000882331F083E00E946A141816190634F0F6
:102A200081E090E09B838A8380E090E0DF91CF910A
:102A3000089590911C05992311F057FF03C08FEF63
:102A40009FEF08959FB7F89487708093E9002091D5
:102A5000F20030E0421753070CF49A01822FFB0179
:102A600044E6815038F028984093CE055091F1000B
:102A70005193F7CF2115310521F08091F200882381
:102A800019F09FBFC90108958BE68093E800F9CF44
:102A90008091C10581110DC082E08093BD0584E065
:102AA0008093BE051092C0051092BF0581E080930F
:102AB000C1058DEB95E008950F931F93CF93DF939E
:102AC0001F92CDB7DEB782E0898342E450E061E235
:102AD00071E080E80E9432140E944815DC011296D1
:102AE0000D911C9113970115110589F0D801ED91F5
:102AF000FC910280F381E02DBE016F5F7F4FC80122
:102B0000099597FD04C0F80100851185ECCF8981F6
:102B10000F90DF91CF911F910F9108951F920F9207
:102B20000FB60F921124CF92DF92EF92FF920F9384
:102B30001F932F933F934F935F936F937F938F9345
:102B40009F93AF93BF93EF93FF93CF93DF93CDB753
:102B5000DEB76C97DEBFCDBF1092E9008091E80030
:102B600083FFFBC168E0CE0145960E94A81182EF69
:102B70008093E8008D8987FF05C09091E80090FF61
:102B8000FCCF03C09EEF9093E800982F907609F059
:102B9000C6C09E894F89588D2F89F88C91110CC021
:102BA000803829F480911B058093F10002C01092B7
:102BB000F1001092F10045C1913051F4811141C1F1
:102BC0004130510509F03DC180911B058D7F0BC03F
:102BD000933061F4811135C14130510509F031C1A3
:102BE00080911B05826080931B052BC1953049F4B1
:102BF0008091E80080FFFCCF822F80688093E30003
:102C000020C1963009F05EC00B8D1C8D22E0109221
:102C1000E9001092CC051092CB05F21232C010924E
:102C2000CA051092C9050E945C1599E0BE016F5F4C
:102C30007F4FDB01E92F1D92EA95E9F79983FA822C
:102C400091E09E8390EA98879AEF99872091CB052F
:102C50003091CC05275F3F4F3C832B838D831092AF
:102C6000E9001092CC051092CB051093CA05009391
:102C7000C90549E050E080E00E9432140E945C15D2
:102C8000E0C01093CA050093C9050E944815DC01F5
:102C900012960D911C9113970115110509F4BBC0F3
:102CA000D801ED91FC910480F581E02DBE016B5EB1
:102CB0007F4FC8010995009709F0C7C0F80100854A
:102CC0001185EACF973009F445C1983021F481E0AD
:102CD0008093F100B6C0993009F0B3C0837009F059
:102CE00039C1ECE3F3E081E031E096E3208121118A
:102CF00009C08EE78093EA001092EA008F898093E2
:102D00001C059FC08093E9003093EB002191209334
:102D1000EC009093ED008F5F873041F7EACF8B8D09
:102D20009C8D1092E9001092CC051092CB059093E7
:102D3000CA058093C905898D811153C08E899D89EB
:102D4000913A49F4813209F005C147E050E060E36F
:102D500073E080E0BBC0913209F0FCC0833269F4BB
:102D60008F89988DA0E0B0E080932C0390932D0381
:102D7000A0932E03B0932F0364C0803269F4809136
:102D8000E80082FFFCCF67E080E393E00E94A81197
:102D90008BEF8093E80055C0823209F052C08F89D2
:102DA00080933703EEEFFFE7859194918B3F9C4D25
:102DB00019F0E0E0F8E002C0EEEFFAE080913003B5
:102DC00090913103A0913203B0913303803B944042
:102DD000A105B10509F09EC08091370380FF79C03D
:102DE00099C00E944815FC0102811381011511054B
:102DF00009F4B0C0D801ED91FC910190F081E02D73
:102E0000BE016B5E7F4FC801099581111AC0F801A0
:102E100000851185EBCFF1E0FF1609F44EC0F3E019
:102E2000FF1298C08F89882309F44AC0823089F440
:102E300040E860E185E891E00E948E30882309F443
:102E400089C08EEF8093E80088C018161906CCF36D
:102E500081C0813029F440E86BE089E791E0ECCF54
:102E6000833009F077C00E944815DC011296ED907E
:102E7000FC9013978E010F5F1F4F6801E114F1045E
:102E800079F0D701ED91FC910680F781E02DB80132
:102E9000C7010995080F111DF701E084F184EECFF9
:102EA000D8011C92F60101900020E9F73197BF018B
:102EB0006C197D0940E0C601BFCF67E671E002C032
:102EC00063E671E0FB01449150E080E80E94321417
:102ED000B8CFEE3F2AE0F20751F080819181873729
:102EE000A7E79A0721F09093FF0A8093FE0A87E7ED
:102EF00097E791838083809160008093CD059BE06C
:102F000088E10FB6F894A895809360000FBE909367
:102F1000600097CF808191818737974709F091CFE3
:102F2000A895809160008861809360008091CD05B4
:102F300080936000EE3FBAE0FB0739F08091FE0A13
:102F40009091FF0A918380837CCF1092FF0A1092A8
:102F5000FE0A77CF81E28093EB006C960FB6F8946F
:102F6000DEBF0FBECDBFDF91CF91FF91EF91BF913B
:102F7000AF919F918F917F916F915F914F913F9111
:102F80002F911F910F91FF90EF90DF90CF900F90B6
:102F90000FBE0F901F9018951F920F920FB60F92B1
:102FA00011242F933F934F935F936F937F938F934E
:102FB0009F93AF93BF93EF93FF9385E298E00E94B6
:102FC0002612FF91EF91BF91AF919F918F917F91C9
:102FD0006F915F914F913F912F910F900FBE0F9086
:102FE0001F9018951F920F920FB60F9211242F93D6
:102FF0008F939F93EF93FF93E0913508F0913608FC
:103000008081E0913B08F0913C0882FD12C09081E4
:1030100080913E088F5F8F7320913F08821751F097
:10302000E0913E08F0E0EB5DF74F958F80933E080E
:1030300001C08081FF91EF919F918F912F910F900F
:103040000FBE0F901F901895FC018485958597FD04
:103050000BC09FB7F89482E08093E9008091F20062
:103060009FBF90E0019608959FB7F89482E0809307
:10307000E9008091F2009FBF90E00895CF93DF9325
:10308000EC018D85882319F081508D8711C09C81BA
:103090008E81981768F488896827E881F98100840F
:1030A000F185E02D42E0CE0109958C818F5F8C8304
:1030B000DF91CF91089585ED8093BC008091BC0095
:1030C00084FDFCCF1092BF06089540914C06262F38
:1030D00030E0240F311D21323105DCF42091BF0690
:1030E0002430C9F4FC0180E090E0861758F4309158
:1030F0004C062191DC01A45DB94FA30FB11D2C93A7
:103100000196F3CF80914C06680F60934C0680E0E7
:10311000089581E0089582E008950895089508953E
:10312000E091780680917706E81730F4F0E0E758F0
:10313000F94F808190E008958FEF9FEF089590916F
:10314000780680917706981750F4E92FF0E0E75859
:10315000F94F208130E09F5F9093780602C02FEFF7
:103160003FEFC90108958091770690E0209178069D
:10317000821B91090895CF92DF92EF92FF920F93F5
:103180001F93CF93DF937C01CB018A012091C0066E
:10319000222389F0EB016B01C40ED51ECC15DD0591
:1031A00069F06991D701ED91FC910190F081E02DDA
:1031B000C7010995F3CF642F0E946518C801DF91FC
:1031C000CF911F910F91FF90EF90DF90CF900895D6
:1031D000CF93DF931F92CDB7DEB769832091C006EE
:1031E0002223D1F02091E306203240F021E030E0AC
:1031F000FC013383228380E090E015C08091C106FA
:10320000E82FF0E0EE53F94F998190838F5F809320
:10321000C1068093E30605C061E0CE0101960E94DD
:10322000651881E090E00F90DF91CF91089580E0E4
:1032300090E0089583E00C94A71383E00E94591452
:1032400090E008950F931F93CF93DF931F92CDB714
:10325000DEB78C01FC018485958597FF12C041E0A3
:1032600050E0BE016F5F7F4F82E00E941915019709
:1032700019F4898190E002C08FEF9FEFF8019587E4
:103280008487F801848595850F90DF91CF911F91F8
:103290000F910895CF93DF931F92CDB7DEB7FC0156
:1032A0008485958597FD05C02FEF3FEF35872487EF
:1032B0000FC041E050E0BE016F5F7F4F82E00E948F
:1032C0001915019719F4898190E002C08FEF9FEFE3
:1032D0000F90DF91CF910895862F0C9468080F937B
:1032E0001F93CF93DF93CDB7DEB7CC55D1090FB67F
:1032F000F894DEBF0FBECDBF8C01DB019C919E5FB9
:103300009C93FE0131968CE5DF011D928A95E9F7C9
:1033100039E0398374E07A8391E09E839F833A8712
:1033200054E25B879C879E873F87998B43E04A8B5B
:103330003B8B7C8B22E02F8B988F498F87E08C8F83
:103340005D8F9E8F98A381E489A386E08BA35CA305
:103350002DA39EA39FA389A75AA72BA72CA72DA770
:103360003FA758AB49AB9AAB4BAB9CAB2DAB9EABDD
:1033700038AF59AF4AAF2BAF7CAF9DAF9EAF9FAF79
:1033800022963FAF229755E023965FAF239725966D
:103390002FAF259760E426966FAF26972B965FAFE9
:1033A0002B9785E22C968FAF2C972D969FAF2D975C
:1033B0002E969FAF2E972F969FAF2F9760963FAF79
:1033C000609761965FAF619763962FAF639764963E
:1033D0006FAF649769965FAF69976A968FAF6A9788
:1033E0006B969FAF6B976C969FAF6C976D964FAF38
:1033F0006D97D80112969C9112979B839F5F9D8B2E
:1034000013968C9124968FAF24978F5F8068629675
:103410008FAF62974CE550E0BF0180E00E9432140C
:10342000C45ADF4F0FB6F894DEBF0FBECDBFDF9199
:10343000CF911F910F910895DC01ED91FC910084D3
:10344000F185E02D40E00994FC0187818695869501
:103450008695681740F465839385690F6770606B84
:10346000CF010C941C1A08950F931F93CF93FC0166
:1034700026816217A0F4C62F8C0164839085C90F42
:103480006C2F6F70CF010E941C1A6C2F62956F70A9
:103490006061C801CF911F910F910C941C1ACF91BC
:1034A0001F910F910895CF92DF92EF92FF920F93A9
:1034B0001F93CF93DF93EC01F62EC42ED22E1D86E0
:1034C0008F81869586958695081710F00FEF080F67
:1034D0001D2D6F2DCE01011788F00E94341A612F27
:1034E000CE010E94241AEF2CCE1430F06889CE0150
:1034F0000E943E18E394F8CF1F5FEBCF0E94341A6E
:103500006D2DCE01DF91CF911F910F91FF90EF9024
:10351000DF90CF900C94241A2F923F924F925F929B
:103520006F927F928F929F92AF92BF92CF92DF92D3
:10353000EF92FF920F931F93CF93DF93CDB7DEB738
:103540002A970FB6F894DEBF0FBECDBFDC011E96E2
:103550002D913C911F972115310509F463C19A877C
:103560008987F9013296449031967491E72EF12CB7
:10357000B7E0EB0EF11C93E0F594E7949A95E1F730
:10358000EA823196A4913196E4916A1758F0462F59
:1035900050E08E2F90E0FC01EA0FF11D4E175F07FF
:1035A0000CF46AC06D3031F460E089859A850E9420
:1035B000341A3BC16A3009F035C160E089859A85CB
:1035C0000E94341AE985FA8501890E9DE02C1124A8
:1035D000278126952695269565816E0D8E2D821B59
:1035E000860F9485992309F418C118160CF015C19B
:1035F000A985BA851B969C911B97890F87701B968E
:103600008C931B972E1915962C9315971E96ED915A
:10361000FC911F97309769F03396E491F0E037966C
:1036200083E0F595E7958A95E1F70E9FE02D11244B
:1036300001C0E0E00FEF020F0E0FE985FA85468129
:1036400041506481CF010E94531AA985BA851C9606
:103650008C911C97813009F0E8C01B966C911B97E8
:10366000660F660F660F6F731A966C931A976064F5
:10367000CD010E941C1AD9C0A9014A5F5F4F6A1B85
:10368000A985BA851996FC9119975196EC91FE9FE0
:10369000E02D1124E887F901A4913196249130E0BE
:1036A0003A2B2230310570F44E9CC0014F9C900D96
:1036B0001124689F8001699F100D1124040F151FAC
:1036C000312C22C0777021F028E0322E371A01C049
:1036D000312CFA0120E0A0E0B0E0261731F034915F
:1036E000A30FB11D2F5F3196F8CFFA01E20FF11D44
:1036F0004490EA9E8001EB9E100DFA9E100D11245D
:10370000080F191F040F151FA985BA851496BC91BF
:10371000BB83E985FA85F581FC83A985BA851D9669
:10372000BC91BD83E42DF0E0FF83EE83812C912CCE
:10373000C12CD12CC982FA81CF1608F06DC0212C82
:1037400036019FEF691A790AA985BA8551968C913D
:103750005197281608F058C0ED811D96EC93F98119
:10376000F11102C0222079F0A985BA851596BC9086
:103770001597B3946B81CD010E94341A6B2D898506
:103780009A850E94241AA12CB12CA41410F0B12CFB
:103790002FC0F401EA0DFB1DE00FF11F5490332000
:1037A00061F0E614F70449F4E52DF0E0032C02C0C3
:1037B000F595E7950A94E2F75E2EE985FA85818909
:1037C000823069F4E52D2110E295EF70F0E0EA56C1
:1037D000FE4F5490652D89859A850E943E18652D6F
:1037E00089859A850E943E18FFEFAF1ABF0ACDCF98
:1037F0008885B81639F060E089859A850E943E1860
:10380000B394F6CF2394A0CF9FEFC91AD90AAE8103
:10381000BF818A0E9B1E8ECF6C8189859A850E94FE
:10382000241A03C080E090E002C081E090E02A9674
:103830000FB6F894DEBF0FBECDBFDF91CF911F91C1
:103840000F91FF90EF90DF90CF90BF90AF909F903F
:103850008F907F906F905F904F903F902F90089542
:103860001F920F920FB60F9211242F933F934F93F5
:103870005F936F937F938F939F93AF93BF93EF93D8
:10388000FF938091B900887F803609F49CC068F569
:10389000883209F45BC090F4803109F454C038F4E4
:1038A000882309F4F6C0883009F44DC0F6C0883189
:1038B00009F44CC0803209F45DC0EFC0803409F4D3
:1038C00068C048F4803309F455C0883309F0E5C076
:1038D0008093BD06D8C0803509F44FC0883509F4FF
:1038E0005DC0883409F0D9C0D6C0883909F4C7C092
:1038F000A8F4883709F467C038F4883609F463C03F
:10390000803709F460C0C9C0883809F4B8C080396C
:1039100009F45FC0803809F0C0C05BC0803B09F487
:1039200086C038F4803A09F466C0883A09F47FC04A
:10393000B4C0803C09F4A7C0883C09F4A4C0883B0B
:1039400009F48AC0AAC080919A0610C09091BC0662
:103950008091BB06981770F5E091BC0681E08E0F50
:103960008093BC06F0E0E556F94F80818093BB0060
:1039700085EC86C08093BD068EC0E091BC0681E0D8
:103980008E0F8093BC068091BB00F0E0E556F94FA6
:1039900080839091BC068091BB066EC0E091BC060E
:1039A00081E08E0F8093BC068091BB00F0E0E5566D
:1039B000F94F80838091BE0681116DC081E08093B4
:1039C000990684EA61C083E08093BF0610926E0678
:1039D000CFCF80916E06803208F051C0E0916E0624
:1039E00081E08E0F80936E068091BB00F0E0E25B79
:1039F000F94F8083BDCF85EC8093BC001092BF0649
:103A000080916E06803230F4E0916E06F0E0E25B69
:103A1000F94F108260916E0670E0E0911D05F09103
:103A20001E058EE496E0099510926E0636C084E07D
:103A30008093BF0610924D0610924C06E0911F0530
:103A4000F0912005099580914C06811105C081E017
:103A500080934C0610922C06E0914D0681E08E0F6B
:103A600080934D06F0E0E45DF94F80818093BB00C8
:103A700090914D0680914C06981708F479CF85E80F
:103A80008093BC000AC085EC8093BC001092BF06F6
:103A900004C01092BD060E945B18FF91EF91BF9188
:103AA000AF919F918F917F916F915F914F913F91D6
:103AB0002F910F900FBE0F901F901895AF92BF924D
:103AC000CF92DF92EF92FF920F931F93CF93DF93EA
:103AD000CDB7DEB727970FB6F894DEBF0FBECDBFC8
:103AE0008C015C0162E5A60EB11C7C0173E5E70E5A
:103AF000F11C80E4C82ED12C44E050E0BE016F5F81
:103B00007F4FD80113968C910E941915009709F4E4
:103B100054C0049709F051C02A813B818981E82F64
:103B2000EF708E2F90E0FC013297EE30F105A0F49B
:103B3000EC59FF4F0C94D2332D8321E030E00EC0BE
:103B40002D833E8322E030E009C08C812D833E83AB
:103B50008F8323E030E002C020E030E0F5014081B7
:103B6000D7018C9190E0805C9F4F841B9109B60136
:103B70000E94BE33F601E81BF90BE217F3070CF4C1
:103B8000BBCFFE0135962E0F3F1FE217F30709F456
:103B9000B3CFD7018C9190E0BC016F5F7F4F6F7303
:103BA0007727461741F0D801A80FB91F50815296C8
:103BB0005C93D7016C933196E8CF27960FB6F894B3
:103BC000DEBF0FBECDBFDF91CF911F910F91FF9050
:103BD000EF90DF90CF90BF90AF9008958091240632
:103BE000811133C082E08093D4058093D50588E3AA
:103BF00093E09093D7058093D6051092D905109243
:103C0000D80584E793E09093D1058093D005109276
:103C1000DB051092DA051092DC051092E005109297
:103C2000E1051092DD051092DE051092DF0510927D
:103C300022061092230680E4E2EEF5E0DF011D92F9
:103C40008A95E9F781E08093240680ED95E0089558
:103C50000E94EE1DFC0183818F5F0C94A713CF930C
:103C6000DF930E94EE1DEC010E945E1DFE01EE5AE4
:103C7000FF4F808131969081891721F0C80FD11DA7
:103C80008A8901C080E090E0DF91CF9108950E9481
:103C9000EE1D0C948121CF93DF930E94EE1DEC0169
:103CA0000E945E1DFE01EE5AFF4FCD5ADF4F81E0AC
:103CB00090E030812881321302C080E090E0DF91F3
:103CC000CF91089590E0FC013197EF30F105B0F508
:103CD000EE58FF4F0C94D233809180008F7703C051
:103CE000809180008F7D8093800008958091800076
:103CF000877FF9CF84B58F7702C084B58F7D84BD6F
:103D00000895809190008F7707C0809190008F7DFB
:103D100003C080919000877F8093900008958091E8
:103D2000C0008F7703C08091C0008F7D8093C0005A
:103D300008958091C200877F8093C20008953FB7A5
:103D4000F8948091730690917406A0917506B091D5
:103D5000760626B5A89B05C02F3F19F00196A11D38
:103D6000B11D3FBFBA2FA92F982F8827820F911D11
:103D7000A11DB11DBC01CD0142E0660F771F881F58
:103D8000991F4A95D1F70895CF93DF93C2ECD8E0FD
:103D9000998121E02093C0069093E2061092C1061B
:103DA0001092E306682F84E397E00E94E81881E010
:103DB0000E948923888362E089810E94072484E32A
:103DC00097E00E949F18D82F80E0C82F84E397E0E7
:103DD0000E949F188C2B9D2BDF91CF910895CF933C
:103DE000DF93C2ECD8E0998121E02093C006909344
:103DF000E2061092C1061092E306682F84E397E072
:103E00000E94E81881E00E948923888361E089810B
:103E10000E94072484E397E00E949F18DF91CF91CE
:103E200008950F931F93CF93DF93162F072FC2ECA4
:103E3000D8E0998121E02093C0069093E206109289
:103E4000C1061092E306682F84E397E00E94E81809
:103E5000602F84E397E00E94E818612F84E397E0E5
:103E60000E94E81881E00E9489238883DF91CF9126
:103E70001F910F9108958F929F92AF92BF92EF92F0
:103E8000FF920F931F93CF93DF937C01EB0180E5AB
:103E90000E94EF1E8F5F880F90E09983888386E4ED
:103EA0000E94EF1E082F10E00F5F1F4F1D830C8331
:103EB000A881B0E020E03FE24AE350E00E942F33C7
:103EC0006C507E4F8F4F9F4F38EE832E33E0932EF2
:103ED000A12CB12CA50194010E947933D8010E9434
:103EE0003A336C507E4F8F4F9F4FA50194010E9433
:103EF00079332A873B874C875D8781E50E94C41E02
:103F00008C01112702C0000F111F9A95E2F70F5F75
:103F10001F4F1F830E83A881B0E020E03FE24AE3F9
:103F200050E00E942F336C507E4F8F4F9F4FA50162
:103F300094010E947933D8010E942F336C507E4F38
:103F40008F4F9F4FA50194010E9479332E873F87A1
:103F5000488B598B80E70E94EF1E8F5F880F90E09F
:103F60009B838A8381E70E94C41E9C01992702C01B
:103F7000880F991F3A95E2F7019699878887F7018C
:103F80002381222331F02E813F81821B930B99875D
:103F90008887AA81B0E020E03FE24AE350E00E9437
:103FA0002F336C507E4F8F4F9F4F28EE822E23E091
:103FB000922EA12CB12CA50194010E947933A885E1
:103FC000B9850E942F336C507E4F8F4F9F4FA501B4
:103FD00094010E9479332A8B3B8B4C8B5D8BDF9154
:103FE000CF911F910F91FF90EF90BF90AF909F9056
:103FF0008F900895CF93DF93EC0181E00E94EF1E34
:1040000084FB992790F9988383FB992790F99A83E9
:1040100082FB992790F9998386FB992790F99B83D6
:10402000881F8827881F8C83DF91CF910895FC011A
:10403000808191810C947F34CF93DF93EC01FB015D
:1040400044815581608171810E94FE12811103C0FB
:10405000CE010E942C13CE01DF91CF910895EF92F3
:10406000FF920F931F93CF93DF93CDB7DEB72997BE
:104070000FB6F894DEBF0FBECDBF8C01862FF801BE
:104080001182108213821282158214824AE09E01EC
:104090002F5F3F4F7901B90190E00E94D032F701C4
:1040A00001900020E9F73197AF014E195F09B70180
:1040B000C8010E94571329960FB6F894DEBF0FBEB1
:1040C000CDBFDF91CF911F910F91FF90EF90089599
:1040D000EF92FF920F931F93CF93DF93CDB7DEB78D
:1040E00062970FB6F894DEBF0FBECDBF8C01CB0137
:1040F000F8011182108213821282158214824AE022
:104100009E012F5F3F4F7901B9010E94C532F7012F
:1041100001900020E9F73197AF014E195F09B7010F
:10412000C8010E94571362960FB6F894DEBF0FBE07
:10413000CDBFDF91CF911F910F91FF90EF90089528
:10414000CF92DF92EF92FF920F931F93CF93DF9363
:10415000CDB7DEB729970FB6F894DEBF0FBECDBF3F
:104160008091E3089091E408892B09F4BBC0C090CA
:10417000E908D090EA08E090EB08F090EC080E9483
:104180009F1E6C157D058E059F0550F40E949F1E95
:104190006093E9087093EA088093EB089093EC0829
:1041A0000E949F1E0091E9081091EA082091EB08F7
:1041B0003091EC08DC01CB01801B910BA20BB30BFF
:1041C0008C329140A105B10590F2F8948091DE08FF
:1041D0009091DF089A838983E091E308F091E408E5
:1041E000DF011196808189879091DA08E091ED08CE
:1041F000F091EE088091EF08992309F42EC0908188
:10420000982B98879081809589238F838F818C83C9
:1042100088E08B8358856F8149853B812C8189811A
:104220009A81508347FD252F3A952083262F39F018
:10423000441F00C000006083000000C0F2CF38E0DF
:104240004D9160830000019761F7F093EE08E093D1
:10425000ED0849873B832C8338C09081982B988741
:104260009081809589238F838F818E8388E08D83D1
:1042700058856F8149853D812E8189819A8150833E
:1042800047FD252F00C000C0208300C000C000C033
:1042900000C000C060830000262F3A9541F0441F03
:1042A000000000C000C000C000C000C0E8CF38E07F
:1042B0004D9100C0608300C0019709F7F093EE08AC
:1042C000E093ED0849873D832E839A838983789410
:1042D0000E949F1E6093E9087093EA088093EB08A0
:1042E0009093EC0829960FB6F894DEBF0FBECDBFB1
:1042F000DF91CF911F910F91FF90EF90DF90CF90C2
:104300000895CF93DF93EC010E945E1DFE01EE5AEB
:10431000FF4F2081DE01AD5ABF4F8C91281751F01D
:1043200030E0C20FD31F8A892F5F3F4F2F7333278F
:10433000208301C080E090E0DF91CF910895CF937A
:10434000DF93282F30E0F901E253FE4F8491F90109
:10435000E35BF14FD491F901E658F14FC491CC23BE
:1043600091F081110E94621EEC2FF0E0EE0FFF1F12
:10437000E054FE4FA591B491EC91ED2381E090E0E3
:1043800021F480E002C080E090E0DF91CF910895B9
:104390001F93CF93DF93282F30E0F901E253FE4FB4
:1043A0008491F901E35BF14FD491F901E658F14FA3
:1043B000C491CC23C1F0162F81110E94621EEC2FF4
:1043C000F0E0EE0FFF1FE459F14FA591B4919FB7B4
:1043D000F894111104C08C91D095D82302C0EC91AF
:1043E000DE2BDC939FBFDF91CF911F910895CF9378
:1043F000DF9390E0FC01E35BF14F2491FC01E65870
:10440000F14F8491882361F190E0880F991FFC019E
:10441000EE54FE4FC591D491FC01E459F14FA591A2
:10442000B491611109C09FB7F894888120958223C7
:104430008883EC912E230BC0623061F49FB7F8940F
:104440008881322F309583238883EC912E2B2C93F7
:104450009FBF06C08FB7F894E8812E2B28838FBFAB
:10446000DF91CF910895823108F08251E82FF0E07A
:10447000EA55FE4FE49180917B00E3FB222720F96F
:1044800030E095E0220F331F9A95E1F78F7D282BBE
:1044900020937B0080913A0320E4829FC001112485
:1044A000E770E82BE0937C0080917A008064809331
:1044B0007A0080917A0086FDFCCF8091780020916F
:1044C000790090E0922B08958F929F92AF92BF92C5
:1044D000CF92DF92EF92FF926B017C010E949F1EB0
:1044E0004B015C01C114D104E104F104F1F00E941C
:1044F0009F1EDC01CB0188199909AA09BB09883ED6
:104500009340A105B10570F321E0C21AD108E1087A
:10451000F10888EE880E83E0981EA11CB11CC1141E
:10452000D104E104F10419F7DDCFFF90EF90DF90A3
:10453000CF90BF90AF909F908F9008952FB7F89431
:1045400060916F067091700680917106909172066D
:104550002FBF0895682F616080E00E94E5230E94CC
:104560009E227093C8086093C70883E10E94EF1EE3
:104570008770B9F48091C4089091C508892BA9F37C
:104580000E949E222091C7083091C808621B730BBD
:104590008091C4089091C5088617970730F780E08E
:1045A000089561E08BE00E94E52360E080E00E94D6
:1045B000E52381E008959093FF088093FE0800971B
:1045C00041F0FC0124913196849190E0922B019767
:1045D00021F081E08093F90808951092F908089578
:1045E0000F93CF93DF93EC011B861A8660E40E9441
:1045F0001C1A0F8106950695069501504E81415073
:1046000020E060E0CE010E94531ADF91CF910F911C
:1046100008950F931F93CF93DF93EC01062F142F70
:10462000213049F028F0233051F48DEE91E005C09F
:1046300087E69CE002C081E297E00E94DB2281E0F5
:1046400080930109602F80EF98E00E94341A612F57
:1046500080EF98E00E94241A4C815D816881798105
:1046600080EF98E0DF91CF911F910F910C94B511DD
:104670008F929F92AF92BF920F931F93CF93DF932E
:10468000CDB7DEB7A1970FB6F894DEBF0FBECDBF92
:1046900019A2423008F44AE08E010F5D1F4F842EAC
:1046A000912CA12CB12CA50194010E947933E62F05
:1046B000B901CA0101501109EA3014F4E05D01C0EA
:1046C000E95CD801EC93232B242B252B61F70115F2
:1046D000110571F0F80101900020E9F73197AF0161
:1046E000401B510BB80184EE96E00E94031502C0F6
:1046F00080E090E0A1960FB6F894DEBF0FBECDBF6C
:10470000DF91CF911F910F91BF90AF909F908F90AD
:104710000895282F3091E306313208F04AC0809185
:10472000BF068111FCCF9091E20642E04093BF06A4
:104730002093BE062FEF2093BD061092BC06309347
:10474000BB06E2ECF6E0ABE9B6E020E0321721F080
:1047500041914D932F5FFACF10929A0620919A06BD
:10476000990F922B90939A0690919906913061F44B
:104770001092990690919A069093BB009091BC007C
:1047800093FDF8CF95EC01C095EE9093BC0090910D
:10479000BF069230E1F39091BD069F3F79F0809182
:1047A000BD06803241F08091BD06803331F084E057
:1047B00005C081E003C082E001C083E01092C10621
:1047C0001092E3061092C00608951F93CF93DF93D3
:1047D000162FC2ECD8E0998121E02093C006909377
:1047E000E2061092C1061092E306682F84E397E078
:1047F0000E94E818612F84E397E00E94E81881E0A6
:104800000E9489238883DF91CF911F910895909111
:10481000BF069111FCCF613208F060E291E0909305
:10482000BF069093BE062FEF2093BD061092BC06E4
:10483000260F2093BB0690939A0690919A06880FB4
:10484000892B80939A0680919906813061F41092A9
:10485000990680919A068093BB008091BC0083FDED
:10486000F8CF85EC01C085EE8093BC008091BF0637
:104870008130E1F38091BC06861710F46091BC068C
:10488000EBE9F6E0A9E7B6E080E0861721F0919128
:104890009D938F5FFACF10927806809377060895E4
:1048A0001F920F920FB60F9211242F933F938F9365
:1048B0009F93AF93BF9380916F0690917006A091E4
:1048C0007106B09172063091070923E0230F2D374E
:1048D00020F40196A11DB11D05C026E8230F029604
:1048E000A11DB11D2093070980936F069093700658
:1048F000A0937106B093720680917306909174062E
:10490000A0917506B09176060196A11DB11D809308
:10491000730690937406A0937506B0937606BF91C4
:10492000AF919F918F913F912F910F900FBE0F905C
:104930001F901895CF93DF93CDB7DEB7C655D10939
:104940000FB6F894DEBF0FBECDBF789484B58260F9
:1049500084BD84B5816084BD85B5826085BD85B523
:10496000816085BD80916E00816080936E001092A1
:10497000810080918100826080938100809181001C
:1049800081608093810080918000816080938000AD
:10499000809191008260809391008091910081606C
:1049A000809391008091900081608093900080912D
:1049B000C10084608093C1008091C10082608093B7
:1049C000C1008091C10081608093C1008091C300CB
:1049D00081608093C3008091C00082608093C0009A
:1049E0008091C20081608093C20080917A008460CF
:1049F00080937A0080917A00826080937A0080911F
:104A00007A00816080937A0080917A008068809338
:104A10007A0010921C0510921B0510921A058091C5
:104A2000D70081608093D70080EA8093D80089B551
:104A3000806189BD89B5826089BD09B400FEFDCF62
:104A400061E070E080E090E00E9464228091D800F4
:104A50008F7C80618093D8008091E000807F80937C
:104A6000E0008091E1008E7E8093E1008DE08093F4
:104A7000E200559A209A60E087E00E94F7218FEFCC
:104A800093E00E94FA32843008F081C08FEF93E007
:104A90000E94FA32182F0E944C0991E09093000175
:104AA000E0917F07F09180070190F081E02DA089CF
:104AB000B18982E08C93A485B5851C92A685B785C3
:104AC0008FE38C93108EA489B58986E08C93A2899C
:104AD000B3898C9180618C93A289B3898C91886011
:104AE0008C93A289B3898C9180688C930288F38916
:104AF000E02D80818F7D80839093810710928307C2
:104B00001092820710928A071092890710928807E4
:104B100010928707EE24EA94FE2CF0928C07E09224
:104B20008B07F0928E07E0928D070E949E22609381
:104B30001708709318088093190890931A08109218
:104B400014081092910710929007109292071092F9
:104B50009307109216081092150880918F078170A4
:104B60008260816080938F07F092F106E092F006F8
:104B70008091E0089091E10897FD1BC061E00E94E0
:104B8000F72160E08091E0080E94C82112C060E037
:104B90008FEF93E00E94023380E00E94AF0981E032
:104BA0000E94AF0982E00E94AF0983E00E94AF0932
:104BB0006DCF81E08093DB086091E208653121F1DF
:104BC0002091E3083091E408615031F070E08FEFFC
:104BD00094E10E94AA3302C060E070E0F9014091C4
:104BE000DE085091DF08CF01821B930B84179507D5
:104BF00040F44081469FC001479F900D112491933E
:104C0000EECF85E18093E20800E020E040E060E044
:104C1000802F0E94BC0A0F5F0430B9F70E94A020C9
:104C200061E08CE00E94F72161E086E00E94F721BC
:104C300060E085E00E94F72160E086E00E94C821E4
:104C400061E08CE00E94C8210E94760A60936F05A3
:104C500070937005809371059093720510923A03DA
:104C600068E4E62E63E0F62EF7010081F2E0EF0E35
:104C7000F11C61E0802F0E94F72160E0802F0E94EC
:104C8000C82120E5E21623E0F20671F710927806BB
:104C9000109277061092C1061092E3061092BF069A
:104CA00081E08093BE061092990661E082E00E9446
:104CB000C82161E083E00E94C8218091B9008E7F05
:104CC0008093B9008091B9008D7F8093B90088E40A
:104CD0008093B80085E48093BC008DE898E19093C0
:104CE000200580931F058EE898E190931E05809320
:104CF0001D05109204098CE3809303091092B900FA
:104D00008CE08093B8001092F4081092F508EBE163
:104D1000F1E085919491D82EEDE1F1E00491EEE17E
:104D2000F1E0E491E093F608EFE1F1E0E491E09343
:104D3000F708E0E2F1E0E491E093F8087C018E2DC1
:104D40008D19801750F4F701649180EF98E00E946C
:104D50001C1AFFEFEF1AFF0AF2CF80EF98E00E94D3
:104D6000F02284EF91E09093C5088093C40880EC12
:104D70000E94EF1E8E3E09F020C489E80E94EF1EBB
:104D8000682F616089E80E94E52360E088E80E945E
:104D9000E52361E080E80E94E52361E08FEF0E9457
:104DA000E52360E080E00E94E52381E90E94EF1E98
:104DB0008093C90861E080E00E94E52360E08FEF06
:104DC0000E94E52360E080E80E94E52380E60E94DF
:104DD000EF1E682F626180E60E94E52360E270E0CA
:104DE00084E40E94111F6FEF81E00E94E52361E0DF
:104DF00080E80E94E52361E08FEF0E94E52360E0F8
:104E000080E00E94E52366E08FEF0E94E52383E8BF
:104E10000E94EF1E682F646083E80E94E52367E02C
:104E20008FEF0E94E52361E081E80E94E52361E0C5
:104E300080E80E94E5236BE684E90E94E52360E0B8
:104E400083E80E94E5230E949E227093C808609325
:104E5000C70883E80E94EF1E811116C08091C40824
:104E60009091C508892BA9F30E949E222091C70822
:104E70003091C808621B730B8091C4089091C508DB
:104E80008617970730F799C361E083E80E94E5230E
:104E900082E90E94EF1EA82E282F2F77D22E60E0E5
:104EA00081E80E94E52366E08FEF0E94E52383E816
:104EB0000E94EF1E682F6B7F83E80E94E52361E06C
:104EC0008FEF0E94E52361E080E00E94E52360E02F
:104ED0008FEF0E94E52360E080E80E94E523809147
:104EE000C30891E09093C0068093E2061092C10639
:104EF0001092E30660EB84E397E00E94E81881E0FB
:104F00000E9489238093C20866E08091C3080E94B2
:104F100007247E013BE4E30EF11C470157E0C52E58
:104F20002E2C0F2DCA94CC2041F084E397E00E94F0
:104F30009F18F40181934F01F5CF61E08FEF0E943C
:104F4000E52360E08FE40E94E5236CE28EE40E949A
:104F5000E52360E08FEF0E94E52364EB86EB0E947F
:104F6000E523A7FE02C06CE001C060E090E080E0B5
:104F700041E050E0282F269526952695782F7770CA
:104F8000F701E20FF11D861710F09D110AC09A017A
:104F900001C0220F7A95EAF72095308123232083E0
:104FA00009C0208130E002C0359527957A95E2F757
:104FB00020FD9F5F8F5F8033E9F68091C30891E009
:104FC0009093C0068093E2061092C1061092E30609
:104FD00060EB84E397E00E94E81847E0D42EDA946F
:104FE000DD2041F0F70161917F0184E397E00E94A9
:104FF000E818F5CF81E00E9489238093C20861E020
:105000008FEF0E94E52360E080E00E94E52360E0EE
:105010008FEF0E94E52360E089E00E94E52360E0D5
:1050200080E10E94E52360E081E10E94E52361E0E8
:1050300084E20E94E5236FEF85E20E94E52360E0B1
:1050400085E70E94E52361E08FEF0E94E5236CE293
:105050008EE40E94E52360E088E40E94E52360E29C
:1050600080E30E94E52360E08FEF0E94E52369E082
:1050700080E30E94E52360E084E50E94E52364E08C
:1050800081E30E94E52363E082E30E94E52363E875
:1050900080E40E94E52365E286E40E94E52360E067
:1050A00080E60E94E52360E087E20E94E52366E057
:1050B00080E50E94E52360E081E50E94E52366E942
:1050C00082E50E94E52368E086E50E94E52360E32F
:1050D00087E50E94E52360E081E60E94E52360E029
:1050E00082E60E94E52360E084E60E94E52360E01A
:1050F00085E60E94E52360EA86E60E94E52361E0FA
:105100008FEF0E94E52362E382E20E94E52364E1DF
:1051100087E40E94E5236FEF89E40E94E52360E0C5
:105120008AE40E94E52360E08FEF0E94E5236AE0B5
:105130008AE70E94E52360E08BE70E94E52361E2B5
:1051400088E70E94E52361E08FEF0E94E52364E396
:1051500083E20E94E52360E082E40E94E5236FEF92
:1051600084E40E94E52366E285E40E94E52365E08D
:1051700086E40E94E52360E480E40E94E52366E083
:105180008EE00E94E5236AE180E20E94E52360E46C
:1051900083E40E94E52360E08FEF0E94E52363E053
:1051A00084E30E94E52364E485E30E94E52361E053
:1051B0008FEF0E94E52364E081E30E94E52369E02C
:1051C0008BE40E94E52365E08CE40E94E52364E023
:1051D0008DE40E94E52360E08FEF0E94E52360E00C
:1051E00084E40E94E52360E285E40E94E52368E010
:1051F00087E40E94E52368E288E40E94E52360E0FA
:1052000087E60E94E52364E080E70E94E52361E0F1
:1052100081E70E94E5236EEF82E70E94E52360E0CC
:1052200086E70E94E52360E087E70E94E52361E0CE
:105230008FEF0E94E52361E08DE00E94E52360E0AE
:105240008FEF0E94E52361E080E80E94E52368EF8C
:1052500081E00E94E52361E08FEF0E94E52361E099
:105260008EE80E94E52361E080E00E94E52360E093
:105270008FEF0E94E52360E080E80E94E52364E070
:105280008AE00E94E52384E80E94EF1E682F6F7E6B
:1052900084E80E94E52361E08BE00E94E523CE01D3
:1052A0008F5A9F4F0E94FA1FBE016F5F7F4FCE0142
:1052B0008F5A9F4F0E943B1F62968FAD6297882343
:1052C00049F08B859C85AD85BE858C57924FAF4F3D
:1052D000BF4F04C086E39BE0A0E0B0E064962FAD32
:1052E0006497222369F04B855C856D857E854E54DD
:1052F0005D4F6F4F7F4F440F551F661F771F0DC0C7
:1053000063962FAD6397222361F04B855C856D8595
:105310007E854C565D4F6F4F7F4F840F951FA61FA4
:10532000B71F65962FAD6597222361F04F85588989
:1053300069897A894C565D4F6F4F7F4F840F951F57
:10534000A61FB71F66962FAD6697222361F04B8983
:105350005C896D897E894A5D5D4F6F4F7F4F840FF9
:10536000951FA61FB71F8093CA089093CB08A093E0
:10537000CC08B093CD0868EE81E00E94E523C09090
:10538000CA08D090CB08E090CC08F090CD08F0E2AD
:10539000CF16FEE4DF06E104F10408F4D1C0CE012B
:1053A0008F5A9F4F0E94FA1FBE016F5F7F4FCE0141
:1053B0008F5A9F4F0E943B1F62968FAD6297882342
:1053C00049F08B859C85AD85BE858C57924FAF4F3C
:1053D000BF4F04C086E39BE0A0E0B0E064962FAD31
:1053E0006497222369F04B855C856D857E854E54DC
:1053F0005D4F6F4F7F4F440F551F661F771F0DC0C6
:1054000063962FAD6397222361F04B855C856D8594
:105410007E854C565D4F6F4F7F4F840F951FA61FA3
:10542000B71F65963FAC6597332061F04F8558896B
:1054300069897A894C565D4F6F4F7F4F840F951F56
:10544000A61FB71F66962FAD6697222309F478C072
:105450004C015D0126E2820E22E0921EA11CB11CCD
:10546000C814D904EA04FB0408F46AC0AB81B0E0B4
:1054700020E03FE24AE350E00E942F332B013C0141
:1054800034EF430E31E0531E611C711CA7019601DD
:10549000281939094A095B09A8EEB3E00E942F33A5
:1054A0004B015C01C301B20120ED37E040E050E068
:1054B0000E947933820E931EA41EB51EC301B20151
:1054C00028EE33E040E050E00E947933C501B4019A
:1054D0000E947933332031F08F819885280F391F4E
:1054E000411D511D2115310541055105E1F02901ED
:1054F0003A0181E0481A51086108710860E070E0E3
:10550000D301C2018827892B8A2B8B2B39F0769403
:105510006794579447946F5F7F4FF2CF762F66273B
:105520006429752902C060E070E081E70E94111FC4
:10553000C092CA08D092CB08E092CC08F092CD0875
:1055400061E081E00E94E52380E40E94AA22882392
:10555000A1F162E081E00E94E52380E00E94AA229E
:10556000882359F168EE81E00E94E52361E080E83C
:105570000E94E52361E08FEF0E94E52360E080E078
:105580000E94E5236091C90881E90E94E52361E05A
:1055900080E00E94E52360E08FEF0E94E52360E059
:1055A00080E80E94E52362E080E00E94E52390917C
:1055B0000001E1E0F1E080E001C0FFCF9587868740
:1055C0008F5F3F968532D1F762ED73E0CE01019691
:1055D0000E94921323E041E060E0CE0101960E9418
:1055E0000923CE0101960E9417206CE271E080E051
:1055F00090E00E946422612F70E06F5F7F4F822DE8
:10560000902F0E94682065EE73E0CE018F5A9F4F65
:105610000E949213622D702FCE018F5A9F4F0E94CD
:105620001C20BC01CE0101960E94781320E043E0CB
:1056300060E0CE0101960E940923CE0101960E94EE
:105640001720CE018F5A9F4F0E941720822D902F36
:105650000E94172068E572E080E090E00E946422DA
:1056600063EF73E0CE0101960E94921320E043E0C5
:1056700060E0CE0101960E940923CE0101960E94AE
:1056800017206CE271E080E090E00E94642263E009
:1056900074E0CE0101960E94921320E043E069E697
:1056A000CE0101960E940923CE0101960E94172087
:1056B00010E0812F0E94930B0E94A02062E070E016
:1056C00080E090E00E9464221F5F1F3F91F768EE28
:1056D00073E080E090E00E94642280EF98E00E94F6
:1056E000F0221E0191E4290E311CEE24EA94E3E03D
:1056F000FE2EFFE74F2E512C612C712C0E949E2212
:105700004B015C016093B9057093BA058093BB05AA
:105710009093BC0577E7C72E75E0D72E00E010E028
:1057200000FF02C061E001C060E088E00E94C82183
:1057300001FF02C061E001C060E089E00E94C82171
:1057400002FF02C061E001C060E08AE00E94C8215F
:10575000C80163E0959587956A95E1F7892B11F06B
:1057600061E001C060E08BE00E94C82182E10E94FC
:105770003322F601819391936F0183E10E943322DA
:10578000F601978F868F0F5F1F4F0031110541F68D
:105790000E94760A60936F0570937005809371057F
:1057A00090937205C501B4010E94260A0E949E22B0
:1057B0007093C8086093C70883E10E94EF1E87704A
:1057C000E1F48091C4089091C508892BA9F30E9447
:1057D0009E222091C7083091C808621B730B8091EC
:1057E000C4089091C5088617970730F781E0809329
:1057F000C608CC24CA94DC2C09C08EE10E94C41EC9
:105800008C0161E08BE00E94E5236801860106546B
:105810001109083EF3E01F0784F50115110569F130
:10582000609173057091740580917505909176056E
:1058300028E030E040E050E00E941033A7E0B0E004
:105840000E942F3317FF02C0095F1F4F53E01595C9
:1058500007955A95E1F7012E000C220B330BDC0162
:10586000CB01800F911FA21FB31F809373059093EC
:105870007405A0937505B093760524E633E0AE0178
:105880004F5F5F4F6A01DE015996CA01F9014191EC
:105890009F01E42FF0E0EE0FFF1FE958FA4F40811F
:1058A0005181FC0141935193CF01EA17FB0771F736
:1058B00080E593E0FC012191CF01E22FF0E0EE0FB3
:1058C000FF1FE958FA4F208131814FEF53E0421B0F
:1058D000530B4D935D93A215B30561F784E10E94CC
:1058E0003322F701E81BF90BCF01F101918380838B
:1058F00085E10E9433229701281B390B25963FAF83
:105900002EAF259786E10E943322A701481B590B31
:1059100027965FAF4EAF279787E10E943322F701AA
:10592000E81BF90B2996FFAFEEAF2997809173051D
:1059300090917405A0917505B0917605B7FD0CC0E6
:105940008139F1E09F07A105B10524F080E991E0DC
:10595000A0E0B0E09C0102C020E030E0A1E0BCEF9C
:105960000E94D83320E931E040E050E00E9410333B
:10597000DA01C90181509C4FAF4FBF4F2B969FAFAB
:105980008EAF2B9701E011E0B12CAA24A394F8016B
:105990001482F601219131916F01F801808191818A
:1059A000A901481B590BCA0157FF03C09195819566
:1059B00091090B97ECF1F80131832083A1E8BFEF47
:1059C0000E94D8332FEF33E040E050E00E941033C4
:1059D000BA01A90141585F4F6F4F7F4FF8015383C0
:1059E0004283A482B0926E0580916B05882349F0B2
:1059F0009A014637510514F025E730E0F801258378
:105A00000CC080916005882369F09A014A305105E5
:105A100014F42AE030E0F8012683A092B70533277A
:105A200033832283F8014585628186850E94760C46
:105A3000B394015F1F4FF5E2BF12A9CF80914D07CC
:105A400081110DC080912705882309F460C281E08F
:105A500080934D0780916E05809353072BC08091F2
:105A60004E0781112AC080915E05882361F08091E4
:105A70004C07863019F410924C0703C08F5F809357
:105A80004C070E94CD0C80916905882359F08091C4
:105A90004C07811102C086E001C0815080934C0701
:105AA0000E94CD0C80912705882309F430C281E043
:105AB00080934E070E94CD0C2AC2E0914C078E2F96
:105AC00090E08730910508F0FEC1FC01EA5AFF4FD3
:105AD0000C94D233809169058823F9F0E091530743
